{
  "_format": "hh-sol-artifact-1",
  "contractName": "UniversalTokenSale",
  "sourceName": "contracts/UniversalTokenSale.sol",
  "abi": [
    {
      "inputs": [],
      "stateMutability": "nonpayable",
      "type": "constructor"
    },
    {
      "inputs": [],
      "name": "AdditionsOverflow",
      "type": "error"
    },
    {
      "inputs": [],
      "name": "ApprovalFailed",
      "type": "error"
    },
    {
      "inputs": [],
      "name": "CantBeIdenticalAddresses",
      "type": "error"
    },
    {
      "inputs": [],
      "name": "CantBeZeroAddress",
      "type": "error"
    },
    {
      "inputs": [],
      "name": "IdenticalAddresses",
      "type": "error"
    },
    {
      "inputs": [
        {
          "internalType": "string",
          "name": "message",
          "type": "string"
        }
      ],
      "name": "InsufficientAmount",
      "type": "error"
    },
    {
      "inputs": [],
      "name": "InsufficientInputAmount",
      "type": "error"
    },
    {
      "inputs": [],
      "name": "InsufficientLiquidity",
      "type": "error"
    },
    {
      "inputs": [
        {
          "internalType": "uint256",
          "name": "amount",
          "type": "uint256"
        }
      ],
      "name": "InvalidAmount",
      "type": "error"
    },
    {
      "inputs": [],
      "name": "InvalidPath",
      "type": "error"
    },
    {
      "inputs": [],
      "name": "InvalidPathLength",
      "type": "error"
    },
    {
      "inputs": [],
      "name": "MultiplicationsOverflow",
      "type": "error"
    },
    {
      "inputs": [
        {
          "internalType": "address",
          "name": "owner",
          "type": "address"
        }
      ],
      "name": "OwnableInvalidOwner",
      "type": "error"
    },
    {
      "inputs": [
        {
          "internalType": "address",
          "name": "account",
          "type": "address"
        }
      ],
      "name": "OwnableUnauthorizedAccount",
      "type": "error"
    },
    {
      "inputs": [],
      "name": "Unauthorized",
      "type": "error"
    },
    {
      "inputs": [],
      "name": "ZeroAddress",
      "type": "error"
    },
    {
      "anonymous": false,
      "inputs": [
        {
          "indexed": true,
          "internalType": "address",
          "name": "buyer",
          "type": "address"
        },
        {
          "indexed": false,
          "internalType": "address",
          "name": "externalPaymentToken",
          "type": "address"
        },
        {
          "indexed": false,
          "internalType": "uint256",
          "name": "externalPaymentAmount",
          "type": "uint256"
        },
        {
          "indexed": false,
          "internalType": "address",
          "name": "paymentToken",
          "type": "address"
        },
        {
          "indexed": false,
          "internalType": "uint256",
          "name": "paymentAmount",
          "type": "uint256"
        },
        {
          "indexed": false,
          "internalType": "uint256",
          "name": "uTokenAmount",
          "type": "uint256"
        }
      ],
      "name": "BuyUToken",
      "type": "event"
    },
    {
      "anonymous": false,
      "inputs": [
        {
          "indexed": true,
          "internalType": "address",
          "name": "previousOwner",
          "type": "address"
        },
        {
          "indexed": true,
          "internalType": "address",
          "name": "newOwner",
          "type": "address"
        }
      ],
      "name": "OwnershipTransferred",
      "type": "event"
    },
    {
      "anonymous": false,
      "inputs": [
        {
          "indexed": true,
          "internalType": "address",
          "name": "seller",
          "type": "address"
        },
        {
          "indexed": false,
          "internalType": "uint256",
          "name": "uTokenAmount",
          "type": "uint256"
        },
        {
          "indexed": false,
          "internalType": "address",
          "name": "targetToken",
          "type": "address"
        },
        {
          "indexed": false,
          "internalType": "uint256",
          "name": "outputAmount",
          "type": "uint256"
        },
        {
          "indexed": false,
          "internalType": "uint256",
          "name": "gasFee",
          "type": "uint256"
        }
      ],
      "name": "SaleUToken",
      "type": "event"
    },
    {
      "anonymous": false,
      "inputs": [
        {
          "indexed": false,
          "internalType": "address",
          "name": "sender",
          "type": "address"
        },
        {
          "indexed": true,
          "internalType": "address",
          "name": "recipient",
          "type": "address"
        },
        {
          "indexed": true,
          "internalType": "address",
          "name": "inputToken",
          "type": "address"
        },
        {
          "indexed": true,
          "internalType": "address",
          "name": "targetToken",
          "type": "address"
        },
        {
          "indexed": false,
          "internalType": "uint256",
          "name": "inputAmount",
          "type": "uint256"
        },
        {
          "indexed": false,
          "internalType": "uint256",
          "name": "outputAmount",
          "type": "uint256"
        }
      ],
      "name": "TokenSwap",
      "type": "event"
    },
    {
      "inputs": [],
      "name": "GAS_LIMIT",
      "outputs": [
        {
          "internalType": "uint256",
          "name": "",
          "type": "uint256"
        }
      ],
      "stateMutability": "view",
      "type": "function"
    },
    {
      "inputs": [],
      "name": "GATEWAY",
      "outputs": [
        {
          "internalType": "contract IGatewayZEVM",
          "name": "",
          "type": "address"
        }
      ],
      "stateMutability": "view",
      "type": "function"
    },
    {
      "inputs": [],
      "name": "UNDERLYING_TOKEN",
      "outputs": [
        {
          "internalType": "contract UToken",
          "name": "",
          "type": "address"
        }
      ],
      "stateMutability": "view",
      "type": "function"
    },
    {
      "inputs": [],
      "name": "UNISWAP_ROUTER",
      "outputs": [
        {
          "internalType": "address",
          "name": "",
          "type": "address"
        }
      ],
      "stateMutability": "view",
      "type": "function"
    },
    {
      "inputs": [],
      "name": "WZeta",
      "outputs": [
        {
          "internalType": "address",
          "name": "",
          "type": "address"
        }
      ],
      "stateMutability": "view",
      "type": "function"
    },
    {
      "inputs": [
        {
          "components": [
            {
              "internalType": "bytes",
              "name": "sender",
              "type": "bytes"
            },
            {
              "internalType": "address",
              "name": "senderEVM",
              "type": "address"
            },
            {
              "internalType": "uint256",
              "name": "chainID",
              "type": "uint256"
            }
          ],
          "internalType": "struct MessageContext",
          "name": "context",
          "type": "tuple"
        },
        {
          "internalType": "address",
          "name": "zrc20",
          "type": "address"
        },
        {
          "internalType": "uint256",
          "name": "amount",
          "type": "uint256"
        },
        {
          "internalType": "bytes",
          "name": "",
          "type": "bytes"
        }
      ],
      "name": "onCall",
      "outputs": [],
      "stateMutability": "nonpayable",
      "type": "function"
    },
    {
      "inputs": [
        {
          "components": [
            {
              "internalType": "address",
              "name": "sender",
              "type": "address"
            },
            {
              "internalType": "address",
              "name": "asset",
              "type": "address"
            },
            {
              "internalType": "uint256",
              "name": "amount",
              "type": "uint256"
            },
            {
              "internalType": "bytes",
              "name": "revertMessage",
              "type": "bytes"
            }
          ],
          "internalType": "struct RevertContext",
          "name": "context",
          "type": "tuple"
        }
      ],
      "name": "onRevert",
      "outputs": [],
      "stateMutability": "nonpayable",
      "type": "function"
    },
    {
      "inputs": [],
      "name": "owner",
      "outputs": [
        {
          "internalType": "address",
          "name": "",
          "type": "address"
        }
      ],
      "stateMutability": "view",
      "type": "function"
    },
    {
      "inputs": [
        {
          "internalType": "address",
          "name": "inputToken",
          "type": "address"
        },
        {
          "internalType": "address",
          "name": "targetToken",
          "type": "address"
        }
      ],
      "name": "quoteMinInput",
      "outputs": [
        {
          "internalType": "uint256",
          "name": "",
          "type": "uint256"
        }
      ],
      "stateMutability": "view",
      "type": "function"
    },
    {
      "inputs": [],
      "name": "renounceOwnership",
      "outputs": [],
      "stateMutability": "nonpayable",
      "type": "function"
    },
    {
      "inputs": [
        {
          "internalType": "uint256",
          "name": "amount",
          "type": "uint256"
        }
      ],
      "name": "saleUToken",
      "outputs": [],
      "stateMutability": "nonpayable",
      "type": "function"
    },
    {
      "inputs": [
        {
          "internalType": "uint256",
          "name": "amount",
          "type": "uint256"
        },
        {
          "internalType": "address",
          "name": "targetToken",
          "type": "address"
        }
      ],
      "name": "saleUToken",
      "outputs": [],
      "stateMutability": "nonpayable",
      "type": "function"
    },
    {
      "inputs": [
        {
          "internalType": "address",
          "name": "recipient",
          "type": "address"
        },
        {
          "internalType": "contract IZRC20",
          "name": "token",
          "type": "address"
        },
        {
          "internalType": "uint256",
          "name": "amount",
          "type": "uint256"
        }
      ],
      "name": "sweep",
      "outputs": [],
      "stateMutability": "nonpayable",
      "type": "function"
    },
    {
      "inputs": [
        {
          "internalType": "address",
          "name": "recipient",
          "type": "address"
        },
        {
          "internalType": "contract IZRC20",
          "name": "token",
          "type": "address"
        }
      ],
      "name": "sweepAll",
      "outputs": [],
      "stateMutability": "nonpayable",
      "type": "function"
    },
    {
      "inputs": [
        {
          "internalType": "address",
          "name": "newOwner",
          "type": "address"
        }
      ],
      "name": "transferOwnership",
      "outputs": [],
      "stateMutability": "nonpayable",
      "type": "function"
    }
  ],
  "bytecode": "0x60a060405234801561001057600080fd5b5033600073ffffffffffffffffffffffffffffffffffffffff168173ffffffffffffffffffffffffffffffffffffffff16036100845760006040517f1e4fbdf700000000000000000000000000000000000000000000000000000000815260040161007b91906102d5565b60405180910390fd5b610093816101c360201b60201c565b50306040516100a190610287565b6100ab91906102d5565b604051809103906000f0801580156100c7573d6000803e3d6000fd5b5073ffffffffffffffffffffffffffffffffffffffff1660808173ffffffffffffffffffffffffffffffffffffffff1681525050732ca7d64a7efe2d62a725e2b35cf7230d6677ffee73ffffffffffffffffffffffffffffffffffffffff1663ad5c46486040518163ffffffff1660e01b8152600401602060405180830381865afa15801561015a573d6000803e3d6000fd5b505050506040513d601f19601f8201168201806040525081019061017e9190610321565b600160006101000a81548173ffffffffffffffffffffffffffffffffffffffff021916908373ffffffffffffffffffffffffffffffffffffffff16021790555061034e565b60008060009054906101000a900473ffffffffffffffffffffffffffffffffffffffff169050816000806101000a81548173ffffffffffffffffffffffffffffffffffffffff021916908373ffffffffffffffffffffffffffffffffffffffff1602179055508173ffffffffffffffffffffffffffffffffffffffff168173ffffffffffffffffffffffffffffffffffffffff167f8be0079c531659141344cd1fd0a4f28419497f9722a3daafe3b4186f6b6457e060405160405180910390a35050565b61186e8061471383390190565b600073ffffffffffffffffffffffffffffffffffffffff82169050919050565b60006102bf82610294565b9050919050565b6102cf816102b4565b82525050565b60006020820190506102ea60008301846102c6565b92915050565b600080fd5b6102fe816102b4565b811461030957600080fd5b50565b60008151905061031b816102f5565b92915050565b600060208284031215610337576103366102f0565b5b60006103458482850161030c565b91505092915050565b60805161438e61038560003960008181610726015281816107ac01528181610b9901528181610c060152610ea9015261438e6000f3fe608060405234801561001057600080fd5b50600436106100f55760003560e01c806363c1fdf511610097578063c9028a3611610066578063c9028a3614610238578063d826492014610254578063f2fde38b14610272578063f7c0d7911461028e576100f5565b806363c1fdf5146101d85780636dc8d1fb146101f4578063715018a6146102105780638da5cb5b1461021a576100f5565b8063338c5371116100d3578063338c5371146101665780634fde5c26146101845780635bcfd616146101a057806362c06767146101bc576100f5565b8063091d2788146100fa5780631b3614b81461011857806329db1be614610148575b600080fd5b6101026102ac565b60405161010f9190612e6f565b60405180910390f35b610132600480360381019061012d9190612efc565b6102b3565b60405161013f9190612e6f565b60405180910390f35b610150610724565b60405161015d9190612f9b565b60405180910390f35b61016e610748565b60405161017b9190612fd7565b60405180910390f35b61019e6004803603810190610199919061301e565b610760565b005b6101ba60048036038101906101b591906130d4565b610953565b005b6101d660048036038101906101d191906131b6565b610d13565b005b6101f260048036038101906101ed9190613209565b610e5d565b005b61020e60048036038101906102099190613249565b6110da565b005b610218611229565b005b61022261123d565b60405161022f9190613298565b60405180910390f35b610252600480360381019061024d91906132d2565b611266565b005b61025c611439565b6040516102699190613298565b60405180910390f35b61028c6004803603810190610287919061331b565b611451565b005b6102966114d7565b6040516102a39190613298565b60405180910390f35b624c4b4081565b60008060008373ffffffffffffffffffffffffffffffffffffffff1663d9eeebed6040518163ffffffff1660e01b81526004016040805180830381865afa158015610302573d6000803e3d6000fd5b505050506040513d601f19601f820116820180604052508101906103269190613372565b915091508173ffffffffffffffffffffffffffffffffffffffff168573ffffffffffffffffffffffffffffffffffffffff160361036757809250505061071e565b6060600160009054906101000a900473ffffffffffffffffffffffffffffffffffffffff1673ffffffffffffffffffffffffffffffffffffffff168673ffffffffffffffffffffffffffffffffffffffff1614806104125750600160009054906101000a900473ffffffffffffffffffffffffffffffffffffffff1673ffffffffffffffffffffffffffffffffffffffff168373ffffffffffffffffffffffffffffffffffffffff16145b1561050657600267ffffffffffffffff811115610432576104316133b2565b5b6040519080825280602002602001820160405280156104605781602001602082028036833780820191505090505b5090508581600081518110610478576104776133e1565b5b602002602001019073ffffffffffffffffffffffffffffffffffffffff16908173ffffffffffffffffffffffffffffffffffffffff168152505082816001815181106104c7576104c66133e1565b5b602002602001019073ffffffffffffffffffffffffffffffffffffffff16908173ffffffffffffffffffffffffffffffffffffffff1681525050610662565b600367ffffffffffffffff811115610521576105206133b2565b5b60405190808252806020026020018201604052801561054f5781602001602082028036833780820191505090505b5090508581600081518110610567576105666133e1565b5b602002602001019073ffffffffffffffffffffffffffffffffffffffff16908173ffffffffffffffffffffffffffffffffffffffff1681525050600160009054906101000a900473ffffffffffffffffffffffffffffffffffffffff16816001815181106105d8576105d76133e1565b5b602002602001019073ffffffffffffffffffffffffffffffffffffffff16908173ffffffffffffffffffffffffffffffffffffffff16815250508281600281518110610627576106266133e1565b5b602002602001019073ffffffffffffffffffffffffffffffffffffffff16908173ffffffffffffffffffffffffffffffffffffffff16815250505b6000732ca7d64a7efe2d62a725e2b35cf7230d6677ffee73ffffffffffffffffffffffffffffffffffffffff16631f00ca7484846040518363ffffffff1660e01b81526004016106b39291906134ce565b600060405180830381865afa1580156106d0573d6000803e3d6000fd5b505050506040513d6000823e3d601f19601f820116820180604052508101906106f9919061361e565b90508060008151811061070f5761070e6133e1565b5b60200260200101519450505050505b92915050565b7f000000000000000000000000000000000000000000000000000000000000000081565b736c533f7fe93fae114d0954697069df33c9b74fd781565b600081036107a557806040517f3728b83d00000000000000000000000000000000000000000000000000000000815260040161079c9190612e6f565b60405180910390fd5b60003390507f000000000000000000000000000000000000000000000000000000000000000073ffffffffffffffffffffffffffffffffffffffff16639dc29fac82846040518363ffffffff1660e01b8152600401610805929190613667565b600060405180830381600087803b15801561081f57600080fd5b505af1158015610833573d6000803e3d6000fd5b50505050600160009054906101000a900473ffffffffffffffffffffffffffffffffffffffff1673ffffffffffffffffffffffffffffffffffffffff1663a9059cbb82846040518363ffffffff1660e01b8152600401610894929190613667565b6020604051808303816000875af11580156108b3573d6000803e3d6000fd5b505050506040513d601f19601f820116820180604052508101906108d791906136c8565b508073ffffffffffffffffffffffffffffffffffffffff167f35f6d962f68d9953d52d9fcc8f41291affc5b94c86f698d18649e5ed1ad9b71c83600160009054906101000a900473ffffffffffffffffffffffffffffffffffffffff168560006040516109479493929190613730565b60405180910390a25050565b736c533f7fe93fae114d0954697069df33c9b74fd773ffffffffffffffffffffffffffffffffffffffff163373ffffffffffffffffffffffffffffffffffffffff16146109cc576040517f82b4290000000000000000000000000000000000000000000000000000000000815260040160405180910390fd5b6000610a298680600001906109e19190613784565b8080601f016020809104026020016040519081016040528093929190818152602001838380828437600081840152601f19601f820116905080830192505050505050506114fd565b90506000849050600160009054906101000a900473ffffffffffffffffffffffffffffffffffffffff1673ffffffffffffffffffffffffffffffffffffffff168673ffffffffffffffffffffffffffffffffffffffff1614610b6e57610ac9732ca7d64a7efe2d62a725e2b35cf7230d6677ffee8787600160009054906101000a900473ffffffffffffffffffffffffffffffffffffffff16600061154f565b9050600160009054906101000a900473ffffffffffffffffffffffffffffffffffffffff1673ffffffffffffffffffffffffffffffffffffffff168673ffffffffffffffffffffffffffffffffffffffff163073ffffffffffffffffffffffffffffffffffffffff167f782d2b6f5d2967549af971556c413c54ebc0ee64511fe01280ae124e67fc4dac308986604051610b65939291906137e7565b60405180910390a45b6000610bbd82600160009054906101000a900473ffffffffffffffffffffffffffffffffffffffff167f0000000000000000000000000000000000000000000000000000000000000000611a3b565b905060008103610c0457806040517f3728b83d000000000000000000000000000000000000000000000000000000008152600401610bfb9190612e6f565b60405180910390fd5b7f000000000000000000000000000000000000000000000000000000000000000073ffffffffffffffffffffffffffffffffffffffff166340c10f1984836040518363ffffffff1660e01b8152600401610c5f929190613667565b600060405180830381600087803b158015610c7957600080fd5b505af1158015610c8d573d6000803e3d6000fd5b505050508273ffffffffffffffffffffffffffffffffffffffff167f24132e3aeb39612835bbb282392ef60ccfefa3e7d4a4f4dca3d4e86bda8445bb8888600160009054906101000a900473ffffffffffffffffffffffffffffffffffffffff168686604051610d0195949392919061381e565b60405180910390a25050505050505050565b610d1b611ba2565b8173ffffffffffffffffffffffffffffffffffffffff166370a08231306040518263ffffffff1660e01b8152600401610d549190613298565b602060405180830381865afa158015610d71573d6000803e3d6000fd5b505050506040513d601f19601f82011682018060405250810190610d959190613871565b811115610dd957806040517f3728b83d000000000000000000000000000000000000000000000000000000008152600401610dd09190612e6f565b60405180910390fd5b8173ffffffffffffffffffffffffffffffffffffffff1663a9059cbb84836040518363ffffffff1660e01b8152600401610e14929190613667565b6020604051808303816000875af1158015610e33573d6000803e3d6000fd5b505050506040513d601f19601f82011682018060405250810190610e5791906136c8565b50505050565b60008203610ea257816040517f3728b83d000000000000000000000000000000000000000000000000000000008152600401610e999190612e6f565b60405180910390fd5b60003390507f000000000000000000000000000000000000000000000000000000000000000073ffffffffffffffffffffffffffffffffffffffff16639dc29fac82856040518363ffffffff1660e01b8152600401610f02929190613667565b600060405180830381600087803b158015610f1c57600080fd5b505af1158015610f30573d6000803e3d6000fd5b505050506000806000610f66600160009054906101000a900473ffffffffffffffffffffffffffffffffffffffff168787611c29565b9250925092508473ffffffffffffffffffffffffffffffffffffffff16600160009054906101000a900473ffffffffffffffffffffffffffffffffffffffff1673ffffffffffffffffffffffffffffffffffffffff163073ffffffffffffffffffffffffffffffffffffffff167f782d2b6f5d2967549af971556c413c54ebc0ee64511fe01280ae124e67fc4dac308a88604051611006939291906137e7565b60405180910390a46000830361105357826040517f3728b83d00000000000000000000000000000000000000000000000000000000815260040161104a9190612e6f565b60405180910390fd5b61107e8460405160200161106791906138e6565b604051602081830303815290604052828486611db0565b8373ffffffffffffffffffffffffffffffffffffffff167f35f6d962f68d9953d52d9fcc8f41291affc5b94c86f698d18649e5ed1ad9b71c878786856040516110ca9493929190613901565b60405180910390a2505050505050565b6110e2611ba2565b60008173ffffffffffffffffffffffffffffffffffffffff166370a08231306040518263ffffffff1660e01b815260040161111d9190613298565b602060405180830381865afa15801561113a573d6000803e3d6000fd5b505050506040513d601f19601f8201168201806040525081019061115e9190613871565b9050600081036111a557806040517f3728b83d00000000000000000000000000000000000000000000000000000000815260040161119c9190612e6f565b60405180910390fd5b8173ffffffffffffffffffffffffffffffffffffffff1663a9059cbb84836040518363ffffffff1660e01b81526004016111e0929190613667565b6020604051808303816000875af11580156111ff573d6000803e3d6000fd5b505050506040513d601f19601f8201168201806040525081019061122391906136c8565b50505050565b611231611ba2565b61123b6000611fe0565b565b60008060009054906101000a900473ffffffffffffffffffffffffffffffffffffffff16905090565b736c533f7fe93fae114d0954697069df33c9b74fd773ffffffffffffffffffffffffffffffffffffffff163373ffffffffffffffffffffffffffffffffffffffff16146112df576040517f82b4290000000000000000000000000000000000000000000000000000000000815260040160405180910390fd5b60008180606001906112f19190613784565b8101906112fe91906139c3565b905060008160000151905060008260600151836040015161131f9190613a1f565b90506000836020015173ffffffffffffffffffffffffffffffffffffffff166370a08231306040518263ffffffff1660e01b81526004016113609190613298565b602060405180830381865afa15801561137d573d6000803e3d6000fd5b505050506040513d601f19601f820116820180604052508101906113a19190613871565b9050818110156113af578091505b836020015173ffffffffffffffffffffffffffffffffffffffff1663a9059cbb84846040518363ffffffff1660e01b81526004016113ee929190613667565b6020604051808303816000875af115801561140d573d6000803e3d6000fd5b505050506040513d601f19601f8201168201806040525081019061143191906136c8565b505050505050565b732ca7d64a7efe2d62a725e2b35cf7230d6677ffee81565b611459611ba2565b600073ffffffffffffffffffffffffffffffffffffffff168173ffffffffffffffffffffffffffffffffffffffff16036114cb5760006040517f1e4fbdf70000000000000000000000000000000000000000000000000000000081526004016114c29190613298565b60405180910390fd5b6114d481611fe0565b50565b600160009054906101000a900473ffffffffffffffffffffffffffffffffffffffff1681565b60006014825114611543576040517f08c379a000000000000000000000000000000000000000000000000000000000815260040161153a90613ab0565b60405180910390fd5b60148201519050919050565b6000808673ffffffffffffffffffffffffffffffffffffffff1663c45a01556040518163ffffffff1660e01b8152600401602060405180830381865afa15801561159d573d6000803e3d6000fd5b505050506040513d601f19601f820116820180604052508101906115c19190613ad0565b905060008773ffffffffffffffffffffffffffffffffffffffff1663ad5c46486040518163ffffffff1660e01b8152600401602060405180830381865afa158015611610573d6000803e3d6000fd5b505050506040513d601f19601f820116820180604052508101906116349190613ad0565b90506060600267ffffffffffffffff811115611653576116526133b2565b5b6040519080825280602002602001820160405280156116815781602001602082028036833780820191505090505b5090508781600081518110611699576116986133e1565b5b602002602001019073ffffffffffffffffffffffffffffffffffffffff16908173ffffffffffffffffffffffffffffffffffffffff168152505085816001815181106116e8576116e76133e1565b5b602002602001019073ffffffffffffffffffffffffffffffffffffffff16908173ffffffffffffffffffffffffffffffffffffffff16815250506000611730848988856120a4565b905060008373ffffffffffffffffffffffffffffffffffffffff168873ffffffffffffffffffffffffffffffffffffffff16148061179957508373ffffffffffffffffffffffffffffffffffffffff168a73ffffffffffffffffffffffffffffffffffffffff16145b9050811580156117a7575080155b156118e657600367ffffffffffffffff8111156117c7576117c66133b2565b5b6040519080825280602002602001820160405280156117f55781602001602082028036833780820191505090505b509250898360008151811061180d5761180c6133e1565b5b602002602001019073ffffffffffffffffffffffffffffffffffffffff16908173ffffffffffffffffffffffffffffffffffffffff1681525050838360018151811061185c5761185b6133e1565b5b602002602001019073ffffffffffffffffffffffffffffffffffffffff16908173ffffffffffffffffffffffffffffffffffffffff168152505087836002815181106118ab576118aa6133e1565b5b602002602001019073ffffffffffffffffffffffffffffffffffffffff16908173ffffffffffffffffffffffffffffffffffffffff16815250505b8973ffffffffffffffffffffffffffffffffffffffff1663095ea7b38c8b6040518363ffffffff1660e01b8152600401611921929190613667565b6020604051808303816000875af1158015611940573d6000803e3d6000fd5b505050506040513d601f19601f8201168201806040525081019061196491906136c8565b5060008b73ffffffffffffffffffffffffffffffffffffffff166338ed17398b8a873060c861ffff16426119989190613a1f565b6040518663ffffffff1660e01b81526004016119b8959493929190613afd565b6000604051808303816000875af11580156119d7573d6000803e3d6000fd5b505050506040513d6000823e3d601f19601f82011682018060405250810190611a00919061361e565b90508060018551611a119190613b57565b81518110611a2257611a216133e1565b5b6020026020010151965050505050505095945050505050565b6000808373ffffffffffffffffffffffffffffffffffffffff1663313ce5676040518163ffffffff1660e01b8152600401602060405180830381865afa158015611a89573d6000803e3d6000fd5b505050506040513d601f19601f82011682018060405250810190611aad9190613bc4565b905060008373ffffffffffffffffffffffffffffffffffffffff1663313ce5676040518163ffffffff1660e01b8152600401602060405180830381865afa158015611afc573d6000803e3d6000fd5b505050506040513d601f19601f82011682018060405250810190611b209190613bc4565b90508060ff168260ff1603611b39578592505050611b9b565b8060ff168260ff161015611b73578181611b539190613bf1565b600a611b5f9190613d59565b86611b6a9190613da4565b92505050611b9b565b8082611b7f9190613bf1565b600a611b8b9190613d59565b86611b969190613e15565b925050505b9392505050565b611baa61217c565b73ffffffffffffffffffffffffffffffffffffffff16611bc861123d565b73ffffffffffffffffffffffffffffffffffffffff1614611c2757611beb61217c565b6040517f118cdaa7000000000000000000000000000000000000000000000000000000008152600401611c1e9190613298565b60405180910390fd5b565b60008060008060008690506000808773ffffffffffffffffffffffffffffffffffffffff1663d9eeebed6040518163ffffffff1660e01b81526004016040805180830381865afa158015611c81573d6000803e3d6000fd5b505050506040513d601f19601f82011682018060405250810190611ca59190613372565b915091506000611cb58b8a6102b3565b9050808a1015611cfa576040517f4817ec2e000000000000000000000000000000000000000000000000000000008152600401611cf190613ede565b60405180910390fd5b8a73ffffffffffffffffffffffffffffffffffffffff168373ffffffffffffffffffffffffffffffffffffffff1603611d4057818a611d399190613b57565b9350611d72565b611d61732ca7d64a7efe2d62a725e2b35cf7230d6677ffee8c84868e612184565b9450848a611d6f9190613b57565b93505b6000611d96732ca7d64a7efe2d62a725e2b35cf7230d6677ffee8d878d600061154f565b905080848498509850985050505050505093509350939050565b8173ffffffffffffffffffffffffffffffffffffffff1663095ea7b3736c533f7fe93fae114d0954697069df33c9b74fd78584611ded9190613a1f565b6040518363ffffffff1660e01b8152600401611e0a929190613667565b6020604051808303816000875af1158015611e29573d6000803e3d6000fd5b505050506040513d601f19601f82011682018060405250810190611e4d91906136c8565b611e83576040517f8164f84200000000000000000000000000000000000000000000000000000000815260040160405180910390fd5b60006040518060800160405280611e99876114fd565b73ffffffffffffffffffffffffffffffffffffffff1681526020018473ffffffffffffffffffffffffffffffffffffffff168152602001858152602001838152509050736c533f7fe93fae114d0954697069df33c9b74fd773ffffffffffffffffffffffffffffffffffffffff16637c0dcb5f8684866040518060a001604052803073ffffffffffffffffffffffffffffffffffffffff168152602001600115158152602001600073ffffffffffffffffffffffffffffffffffffffff16815260200187604051602001611f6d9190613f62565b6040516020818303038152906040528152602001624c4b408152506040518563ffffffff1660e01b8152600401611fa794939291906140cb565b600060405180830381600087803b158015611fc157600080fd5b505af1158015611fd5573d6000803e3d6000fd5b505050505050505050565b60008060009054906101000a900473ffffffffffffffffffffffffffffffffffffffff169050816000806101000a81548173ffffffffffffffffffffffffffffffffffffffff021916908373ffffffffffffffffffffffffffffffffffffffff1602179055508173ffffffffffffffffffffffffffffffffffffffff168173ffffffffffffffffffffffffffffffffffffffff167f8be0079c531659141344cd1fd0a4f28419497f9722a3daafe3b4186f6b6457e060405160405180910390a35050565b600060028251146120e1576040517fcd608bfe00000000000000000000000000000000000000000000000000000000815260040160405180910390fd5b600061212486846000815181106120fb576120fa6133e1565b5b602002602001015185600181518110612117576121166133e1565b5b60200260200101516125f3565b905080612135576000915050612174565b600061214287878661270f565b90508481600183516121549190613b57565b81518110612165576121646133e1565b5b60200260200101511015925050505b949350505050565b600033905090565b6000808673ffffffffffffffffffffffffffffffffffffffff1663c45a01556040518163ffffffff1660e01b8152600401602060405180830381865afa1580156121d2573d6000803e3d6000fd5b505050506040513d601f19601f820116820180604052508101906121f69190613ad0565b905060008773ffffffffffffffffffffffffffffffffffffffff1663ad5c46486040518163ffffffff1660e01b8152600401602060405180830381865afa158015612245573d6000803e3d6000fd5b505050506040513d601f19601f820116820180604052508101906122699190613ad0565b905060006122788389886125f3565b90506060811561237157600267ffffffffffffffff81111561229d5761229c6133b2565b5b6040519080825280602002602001820160405280156122cb5781602001602082028036833780820191505090505b50905088816000815181106122e3576122e26133e1565b5b602002602001019073ffffffffffffffffffffffffffffffffffffffff16908173ffffffffffffffffffffffffffffffffffffffff16815250508681600181518110612332576123316133e1565b5b602002602001019073ffffffffffffffffffffffffffffffffffffffff16908173ffffffffffffffffffffffffffffffffffffffff16815250506124ab565b600367ffffffffffffffff81111561238c5761238b6133b2565b5b6040519080825280602002602001820160405280156123ba5781602001602082028036833780820191505090505b50905088816000815181106123d2576123d16133e1565b5b602002602001019073ffffffffffffffffffffffffffffffffffffffff16908173ffffffffffffffffffffffffffffffffffffffff16815250508281600181518110612421576124206133e1565b5b602002602001019073ffffffffffffffffffffffffffffffffffffffff16908173ffffffffffffffffffffffffffffffffffffffff168152505086816002815181106124705761246f6133e1565b5b602002602001019073ffffffffffffffffffffffffffffffffffffffff16908173ffffffffffffffffffffffffffffffffffffffff16815250505b8873ffffffffffffffffffffffffffffffffffffffff1663095ea7b38b886040518363ffffffff1660e01b81526004016124e6929190613667565b6020604051808303816000875af1158015612505573d6000803e3d6000fd5b505050506040513d601f19601f8201168201806040525081019061252991906136c8565b5060008a73ffffffffffffffffffffffffffffffffffffffff16638803dbee8a89853060c861ffff164261255d9190613a1f565b6040518663ffffffff1660e01b815260040161257d959493929190613afd565b6000604051808303816000875af115801561259c573d6000803e3d6000fd5b505050506040513d6000823e3d601f19601f820116820180604052508101906125c5919061361e565b9050806000815181106125db576125da6133e1565b5b60200260200101519550505050505095945050505050565b60008061260185858561288b565b905060008473ffffffffffffffffffffffffffffffffffffffff166370a08231836040518263ffffffff1660e01b815260040161263e9190613298565b602060405180830381865afa15801561265b573d6000803e3d6000fd5b505050506040513d601f19601f8201168201806040525081019061267f9190613871565b118015612705575060008373ffffffffffffffffffffffffffffffffffffffff166370a08231836040518263ffffffff1660e01b81526004016126c29190613298565b602060405180830381865afa1580156126df573d6000803e3d6000fd5b505050506040513d601f19601f820116820180604052508101906127039190613871565b115b9150509392505050565b606060028251101561274d576040517f20db826700000000000000000000000000000000000000000000000000000000815260040160405180910390fd5b815167ffffffffffffffff811115612768576127676133b2565b5b6040519080825280602002602001820160405280156127965781602001602082028036833780820191505090505b50905082816000815181106127ae576127ad6133e1565b5b60200260200101818152505060005b600183516127cb9190613b57565b81101561288357600080612820878685815181106127ec576127eb6133e1565b5b6020026020010151876001876128029190613a1f565b81518110612813576128126133e1565b5b60200260200101516128fd565b9150915061284984848151811061283a576128396133e1565b5b60200260200101518383612a00565b846001856128579190613a1f565b81518110612868576128676133e1565b5b602002602001018181525050505080806001019150506127bd565b509392505050565b600080600061289a8585612af4565b915091508582826040516020016128b292919061411e565b604051602081830303815290604052805190602001206040516020016128d9929190614218565b6040516020818303038152906040528051906020012060001c925050509392505050565b600080600061290c8585612c0e565b50905060008061291d888888612d28565b73ffffffffffffffffffffffffffffffffffffffff16630902f1ac6040518163ffffffff1660e01b8152600401606060405180830381865afa158015612967573d6000803e3d6000fd5b505050506040513d601f19601f8201168201806040525081019061298b91906142dc565b506dffffffffffffffffffffffffffff1691506dffffffffffffffffffffffffffff1691508273ffffffffffffffffffffffffffffffffffffffff168773ffffffffffffffffffffffffffffffffffffffff16146129ea5780826129ed565b81815b8095508196505050505050935093915050565b6000808403612a3b576040517f098fb56100000000000000000000000000000000000000000000000000000000815260040160405180910390fd5b6000831480612a4a5750600082145b15612a81576040517fbb55fd2700000000000000000000000000000000000000000000000000000000815260040160405180910390fd5b6000612a986103e586612daf90919063ffffffff16565b90506000612aaf8483612daf90919063ffffffff16565b90506000612ada83612acc6103e889612daf90919063ffffffff16565b612e0f90919063ffffffff16565b90508082612ae89190613e15565b93505050509392505050565b6000808273ffffffffffffffffffffffffffffffffffffffff168473ffffffffffffffffffffffffffffffffffffffff1603612b5c576040517fcb1e7cfe00000000000000000000000000000000000000000000000000000000815260040160405180910390fd5b8273ffffffffffffffffffffffffffffffffffffffff168473ffffffffffffffffffffffffffffffffffffffff1610612b96578284612b99565b83835b8092508193505050600073ffffffffffffffffffffffffffffffffffffffff168273ffffffffffffffffffffffffffffffffffffffff1603612c07576040517f78b507da00000000000000000000000000000000000000000000000000000000815260040160405180910390fd5b9250929050565b6000808273ffffffffffffffffffffffffffffffffffffffff168473ffffffffffffffffffffffffffffffffffffffff1603612c76576040517fbd969eb000000000000000000000000000000000000000000000000000000000815260040160405180910390fd5b8273ffffffffffffffffffffffffffffffffffffffff168473ffffffffffffffffffffffffffffffffffffffff1610612cb0578284612cb3565b83835b8092508193505050600073ffffffffffffffffffffffffffffffffffffffff168273ffffffffffffffffffffffffffffffffffffffff1603612d21576040517fd92e233d00000000000000000000000000000000000000000000000000000000815260040160405180910390fd5b9250929050565b60008373ffffffffffffffffffffffffffffffffffffffff1663e6a4390584846040518363ffffffff1660e01b8152600401612d6592919061432f565b602060405180830381865afa158015612d82573d6000803e3d6000fd5b505050506040513d601f19601f82011682018060405250810190612da69190613ad0565b90509392505050565b600080831480612dd35750818383850292508281612dd057612dcf613de6565b5b04145b612e09576040517f5797276a00000000000000000000000000000000000000000000000000000000815260040160405180910390fd5b92915050565b6000818301905082811015612e50576040517fa259879500000000000000000000000000000000000000000000000000000000815260040160405180910390fd5b92915050565b6000819050919050565b612e6981612e56565b82525050565b6000602082019050612e846000830184612e60565b92915050565b6000604051905090565b600080fd5b600080fd5b600073ffffffffffffffffffffffffffffffffffffffff82169050919050565b6000612ec982612e9e565b9050919050565b612ed981612ebe565b8114612ee457600080fd5b50565b600081359050612ef681612ed0565b92915050565b60008060408385031215612f1357612f12612e94565b5b6000612f2185828601612ee7565b9250506020612f3285828601612ee7565b9150509250929050565b6000819050919050565b6000612f61612f5c612f5784612e9e565b612f3c565b612e9e565b9050919050565b6000612f7382612f46565b9050919050565b6000612f8582612f68565b9050919050565b612f9581612f7a565b82525050565b6000602082019050612fb06000830184612f8c565b92915050565b6000612fc182612f68565b9050919050565b612fd181612fb6565b82525050565b6000602082019050612fec6000830184612fc8565b92915050565b612ffb81612e56565b811461300657600080fd5b50565b60008135905061301881612ff2565b92915050565b60006020828403121561303457613033612e94565b5b600061304284828501613009565b91505092915050565b600080fd5b6000606082840312156130665761306561304b565b5b81905092915050565b600080fd5b600080fd5b600080fd5b60008083601f8401126130945761309361306f565b5b8235905067ffffffffffffffff8111156130b1576130b0613074565b5b6020830191508360018202830111156130cd576130cc613079565b5b9250929050565b6000806000806000608086880312156130f0576130ef612e94565b5b600086013567ffffffffffffffff81111561310e5761310d612e99565b5b61311a88828901613050565b955050602061312b88828901612ee7565b945050604061313c88828901613009565b935050606086013567ffffffffffffffff81111561315d5761315c612e99565b5b6131698882890161307e565b92509250509295509295909350565b600061318382612ebe565b9050919050565b61319381613178565b811461319e57600080fd5b50565b6000813590506131b08161318a565b92915050565b6000806000606084860312156131cf576131ce612e94565b5b60006131dd86828701612ee7565b93505060206131ee868287016131a1565b92505060406131ff86828701613009565b9150509250925092565b600080604083850312156132205761321f612e94565b5b600061322e85828601613009565b925050602061323f85828601612ee7565b9150509250929050565b600080604083850312156132605761325f612e94565b5b600061326e85828601612ee7565b925050602061327f858286016131a1565b9150509250929050565b61329281612ebe565b82525050565b60006020820190506132ad6000830184613289565b92915050565b6000608082840312156132c9576132c861304b565b5b81905092915050565b6000602082840312156132e8576132e7612e94565b5b600082013567ffffffffffffffff81111561330657613305612e99565b5b613312848285016132b3565b91505092915050565b60006020828403121561333157613330612e94565b5b600061333f84828501612ee7565b91505092915050565b60008151905061335781612ed0565b92915050565b60008151905061336c81612ff2565b92915050565b6000806040838503121561338957613388612e94565b5b600061339785828601613348565b92505060206133a88582860161335d565b9150509250929050565b7f4e487b7100000000000000000000000000000000000000000000000000000000600052604160045260246000fd5b7f4e487b7100000000000000000000000000000000000000000000000000000000600052603260045260246000fd5b600081519050919050565b600082825260208201905092915050565b6000819050602082019050919050565b61344581612ebe565b82525050565b6000613457838361343c565b60208301905092915050565b6000602082019050919050565b600061347b82613410565b613485818561341b565b93506134908361342c565b8060005b838110156134c15781516134a8888261344b565b97506134b383613463565b925050600181019050613494565b5085935050505092915050565b60006040820190506134e36000830185612e60565b81810360208301526134f58184613470565b90509392505050565b6000601f19601f8301169050919050565b613518826134fe565b810181811067ffffffffffffffff82111715613537576135366133b2565b5b80604052505050565b600061354a612e8a565b9050613556828261350f565b919050565b600067ffffffffffffffff821115613576576135756133b2565b5b602082029050602081019050919050565b600061359a6135958461355b565b613540565b905080838252602082019050602084028301858111156135bd576135bc613079565b5b835b818110156135e657806135d2888261335d565b8452602084019350506020810190506135bf565b5050509392505050565b600082601f8301126136055761360461306f565b5b8151613615848260208601613587565b91505092915050565b60006020828403121561363457613633612e94565b5b600082015167ffffffffffffffff81111561365257613651612e99565b5b61365e848285016135f0565b91505092915050565b600060408201905061367c6000830185613289565b6136896020830184612e60565b9392505050565b60008115159050919050565b6136a581613690565b81146136b057600080fd5b50565b6000815190506136c28161369c565b92915050565b6000602082840312156136de576136dd612e94565b5b60006136ec848285016136b3565b91505092915050565b6000819050919050565b600061371a613715613710846136f5565b612f3c565b612e56565b9050919050565b61372a816136ff565b82525050565b60006080820190506137456000830187612e60565b6137526020830186613289565b61375f6040830185612e60565b61376c6060830184613721565b95945050505050565b600080fd5b600080fd5b600080fd5b600080833560016020038436030381126137a1576137a0613775565b5b80840192508235915067ffffffffffffffff8211156137c3576137c261377a565b5b6020830192506001820236038313156137df576137de61377f565b5b509250929050565b60006060820190506137fc6000830186613289565b6138096020830185612e60565b6138166040830184612e60565b949350505050565b600060a0820190506138336000830188613289565b6138406020830187612e60565b61384d6040830186613289565b61385a6060830185612e60565b6138676080830184612e60565b9695505050505050565b60006020828403121561388757613886612e94565b5b60006138958482850161335d565b91505092915050565b60008160601b9050919050565b60006138b68261389e565b9050919050565b60006138c8826138ab565b9050919050565b6138e06138db82612ebe565b6138bd565b82525050565b60006138f282846138cf565b60148201915081905092915050565b60006080820190506139166000830187612e60565b6139236020830186613289565b6139306040830185612e60565b61393d6060830184612e60565b95945050505050565b600080fd5b60006080828403121561396157613960613946565b5b61396b6080613540565b9050600061397b84828501612ee7565b600083015250602061398f84828501612ee7565b60208301525060406139a384828501613009565b60408301525060606139b784828501613009565b60608301525092915050565b6000608082840312156139d9576139d8612e94565b5b60006139e78482850161394b565b91505092915050565b7f4e487b7100000000000000000000000000000000000000000000000000000000600052601160045260246000fd5b6000613a2a82612e56565b9150613a3583612e56565b9250828201905080821115613a4d57613a4c6139f0565b5b92915050565b600082825260208201905092915050565b7f496e76616c69642061646472657373206279746573206c656e67746800000000600082015250565b6000613a9a601c83613a53565b9150613aa582613a64565b602082019050919050565b60006020820190508181036000830152613ac981613a8d565b9050919050565b600060208284031215613ae657613ae5612e94565b5b6000613af484828501613348565b91505092915050565b600060a082019050613b126000830188612e60565b613b1f6020830187612e60565b8181036040830152613b318186613470565b9050613b406060830185613289565b613b4d6080830184612e60565b9695505050505050565b6000613b6282612e56565b9150613b6d83612e56565b9250828203905081811115613b8557613b846139f0565b5b92915050565b600060ff82169050919050565b613ba181613b8b565b8114613bac57600080fd5b50565b600081519050613bbe81613b98565b92915050565b600060208284031215613bda57613bd9612e94565b5b6000613be884828501613baf565b91505092915050565b6000613bfc82613b8b565b9150613c0783613b8b565b9250828203905060ff811115613c2057613c1f6139f0565b5b92915050565b60008160011c9050919050565b6000808291508390505b6001851115613c7d57808604811115613c5957613c586139f0565b5b6001851615613c685780820291505b8081029050613c7685613c26565b9450613c3d565b94509492505050565b600082613c965760019050613d52565b81613ca45760009050613d52565b8160018114613cba5760028114613cc457613cf3565b6001915050613d52565b60ff841115613cd657613cd56139f0565b5b8360020a915084821115613ced57613cec6139f0565b5b50613d52565b5060208310610133831016604e8410600b8410161715613d285782820a905083811115613d2357613d226139f0565b5b613d52565b613d358484846001613c33565b92509050818404811115613d4c57613d4b6139f0565b5b81810290505b9392505050565b6000613d6482612e56565b9150613d6f83613b8b565b9250613d9c7fffffffffffffffffffffffffffffffffffffffffffffffffffffffffffffffff8484613c86565b905092915050565b6000613daf82612e56565b9150613dba83612e56565b9250828202613dc881612e56565b91508282048414831517613ddf57613dde6139f0565b5b5092915050565b7f4e487b7100000000000000000000000000000000000000000000000000000000600052601260045260246000fd5b6000613e2082612e56565b9150613e2b83612e56565b925082613e3b57613e3a613de6565b5b828204905092915050565b7f54686520696e70757420616d6f756e74206973206c657373207468616e20746860008201527f65206d696e20616d6f756e7420726571756972656420746f20636f766572207460208201527f6865207769746864726177206761732066656500000000000000000000000000604082015250565b6000613ec8605383613a53565b9150613ed382613e46565b606082019050919050565b60006020820190508181036000830152613ef781613ebb565b9050919050565b613f0781612e56565b82525050565b608082016000820151613f23600085018261343c565b506020820151613f36602085018261343c565b506040820151613f496040850182613efe565b506060820151613f5c6060850182613efe565b50505050565b6000608082019050613f776000830184613f0d565b92915050565b600081519050919050565b600082825260208201905092915050565b60005b83811015613fb7578082015181840152602081019050613f9c565b60008484015250505050565b6000613fce82613f7d565b613fd88185613f88565b9350613fe8818560208601613f99565b613ff1816134fe565b840191505092915050565b61400581613690565b82525050565b600082825260208201905092915050565b600061402782613f7d565b614031818561400b565b9350614041818560208601613f99565b61404a816134fe565b840191505092915050565b600060a08301600083015161406d600086018261343c565b5060208301516140806020860182613ffc565b506040830151614093604086018261343c565b50606083015184820360608601526140ab828261401c565b91505060808301516140c06080860182613efe565b508091505092915050565b600060808201905081810360008301526140e58187613fc3565b90506140f46020830186612e60565b6141016040830185613289565b81810360608301526141138184614055565b905095945050505050565b600061412a82856138cf565b60148201915061413a82846138cf565b6014820191508190509392505050565b600081905092915050565b7fff00000000000000000000000000000000000000000000000000000000000000600082015250565b600061418b60018361414a565b915061419682614155565b600182019050919050565b6000819050919050565b6000819050919050565b6141c66141c1826141a1565b6141ab565b82525050565b7f96e8ac4277198ff8b6f785478aa9a39f403cb768dd02cbee326c3e7da348845f600082015250565b600061420260208361414a565b915061420d826141cc565b602082019050919050565b60006142238261417e565b915061422f82856138cf565b60148201915061423f82846141b5565b60208201915061424e826141f5565b91508190509392505050565b60006dffffffffffffffffffffffffffff82169050919050565b61427d8161425a565b811461428857600080fd5b50565b60008151905061429a81614274565b92915050565b600063ffffffff82169050919050565b6142b9816142a0565b81146142c457600080fd5b50565b6000815190506142d6816142b0565b92915050565b6000806000606084860312156142f5576142f4612e94565b5b60006143038682870161428b565b93505060206143148682870161428b565b9250506040614325868287016142c7565b9150509250925092565b60006040820190506143446000830185613289565b6143516020830184613289565b939250505056fea2646970667358221220bf61350b26dba873bf5dcf4982401919e558df088f7caddc9a84b9541cfd8ae364736f6c634300081a0033608060405234801561001057600080fd5b5060405161186e38038061186e83398181016040528101906100329190610272565b806040518060400160405280600681526020017f55546f6b656e00000000000000000000000000000000000000000000000000008152506040518060400160405280600381526020017f55544b000000000000000000000000000000000000000000000000000000000081525081600390816100ae91906104ef565b5080600490816100be91906104ef565b505050600073ffffffffffffffffffffffffffffffffffffffff168173ffffffffffffffffffffffffffffffffffffffff16036101335760006040517f1e4fbdf700000000000000000000000000000000000000000000000000000000815260040161012a91906105d0565b60405180910390fd5b6101428161014960201b60201c565b50506105eb565b6000600560009054906101000a900473ffffffffffffffffffffffffffffffffffffffff16905081600560006101000a81548173ffffffffffffffffffffffffffffffffffffffff021916908373ffffffffffffffffffffffffffffffffffffffff1602179055508173ffffffffffffffffffffffffffffffffffffffff168173ffffffffffffffffffffffffffffffffffffffff167f8be0079c531659141344cd1fd0a4f28419497f9722a3daafe3b4186f6b6457e060405160405180910390a35050565b600080fd5b600073ffffffffffffffffffffffffffffffffffffffff82169050919050565b600061023f82610214565b9050919050565b61024f81610234565b811461025a57600080fd5b50565b60008151905061026c81610246565b92915050565b6000602082840312156102885761028761020f565b5b60006102968482850161025d565b91505092915050565b600081519050919050565b7f4e487b7100000000000000000000000000000000000000000000000000000000600052604160045260246000fd5b7f4e487b7100000000000000000000000000000000000000000000000000000000600052602260045260246000fd5b6000600282049050600182168061032057607f821691505b602082108103610333576103326102d9565b5b50919050565b60008190508160005260206000209050919050565b60006020601f8301049050919050565b600082821b905092915050565b60006008830261039b7fffffffffffffffffffffffffffffffffffffffffffffffffffffffffffffffff8261035e565b6103a5868361035e565b95508019841693508086168417925050509392505050565b6000819050919050565b6000819050919050565b60006103ec6103e76103e2846103bd565b6103c7565b6103bd565b9050919050565b6000819050919050565b610406836103d1565b61041a610412826103f3565b84845461036b565b825550505050565b600090565b61042f610422565b61043a8184846103fd565b505050565b5b8181101561045e57610453600082610427565b600181019050610440565b5050565b601f8211156104a35761047481610339565b61047d8461034e565b8101602085101561048c578190505b6104a06104988561034e565b83018261043f565b50505b505050565b600082821c905092915050565b60006104c6600019846008026104a8565b1980831691505092915050565b60006104df83836104b5565b9150826002028217905092915050565b6104f88261029f565b67ffffffffffffffff811115610511576105106102aa565b5b61051b8254610308565b610526828285610462565b600060209050601f8311600181146105595760008415610547578287015190505b61055185826104d3565b8655506105b9565b601f19841661056786610339565b60005b8281101561058f5784890151825560018201915060208501945060208101905061056a565b868310156105ac57848901516105a8601f8916826104b5565b8355505b6001600288020188555050505b505050505050565b6105ca81610234565b82525050565b60006020820190506105e560008301846105c1565b92915050565b611274806105fa6000396000f3fe608060405234801561001057600080fd5b50600436106100ea5760003560e01c8063715018a61161008c5780639dc29fac116100665780639dc29fac1461023b578063a9059cbb14610257578063dd62ed3e14610287578063f2fde38b146102b7576100ea565b8063715018a6146101f55780638da5cb5b146101ff57806395d89b411461021d576100ea565b806323b872dd116100c857806323b872dd1461015b578063313ce5671461018b57806340c10f19146101a957806370a08231146101c5576100ea565b806306fdde03146100ef578063095ea7b31461010d57806318160ddd1461013d575b600080fd5b6100f76102d3565b6040516101049190610ec8565b60405180910390f35b61012760048036038101906101229190610f83565b610365565b6040516101349190610fde565b60405180910390f35b610145610388565b6040516101529190611008565b60405180910390f35b61017560048036038101906101709190611023565b610392565b6040516101829190610fde565b60405180910390f35b6101936103c1565b6040516101a09190611092565b60405180910390f35b6101c360048036038101906101be9190610f83565b6103ca565b005b6101df60048036038101906101da91906110ad565b6103e0565b6040516101ec9190611008565b60405180910390f35b6101fd610428565b005b61020761043c565b60405161021491906110e9565b60405180910390f35b610225610466565b6040516102329190610ec8565b60405180910390f35b61025560048036038101906102509190610f83565b6104f8565b005b610271600480360381019061026c9190610f83565b610519565b60405161027e9190610fde565b60405180910390f35b6102a1600480360381019061029c9190611104565b61053c565b6040516102ae9190611008565b60405180910390f35b6102d160048036038101906102cc91906110ad565b6105c3565b005b6060600380546102e290611173565b80601f016020809104026020016040519081016040528092919081815260200182805461030e90611173565b801561035b5780601f106103305761010080835404028352916020019161035b565b820191906000526020600020905b81548152906001019060200180831161033e57829003601f168201915b5050505050905090565b600080610370610649565b905061037d818585610651565b600191505092915050565b6000600254905090565b60008061039d610649565b90506103aa858285610663565b6103b58585856106f7565b60019150509392505050565b60006012905090565b6103d26107eb565b6103dc8282610872565b5050565b60008060008373ffffffffffffffffffffffffffffffffffffffff1673ffffffffffffffffffffffffffffffffffffffff168152602001908152602001600020549050919050565b6104306107eb565b61043a60006108f4565b565b6000600560009054906101000a900473ffffffffffffffffffffffffffffffffffffffff16905090565b60606004805461047590611173565b80601f01602080910402602001604051908101604052809291908181526020018280546104a190611173565b80156104ee5780601f106104c3576101008083540402835291602001916104ee565b820191906000526020600020905b8154815290600101906020018083116104d157829003601f168201915b5050505050905090565b6105006107eb565b61050b823383610663565b61051582826109ba565b5050565b600080610524610649565b90506105318185856106f7565b600191505092915050565b6000600160008473ffffffffffffffffffffffffffffffffffffffff1673ffffffffffffffffffffffffffffffffffffffff16815260200190815260200160002060008373ffffffffffffffffffffffffffffffffffffffff1673ffffffffffffffffffffffffffffffffffffffff16815260200190815260200160002054905092915050565b6105cb6107eb565b600073ffffffffffffffffffffffffffffffffffffffff168173ffffffffffffffffffffffffffffffffffffffff160361063d5760006040517f1e4fbdf700000000000000000000000000000000000000000000000000000000815260040161063491906110e9565b60405180910390fd5b610646816108f4565b50565b600033905090565b61065e8383836001610a3c565b505050565b600061066f848461053c565b90507fffffffffffffffffffffffffffffffffffffffffffffffffffffffffffffffff81146106f157818110156106e1578281836040517ffb8f41b20000000000000000000000000000000000000000000000000000000081526004016106d8939291906111a4565b60405180910390fd5b6106f084848484036000610a3c565b5b50505050565b600073ffffffffffffffffffffffffffffffffffffffff168373ffffffffffffffffffffffffffffffffffffffff16036107695760006040517f96c6fd1e00000000000000000000000000000000000000000000000000000000815260040161076091906110e9565b60405180910390fd5b600073ffffffffffffffffffffffffffffffffffffffff168273ffffffffffffffffffffffffffffffffffffffff16036107db5760006040517fec442f050000000000000000000000000000000000000000000000000000000081526004016107d291906110e9565b60405180910390fd5b6107e6838383610c13565b505050565b6107f3610649565b73ffffffffffffffffffffffffffffffffffffffff1661081161043c565b73ffffffffffffffffffffffffffffffffffffffff161461087057610834610649565b6040517f118cdaa700000000000000000000000000000000000000000000000000000000815260040161086791906110e9565b60405180910390fd5b565b600073ffffffffffffffffffffffffffffffffffffffff168273ffffffffffffffffffffffffffffffffffffffff16036108e45760006040517fec442f050000000000000000000000000000000000000000000000000000000081526004016108db91906110e9565b60405180910390fd5b6108f060008383610c13565b5050565b6000600560009054906101000a900473ffffffffffffffffffffffffffffffffffffffff16905081600560006101000a81548173ffffffffffffffffffffffffffffffffffffffff021916908373ffffffffffffffffffffffffffffffffffffffff1602179055508173ffffffffffffffffffffffffffffffffffffffff168173ffffffffffffffffffffffffffffffffffffffff167f8be0079c531659141344cd1fd0a4f28419497f9722a3daafe3b4186f6b6457e060405160405180910390a35050565b600073ffffffffffffffffffffffffffffffffffffffff168273ffffffffffffffffffffffffffffffffffffffff1603610a2c5760006040517f96c6fd1e000000000000000000000000000000000000000000000000000000008152600401610a2391906110e9565b60405180910390fd5b610a3882600083610c13565b5050565b600073ffffffffffffffffffffffffffffffffffffffff168473ffffffffffffffffffffffffffffffffffffffff1603610aae5760006040517fe602df05000000000000000000000000000000000000000000000000000000008152600401610aa591906110e9565b60405180910390fd5b600073ffffffffffffffffffffffffffffffffffffffff168373ffffffffffffffffffffffffffffffffffffffff1603610b205760006040517f94280d62000000000000000000000000000000000000000000000000000000008152600401610b1791906110e9565b60405180910390fd5b81600160008673ffffffffffffffffffffffffffffffffffffffff1673ffffffffffffffffffffffffffffffffffffffff16815260200190815260200160002060008573ffffffffffffffffffffffffffffffffffffffff1673ffffffffffffffffffffffffffffffffffffffff168152602001908152602001600020819055508015610c0d578273ffffffffffffffffffffffffffffffffffffffff168473ffffffffffffffffffffffffffffffffffffffff167f8c5be1e5ebec7d5bd14f71427d1e84f3dd0314c0f7b2291e5b200ac8c7c3b92584604051610c049190611008565b60405180910390a35b50505050565b600073ffffffffffffffffffffffffffffffffffffffff168373ffffffffffffffffffffffffffffffffffffffff1603610c65578060026000828254610c59919061120a565b92505081905550610d38565b60008060008573ffffffffffffffffffffffffffffffffffffffff1673ffffffffffffffffffffffffffffffffffffffff16815260200190815260200160002054905081811015610cf1578381836040517fe450d38c000000000000000000000000000000000000000000000000000000008152600401610ce8939291906111a4565b60405180910390fd5b8181036000808673ffffffffffffffffffffffffffffffffffffffff1673ffffffffffffffffffffffffffffffffffffffff16815260200190815260200160002081905550505b600073ffffffffffffffffffffffffffffffffffffffff168273ffffffffffffffffffffffffffffffffffffffff1603610d815780600260008282540392505081905550610dce565b806000808473ffffffffffffffffffffffffffffffffffffffff1673ffffffffffffffffffffffffffffffffffffffff168152602001908152602001600020600082825401925050819055505b8173ffffffffffffffffffffffffffffffffffffffff168373ffffffffffffffffffffffffffffffffffffffff167fddf252ad1be2c89b69c2b068fc378daa952ba7f163c4a11628f55a4df523b3ef83604051610e2b9190611008565b60405180910390a3505050565b600081519050919050565b600082825260208201905092915050565b60005b83811015610e72578082015181840152602081019050610e57565b60008484015250505050565b6000601f19601f8301169050919050565b6000610e9a82610e38565b610ea48185610e43565b9350610eb4818560208601610e54565b610ebd81610e7e565b840191505092915050565b60006020820190508181036000830152610ee28184610e8f565b905092915050565b600080fd5b600073ffffffffffffffffffffffffffffffffffffffff82169050919050565b6000610f1a82610eef565b9050919050565b610f2a81610f0f565b8114610f3557600080fd5b50565b600081359050610f4781610f21565b92915050565b6000819050919050565b610f6081610f4d565b8114610f6b57600080fd5b50565b600081359050610f7d81610f57565b92915050565b60008060408385031215610f9a57610f99610eea565b5b6000610fa885828601610f38565b9250506020610fb985828601610f6e565b9150509250929050565b60008115159050919050565b610fd881610fc3565b82525050565b6000602082019050610ff36000830184610fcf565b92915050565b61100281610f4d565b82525050565b600060208201905061101d6000830184610ff9565b92915050565b60008060006060848603121561103c5761103b610eea565b5b600061104a86828701610f38565b935050602061105b86828701610f38565b925050604061106c86828701610f6e565b9150509250925092565b600060ff82169050919050565b61108c81611076565b82525050565b60006020820190506110a76000830184611083565b92915050565b6000602082840312156110c3576110c2610eea565b5b60006110d184828501610f38565b91505092915050565b6110e381610f0f565b82525050565b60006020820190506110fe60008301846110da565b92915050565b6000806040838503121561111b5761111a610eea565b5b600061112985828601610f38565b925050602061113a85828601610f38565b9150509250929050565b7f4e487b7100000000000000000000000000000000000000000000000000000000600052602260045260246000fd5b6000600282049050600182168061118b57607f821691505b60208210810361119e5761119d611144565b5b50919050565b60006060820190506111b960008301866110da565b6111c66020830185610ff9565b6111d36040830184610ff9565b949350505050565b7f4e487b7100000000000000000000000000000000000000000000000000000000600052601160045260246000fd5b600061121582610f4d565b915061122083610f4d565b9250828201905080821115611238576112376111db565b5b9291505056fea2646970667358221220ee29a4ba429f4542e45d48b2fa75f224a7503c19d03b94031cf4dfb1147e2cfc64736f6c634300081a0033",
  "linkReferences": {},
  "deployedLinkReferences": {}
}