{
  "_format": "hh-sol-artifact-1",
  "contractName": "UniversalTokenSale",
  "sourceName": "contracts/UniversalTokenSale.sol",
  "abi": [
    {
      "inputs": [],
      "stateMutability": "nonpayable",
      "type": "constructor"
    },
    {
      "inputs": [],
      "name": "AdditionsOverflow",
      "type": "error"
    },
    {
      "inputs": [],
      "name": "ApprovalFailed",
      "type": "error"
    },
    {
      "inputs": [],
      "name": "CantBeIdenticalAddresses",
      "type": "error"
    },
    {
      "inputs": [],
      "name": "CantBeZeroAddress",
      "type": "error"
    },
    {
      "inputs": [],
      "name": "IdenticalAddresses",
      "type": "error"
    },
    {
      "inputs": [
        {
          "internalType": "string",
          "name": "message",
          "type": "string"
        }
      ],
      "name": "InsufficientAmount",
      "type": "error"
    },
    {
      "inputs": [],
      "name": "InsufficientInputAmount",
      "type": "error"
    },
    {
      "inputs": [],
      "name": "InsufficientLiquidity",
      "type": "error"
    },
    {
      "inputs": [
        {
          "internalType": "uint256",
          "name": "amount",
          "type": "uint256"
        }
      ],
      "name": "InvalidAmount",
      "type": "error"
    },
    {
      "inputs": [],
      "name": "InvalidPath",
      "type": "error"
    },
    {
      "inputs": [],
      "name": "InvalidPathLength",
      "type": "error"
    },
    {
      "inputs": [],
      "name": "MultiplicationsOverflow",
      "type": "error"
    },
    {
      "inputs": [
        {
          "internalType": "address",
          "name": "owner",
          "type": "address"
        }
      ],
      "name": "OwnableInvalidOwner",
      "type": "error"
    },
    {
      "inputs": [
        {
          "internalType": "address",
          "name": "account",
          "type": "address"
        }
      ],
      "name": "OwnableUnauthorizedAccount",
      "type": "error"
    },
    {
      "inputs": [],
      "name": "Unauthorized",
      "type": "error"
    },
    {
      "inputs": [],
      "name": "ZeroAddress",
      "type": "error"
    },
    {
      "anonymous": false,
      "inputs": [
        {
          "indexed": true,
          "internalType": "address",
          "name": "buyer",
          "type": "address"
        },
        {
          "indexed": false,
          "internalType": "address",
          "name": "externalPaymentToken",
          "type": "address"
        },
        {
          "indexed": false,
          "internalType": "uint256",
          "name": "externalPaymentAmount",
          "type": "uint256"
        },
        {
          "indexed": false,
          "internalType": "address",
          "name": "paymentToken",
          "type": "address"
        },
        {
          "indexed": false,
          "internalType": "uint256",
          "name": "paymentAmount",
          "type": "uint256"
        },
        {
          "indexed": false,
          "internalType": "uint256",
          "name": "uTokenAmount",
          "type": "uint256"
        }
      ],
      "name": "BuyUToken",
      "type": "event"
    },
    {
      "anonymous": false,
      "inputs": [
        {
          "indexed": true,
          "internalType": "address",
          "name": "previousOwner",
          "type": "address"
        },
        {
          "indexed": true,
          "internalType": "address",
          "name": "newOwner",
          "type": "address"
        }
      ],
      "name": "OwnershipTransferred",
      "type": "event"
    },
    {
      "anonymous": false,
      "inputs": [
        {
          "indexed": true,
          "internalType": "address",
          "name": "seller",
          "type": "address"
        },
        {
          "indexed": false,
          "internalType": "uint256",
          "name": "uTokenAmount",
          "type": "uint256"
        },
        {
          "indexed": false,
          "internalType": "address",
          "name": "targetToken",
          "type": "address"
        },
        {
          "indexed": false,
          "internalType": "uint256",
          "name": "outputAmount",
          "type": "uint256"
        },
        {
          "indexed": false,
          "internalType": "uint256",
          "name": "gasFee",
          "type": "uint256"
        }
      ],
      "name": "SaleUToken",
      "type": "event"
    },
    {
      "anonymous": false,
      "inputs": [
        {
          "indexed": false,
          "internalType": "address",
          "name": "sender",
          "type": "address"
        },
        {
          "indexed": true,
          "internalType": "address",
          "name": "recipient",
          "type": "address"
        },
        {
          "indexed": true,
          "internalType": "address",
          "name": "inputToken",
          "type": "address"
        },
        {
          "indexed": true,
          "internalType": "address",
          "name": "targetToken",
          "type": "address"
        },
        {
          "indexed": false,
          "internalType": "uint256",
          "name": "inputAmount",
          "type": "uint256"
        },
        {
          "indexed": false,
          "internalType": "uint256",
          "name": "outputAmount",
          "type": "uint256"
        }
      ],
      "name": "TokenSwap",
      "type": "event"
    },
    {
      "inputs": [],
      "name": "GAS_LIMIT",
      "outputs": [
        {
          "internalType": "uint256",
          "name": "",
          "type": "uint256"
        }
      ],
      "stateMutability": "view",
      "type": "function"
    },
    {
      "inputs": [],
      "name": "GATEWAY",
      "outputs": [
        {
          "internalType": "contract IGatewayZEVM",
          "name": "",
          "type": "address"
        }
      ],
      "stateMutability": "view",
      "type": "function"
    },
    {
      "inputs": [],
      "name": "UNDERLYING_TOKEN",
      "outputs": [
        {
          "internalType": "contract UToken",
          "name": "",
          "type": "address"
        }
      ],
      "stateMutability": "view",
      "type": "function"
    },
    {
      "inputs": [],
      "name": "UNISWAP_ROUTER",
      "outputs": [
        {
          "internalType": "address",
          "name": "",
          "type": "address"
        }
      ],
      "stateMutability": "view",
      "type": "function"
    },
    {
      "inputs": [],
      "name": "WZeta",
      "outputs": [
        {
          "internalType": "address",
          "name": "",
          "type": "address"
        }
      ],
      "stateMutability": "view",
      "type": "function"
    },
    {
      "inputs": [
        {
          "components": [
            {
              "internalType": "bytes",
              "name": "sender",
              "type": "bytes"
            },
            {
              "internalType": "address",
              "name": "senderEVM",
              "type": "address"
            },
            {
              "internalType": "uint256",
              "name": "chainID",
              "type": "uint256"
            }
          ],
          "internalType": "struct MessageContext",
          "name": "context",
          "type": "tuple"
        },
        {
          "internalType": "address",
          "name": "zrc20",
          "type": "address"
        },
        {
          "internalType": "uint256",
          "name": "amount",
          "type": "uint256"
        },
        {
          "internalType": "bytes",
          "name": "",
          "type": "bytes"
        }
      ],
      "name": "onCall",
      "outputs": [],
      "stateMutability": "nonpayable",
      "type": "function"
    },
    {
      "inputs": [
        {
          "components": [
            {
              "internalType": "address",
              "name": "sender",
              "type": "address"
            },
            {
              "internalType": "address",
              "name": "asset",
              "type": "address"
            },
            {
              "internalType": "uint256",
              "name": "amount",
              "type": "uint256"
            },
            {
              "internalType": "bytes",
              "name": "revertMessage",
              "type": "bytes"
            }
          ],
          "internalType": "struct RevertContext",
          "name": "context",
          "type": "tuple"
        }
      ],
      "name": "onRevert",
      "outputs": [],
      "stateMutability": "nonpayable",
      "type": "function"
    },
    {
      "inputs": [],
      "name": "owner",
      "outputs": [
        {
          "internalType": "address",
          "name": "",
          "type": "address"
        }
      ],
      "stateMutability": "view",
      "type": "function"
    },
    {
      "inputs": [
        {
          "internalType": "address",
          "name": "inputToken",
          "type": "address"
        },
        {
          "internalType": "address",
          "name": "targetToken",
          "type": "address"
        }
      ],
      "name": "quoteMinInput",
      "outputs": [
        {
          "internalType": "uint256",
          "name": "",
          "type": "uint256"
        }
      ],
      "stateMutability": "view",
      "type": "function"
    },
    {
      "inputs": [],
      "name": "renounceOwnership",
      "outputs": [],
      "stateMutability": "nonpayable",
      "type": "function"
    },
    {
      "inputs": [
        {
          "internalType": "uint256",
          "name": "amount",
          "type": "uint256"
        }
      ],
      "name": "saleUToken",
      "outputs": [],
      "stateMutability": "nonpayable",
      "type": "function"
    },
    {
      "inputs": [
        {
          "internalType": "uint256",
          "name": "amount",
          "type": "uint256"
        },
        {
          "internalType": "address",
          "name": "targetToken",
          "type": "address"
        }
      ],
      "name": "saleUToken",
      "outputs": [],
      "stateMutability": "nonpayable",
      "type": "function"
    },
    {
      "inputs": [
        {
          "internalType": "address",
          "name": "recipient",
          "type": "address"
        },
        {
          "internalType": "contract IZRC20",
          "name": "token",
          "type": "address"
        },
        {
          "internalType": "uint256",
          "name": "amount",
          "type": "uint256"
        }
      ],
      "name": "sweep",
      "outputs": [],
      "stateMutability": "nonpayable",
      "type": "function"
    },
    {
      "inputs": [
        {
          "internalType": "address",
          "name": "recipient",
          "type": "address"
        },
        {
          "internalType": "contract IZRC20",
          "name": "token",
          "type": "address"
        }
      ],
      "name": "sweepAll",
      "outputs": [],
      "stateMutability": "nonpayable",
      "type": "function"
    },
    {
      "inputs": [
        {
          "internalType": "address",
          "name": "newOwner",
          "type": "address"
        }
      ],
      "name": "transferOwnership",
      "outputs": [],
      "stateMutability": "nonpayable",
      "type": "function"
    }
  ],
  "bytecode": "0x60a060405234801561001057600080fd5b5033600073ffffffffffffffffffffffffffffffffffffffff168173ffffffffffffffffffffffffffffffffffffffff16036100845760006040517f1e4fbdf700000000000000000000000000000000000000000000000000000000815260040161007b91906102d5565b60405180910390fd5b610093816101c360201b60201c565b50306040516100a190610287565b6100ab91906102d5565b604051809103906000f0801580156100c7573d6000803e3d6000fd5b5073ffffffffffffffffffffffffffffffffffffffff1660808173ffffffffffffffffffffffffffffffffffffffff1681525050732ca7d64a7efe2d62a725e2b35cf7230d6677ffee73ffffffffffffffffffffffffffffffffffffffff1663ad5c46486040518163ffffffff1660e01b8152600401602060405180830381865afa15801561015a573d6000803e3d6000fd5b505050506040513d601f19601f8201168201806040525081019061017e9190610321565b600160006101000a81548173ffffffffffffffffffffffffffffffffffffffff021916908373ffffffffffffffffffffffffffffffffffffffff16021790555061034e565b60008060009054906101000a900473ffffffffffffffffffffffffffffffffffffffff169050816000806101000a81548173ffffffffffffffffffffffffffffffffffffffff021916908373ffffffffffffffffffffffffffffffffffffffff1602179055508173ffffffffffffffffffffffffffffffffffffffff168173ffffffffffffffffffffffffffffffffffffffff167f8be0079c531659141344cd1fd0a4f28419497f9722a3daafe3b4186f6b6457e060405160405180910390a35050565b61186e80614b9a83390190565b600073ffffffffffffffffffffffffffffffffffffffff82169050919050565b60006102bf82610294565b9050919050565b6102cf816102b4565b82525050565b60006020820190506102ea60008301846102c6565b92915050565b600080fd5b6102fe816102b4565b811461030957600080fd5b50565b60008151905061031b816102f5565b92915050565b600060208284031215610337576103366102f0565b5b60006103458482850161030c565b91505092915050565b60805161481561038560003960008181610726015281816107ac01528181610b9901528181610c060152610ea901526148156000f3fe608060405234801561001057600080fd5b50600436106100f55760003560e01c806363c1fdf511610097578063c9028a3611610066578063c9028a3614610238578063d826492014610254578063f2fde38b14610272578063f7c0d7911461028e576100f5565b806363c1fdf5146101d85780636dc8d1fb146101f4578063715018a6146102105780638da5cb5b1461021a576100f5565b8063338c5371116100d3578063338c5371146101665780634fde5c26146101845780635bcfd616146101a057806362c06767146101bc576100f5565b8063091d2788146100fa5780631b3614b81461011857806329db1be614610148575b600080fd5b6101026102ac565b60405161010f91906132cf565b60405180910390f35b610132600480360381019061012d919061335c565b6102b3565b60405161013f91906132cf565b60405180910390f35b610150610724565b60405161015d91906133fb565b60405180910390f35b61016e610748565b60405161017b9190613437565b60405180910390f35b61019e6004803603810190610199919061347e565b610760565b005b6101ba60048036038101906101b59190613534565b610953565b005b6101d660048036038101906101d19190613616565b610d13565b005b6101f260048036038101906101ed9190613669565b610e5d565b005b61020e600480360381019061020991906136a9565b6110db565b005b61021861122a565b005b61022261123e565b60405161022f91906136f8565b60405180910390f35b610252600480360381019061024d9190613732565b611267565b005b61025c6116b3565b60405161026991906136f8565b60405180910390f35b61028c6004803603810190610287919061377b565b6116cb565b005b610296611751565b6040516102a391906136f8565b60405180910390f35b624c4b4081565b60008060008373ffffffffffffffffffffffffffffffffffffffff1663d9eeebed6040518163ffffffff1660e01b81526004016040805180830381865afa158015610302573d6000803e3d6000fd5b505050506040513d601f19601f8201168201806040525081019061032691906137d2565b915091508173ffffffffffffffffffffffffffffffffffffffff168573ffffffffffffffffffffffffffffffffffffffff160361036757809250505061071e565b6060600160009054906101000a900473ffffffffffffffffffffffffffffffffffffffff1673ffffffffffffffffffffffffffffffffffffffff168673ffffffffffffffffffffffffffffffffffffffff1614806104125750600160009054906101000a900473ffffffffffffffffffffffffffffffffffffffff1673ffffffffffffffffffffffffffffffffffffffff168373ffffffffffffffffffffffffffffffffffffffff16145b1561050657600267ffffffffffffffff81111561043257610431613812565b5b6040519080825280602002602001820160405280156104605781602001602082028036833780820191505090505b509050858160008151811061047857610477613841565b5b602002602001019073ffffffffffffffffffffffffffffffffffffffff16908173ffffffffffffffffffffffffffffffffffffffff168152505082816001815181106104c7576104c6613841565b5b602002602001019073ffffffffffffffffffffffffffffffffffffffff16908173ffffffffffffffffffffffffffffffffffffffff1681525050610662565b600367ffffffffffffffff81111561052157610520613812565b5b60405190808252806020026020018201604052801561054f5781602001602082028036833780820191505090505b509050858160008151811061056757610566613841565b5b602002602001019073ffffffffffffffffffffffffffffffffffffffff16908173ffffffffffffffffffffffffffffffffffffffff1681525050600160009054906101000a900473ffffffffffffffffffffffffffffffffffffffff16816001815181106105d8576105d7613841565b5b602002602001019073ffffffffffffffffffffffffffffffffffffffff16908173ffffffffffffffffffffffffffffffffffffffff1681525050828160028151811061062757610626613841565b5b602002602001019073ffffffffffffffffffffffffffffffffffffffff16908173ffffffffffffffffffffffffffffffffffffffff16815250505b6000732ca7d64a7efe2d62a725e2b35cf7230d6677ffee73ffffffffffffffffffffffffffffffffffffffff16631f00ca7484846040518363ffffffff1660e01b81526004016106b392919061392e565b600060405180830381865afa1580156106d0573d6000803e3d6000fd5b505050506040513d6000823e3d601f19601f820116820180604052508101906106f99190613a7e565b90508060008151811061070f5761070e613841565b5b60200260200101519450505050505b92915050565b7f000000000000000000000000000000000000000000000000000000000000000081565b736c533f7fe93fae114d0954697069df33c9b74fd781565b600081036107a557806040517f3728b83d00000000000000000000000000000000000000000000000000000000815260040161079c91906132cf565b60405180910390fd5b60003390507f000000000000000000000000000000000000000000000000000000000000000073ffffffffffffffffffffffffffffffffffffffff16639dc29fac82846040518363ffffffff1660e01b8152600401610805929190613ac7565b600060405180830381600087803b15801561081f57600080fd5b505af1158015610833573d6000803e3d6000fd5b50505050600160009054906101000a900473ffffffffffffffffffffffffffffffffffffffff1673ffffffffffffffffffffffffffffffffffffffff1663a9059cbb82846040518363ffffffff1660e01b8152600401610894929190613ac7565b6020604051808303816000875af11580156108b3573d6000803e3d6000fd5b505050506040513d601f19601f820116820180604052508101906108d79190613b28565b508073ffffffffffffffffffffffffffffffffffffffff167f35f6d962f68d9953d52d9fcc8f41291affc5b94c86f698d18649e5ed1ad9b71c83600160009054906101000a900473ffffffffffffffffffffffffffffffffffffffff168560006040516109479493929190613b90565b60405180910390a25050565b736c533f7fe93fae114d0954697069df33c9b74fd773ffffffffffffffffffffffffffffffffffffffff163373ffffffffffffffffffffffffffffffffffffffff16146109cc576040517f82b4290000000000000000000000000000000000000000000000000000000000815260040160405180910390fd5b6000610a298680600001906109e19190613be4565b8080601f016020809104026020016040519081016040528093929190818152602001838380828437600081840152601f19601f82011690508083019250505050505050611777565b90506000849050600160009054906101000a900473ffffffffffffffffffffffffffffffffffffffff1673ffffffffffffffffffffffffffffffffffffffff168673ffffffffffffffffffffffffffffffffffffffff1614610b6e57610ac9732ca7d64a7efe2d62a725e2b35cf7230d6677ffee8787600160009054906101000a900473ffffffffffffffffffffffffffffffffffffffff1660006117c9565b9050600160009054906101000a900473ffffffffffffffffffffffffffffffffffffffff1673ffffffffffffffffffffffffffffffffffffffff168673ffffffffffffffffffffffffffffffffffffffff163073ffffffffffffffffffffffffffffffffffffffff167f782d2b6f5d2967549af971556c413c54ebc0ee64511fe01280ae124e67fc4dac308986604051610b6593929190613c47565b60405180910390a45b6000610bbd82600160009054906101000a900473ffffffffffffffffffffffffffffffffffffffff167f0000000000000000000000000000000000000000000000000000000000000000611cb5565b905060008103610c0457806040517f3728b83d000000000000000000000000000000000000000000000000000000008152600401610bfb91906132cf565b60405180910390fd5b7f000000000000000000000000000000000000000000000000000000000000000073ffffffffffffffffffffffffffffffffffffffff166340c10f1984836040518363ffffffff1660e01b8152600401610c5f929190613ac7565b600060405180830381600087803b158015610c7957600080fd5b505af1158015610c8d573d6000803e3d6000fd5b505050508273ffffffffffffffffffffffffffffffffffffffff167f24132e3aeb39612835bbb282392ef60ccfefa3e7d4a4f4dca3d4e86bda8445bb8888600160009054906101000a900473ffffffffffffffffffffffffffffffffffffffff168686604051610d01959493929190613c7e565b60405180910390a25050505050505050565b610d1b611e1c565b8173ffffffffffffffffffffffffffffffffffffffff166370a08231306040518263ffffffff1660e01b8152600401610d5491906136f8565b602060405180830381865afa158015610d71573d6000803e3d6000fd5b505050506040513d601f19601f82011682018060405250810190610d959190613cd1565b811115610dd957806040517f3728b83d000000000000000000000000000000000000000000000000000000008152600401610dd091906132cf565b60405180910390fd5b8173ffffffffffffffffffffffffffffffffffffffff1663a9059cbb84836040518363ffffffff1660e01b8152600401610e14929190613ac7565b6020604051808303816000875af1158015610e33573d6000803e3d6000fd5b505050506040513d601f19601f82011682018060405250810190610e579190613b28565b50505050565b60008203610ea257816040517f3728b83d000000000000000000000000000000000000000000000000000000008152600401610e9991906132cf565b60405180910390fd5b60003390507f000000000000000000000000000000000000000000000000000000000000000073ffffffffffffffffffffffffffffffffffffffff16639dc29fac82856040518363ffffffff1660e01b8152600401610f02929190613ac7565b600060405180830381600087803b158015610f1c57600080fd5b505af1158015610f30573d6000803e3d6000fd5b505050506000806000610f66600160009054906101000a900473ffffffffffffffffffffffffffffffffffffffff168787611ea3565b9250925092508473ffffffffffffffffffffffffffffffffffffffff16600160009054906101000a900473ffffffffffffffffffffffffffffffffffffffff1673ffffffffffffffffffffffffffffffffffffffff163073ffffffffffffffffffffffffffffffffffffffff167f782d2b6f5d2967549af971556c413c54ebc0ee64511fe01280ae124e67fc4dac308a8860405161100693929190613c47565b60405180910390a46000830361105357826040517f3728b83d00000000000000000000000000000000000000000000000000000000815260040161104a91906132cf565b60405180910390fd5b61107f846040516020016110679190613d46565b6040516020818303038152906040528685858561202a565b8373ffffffffffffffffffffffffffffffffffffffff167f35f6d962f68d9953d52d9fcc8f41291affc5b94c86f698d18649e5ed1ad9b71c878786856040516110cb9493929190613d61565b60405180910390a2505050505050565b6110e3611e1c565b60008173ffffffffffffffffffffffffffffffffffffffff166370a08231306040518263ffffffff1660e01b815260040161111e91906136f8565b602060405180830381865afa15801561113b573d6000803e3d6000fd5b505050506040513d601f19601f8201168201806040525081019061115f9190613cd1565b9050600081036111a657806040517f3728b83d00000000000000000000000000000000000000000000000000000000815260040161119d91906132cf565b60405180910390fd5b8173ffffffffffffffffffffffffffffffffffffffff1663a9059cbb84836040518363ffffffff1660e01b81526004016111e1929190613ac7565b6020604051808303816000875af1158015611200573d6000803e3d6000fd5b505050506040513d601f19601f820116820180604052508101906112249190613b28565b50505050565b611232611e1c565b61123c6000612440565b565b60008060009054906101000a900473ffffffffffffffffffffffffffffffffffffffff16905090565b736c533f7fe93fae114d0954697069df33c9b74fd773ffffffffffffffffffffffffffffffffffffffff163373ffffffffffffffffffffffffffffffffffffffff16146112e0576040517f82b4290000000000000000000000000000000000000000000000000000000000815260040160405180910390fd5b60008180606001906112f29190613be4565b8101906112ff9190613e37565b9050600081600001519050816060015173ffffffffffffffffffffffffffffffffffffffff16826020015173ffffffffffffffffffffffffffffffffffffffff16036114755760008260400151836080015161135b9190613e93565b90506000836020015173ffffffffffffffffffffffffffffffffffffffff166370a08231306040518263ffffffff1660e01b815260040161139c91906136f8565b602060405180830381865afa1580156113b9573d6000803e3d6000fd5b505050506040513d601f19601f820116820180604052508101906113dd9190613cd1565b9050818110156113eb578091505b836020015173ffffffffffffffffffffffffffffffffffffffff1663a9059cbb84846040518363ffffffff1660e01b815260040161142a929190613ac7565b6020604051808303816000875af1158015611449573d6000803e3d6000fd5b505050506040513d601f19601f8201168201806040525081019061146d9190613b28565b5050506116ae565b6000826040015190506000836020015173ffffffffffffffffffffffffffffffffffffffff166370a08231306040518263ffffffff1660e01b81526004016114bd91906136f8565b602060405180830381865afa1580156114da573d6000803e3d6000fd5b505050506040513d601f19601f820116820180604052508101906114fe9190613cd1565b90508181101561150c578091505b836020015173ffffffffffffffffffffffffffffffffffffffff1663a9059cbb84846040518363ffffffff1660e01b815260040161154b929190613ac7565b6020604051808303816000875af115801561156a573d6000803e3d6000fd5b505050506040513d601f19601f8201168201806040525081019061158e9190613b28565b506000846080015190506000856060015173ffffffffffffffffffffffffffffffffffffffff166370a08231306040518263ffffffff1660e01b81526004016115d791906136f8565b602060405180830381865afa1580156115f4573d6000803e3d6000fd5b505050506040513d601f19601f820116820180604052508101906116189190613cd1565b905081811015611626578091505b856060015173ffffffffffffffffffffffffffffffffffffffff1663a9059cbb86846040518363ffffffff1660e01b8152600401611665929190613ac7565b6020604051808303816000875af1158015611684573d6000803e3d6000fd5b505050506040513d601f19601f820116820180604052508101906116a89190613b28565b50505050505b505050565b732ca7d64a7efe2d62a725e2b35cf7230d6677ffee81565b6116d3611e1c565b600073ffffffffffffffffffffffffffffffffffffffff168173ffffffffffffffffffffffffffffffffffffffff16036117455760006040517f1e4fbdf700000000000000000000000000000000000000000000000000000000815260040161173c91906136f8565b60405180910390fd5b61174e81612440565b50565b600160009054906101000a900473ffffffffffffffffffffffffffffffffffffffff1681565b600060148251146117bd576040517f08c379a00000000000000000000000000000000000000000000000000000000081526004016117b490613f24565b60405180910390fd5b60148201519050919050565b6000808673ffffffffffffffffffffffffffffffffffffffff1663c45a01556040518163ffffffff1660e01b8152600401602060405180830381865afa158015611817573d6000803e3d6000fd5b505050506040513d601f19601f8201168201806040525081019061183b9190613f44565b905060008773ffffffffffffffffffffffffffffffffffffffff1663ad5c46486040518163ffffffff1660e01b8152600401602060405180830381865afa15801561188a573d6000803e3d6000fd5b505050506040513d601f19601f820116820180604052508101906118ae9190613f44565b90506060600267ffffffffffffffff8111156118cd576118cc613812565b5b6040519080825280602002602001820160405280156118fb5781602001602082028036833780820191505090505b509050878160008151811061191357611912613841565b5b602002602001019073ffffffffffffffffffffffffffffffffffffffff16908173ffffffffffffffffffffffffffffffffffffffff1681525050858160018151811061196257611961613841565b5b602002602001019073ffffffffffffffffffffffffffffffffffffffff16908173ffffffffffffffffffffffffffffffffffffffff168152505060006119aa84898885612504565b905060008373ffffffffffffffffffffffffffffffffffffffff168873ffffffffffffffffffffffffffffffffffffffff161480611a1357508373ffffffffffffffffffffffffffffffffffffffff168a73ffffffffffffffffffffffffffffffffffffffff16145b905081158015611a21575080155b15611b6057600367ffffffffffffffff811115611a4157611a40613812565b5b604051908082528060200260200182016040528015611a6f5781602001602082028036833780820191505090505b5092508983600081518110611a8757611a86613841565b5b602002602001019073ffffffffffffffffffffffffffffffffffffffff16908173ffffffffffffffffffffffffffffffffffffffff16815250508383600181518110611ad657611ad5613841565b5b602002602001019073ffffffffffffffffffffffffffffffffffffffff16908173ffffffffffffffffffffffffffffffffffffffff16815250508783600281518110611b2557611b24613841565b5b602002602001019073ffffffffffffffffffffffffffffffffffffffff16908173ffffffffffffffffffffffffffffffffffffffff16815250505b8973ffffffffffffffffffffffffffffffffffffffff1663095ea7b38c8b6040518363ffffffff1660e01b8152600401611b9b929190613ac7565b6020604051808303816000875af1158015611bba573d6000803e3d6000fd5b505050506040513d601f19601f82011682018060405250810190611bde9190613b28565b5060008b73ffffffffffffffffffffffffffffffffffffffff166338ed17398b8a873060c861ffff1642611c129190613e93565b6040518663ffffffff1660e01b8152600401611c32959493929190613f71565b6000604051808303816000875af1158015611c51573d6000803e3d6000fd5b505050506040513d6000823e3d601f19601f82011682018060405250810190611c7a9190613a7e565b90508060018551611c8b9190613fcb565b81518110611c9c57611c9b613841565b5b6020026020010151965050505050505095945050505050565b6000808373ffffffffffffffffffffffffffffffffffffffff1663313ce5676040518163ffffffff1660e01b8152600401602060405180830381865afa158015611d03573d6000803e3d6000fd5b505050506040513d601f19601f82011682018060405250810190611d279190614038565b905060008373ffffffffffffffffffffffffffffffffffffffff1663313ce5676040518163ffffffff1660e01b8152600401602060405180830381865afa158015611d76573d6000803e3d6000fd5b505050506040513d601f19601f82011682018060405250810190611d9a9190614038565b90508060ff168260ff1603611db3578592505050611e15565b8060ff168260ff161015611ded578181611dcd9190614065565b600a611dd991906141cd565b86611de49190614218565b92505050611e15565b8082611df99190614065565b600a611e0591906141cd565b86611e109190614289565b925050505b9392505050565b611e246125dc565b73ffffffffffffffffffffffffffffffffffffffff16611e4261123e565b73ffffffffffffffffffffffffffffffffffffffff1614611ea157611e656125dc565b6040517f118cdaa7000000000000000000000000000000000000000000000000000000008152600401611e9891906136f8565b60405180910390fd5b565b60008060008060008690506000808773ffffffffffffffffffffffffffffffffffffffff1663d9eeebed6040518163ffffffff1660e01b81526004016040805180830381865afa158015611efb573d6000803e3d6000fd5b505050506040513d601f19601f82011682018060405250810190611f1f91906137d2565b915091506000611f2f8b8a6102b3565b9050808a1015611f74576040517f4817ec2e000000000000000000000000000000000000000000000000000000008152600401611f6b90614352565b60405180910390fd5b8a73ffffffffffffffffffffffffffffffffffffffff168373ffffffffffffffffffffffffffffffffffffffff1603611fba57818a611fb39190613fcb565b9350611fec565b611fdb732ca7d64a7efe2d62a725e2b35cf7230d6677ffee8c84868e6125e4565b9450848a611fe99190613fcb565b93505b6000612010732ca7d64a7efe2d62a725e2b35cf7230d6677ffee8d878d60006117c9565b905080848498509850985050505050505093509350939050565b8373ffffffffffffffffffffffffffffffffffffffff168273ffffffffffffffffffffffffffffffffffffffff1603612135578173ffffffffffffffffffffffffffffffffffffffff1663095ea7b3736c533f7fe93fae114d0954697069df33c9b74fd7838661209a9190613e93565b6040518363ffffffff1660e01b81526004016120b7929190613ac7565b6020604051808303816000875af11580156120d6573d6000803e3d6000fd5b505050506040513d601f19601f820116820180604052508101906120fa9190613b28565b612130576040517f8164f84200000000000000000000000000000000000000000000000000000000815260040160405180910390fd5b6122c6565b8173ffffffffffffffffffffffffffffffffffffffff1663095ea7b3736c533f7fe93fae114d0954697069df33c9b74fd7836040518363ffffffff1660e01b8152600401612184929190613ac7565b6020604051808303816000875af11580156121a3573d6000803e3d6000fd5b505050506040513d601f19601f820116820180604052508101906121c79190613b28565b6121fd576040517f8164f84200000000000000000000000000000000000000000000000000000000815260040160405180910390fd5b8373ffffffffffffffffffffffffffffffffffffffff1663095ea7b3736c533f7fe93fae114d0954697069df33c9b74fd7856040518363ffffffff1660e01b815260040161224c929190613ac7565b6020604051808303816000875af115801561226b573d6000803e3d6000fd5b505050506040513d601f19601f8201168201806040525081019061228f9190613b28565b6122c5576040517f8164f84200000000000000000000000000000000000000000000000000000000815260040160405180910390fd5b5b60006040518060a001604052806122dc88611777565b73ffffffffffffffffffffffffffffffffffffffff1681526020018673ffffffffffffffffffffffffffffffffffffffff1681526020018581526020018473ffffffffffffffffffffffffffffffffffffffff168152602001838152509050736c533f7fe93fae114d0954697069df33c9b74fd773ffffffffffffffffffffffffffffffffffffffff16637c0dcb5f8786886040518060a001604052803073ffffffffffffffffffffffffffffffffffffffff168152602001600115158152602001600073ffffffffffffffffffffffffffffffffffffffff168152602001876040516020016123cc91906143e9565b6040516020818303038152906040528152602001624c4b408152506040518563ffffffff1660e01b81526004016124069493929190614552565b600060405180830381600087803b15801561242057600080fd5b505af1158015612434573d6000803e3d6000fd5b50505050505050505050565b60008060009054906101000a900473ffffffffffffffffffffffffffffffffffffffff169050816000806101000a81548173ffffffffffffffffffffffffffffffffffffffff021916908373ffffffffffffffffffffffffffffffffffffffff1602179055508173ffffffffffffffffffffffffffffffffffffffff168173ffffffffffffffffffffffffffffffffffffffff167f8be0079c531659141344cd1fd0a4f28419497f9722a3daafe3b4186f6b6457e060405160405180910390a35050565b60006002825114612541576040517fcd608bfe00000000000000000000000000000000000000000000000000000000815260040160405180910390fd5b6000612584868460008151811061255b5761255a613841565b5b60200260200101518560018151811061257757612576613841565b5b6020026020010151612a53565b9050806125955760009150506125d4565b60006125a2878786612b6f565b90508481600183516125b49190613fcb565b815181106125c5576125c4613841565b5b60200260200101511015925050505b949350505050565b600033905090565b6000808673ffffffffffffffffffffffffffffffffffffffff1663c45a01556040518163ffffffff1660e01b8152600401602060405180830381865afa158015612632573d6000803e3d6000fd5b505050506040513d601f19601f820116820180604052508101906126569190613f44565b905060008773ffffffffffffffffffffffffffffffffffffffff1663ad5c46486040518163ffffffff1660e01b8152600401602060405180830381865afa1580156126a5573d6000803e3d6000fd5b505050506040513d601f19601f820116820180604052508101906126c99190613f44565b905060006126d8838988612a53565b9050606081156127d157600267ffffffffffffffff8111156126fd576126fc613812565b5b60405190808252806020026020018201604052801561272b5781602001602082028036833780820191505090505b509050888160008151811061274357612742613841565b5b602002602001019073ffffffffffffffffffffffffffffffffffffffff16908173ffffffffffffffffffffffffffffffffffffffff1681525050868160018151811061279257612791613841565b5b602002602001019073ffffffffffffffffffffffffffffffffffffffff16908173ffffffffffffffffffffffffffffffffffffffff168152505061290b565b600367ffffffffffffffff8111156127ec576127eb613812565b5b60405190808252806020026020018201604052801561281a5781602001602082028036833780820191505090505b509050888160008151811061283257612831613841565b5b602002602001019073ffffffffffffffffffffffffffffffffffffffff16908173ffffffffffffffffffffffffffffffffffffffff1681525050828160018151811061288157612880613841565b5b602002602001019073ffffffffffffffffffffffffffffffffffffffff16908173ffffffffffffffffffffffffffffffffffffffff168152505086816002815181106128d0576128cf613841565b5b602002602001019073ffffffffffffffffffffffffffffffffffffffff16908173ffffffffffffffffffffffffffffffffffffffff16815250505b8873ffffffffffffffffffffffffffffffffffffffff1663095ea7b38b886040518363ffffffff1660e01b8152600401612946929190613ac7565b6020604051808303816000875af1158015612965573d6000803e3d6000fd5b505050506040513d601f19601f820116820180604052508101906129899190613b28565b5060008a73ffffffffffffffffffffffffffffffffffffffff16638803dbee8a89853060c861ffff16426129bd9190613e93565b6040518663ffffffff1660e01b81526004016129dd959493929190613f71565b6000604051808303816000875af11580156129fc573d6000803e3d6000fd5b505050506040513d6000823e3d601f19601f82011682018060405250810190612a259190613a7e565b905080600081518110612a3b57612a3a613841565b5b60200260200101519550505050505095945050505050565b600080612a61858585612ceb565b905060008473ffffffffffffffffffffffffffffffffffffffff166370a08231836040518263ffffffff1660e01b8152600401612a9e91906136f8565b602060405180830381865afa158015612abb573d6000803e3d6000fd5b505050506040513d601f19601f82011682018060405250810190612adf9190613cd1565b118015612b65575060008373ffffffffffffffffffffffffffffffffffffffff166370a08231836040518263ffffffff1660e01b8152600401612b2291906136f8565b602060405180830381865afa158015612b3f573d6000803e3d6000fd5b505050506040513d601f19601f82011682018060405250810190612b639190613cd1565b115b9150509392505050565b6060600282511015612bad576040517f20db826700000000000000000000000000000000000000000000000000000000815260040160405180910390fd5b815167ffffffffffffffff811115612bc857612bc7613812565b5b604051908082528060200260200182016040528015612bf65781602001602082028036833780820191505090505b5090508281600081518110612c0e57612c0d613841565b5b60200260200101818152505060005b60018351612c2b9190613fcb565b811015612ce357600080612c8087868581518110612c4c57612c4b613841565b5b602002602001015187600187612c629190613e93565b81518110612c7357612c72613841565b5b6020026020010151612d5d565b91509150612ca9848481518110612c9a57612c99613841565b5b60200260200101518383612e60565b84600185612cb79190613e93565b81518110612cc857612cc7613841565b5b60200260200101818152505050508080600101915050612c1d565b509392505050565b6000806000612cfa8585612f54565b91509150858282604051602001612d129291906145a5565b60405160208183030381529060405280519060200120604051602001612d3992919061469f565b6040516020818303038152906040528051906020012060001c925050509392505050565b6000806000612d6c858561306e565b509050600080612d7d888888613188565b73ffffffffffffffffffffffffffffffffffffffff16630902f1ac6040518163ffffffff1660e01b8152600401606060405180830381865afa158015612dc7573d6000803e3d6000fd5b505050506040513d601f19601f82011682018060405250810190612deb9190614763565b506dffffffffffffffffffffffffffff1691506dffffffffffffffffffffffffffff1691508273ffffffffffffffffffffffffffffffffffffffff168773ffffffffffffffffffffffffffffffffffffffff1614612e4a578082612e4d565b81815b8095508196505050505050935093915050565b6000808403612e9b576040517f098fb56100000000000000000000000000000000000000000000000000000000815260040160405180910390fd5b6000831480612eaa5750600082145b15612ee1576040517fbb55fd2700000000000000000000000000000000000000000000000000000000815260040160405180910390fd5b6000612ef86103e58661320f90919063ffffffff16565b90506000612f0f848361320f90919063ffffffff16565b90506000612f3a83612f2c6103e88961320f90919063ffffffff16565b61326f90919063ffffffff16565b90508082612f489190614289565b93505050509392505050565b6000808273ffffffffffffffffffffffffffffffffffffffff168473ffffffffffffffffffffffffffffffffffffffff1603612fbc576040517fcb1e7cfe00000000000000000000000000000000000000000000000000000000815260040160405180910390fd5b8273ffffffffffffffffffffffffffffffffffffffff168473ffffffffffffffffffffffffffffffffffffffff1610612ff6578284612ff9565b83835b8092508193505050600073ffffffffffffffffffffffffffffffffffffffff168273ffffffffffffffffffffffffffffffffffffffff1603613067576040517f78b507da00000000000000000000000000000000000000000000000000000000815260040160405180910390fd5b9250929050565b6000808273ffffffffffffffffffffffffffffffffffffffff168473ffffffffffffffffffffffffffffffffffffffff16036130d6576040517fbd969eb000000000000000000000000000000000000000000000000000000000815260040160405180910390fd5b8273ffffffffffffffffffffffffffffffffffffffff168473ffffffffffffffffffffffffffffffffffffffff1610613110578284613113565b83835b8092508193505050600073ffffffffffffffffffffffffffffffffffffffff168273ffffffffffffffffffffffffffffffffffffffff1603613181576040517fd92e233d00000000000000000000000000000000000000000000000000000000815260040160405180910390fd5b9250929050565b60008373ffffffffffffffffffffffffffffffffffffffff1663e6a4390584846040518363ffffffff1660e01b81526004016131c59291906147b6565b602060405180830381865afa1580156131e2573d6000803e3d6000fd5b505050506040513d601f19601f820116820180604052508101906132069190613f44565b90509392505050565b60008083148061323357508183838502925082816132305761322f61425a565b5b04145b613269576040517f5797276a00000000000000000000000000000000000000000000000000000000815260040160405180910390fd5b92915050565b60008183019050828110156132b0576040517fa259879500000000000000000000000000000000000000000000000000000000815260040160405180910390fd5b92915050565b6000819050919050565b6132c9816132b6565b82525050565b60006020820190506132e460008301846132c0565b92915050565b6000604051905090565b600080fd5b600080fd5b600073ffffffffffffffffffffffffffffffffffffffff82169050919050565b6000613329826132fe565b9050919050565b6133398161331e565b811461334457600080fd5b50565b60008135905061335681613330565b92915050565b60008060408385031215613373576133726132f4565b5b600061338185828601613347565b925050602061339285828601613347565b9150509250929050565b6000819050919050565b60006133c16133bc6133b7846132fe565b61339c565b6132fe565b9050919050565b60006133d3826133a6565b9050919050565b60006133e5826133c8565b9050919050565b6133f5816133da565b82525050565b600060208201905061341060008301846133ec565b92915050565b6000613421826133c8565b9050919050565b61343181613416565b82525050565b600060208201905061344c6000830184613428565b92915050565b61345b816132b6565b811461346657600080fd5b50565b60008135905061347881613452565b92915050565b600060208284031215613494576134936132f4565b5b60006134a284828501613469565b91505092915050565b600080fd5b6000606082840312156134c6576134c56134ab565b5b81905092915050565b600080fd5b600080fd5b600080fd5b60008083601f8401126134f4576134f36134cf565b5b8235905067ffffffffffffffff811115613511576135106134d4565b5b60208301915083600182028301111561352d5761352c6134d9565b5b9250929050565b6000806000806000608086880312156135505761354f6132f4565b5b600086013567ffffffffffffffff81111561356e5761356d6132f9565b5b61357a888289016134b0565b955050602061358b88828901613347565b945050604061359c88828901613469565b935050606086013567ffffffffffffffff8111156135bd576135bc6132f9565b5b6135c9888289016134de565b92509250509295509295909350565b60006135e38261331e565b9050919050565b6135f3816135d8565b81146135fe57600080fd5b50565b600081359050613610816135ea565b92915050565b60008060006060848603121561362f5761362e6132f4565b5b600061363d86828701613347565b935050602061364e86828701613601565b925050604061365f86828701613469565b9150509250925092565b600080604083850312156136805761367f6132f4565b5b600061368e85828601613469565b925050602061369f85828601613347565b9150509250929050565b600080604083850312156136c0576136bf6132f4565b5b60006136ce85828601613347565b92505060206136df85828601613601565b9150509250929050565b6136f28161331e565b82525050565b600060208201905061370d60008301846136e9565b92915050565b600060808284031215613729576137286134ab565b5b81905092915050565b600060208284031215613748576137476132f4565b5b600082013567ffffffffffffffff811115613766576137656132f9565b5b61377284828501613713565b91505092915050565b600060208284031215613791576137906132f4565b5b600061379f84828501613347565b91505092915050565b6000815190506137b781613330565b92915050565b6000815190506137cc81613452565b92915050565b600080604083850312156137e9576137e86132f4565b5b60006137f7858286016137a8565b9250506020613808858286016137bd565b9150509250929050565b7f4e487b7100000000000000000000000000000000000000000000000000000000600052604160045260246000fd5b7f4e487b7100000000000000000000000000000000000000000000000000000000600052603260045260246000fd5b600081519050919050565b600082825260208201905092915050565b6000819050602082019050919050565b6138a58161331e565b82525050565b60006138b7838361389c565b60208301905092915050565b6000602082019050919050565b60006138db82613870565b6138e5818561387b565b93506138f08361388c565b8060005b8381101561392157815161390888826138ab565b9750613913836138c3565b9250506001810190506138f4565b5085935050505092915050565b600060408201905061394360008301856132c0565b818103602083015261395581846138d0565b90509392505050565b6000601f19601f8301169050919050565b6139788261395e565b810181811067ffffffffffffffff8211171561399757613996613812565b5b80604052505050565b60006139aa6132ea565b90506139b6828261396f565b919050565b600067ffffffffffffffff8211156139d6576139d5613812565b5b602082029050602081019050919050565b60006139fa6139f5846139bb565b6139a0565b90508083825260208201905060208402830185811115613a1d57613a1c6134d9565b5b835b81811015613a465780613a3288826137bd565b845260208401935050602081019050613a1f565b5050509392505050565b600082601f830112613a6557613a646134cf565b5b8151613a758482602086016139e7565b91505092915050565b600060208284031215613a9457613a936132f4565b5b600082015167ffffffffffffffff811115613ab257613ab16132f9565b5b613abe84828501613a50565b91505092915050565b6000604082019050613adc60008301856136e9565b613ae960208301846132c0565b9392505050565b60008115159050919050565b613b0581613af0565b8114613b1057600080fd5b50565b600081519050613b2281613afc565b92915050565b600060208284031215613b3e57613b3d6132f4565b5b6000613b4c84828501613b13565b91505092915050565b6000819050919050565b6000613b7a613b75613b7084613b55565b61339c565b6132b6565b9050919050565b613b8a81613b5f565b82525050565b6000608082019050613ba560008301876132c0565b613bb260208301866136e9565b613bbf60408301856132c0565b613bcc6060830184613b81565b95945050505050565b600080fd5b600080fd5b600080fd5b60008083356001602003843603038112613c0157613c00613bd5565b5b80840192508235915067ffffffffffffffff821115613c2357613c22613bda565b5b602083019250600182023603831315613c3f57613c3e613bdf565b5b509250929050565b6000606082019050613c5c60008301866136e9565b613c6960208301856132c0565b613c7660408301846132c0565b949350505050565b600060a082019050613c9360008301886136e9565b613ca060208301876132c0565b613cad60408301866136e9565b613cba60608301856132c0565b613cc760808301846132c0565b9695505050505050565b600060208284031215613ce757613ce66132f4565b5b6000613cf5848285016137bd565b91505092915050565b60008160601b9050919050565b6000613d1682613cfe565b9050919050565b6000613d2882613d0b565b9050919050565b613d40613d3b8261331e565b613d1d565b82525050565b6000613d528284613d2f565b60148201915081905092915050565b6000608082019050613d7660008301876132c0565b613d8360208301866136e9565b613d9060408301856132c0565b613d9d60608301846132c0565b95945050505050565b600080fd5b600060a08284031215613dc157613dc0613da6565b5b613dcb60a06139a0565b90506000613ddb84828501613347565b6000830152506020613def84828501613347565b6020830152506040613e0384828501613469565b6040830152506060613e1784828501613347565b6060830152506080613e2b84828501613469565b60808301525092915050565b600060a08284031215613e4d57613e4c6132f4565b5b6000613e5b84828501613dab565b91505092915050565b7f4e487b7100000000000000000000000000000000000000000000000000000000600052601160045260246000fd5b6000613e9e826132b6565b9150613ea9836132b6565b9250828201905080821115613ec157613ec0613e64565b5b92915050565b600082825260208201905092915050565b7f496e76616c69642061646472657373206279746573206c656e67746800000000600082015250565b6000613f0e601c83613ec7565b9150613f1982613ed8565b602082019050919050565b60006020820190508181036000830152613f3d81613f01565b9050919050565b600060208284031215613f5a57613f596132f4565b5b6000613f68848285016137a8565b91505092915050565b600060a082019050613f8660008301886132c0565b613f9360208301876132c0565b8181036040830152613fa581866138d0565b9050613fb460608301856136e9565b613fc160808301846132c0565b9695505050505050565b6000613fd6826132b6565b9150613fe1836132b6565b9250828203905081811115613ff957613ff8613e64565b5b92915050565b600060ff82169050919050565b61401581613fff565b811461402057600080fd5b50565b6000815190506140328161400c565b92915050565b60006020828403121561404e5761404d6132f4565b5b600061405c84828501614023565b91505092915050565b600061407082613fff565b915061407b83613fff565b9250828203905060ff81111561409457614093613e64565b5b92915050565b60008160011c9050919050565b6000808291508390505b60018511156140f1578086048111156140cd576140cc613e64565b5b60018516156140dc5780820291505b80810290506140ea8561409a565b94506140b1565b94509492505050565b60008261410a57600190506141c6565b8161411857600090506141c6565b816001811461412e576002811461413857614167565b60019150506141c6565b60ff84111561414a57614149613e64565b5b8360020a91508482111561416157614160613e64565b5b506141c6565b5060208310610133831016604e8410600b841016171561419c5782820a90508381111561419757614196613e64565b5b6141c6565b6141a984848460016140a7565b925090508184048111156141c0576141bf613e64565b5b81810290505b9392505050565b60006141d8826132b6565b91506141e383613fff565b92506142107fffffffffffffffffffffffffffffffffffffffffffffffffffffffffffffffff84846140fa565b905092915050565b6000614223826132b6565b915061422e836132b6565b925082820261423c816132b6565b9150828204841483151761425357614252613e64565b5b5092915050565b7f4e487b7100000000000000000000000000000000000000000000000000000000600052601260045260246000fd5b6000614294826132b6565b915061429f836132b6565b9250826142af576142ae61425a565b5b828204905092915050565b7f54686520696e70757420616d6f756e74206973206c657373207468616e20746860008201527f65206d696e20616d6f756e7420726571756972656420746f20636f766572207460208201527f6865207769746864726177206761732066656500000000000000000000000000604082015250565b600061433c605383613ec7565b9150614347826142ba565b606082019050919050565b6000602082019050818103600083015261436b8161432f565b9050919050565b61437b816132b6565b82525050565b60a082016000820151614397600085018261389c565b5060208201516143aa602085018261389c565b5060408201516143bd6040850182614372565b5060608201516143d0606085018261389c565b5060808201516143e36080850182614372565b50505050565b600060a0820190506143fe6000830184614381565b92915050565b600081519050919050565b600082825260208201905092915050565b60005b8381101561443e578082015181840152602081019050614423565b60008484015250505050565b600061445582614404565b61445f818561440f565b935061446f818560208601614420565b6144788161395e565b840191505092915050565b61448c81613af0565b82525050565b600082825260208201905092915050565b60006144ae82614404565b6144b88185614492565b93506144c8818560208601614420565b6144d18161395e565b840191505092915050565b600060a0830160008301516144f4600086018261389c565b5060208301516145076020860182614483565b50604083015161451a604086018261389c565b506060830151848203606086015261453282826144a3565b91505060808301516145476080860182614372565b508091505092915050565b6000608082019050818103600083015261456c818761444a565b905061457b60208301866132c0565b61458860408301856136e9565b818103606083015261459a81846144dc565b905095945050505050565b60006145b18285613d2f565b6014820191506145c18284613d2f565b6014820191508190509392505050565b600081905092915050565b7fff00000000000000000000000000000000000000000000000000000000000000600082015250565b60006146126001836145d1565b915061461d826145dc565b600182019050919050565b6000819050919050565b6000819050919050565b61464d61464882614628565b614632565b82525050565b7f96e8ac4277198ff8b6f785478aa9a39f403cb768dd02cbee326c3e7da348845f600082015250565b60006146896020836145d1565b915061469482614653565b602082019050919050565b60006146aa82614605565b91506146b68285613d2f565b6014820191506146c6828461463c565b6020820191506146d58261467c565b91508190509392505050565b60006dffffffffffffffffffffffffffff82169050919050565b614704816146e1565b811461470f57600080fd5b50565b600081519050614721816146fb565b92915050565b600063ffffffff82169050919050565b61474081614727565b811461474b57600080fd5b50565b60008151905061475d81614737565b92915050565b60008060006060848603121561477c5761477b6132f4565b5b600061478a86828701614712565b935050602061479b86828701614712565b92505060406147ac8682870161474e565b9150509250925092565b60006040820190506147cb60008301856136e9565b6147d860208301846136e9565b939250505056fea26469706673582212202f7b7309da5966cff998b7314a361a8b632dcadf5485610fdd3a3336f35c612d64736f6c634300081a0033608060405234801561001057600080fd5b5060405161186e38038061186e83398181016040528101906100329190610272565b806040518060400160405280600681526020017f55546f6b656e00000000000000000000000000000000000000000000000000008152506040518060400160405280600381526020017f55544b000000000000000000000000000000000000000000000000000000000081525081600390816100ae91906104ef565b5080600490816100be91906104ef565b505050600073ffffffffffffffffffffffffffffffffffffffff168173ffffffffffffffffffffffffffffffffffffffff16036101335760006040517f1e4fbdf700000000000000000000000000000000000000000000000000000000815260040161012a91906105d0565b60405180910390fd5b6101428161014960201b60201c565b50506105eb565b6000600560009054906101000a900473ffffffffffffffffffffffffffffffffffffffff16905081600560006101000a81548173ffffffffffffffffffffffffffffffffffffffff021916908373ffffffffffffffffffffffffffffffffffffffff1602179055508173ffffffffffffffffffffffffffffffffffffffff168173ffffffffffffffffffffffffffffffffffffffff167f8be0079c531659141344cd1fd0a4f28419497f9722a3daafe3b4186f6b6457e060405160405180910390a35050565b600080fd5b600073ffffffffffffffffffffffffffffffffffffffff82169050919050565b600061023f82610214565b9050919050565b61024f81610234565b811461025a57600080fd5b50565b60008151905061026c81610246565b92915050565b6000602082840312156102885761028761020f565b5b60006102968482850161025d565b91505092915050565b600081519050919050565b7f4e487b7100000000000000000000000000000000000000000000000000000000600052604160045260246000fd5b7f4e487b7100000000000000000000000000000000000000000000000000000000600052602260045260246000fd5b6000600282049050600182168061032057607f821691505b602082108103610333576103326102d9565b5b50919050565b60008190508160005260206000209050919050565b60006020601f8301049050919050565b600082821b905092915050565b60006008830261039b7fffffffffffffffffffffffffffffffffffffffffffffffffffffffffffffffff8261035e565b6103a5868361035e565b95508019841693508086168417925050509392505050565b6000819050919050565b6000819050919050565b60006103ec6103e76103e2846103bd565b6103c7565b6103bd565b9050919050565b6000819050919050565b610406836103d1565b61041a610412826103f3565b84845461036b565b825550505050565b600090565b61042f610422565b61043a8184846103fd565b505050565b5b8181101561045e57610453600082610427565b600181019050610440565b5050565b601f8211156104a35761047481610339565b61047d8461034e565b8101602085101561048c578190505b6104a06104988561034e565b83018261043f565b50505b505050565b600082821c905092915050565b60006104c6600019846008026104a8565b1980831691505092915050565b60006104df83836104b5565b9150826002028217905092915050565b6104f88261029f565b67ffffffffffffffff811115610511576105106102aa565b5b61051b8254610308565b610526828285610462565b600060209050601f8311600181146105595760008415610547578287015190505b61055185826104d3565b8655506105b9565b601f19841661056786610339565b60005b8281101561058f5784890151825560018201915060208501945060208101905061056a565b868310156105ac57848901516105a8601f8916826104b5565b8355505b6001600288020188555050505b505050505050565b6105ca81610234565b82525050565b60006020820190506105e560008301846105c1565b92915050565b611274806105fa6000396000f3fe608060405234801561001057600080fd5b50600436106100ea5760003560e01c8063715018a61161008c5780639dc29fac116100665780639dc29fac1461023b578063a9059cbb14610257578063dd62ed3e14610287578063f2fde38b146102b7576100ea565b8063715018a6146101f55780638da5cb5b146101ff57806395d89b411461021d576100ea565b806323b872dd116100c857806323b872dd1461015b578063313ce5671461018b57806340c10f19146101a957806370a08231146101c5576100ea565b806306fdde03146100ef578063095ea7b31461010d57806318160ddd1461013d575b600080fd5b6100f76102d3565b6040516101049190610ec8565b60405180910390f35b61012760048036038101906101229190610f83565b610365565b6040516101349190610fde565b60405180910390f35b610145610388565b6040516101529190611008565b60405180910390f35b61017560048036038101906101709190611023565b610392565b6040516101829190610fde565b60405180910390f35b6101936103c1565b6040516101a09190611092565b60405180910390f35b6101c360048036038101906101be9190610f83565b6103ca565b005b6101df60048036038101906101da91906110ad565b6103e0565b6040516101ec9190611008565b60405180910390f35b6101fd610428565b005b61020761043c565b60405161021491906110e9565b60405180910390f35b610225610466565b6040516102329190610ec8565b60405180910390f35b61025560048036038101906102509190610f83565b6104f8565b005b610271600480360381019061026c9190610f83565b610519565b60405161027e9190610fde565b60405180910390f35b6102a1600480360381019061029c9190611104565b61053c565b6040516102ae9190611008565b60405180910390f35b6102d160048036038101906102cc91906110ad565b6105c3565b005b6060600380546102e290611173565b80601f016020809104026020016040519081016040528092919081815260200182805461030e90611173565b801561035b5780601f106103305761010080835404028352916020019161035b565b820191906000526020600020905b81548152906001019060200180831161033e57829003601f168201915b5050505050905090565b600080610370610649565b905061037d818585610651565b600191505092915050565b6000600254905090565b60008061039d610649565b90506103aa858285610663565b6103b58585856106f7565b60019150509392505050565b60006012905090565b6103d26107eb565b6103dc8282610872565b5050565b60008060008373ffffffffffffffffffffffffffffffffffffffff1673ffffffffffffffffffffffffffffffffffffffff168152602001908152602001600020549050919050565b6104306107eb565b61043a60006108f4565b565b6000600560009054906101000a900473ffffffffffffffffffffffffffffffffffffffff16905090565b60606004805461047590611173565b80601f01602080910402602001604051908101604052809291908181526020018280546104a190611173565b80156104ee5780601f106104c3576101008083540402835291602001916104ee565b820191906000526020600020905b8154815290600101906020018083116104d157829003601f168201915b5050505050905090565b6105006107eb565b61050b823383610663565b61051582826109ba565b5050565b600080610524610649565b90506105318185856106f7565b600191505092915050565b6000600160008473ffffffffffffffffffffffffffffffffffffffff1673ffffffffffffffffffffffffffffffffffffffff16815260200190815260200160002060008373ffffffffffffffffffffffffffffffffffffffff1673ffffffffffffffffffffffffffffffffffffffff16815260200190815260200160002054905092915050565b6105cb6107eb565b600073ffffffffffffffffffffffffffffffffffffffff168173ffffffffffffffffffffffffffffffffffffffff160361063d5760006040517f1e4fbdf700000000000000000000000000000000000000000000000000000000815260040161063491906110e9565b60405180910390fd5b610646816108f4565b50565b600033905090565b61065e8383836001610a3c565b505050565b600061066f848461053c565b90507fffffffffffffffffffffffffffffffffffffffffffffffffffffffffffffffff81146106f157818110156106e1578281836040517ffb8f41b20000000000000000000000000000000000000000000000000000000081526004016106d8939291906111a4565b60405180910390fd5b6106f084848484036000610a3c565b5b50505050565b600073ffffffffffffffffffffffffffffffffffffffff168373ffffffffffffffffffffffffffffffffffffffff16036107695760006040517f96c6fd1e00000000000000000000000000000000000000000000000000000000815260040161076091906110e9565b60405180910390fd5b600073ffffffffffffffffffffffffffffffffffffffff168273ffffffffffffffffffffffffffffffffffffffff16036107db5760006040517fec442f050000000000000000000000000000000000000000000000000000000081526004016107d291906110e9565b60405180910390fd5b6107e6838383610c13565b505050565b6107f3610649565b73ffffffffffffffffffffffffffffffffffffffff1661081161043c565b73ffffffffffffffffffffffffffffffffffffffff161461087057610834610649565b6040517f118cdaa700000000000000000000000000000000000000000000000000000000815260040161086791906110e9565b60405180910390fd5b565b600073ffffffffffffffffffffffffffffffffffffffff168273ffffffffffffffffffffffffffffffffffffffff16036108e45760006040517fec442f050000000000000000000000000000000000000000000000000000000081526004016108db91906110e9565b60405180910390fd5b6108f060008383610c13565b5050565b6000600560009054906101000a900473ffffffffffffffffffffffffffffffffffffffff16905081600560006101000a81548173ffffffffffffffffffffffffffffffffffffffff021916908373ffffffffffffffffffffffffffffffffffffffff1602179055508173ffffffffffffffffffffffffffffffffffffffff168173ffffffffffffffffffffffffffffffffffffffff167f8be0079c531659141344cd1fd0a4f28419497f9722a3daafe3b4186f6b6457e060405160405180910390a35050565b600073ffffffffffffffffffffffffffffffffffffffff168273ffffffffffffffffffffffffffffffffffffffff1603610a2c5760006040517f96c6fd1e000000000000000000000000000000000000000000000000000000008152600401610a2391906110e9565b60405180910390fd5b610a3882600083610c13565b5050565b600073ffffffffffffffffffffffffffffffffffffffff168473ffffffffffffffffffffffffffffffffffffffff1603610aae5760006040517fe602df05000000000000000000000000000000000000000000000000000000008152600401610aa591906110e9565b60405180910390fd5b600073ffffffffffffffffffffffffffffffffffffffff168373ffffffffffffffffffffffffffffffffffffffff1603610b205760006040517f94280d62000000000000000000000000000000000000000000000000000000008152600401610b1791906110e9565b60405180910390fd5b81600160008673ffffffffffffffffffffffffffffffffffffffff1673ffffffffffffffffffffffffffffffffffffffff16815260200190815260200160002060008573ffffffffffffffffffffffffffffffffffffffff1673ffffffffffffffffffffffffffffffffffffffff168152602001908152602001600020819055508015610c0d578273ffffffffffffffffffffffffffffffffffffffff168473ffffffffffffffffffffffffffffffffffffffff167f8c5be1e5ebec7d5bd14f71427d1e84f3dd0314c0f7b2291e5b200ac8c7c3b92584604051610c049190611008565b60405180910390a35b50505050565b600073ffffffffffffffffffffffffffffffffffffffff168373ffffffffffffffffffffffffffffffffffffffff1603610c65578060026000828254610c59919061120a565b92505081905550610d38565b60008060008573ffffffffffffffffffffffffffffffffffffffff1673ffffffffffffffffffffffffffffffffffffffff16815260200190815260200160002054905081811015610cf1578381836040517fe450d38c000000000000000000000000000000000000000000000000000000008152600401610ce8939291906111a4565b60405180910390fd5b8181036000808673ffffffffffffffffffffffffffffffffffffffff1673ffffffffffffffffffffffffffffffffffffffff16815260200190815260200160002081905550505b600073ffffffffffffffffffffffffffffffffffffffff168273ffffffffffffffffffffffffffffffffffffffff1603610d815780600260008282540392505081905550610dce565b806000808473ffffffffffffffffffffffffffffffffffffffff1673ffffffffffffffffffffffffffffffffffffffff168152602001908152602001600020600082825401925050819055505b8173ffffffffffffffffffffffffffffffffffffffff168373ffffffffffffffffffffffffffffffffffffffff167fddf252ad1be2c89b69c2b068fc378daa952ba7f163c4a11628f55a4df523b3ef83604051610e2b9190611008565b60405180910390a3505050565b600081519050919050565b600082825260208201905092915050565b60005b83811015610e72578082015181840152602081019050610e57565b60008484015250505050565b6000601f19601f8301169050919050565b6000610e9a82610e38565b610ea48185610e43565b9350610eb4818560208601610e54565b610ebd81610e7e565b840191505092915050565b60006020820190508181036000830152610ee28184610e8f565b905092915050565b600080fd5b600073ffffffffffffffffffffffffffffffffffffffff82169050919050565b6000610f1a82610eef565b9050919050565b610f2a81610f0f565b8114610f3557600080fd5b50565b600081359050610f4781610f21565b92915050565b6000819050919050565b610f6081610f4d565b8114610f6b57600080fd5b50565b600081359050610f7d81610f57565b92915050565b60008060408385031215610f9a57610f99610eea565b5b6000610fa885828601610f38565b9250506020610fb985828601610f6e565b9150509250929050565b60008115159050919050565b610fd881610fc3565b82525050565b6000602082019050610ff36000830184610fcf565b92915050565b61100281610f4d565b82525050565b600060208201905061101d6000830184610ff9565b92915050565b60008060006060848603121561103c5761103b610eea565b5b600061104a86828701610f38565b935050602061105b86828701610f38565b925050604061106c86828701610f6e565b9150509250925092565b600060ff82169050919050565b61108c81611076565b82525050565b60006020820190506110a76000830184611083565b92915050565b6000602082840312156110c3576110c2610eea565b5b60006110d184828501610f38565b91505092915050565b6110e381610f0f565b82525050565b60006020820190506110fe60008301846110da565b92915050565b6000806040838503121561111b5761111a610eea565b5b600061112985828601610f38565b925050602061113a85828601610f38565b9150509250929050565b7f4e487b7100000000000000000000000000000000000000000000000000000000600052602260045260246000fd5b6000600282049050600182168061118b57607f821691505b60208210810361119e5761119d611144565b5b50919050565b60006060820190506111b960008301866110da565b6111c66020830185610ff9565b6111d36040830184610ff9565b949350505050565b7f4e487b7100000000000000000000000000000000000000000000000000000000600052601160045260246000fd5b600061121582610f4d565b915061122083610f4d565b9250828201905080821115611238576112376111db565b5b9291505056fea2646970667358221220ee29a4ba429f4542e45d48b2fa75f224a7503c19d03b94031cf4dfb1147e2cfc64736f6c634300081a0033",
  "linkReferences": {},
  "deployedLinkReferences": {}
}