{
  "_format": "hh-sol-artifact-1",
  "contractName": "BalancerPoolToken",
  "sourceName": "contracts/BalancerPoolToken.sol",
  "abi": [
    {
      "inputs": [
        {
          "internalType": "contract IVault",
          "name": "vault_",
          "type": "address"
        },
        {
          "internalType": "string",
          "name": "bptName",
          "type": "string"
        },
        {
          "internalType": "string",
          "name": "bptSymbol",
          "type": "string"
        }
      ],
      "stateMutability": "nonpayable",
      "type": "constructor"
    },
    {
      "inputs": [],
      "name": "ECDSAInvalidSignature",
      "type": "error"
    },
    {
      "inputs": [
        {
          "internalType": "uint256",
          "name": "length",
          "type": "uint256"
        }
      ],
      "name": "ECDSAInvalidSignatureLength",
      "type": "error"
    },
    {
      "inputs": [
        {
          "internalType": "bytes32",
          "name": "s",
          "type": "bytes32"
        }
      ],
      "name": "ECDSAInvalidSignatureS",
      "type": "error"
    },
    {
      "inputs": [
        {
          "internalType": "uint256",
          "name": "deadline",
          "type": "uint256"
        }
      ],
      "name": "ERC2612ExpiredSignature",
      "type": "error"
    },
    {
      "inputs": [
        {
          "internalType": "address",
          "name": "signer",
          "type": "address"
        },
        {
          "internalType": "address",
          "name": "owner",
          "type": "address"
        }
      ],
      "name": "ERC2612InvalidSigner",
      "type": "error"
    },
    {
      "inputs": [
        {
          "internalType": "address",
          "name": "account",
          "type": "address"
        },
        {
          "internalType": "uint256",
          "name": "currentNonce",
          "type": "uint256"
        }
      ],
      "name": "InvalidAccountNonce",
      "type": "error"
    },
    {
      "inputs": [],
      "name": "InvalidShortString",
      "type": "error"
    },
    {
      "inputs": [
        {
          "internalType": "address",
          "name": "sender",
          "type": "address"
        }
      ],
      "name": "SenderIsNotVault",
      "type": "error"
    },
    {
      "inputs": [
        {
          "internalType": "string",
          "name": "str",
          "type": "string"
        }
      ],
      "name": "StringTooLong",
      "type": "error"
    },
    {
      "anonymous": false,
      "inputs": [
        {
          "indexed": true,
          "internalType": "address",
          "name": "owner",
          "type": "address"
        },
        {
          "indexed": true,
          "internalType": "address",
          "name": "spender",
          "type": "address"
        },
        {
          "indexed": false,
          "internalType": "uint256",
          "name": "value",
          "type": "uint256"
        }
      ],
      "name": "Approval",
      "type": "event"
    },
    {
      "anonymous": false,
      "inputs": [],
      "name": "EIP712DomainChanged",
      "type": "event"
    },
    {
      "anonymous": false,
      "inputs": [
        {
          "indexed": true,
          "internalType": "address",
          "name": "from",
          "type": "address"
        },
        {
          "indexed": true,
          "internalType": "address",
          "name": "to",
          "type": "address"
        },
        {
          "indexed": false,
          "internalType": "uint256",
          "name": "value",
          "type": "uint256"
        }
      ],
      "name": "Transfer",
      "type": "event"
    },
    {
      "inputs": [],
      "name": "DOMAIN_SEPARATOR",
      "outputs": [
        {
          "internalType": "bytes32",
          "name": "",
          "type": "bytes32"
        }
      ],
      "stateMutability": "view",
      "type": "function"
    },
    {
      "inputs": [],
      "name": "PERMIT_TYPEHASH",
      "outputs": [
        {
          "internalType": "bytes32",
          "name": "",
          "type": "bytes32"
        }
      ],
      "stateMutability": "view",
      "type": "function"
    },
    {
      "inputs": [
        {
          "internalType": "address",
          "name": "owner",
          "type": "address"
        },
        {
          "internalType": "address",
          "name": "spender",
          "type": "address"
        }
      ],
      "name": "allowance",
      "outputs": [
        {
          "internalType": "uint256",
          "name": "",
          "type": "uint256"
        }
      ],
      "stateMutability": "view",
      "type": "function"
    },
    {
      "inputs": [
        {
          "internalType": "address",
          "name": "spender",
          "type": "address"
        },
        {
          "internalType": "uint256",
          "name": "amount",
          "type": "uint256"
        }
      ],
      "name": "approve",
      "outputs": [
        {
          "internalType": "bool",
          "name": "",
          "type": "bool"
        }
      ],
      "stateMutability": "nonpayable",
      "type": "function"
    },
    {
      "inputs": [
        {
          "internalType": "address",
          "name": "account",
          "type": "address"
        }
      ],
      "name": "balanceOf",
      "outputs": [
        {
          "internalType": "uint256",
          "name": "",
          "type": "uint256"
        }
      ],
      "stateMutability": "view",
      "type": "function"
    },
    {
      "inputs": [],
      "name": "decimals",
      "outputs": [
        {
          "internalType": "uint8",
          "name": "",
          "type": "uint8"
        }
      ],
      "stateMutability": "pure",
      "type": "function"
    },
    {
      "inputs": [],
      "name": "eip712Domain",
      "outputs": [
        {
          "internalType": "bytes1",
          "name": "fields",
          "type": "bytes1"
        },
        {
          "internalType": "string",
          "name": "name",
          "type": "string"
        },
        {
          "internalType": "string",
          "name": "version",
          "type": "string"
        },
        {
          "internalType": "uint256",
          "name": "chainId",
          "type": "uint256"
        },
        {
          "internalType": "address",
          "name": "verifyingContract",
          "type": "address"
        },
        {
          "internalType": "bytes32",
          "name": "salt",
          "type": "bytes32"
        },
        {
          "internalType": "uint256[]",
          "name": "extensions",
          "type": "uint256[]"
        }
      ],
      "stateMutability": "view",
      "type": "function"
    },
    {
      "inputs": [
        {
          "internalType": "address",
          "name": "owner",
          "type": "address"
        },
        {
          "internalType": "address",
          "name": "spender",
          "type": "address"
        },
        {
          "internalType": "uint256",
          "name": "amount",
          "type": "uint256"
        }
      ],
      "name": "emitApproval",
      "outputs": [],
      "stateMutability": "nonpayable",
      "type": "function"
    },
    {
      "inputs": [
        {
          "internalType": "address",
          "name": "from",
          "type": "address"
        },
        {
          "internalType": "address",
          "name": "to",
          "type": "address"
        },
        {
          "internalType": "uint256",
          "name": "amount",
          "type": "uint256"
        }
      ],
      "name": "emitTransfer",
      "outputs": [],
      "stateMutability": "nonpayable",
      "type": "function"
    },
    {
      "inputs": [],
      "name": "getRate",
      "outputs": [
        {
          "internalType": "uint256",
          "name": "",
          "type": "uint256"
        }
      ],
      "stateMutability": "view",
      "type": "function"
    },
    {
      "inputs": [],
      "name": "getVault",
      "outputs": [
        {
          "internalType": "contract IVault",
          "name": "",
          "type": "address"
        }
      ],
      "stateMutability": "view",
      "type": "function"
    },
    {
      "inputs": [],
      "name": "incrementNonce",
      "outputs": [],
      "stateMutability": "nonpayable",
      "type": "function"
    },
    {
      "inputs": [],
      "name": "name",
      "outputs": [
        {
          "internalType": "string",
          "name": "",
          "type": "string"
        }
      ],
      "stateMutability": "view",
      "type": "function"
    },
    {
      "inputs": [
        {
          "internalType": "address",
          "name": "owner",
          "type": "address"
        }
      ],
      "name": "nonces",
      "outputs": [
        {
          "internalType": "uint256",
          "name": "",
          "type": "uint256"
        }
      ],
      "stateMutability": "view",
      "type": "function"
    },
    {
      "inputs": [
        {
          "internalType": "address",
          "name": "owner",
          "type": "address"
        },
        {
          "internalType": "address",
          "name": "spender",
          "type": "address"
        },
        {
          "internalType": "uint256",
          "name": "amount",
          "type": "uint256"
        },
        {
          "internalType": "uint256",
          "name": "deadline",
          "type": "uint256"
        },
        {
          "internalType": "uint8",
          "name": "v",
          "type": "uint8"
        },
        {
          "internalType": "bytes32",
          "name": "r",
          "type": "bytes32"
        },
        {
          "internalType": "bytes32",
          "name": "s",
          "type": "bytes32"
        }
      ],
      "name": "permit",
      "outputs": [],
      "stateMutability": "nonpayable",
      "type": "function"
    },
    {
      "inputs": [
        {
          "internalType": "bytes4",
          "name": "interfaceId",
          "type": "bytes4"
        }
      ],
      "name": "supportsInterface",
      "outputs": [
        {
          "internalType": "bool",
          "name": "",
          "type": "bool"
        }
      ],
      "stateMutability": "view",
      "type": "function"
    },
    {
      "inputs": [],
      "name": "symbol",
      "outputs": [
        {
          "internalType": "string",
          "name": "",
          "type": "string"
        }
      ],
      "stateMutability": "view",
      "type": "function"
    },
    {
      "inputs": [],
      "name": "totalSupply",
      "outputs": [
        {
          "internalType": "uint256",
          "name": "",
          "type": "uint256"
        }
      ],
      "stateMutability": "view",
      "type": "function"
    },
    {
      "inputs": [
        {
          "internalType": "address",
          "name": "to",
          "type": "address"
        },
        {
          "internalType": "uint256",
          "name": "amount",
          "type": "uint256"
        }
      ],
      "name": "transfer",
      "outputs": [
        {
          "internalType": "bool",
          "name": "",
          "type": "bool"
        }
      ],
      "stateMutability": "nonpayable",
      "type": "function"
    },
    {
      "inputs": [
        {
          "internalType": "address",
          "name": "from",
          "type": "address"
        },
        {
          "internalType": "address",
          "name": "to",
          "type": "address"
        },
        {
          "internalType": "uint256",
          "name": "amount",
          "type": "uint256"
        }
      ],
      "name": "transferFrom",
      "outputs": [
        {
          "internalType": "bool",
          "name": "",
          "type": "bool"
        }
      ],
      "stateMutability": "nonpayable",
      "type": "function"
    }
  ],
  "bytecode": "0x610180806040523461045c576116ff803803809161001d8285610460565b833981019060608183031261045c578051906001600160a01b038216820361045c5760208101516001600160401b03811161045c578361005e918301610483565b60408201519093906001600160401b03811161045c5761007e9201610483565b90604090815161008e8382610460565b6001815260208101603160f81b81526100a6866104d8565b610120526100b38261065a565b6101405285516020870120918260e05251902080610100524660a05283519060208201927f8b73c3c69bb8fe3d512ecc4cf759cc79239f7b179b0ffacaa9a75d522b39400f84528583015260608201524660808201523060a082015260a0815261011e60c082610460565b5190206080523060c0526101605282516001600160401b03811161036d57600354600181811c91168015610452575b602082101461034f57601f81116103ef575b506020601f821160011461038c57819293945f92610381575b50508160011b915f199060031b1c1916176003555b81516001600160401b03811161036d57600454600181811c91168015610363575b602082101461034f57601f81116102ec575b50602092601f821160011461028b57928192935f92610280575b50508160011b915f199060031b1c1916176004555b51610f6c9081610793823960805181610c8c015260a05181610d49015260c05181610c56015260e05181610cdb01526101005181610d010152610120518161054a01526101405181610573015261016051818181610151015281816102e3015281816103af01528181610503015281816106ab0152818161070f0152818161089f015281816109010152610c100152f35b015190505f806101da565b601f1982169360045f52805f20915f5b8681106102d457508360019596106102bc575b505050811b016004556101ef565b01515f1960f88460031b161c191690555f80806102ae565b9192602060018192868501518155019401920161029b565b60045f527f8a35acfbc15ff81a39ae7d344fd709f28e8600b4aa8c65c6b64bfe7fe36bd19b601f830160051c81019160208410610345575b601f0160051c01905b81811061033a57506101c0565b5f815560010161032d565b9091508190610324565b634e487b7160e01b5f52602260045260245ffd5b90607f16906101ae565b634e487b7160e01b5f52604160045260245ffd5b015190505f80610178565b601f1982169060035f52805f20915f5b8181106103d7575095836001959697106103bf575b505050811b0160035561018d565b01515f1960f88460031b161c191690555f80806103b1565b9192602060018192868b01518155019401920161039c565b60035f527fc2575a0e9e593c00f959f8c92f12db2869c3395a3b0502d05e2516446f71f85b601f830160051c81019160208410610448575b601f0160051c01905b81811061043d575061015f565b5f8155600101610430565b9091508190610427565b90607f169061014d565b5f80fd5b601f909101601f19168101906001600160401b0382119082101761036d57604052565b81601f8201121561045c578051906001600160401b03821161036d57604051926104b7601f8401601f191660200185610460565b8284526020838301011161045c57815f9260208093018386015e8301015290565b908151602081105f14610552575090601f815111610512576020815191015160208210610503571790565b5f198260200360031b1b161790565b604460209160405192839163305a27a960e01b83528160048401528051918291826024860152018484015e5f828201840152601f01601f19168101030190fd5b6001600160401b03811161036d575f54600181811c91168015610650575b602082101461034f57601f811161061e575b50602092601f82116001146105bf57928192935f926105b4575b50508160011b915f199060031b1c1916175f5560ff90565b015190505f8061059c565b601f198216935f8052805f20915f5b86811061060657508360019596106105ee575b505050811b015f5560ff90565b01515f1960f88460031b161c191690555f80806105e1565b919260206001819286850151815501940192016105ce565b5f8052601f60205f20910160051c810190601f830160051c015b8181106106455750610582565b5f8155600101610638565b90607f1690610570565b908151602081105f14610685575090601f815111610512576020815191015160208210610503571790565b6001600160401b03811161036d57600154600181811c91168015610788575b602082101461034f57601f8111610755575b50602092601f82116001146106f457928192935f926106e9575b50508160011b915f199060031b1c19161760015560ff90565b015190505f806106d0565b601f1982169360015f52805f20915f5b86811061073d5750836001959610610725575b505050811b0160015560ff90565b01515f1960f88460031b161c191690555f8080610717565b91926020600181928685015181550194019201610704565b60015f52601f60205f20910160051c810190601f830160051c015b81811061077d57506106b6565b5f8155600101610770565b90607f16906106a456fe6080806040526004361015610012575f80fd5b5f3560e01c90816301ffc9a714610a245750806306fdde031461097f578063095ea7b31461094257806318160ddd146108d657806323b872dd1461085257806323de66511461082157806330adf81f146107fa578063313ce567146107df5780633644e515146107bd5780635687f2b814610769578063627cdcb914610750578063679aefce146106e457806370a08231146106625780637ecebe001461062a57806384b0196e146105325780638d928af8146104ee57806395d89b411461040c578063a9059cbb1461036d578063d505accf146101cd5763dd62ed3e146100f8575f80fd5b346101b65760403660031901126101b657610111610a7e565b610119610a94565b60405163927da10560e01b81523060048201526001600160a01b039283166024820152908216604482015290602090829060649082907f0000000000000000000000000000000000000000000000000000000000000000165afa80156101c2575f9061018b575b602090604051908152f35b506020813d6020116101ba575b816101a560209383610b9d565b810103126101b65760209051610180565b5f80fd5b3d9150610198565b6040513d5f823e3d90fd5b346101b65760e03660031901126101b6576101e6610a7e565b6101ee610a94565b604435906064359260843560ff811681036101b65784421161035a576102a26102ab9161021a84610d6f565b9660405160208101915f80516020610f17833981519152835260018060a01b038716998a604084015260018060a01b038916606084015289608084015260a083015260c082015260c0815261027060e082610b9d565b51902061027b610c53565b906040519161190160f01b83526002830152602282015260c43591604260a4359220610e2a565b90929192610ea2565b6001600160a01b03168481036103435750906020916102de604051948593849363e1f21c6760e01b855260048501610bec565b03815f7f00000000000000000000000000000000000000000000000000000000000000006001600160a01b03165af180156101c25761031957005b61033a9060203d60201161033c575b6103328183610b9d565b810190610bd4565b005b503d610328565b84906325c0072360e11b5f5260045260245260445ffd5b8463313c898160e11b5f5260045260245ffd5b346101b65760403660031901126101b6576103aa602061038b610a7e565b604051809381926317d5759960e31b8352602435903360048501610bec565b03815f7f00000000000000000000000000000000000000000000000000000000000000006001600160a01b03165af180156101c2576103ef575b602060405160018152f35b6104079060203d60201161033c576103328183610b9d565b6103e4565b346101b6575f3660031901126101b6576040515f60045461042c81610ae4565b80845290600181169081156104ca575060011461046c575b6104688361045481850382610b9d565b604051918291602083526020830190610a5a565b0390f35b60045f9081527f8a35acfbc15ff81a39ae7d344fd709f28e8600b4aa8c65c6b64bfe7fe36bd19b939250905b8082106104b057509091508101602001610454610444565b919260018160209254838588010152019101909291610498565b60ff191660208086019190915291151560051b840190910191506104549050610444565b346101b6575f3660031901126101b6576040517f00000000000000000000000000000000000000000000000000000000000000006001600160a01b03168152602090f35b346101b6575f3660031901126101b6576105ce61056e7f0000000000000000000000000000000000000000000000000000000000000000610d91565b6105977f0000000000000000000000000000000000000000000000000000000000000000610df3565b60206105dc604051926105aa8385610b9d565b5f84525f368137604051958695600f60f81b875260e08588015260e0870190610a5a565b908582036040870152610a5a565b4660608501523060808501525f60a085015283810360c08501528180845192838152019301915f5b82811061061357505050500390f35b835185528695509381019392810192600101610604565b346101b65760203660031901126101b6576001600160a01b0361064b610a7e565b165f526002602052602060405f2054604051908152f35b346101b65760203660031901126101b65761067b610a7e565b604051633de222bb60e21b81523060048201526001600160a01b03918216602482015290602090829060449082907f0000000000000000000000000000000000000000000000000000000000000000165afa80156101c2575f9061018b57602090604051908152f35b346101b6575f3660031901126101b657604051634f037ee760e01b81523060048201526020816024817f00000000000000000000000000000000000000000000000000000000000000006001600160a01b03165afa80156101c2575f9061018b57602090604051908152f35b346101b6575f3660031901126101b65761033a33610d6f565b346101b65760207f8c5be1e5ebec7d5bd14f71427d1e84f3dd0314c0f7b2291e5b200ac8c7c3b92561079a36610aaa565b929193906107a6610c0e565b6040519384526001600160a01b03908116941692a3005b346101b6575f3660031901126101b65760206107d7610c53565b604051908152f35b346101b6575f3660031901126101b657602060405160128152f35b346101b6575f3660031901126101b65760206040515f80516020610f178339815191528152f35b346101b65760207fddf252ad1be2c89b69c2b068fc378daa952ba7f163c4a11628f55a4df523b3ef61079a36610aaa565b346101b65761086036610aaa565b604051630aed65f560e11b81523360048201526001600160a01b0393841660248201529183166044830152606482015290602090829060849082905f907f0000000000000000000000000000000000000000000000000000000000000000165af180156101c2576103ef57602060405160018152f35b346101b6575f3660031901126101b6576040516339370aa960e21b81523060048201526020816024817f00000000000000000000000000000000000000000000000000000000000000006001600160a01b03165afa80156101c2575f9061018b57602090604051908152f35b346101b65760403660031901126101b6576103aa6020610960610a7e565b6040518093819263e1f21c6760e01b8352602435903360048501610bec565b346101b6575f3660031901126101b6576040515f60035461099f81610ae4565b80845290600181169081156104ca57506001146109c6576104688361045481850382610b9d565b60035f9081527fc2575a0e9e593c00f959f8c92f12db2869c3395a3b0502d05e2516446f71f85b939250905b808210610a0a57509091508101602001610454610444565b9192600181602092548385880101520191019092916109f2565b346101b65760203660031901126101b6576004359063ffffffff60e01b82168092036101b6576020916301ffc9a760e01b148152f35b805180835260209291819084018484015e5f828201840152601f01601f1916010190565b600435906001600160a01b03821682036101b657565b602435906001600160a01b03821682036101b657565b60609060031901126101b6576004356001600160a01b03811681036101b657906024356001600160a01b03811681036101b6579060443590565b90600182811c92168015610b12575b6020831014610afe57565b634e487b7160e01b5f52602260045260245ffd5b91607f1691610af3565b5f9291815491610b2b83610ae4565b8083529260018116908115610b805750600114610b4757505050565b5f9081526020812093945091925b838310610b66575060209250010190565b600181602092949394548385870101520191019190610b55565b915050602093945060ff929192191683830152151560051b010190565b601f909101601f19168101906001600160401b03821190821017610bc057604052565b634e487b7160e01b5f52604160045260245ffd5b908160209103126101b6575180151581036101b65790565b6001600160a01b03918216815291166020820152604081019190915260600190565b7f00000000000000000000000000000000000000000000000000000000000000006001600160a01b03163303610c4057565b63089676d560e01b5f523360045260245ffd5b307f00000000000000000000000000000000000000000000000000000000000000006001600160a01b03161480610d46575b15610cae577f000000000000000000000000000000000000000000000000000000000000000090565b60405160208101907f8b73c3c69bb8fe3d512ecc4cf759cc79239f7b179b0ffacaa9a75d522b39400f82527f000000000000000000000000000000000000000000000000000000000000000060408201527f000000000000000000000000000000000000000000000000000000000000000060608201524660808201523060a082015260a08152610d4060c082610b9d565b51902090565b507f00000000000000000000000000000000000000000000000000000000000000004614610c85565b6001600160a01b03165f90815260026020526040902080546001810190915590565b60ff8114610dd75760ff811690601f8211610dc85760405191610db5604084610b9d565b6020808452838101919036833783525290565b632cd44ac360e21b5f5260045ffd5b50604051610df081610de9815f610b1c565b0382610b9d565b90565b60ff8114610e175760ff811690601f8211610dc85760405191610db5604084610b9d565b50604051610df081610de9816001610b1c565b91906fa2a8918ca85bafe22016d0b997e4df60600160ff1b038411610e97579160209360809260ff5f9560405194855216868401526040830152606082015282805260015afa156101c2575f516001600160a01b03811615610e8d57905f905f90565b505f906001905f90565b5050505f9160039190565b6004811015610f025780610eb4575050565b60018103610ecb5763f645eedf60e01b5f5260045ffd5b60028103610ee6575063fce698f760e01b5f5260045260245ffd5b600314610ef05750565b6335e2f38360e21b5f5260045260245ffd5b634e487b7160e01b5f52602160045260245ffdfe6e71edae12b1b97f4d1f60370fef10105fa2faae0126114a169c64845d6126c9a26469706673582212207b9d5f9ff061f665ec4775df55dda06967f829293f7ca36162e83bba1998fe3164736f6c634300081a0033",
  "linkReferences": {},
  "deployedLinkReferences": {}
}