{
  "_format": "hh-sol-artifact-1",
  "contractName": "BalancerPoolToken",
  "sourceName": "contracts/BalancerPoolToken.sol",
  "abi": [
    {
      "inputs": [
        {
          "internalType": "contract IVault",
          "name": "vault_",
          "type": "address"
        },
        {
          "internalType": "string",
          "name": "bptName",
          "type": "string"
        },
        {
          "internalType": "string",
          "name": "bptSymbol",
          "type": "string"
        }
      ],
      "stateMutability": "nonpayable",
      "type": "constructor"
    },
    {
      "inputs": [],
      "name": "ECDSAInvalidSignature",
      "type": "error"
    },
    {
      "inputs": [
        {
          "internalType": "uint256",
          "name": "length",
          "type": "uint256"
        }
      ],
      "name": "ECDSAInvalidSignatureLength",
      "type": "error"
    },
    {
      "inputs": [
        {
          "internalType": "bytes32",
          "name": "s",
          "type": "bytes32"
        }
      ],
      "name": "ECDSAInvalidSignatureS",
      "type": "error"
    },
    {
      "inputs": [
        {
          "internalType": "uint256",
          "name": "deadline",
          "type": "uint256"
        }
      ],
      "name": "ERC2612ExpiredSignature",
      "type": "error"
    },
    {
      "inputs": [
        {
          "internalType": "address",
          "name": "signer",
          "type": "address"
        },
        {
          "internalType": "address",
          "name": "owner",
          "type": "address"
        }
      ],
      "name": "ERC2612InvalidSigner",
      "type": "error"
    },
    {
      "inputs": [
        {
          "internalType": "address",
          "name": "account",
          "type": "address"
        },
        {
          "internalType": "uint256",
          "name": "currentNonce",
          "type": "uint256"
        }
      ],
      "name": "InvalidAccountNonce",
      "type": "error"
    },
    {
      "inputs": [],
      "name": "InvalidShortString",
      "type": "error"
    },
    {
      "inputs": [
        {
          "internalType": "address",
          "name": "sender",
          "type": "address"
        }
      ],
      "name": "SenderIsNotVault",
      "type": "error"
    },
    {
      "inputs": [
        {
          "internalType": "string",
          "name": "str",
          "type": "string"
        }
      ],
      "name": "StringTooLong",
      "type": "error"
    },
    {
      "anonymous": false,
      "inputs": [
        {
          "indexed": true,
          "internalType": "address",
          "name": "owner",
          "type": "address"
        },
        {
          "indexed": true,
          "internalType": "address",
          "name": "spender",
          "type": "address"
        },
        {
          "indexed": false,
          "internalType": "uint256",
          "name": "value",
          "type": "uint256"
        }
      ],
      "name": "Approval",
      "type": "event"
    },
    {
      "anonymous": false,
      "inputs": [],
      "name": "EIP712DomainChanged",
      "type": "event"
    },
    {
      "anonymous": false,
      "inputs": [
        {
          "indexed": true,
          "internalType": "address",
          "name": "from",
          "type": "address"
        },
        {
          "indexed": true,
          "internalType": "address",
          "name": "to",
          "type": "address"
        },
        {
          "indexed": false,
          "internalType": "uint256",
          "name": "value",
          "type": "uint256"
        }
      ],
      "name": "Transfer",
      "type": "event"
    },
    {
      "inputs": [],
      "name": "DOMAIN_SEPARATOR",
      "outputs": [
        {
          "internalType": "bytes32",
          "name": "",
          "type": "bytes32"
        }
      ],
      "stateMutability": "view",
      "type": "function"
    },
    {
      "inputs": [],
      "name": "PERMIT_TYPEHASH",
      "outputs": [
        {
          "internalType": "bytes32",
          "name": "",
          "type": "bytes32"
        }
      ],
      "stateMutability": "view",
      "type": "function"
    },
    {
      "inputs": [
        {
          "internalType": "address",
          "name": "owner",
          "type": "address"
        },
        {
          "internalType": "address",
          "name": "spender",
          "type": "address"
        }
      ],
      "name": "allowance",
      "outputs": [
        {
          "internalType": "uint256",
          "name": "",
          "type": "uint256"
        }
      ],
      "stateMutability": "view",
      "type": "function"
    },
    {
      "inputs": [
        {
          "internalType": "address",
          "name": "spender",
          "type": "address"
        },
        {
          "internalType": "uint256",
          "name": "amount",
          "type": "uint256"
        }
      ],
      "name": "approve",
      "outputs": [
        {
          "internalType": "bool",
          "name": "",
          "type": "bool"
        }
      ],
      "stateMutability": "nonpayable",
      "type": "function"
    },
    {
      "inputs": [
        {
          "internalType": "address",
          "name": "account",
          "type": "address"
        }
      ],
      "name": "balanceOf",
      "outputs": [
        {
          "internalType": "uint256",
          "name": "",
          "type": "uint256"
        }
      ],
      "stateMutability": "view",
      "type": "function"
    },
    {
      "inputs": [],
      "name": "decimals",
      "outputs": [
        {
          "internalType": "uint8",
          "name": "",
          "type": "uint8"
        }
      ],
      "stateMutability": "pure",
      "type": "function"
    },
    {
      "inputs": [],
      "name": "eip712Domain",
      "outputs": [
        {
          "internalType": "bytes1",
          "name": "fields",
          "type": "bytes1"
        },
        {
          "internalType": "string",
          "name": "name",
          "type": "string"
        },
        {
          "internalType": "string",
          "name": "version",
          "type": "string"
        },
        {
          "internalType": "uint256",
          "name": "chainId",
          "type": "uint256"
        },
        {
          "internalType": "address",
          "name": "verifyingContract",
          "type": "address"
        },
        {
          "internalType": "bytes32",
          "name": "salt",
          "type": "bytes32"
        },
        {
          "internalType": "uint256[]",
          "name": "extensions",
          "type": "uint256[]"
        }
      ],
      "stateMutability": "view",
      "type": "function"
    },
    {
      "inputs": [
        {
          "internalType": "address",
          "name": "owner",
          "type": "address"
        },
        {
          "internalType": "address",
          "name": "spender",
          "type": "address"
        },
        {
          "internalType": "uint256",
          "name": "amount",
          "type": "uint256"
        }
      ],
      "name": "emitApproval",
      "outputs": [],
      "stateMutability": "nonpayable",
      "type": "function"
    },
    {
      "inputs": [
        {
          "internalType": "address",
          "name": "from",
          "type": "address"
        },
        {
          "internalType": "address",
          "name": "to",
          "type": "address"
        },
        {
          "internalType": "uint256",
          "name": "amount",
          "type": "uint256"
        }
      ],
      "name": "emitTransfer",
      "outputs": [],
      "stateMutability": "nonpayable",
      "type": "function"
    },
    {
      "inputs": [],
      "name": "getRate",
      "outputs": [
        {
          "internalType": "uint256",
          "name": "",
          "type": "uint256"
        }
      ],
      "stateMutability": "view",
      "type": "function"
    },
    {
      "inputs": [],
      "name": "getVault",
      "outputs": [
        {
          "internalType": "contract IVault",
          "name": "",
          "type": "address"
        }
      ],
      "stateMutability": "view",
      "type": "function"
    },
    {
      "inputs": [],
      "name": "incrementNonce",
      "outputs": [],
      "stateMutability": "nonpayable",
      "type": "function"
    },
    {
      "inputs": [],
      "name": "name",
      "outputs": [
        {
          "internalType": "string",
          "name": "",
          "type": "string"
        }
      ],
      "stateMutability": "view",
      "type": "function"
    },
    {
      "inputs": [
        {
          "internalType": "address",
          "name": "owner",
          "type": "address"
        }
      ],
      "name": "nonces",
      "outputs": [
        {
          "internalType": "uint256",
          "name": "",
          "type": "uint256"
        }
      ],
      "stateMutability": "view",
      "type": "function"
    },
    {
      "inputs": [
        {
          "internalType": "address",
          "name": "owner",
          "type": "address"
        },
        {
          "internalType": "address",
          "name": "spender",
          "type": "address"
        },
        {
          "internalType": "uint256",
          "name": "amount",
          "type": "uint256"
        },
        {
          "internalType": "uint256",
          "name": "deadline",
          "type": "uint256"
        },
        {
          "internalType": "uint8",
          "name": "v",
          "type": "uint8"
        },
        {
          "internalType": "bytes32",
          "name": "r",
          "type": "bytes32"
        },
        {
          "internalType": "bytes32",
          "name": "s",
          "type": "bytes32"
        }
      ],
      "name": "permit",
      "outputs": [],
      "stateMutability": "nonpayable",
      "type": "function"
    },
    {
      "inputs": [
        {
          "internalType": "bytes4",
          "name": "interfaceId",
          "type": "bytes4"
        }
      ],
      "name": "supportsInterface",
      "outputs": [
        {
          "internalType": "bool",
          "name": "",
          "type": "bool"
        }
      ],
      "stateMutability": "view",
      "type": "function"
    },
    {
      "inputs": [],
      "name": "symbol",
      "outputs": [
        {
          "internalType": "string",
          "name": "",
          "type": "string"
        }
      ],
      "stateMutability": "view",
      "type": "function"
    },
    {
      "inputs": [],
      "name": "totalSupply",
      "outputs": [
        {
          "internalType": "uint256",
          "name": "",
          "type": "uint256"
        }
      ],
      "stateMutability": "view",
      "type": "function"
    },
    {
      "inputs": [
        {
          "internalType": "address",
          "name": "to",
          "type": "address"
        },
        {
          "internalType": "uint256",
          "name": "amount",
          "type": "uint256"
        }
      ],
      "name": "transfer",
      "outputs": [
        {
          "internalType": "bool",
          "name": "",
          "type": "bool"
        }
      ],
      "stateMutability": "nonpayable",
      "type": "function"
    },
    {
      "inputs": [
        {
          "internalType": "address",
          "name": "from",
          "type": "address"
        },
        {
          "internalType": "address",
          "name": "to",
          "type": "address"
        },
        {
          "internalType": "uint256",
          "name": "amount",
          "type": "uint256"
        }
      ],
      "name": "transferFrom",
      "outputs": [
        {
          "internalType": "bool",
          "name": "",
          "type": "bool"
        }
      ],
      "stateMutability": "nonpayable",
      "type": "function"
    }
  ],
  "bytecode": "0x6101808060405234610470576117b9803803809161001d8285610475565b8339810190606081830312610470578051906001600160a01b03821682036104705760208101516001600160401b038111610470578361005e9183016104bb565b60408201519093906001600160401b0381116104705761007e92016104bb565b90604090815161008e8382610475565b6001815260208101603160f81b81526100a68661050f565b610120526100b38261069e565b6101405285516020870120918260e05251902080610100524660a05283519060208201927f8b73c3c69bb8fe3d512ecc4cf759cc79239f7b179b0ffacaa9a75d522b39400f84528583015260608201524660808201523060a082015260a0815261011e60c082610475565b5190206080523060c0526101605282516001600160401b03811161037957600354600181811c91168015610466575b602082101461035957601f8111610401575b506020601f821160011461039a578192939460009261038f575b50508160011b916000199060031b1c1916176003555b81516001600160401b03811161037957600454600181811c9116801561036f575b602082101461035957601f81116102f4575b50602092601f821160011461028f5792819293600092610284575b50508160011b916000199060031b1c1916176004555b51610fd890816107e1823960805181610cd7015260a05181610d94015260c05181610ca1015260e05181610d2601526101005181610d4c0152610120518161055c01526101405181610585015261016051818181610154015281816102eb015281816103bc01528181610514015281816106c301528181610729015281816108c0015281816109230152610c590152f35b0151905038806101dd565b601f198216936004600052806000209160005b8681106102dc57508360019596106102c3575b505050811b016004556101f3565b015160001960f88460031b161c191690553880806102b5565b919260206001819286850151815501940192016102a2565b60046000527f8a35acfbc15ff81a39ae7d344fd709f28e8600b4aa8c65c6b64bfe7fe36bd19b601f830160051c8101916020841061034f575b601f0160051c01905b81811061034357506101c2565b60008155600101610336565b909150819061032d565b634e487b7160e01b600052602260045260246000fd5b90607f16906101b0565b634e487b7160e01b600052604160045260246000fd5b015190503880610179565b601f198216906003600052806000209160005b8181106103e9575095836001959697106103d0575b505050811b0160035561018f565b015160001960f88460031b161c191690553880806103c2565b9192602060018192868b0151815501940192016103ad565b60036000527fc2575a0e9e593c00f959f8c92f12db2869c3395a3b0502d05e2516446f71f85b601f830160051c8101916020841061045c575b601f0160051c01905b818110610450575061015f565b60008155600101610443565b909150819061043a565b90607f169061014d565b600080fd5b601f909101601f19168101906001600160401b0382119082101761037957604052565b60005b8381106104ab5750506000910152565b818101518382015260200161049b565b81601f820112156104705780516001600160401b03811161037957604051926104ee601f8301601f191660200185610475565b818452602082840101116104705761050c9160208085019101610498565b90565b9081516020811060001461058a575090601f81511161054b57602081519101516020821061053b571790565b6000198260200360031b1b161790565b6044604051809263305a27a960e01b82526020600483015261057c8151809281602486015260208686019101610498565b601f01601f19168101030190fd5b6001600160401b03811161037957600054600181811c91168015610694575b602082101461035957601f811161065f575b50602092601f82116001146105fb57928192936000926105f0575b50508160011b916000199060031b1c19161760005560ff90565b0151905038806105d6565b601f1982169360008052806000209160005b868110610647575083600195961061062e575b505050811b0160005560ff90565b015160001960f88460031b161c19169055388080610620565b9192602060018192868501518155019401920161060d565b60008052601f6020600020910160051c810190601f830160051c015b81811061068857506105bb565b6000815560010161067b565b90607f16906105a9565b908151602081106000146106ca575090601f81511161054b57602081519101516020821061053b571790565b6001600160401b03811161037957600154600181811c911680156107d6575b602082101461035957601f81116107a0575b50602092601f821160011461073b5792819293600092610730575b50508160011b916000199060031b1c19161760015560ff90565b015190503880610716565b601f198216936001600052806000209160005b868110610788575083600195961061076f575b505050811b0160015560ff90565b015160001960f88460031b161c19169055388080610761565b9192602060018192868501518155019401920161074e565b6001600052601f6020600020910160051c810190601f830160051c015b8181106107ca57506106fb565b600081556001016107bd565b90607f16906106e956fe608080604052600436101561001357600080fd5b60003560e01c90816301ffc9a714610a4a5750806306fdde03146109a2578063095ea7b31461096557806318160ddd146108f757806323b872dd1461087257806323de66511461084157806330adf81f14610818578063313ce567146107fc5780633644e515146107d95780635687f2b814610785578063627cdcb91461076b578063679aefce146106fd57806370a082311461067a5780637ecebe001461064057806384b0196e146105435780638d928af8146104fe57806395d89b4114610419578063a9059cbb14610379578063d505accf146101d35763dd62ed3e146100fb57600080fd5b346101ba5760403660031901126101ba57610114610ac1565b61011c610ad7565b60405163927da10560e01b81523060048201526001600160a01b039283166024820152908216604482015290602090829060649082907f0000000000000000000000000000000000000000000000000000000000000000165afa80156101c75760009061018f575b602090604051908152f35b506020813d6020116101bf575b816101a960209383610be4565b810103126101ba5760209051610184565b600080fd5b3d915061019c565b6040513d6000823e3d90fd5b346101ba5760e03660031901126101ba576101ec610ac1565b6101f4610ad7565b604435906064359260843560ff811681036101ba57844211610364576102a96102b29161022084610dba565b966040516020810191600080516020610f83833981519152835260018060a01b038716998a604084015260018060a01b038916606084015289608084015260a083015260c082015260c0815261027760e082610be4565b519020610282610c9e565b906040519161190160f01b83526002830152602282015260c43591604260a4359220610e7b565b90929192610efa565b6001600160a01b031684810361034b5750906020916102e5604051948593849363e1f21c6760e01b855260048501610c35565b038160007f00000000000000000000000000000000000000000000000000000000000000006001600160a01b03165af180156101c75761032157005b6103429060203d602011610344575b61033a8183610be4565b810190610c1d565b005b503d610330565b84906325c0072360e11b60005260045260245260446000fd5b8463313c898160e11b60005260045260246000fd5b346101ba5760403660031901126101ba576103b66020610397610ac1565b604051809381926317d5759960e31b8352602435903360048501610c35565b038160007f00000000000000000000000000000000000000000000000000000000000000006001600160a01b03165af180156101c7576103fc575b602060405160018152f35b6104149060203d6020116103445761033a8183610be4565b6103f1565b346101ba5760003660031901126101ba57604051600060045461043b81610b27565b80845290600181169081156104da575060011461047b575b6104778361046381850382610be4565b604051918291602083526020830190610a80565b0390f35b600460009081527f8a35acfbc15ff81a39ae7d344fd709f28e8600b4aa8c65c6b64bfe7fe36bd19b939250905b8082106104c057509091508101602001610463610453565b9192600181602092548385880101520191019092916104a8565b60ff191660208086019190915291151560051b840190910191506104639050610453565b346101ba5760003660031901126101ba576040517f00000000000000000000000000000000000000000000000000000000000000006001600160a01b03168152602090f35b346101ba5760003660031901126101ba576105e26105807f0000000000000000000000000000000000000000000000000000000000000000610ddd565b6105a97f0000000000000000000000000000000000000000000000000000000000000000610e44565b60206105f0604051926105bc8385610be4565b600084526000368137604051958695600f60f81b875260e08588015260e0870190610a80565b908582036040870152610a80565b466060850152306080850152600060a085015283810360c085015281808451928381520193019160005b82811061062957505050500390f35b83518552869550938101939281019260010161061a565b346101ba5760203660031901126101ba576001600160a01b03610661610ac1565b1660005260026020526020604060002054604051908152f35b346101ba5760203660031901126101ba57610693610ac1565b604051633de222bb60e21b81523060048201526001600160a01b03918216602482015290602090829060449082907f0000000000000000000000000000000000000000000000000000000000000000165afa80156101c75760009061018f57602090604051908152f35b346101ba5760003660031901126101ba57604051634f037ee760e01b81523060048201526020816024817f00000000000000000000000000000000000000000000000000000000000000006001600160a01b03165afa80156101c75760009061018f57602090604051908152f35b346101ba5760003660031901126101ba5761034233610dba565b346101ba5760207f8c5be1e5ebec7d5bd14f71427d1e84f3dd0314c0f7b2291e5b200ac8c7c3b9256107b636610aed565b929193906107c2610c57565b6040519384526001600160a01b03908116941692a3005b346101ba5760003660031901126101ba5760206107f4610c9e565b604051908152f35b346101ba5760003660031901126101ba57602060405160128152f35b346101ba5760003660031901126101ba576020604051600080516020610f838339815191528152f35b346101ba5760207fddf252ad1be2c89b69c2b068fc378daa952ba7f163c4a11628f55a4df523b3ef6107b636610aed565b346101ba5761088036610aed565b604051630aed65f560e11b81523360048201526001600160a01b0393841660248201529183166044830152606482015290602090829060849082906000907f0000000000000000000000000000000000000000000000000000000000000000165af180156101c7576103fc57602060405160018152f35b346101ba5760003660031901126101ba576040516339370aa960e21b81523060048201526020816024817f00000000000000000000000000000000000000000000000000000000000000006001600160a01b03165afa80156101c75760009061018f57602090604051908152f35b346101ba5760403660031901126101ba576103b66020610983610ac1565b6040518093819263e1f21c6760e01b8352602435903360048501610c35565b346101ba5760003660031901126101ba5760405160006003546109c481610b27565b80845290600181169081156104da57506001146109eb576104778361046381850382610be4565b600360009081527fc2575a0e9e593c00f959f8c92f12db2869c3395a3b0502d05e2516446f71f85b939250905b808210610a3057509091508101602001610463610453565b919260018160209254838588010152019101909291610a18565b346101ba5760203660031901126101ba576004359063ffffffff60e01b82168092036101ba576020916301ffc9a760e01b148152f35b919082519283825260005b848110610aac575050826000602080949584010152601f8019910116010190565b80602080928401015182828601015201610a8b565b600435906001600160a01b03821682036101ba57565b602435906001600160a01b03821682036101ba57565b60609060031901126101ba576004356001600160a01b03811681036101ba57906024356001600160a01b03811681036101ba579060443590565b90600182811c92168015610b57575b6020831014610b4157565b634e487b7160e01b600052602260045260246000fd5b91607f1691610b36565b60009291815491610b7183610b27565b8083529260018116908115610bc75750600114610b8d57505050565b60009081526020812093945091925b838310610bad575060209250010190565b600181602092949394548385870101520191019190610b9c565b915050602093945060ff929192191683830152151560051b010190565b601f909101601f19168101906001600160401b03821190821017610c0757604052565b634e487b7160e01b600052604160045260246000fd5b908160209103126101ba575180151581036101ba5790565b6001600160a01b03918216815291166020820152604081019190915260600190565b7f00000000000000000000000000000000000000000000000000000000000000006001600160a01b03163303610c8957565b63089676d560e01b6000523360045260246000fd5b307f00000000000000000000000000000000000000000000000000000000000000006001600160a01b03161480610d91575b15610cf9577f000000000000000000000000000000000000000000000000000000000000000090565b60405160208101907f8b73c3c69bb8fe3d512ecc4cf759cc79239f7b179b0ffacaa9a75d522b39400f82527f000000000000000000000000000000000000000000000000000000000000000060408201527f000000000000000000000000000000000000000000000000000000000000000060608201524660808201523060a082015260a08152610d8b60c082610be4565b51902090565b507f00000000000000000000000000000000000000000000000000000000000000004614610cd0565b6001600160a01b0316600090815260026020526040902080546001810190915590565b60ff8114610e275760ff811690601f8211610e16576040805192610e018285610be4565b6020808552840191601f190136833783525290565b632cd44ac360e21b60005260046000fd5b50604051610e4181610e3a816000610b61565b0382610be4565b90565b60ff8114610e685760ff811690601f8211610e16576040805192610e018285610be4565b50604051610e4181610e3a816001610b61565b91906fa2a8918ca85bafe22016d0b997e4df60600160ff1b038411610eee579160209360809260ff60009560405194855216868401526040830152606082015282805260015afa156101c7576000516001600160a01b03811615610ee25790600090600090565b50600090600190600090565b50505060009160039190565b9190916004811015610f6c5780610f1057509050565b600060018203610f2b5763f645eedf60e01b60005260046000fd5b5060028103610f49578263fce698f760e01b60005260045260246000fd5b9091600360009214610f59575050565b6335e2f38360e21b825260045260249150fd5b634e487b7160e01b600052602160045260246000fdfe6e71edae12b1b97f4d1f60370fef10105fa2faae0126114a169c64845d6126c9a26469706673582212208397634932fe46dc73bfa5a63c98f543d6c40500e2ee582a0cbdd014bdbe257864736f6c634300081a0033",
  "linkReferences": {},
  "deployedLinkReferences": {}
}