{
  "_format": "hh-sol-artifact-1",
  "contractName": "VaultFactory",
  "sourceName": "contracts/_VaultFactory.sol",
  "abi": [
    {
      "inputs": [
        {
          "internalType": "contract IAuthorizer",
          "name": "authorizer",
          "type": "address"
        },
        {
          "internalType": "uint32",
          "name": "pauseWindowDuration",
          "type": "uint32"
        },
        {
          "internalType": "uint32",
          "name": "bufferPeriodDuration",
          "type": "uint32"
        },
        {
          "internalType": "uint256",
          "name": "minTradeAmount",
          "type": "uint256"
        },
        {
          "internalType": "uint256",
          "name": "minWrapAmount",
          "type": "uint256"
        },
        {
          "internalType": "bytes32",
          "name": "vaultCreationCodeHash_",
          "type": "bytes32"
        },
        {
          "internalType": "bytes32",
          "name": "vaultExtensionCreationCodeHash_",
          "type": "bytes32"
        },
        {
          "internalType": "bytes32",
          "name": "vaultAdminCreationCodeHash_",
          "type": "bytes32"
        }
      ],
      "stateMutability": "nonpayable",
      "type": "constructor"
    },
    {
      "inputs": [],
      "name": "Create2EmptyBytecode",
      "type": "error"
    },
    {
      "inputs": [],
      "name": "FailedDeployment",
      "type": "error"
    },
    {
      "inputs": [
        {
          "internalType": "uint256",
          "name": "balance",
          "type": "uint256"
        },
        {
          "internalType": "uint256",
          "name": "needed",
          "type": "uint256"
        }
      ],
      "name": "InsufficientBalance",
      "type": "error"
    },
    {
      "inputs": [
        {
          "internalType": "string",
          "name": "contractName",
          "type": "string"
        }
      ],
      "name": "InvalidBytecode",
      "type": "error"
    },
    {
      "inputs": [],
      "name": "InvalidProtocolFeeController",
      "type": "error"
    },
    {
      "inputs": [
        {
          "internalType": "address",
          "name": "owner",
          "type": "address"
        }
      ],
      "name": "OwnableInvalidOwner",
      "type": "error"
    },
    {
      "inputs": [
        {
          "internalType": "address",
          "name": "account",
          "type": "address"
        }
      ],
      "name": "OwnableUnauthorizedAccount",
      "type": "error"
    },
    {
      "inputs": [],
      "name": "ReentrancyGuardReentrantCall",
      "type": "error"
    },
    {
      "inputs": [],
      "name": "VaultAddressMismatch",
      "type": "error"
    },
    {
      "inputs": [
        {
          "internalType": "address",
          "name": "vault",
          "type": "address"
        }
      ],
      "name": "VaultAlreadyDeployed",
      "type": "error"
    },
    {
      "anonymous": false,
      "inputs": [
        {
          "indexed": true,
          "internalType": "address",
          "name": "previousOwner",
          "type": "address"
        },
        {
          "indexed": true,
          "internalType": "address",
          "name": "newOwner",
          "type": "address"
        }
      ],
      "name": "OwnershipTransferStarted",
      "type": "event"
    },
    {
      "anonymous": false,
      "inputs": [
        {
          "indexed": true,
          "internalType": "address",
          "name": "previousOwner",
          "type": "address"
        },
        {
          "indexed": true,
          "internalType": "address",
          "name": "newOwner",
          "type": "address"
        }
      ],
      "name": "OwnershipTransferred",
      "type": "event"
    },
    {
      "anonymous": false,
      "inputs": [
        {
          "indexed": false,
          "internalType": "address",
          "name": "vault",
          "type": "address"
        }
      ],
      "name": "VaultCreated",
      "type": "event"
    },
    {
      "inputs": [],
      "name": "acceptOwnership",
      "outputs": [],
      "stateMutability": "nonpayable",
      "type": "function"
    },
    {
      "inputs": [
        {
          "internalType": "bytes32",
          "name": "salt",
          "type": "bytes32"
        },
        {
          "internalType": "address",
          "name": "targetAddress",
          "type": "address"
        },
        {
          "internalType": "contract IProtocolFeeController",
          "name": "protocolFeeController",
          "type": "address"
        },
        {
          "internalType": "bytes",
          "name": "vaultCreationCode",
          "type": "bytes"
        },
        {
          "internalType": "bytes",
          "name": "vaultExtensionCreationCode",
          "type": "bytes"
        },
        {
          "internalType": "bytes",
          "name": "vaultAdminCreationCode",
          "type": "bytes"
        }
      ],
      "name": "create",
      "outputs": [],
      "stateMutability": "nonpayable",
      "type": "function"
    },
    {
      "inputs": [
        {
          "internalType": "address",
          "name": "vaultAddress",
          "type": "address"
        }
      ],
      "name": "deployedVaultAdmins",
      "outputs": [
        {
          "internalType": "contract VaultAdmin",
          "name": "",
          "type": "address"
        }
      ],
      "stateMutability": "view",
      "type": "function"
    },
    {
      "inputs": [
        {
          "internalType": "address",
          "name": "vaultAddress",
          "type": "address"
        }
      ],
      "name": "deployedVaultExtensions",
      "outputs": [
        {
          "internalType": "contract VaultExtension",
          "name": "",
          "type": "address"
        }
      ],
      "stateMutability": "view",
      "type": "function"
    },
    {
      "inputs": [
        {
          "internalType": "bytes32",
          "name": "salt",
          "type": "bytes32"
        }
      ],
      "name": "getDeploymentAddress",
      "outputs": [
        {
          "internalType": "address",
          "name": "",
          "type": "address"
        }
      ],
      "stateMutability": "view",
      "type": "function"
    },
    {
      "inputs": [
        {
          "internalType": "address",
          "name": "vaultAddress",
          "type": "address"
        }
      ],
      "name": "isDeployed",
      "outputs": [
        {
          "internalType": "bool",
          "name": "deployed",
          "type": "bool"
        }
      ],
      "stateMutability": "view",
      "type": "function"
    },
    {
      "inputs": [],
      "name": "owner",
      "outputs": [
        {
          "internalType": "address",
          "name": "",
          "type": "address"
        }
      ],
      "stateMutability": "view",
      "type": "function"
    },
    {
      "inputs": [],
      "name": "pendingOwner",
      "outputs": [
        {
          "internalType": "address",
          "name": "",
          "type": "address"
        }
      ],
      "stateMutability": "view",
      "type": "function"
    },
    {
      "inputs": [],
      "name": "renounceOwnership",
      "outputs": [],
      "stateMutability": "nonpayable",
      "type": "function"
    },
    {
      "inputs": [
        {
          "internalType": "address",
          "name": "newOwner",
          "type": "address"
        }
      ],
      "name": "transferOwnership",
      "outputs": [],
      "stateMutability": "nonpayable",
      "type": "function"
    },
    {
      "inputs": [],
      "name": "vaultAdminCreationCodeHash",
      "outputs": [
        {
          "internalType": "bytes32",
          "name": "",
          "type": "bytes32"
        }
      ],
      "stateMutability": "view",
      "type": "function"
    },
    {
      "inputs": [],
      "name": "vaultCreationCodeHash",
      "outputs": [
        {
          "internalType": "bytes32",
          "name": "",
          "type": "bytes32"
        }
      ],
      "stateMutability": "view",
      "type": "function"
    },
    {
      "inputs": [],
      "name": "vaultExtensionCreationCodeHash",
      "outputs": [
        {
          "internalType": "bytes32",
          "name": "",
          "type": "bytes32"
        }
      ],
      "stateMutability": "view",
      "type": "function"
    }
  ],
  "bytecode": "0x6101803461017c57601f610dad38819003918201601f19168301916001600160401b03831184841017610180578084926101009460405283398101031261017c5780516001600160a01b038116810361017c5761005e60208301610194565b61006a60408401610194565b60608401519160808501519360a08601519560e060c0820151910151331561016957600180546001600160a01b03199081169091555f805433928116831782556040519a92916001600160a01b03909116907f8be0079c531659141344cd1fd0a4f28419497f9722a3daafe3b4186f6b6457e09080a360805260a05260c05260e05261010052610120526101405261016052610c0790816101a6823960805181818161038c015261087e015260a05181818161019b01526103f3015260c0518181816101d5015261045e015260e05181610638015261010051816104c2015261012051816104ee015261014051816105150152610160518161053b0152f35b631e4fbdf760e01b5f525f60045260245ffd5b5f80fd5b634e487b7160e01b5f52604160045260245ffd5b519063ffffffff8216820361017c5756fe60806040526004361015610011575f80fd5b5f3560e01c8063337d401014610963578063715018a61461091357806379ba5097146108a15780638108101a146108675780638b79f6bb1461029c5780638da5cb5b146102755780638fb027e31461023557806390184b02146101f8578063a65be7d0146101be578063cfa4dd8d14610184578063d1b76f8714610144578063e30c39781461011c5763f2fde38b146100a8575f80fd5b34610118576020366003190112610118576100c1610994565b6100c9610a5f565b600180546001600160a01b0319166001600160a01b039283169081179091555f8054919291909116907f38d16b8cac22d99fc7c124b9cd0de2d3fa1faef420bfe791d8c362d765e227009080a3005b5f80fd5b34610118575f366003190112610118576001546040516001600160a01b039091168152602090f35b34610118576020366003190112610118576001600160a01b03610165610994565b165f526002602052602060018060a01b0360405f205416604051908152f35b34610118575f3660031901126101185760206040517f00000000000000000000000000000000000000000000000000000000000000008152f35b34610118575f3660031901126101185760206040517f00000000000000000000000000000000000000000000000000000000000000008152f35b34610118576020366003190112610118576001600160a01b03610219610994565b165f526004602052602060ff60405f2054166040519015158152f35b34610118576020366003190112610118576001600160a01b03610256610994565b165f526003602052602060018060a01b0360405f205416604051908152f35b34610118575f366003190112610118575f546040516001600160a01b039091168152602090f35b346101185760c0366003190112610118576024356001600160a01b0381169060043590829003610118576044356001600160a01b0381169190829003610118576064356001600160401b038111610118576102fb9036906004016109aa565b9091906084356001600160401b0381116101185761031d9036906004016109aa565b90919060a4356001600160401b0381116101185761033f9036906004016109aa565b61034a929192610a5f565b5f80516020610bb28339815191525180546108585760019055885f52600460205260ff60405f20541661084557610382368589610a29565b80516020909101207f0000000000000000000000000000000000000000000000000000000000000000146103de576040516363fa3cb760e11b815260206004820152600560248201526415985d5b1d60da1b6044820152606490fd5b6103e9368285610a29565b80516020909101207f00000000000000000000000000000000000000000000000000000000000000001461044a576040516363fa3cb760e11b815260206004820152600a6024820152692b30bab63a20b236b4b760b11b6044820152606490fd5b610455368387610a29565b602081519101207f00000000000000000000000000000000000000000000000000000000000000000361080e576001600160a01b036104943088610af5565b16890361076b5787156107ff576106a09460206105ef9261059b8296838e60405182810191825263ffffffff7f000000000000000000000000000000000000000000000000000000000000000016604082015263ffffffff7f00000000000000000000000000000000000000000000000000000000000000001660608201527f000000000000000000000000000000000000000000000000000000000000000060808201527f000000000000000000000000000000000000000000000000000000000000000060a082015260a0815261056e60c0826109d7565b8560405196879585870137840190838201905f8252519283915e01015f815203601f1981018352826109d7565b6001600160a01b03906105ae908a610a72565b168b5f526003825260405f2060018060a01b03821660018060a01b0319825416179055604051828101918d835260408201526040815261056e6060826109d7565b6001600160a01b03906106029086610a72565b16875f526002825260405f2060018060a01b03821660018060a01b03198254161790556040519682880191825260018060a01b037f00000000000000000000000000000000000000000000000000000000000000001660408901526060880152606087526106716080886109d7565b60405196838894848601988937840190838201905f8252519283915e01015f815203601f1981018552846109d7565b806106a9610ac7565b6020815191015ff56001600160a01b038116156107c6575f92836106cf81943090610af5565b9551925af13d156107c1573d6106e481610a0e565b906106f260405192836109d7565b81525f60203d92013e5b806107b7575b1561077a576001600160a01b031681900361076b577f2e49a5810fda2439a23771848b4acec786b0a64d4de3d124ac57fc8739c388756020604051838152a15f908152600460205260408120805460ff191660011790555f80516020610bb28339815191525155005b63b4c1be7b60e01b5f5260045ffd5b60405162461bcd60e51b815260206004820152601560248201527412539255125053125690551253d397d19052531151605a1b6044820152606490fd5b50803b1515610702565b6106fc565b60405162461bcd60e51b81526020600482015260116024820152701111541313d65351539517d19052531151607a1b6044820152606490fd5b63d8b6cbcf60e01b5f5260045ffd5b6040516363fa3cb760e11b815260206004820152600e60248201526d2b30bab63a22bc3a32b739b4b7b760911b6044820152606490fd5b8863e254a88b60e01b5f5260045260245ffd5b633ee5aeb560e01b5f5260045ffd5b34610118575f3660031901126101185760206040517f00000000000000000000000000000000000000000000000000000000000000008152f35b34610118575f36600319011261011857600154336001600160a01b039091160361090057600180546001600160a01b03199081169091555f805433928116831782556001600160a01b0316905f80516020610b928339815191529080a3005b63118cdaa760e01b5f523360045260245ffd5b34610118575f3660031901126101185761092b610a5f565b600180546001600160a01b03199081169091555f80549182168155906001600160a01b03165f80516020610b928339815191528280a3005b3461011857602036600319011261011857602061098230600435610af5565b6040516001600160a01b039091168152f35b600435906001600160a01b038216820361011857565b9181601f84011215610118578235916001600160401b038311610118576020838186019501011161011857565b601f909101601f19168101906001600160401b038211908210176109fa57604052565b634e487b7160e01b5f52604160045260245ffd5b6001600160401b0381116109fa57601f01601f191660200190565b929192610a3582610a0e565b91610a4360405193846109d7565b829481845281830111610118578281602093845f960137010152565b5f546001600160a01b0316330361090057565b90805115610ab8576020815191015ff5903d1519821516610aad576001600160a01b03821615610a9e57565b63b06ebf3d60e01b5f5260045ffd5b6040513d5f823e3d90fd5b631328927760e21b5f5260045ffd5b60405190610ad66040836109d7565b601082526f67363d3d37363d34f03d5260086018f360801b6020830152565b610afd610ac7565b6020815191012060405191602083019360ff60f81b855260018060601b03199060601b1660218401526035830152605582015260558152610b3f6075826109d7565b5190206040516135a560f21b6020820190815260609290921b6001600160601b0319166022820152600160f81b60368201526017815290610b816037836109d7565b905190206001600160a01b03169056fe8be0079c531659141344cd1fd0a4f28419497f9722a3daafe3b4186f6b6457e09b779b17422d0df92223018b32b4d1fa46e071723d6817e2486d003becc55f00a26469706673582212202c3a4acae0ecd35c279a2a233d2bce2d77ec3aa6167223cb6e4dcc2fbac2003a64736f6c634300081a0033",
  "linkReferences": {},
  "deployedLinkReferences": {}
}