{
  "_format": "hh-sol-artifact-1",
  "contractName": "VaultFactory",
  "sourceName": "contracts/_VaultFactory.sol",
  "abi": [
    {
      "inputs": [
        {
          "internalType": "contract IAuthorizer",
          "name": "authorizer",
          "type": "address"
        },
        {
          "internalType": "uint32",
          "name": "pauseWindowDuration",
          "type": "uint32"
        },
        {
          "internalType": "uint32",
          "name": "bufferPeriodDuration",
          "type": "uint32"
        },
        {
          "internalType": "uint256",
          "name": "minTradeAmount",
          "type": "uint256"
        },
        {
          "internalType": "uint256",
          "name": "minWrapAmount",
          "type": "uint256"
        },
        {
          "internalType": "bytes32",
          "name": "vaultCreationCodeHash_",
          "type": "bytes32"
        },
        {
          "internalType": "bytes32",
          "name": "vaultExtensionCreationCodeHash_",
          "type": "bytes32"
        },
        {
          "internalType": "bytes32",
          "name": "vaultAdminCreationCodeHash_",
          "type": "bytes32"
        }
      ],
      "stateMutability": "nonpayable",
      "type": "constructor"
    },
    {
      "inputs": [],
      "name": "Create2EmptyBytecode",
      "type": "error"
    },
    {
      "inputs": [],
      "name": "FailedDeployment",
      "type": "error"
    },
    {
      "inputs": [
        {
          "internalType": "uint256",
          "name": "balance",
          "type": "uint256"
        },
        {
          "internalType": "uint256",
          "name": "needed",
          "type": "uint256"
        }
      ],
      "name": "InsufficientBalance",
      "type": "error"
    },
    {
      "inputs": [
        {
          "internalType": "string",
          "name": "contractName",
          "type": "string"
        }
      ],
      "name": "InvalidBytecode",
      "type": "error"
    },
    {
      "inputs": [],
      "name": "InvalidProtocolFeeController",
      "type": "error"
    },
    {
      "inputs": [
        {
          "internalType": "address",
          "name": "owner",
          "type": "address"
        }
      ],
      "name": "OwnableInvalidOwner",
      "type": "error"
    },
    {
      "inputs": [
        {
          "internalType": "address",
          "name": "account",
          "type": "address"
        }
      ],
      "name": "OwnableUnauthorizedAccount",
      "type": "error"
    },
    {
      "inputs": [],
      "name": "ReentrancyGuardReentrantCall",
      "type": "error"
    },
    {
      "inputs": [],
      "name": "VaultAddressMismatch",
      "type": "error"
    },
    {
      "inputs": [
        {
          "internalType": "address",
          "name": "vault",
          "type": "address"
        }
      ],
      "name": "VaultAlreadyDeployed",
      "type": "error"
    },
    {
      "anonymous": false,
      "inputs": [
        {
          "indexed": true,
          "internalType": "address",
          "name": "previousOwner",
          "type": "address"
        },
        {
          "indexed": true,
          "internalType": "address",
          "name": "newOwner",
          "type": "address"
        }
      ],
      "name": "OwnershipTransferStarted",
      "type": "event"
    },
    {
      "anonymous": false,
      "inputs": [
        {
          "indexed": true,
          "internalType": "address",
          "name": "previousOwner",
          "type": "address"
        },
        {
          "indexed": true,
          "internalType": "address",
          "name": "newOwner",
          "type": "address"
        }
      ],
      "name": "OwnershipTransferred",
      "type": "event"
    },
    {
      "anonymous": false,
      "inputs": [
        {
          "indexed": false,
          "internalType": "address",
          "name": "vault",
          "type": "address"
        }
      ],
      "name": "VaultCreated",
      "type": "event"
    },
    {
      "inputs": [],
      "name": "acceptOwnership",
      "outputs": [],
      "stateMutability": "nonpayable",
      "type": "function"
    },
    {
      "inputs": [
        {
          "internalType": "bytes32",
          "name": "salt",
          "type": "bytes32"
        },
        {
          "internalType": "address",
          "name": "targetAddress",
          "type": "address"
        },
        {
          "internalType": "contract IProtocolFeeController",
          "name": "protocolFeeController",
          "type": "address"
        },
        {
          "internalType": "bytes",
          "name": "vaultCreationCode",
          "type": "bytes"
        },
        {
          "internalType": "bytes",
          "name": "vaultExtensionCreationCode",
          "type": "bytes"
        },
        {
          "internalType": "bytes",
          "name": "vaultAdminCreationCode",
          "type": "bytes"
        }
      ],
      "name": "create",
      "outputs": [],
      "stateMutability": "nonpayable",
      "type": "function"
    },
    {
      "inputs": [
        {
          "internalType": "address",
          "name": "vaultAddress",
          "type": "address"
        }
      ],
      "name": "deployedVaultAdmins",
      "outputs": [
        {
          "internalType": "contract VaultAdmin",
          "name": "",
          "type": "address"
        }
      ],
      "stateMutability": "view",
      "type": "function"
    },
    {
      "inputs": [
        {
          "internalType": "address",
          "name": "vaultAddress",
          "type": "address"
        }
      ],
      "name": "deployedVaultExtensions",
      "outputs": [
        {
          "internalType": "contract VaultExtension",
          "name": "",
          "type": "address"
        }
      ],
      "stateMutability": "view",
      "type": "function"
    },
    {
      "inputs": [
        {
          "internalType": "bytes32",
          "name": "salt",
          "type": "bytes32"
        }
      ],
      "name": "getDeploymentAddress",
      "outputs": [
        {
          "internalType": "address",
          "name": "",
          "type": "address"
        }
      ],
      "stateMutability": "view",
      "type": "function"
    },
    {
      "inputs": [
        {
          "internalType": "address",
          "name": "vaultAddress",
          "type": "address"
        }
      ],
      "name": "isDeployed",
      "outputs": [
        {
          "internalType": "bool",
          "name": "deployed",
          "type": "bool"
        }
      ],
      "stateMutability": "view",
      "type": "function"
    },
    {
      "inputs": [],
      "name": "owner",
      "outputs": [
        {
          "internalType": "address",
          "name": "",
          "type": "address"
        }
      ],
      "stateMutability": "view",
      "type": "function"
    },
    {
      "inputs": [],
      "name": "pendingOwner",
      "outputs": [
        {
          "internalType": "address",
          "name": "",
          "type": "address"
        }
      ],
      "stateMutability": "view",
      "type": "function"
    },
    {
      "inputs": [],
      "name": "renounceOwnership",
      "outputs": [],
      "stateMutability": "nonpayable",
      "type": "function"
    },
    {
      "inputs": [
        {
          "internalType": "address",
          "name": "newOwner",
          "type": "address"
        }
      ],
      "name": "transferOwnership",
      "outputs": [],
      "stateMutability": "nonpayable",
      "type": "function"
    },
    {
      "inputs": [],
      "name": "vaultAdminCreationCodeHash",
      "outputs": [
        {
          "internalType": "bytes32",
          "name": "",
          "type": "bytes32"
        }
      ],
      "stateMutability": "view",
      "type": "function"
    },
    {
      "inputs": [],
      "name": "vaultCreationCodeHash",
      "outputs": [
        {
          "internalType": "bytes32",
          "name": "",
          "type": "bytes32"
        }
      ],
      "stateMutability": "view",
      "type": "function"
    },
    {
      "inputs": [],
      "name": "vaultExtensionCreationCodeHash",
      "outputs": [
        {
          "internalType": "bytes32",
          "name": "",
          "type": "bytes32"
        }
      ],
      "stateMutability": "view",
      "type": "function"
    }
  ],
  "bytecode": "0x6101803461018057601f610e2738819003918201601f19168301916001600160401b0383118484101761018557808492610100946040528339810103126101805780516001600160a01b03811681036101805761005e6020830161019b565b61006a6040840161019b565b60608401519160808501519360a08601519560e060c0820151910151331561016a57600180546001600160a01b03199081169091556000805433928116831782556040519a92916001600160a01b03909116907f8be0079c531659141344cd1fd0a4f28419497f9722a3daafe3b4186f6b6457e09080a360805260a05260c05260e05261010052610120526101405261016052610c7a90816101ad823960805181818161039f01526108b4015260a0518181816101a40152610406015260c0518181816101df0152610471015260e05181610667015261010051816104dc015261012051816105080152610140518161052f015261016051816105550152f35b631e4fbdf760e01b600052600060045260246000fd5b600080fd5b634e487b7160e01b600052604160045260246000fd5b519063ffffffff821682036101805756fe6080604052600436101561001257600080fd5b60003560e01c8063337d4010146109a1578063715018a61461094e57806379ba5097146108d75780638108101a1461089c5780638b79f6bb146102ac5780638da5cb5b146102835780638fb027e31461024157806390184b0214610202578063a65be7d0146101c7578063cfa4dd8d1461018c578063d1b76f871461014a578063e30c3978146101215763f2fde38b146100ab57600080fd5b3461011c57602036600319011261011c576100c46109d2565b6100cc610acb565b600180546001600160a01b0319166001600160a01b0392831690811790915560008054919291909116907f38d16b8cac22d99fc7c124b9cd0de2d3fa1faef420bfe791d8c362d765e227009080a3005b600080fd5b3461011c57600036600319011261011c576001546040516001600160a01b039091168152602090f35b3461011c57602036600319011261011c576001600160a01b0361016b6109d2565b166000526002602052602060018060a01b0360406000205416604051908152f35b3461011c57600036600319011261011c5760206040517f00000000000000000000000000000000000000000000000000000000000000008152f35b3461011c57600036600319011261011c5760206040517f00000000000000000000000000000000000000000000000000000000000000008152f35b3461011c57602036600319011261011c576001600160a01b036102236109d2565b166000526004602052602060ff604060002054166040519015158152f35b3461011c57602036600319011261011c576001600160a01b036102626109d2565b166000526003602052602060018060a01b0360406000205416604051908152f35b3461011c57600036600319011261011c576000546040516001600160a01b039091168152602090f35b3461011c5760c036600319011261011c576024356001600160a01b038116906004359082900361011c576044356001600160a01b038116919082900361011c576064356001600160401b03811161011c5761030b9036906004016109e8565b9091906084356001600160401b03811161011c5761032d9036906004016109e8565b90919060a4356001600160401b03811161011c5761034f9036906004016109e8565b96909161035a610acb565b600080516020610c2583398151915251805461088b576001905588600052600460205260ff6040600020541661087657610395368589610a69565b80516020909101207f0000000000000000000000000000000000000000000000000000000000000000146103f1576040516363fa3cb760e11b815260206004820152600560248201526415985d5b1d60da1b6044820152606490fd5b6103fc368985610a69565b80516020909101207f00000000000000000000000000000000000000000000000000000000000000001461045d576040516363fa3cb760e11b815260206004820152600a6024820152692b30bab63a20b236b4b760b11b6044820152606490fd5b610468368287610a69565b602081519101207f00000000000000000000000000000000000000000000000000000000000000000361083f576001600160a01b036104a73088610b68565b16890361079857811561082e5761061d6106c8956105a160209a6105af6106ba976105a18f60405190602082015263ffffffff7f000000000000000000000000000000000000000000000000000000000000000016604082015263ffffffff7f00000000000000000000000000000000000000000000000000000000000000001660608201527f000000000000000000000000000000000000000000000000000000000000000060808201527f000000000000000000000000000000000000000000000000000000000000000060a082015260a0815261058860c082610a15565b8f85604051968795838701378401019060008252610aa0565b03601f198101835282610a15565b6001600160a01b03906105c2908b610adf565b168c60005260038c52604060002060018060a01b03821660018060a01b0319825416179055604051908d8d830152604082015260408152610604606082610a15565b8b85604051968795838701378401019060008252610aa0565b6001600160a01b03906106309087610adf565b16908860005260028852604060002060018060a01b03831660018060a01b0319825416179055604051918883015260018060a01b037f00000000000000000000000000000000000000000000000000000000000000001660408301526060820152606081526106a0608082610a15565b604051968388948286019889378401019060008252610aa0565b03601f198101855284610a15565b806106d1610b3a565b6020815191016000f56001600160a01b038116156107f557600092836106f981943090610b68565b9551925af13d156107f0573d61070e81610a4e565b9061071c6040519283610a15565b8152600060203d92013e5b806107e6575b156107a9576001600160a01b0316819003610798577f2e49a5810fda2439a23771848b4acec786b0a64d4de3d124ac57fc8739c388756020604051838152a16000908152600460205260408120805460ff19166001179055600080516020610c258339815191525155005b63b4c1be7b60e01b60005260046000fd5b60405162461bcd60e51b815260206004820152601560248201527412539255125053125690551253d397d19052531151605a1b6044820152606490fd5b50803b151561072d565b610727565b60405162461bcd60e51b81526020600482015260116024820152701111541313d65351539517d19052531151607a1b6044820152606490fd5b63d8b6cbcf60e01b60005260046000fd5b6040516363fa3cb760e11b815260206004820152600e60248201526d2b30bab63a22bc3a32b739b4b7b760911b6044820152606490fd5b8863e254a88b60e01b60005260045260246000fd5b633ee5aeb560e01b60005260046000fd5b3461011c57600036600319011261011c5760206040517f00000000000000000000000000000000000000000000000000000000000000008152f35b3461011c57600036600319011261011c57600154336001600160a01b039091160361093957600180546001600160a01b03199081169091556000805433928116831782556001600160a01b031690600080516020610c058339815191529080a3005b63118cdaa760e01b6000523360045260246000fd5b3461011c57600036600319011261011c57610967610acb565b600180546001600160a01b0319908116909155600080549182168155906001600160a01b0316600080516020610c058339815191528280a3005b3461011c57602036600319011261011c5760206109c030600435610b68565b6040516001600160a01b039091168152f35b600435906001600160a01b038216820361011c57565b9181601f8401121561011c578235916001600160401b03831161011c576020838186019501011161011c57565b601f909101601f19168101906001600160401b03821190821017610a3857604052565b634e487b7160e01b600052604160045260246000fd5b6001600160401b038111610a3857601f01601f191660200190565b929192610a7582610a4e565b91610a836040519384610a15565b82948184528183011161011c578281602093846000960137010152565b9081519160005b838110610ab8575050016000815290565b8060208092840101518185015201610aa7565b6000546001600160a01b0316330361093957565b90805115610b29576020815191016000f5903d1519821516610b1d576001600160a01b03821615610b0c57565b63b06ebf3d60e01b60005260046000fd5b6040513d6000823e3d90fd5b631328927760e21b60005260046000fd5b60405190610b49604083610a15565b601082526f67363d3d37363d34f03d5260086018f360801b6020830152565b610b70610b3a565b6020815191012060405191602083019360ff60f81b855260018060601b03199060601b1660218401526035830152605582015260558152610bb2607582610a15565b5190206040516135a560f21b6020820190815260609290921b6001600160601b0319166022820152600160f81b60368201526017815290610bf4603783610a15565b905190206001600160a01b03169056fe8be0079c531659141344cd1fd0a4f28419497f9722a3daafe3b4186f6b6457e09b779b17422d0df92223018b32b4d1fa46e071723d6817e2486d003becc55f00a2646970667358221220531088277644b8ac29f2157505855e73e1bd3f9af0455d17ef1fdad3af8566bd64736f6c634300081a0033",
  "linkReferences": {},
  "deployedLinkReferences": {}
}