{
  "_format": "hh-sol-artifact-1",
  "contractName": "BaseSplitCodeFactory",
  "sourceName": "contracts/BaseSplitCodeFactory.sol",
  "abi": [
    {
      "inputs": [
        {
          "internalType": "bytes",
          "name": "creationCode",
          "type": "bytes"
        }
      ],
      "stateMutability": "nonpayable",
      "type": "constructor"
    },
    {
      "inputs": [],
      "name": "CodeDeploymentFailed",
      "type": "error"
    },
    {
      "inputs": [],
      "name": "getCreationCode",
      "outputs": [
        {
          "internalType": "bytes",
          "name": "",
          "type": "bytes"
        }
      ],
      "stateMutability": "view",
      "type": "function"
    },
    {
      "inputs": [],
      "name": "getCreationCodeContracts",
      "outputs": [
        {
          "internalType": "address",
          "name": "contractA",
          "type": "address"
        },
        {
          "internalType": "address",
          "name": "contractB",
          "type": "address"
        }
      ],
      "stateMutability": "view",
      "type": "function"
    }
  ],
  "bytecode": "0x610100604052346100eb576104dc8038038061001a81610106565b9283398101906020818303126100eb578051906001600160401b0382116100eb57019080601f830112156100eb5781516001600160401b0381116100f05761006b601f8201601f1916602001610106565b91818352602082850101116100eb5760005b8181106100d6576100968360006020858301015261012b565b6040516102d2908161020a823960805181818160f601526101f1015260a0518161017e015260c05181818161011b0152610216015260e051816101a00152f35b8060208092860101518282860101520161007d565b600080fd5b634e487b7160e01b600052604160045260246000fd5b6040519190601f01601f191682016001600160401b038111838210176100f057604052565b8051908160011c918260a052828103928184116101b15760e08490527f602038038060206000396000f3fefefefefefefefefefefefefefefefefefefe83528060208101846000f09084526001600160a01b038116156101a0576080528201918251938352610199836101c7565b60c0525252565b63fef8220760e01b60005260046000fd5b634e487b7160e01b600052601160045260246000fd5b907f60fe600053602038038060206001396001016000f3fefefefefefefefefefefe825190835260208101836000f092526001600160a01b038216156101a05756fe6080604052600436101561001257600080fd5b60003560e01c8062c194db146100365763174481fa1461003157600080fd5b6100d7565b3461008957600036600319011261008957604051602081016001600160401b038111828210176100845761008091610074916040526000815261017b565b6040519182918261008e565b0390f35b610142565b600080fd5b91909160208152825180602083015260005b8181106100c1575060409293506000838284010152601f8019910116010190565b80602080928701015160408286010152016100a0565b3461008957600036600319011261008957604080516001600160a01b037f0000000000000000000000000000000000000000000000000000000000000000811682527f0000000000000000000000000000000000000000000000000000000000000000166020820152f35b634e487b7160e01b600052604160045260246000fd5b9190820180921161016557565b634e487b7160e01b600052601160045260246000fd5b907f0000000000000000000000000000000000000000000000000000000000000000917f00000000000000000000000000000000000000000000000000000000000000006101c98185610158565b825191600160206101da8585610158565b976040519882818b01016040528952806000838b017f00000000000000000000000000000000000000000000000000000000000000003c8801017f00000000000000000000000000000000000000000000000000000000000000003c84019060005b8181106102495750505050565b602090818381830111610293575b82828701015190838110610273575b508282860101520161023c565b600160001991850360031b1b019081191690838387010151161738610266565b5080830361025756fea2646970667358221220f8e49dfc2915becfd57f8c97db244eb47f08a286e1747a20bfdd7851273dd17364736f6c634300081a0033",
  "linkReferences": {},
  "deployedLinkReferences": {}
}