{
  "_format": "hh-sol-artifact-1",
  "contractName": "BaseSplitCodeFactory",
  "sourceName": "contracts/BaseSplitCodeFactory.sol",
  "abi": [
    {
      "inputs": [
        {
          "internalType": "bytes",
          "name": "creationCode",
          "type": "bytes"
        }
      ],
      "stateMutability": "nonpayable",
      "type": "constructor"
    },
    {
      "inputs": [],
      "name": "CodeDeploymentFailed",
      "type": "error"
    },
    {
      "inputs": [],
      "name": "getCreationCode",
      "outputs": [
        {
          "internalType": "bytes",
          "name": "",
          "type": "bytes"
        }
      ],
      "stateMutability": "view",
      "type": "function"
    },
    {
      "inputs": [],
      "name": "getCreationCodeContracts",
      "outputs": [
        {
          "internalType": "address",
          "name": "contractA",
          "type": "address"
        },
        {
          "internalType": "address",
          "name": "contractB",
          "type": "address"
        }
      ],
      "stateMutability": "view",
      "type": "function"
    }
  ],
  "bytecode": "0x610100604052346100d15761048c8038038061001a816100e9565b9283398101906020818303126100d1578051906001600160401b0382116100d157019080601f830112156100d15781516001600160401b0381116100d55761006b601f8201601f19166020016100e9565b91818352602082850101116100d1576020815f928261009296018386015e8301015261010e565b6040516102a590816101e7823960805181818160d001526101c6015260a05181610154015260c05181818160f501526101eb015260e051816101760152f35b5f80fd5b634e487b7160e01b5f52604160045260245ffd5b6040519190601f01601f191682016001600160401b038111838210176100d557604052565b8051908160011c918260a052828103928184116101915760e08490527f602038038060206000396000f3fefefefefefefefefefefefefefefefefefefe83528060208101845ff09084526001600160a01b0381161561018257608052820191825193835261017b836101a5565b60c0525252565b63fef8220760e01b5f5260045ffd5b634e487b7160e01b5f52601160045260245ffd5b907f60fe600053602038038060206001396001016000f3fefefefefefefefefefefe825190835260208101835ff092526001600160a01b038216156101825756fe60806040526004361015610011575f80fd5b5f3560e01c8062c194db146100335763174481fa1461002e575f80fd5b6100b2565b34610084575f36600319011261008457604051602081016001600160401b0381118282101761007f5761007b9161006f916040525f8152610151565b60405191829182610088565b0390f35b61011c565b5f80fd5b602060409281835280519182918282860152018484015e5f828201840152601f01601f1916010190565b34610084575f36600319011261008457604080516001600160a01b037f0000000000000000000000000000000000000000000000000000000000000000811682527f0000000000000000000000000000000000000000000000000000000000000000166020820152f35b634e487b7160e01b5f52604160045260245ffd5b9190820180921161013d57565b634e487b7160e01b5f52601160045260245ffd5b907f0000000000000000000000000000000000000000000000000000000000000000917f000000000000000000000000000000000000000000000000000000000000000061019f8185610130565b825191600160206101b08585610130565b976040519882818b01016040528952805f838b017f00000000000000000000000000000000000000000000000000000000000000003c8801017f00000000000000000000000000000000000000000000000000000000000000003c8401905f5b81811061021d5750505050565b602090818381830111610266575b82828701015190838110610247575b5082828601015201610210565b60015f1991850360031b1b01908119169083838701015116175f61023a565b5080830361022b56fea2646970667358221220fffb87e594c15f31eb28e4f410ef2576cdabfda30ab06ee1220d4f5704fc6a3164736f6c634300081a0033",
  "linkReferences": {},
  "deployedLinkReferences": {}
}