{
  "_format": "hh-sol-artifact-1",
  "contractName": "Version",
  "sourceName": "contracts/Version.sol",
  "abi": [
    {
      "inputs": [
        {
          "internalType": "string",
          "name": "version_",
          "type": "string"
        }
      ],
      "stateMutability": "nonpayable",
      "type": "constructor"
    },
    {
      "inputs": [],
      "name": "version",
      "outputs": [
        {
          "internalType": "string",
          "name": "",
          "type": "string"
        }
      ],
      "stateMutability": "view",
      "type": "function"
    }
  ],
  "bytecode": "0x60806040523461021d576103fd8038038061001981610222565b92833981019060208183031261021d578051906001600160401b03821161021d570181601f8201121561021d578051906001600160401b0382116101f25761006a601f8301601f1916602001610222565b928284526020838301011161021d5760005b82811061020857600083850160200152835184906001600160401b0381116101f257600054600181811c911680156101e8575b60208210146101d257601f811161016e575b50602091601f821160011461010b57918192600092610100575b50508160011b916000199060031b1c1916176000555b6040516101b590816102488239f35b0151905082806100db565b601f1982169260008052806000209160005b8581106101565750836001951061013d575b505050811b016000556100f1565b015160001960f88460031b161c1916905582808061012f565b9192602060018192868501518155019401920161011d565b600080527f290decd9548b62a8d60345a988386fc84ba6bc95484008f6362f93160ef3e563601f830160051c810191602084106101c8575b601f0160051c01905b8181106101bc57506100c1565b600081556001016101af565b90915081906101a6565b634e487b7160e01b600052602260045260246000fd5b90607f16906100af565b634e487b7160e01b600052604160045260246000fd5b8060208092840101518282870101520161007c565b600080fd5b6040519190601f01601f191682016001600160401b038111838210176101f25760405256fe6080600436101561000f57600080fd5b60003560e01c6354fd4d501461002457600080fd5b3461017a57600036600319011261017a57600080548060011c90600181168015610170575b60208310811461015c5782855290811561014057506001146100eb575b50819003601f01601f19168101906001600160401b038211818310176100d55781604052602082528181519182602083015260005b8381106100bd5750508160006040809484010152601f80199101168101030190f35b6020828201810151604087840101528593500161009b565b634e487b7160e01b600052604160045260246000fd5b60008080529091507f290decd9548b62a8d60345a988386fc84ba6bc95484008f6362f93160ef3e5635b82821061012a57506020915082010138610066565b6001816020925483858801015201910190610115565b90506020925060ff191682840152151560051b82010138610066565b634e487b7160e01b84526022600452602484fd5b91607f1691610049565b600080fdfea26469706673582212204613662e676efa41fec0951618b1e53032db7f9aac452d34c5effb38925c173f64736f6c634300081a0033",
  "linkReferences": {},
  "deployedLinkReferences": {}
}