{
  "_format": "hh-sol-artifact-1",
  "contractName": "Version",
  "sourceName": "contracts/Version.sol",
  "abi": [
    {
      "inputs": [
        {
          "internalType": "string",
          "name": "version_",
          "type": "string"
        }
      ],
      "stateMutability": "nonpayable",
      "type": "constructor"
    },
    {
      "inputs": [],
      "name": "version",
      "outputs": [
        {
          "internalType": "string",
          "name": "",
          "type": "string"
        }
      ],
      "stateMutability": "view",
      "type": "function"
    }
  ],
  "bytecode": "0x6080604052346101f4576103ac80380380610019816101f8565b9283398101906020818303126101f4578051906001600160401b0382116101f4570181601f820112156101f4578051906001600160401b0382116101e05761006a601f8301601f19166020016101f8565b92828452602083830101116101f457815f9260208093018386015e8301015280516001600160401b0381116101e0575f54600181811c911680156101d6575b60208210146101c257601f8111610160575b50602091601f8211600114610102579181925f926100f7575b50508160011b915f199060031b1c1916175f555b60405161018e908161021e8239f35b015190505f806100d4565b601f198216925f8052805f20915f5b85811061014857508360019510610130575b505050811b015f556100e8565b01515f1960f88460031b161c191690555f8080610123565b91926020600181928685015181550194019201610111565b5f80527f290decd9548b62a8d60345a988386fc84ba6bc95484008f6362f93160ef3e563601f830160051c810191602084106101b8575b601f0160051c01905b8181106101ad57506100bb565b5f81556001016101a0565b9091508190610197565b634e487b7160e01b5f52602260045260245ffd5b90607f16906100a9565b634e487b7160e01b5f52604160045260245ffd5b5f80fd5b6040519190601f01601f191682016001600160401b038111838210176101e05760405256fe6080600436101561000e575f80fd5b5f3560e01c6354fd4d5014610021575f80fd5b34610154575f366003190112610154575f8054908160011c6001831692831561014a575b60208210841461013657818552602085019390811561011d57506001146100c9575b50829003601f01601f19168201916001600160401b038311818410176100b5576040918391828452602083525180918160208501528484015e5f828201840152601f01601f19168101030190f35b634e487b7160e01b5f52604160045260245ffd5b5f8080529091507f290decd9548b62a8d60345a988386fc84ba6bc95484008f6362f93160ef3e5635b8282106101075750602091508301015f610067565b60018160209254838589010152019101906100f2565b60ff1916845250151560051b830160200190505f610067565b634e487b7160e01b5f52602260045260245ffd5b90607f1690610045565b5f80fdfea26469706673582212206938fd770545434615b2c83c51142c46aa3217176a8fefaf7134d6d45600eb8f64736f6c634300081a0033",
  "linkReferences": {},
  "deployedLinkReferences": {}
}