{
  "_format": "hh-sol-artifact-1",
  "contractName": "PoolConfigConst",
  "sourceName": "contracts/PoolConfigConst.sol",
  "abi": [
    {
      "inputs": [],
      "name": "ADD_LIQUIDITY_CUSTOM_OFFSET",
      "outputs": [
        {
          "internalType": "uint8",
          "name": "",
          "type": "uint8"
        }
      ],
      "stateMutability": "view",
      "type": "function"
    },
    {
      "inputs": [],
      "name": "AFTER_ADD_LIQUIDITY_OFFSET",
      "outputs": [
        {
          "internalType": "uint8",
          "name": "",
          "type": "uint8"
        }
      ],
      "stateMutability": "view",
      "type": "function"
    },
    {
      "inputs": [],
      "name": "AFTER_INITIALIZE_OFFSET",
      "outputs": [
        {
          "internalType": "uint8",
          "name": "",
          "type": "uint8"
        }
      ],
      "stateMutability": "view",
      "type": "function"
    },
    {
      "inputs": [],
      "name": "AFTER_REMOVE_LIQUIDITY_OFFSET",
      "outputs": [
        {
          "internalType": "uint8",
          "name": "",
          "type": "uint8"
        }
      ],
      "stateMutability": "view",
      "type": "function"
    },
    {
      "inputs": [],
      "name": "AFTER_SWAP_OFFSET",
      "outputs": [
        {
          "internalType": "uint8",
          "name": "",
          "type": "uint8"
        }
      ],
      "stateMutability": "view",
      "type": "function"
    },
    {
      "inputs": [],
      "name": "AGGREGATE_SWAP_FEE_OFFSET",
      "outputs": [
        {
          "internalType": "uint256",
          "name": "",
          "type": "uint256"
        }
      ],
      "stateMutability": "view",
      "type": "function"
    },
    {
      "inputs": [],
      "name": "AGGREGATE_YIELD_FEE_OFFSET",
      "outputs": [
        {
          "internalType": "uint256",
          "name": "",
          "type": "uint256"
        }
      ],
      "stateMutability": "view",
      "type": "function"
    },
    {
      "inputs": [],
      "name": "BEFORE_ADD_LIQUIDITY_OFFSET",
      "outputs": [
        {
          "internalType": "uint8",
          "name": "",
          "type": "uint8"
        }
      ],
      "stateMutability": "view",
      "type": "function"
    },
    {
      "inputs": [],
      "name": "BEFORE_INITIALIZE_OFFSET",
      "outputs": [
        {
          "internalType": "uint8",
          "name": "",
          "type": "uint8"
        }
      ],
      "stateMutability": "view",
      "type": "function"
    },
    {
      "inputs": [],
      "name": "BEFORE_REMOVE_LIQUIDITY_OFFSET",
      "outputs": [
        {
          "internalType": "uint8",
          "name": "",
          "type": "uint8"
        }
      ],
      "stateMutability": "view",
      "type": "function"
    },
    {
      "inputs": [],
      "name": "BEFORE_SWAP_OFFSET",
      "outputs": [
        {
          "internalType": "uint8",
          "name": "",
          "type": "uint8"
        }
      ],
      "stateMutability": "view",
      "type": "function"
    },
    {
      "inputs": [],
      "name": "DECIMAL_DIFF_BITLENGTH",
      "outputs": [
        {
          "internalType": "uint8",
          "name": "",
          "type": "uint8"
        }
      ],
      "stateMutability": "view",
      "type": "function"
    },
    {
      "inputs": [],
      "name": "DECIMAL_SCALING_FACTORS_OFFSET",
      "outputs": [
        {
          "internalType": "uint256",
          "name": "",
          "type": "uint256"
        }
      ],
      "stateMutability": "view",
      "type": "function"
    },
    {
      "inputs": [],
      "name": "DONATION_OFFSET",
      "outputs": [
        {
          "internalType": "uint8",
          "name": "",
          "type": "uint8"
        }
      ],
      "stateMutability": "view",
      "type": "function"
    },
    {
      "inputs": [],
      "name": "DYNAMIC_SWAP_FEE_OFFSET",
      "outputs": [
        {
          "internalType": "uint8",
          "name": "",
          "type": "uint8"
        }
      ],
      "stateMutability": "view",
      "type": "function"
    },
    {
      "inputs": [],
      "name": "ENABLE_HOOK_ADJUSTED_AMOUNTS_OFFSET",
      "outputs": [
        {
          "internalType": "uint8",
          "name": "",
          "type": "uint8"
        }
      ],
      "stateMutability": "view",
      "type": "function"
    },
    {
      "inputs": [],
      "name": "PAUSE_WINDOW_END_TIME_OFFSET",
      "outputs": [
        {
          "internalType": "uint256",
          "name": "",
          "type": "uint256"
        }
      ],
      "stateMutability": "view",
      "type": "function"
    },
    {
      "inputs": [],
      "name": "POOL_INITIALIZED_OFFSET",
      "outputs": [
        {
          "internalType": "uint8",
          "name": "",
          "type": "uint8"
        }
      ],
      "stateMutability": "view",
      "type": "function"
    },
    {
      "inputs": [],
      "name": "POOL_PAUSED_OFFSET",
      "outputs": [
        {
          "internalType": "uint8",
          "name": "",
          "type": "uint8"
        }
      ],
      "stateMutability": "view",
      "type": "function"
    },
    {
      "inputs": [],
      "name": "POOL_RECOVERY_MODE_OFFSET",
      "outputs": [
        {
          "internalType": "uint8",
          "name": "",
          "type": "uint8"
        }
      ],
      "stateMutability": "view",
      "type": "function"
    },
    {
      "inputs": [],
      "name": "POOL_REGISTERED_OFFSET",
      "outputs": [
        {
          "internalType": "uint8",
          "name": "",
          "type": "uint8"
        }
      ],
      "stateMutability": "view",
      "type": "function"
    },
    {
      "inputs": [],
      "name": "REMOVE_LIQUIDITY_CUSTOM_OFFSET",
      "outputs": [
        {
          "internalType": "uint8",
          "name": "",
          "type": "uint8"
        }
      ],
      "stateMutability": "view",
      "type": "function"
    },
    {
      "inputs": [],
      "name": "STATIC_SWAP_FEE_OFFSET",
      "outputs": [
        {
          "internalType": "uint8",
          "name": "",
          "type": "uint8"
        }
      ],
      "stateMutability": "view",
      "type": "function"
    },
    {
      "inputs": [],
      "name": "TIMESTAMP_BITLENGTH",
      "outputs": [
        {
          "internalType": "uint8",
          "name": "",
          "type": "uint8"
        }
      ],
      "stateMutability": "view",
      "type": "function"
    },
    {
      "inputs": [],
      "name": "TOKEN_DECIMAL_DIFFS_BITLENGTH",
      "outputs": [
        {
          "internalType": "uint8",
          "name": "",
          "type": "uint8"
        }
      ],
      "stateMutability": "view",
      "type": "function"
    },
    {
      "inputs": [],
      "name": "UNBALANCED_LIQUIDITY_OFFSET",
      "outputs": [
        {
          "internalType": "uint8",
          "name": "",
          "type": "uint8"
        }
      ],
      "stateMutability": "view",
      "type": "function"
    }
  ],
  "bytecode": "0x608080604052346019576104f8908161001e823930815050f35b5f80fdfe60806040526004361015610011575f80fd5b5f3560e01c80631294794b14610422578063185186281461040c57806328b161ce146103f65780632d6724e1146103df5780633dc52c43146103ca5780633f60345a146103a3578063547acb16146103825780636801b4421461036d57806368aa2524146103445780637e3edbf1146103295780637ea0cde91461031357806380b1c55b146102ef57806384efbfd5146102c5578063a22425b6146102b0578063aa6cda9114610292578063af815f0414610267578063b2cb247c1461024f578063bc8487691461022e578063bdefaf7114610216578063d982721714610201578063d9cebbd9146101e4578063dde7b13f146101c9578063df9d385b146101b4578063e2ce6c6c14610196578063fab86870146101725763fd5da01014610137575f80fd5b5f36600319011261016e57602061016361015e61015e61015e61015e61015e61015e610459565b610437565b60ff60405191168152f35b5f80fd5b5f36600319011261016e57602061016361015e61015e61015e61015e61015e610449565b5f36600319011261016e57602061016361015e61015e61015e610449565b5f36600319011261016e576020604051818152f35b5f36600319011261016e57602061016361015e61015e610459565b5f36600319011261016e5760206101f96104a4565b604051908152f35b5f36600319011261016e576020610163610449565b5f36600319011261016e57602061016361015e610459565b5f36600319011261016e57602061016361015e61015e61015e61015e610459565b5f36600319011261016e57602061016361015e610449565b5f36600319011261016e5760405160028152602090f35b634e487b7160e01b5f52601160045260245ffd5b5f36600319011261016e57602061016361015e61015e61015e610459565b5f36600319011261016e576020610163610459565b5f36600319011261016e57602061016361015e61015e61015e61015e61015e61015e61015e610449565b5f36600319011261016e57602061016361015e61015e61015e61015e61015e610459565b5f36600319011261016e57602060405160288152f35b5f36600319011261016e57602061016361015e61015e610449565b5f36600319011261016e576103576104ba565b6028810180911161027e57602090604051908152f35b5f36600319011261016e5760206040515f8152f35b5f36600319011261016e57602061016361015e61015e61015e61015e610449565b5f36600319011261016e57602061016361015e61015e61015e61015e61015e61015e610449565b5f36600319011261016e5760206101f96104ba565b5f36600319011261016e5760206101636002610437565b5f36600319011261016e57602060405160058152f35b5f36600319011261016e57602060405160018152f35b5f36600319011261016e5760206101f9610479565b60ff60019116019060ff821161027e57565b61045661015e6002610437565b90565b61045661015e61015e61015e61015e61015e61015e61015e61015e610449565b60ff61049561015e61015e61015e61015e61015e61015e610459565b166018810180911161027e5790565b6104ac610479565b6018810180911161027e5790565b6104ac6104a456fea26469706673582212204260245b42769015b4e7599aed4d964c36fa5eef01b93d04ac23f1d6fcb5059064736f6c634300081a0033",
  "linkReferences": {},
  "deployedLinkReferences": {}
}