{
  "_format": "hh-sol-artifact-1",
  "contractName": "PoolConfigConst",
  "sourceName": "contracts/PoolConfigConst.sol",
  "abi": [
    {
      "inputs": [],
      "name": "ADD_LIQUIDITY_CUSTOM_OFFSET",
      "outputs": [
        {
          "internalType": "uint8",
          "name": "",
          "type": "uint8"
        }
      ],
      "stateMutability": "view",
      "type": "function"
    },
    {
      "inputs": [],
      "name": "AFTER_ADD_LIQUIDITY_OFFSET",
      "outputs": [
        {
          "internalType": "uint8",
          "name": "",
          "type": "uint8"
        }
      ],
      "stateMutability": "view",
      "type": "function"
    },
    {
      "inputs": [],
      "name": "AFTER_INITIALIZE_OFFSET",
      "outputs": [
        {
          "internalType": "uint8",
          "name": "",
          "type": "uint8"
        }
      ],
      "stateMutability": "view",
      "type": "function"
    },
    {
      "inputs": [],
      "name": "AFTER_REMOVE_LIQUIDITY_OFFSET",
      "outputs": [
        {
          "internalType": "uint8",
          "name": "",
          "type": "uint8"
        }
      ],
      "stateMutability": "view",
      "type": "function"
    },
    {
      "inputs": [],
      "name": "AFTER_SWAP_OFFSET",
      "outputs": [
        {
          "internalType": "uint8",
          "name": "",
          "type": "uint8"
        }
      ],
      "stateMutability": "view",
      "type": "function"
    },
    {
      "inputs": [],
      "name": "AGGREGATE_SWAP_FEE_OFFSET",
      "outputs": [
        {
          "internalType": "uint256",
          "name": "",
          "type": "uint256"
        }
      ],
      "stateMutability": "view",
      "type": "function"
    },
    {
      "inputs": [],
      "name": "AGGREGATE_YIELD_FEE_OFFSET",
      "outputs": [
        {
          "internalType": "uint256",
          "name": "",
          "type": "uint256"
        }
      ],
      "stateMutability": "view",
      "type": "function"
    },
    {
      "inputs": [],
      "name": "BEFORE_ADD_LIQUIDITY_OFFSET",
      "outputs": [
        {
          "internalType": "uint8",
          "name": "",
          "type": "uint8"
        }
      ],
      "stateMutability": "view",
      "type": "function"
    },
    {
      "inputs": [],
      "name": "BEFORE_INITIALIZE_OFFSET",
      "outputs": [
        {
          "internalType": "uint8",
          "name": "",
          "type": "uint8"
        }
      ],
      "stateMutability": "view",
      "type": "function"
    },
    {
      "inputs": [],
      "name": "BEFORE_REMOVE_LIQUIDITY_OFFSET",
      "outputs": [
        {
          "internalType": "uint8",
          "name": "",
          "type": "uint8"
        }
      ],
      "stateMutability": "view",
      "type": "function"
    },
    {
      "inputs": [],
      "name": "BEFORE_SWAP_OFFSET",
      "outputs": [
        {
          "internalType": "uint8",
          "name": "",
          "type": "uint8"
        }
      ],
      "stateMutability": "view",
      "type": "function"
    },
    {
      "inputs": [],
      "name": "DECIMAL_DIFF_BITLENGTH",
      "outputs": [
        {
          "internalType": "uint8",
          "name": "",
          "type": "uint8"
        }
      ],
      "stateMutability": "view",
      "type": "function"
    },
    {
      "inputs": [],
      "name": "DECIMAL_SCALING_FACTORS_OFFSET",
      "outputs": [
        {
          "internalType": "uint256",
          "name": "",
          "type": "uint256"
        }
      ],
      "stateMutability": "view",
      "type": "function"
    },
    {
      "inputs": [],
      "name": "DONATION_OFFSET",
      "outputs": [
        {
          "internalType": "uint8",
          "name": "",
          "type": "uint8"
        }
      ],
      "stateMutability": "view",
      "type": "function"
    },
    {
      "inputs": [],
      "name": "DYNAMIC_SWAP_FEE_OFFSET",
      "outputs": [
        {
          "internalType": "uint8",
          "name": "",
          "type": "uint8"
        }
      ],
      "stateMutability": "view",
      "type": "function"
    },
    {
      "inputs": [],
      "name": "ENABLE_HOOK_ADJUSTED_AMOUNTS_OFFSET",
      "outputs": [
        {
          "internalType": "uint8",
          "name": "",
          "type": "uint8"
        }
      ],
      "stateMutability": "view",
      "type": "function"
    },
    {
      "inputs": [],
      "name": "PAUSE_WINDOW_END_TIME_OFFSET",
      "outputs": [
        {
          "internalType": "uint256",
          "name": "",
          "type": "uint256"
        }
      ],
      "stateMutability": "view",
      "type": "function"
    },
    {
      "inputs": [],
      "name": "POOL_INITIALIZED_OFFSET",
      "outputs": [
        {
          "internalType": "uint8",
          "name": "",
          "type": "uint8"
        }
      ],
      "stateMutability": "view",
      "type": "function"
    },
    {
      "inputs": [],
      "name": "POOL_PAUSED_OFFSET",
      "outputs": [
        {
          "internalType": "uint8",
          "name": "",
          "type": "uint8"
        }
      ],
      "stateMutability": "view",
      "type": "function"
    },
    {
      "inputs": [],
      "name": "POOL_RECOVERY_MODE_OFFSET",
      "outputs": [
        {
          "internalType": "uint8",
          "name": "",
          "type": "uint8"
        }
      ],
      "stateMutability": "view",
      "type": "function"
    },
    {
      "inputs": [],
      "name": "POOL_REGISTERED_OFFSET",
      "outputs": [
        {
          "internalType": "uint8",
          "name": "",
          "type": "uint8"
        }
      ],
      "stateMutability": "view",
      "type": "function"
    },
    {
      "inputs": [],
      "name": "REMOVE_LIQUIDITY_CUSTOM_OFFSET",
      "outputs": [
        {
          "internalType": "uint8",
          "name": "",
          "type": "uint8"
        }
      ],
      "stateMutability": "view",
      "type": "function"
    },
    {
      "inputs": [],
      "name": "STATIC_SWAP_FEE_OFFSET",
      "outputs": [
        {
          "internalType": "uint8",
          "name": "",
          "type": "uint8"
        }
      ],
      "stateMutability": "view",
      "type": "function"
    },
    {
      "inputs": [],
      "name": "TIMESTAMP_BITLENGTH",
      "outputs": [
        {
          "internalType": "uint8",
          "name": "",
          "type": "uint8"
        }
      ],
      "stateMutability": "view",
      "type": "function"
    },
    {
      "inputs": [],
      "name": "TOKEN_DECIMAL_DIFFS_BITLENGTH",
      "outputs": [
        {
          "internalType": "uint8",
          "name": "",
          "type": "uint8"
        }
      ],
      "stateMutability": "view",
      "type": "function"
    },
    {
      "inputs": [],
      "name": "UNBALANCED_LIQUIDITY_OFFSET",
      "outputs": [
        {
          "internalType": "uint8",
          "name": "",
          "type": "uint8"
        }
      ],
      "stateMutability": "view",
      "type": "function"
    }
  ],
  "bytecode": "0x60808060405234601957610522908161001f823930815050f35b600080fdfe6080604052600436101561001257600080fd5b60003560e01c80631294794b1461044b578063185186281461043457806328b161ce1461041d5780632d6724e1146104025780633dc52c43146103ec5780633f60345a146103c4578063547acb16146103a25780636801b4421461038b57806368aa25241461034b5780637e3edbf11461032f5780637ea0cde91461031857806380b1c55b146102f357806384efbfd5146102c8578063a22425b6146102b2578063aa6cda9114610293578063af815f0414610275578063b2cb247c1461025c578063bc8487691461023a578063bdefaf7114610221578063d98272171461020b578063d9cebbd9146101ed578063dde7b13f146101d1578063df9d385b146101bb578063e2ce6c6c1461019c578063fab86870146101775763fd5da0101461013a57600080fd5b6000366003190112610172576020610167610162610162610162610162610162610162610483565b610461565b60ff60405191168152f35b600080fd5b6000366003190112610172576020610167610162610162610162610162610162610473565b6000366003190112610172576020610167610162610162610162610473565b6000366003190112610172576020604051818152f35b6000366003190112610172576020610167610162610162610483565b60003660031901126101725760206102036104ce565b604051908152f35b6000366003190112610172576020610167610473565b6000366003190112610172576020610167610162610483565b6000366003190112610172576020610167610162610162610162610162610483565b6000366003190112610172576020610167610162610473565b6000366003190112610172576002600060208260ff60405191168152f35b6000366003190112610172576020610167610162610162610162610483565b6000366003190112610172576020610167610483565b6000366003190112610172576020610167610162610162610162610162610162610162610162610473565b6000366003190112610172576020610167610162610162610162610162610162610483565b600036600319011261017257602060405160288152f35b6000366003190112610172576020610167610162610162610473565b60003660031901126101725761035f6104e4565b6028810180911161037557602090604051908152f35b634e487b7160e01b600052601160045260246000fd5b600036600319011261017257602060405160008152f35b6000366003190112610172576020610167610162610162610162610162610473565b6000366003190112610172576020610167610162610162610162610162610162610162610473565b60003660031901126101725760206102036104e4565b60003660031901126101725760026000602061016783610461565b600036600319011261017257602060405160058152f35b600036600319011261017257602060405160018152f35b60003660031901126101725760206102036104a3565b60ff60019116019060ff821161037557565b6104806101626002610461565b90565b610480610162610162610162610162610162610162610162610162610473565b60ff6104bf610162610162610162610162610162610162610483565b16601881018091116103755790565b6104d66104a3565b601881018091116103755790565b6104d66104ce56fea264697066735822122055d51e1aaa3e4f80413fd6f5d8e10b4a2921131bb60bd224a2eb236d0de7a51464736f6c634300081a0033",
  "linkReferences": {},
  "deployedLinkReferences": {}
}