{
  "_format": "hh-sol-artifact-1",
  "contractName": "StablePoolFactory",
  "sourceName": "contracts/StablePoolFactory.sol",
  "abi": [
    {
      "inputs": [
        {
          "internalType": "contract IVault",
          "name": "vault",
          "type": "address"
        },
        {
          "internalType": "uint32",
          "name": "pauseWindowDuration",
          "type": "uint32"
        },
        {
          "internalType": "string",
          "name": "factoryVersion",
          "type": "string"
        },
        {
          "internalType": "string",
          "name": "poolVersion",
          "type": "string"
        }
      ],
      "stateMutability": "nonpayable",
      "type": "constructor"
    },
    {
      "inputs": [],
      "name": "CodeDeploymentFailed",
      "type": "error"
    },
    {
      "inputs": [],
      "name": "Create2EmptyBytecode",
      "type": "error"
    },
    {
      "inputs": [],
      "name": "Disabled",
      "type": "error"
    },
    {
      "inputs": [],
      "name": "FailedDeployment",
      "type": "error"
    },
    {
      "inputs": [],
      "name": "IndexOutOfBounds",
      "type": "error"
    },
    {
      "inputs": [
        {
          "internalType": "uint256",
          "name": "balance",
          "type": "uint256"
        },
        {
          "internalType": "uint256",
          "name": "needed",
          "type": "uint256"
        }
      ],
      "name": "InsufficientBalance",
      "type": "error"
    },
    {
      "inputs": [],
      "name": "MaxTokens",
      "type": "error"
    },
    {
      "inputs": [],
      "name": "PoolPauseWindowDurationOverflow",
      "type": "error"
    },
    {
      "inputs": [],
      "name": "SenderNotAllowed",
      "type": "error"
    },
    {
      "inputs": [],
      "name": "StandardPoolWithCreator",
      "type": "error"
    },
    {
      "inputs": [],
      "name": "VaultNotSet",
      "type": "error"
    },
    {
      "anonymous": false,
      "inputs": [],
      "name": "FactoryDisabled",
      "type": "event"
    },
    {
      "anonymous": false,
      "inputs": [
        {
          "indexed": true,
          "internalType": "address",
          "name": "pool",
          "type": "address"
        }
      ],
      "name": "PoolCreated",
      "type": "event"
    },
    {
      "inputs": [
        {
          "internalType": "string",
          "name": "name",
          "type": "string"
        },
        {
          "internalType": "string",
          "name": "symbol",
          "type": "string"
        },
        {
          "components": [
            {
              "internalType": "contract IERC20",
              "name": "token",
              "type": "address"
            },
            {
              "internalType": "enum TokenType",
              "name": "tokenType",
              "type": "uint8"
            },
            {
              "internalType": "contract IRateProvider",
              "name": "rateProvider",
              "type": "address"
            },
            {
              "internalType": "bool",
              "name": "paysYieldFees",
              "type": "bool"
            }
          ],
          "internalType": "struct TokenConfig[]",
          "name": "tokens",
          "type": "tuple[]"
        },
        {
          "internalType": "uint256",
          "name": "amplificationParameter",
          "type": "uint256"
        },
        {
          "components": [
            {
              "internalType": "address",
              "name": "pauseManager",
              "type": "address"
            },
            {
              "internalType": "address",
              "name": "swapFeeManager",
              "type": "address"
            },
            {
              "internalType": "address",
              "name": "poolCreator",
              "type": "address"
            }
          ],
          "internalType": "struct PoolRoleAccounts",
          "name": "roleAccounts",
          "type": "tuple"
        },
        {
          "internalType": "uint256",
          "name": "swapFeePercentage",
          "type": "uint256"
        },
        {
          "internalType": "address",
          "name": "poolHooksContract",
          "type": "address"
        },
        {
          "internalType": "bool",
          "name": "enableDonation",
          "type": "bool"
        },
        {
          "internalType": "bool",
          "name": "disableUnbalancedLiquidity",
          "type": "bool"
        },
        {
          "internalType": "bytes32",
          "name": "salt",
          "type": "bytes32"
        }
      ],
      "name": "create",
      "outputs": [
        {
          "internalType": "address",
          "name": "pool",
          "type": "address"
        }
      ],
      "stateMutability": "nonpayable",
      "type": "function"
    },
    {
      "inputs": [],
      "name": "disable",
      "outputs": [],
      "stateMutability": "nonpayable",
      "type": "function"
    },
    {
      "inputs": [
        {
          "internalType": "bytes4",
          "name": "selector",
          "type": "bytes4"
        }
      ],
      "name": "getActionId",
      "outputs": [
        {
          "internalType": "bytes32",
          "name": "",
          "type": "bytes32"
        }
      ],
      "stateMutability": "view",
      "type": "function"
    },
    {
      "inputs": [],
      "name": "getAuthorizer",
      "outputs": [
        {
          "internalType": "contract IAuthorizer",
          "name": "",
          "type": "address"
        }
      ],
      "stateMutability": "view",
      "type": "function"
    },
    {
      "inputs": [],
      "name": "getCreationCode",
      "outputs": [
        {
          "internalType": "bytes",
          "name": "",
          "type": "bytes"
        }
      ],
      "stateMutability": "view",
      "type": "function"
    },
    {
      "inputs": [],
      "name": "getCreationCodeContracts",
      "outputs": [
        {
          "internalType": "address",
          "name": "contractA",
          "type": "address"
        },
        {
          "internalType": "address",
          "name": "contractB",
          "type": "address"
        }
      ],
      "stateMutability": "view",
      "type": "function"
    },
    {
      "inputs": [],
      "name": "getDefaultLiquidityManagement",
      "outputs": [
        {
          "components": [
            {
              "internalType": "bool",
              "name": "disableUnbalancedLiquidity",
              "type": "bool"
            },
            {
              "internalType": "bool",
              "name": "enableAddLiquidityCustom",
              "type": "bool"
            },
            {
              "internalType": "bool",
              "name": "enableRemoveLiquidityCustom",
              "type": "bool"
            },
            {
              "internalType": "bool",
              "name": "enableDonation",
              "type": "bool"
            }
          ],
          "internalType": "struct LiquidityManagement",
          "name": "liquidityManagement",
          "type": "tuple"
        }
      ],
      "stateMutability": "pure",
      "type": "function"
    },
    {
      "inputs": [],
      "name": "getDefaultPoolHooksContract",
      "outputs": [
        {
          "internalType": "address",
          "name": "",
          "type": "address"
        }
      ],
      "stateMutability": "pure",
      "type": "function"
    },
    {
      "inputs": [
        {
          "internalType": "bytes",
          "name": "constructorArgs",
          "type": "bytes"
        },
        {
          "internalType": "bytes32",
          "name": "salt",
          "type": "bytes32"
        }
      ],
      "name": "getDeploymentAddress",
      "outputs": [
        {
          "internalType": "address",
          "name": "",
          "type": "address"
        }
      ],
      "stateMutability": "view",
      "type": "function"
    },
    {
      "inputs": [],
      "name": "getNewPoolPauseWindowEndTime",
      "outputs": [
        {
          "internalType": "uint32",
          "name": "",
          "type": "uint32"
        }
      ],
      "stateMutability": "view",
      "type": "function"
    },
    {
      "inputs": [],
      "name": "getOriginalPauseWindowEndTime",
      "outputs": [
        {
          "internalType": "uint32",
          "name": "",
          "type": "uint32"
        }
      ],
      "stateMutability": "view",
      "type": "function"
    },
    {
      "inputs": [],
      "name": "getPauseWindowDuration",
      "outputs": [
        {
          "internalType": "uint32",
          "name": "",
          "type": "uint32"
        }
      ],
      "stateMutability": "view",
      "type": "function"
    },
    {
      "inputs": [],
      "name": "getPoolCount",
      "outputs": [
        {
          "internalType": "uint256",
          "name": "",
          "type": "uint256"
        }
      ],
      "stateMutability": "view",
      "type": "function"
    },
    {
      "inputs": [],
      "name": "getPoolVersion",
      "outputs": [
        {
          "internalType": "string",
          "name": "",
          "type": "string"
        }
      ],
      "stateMutability": "view",
      "type": "function"
    },
    {
      "inputs": [],
      "name": "getPools",
      "outputs": [
        {
          "internalType": "address[]",
          "name": "",
          "type": "address[]"
        }
      ],
      "stateMutability": "view",
      "type": "function"
    },
    {
      "inputs": [
        {
          "internalType": "uint256",
          "name": "start",
          "type": "uint256"
        },
        {
          "internalType": "uint256",
          "name": "count",
          "type": "uint256"
        }
      ],
      "name": "getPoolsInRange",
      "outputs": [
        {
          "internalType": "address[]",
          "name": "pools",
          "type": "address[]"
        }
      ],
      "stateMutability": "view",
      "type": "function"
    },
    {
      "inputs": [],
      "name": "getVault",
      "outputs": [
        {
          "internalType": "contract IVault",
          "name": "",
          "type": "address"
        }
      ],
      "stateMutability": "view",
      "type": "function"
    },
    {
      "inputs": [],
      "name": "isDisabled",
      "outputs": [
        {
          "internalType": "bool",
          "name": "",
          "type": "bool"
        }
      ],
      "stateMutability": "view",
      "type": "function"
    },
    {
      "inputs": [
        {
          "internalType": "address",
          "name": "pool",
          "type": "address"
        }
      ],
      "name": "isPoolFromFactory",
      "outputs": [
        {
          "internalType": "bool",
          "name": "",
          "type": "bool"
        }
      ],
      "stateMutability": "view",
      "type": "function"
    },
    {
      "inputs": [],
      "name": "version",
      "outputs": [
        {
          "internalType": "string",
          "name": "",
          "type": "string"
        }
      ],
      "stateMutability": "view",
      "type": "function"
    }
  ],
  "bytecode": "0x610180604052346100aa5761001e61001561015a565b929190916103b0565b6040516114bf908161062182396080518181816102100152611102015260a0518161108f015260c0518181816102350152611127015260e051816110b101526101005181610e9b0152610120518181816102ec01528181610959015281816109cc0152818161102701526112d1015261014051816108e7015261016051818181610a800152610f020152f35b600080fd5b634e487b7160e01b600052604160045260246000fd5b6040519190601f01601f191682016001600160401b038111838210176100ea57604052565b6100af565b81601f820112156100aa578051906001600160401b0382116100ea5761011e601f8301601f19166020016100c5565b92828452602083830101116100aa5760005b82811061014557505060206000918301015290565b80602080928401015182828701015201610130565b61570a908138038061016b816100c5565b9384398201906080838303126100aa578251906001600160a01b03821682036100aa5760208401519363ffffffff851685036100aa5760408101516001600160401b0381116100aa57846101c09183016100ef565b60608201519094906001600160401b0381116100aa576101e092016100ef565b9193929190565b90600182811c92168015610217575b602083101461020157565b634e487b7160e01b600052602260045260246000fd5b91607f16916101f6565b601f811161022d575050565b60036000526020600020906020601f840160051c8301931061026a575b601f0160051c01905b81811061025e575050565b60008155600101610253565b909150819061024a565b601f821161028157505050565b6000526020600020906020601f840160051c830193106102bc575b601f0160051c01905b8181106102b0575050565b600081556001016102a5565b909150819061029c565b80519091906001600160401b0381116100ea576102ef816102e86004546101e7565b6004610274565b602092601f82116001146103315761032192938291600092610326575b50508160011b916000199060031b1c19161790565b600455565b01519050388061030c565b6004600052601f198216937f8a35acfbc15ff81a39ae7d344fd709f28e8600b4aa8c65c6b64bfe7fe36bd19b9160005b868110610398575083600195961061037f575b505050811b01600455565b015160001960f88460031b161c19169055388080610374565b91926020600181928685015181550194019201610361565b92919092613c2a6103c3602082016100c5565b90808252611ae060208301398051908160011c918260a05282810392818411610487578360e0528083526103f68361058b565b608052820191825193835261040a836105de565b60c052525230610100526001600160a01b03811615610476576101205261043763ffffffff84164261049d565b9063ffffffff82116104655763ffffffff61045e92610463956101405216610160526104af565b6102c6565b565b6368755a1160e01b60005260046000fd5b630647140b60e51b60005260046000fd5b634e487b7160e01b600052601160045260246000fd5b919082018092116104aa57565b610487565b80519091906001600160401b0381116100ea576104d6816104d16003546101e7565b610221565b602092601f821160011461050c57610507929382916000926103265750508160011b916000199060031b1c19161790565b600355565b6003600052601f198216937fc2575a0e9e593c00f959f8c92f12db2869c3395a3b0502d05e2516446f71f85b9160005b868110610573575083600195961061055a575b505050811b01600355565b015160001960f88460031b161c1916905538808061054f565b9192602060018192868501518155019401920161053c565b907f602038038060206000396000f3fefefefefefefefefefefefefefefefefefefe825190835260208101836000f092526001600160a01b038216156105cd57565b63fef8220760e01b60005260046000fd5b907f60fe600053602038038060206001396001016000f3fefefefefefefefefefefe825190835260208101836000f092526001600160a01b038216156105cd5756fe6080604052600436101561001257600080fd5b60003560e01c8062c194db14610156578063174481fa14610151578063193ad50f1461014c5780632f2770db146101475780633f819b6f1461014257806344f6fec71461013d57806353a72f7e1461013857806354fd4d50146101335780636634b7531461012e578063673a2a1f146101295780636c57f5a91461012457806378da80cb1461011f578063851c1bb31461011a5780638d928af8146101155780638eec5d7014610110578063aaabadc51461010b578063db035ebc14610106578063e9d56e1914610101578063ec888061146100fc5763ee204264146100f757600080fd5b610c31565b610aa4565b610a63565b610a3a565b6109a6565b610988565b610943565b61090b565b6108ca565b6108a7565b61081c565b6107da565b6106c9565b6105da565b610506565b610413565b6102b1565b610287565b6101f1565b6101ac565b600091031261016657565b600080fd5b919082519283825260005b848110610197575050826000602080949584010152601f8019910116010190565b80602080928401015182828601015201610176565b346101665760003660031901126101665760206101d86040516101cf8382610479565b6000815261108c565b906101ed60405192828493845283019061016b565b0390f35b3461016657600036600319011261016657604080516001600160a01b037f0000000000000000000000000000000000000000000000000000000000000000811682527f0000000000000000000000000000000000000000000000000000000000000000166020820152f35b6060809180511515845260208101511515602085015260408101511515604085015201511515910152565b346101665760003660031901126101665760806102a2610cea565b6102af604051809261025c565bf35b34610166576000366003190112610166576102d76000356001600160e01b031916610e91565b60405163aaabadc560e01b81526020816004817f00000000000000000000000000000000000000000000000000000000000000006001600160a01b03165afa9182156103cd5761035e926020926000916103d2575b506040516326f8aa2160e21b815260048101929092523360248301523060448301529092839190829081906064820190565b03916001600160a01b03165afa80156103cd57610381916000916103a057501590565b61038f5761038d610d0f565b005b6323dada5360e01b60005260046000fd5b6103c2915060203d6020116103c6575b6103ba8183610479565b810190611474565b1590565b503d6103b0565b610ef4565b6103f29150833d85116103f8575b6103ea8183610479565b810190610edf565b3861032c565b503d6103e0565b90602061041092818152019061016b565b90565b34610166576000366003190112610166576101ed61042f610d4b565b60405191829160208352602083019061016b565b634e487b7160e01b600052604160045260246000fd5b608081019081106001600160401b0382111761047457604052565b610443565b601f909101601f19168101906001600160401b0382119082101761047457604052565b604051906104ab608083610479565b565b9192916001600160401b03821161047457604051916104d6601f8201601f191660200184610479565b829481845281830111610166578281602093846000960137010152565b6001600160a01b03909116815260200190565b34610166576040366003190112610166576004356001600160401b038111610166573660238201121561016657600b61054c6101ed9236906024816004013591016104ad565b61056061055a6024356111ca565b9161108c565b602081519101209060405191604083015260208201523081520160ff8153605590206040519182916001600160a01b0316826104f3565b602060408183019282815284518094520192019060005b8181106105bb5750505090565b82516001600160a01b03168452602093840193909201916001016105ae565b3461016657604036600319011261016657600435602435600154808310156106b8578183018084116106b35781106106a2575b5061061781610adb565b916106256040519384610479565b818352601f1961063483610adb565b0136602085013760005b82811061065357604051806101ed8682610597565b8061069c61068361066e61066960019587610e3a565b610e5d565b905460039190911b1c6001600160a01b031690565b61068d8388610e7d565b6001600160a01b039091169052565b0161063e565b828103915081116106b3573861060d565b610e24565b634e23d03560e01b60005260046000fd5b346101665760003660031901126101665760405160006003548060011c90600181169081156107b1575b60208310821461079d5782855260208501919081156107845750600114610731575b6101ed8461072581860382610479565b604051918291826103ff565b600360009081529250907fc2575a0e9e593c00f959f8c92f12db2869c3395a3b0502d05e2516446f71f85b5b8184106107705750500161072582610715565b80548484015260209093019260010161075d565b60ff191682525090151560051b01905061072582610715565b634e487b7160e01b84526022600452602484fd5b91607f16916106f3565b6001600160a01b0381160361016657565b61010435906104ab826107bb565b34610166576020366003190112610166576004356107f7816107bb565b60018060a01b03166000526000602052602060ff604060002054166040519015158152f35b346101665760003660031901126101665760405160018054808352600091825260208301917fb10e2d527612073b26eecdfd717e6a320cf44b4afac2b0732d9fcbe2b7fa0cf691905b818110610888576101ed8561087c81870382610479565b60405191829182610597565b82546001600160a01b0316845260209093019260019283019201610865565b3461016657600036600319011261016657602060ff600254166040519015158152f35b3461016657600036600319011261016657602060405163ffffffff7f0000000000000000000000000000000000000000000000000000000000000000168152f35b34610166576020366003190112610166576004356001600160e01b0319811681036101665761093b602091610e91565b604051908152f35b34610166576000366003190112610166576040517f00000000000000000000000000000000000000000000000000000000000000006001600160a01b03168152602090f35b34610166576000366003190112610166576020600154604051908152f35b346101665760003660031901126101665760405163aaabadc560e01b81526020816004817f00000000000000000000000000000000000000000000000000000000000000006001600160a01b03165afa9081156103cd57600091610a1b575b506040516001600160a01b039091168152602090f35b610a34915060203d6020116103f8576103ea8183610479565b38610a05565b34610166576000366003190112610166576020610a55610f00565b63ffffffff60405191168152f35b3461016657600036600319011261016657602060405163ffffffff7f0000000000000000000000000000000000000000000000000000000000000000168152f35b3461016657600036600319011261016657602060405160008152f35b9080601f8301121561016657816020610410933591016104ad565b6001600160401b0381116104745760051b60200190565b8015150361016657565b61012435906104ab82610af2565b61014435906104ab82610af2565b81601f8201121561016657803590610b2f82610adb565b92610b3d6040519485610479565b82845260208085019360071b8301019181831161016657602001925b828410610b67575050505090565b6080848303126101665760405190610b7e82610459565b8435610b89816107bb565b8252602085013590600282101561016657826020928360809501526040870135610bb2816107bb565b60408201526060870135610bc581610af2565b6060820152815201930192610b59565b60609060831901126101665760405190606082016001600160401b038111838210176104745760405281608435610c0b816107bb565b815260a435610c19816107bb565b6020820152604060c43591610c2d836107bb565b0152565b3461016657610180366003190112610166576004356001600160401b03811161016657610c62903690600401610ac0565b6024356001600160401b03811161016657610c81903690600401610ac0565b90604435906001600160401b038211610166576101ed92610ca9610cde933690600401610b18565b606435610cb536610bd5565b60e43590610cc16107cc565b92610cca610afc565b94610cd3610b0a565b966101643598610fa3565b604051918291826104f3565b60405190610cf782610459565b60006060838281528260208201528260408201520152565b610d176111ad565b600160ff1960025416176002557f432acbfd662dbb5d8b378384a67159b47ca9d0f1b79f97cf64cf8585fa362d50600080a1565b604051906000600454908160011c9160018116908115610e1a575b602084108214610e065783865285929160208401918115610ded5750600114610d97575b506104ab92500383610479565b6004600090815291507f8a35acfbc15ff81a39ae7d344fd709f28e8600b4aa8c65c6b64bfe7fe36bd19b5b848310610dd657506104ab93500138610d8a565b805482840152869350602090920191600101610dc2565b60ff19168252506104ab93151560051b01905038610d8a565b634e487b7160e01b83526022600452602483fd5b92607f1692610d66565b634e487b7160e01b600052601160045260246000fd5b919082018092116106b357565b634e487b7160e01b600052603260045260246000fd5b600154811015610e7857600160005260206000200190600090565b610e47565b8051821015610e785760209160051b010190565b60405160208101917f0000000000000000000000000000000000000000000000000000000000000000835263ffffffff60e01b16604082015260248152610ed9604482610479565b51902090565b908160209103126101665751610410816107bb565b6040513d6000823e3d90fd5b7f000000000000000000000000000000000000000000000000000000000000000063ffffffff8116421015610f325790565b50600090565b90610f93602091949394604084526060610f75610f6183516080604089015260c088019061016b565b83860151878203603f19018489015261016b565b60408301516080870152910151848203603f190160a086015261016b565b6001600160a01b03909416910152565b6040850151929a9990989397949594919390926001600160a01b031661107b5760058b511161106a576104ab9860609861106395610ffd61105e94610ff761105097610fed610cea565b9e8f019015159052565b15158c52565b61100561049c565b9283526020830152604082015261101a610d4b565b60608201526040519283917f00000000000000000000000000000000000000000000000000000000000000009060208401610f38565b03601f198101835282610479565b6111ef565b96876112ce565b630e0f7beb60e31b60005260046000fd5b63187b85d960e21b60005260046000fd5b907f0000000000000000000000000000000000000000000000000000000000000000917f00000000000000000000000000000000000000000000000000000000000000006110da8185610e3a565b825191600160206110eb8585610e3a565b976040519882818b01016040528952806000838b017f00000000000000000000000000000000000000000000000000000000000000003c8801017f00000000000000000000000000000000000000000000000000000000000000003c84019060005b81811061115a5750505050565b6020908183818301116111a4575b82828701015190838110611184575b508282860101520161114d565b600160001991850360031b1b019081191690838387010151161738611177565b50808303611168565b60ff600254166111b957565b633ac4266d60e11b60005260046000fd5b6040516020810191338352466040830152606082015260608152610ed9608082610479565b9061055a6111fc916111ca565b8051156112bd576020815191016000f5903d1519821516610ef4576001600160a01b0382169182156112ac57916112316111ad565b8060005260006020526040600020600160ff19825416179055600154600160401b811015610474578060016112699201600155610e5d565b81546001600160a01b0360039290921b91821b19169083901b1790557f83a48fbcfc991335314e74d0496aab6a1987e992ddc85dddbcc4d6dd6ef2e9fc600080a2565b63b06ebf3d60e01b60005260046000fd5b631328927760e21b60005260046000fd5b947f00000000000000000000000000000000000000000000000000000000000000006001600160a01b03169491939092611306610f00565b90863b156101665760405163eeec802f60e01b81526001600160a01b0390981660048901526101a0602489015285516101a4890181905288966101c4880196959493929160209091019060005b8181106113fa57505050604487015263ffffffff166064860152600095938593879385936113d492916113c9916113b890881515608489015280516001600160a01b0390811660a48a01526020820151811660c48a01526040909101511660e4880152565b6001600160a01b0316610104860152565b61012484019061025c565b03925af180156103cd576113e55750565b806113f460006104ab93610479565b8061015b565b9180995097909293949596975160018060a01b038151168252602081015190600282101561145e57826060608092602094856001970152858060a01b0360408201511660408401520151151560608201520199019101918a98979695949392611353565b634e487b7160e01b600052602160045260246000fd5b90816020910312610166575161041081610af256fea264697066735822122008824794e19713295a720caddbe33be76742d8cf8ab2306f7a5eeade177e8cab64736f6c634300081a0033610200806040523461081557613c2a803803809161001d828561081a565b833981016040828203126108155781516001600160401b03811161081557820160808183031261081557604051608081016001600160401b038111828210176106145760405281516001600160401b038111610815578361007f918401610860565b815260208201516001600160401b03811161081557836100a0918401610860565b60208201908152604083810151908301908152606084015191949093906001600160401b038311610815576020926100d89201610860565b60608301819052940151906001600160a01b03821690818303610815575193516040948551610107878261081a565b6001815260208101603160f81b815261011f836108b4565b6101205261012c82610a43565b6101405282516020840120918260e05251902080610100524660a05287519060208201927f8b73c3c69bb8fe3d512ecc4cf759cc79239f7b179b0ffacaa9a75d522b39400f84528983015260608201524660808201523060a082015260a0815261019760c08261081a565b5190206080523060c0526101608490528051906001600160401b0382116106145760035490600182811c9216801561080b575b60208310146105f45781601f84931161079b575b50602090601f831160011461073357600092610728575b50508160011b916000199060031b1c1916176003555b8051906001600160401b0382116106145760045490600182811c9216801561071e575b60208310146105f45781601f8493116106ae575b50602090601f83116001146106465760009261063b575b50508160011b916000199060031b1c1916176004555b33610180521561062a576101a08190526101e05282516001600160401b03811161061457600554600181811c9116801561060a575b60208210146105f457601f81116105ab575b506020601f82116001146105445781929394600092610539575b50508160011b916000199060031b1c1916176005555b60018151106105285761c35081511161051757516103e88102908082046103e81490151715610501576001600160401b0381116104e957600654906001600160401b03811663ffffffff42116104cf5742608081901b63ffffffff60801b1692851b6fffffffffffffffff00000000000000001663ffffffff60a01b1983166001600160c01b031990951694909417939093179190911760a09290921b63ffffffff60a01b169190911760065581519081527fa0d01593e47e69d07e0ccd87bece09411e07dd1ed40ca8f2e7af2976542a023390602090a1516130a49081610b86823960805181612c7a015260a05181612d31015260c05181612c44015260e05181612cc901526101005181612cef015261012051816111e60152610140518161121001526101605181818161030601528181610457015281816105ef015281816107c6015281816108130152818161086f0152818161093c01528181610f4601528181611160015281816115060152818161161201528181611a4901528181611c38015281816121fe015281816124a40152612a120152610180518161272201526101a051818181610204015281816118a40152612a9301526101c0518150506101e0518181816106bd01528181610b8701528181610c2401528181610e8e01526112c60152f35b6306dfcc6560e41b60005260206004524260245260446000fd5b906306dfcc6560e41b60005260045260245260446000fd5b634e487b7160e01b600052601160045260246000fd5b6309b80d3960e41b60005260046000fd5b63ab92332360e01b60005260046000fd5b0151905038806102d0565b601f198216906005600052806000209160005b8181106105935750958360019596971061057a575b505050811b016005556102e6565b015160001960f88460031b161c1916905538808061056c565b9192602060018192868b015181550194019201610557565b60056000526020600020601f830160051c810191602084106105ea575b601f0160051c01905b8181106105de57506102b6565b600081556001016105d1565b90915081906105c8565b634e487b7160e01b600052602260045260246000fd5b90607f16906102a4565b634e487b7160e01b600052604160045260246000fd5b630647140b60e51b60005260046000fd5b015190503880610259565b600460009081528281209350601f198516905b818110610696575090846001959493921061067d575b505050811b0160045561026f565b015160001960f88460031b161c1916905538808061066f565b92936020600181928786015181550195019301610659565b60046000529091507f8a35acfbc15ff81a39ae7d344fd709f28e8600b4aa8c65c6b64bfe7fe36bd19b601f840160051c81019160208510610714575b90601f859493920160051c01905b8181106107055750610242565b600081558493506001016106f8565b90915081906106ea565b91607f169161022e565b0151905038806101f5565b600360009081528281209350601f198516905b818110610783575090846001959493921061076a575b505050811b0160035561020b565b015160001960f88460031b161c1916905538808061075c565b92936020600181928786015181550195019301610746565b60036000529091507fc2575a0e9e593c00f959f8c92f12db2869c3395a3b0502d05e2516446f71f85b601f840160051c81019160208510610801575b90601f859493920160051c01905b8181106107f257506101de565b600081558493506001016107e5565b90915081906107d7565b91607f16916101ca565b600080fd5b601f909101601f19168101906001600160401b0382119082101761061457604052565b60005b8381106108505750506000910152565b8181015183820152602001610840565b81601f820112156108155780516001600160401b0381116106145760405192610893601f8301601f19166020018561081a565b81845260208284010111610815576108b1916020808501910161083d565b90565b9081516020811060001461092f575090601f8151116108f05760208151910151602082106108e0571790565b6000198260200360031b1b161790565b6044604051809263305a27a960e01b825260206004830152610921815180928160248601526020868601910161083d565b601f01601f19168101030190fd5b6001600160401b03811161061457600054600181811c91168015610a39575b60208210146105f457601f8111610a04575b50602092601f82116001146109a05792819293600092610995575b50508160011b916000199060031b1c19161760005560ff90565b01519050388061097b565b601f1982169360008052806000209160005b8681106109ec57508360019596106109d3575b505050811b0160005560ff90565b015160001960f88460031b161c191690553880806109c5565b919260206001819286850151815501940192016109b2565b60008052601f6020600020910160051c810190601f830160051c015b818110610a2d5750610960565b60008155600101610a20565b90607f169061094e565b90815160208110600014610a6f575090601f8151116108f05760208151910151602082106108e0571790565b6001600160401b03811161061457600154600181811c91168015610b7b575b60208210146105f457601f8111610b45575b50602092601f8211600114610ae05792819293600092610ad5575b50508160011b916000199060031b1c19161760015560ff90565b015190503880610abb565b601f198216936001600052806000209160005b868110610b2d5750836001959610610b14575b505050811b0160015560ff90565b015160001960f88460031b161c19169055388080610b06565b91926020600181928685015181550194019201610af3565b6001600052601f6020600020910160051c810190601f830160051c015b818110610b6f5750610aa0565b60008155600101610b62565b90607f1690610a8e56fe608080604052600436101561001357600080fd5b600090813560e01c90816301ffc9a714611ea45750806306fdde0314611dfd578063095ea7b314611dbf57806316a0b3e014611d0b57806318160ddd14611cf057806321da5e1914611c6f57806323b872dd14611bea57806323de665114611bb8578063273c1adf14611b955780632f1a0bc91461186857806330adf81f1461183f578063313ce567146118235780633644e5151461180857806354fd4d50146117615780635687f2b81461170b5780635c1e6259146115c9578063627cdcb9146115af578063654cf15d1461158c578063679aefce146115715780636daccffa1461153f57806370a08231146114bb57806372c981861461136e5780637ecebe001461133557806381fa807c1461129957806384b0196e146111c9578063851c1bb31461118f5780638d928af81461114a57806395d89b4114611067578063984de9e814610fbf578063a9059cbb14610f03578063aa6ca80814610e63578063abb1dc4414610bf8578063b156aa0a14610b5c578063b677fa5614610b39578063cbd4e2801461071e578063ce20ece7146106fe578063d335b0cf14610690578063d505accf146104d5578063dd62ed3e146103fc5763eb0f24d6146101d957600080fd5b346103ac57806003193601126103ac576040516374eef59360e11b81523060048201526060816024817f00000000000000000000000000000000000000000000000000000000000000006001600160a01b03165afa80156103af576102539183916103cd575b50602001516001600160a01b031630612a57565b61025b6127b8565b156103be57807fa0d01593e47e69d07e0ccd87bece09411e07dd1ed40ca8f2e7af2976542a0233602061028e8594612be1565b6006546001600160401b038216916102a542612c14565b63ffffffff60a01b60a082901b166001600160c01b03199390931663ffffffff60a01b19851617600160401b600160801b03604093841b161763ffffffff60801b60809290921b91909116179190911760065551908152a160018060a01b037f0000000000000000000000000000000000000000000000000000000000000000166040519160208301526020825261033e604083611f95565b803b156103ba5761038a839291839260405194858094819363c808824760e01b83526f105b5c155c19185d1954dd1bdc1c195960821b6004840152604060248401526044830190611edc565b03925af180156103af5761039b5750f35b816103a591611f95565b6103ac5780f35b80fd5b6040513d84823e3d90fd5b5050fd5b634673a67560e01b8252600482fd5b6103ef915060603d6060116103f5575b6103e78183611f95565b8101906122d1565b3861023f565b503d6103dd565b50346103ac5760403660031901126103ac57610416611f1d565b9061041f611f33565b60405163927da10560e01b81523060048201526001600160a01b039384166024820152908316604482015291602090839060649082907f0000000000000000000000000000000000000000000000000000000000000000165afa9081156104c95790610491575b602090604051908152f35b506020813d6020116104c1575b816104ab60209383611f95565b810103126104bc5760209051610486565b600080fd5b3d915061049e565b604051903d90823e3d90fd5b50346103ac5760e03660031901126103ac576104ef611f1d565b906104f8611f33565b604435906064359360843560ff8116810361068c57854211610678576105ad6105b69161052484612d57565b97604051602081019160008051602061304f833981519152835260018060a01b0387169a8b604084015260018060a01b038916606084015289608084015260a083015260c082015260c0815261057b60e082611f95565b519020610586612c41565b906040519161190160f01b83526002830152602282015260c43591604260a4359220612f5d565b90929192612fdc565b6001600160a01b0316948086036106615750906020916105ea604051948593849363e1f21c6760e01b8552600485016121c1565b0381857f00000000000000000000000000000000000000000000000000000000000000006001600160a01b03165af180156103af57610627575080f35b6020813d602011610659575b8161064060209383611f95565b8101031261065557610651906121b4565b5080f35b5080fd5b3d9150610633565b6325c0072360e11b85526004869052602452604484fd5b63313c898160e11b85526004869052602485fd5b8480fd5b50346103ac57806003193601126103ac5760405163b45090f960e01b8152306004820152906020826024817f00000000000000000000000000000000000000000000000000000000000000006001600160a01b03165afa9081156104c9579061049157602090604051908152f35b50346103ac57806003193601126103ac57602060405164e8d4a510008152f35b50346103ac57806003193601126103ac576040516101c081016001600160401b03811182821017610b255760405260608152606060208201528160408201528160608201528160808201528160a08201528160c08201528160e08201528161010082015281610120820152816101408201528161016082015281610180820152816101a08201526040516329ae7ec560e11b8152306004820152828160248160018060a01b037f0000000000000000000000000000000000000000000000000000000000000000165afa908115610aa2578391610b03575b508152604051633f1b0def60e11b815230600482015282816024817f00000000000000000000000000000000000000000000000000000000000000006001600160a01b03165afa908115610aa2578391610adf575b5060208281019190915260405163b45090f960e01b815230600482015290816024817f00000000000000000000000000000000000000000000000000000000000000006001600160a01b03165afa908115610aa2578391610aad575b5060408201526108b56121e3565b60608201526108c2612489565b60808201526108cf6127b8565b151561014083015260a082015263ffffffff60606108eb612275565b80516001600160401b0390811660c086015260208201511660e085015260408181015184166101008601529101519091166101208301525163f29486a160e01b81523060048201526101a0816024817f00000000000000000000000000000000000000000000000000000000000000006001600160a01b03165afa908115610aa257610120929391610a73575b5060e081015115156101608401526101008101511515610180840152015115156101a08201526040518091602082526101a06109db6109c583516101c060208701526101e08601906120a3565b6020840151858203601f190160408701526120a3565b916040810151606085015260608101516080850152608081015160a085015260a081015160c085015260c081015160e085015260e081015161010085015263ffffffff6101008201511661012085015263ffffffff6101208201511661014085015261014081015115156101608501526101608101511515610180850152610180810151151582850152015115156101c08301520390f35b610a9591506101a03d8111610a9b575b610a8d8183611f95565b8101906125f9565b38610978565b503d610a83565b6040513d85823e3d90fd5b90506020813d602011610ad7575b81610ac860209383611f95565b810103126104bc5751386108a7565b3d9150610abb565b610afb91503d8085833e610af38183611f95565b810190612440565b90503861084b565b610b1f91503d8085833e610b178183611f95565b810190612773565b386107f6565b634e487b7160e01b83526041600452602483fd5b50346103ac57806003193601126103ac576020604051670853a0d2313c00008152f35b50346103ac57806003193601126103ac576040516329ae7ec560e11b815230600482015281816024817f00000000000000000000000000000000000000000000000000000000000000006001600160a01b03165afa9081156103af5782610bd99392610bdd575b50506040519182916020835260208301906120a3565b0390f35b610bf192503d8091833e610b178183611f95565b3880610bc3565b50346103ac57806003193601126103ac576040516333f0703b60e11b81523060048201529080826024817f00000000000000000000000000000000000000000000000000000000000000006001600160a01b03165afa9081156104c95780928180918194610d08575b5090610c7e94939291604051958695608087526080870190612066565b8581036020870152602080855192838152019401915b818110610cc25750505081610cb49185610bd995940360408701526120a3565b9083820360608501526120a3565b91949550919260206060600192604088518051610cde816120d7565b8352858060a01b038582015116858401520151151560408201520195019101918695949392610c94565b9450925050503d8082843e610d1d8184611f95565b8201916080818403126106555780516001600160401b038111610e5f5783610d4691830161234d565b60208201516001600160401b038111610e5b5782019380601f86011215610e5b578451610d7281611fb8565b95610d806040519788611f95565b81875260206060818901930282010190838211610e5757602001915b818310610df45750505060408301516001600160401b03811161068c5781610dc59185016123e3565b606084015190936001600160401b038211610df057610de59291016123e3565b909391909238610c61565b8580fd5b606083850312610e5757604051610e0a81611f7a565b83516002811015610e5357815260208401516001600160a01b0381168103610e53579181606093602080940152610e43604087016121b4565b6040820152815201920191610d9c565b8880fd5b8680fd5b8380fd5b8280fd5b50346103ac57806003193601126103ac5760405163ca4f280360e01b815230600482015281816024817f00000000000000000000000000000000000000000000000000000000000000006001600160a01b03165afa9081156103af5782610bd99392610ee0575b5050604051918291602083526020830190612066565b610efc92503d8091833e610ef48183611f95565b8101906123bb565b3880610eca565b50346103ac5760403660031901126103ac57610f416020610f22611f1d565b604051809381926317d5759960e31b83526024359033600485016121c1565b0381857f00000000000000000000000000000000000000000000000000000000000000006001600160a01b03165af180156103af57610f86575b602060405160018152f35b6020813d602011610fb7575b81610f9f60209383611f95565b8101031261065557610fb191506121b4565b38610f7b565b3d9150610f92565b50346103ac5760403660031901126103ac576004356001600160401b03811161065557610ff0903690600401611fcf565b90602435916002831015610655576110109061100a6127b8565b50612d7a565b9182611022575b602083604051908152f35b60019061102e816120d7565b0361103f57506020905b9038611017565b600182018092116110535750602090611038565b634e487b7160e01b81526011600452602490fd5b50346103ac57806003193601126103ac5760405190806004549061108a826120f7565b808552916001811690811561112357506001146110c6575b610bd9846110b281860382611f95565b604051918291602083526020830190611edc565b600481527f8a35acfbc15ff81a39ae7d344fd709f28e8600b4aa8c65c6b64bfe7fe36bd19b939250905b808210611109575090915081016020016110b2826110a2565b9192600181602092548385880101520191019092916110f0565b60ff191660208087019190915292151560051b850190920192506110b291508390506110a2565b50346103ac57806003193601126103ac576040517f00000000000000000000000000000000000000000000000000000000000000006001600160a01b03168152602090f35b50346103ac5760203660031901126103ac57600435906001600160e01b0319821682036103ac5760206111c183612718565b604051908152f35b50346103ac57806003193601126103ac5761126c90610bd961120a7f0000000000000000000000000000000000000000000000000000000000000000612ec2565b916112347f0000000000000000000000000000000000000000000000000000000000000000612f26565b61127a60405191611246602084611f95565b8383526000368137604051968796600f60f81b885260e0602089015260e0880190611edc565b908682036040880152611edc565b9146606086015230608086015260a085015283820360c08501526120a3565b50346103ac57806003193601126103ac5760405163f29486a160e01b81523060048201526101a0816024817f00000000000000000000000000000000000000000000000000000000000000006001600160a01b03165afa9081156103af5760409291611316575b5060608282015191015182519182526020820152f35b61132f91506101a03d8111610a9b57610a8d8183611f95565b38611300565b50346103ac5760203660031901126103ac576020906040906001600160a01b0361135d611f1d565b168152600283522054604051908152f35b50346103ac5760203660031901126103ac576004356001600160401b0381116106555760e06003198236030112610655576040519060e082016001600160401b038111838210176114a75760405280600401356002811015610e5b5782526024810135602083015260448101356001600160401b038111610e5b576113f99060043691840101611fcf565b6040830152606481013560608301526084810135608083015260a48101356001600160a01b03811681036104bc5760a083015260c4810135906001600160401b038211610e5b570136602382011215610e5f5760048101356001600160401b0381116114a75760405191611477601f8301601f191660200184611f95565b818352366024828401011161068c57936020826111c19594936024839801838601378301015260c08201526124e0565b634e487b7160e01b84526041600452602484fd5b50346103ac5760203660031901126103ac576114d5611f1d565b604051633de222bb60e21b81523060048201526001600160a01b0391821660248201529190602090839060449082907f0000000000000000000000000000000000000000000000000000000000000000165afa9081156104c9579061049157602090604051908152f35b50346103ac57806003193601126103ac57606061155a6127b8565b604051918252151560208201526103e86040820152f35b50346103ac57806003193601126103ac5760206111c1612489565b50346103ac57806003193601126103ac57602060405167016345785d8a00008152f35b50346103ac57806003193601126103ac5761065133612d57565b50346103ac57806003193601126103ac576040516115e681611f7a565b6060808252602082019081526040808301848152905163ca4f280360e01b8152306004820152909190847f00000000000000000000000000000000000000000000000000000000000000006001600160a01b03168183602481845afa80156103af5760249383916116f1575b508652604051633f1b0def60e11b815230600482015292839182905afa9081156116e657906116bf9291866116ac97926116ca575b505081526103e883526040519485946020865251606060208701526080860190612066565b9051848203601f190160408601526120a3565b905160608301520390f35b6116de92503d8091833e610af38183611f95565b503880611687565b6040513d87823e3d90fd5b61170591503d8085833e610ef48183611f95565b38611652565b50346103ac5760207f8c5be1e5ebec7d5bd14f71427d1e84f3dd0314c0f7b2291e5b200ac8c7c3b92561173d3661202c565b92919390611749612a10565b6040519384526001600160a01b03908116941692a380f35b50346103ac57806003193601126103ac57604051908060055490611784826120f7565b808552916001811690811561112357506001146117ab57610bd9846110b281860382611f95565b600581527f036b6384b5eca791c62761152d0c79bb0604c104a5fb6f4eb0703f3154bb3db0939250905b8082106117ee575090915081016020016110b2826110a2565b9192600181602092548385880101520191019092916117d5565b50346103ac57806003193601126103ac5760206111c1612c41565b50346103ac57806003193601126103ac57602060405160128152f35b50346103ac57806003193601126103ac57602060405160008051602061304f8339815191528152f35b50346103ac5760403660031901126103ac5760043590602435916040516374eef59360e11b815230600482015260608160248160018060a01b037f0000000000000000000000000000000000000000000000000000000000000000165afa908115610aa257906118ec9184916103cd5750602001516001600160a01b031630612a57565b60018110611b865761c3508111611b77576119074284612317565b92620151808410611b685761191a6127b8565b949094611b59576103e88302928084046103e81481151715611b185785841115611b2c576305265c000290838204620151801484151715611b185760029161196561196b928861233a565b90612bb9565b11611b095761198361197d8495612be1565b92612be1565b9161199661199042612c14565b92612c14565b60068054608085811b63ffffffff60801b16604088811b600160401b600160801b03166001600160c01b03199094166001600160401b03978816908117949094179190911760a086901b63ffffffff60a01b16179093558251828152969094166020870181905263ffffffff95861692870183905294909216606086018190529194919290917f1835882ee7a34ac194f717a35e09bb1d24c82a3b9d854ab6c9749525b714cdf29190a160018060a01b037f0000000000000000000000000000000000000000000000000000000000000000169260405194602086015260408501526060840152608083015260808252611a9160a083611f95565b803b156103ba57611add839291839260405195868094819363c808824760e01b83526f105b5c155c19185d1954dd185c9d195960821b6004840152604060248401526044830190611edc565b03925af18015611afc57611aee5780f35b611af791611f95565b388180f35b50604051903d90823e3d90fd5b630e3845c960e11b8352600483fd5b634e487b7160e01b85526011600452602485fd5b5062015180850290858204620151801486151715611b1857600291611965611b54928661233a565b61196b565b6317980f3f60e11b8452600484fd5b6366b5811560e11b8352600483fd5b6309b80d3960e41b8252600482fd5b63ab92332360e01b8252600482fd5b50346103ac57806003193601126103ac576020604051674563918244f400008152f35b50346103ac5760207fddf252ad1be2c89b69c2b068fc378daa952ba7f163c4a11628f55a4df523b3ef61173d3661202c565b50346103ac57611bf93661202c565b604051630aed65f560e11b81523360048201526001600160a01b03938416602482015291831660448301526064820152906020908290608490829086907f0000000000000000000000000000000000000000000000000000000000000000165af180156103af57610f8657602060405160018152f35b50346103ac57806003193601126103ac576060604051611c8e81611f49565b828152826020820152826040820152015260a0611ca9612275565b63ffffffff60606040519260018060401b03815116845260018060401b03602082015116602085015282604082015116604085015201511660608201526103e86080820152f35b50346103ac57806003193601126103ac5760206111c16121e3565b50346103ac5760603660031901126103ac576004356001600160401b03811161065557611d3c903690600401611fcf565b90611d456127b8565b5090611d538361100a6127b8565b9081611d8e575b60206111c18585611d6d6044358761233a565b91602435926001670de0b6b3a764000060001983010401901515029161286e565b6002811015611dab576001820180921161105357506111c1611d5a565b634e487b7160e01b81526021600452602490fd5b50346103ac5760403660031901126103ac57610f416020611dde611f1d565b6040518093819263e1f21c6760e01b83526024359033600485016121c1565b50346103ac57806003193601126103ac57604051908060035490611e20826120f7565b80855291600181169081156111235750600114611e4757610bd9846110b281860382611f95565b600381527fc2575a0e9e593c00f959f8c92f12db2869c3395a3b0502d05e2516446f71f85b939250905b808210611e8a575090915081016020016110b2826110a2565b919260018160209254838588010152019101909291611e71565b9050346106555760203660031901126106555760043563ffffffff60e01b8116809103610e5f576301ffc9a760e01b14815260209150f35b919082519283825260005b848110611f08575050826000602080949584010152601f8019910116010190565b80602080928401015182828601015201611ee7565b600435906001600160a01b03821682036104bc57565b602435906001600160a01b03821682036104bc57565b608081019081106001600160401b03821117611f6457604052565b634e487b7160e01b600052604160045260246000fd5b606081019081106001600160401b03821117611f6457604052565b601f909101601f19168101906001600160401b03821190821017611f6457604052565b6001600160401b038111611f645760051b60200190565b9080601f830112156104bc578135611fe681611fb8565b92611ff46040519485611f95565b81845260208085019260051b8201019283116104bc57602001905b82821061201c5750505090565b813581526020918201910161200f565b60609060031901126104bc576004356001600160a01b03811681036104bc57906024356001600160a01b03811681036104bc579060443590565b906020808351928381520192019060005b8181106120845750505090565b82516001600160a01b0316845260209384019390920191600101612077565b906020808351928381520192019060005b8181106120c15750505090565b82518452602093840193909201916001016120b4565b600211156120e157565b634e487b7160e01b600052602160045260246000fd5b90600182811c92168015612127575b602083101461211157565b634e487b7160e01b600052602260045260246000fd5b91607f1691612106565b60009291815491612141836120f7565b8083529260018116908115612197575060011461215d57505050565b60009081526020812093945091925b83831061217d575060209250010190565b60018160209294939454838587010152019101919061216c565b915050602093945060ff929192191683830152151560051b010190565b519081151582036104bc57565b6001600160a01b03918216815291166020820152604081019190915260600190565b6040516339370aa960e21b81523060048201526020816024817f00000000000000000000000000000000000000000000000000000000000000006001600160a01b03165afa9081156122695760009161223a575090565b90506020813d602011612261575b8161225560209383611f95565b810103126104bc575190565b3d9150612248565b6040513d6000823e3d90fd5b6040519061228282611f49565b81606063ffffffff60065460018060401b038116845260018060401b038160401c166020850152818160801c16604085015260a01c16910152565b51906001600160a01b03821682036104bc57565b908160609103126104bc5761230f60408051926122ed84611f7a565b6122f6816122bd565b8452612304602082016122bd565b6020850152016122bd565b604082015290565b9190820391821161232457565b634e487b7160e01b600052601160045260246000fd5b8181029291811591840414171561232457565b9080601f830112156104bc5781519061236582611fb8565b926123736040519485611f95565b82845260208085019360051b8201019182116104bc57602001915b81831061239b5750505090565b82516001600160a01b03811681036104bc5781526020928301920161238e565b906020828203126104bc5781516001600160401b0381116104bc576123e0920161234d565b90565b9080601f830112156104bc5781516123fa81611fb8565b926124086040519485611f95565b81845260208085019260051b8201019283116104bc57602001905b8282106124305750505090565b8151815260209182019101612423565b9190916040818403126104bc5780516001600160401b0381116104bc57836124699183016123e3565b60208201519093906001600160401b0381116104bc576123e092016123e3565b604051634f037ee760e01b81523060048201526020816024817f00000000000000000000000000000000000000000000000000000000000000006001600160a01b03165afa9081156122695760009161223a575090565b604081019081516124f560009161100a6127b8565b90816125f2575b50906125066127b8565b50918151612513816120d7565b61251c816120d7565b612598576125839160209161257d6125696125899751936060810151938560808301519788930151996125598b612553898561285a565b51612766565b612563888461285a565b5261286e565b95612574838561285a565b5103918361285a565b5261285a565b51612317565b60001981019081116123245790565b6125dd916125e494519061257d6125c9606083015180958560206080870151960151996125598b612583898561285a565b956125d4838561285a565b5101918361285a565b5190612317565b600181018091116123245790565b50386124fc565b809103906101a082126104bc576040519160009061014084016001600160401b03811185821017610b25576040526080136103ac5760405161263a81611f49565b612643836121b4565b8152612651602084016121b4565b6020820152612662604084016121b4565b6040820152612673606084016121b4565b606082015283526080820151602084015260a0820151604084015260c0820151606084015260e082015164ffffffffff811681036106555760808401526101008201519063ffffffff821682036103ac575061270f916101809160a08501526126df61012082016121b4565b60c08501526126f161014082016121b4565b60e085015261270361016082016121b4565b610100850152016121b4565b61012082015290565b60405160208101917f0000000000000000000000000000000000000000000000000000000000000000835263ffffffff60e01b16604082015260248152612760604482611f95565b51902090565b9190820180921161232457565b906020828203126104bc5781516001600160401b0381116104bc576123e092016123e3565b81156127a2570490565b634e487b7160e01b600052601260045260246000fd5b6127c0612275565b8051602082015160408301516060909301516001600160401b0391821693929091169163ffffffff91821691164282111561282e57600193838082111561281657826128129403924203910302612798565b0191565b5081612829930391420390840302612798565b900391565b50505060009091565b8051156128445760200190565b634e487b7160e01b600052603260045260246000fd5b80518210156128445760209160051b010190565b91909161287d8351809261233a565b9061288784612837565b5161289b8261289587612837565b5161233a565b916001905b85878284106129ce576128bc9493506125dd925089915061285a565b936128c7848061233a565b956103e88702908782046103e81488151715612324576128f16128f7926119656128fe968861233a565b9261285a565b519061233a565b926103e883028381046103e814841517156123245761292e6129349261292861293e958894612798565b90612766565b95612766565b6119658584612766565b60005b60ff811061295a5763372f681760e21b60005260046000fd5b8161296e85612969838061233a565b612766565b908060011b908082046002149015171561232457600191611965866129968a61299b95612766565b612317565b9283818111156129be570311156129b6576001905b01612941565b509250505090565b900311156129b6576001906129b0565b612a08916129f1846129ec8798996128f7600198996129f69761285a565b61233a565b612798565b94612a01858a61285a565b5190612766565b9201906128a0565b7f00000000000000000000000000000000000000000000000000000000000000006001600160a01b03163303612a4257565b63089676d560e01b6000523360045260246000fd5b906001600160a01b031680612baf5750612a7c6000356001600160e01b031916612718565b60405163aaabadc560e01b815291906020836004817f00000000000000000000000000000000000000000000000000000000000000006001600160a01b03165afa92831561226957600093612b68575b506040516326f8aa2160e21b815260048101919091523360248201526001600160a01b0391821660448201529160209183916064918391165afa90811561226957600091612b2e575b5015612b1d57565b6323dada5360e01b60005260046000fd5b90506020813d602011612b60575b81612b4960209383611f95565b810103126104bc57612b5a906121b4565b38612b15565b3d9150612b3c565b6020939193813d602011612ba7575b81612b8460209383611f95565b810103126106555751906001600160a01b03821682036103ac5750916064612acc565b3d9150612b77565b90503303612b1d57565b908015612bd0576000198201046001019015150290565b630a0c22c760e01b60005260046000fd5b6001600160401b038111612bfb576001600160401b031690565b6306dfcc6560e41b600052604060045260245260446000fd5b63ffffffff8111612c285763ffffffff1690565b6306dfcc6560e41b600052602060045260245260446000fd5b307f00000000000000000000000000000000000000000000000000000000000000006001600160a01b03161480612d2e575b15612c9c577f000000000000000000000000000000000000000000000000000000000000000090565b60405160208101907f8b73c3c69bb8fe3d512ecc4cf759cc79239f7b179b0ffacaa9a75d522b39400f82527f000000000000000000000000000000000000000000000000000000000000000060408201527f000000000000000000000000000000000000000000000000000000000000000060608201524660808201523060a082015260a0815261276060c082611f95565b507f00000000000000000000000000000000000000000000000000000000000000004614612c73565b6001600160a01b0316600090815260026020526040902080546001810190915590565b60008251815b818110612eaa57508115612ea157919092612d9c83859361233a565b926000916103e7198501858111926001810194858211965b60ff8210612dcc576208651960e51b60005260046000fd5b8060005b848110612e6e5750908187612e01826129ec8f8f9a9998976103e891612df6919c61233a565b04612928898861233a565b90612324576103e8612e148c938861233a565b049161232457612e2d612e33926129286001958d61233a565b90612798565b948581811115612e5e57031115612e51576001905b01909192612db4565b5050509550505050505090565b90031115612e5157600190612e48565b95909493929a91612e92612e848760019361233a565b612e2d866128958b8761285a565b96019a9293949095919a612dd0565b50505050600090565b91612ebb600191612a01858861285a565b9201612d80565b60ff8114612f0c5760ff811690601f8211612efb576040805192612ee68285611f95565b6020808552840191601f190136833783525290565b632cd44ac360e21b60005260046000fd5b506040516123e081612f1f816000612131565b0382611f95565b60ff8114612f4a5760ff811690601f8211612efb576040805192612ee68285611f95565b506040516123e081612f1f816001612131565b91906fa2a8918ca85bafe22016d0b997e4df60600160ff1b038411612fd0579160209360809260ff60009560405194855216868401526040830152606082015282805260015afa15612269576000516001600160a01b03811615612fc45790600090600090565b50600090600190600090565b50505060009160039190565b91909160048110156120e15780612ff257509050565b60006001820361300d5763f645eedf60e01b60005260046000fd5b506002810361302b578263fce698f760e01b60005260045260246000fd5b909160036000921461303b575050565b6335e2f38360e21b825260045260249150fdfe6e71edae12b1b97f4d1f60370fef10105fa2faae0126114a169c64845d6126c9a2646970667358221220f36b3ac2dc3fb6616f82a5db9493f652881149a65c717e2625960058526079b464736f6c634300081a0033",
  "linkReferences": {},
  "deployedLinkReferences": {}
}