{
  "_format": "hh-sol-artifact-1",
  "contractName": "PoolInfo",
  "sourceName": "contracts/PoolInfo.sol",
  "abi": [
    {
      "inputs": [
        {
          "internalType": "contract IVault",
          "name": "vault",
          "type": "address"
        }
      ],
      "stateMutability": "nonpayable",
      "type": "constructor"
    },
    {
      "inputs": [],
      "name": "getAggregateFeePercentages",
      "outputs": [
        {
          "internalType": "uint256",
          "name": "aggregateSwapFeePercentage",
          "type": "uint256"
        },
        {
          "internalType": "uint256",
          "name": "aggregateYieldFeePercentage",
          "type": "uint256"
        }
      ],
      "stateMutability": "view",
      "type": "function"
    },
    {
      "inputs": [],
      "name": "getCurrentLiveBalances",
      "outputs": [
        {
          "internalType": "uint256[]",
          "name": "balancesLiveScaled18",
          "type": "uint256[]"
        }
      ],
      "stateMutability": "view",
      "type": "function"
    },
    {
      "inputs": [],
      "name": "getStaticSwapFeePercentage",
      "outputs": [
        {
          "internalType": "uint256",
          "name": "",
          "type": "uint256"
        }
      ],
      "stateMutability": "view",
      "type": "function"
    },
    {
      "inputs": [],
      "name": "getTokenInfo",
      "outputs": [
        {
          "internalType": "contract IERC20[]",
          "name": "tokens",
          "type": "address[]"
        },
        {
          "components": [
            {
              "internalType": "enum TokenType",
              "name": "tokenType",
              "type": "uint8"
            },
            {
              "internalType": "contract IRateProvider",
              "name": "rateProvider",
              "type": "address"
            },
            {
              "internalType": "bool",
              "name": "paysYieldFees",
              "type": "bool"
            }
          ],
          "internalType": "struct TokenInfo[]",
          "name": "tokenInfo",
          "type": "tuple[]"
        },
        {
          "internalType": "uint256[]",
          "name": "balancesRaw",
          "type": "uint256[]"
        },
        {
          "internalType": "uint256[]",
          "name": "lastBalancesLiveScaled18",
          "type": "uint256[]"
        }
      ],
      "stateMutability": "view",
      "type": "function"
    },
    {
      "inputs": [],
      "name": "getTokens",
      "outputs": [
        {
          "internalType": "contract IERC20[]",
          "name": "tokens",
          "type": "address[]"
        }
      ],
      "stateMutability": "view",
      "type": "function"
    }
  ],
  "bytecode": "0x60a034608157601f61097138819003918201601f19168301916001600160401b03831184841017608657808492602094604052833981010312608157516001600160a01b03811681036081576080526040516108d4908161009d8239608051818181608201528181610135015281816101fe0152818161049801526105540152f35b600080fd5b634e487b7160e01b600052604160045260246000fdfe608080604052600436101561001357600080fd5b60003560e01c90816381fa807c1461052a57508063aa6ca8081461046c578063abb1dc44146101d2578063b156aa0a146101095763d335b0cf1461005657600080fd5b346100f05760003660031901126100f05760405163b45090f960e01b81523060048201526020816024817f00000000000000000000000000000000000000000000000000000000000000006001600160a01b03165afa80156100fd576000906100c5575b602090604051908152f35b506020813d6020116100f5575b816100df60209383610776565b810103126100f057602090516100ba565b600080fd5b3d91506100d2565b6040513d6000823e3d90fd5b346100f05760003660031901126100f0576040516329ae7ec560e11b81523060048201526000816024817f00000000000000000000000000000000000000000000000000000000000000006001600160a01b03165afa80156100fd57600090610189575b61018590604051918291602083526020830190610742565b0390f35b3d8082843e6101988184610776565b8201916020818403126101ce578051916001600160401b0383116101cb5750916101c6916101859301610841565b61016d565b80fd5b5080fd5b346100f05760003660031901126100f0576040516333f0703b60e11b81523060048201526000816024817f00000000000000000000000000000000000000000000000000000000000000006001600160a01b03165afa80156100fd576000908192829083926102f4575b5061025260405193608085526080850190610705565b83810360208501526020808651928381520195019060005b818110610297578580610185876102898b898582036040870152610742565b908382036060850152610742565b909195865180519060028210156102de579082526020808201516001600160a01b03168184015260409182015115159183019190915260609091019601919060010161026a565b634e487b7160e01b600052602160045260246000fd5b935050503d8082843e6103078184610776565b82016080838203126101ce5782516001600160401b038111610468578161032f9185016107d3565b60208401519091906001600160401b0381116104645784019281601f850112156101cb57835161035e816107bc565b9461036c6040519687610776565b8186526020606081880193028201019084821161046457602001915b8183106103dd5750505060408501516001600160401b0381116101ce57826103b1918701610841565b6060860151909590916001600160401b0383116101cb57506103d4929101610841565b9091928461023c565b60608386031261046457604051606081016001600160401b03811182821017610450576040528351600281101561044c57815260208401516001600160a01b038116810361044c57918160609360208094015261043c604087016107af565b6040820152815201920191610388565b8580fd5b634e487b7160e01b86526041600452602486fd5b8380fd5b8280fd5b346100f05760003660031901126100f05760405163ca4f280360e01b81523060048201526000816024817f00000000000000000000000000000000000000000000000000000000000000006001600160a01b03165afa80156100fd576000906104e8575b61018590604051918291602083526020830190610705565b3d8082843e6104f78184610776565b8201916020818403126101ce578051916001600160401b0383116101cb5750916105259161018593016107d3565b6104d0565b346100f05760003660031901126100f05763f29486a160e01b81523060048201526101a0816024817f00000000000000000000000000000000000000000000000000000000000000006001600160a01b03165afa80156100fd576000906105a4575b80606060408093015191015182519182526020820152f35b816101a03d81116106fe575b6105ba8183610776565b810103906101a082126101cb576040519161014083016001600160401b038111848210176106ea576040526080136101cb57604051608081016001600160401b038111828210176106ea57604052610611846107af565b815261061f602085016107af565b6020820152610630604085016107af565b6040820152610641606085016107af565b606082015282526080830151602083015260a0830151604083015260c0830151606083015260e083015164ffffffffff811681036101ce5760808301526101008301519063ffffffff821682036101cb57506101806040936106df9260a08501526106af61012082016107af565b60c08501526106c161014082016107af565b60e08501526106d361016082016107af565b610100850152016107af565b61012082015261058c565b634e487b7160e01b83526041600452602483fd5b503d6105b0565b906020808351928381520192019060005b8181106107235750505090565b82516001600160a01b0316845260209384019390920191600101610716565b906020808351928381520192019060005b8181106107605750505090565b8251845260209384019390920191600101610753565b601f909101601f19168101906001600160401b0382119082101761079957604052565b634e487b7160e01b600052604160045260246000fd5b519081151582036100f057565b6001600160401b0381116107995760051b60200190565b9080601f830112156100f0578151906107eb826107bc565b926107f96040519485610776565b82845260208085019360051b8201019182116100f057602001915b8183106108215750505090565b82516001600160a01b03811681036100f057815260209283019201610814565b9080601f830112156100f0578151610858816107bc565b926108666040519485610776565b81845260208085019260051b8201019283116100f057602001905b82821061088e5750505090565b815181526020918201910161088156fea2646970667358221220d4f76063a7ce7e00b7759d2408eca5cdde03a34a09887ecaa1895664c33fce8064736f6c634300081a0033",
  "linkReferences": {},
  "deployedLinkReferences": {}
}