{
  "_format": "hh-sol-artifact-1",
  "contractName": "PoolInfo",
  "sourceName": "contracts/PoolInfo.sol",
  "abi": [
    {
      "inputs": [
        {
          "internalType": "contract IVault",
          "name": "vault",
          "type": "address"
        }
      ],
      "stateMutability": "nonpayable",
      "type": "constructor"
    },
    {
      "inputs": [],
      "name": "getAggregateFeePercentages",
      "outputs": [
        {
          "internalType": "uint256",
          "name": "aggregateSwapFeePercentage",
          "type": "uint256"
        },
        {
          "internalType": "uint256",
          "name": "aggregateYieldFeePercentage",
          "type": "uint256"
        }
      ],
      "stateMutability": "view",
      "type": "function"
    },
    {
      "inputs": [],
      "name": "getCurrentLiveBalances",
      "outputs": [
        {
          "internalType": "uint256[]",
          "name": "balancesLiveScaled18",
          "type": "uint256[]"
        }
      ],
      "stateMutability": "view",
      "type": "function"
    },
    {
      "inputs": [],
      "name": "getStaticSwapFeePercentage",
      "outputs": [
        {
          "internalType": "uint256",
          "name": "",
          "type": "uint256"
        }
      ],
      "stateMutability": "view",
      "type": "function"
    },
    {
      "inputs": [],
      "name": "getTokenInfo",
      "outputs": [
        {
          "internalType": "contract IERC20[]",
          "name": "tokens",
          "type": "address[]"
        },
        {
          "components": [
            {
              "internalType": "enum TokenType",
              "name": "tokenType",
              "type": "uint8"
            },
            {
              "internalType": "contract IRateProvider",
              "name": "rateProvider",
              "type": "address"
            },
            {
              "internalType": "bool",
              "name": "paysYieldFees",
              "type": "bool"
            }
          ],
          "internalType": "struct TokenInfo[]",
          "name": "tokenInfo",
          "type": "tuple[]"
        },
        {
          "internalType": "uint256[]",
          "name": "balancesRaw",
          "type": "uint256[]"
        },
        {
          "internalType": "uint256[]",
          "name": "lastBalancesLiveScaled18",
          "type": "uint256[]"
        }
      ],
      "stateMutability": "view",
      "type": "function"
    },
    {
      "inputs": [],
      "name": "getTokens",
      "outputs": [
        {
          "internalType": "contract IERC20[]",
          "name": "tokens",
          "type": "address[]"
        }
      ],
      "stateMutability": "view",
      "type": "function"
    }
  ],
  "bytecode": "0x60a034608157601f61091638819003918201601f19168301916001600160401b03831184841017608557808492602094604052833981010312608157516001600160a01b038116810360815760805260405161087c908161009a8239608051818181607e0152818161012c015281816101ea0152818161046f01526105280152f35b5f80fd5b634e487b7160e01b5f52604160045260245ffdfe6080806040526004361015610012575f80fd5b5f3560e01c90816381fa807c146104ff57508063aa6ca80814610445578063abb1dc44146101c0578063b156aa0a146101025763d335b0cf14610053575f80fd5b346100eb575f3660031901126100eb5760405163b45090f960e01b81523060048201526020816024817f00000000000000000000000000000000000000000000000000000000000000006001600160a01b03165afa80156100f7575f906100c0575b602090604051908152f35b506020813d6020116100ef575b816100da60209383610734565b810103126100eb57602090516100b5565b5f80fd5b3d91506100cd565b6040513d5f823e3d90fd5b346100eb575f3660031901126100eb576040516329ae7ec560e11b81523060048201525f816024817f00000000000000000000000000000000000000000000000000000000000000006001600160a01b03165afa80156100f7575f9061017f575b61017b90604051918291602083526020830190610701565b0390f35b503d805f833e61018f8183610734565b8101906020818303126100eb578051916001600160401b0383116100eb5761017b926101bb92016107e9565b610163565b346100eb575f3660031901126100eb576040516333f0703b60e11b81523060048201525f816024817f00000000000000000000000000000000000000000000000000000000000000006001600160a01b03165afa80156100f7575f905f925f905f926102dc575b5061023d604051936080855260808501906106c5565b8381036020850152602080865192838152019501905f5b81811061028157858061017b876102738b898582036040870152610701565b908382036060850152610701565b909195865180519060028210156102c8579082526020808201516001600160a01b031681840152604091820151151591830191909152606090910196019190600101610254565b634e487b7160e01b5f52602160045260245ffd5b93505050503d805f833e6102f08183610734565b8101906080818303126100eb5780516001600160401b0381116100eb578261031991830161077b565b60208201516001600160401b0381116100eb5782019183601f840112156100eb57825161034581610764565b936103536040519586610734565b818552602060608187019302820101908682116100eb57602001915b8183106103c15750505060408101516001600160401b0381116100eb57846103989183016107e9565b60608201519094906001600160401b0381116100eb576103b892016107e9565b90919284610227565b6060838803126100eb5760405190606082016001600160401b0381118382101761043157604052835160028110156100eb5782526020840151906001600160a01b03821682036100eb578260209283606095015261042160408701610757565b604082015281520192019161036f565b634e487b7160e01b5f52604160045260245ffd5b346100eb575f3660031901126100eb5760405163ca4f280360e01b81523060048201525f816024817f00000000000000000000000000000000000000000000000000000000000000006001600160a01b03165afa80156100f7575f906104be575b61017b906040519182916020835260208301906106c5565b503d805f833e6104ce8183610734565b8101906020818303126100eb578051916001600160401b0383116100eb5761017b926104fa920161077b565b6104a6565b346100eb575f3660031901126100eb5763f29486a160e01b81523060048201526101a0816024817f00000000000000000000000000000000000000000000000000000000000000006001600160a01b03165afa80156100f7575f90610577575b80606060408093015191015182519182526020820152f35b50806101a03d81116106be575b61058e8183610734565b8101036101a081126100eb57604051906101408201906001600160401b0382118383101761043157608091604052126100eb57604051608081016001600160401b03811182821017610431576040526105e683610757565b81526105f460208401610757565b602082015261060560408401610757565b604082015261061660608401610757565b606082015281526080820151602082015260a0820151604082015260c0820151606082015260e082015164ffffffffff811681036100eb5760808201526101008201519163ffffffff831683036100eb576101806106b39160409460a08501526106836101208201610757565b60c08501526106956101408201610757565b60e08501526106a76101608201610757565b61010085015201610757565b61012082015261055f565b503d610584565b90602080835192838152019201905f5b8181106106e25750505090565b82516001600160a01b03168452602093840193909201916001016106d5565b90602080835192838152019201905f5b81811061071e5750505090565b8251845260209384019390920191600101610711565b601f909101601f19168101906001600160401b0382119082101761043157604052565b519081151582036100eb57565b6001600160401b0381116104315760051b60200190565b9080601f830112156100eb5781519061079382610764565b926107a16040519485610734565b82845260208085019360051b8201019182116100eb57602001915b8183106107c95750505090565b82516001600160a01b03811681036100eb578152602092830192016107bc565b9080601f830112156100eb57815161080081610764565b9261080e6040519485610734565b81845260208085019260051b8201019283116100eb57602001905b8282106108365750505090565b815181526020918201910161082956fea2646970667358221220b68748ae35ad0a82ca29840091001b9ef1bec7ea77a9e39f61fdea9cddbce5ae64736f6c634300081a0033",
  "linkReferences": {},
  "deployedLinkReferences": {}
}