{
  "_format": "hh-sol-artifact-1",
  "contractName": "VaultExtension",
  "sourceName": "contracts/_VaultExtension.sol",
  "abi": [
    {
      "inputs": [
        {
          "internalType": "contract IVault",
          "name": "mainVault",
          "type": "address"
        },
        {
          "internalType": "contract IVaultAdmin",
          "name": "vaultAdmin",
          "type": "address"
        }
      ],
      "stateMutability": "nonpayable",
      "type": "constructor"
    },
    {
      "inputs": [
        {
          "internalType": "address",
          "name": "target",
          "type": "address"
        }
      ],
      "name": "AddressEmptyCode",
      "type": "error"
    },
    {
      "inputs": [],
      "name": "AfterAddLiquidityHookFailed",
      "type": "error"
    },
    {
      "inputs": [],
      "name": "AfterInitializeHookFailed",
      "type": "error"
    },
    {
      "inputs": [],
      "name": "AfterRemoveLiquidityHookFailed",
      "type": "error"
    },
    {
      "inputs": [],
      "name": "AfterSwapHookFailed",
      "type": "error"
    },
    {
      "inputs": [],
      "name": "AmountGivenZero",
      "type": "error"
    },
    {
      "inputs": [
        {
          "internalType": "contract IERC20",
          "name": "tokenIn",
          "type": "address"
        },
        {
          "internalType": "uint256",
          "name": "amountIn",
          "type": "uint256"
        },
        {
          "internalType": "uint256",
          "name": "maxAmountIn",
          "type": "uint256"
        }
      ],
      "name": "AmountInAboveMax",
      "type": "error"
    },
    {
      "inputs": [
        {
          "internalType": "contract IERC20",
          "name": "tokenOut",
          "type": "address"
        },
        {
          "internalType": "uint256",
          "name": "amountOut",
          "type": "uint256"
        },
        {
          "internalType": "uint256",
          "name": "minAmountOut",
          "type": "uint256"
        }
      ],
      "name": "AmountOutBelowMin",
      "type": "error"
    },
    {
      "inputs": [],
      "name": "BalanceNotSettled",
      "type": "error"
    },
    {
      "inputs": [],
      "name": "BalanceOverflow",
      "type": "error"
    },
    {
      "inputs": [],
      "name": "BeforeAddLiquidityHookFailed",
      "type": "error"
    },
    {
      "inputs": [],
      "name": "BeforeInitializeHookFailed",
      "type": "error"
    },
    {
      "inputs": [],
      "name": "BeforeRemoveLiquidityHookFailed",
      "type": "error"
    },
    {
      "inputs": [],
      "name": "BeforeSwapHookFailed",
      "type": "error"
    },
    {
      "inputs": [
        {
          "internalType": "uint256",
          "name": "amountIn",
          "type": "uint256"
        },
        {
          "internalType": "uint256",
          "name": "maxAmountIn",
          "type": "uint256"
        }
      ],
      "name": "BptAmountInAboveMax",
      "type": "error"
    },
    {
      "inputs": [
        {
          "internalType": "uint256",
          "name": "amountOut",
          "type": "uint256"
        },
        {
          "internalType": "uint256",
          "name": "minAmountOut",
          "type": "uint256"
        }
      ],
      "name": "BptAmountOutBelowMin",
      "type": "error"
    },
    {
      "inputs": [
        {
          "internalType": "contract IERC4626",
          "name": "wrappedToken",
          "type": "address"
        }
      ],
      "name": "BufferAlreadyInitialized",
      "type": "error"
    },
    {
      "inputs": [
        {
          "internalType": "contract IERC4626",
          "name": "wrappedToken",
          "type": "address"
        }
      ],
      "name": "BufferNotInitialized",
      "type": "error"
    },
    {
      "inputs": [],
      "name": "BufferSharesInvalidOwner",
      "type": "error"
    },
    {
      "inputs": [],
      "name": "BufferSharesInvalidReceiver",
      "type": "error"
    },
    {
      "inputs": [
        {
          "internalType": "uint256",
          "name": "totalSupply",
          "type": "uint256"
        }
      ],
      "name": "BufferTotalSupplyTooLow",
      "type": "error"
    },
    {
      "inputs": [],
      "name": "CannotReceiveEth",
      "type": "error"
    },
    {
      "inputs": [],
      "name": "CannotSwapSameToken",
      "type": "error"
    },
    {
      "inputs": [],
      "name": "CodecOverflow",
      "type": "error"
    },
    {
      "inputs": [],
      "name": "DoesNotSupportAddLiquidityCustom",
      "type": "error"
    },
    {
      "inputs": [],
      "name": "DoesNotSupportDonation",
      "type": "error"
    },
    {
      "inputs": [],
      "name": "DoesNotSupportRemoveLiquidityCustom",
      "type": "error"
    },
    {
      "inputs": [],
      "name": "DoesNotSupportUnbalancedLiquidity",
      "type": "error"
    },
    {
      "inputs": [],
      "name": "DynamicSwapFeeHookFailed",
      "type": "error"
    },
    {
      "inputs": [
        {
          "internalType": "address",
          "name": "spender",
          "type": "address"
        },
        {
          "internalType": "uint256",
          "name": "allowance",
          "type": "uint256"
        },
        {
          "internalType": "uint256",
          "name": "needed",
          "type": "uint256"
        }
      ],
      "name": "ERC20InsufficientAllowance",
      "type": "error"
    },
    {
      "inputs": [
        {
          "internalType": "address",
          "name": "sender",
          "type": "address"
        },
        {
          "internalType": "uint256",
          "name": "balance",
          "type": "uint256"
        },
        {
          "internalType": "uint256",
          "name": "needed",
          "type": "uint256"
        }
      ],
      "name": "ERC20InsufficientBalance",
      "type": "error"
    },
    {
      "inputs": [
        {
          "internalType": "address",
          "name": "approver",
          "type": "address"
        }
      ],
      "name": "ERC20InvalidApprover",
      "type": "error"
    },
    {
      "inputs": [
        {
          "internalType": "address",
          "name": "receiver",
          "type": "address"
        }
      ],
      "name": "ERC20InvalidReceiver",
      "type": "error"
    },
    {
      "inputs": [
        {
          "internalType": "address",
          "name": "sender",
          "type": "address"
        }
      ],
      "name": "ERC20InvalidSender",
      "type": "error"
    },
    {
      "inputs": [
        {
          "internalType": "address",
          "name": "spender",
          "type": "address"
        }
      ],
      "name": "ERC20InvalidSpender",
      "type": "error"
    },
    {
      "inputs": [],
      "name": "ErrorSelectorNotFound",
      "type": "error"
    },
    {
      "inputs": [],
      "name": "FailedCall",
      "type": "error"
    },
    {
      "inputs": [],
      "name": "FeePrecisionTooHigh",
      "type": "error"
    },
    {
      "inputs": [
        {
          "internalType": "contract IERC20",
          "name": "tokenIn",
          "type": "address"
        },
        {
          "internalType": "uint256",
          "name": "amountIn",
          "type": "uint256"
        },
        {
          "internalType": "uint256",
          "name": "maxAmountIn",
          "type": "uint256"
        }
      ],
      "name": "HookAdjustedAmountInAboveMax",
      "type": "error"
    },
    {
      "inputs": [
        {
          "internalType": "contract IERC20",
          "name": "tokenOut",
          "type": "address"
        },
        {
          "internalType": "uint256",
          "name": "amountOut",
          "type": "uint256"
        },
        {
          "internalType": "uint256",
          "name": "minAmountOut",
          "type": "uint256"
        }
      ],
      "name": "HookAdjustedAmountOutBelowMin",
      "type": "error"
    },
    {
      "inputs": [
        {
          "internalType": "uint256",
          "name": "amount",
          "type": "uint256"
        },
        {
          "internalType": "uint256",
          "name": "limit",
          "type": "uint256"
        }
      ],
      "name": "HookAdjustedSwapLimit",
      "type": "error"
    },
    {
      "inputs": [
        {
          "internalType": "address",
          "name": "poolHooksContract",
          "type": "address"
        },
        {
          "internalType": "address",
          "name": "pool",
          "type": "address"
        },
        {
          "internalType": "address",
          "name": "poolFactory",
          "type": "address"
        }
      ],
      "name": "HookRegistrationFailed",
      "type": "error"
    },
    {
      "inputs": [],
      "name": "InputLengthMismatch",
      "type": "error"
    },
    {
      "inputs": [
        {
          "internalType": "uint256",
          "name": "balance",
          "type": "uint256"
        },
        {
          "internalType": "uint256",
          "name": "needed",
          "type": "uint256"
        }
      ],
      "name": "InsufficientBalance",
      "type": "error"
    },
    {
      "inputs": [],
      "name": "InvalidAddLiquidityKind",
      "type": "error"
    },
    {
      "inputs": [],
      "name": "InvalidRemoveLiquidityKind",
      "type": "error"
    },
    {
      "inputs": [],
      "name": "InvalidToken",
      "type": "error"
    },
    {
      "inputs": [],
      "name": "InvalidTokenConfiguration",
      "type": "error"
    },
    {
      "inputs": [],
      "name": "InvalidTokenDecimals",
      "type": "error"
    },
    {
      "inputs": [],
      "name": "InvalidTokenType",
      "type": "error"
    },
    {
      "inputs": [
        {
          "internalType": "contract IERC4626",
          "name": "wrappedToken",
          "type": "address"
        }
      ],
      "name": "InvalidUnderlyingToken",
      "type": "error"
    },
    {
      "inputs": [
        {
          "internalType": "uint256",
          "name": "issuedShares",
          "type": "uint256"
        },
        {
          "internalType": "uint256",
          "name": "minIssuedShares",
          "type": "uint256"
        }
      ],
      "name": "IssuedSharesBelowMin",
      "type": "error"
    },
    {
      "inputs": [],
      "name": "MaxTokens",
      "type": "error"
    },
    {
      "inputs": [],
      "name": "MinTokens",
      "type": "error"
    },
    {
      "inputs": [],
      "name": "NotEnoughBufferShares",
      "type": "error"
    },
    {
      "inputs": [
        {
          "internalType": "contract IERC4626",
          "name": "wrappedToken",
          "type": "address"
        },
        {
          "internalType": "uint256",
          "name": "expectedUnderlyingAmount",
          "type": "uint256"
        },
        {
          "internalType": "uint256",
          "name": "actualUnderlyingAmount",
          "type": "uint256"
        }
      ],
      "name": "NotEnoughUnderlying",
      "type": "error"
    },
    {
      "inputs": [
        {
          "internalType": "contract IERC4626",
          "name": "wrappedToken",
          "type": "address"
        },
        {
          "internalType": "uint256",
          "name": "expectedWrappedAmount",
          "type": "uint256"
        },
        {
          "internalType": "uint256",
          "name": "actualWrappedAmount",
          "type": "uint256"
        }
      ],
      "name": "NotEnoughWrapped",
      "type": "error"
    },
    {
      "inputs": [],
      "name": "NotStaticCall",
      "type": "error"
    },
    {
      "inputs": [],
      "name": "NotVaultDelegateCall",
      "type": "error"
    },
    {
      "inputs": [],
      "name": "OutOfBounds",
      "type": "error"
    },
    {
      "inputs": [],
      "name": "PauseBufferPeriodDurationTooLarge",
      "type": "error"
    },
    {
      "inputs": [],
      "name": "PercentageAboveMax",
      "type": "error"
    },
    {
      "inputs": [
        {
          "internalType": "address",
          "name": "pool",
          "type": "address"
        }
      ],
      "name": "PoolAlreadyInitialized",
      "type": "error"
    },
    {
      "inputs": [
        {
          "internalType": "address",
          "name": "pool",
          "type": "address"
        }
      ],
      "name": "PoolAlreadyRegistered",
      "type": "error"
    },
    {
      "inputs": [
        {
          "internalType": "address",
          "name": "pool",
          "type": "address"
        }
      ],
      "name": "PoolInRecoveryMode",
      "type": "error"
    },
    {
      "inputs": [
        {
          "internalType": "address",
          "name": "pool",
          "type": "address"
        }
      ],
      "name": "PoolNotInRecoveryMode",
      "type": "error"
    },
    {
      "inputs": [
        {
          "internalType": "address",
          "name": "pool",
          "type": "address"
        }
      ],
      "name": "PoolNotInitialized",
      "type": "error"
    },
    {
      "inputs": [
        {
          "internalType": "address",
          "name": "pool",
          "type": "address"
        }
      ],
      "name": "PoolNotPaused",
      "type": "error"
    },
    {
      "inputs": [
        {
          "internalType": "address",
          "name": "pool",
          "type": "address"
        }
      ],
      "name": "PoolNotRegistered",
      "type": "error"
    },
    {
      "inputs": [
        {
          "internalType": "address",
          "name": "pool",
          "type": "address"
        }
      ],
      "name": "PoolPauseWindowExpired",
      "type": "error"
    },
    {
      "inputs": [
        {
          "internalType": "address",
          "name": "pool",
          "type": "address"
        }
      ],
      "name": "PoolPaused",
      "type": "error"
    },
    {
      "inputs": [
        {
          "internalType": "uint256",
          "name": "totalSupply",
          "type": "uint256"
        }
      ],
      "name": "PoolTotalSupplyTooLow",
      "type": "error"
    },
    {
      "inputs": [],
      "name": "ProtocolFeesExceedTotalCollected",
      "type": "error"
    },
    {
      "inputs": [],
      "name": "QueriesDisabled",
      "type": "error"
    },
    {
      "inputs": [],
      "name": "QueriesDisabledPermanently",
      "type": "error"
    },
    {
      "inputs": [],
      "name": "QuoteResultSpoofed",
      "type": "error"
    },
    {
      "inputs": [],
      "name": "ReentrancyGuardReentrantCall",
      "type": "error"
    },
    {
      "inputs": [
        {
          "internalType": "bytes",
          "name": "result",
          "type": "bytes"
        }
      ],
      "name": "Result",
      "type": "error"
    },
    {
      "inputs": [],
      "name": "RouterNotTrusted",
      "type": "error"
    },
    {
      "inputs": [
        {
          "internalType": "uint256",
          "name": "value",
          "type": "uint256"
        }
      ],
      "name": "SafeCastOverflowedUintToInt",
      "type": "error"
    },
    {
      "inputs": [
        {
          "internalType": "address",
          "name": "sender",
          "type": "address"
        }
      ],
      "name": "SenderIsNotVault",
      "type": "error"
    },
    {
      "inputs": [],
      "name": "SwapFeePercentageTooHigh",
      "type": "error"
    },
    {
      "inputs": [],
      "name": "SwapFeePercentageTooLow",
      "type": "error"
    },
    {
      "inputs": [
        {
          "internalType": "uint256",
          "name": "amount",
          "type": "uint256"
        },
        {
          "internalType": "uint256",
          "name": "limit",
          "type": "uint256"
        }
      ],
      "name": "SwapLimit",
      "type": "error"
    },
    {
      "inputs": [
        {
          "internalType": "contract IERC20",
          "name": "token",
          "type": "address"
        }
      ],
      "name": "TokenAlreadyRegistered",
      "type": "error"
    },
    {
      "inputs": [
        {
          "internalType": "contract IERC20",
          "name": "token",
          "type": "address"
        }
      ],
      "name": "TokenNotRegistered",
      "type": "error"
    },
    {
      "inputs": [
        {
          "internalType": "address",
          "name": "pool",
          "type": "address"
        },
        {
          "internalType": "address",
          "name": "expectedToken",
          "type": "address"
        },
        {
          "internalType": "address",
          "name": "actualToken",
          "type": "address"
        }
      ],
      "name": "TokensMismatch",
      "type": "error"
    },
    {
      "inputs": [],
      "name": "TokensNotSorted",
      "type": "error"
    },
    {
      "inputs": [],
      "name": "TradeAmountTooSmall",
      "type": "error"
    },
    {
      "inputs": [],
      "name": "VaultBuffersArePaused",
      "type": "error"
    },
    {
      "inputs": [],
      "name": "VaultIsNotUnlocked",
      "type": "error"
    },
    {
      "inputs": [],
      "name": "VaultNotPaused",
      "type": "error"
    },
    {
      "inputs": [],
      "name": "VaultPauseWindowDurationTooLarge",
      "type": "error"
    },
    {
      "inputs": [],
      "name": "VaultPauseWindowExpired",
      "type": "error"
    },
    {
      "inputs": [],
      "name": "VaultPaused",
      "type": "error"
    },
    {
      "inputs": [
        {
          "internalType": "contract IERC4626",
          "name": "wrappedToken",
          "type": "address"
        }
      ],
      "name": "WrapAmountTooSmall",
      "type": "error"
    },
    {
      "inputs": [],
      "name": "WrongProtocolFeeControllerDeployment",
      "type": "error"
    },
    {
      "inputs": [
        {
          "internalType": "contract IERC4626",
          "name": "wrappedToken",
          "type": "address"
        },
        {
          "internalType": "address",
          "name": "underlyingToken",
          "type": "address"
        }
      ],
      "name": "WrongUnderlyingToken",
      "type": "error"
    },
    {
      "inputs": [],
      "name": "WrongVaultAdminDeployment",
      "type": "error"
    },
    {
      "inputs": [],
      "name": "WrongVaultExtensionDeployment",
      "type": "error"
    },
    {
      "anonymous": false,
      "inputs": [
        {
          "indexed": true,
          "internalType": "address",
          "name": "pool",
          "type": "address"
        },
        {
          "indexed": false,
          "internalType": "uint256",
          "name": "aggregateSwapFeePercentage",
          "type": "uint256"
        }
      ],
      "name": "AggregateSwapFeePercentageChanged",
      "type": "event"
    },
    {
      "anonymous": false,
      "inputs": [
        {
          "indexed": true,
          "internalType": "address",
          "name": "pool",
          "type": "address"
        },
        {
          "indexed": false,
          "internalType": "uint256",
          "name": "aggregateYieldFeePercentage",
          "type": "uint256"
        }
      ],
      "name": "AggregateYieldFeePercentageChanged",
      "type": "event"
    },
    {
      "anonymous": false,
      "inputs": [
        {
          "indexed": true,
          "internalType": "address",
          "name": "pool",
          "type": "address"
        },
        {
          "indexed": true,
          "internalType": "address",
          "name": "owner",
          "type": "address"
        },
        {
          "indexed": true,
          "internalType": "address",
          "name": "spender",
          "type": "address"
        },
        {
          "indexed": false,
          "internalType": "uint256",
          "name": "value",
          "type": "uint256"
        }
      ],
      "name": "Approval",
      "type": "event"
    },
    {
      "anonymous": false,
      "inputs": [
        {
          "indexed": true,
          "internalType": "contract IAuthorizer",
          "name": "newAuthorizer",
          "type": "address"
        }
      ],
      "name": "AuthorizerChanged",
      "type": "event"
    },
    {
      "anonymous": false,
      "inputs": [
        {
          "indexed": true,
          "internalType": "contract IERC4626",
          "name": "wrappedToken",
          "type": "address"
        },
        {
          "indexed": true,
          "internalType": "address",
          "name": "from",
          "type": "address"
        },
        {
          "indexed": false,
          "internalType": "uint256",
          "name": "burnedShares",
          "type": "uint256"
        }
      ],
      "name": "BufferSharesBurned",
      "type": "event"
    },
    {
      "anonymous": false,
      "inputs": [
        {
          "indexed": true,
          "internalType": "contract IERC4626",
          "name": "wrappedToken",
          "type": "address"
        },
        {
          "indexed": true,
          "internalType": "address",
          "name": "to",
          "type": "address"
        },
        {
          "indexed": false,
          "internalType": "uint256",
          "name": "issuedShares",
          "type": "uint256"
        }
      ],
      "name": "BufferSharesMinted",
      "type": "event"
    },
    {
      "anonymous": false,
      "inputs": [
        {
          "indexed": true,
          "internalType": "address",
          "name": "pool",
          "type": "address"
        },
        {
          "indexed": true,
          "internalType": "address",
          "name": "liquidityProvider",
          "type": "address"
        },
        {
          "indexed": true,
          "internalType": "enum AddLiquidityKind",
          "name": "kind",
          "type": "uint8"
        },
        {
          "indexed": false,
          "internalType": "uint256",
          "name": "totalSupply",
          "type": "uint256"
        },
        {
          "indexed": false,
          "internalType": "uint256[]",
          "name": "amountsAddedRaw",
          "type": "uint256[]"
        },
        {
          "indexed": false,
          "internalType": "uint256[]",
          "name": "swapFeeAmountsRaw",
          "type": "uint256[]"
        }
      ],
      "name": "LiquidityAdded",
      "type": "event"
    },
    {
      "anonymous": false,
      "inputs": [
        {
          "indexed": true,
          "internalType": "contract IERC4626",
          "name": "wrappedToken",
          "type": "address"
        },
        {
          "indexed": false,
          "internalType": "uint256",
          "name": "amountUnderlying",
          "type": "uint256"
        },
        {
          "indexed": false,
          "internalType": "uint256",
          "name": "amountWrapped",
          "type": "uint256"
        },
        {
          "indexed": false,
          "internalType": "bytes32",
          "name": "bufferBalances",
          "type": "bytes32"
        }
      ],
      "name": "LiquidityAddedToBuffer",
      "type": "event"
    },
    {
      "anonymous": false,
      "inputs": [
        {
          "indexed": true,
          "internalType": "address",
          "name": "pool",
          "type": "address"
        },
        {
          "indexed": true,
          "internalType": "address",
          "name": "liquidityProvider",
          "type": "address"
        },
        {
          "indexed": true,
          "internalType": "enum RemoveLiquidityKind",
          "name": "kind",
          "type": "uint8"
        },
        {
          "indexed": false,
          "internalType": "uint256",
          "name": "totalSupply",
          "type": "uint256"
        },
        {
          "indexed": false,
          "internalType": "uint256[]",
          "name": "amountsRemovedRaw",
          "type": "uint256[]"
        },
        {
          "indexed": false,
          "internalType": "uint256[]",
          "name": "swapFeeAmountsRaw",
          "type": "uint256[]"
        }
      ],
      "name": "LiquidityRemoved",
      "type": "event"
    },
    {
      "anonymous": false,
      "inputs": [
        {
          "indexed": true,
          "internalType": "contract IERC4626",
          "name": "wrappedToken",
          "type": "address"
        },
        {
          "indexed": false,
          "internalType": "uint256",
          "name": "amountUnderlying",
          "type": "uint256"
        },
        {
          "indexed": false,
          "internalType": "uint256",
          "name": "amountWrapped",
          "type": "uint256"
        },
        {
          "indexed": false,
          "internalType": "bytes32",
          "name": "bufferBalances",
          "type": "bytes32"
        }
      ],
      "name": "LiquidityRemovedFromBuffer",
      "type": "event"
    },
    {
      "anonymous": false,
      "inputs": [
        {
          "indexed": true,
          "internalType": "address",
          "name": "pool",
          "type": "address"
        }
      ],
      "name": "PoolInitialized",
      "type": "event"
    },
    {
      "anonymous": false,
      "inputs": [
        {
          "indexed": true,
          "internalType": "address",
          "name": "pool",
          "type": "address"
        },
        {
          "indexed": false,
          "internalType": "bool",
          "name": "paused",
          "type": "bool"
        }
      ],
      "name": "PoolPausedStateChanged",
      "type": "event"
    },
    {
      "anonymous": false,
      "inputs": [
        {
          "indexed": true,
          "internalType": "address",
          "name": "pool",
          "type": "address"
        },
        {
          "indexed": false,
          "internalType": "bool",
          "name": "recoveryMode",
          "type": "bool"
        }
      ],
      "name": "PoolRecoveryModeStateChanged",
      "type": "event"
    },
    {
      "anonymous": false,
      "inputs": [
        {
          "indexed": true,
          "internalType": "address",
          "name": "pool",
          "type": "address"
        },
        {
          "indexed": true,
          "internalType": "address",
          "name": "factory",
          "type": "address"
        },
        {
          "components": [
            {
              "internalType": "contract IERC20",
              "name": "token",
              "type": "address"
            },
            {
              "internalType": "enum TokenType",
              "name": "tokenType",
              "type": "uint8"
            },
            {
              "internalType": "contract IRateProvider",
              "name": "rateProvider",
              "type": "address"
            },
            {
              "internalType": "bool",
              "name": "paysYieldFees",
              "type": "bool"
            }
          ],
          "indexed": false,
          "internalType": "struct TokenConfig[]",
          "name": "tokenConfig",
          "type": "tuple[]"
        },
        {
          "indexed": false,
          "internalType": "uint256",
          "name": "swapFeePercentage",
          "type": "uint256"
        },
        {
          "indexed": false,
          "internalType": "uint32",
          "name": "pauseWindowEndTime",
          "type": "uint32"
        },
        {
          "components": [
            {
              "internalType": "address",
              "name": "pauseManager",
              "type": "address"
            },
            {
              "internalType": "address",
              "name": "swapFeeManager",
              "type": "address"
            },
            {
              "internalType": "address",
              "name": "poolCreator",
              "type": "address"
            }
          ],
          "indexed": false,
          "internalType": "struct PoolRoleAccounts",
          "name": "roleAccounts",
          "type": "tuple"
        },
        {
          "components": [
            {
              "internalType": "bool",
              "name": "enableHookAdjustedAmounts",
              "type": "bool"
            },
            {
              "internalType": "bool",
              "name": "shouldCallBeforeInitialize",
              "type": "bool"
            },
            {
              "internalType": "bool",
              "name": "shouldCallAfterInitialize",
              "type": "bool"
            },
            {
              "internalType": "bool",
              "name": "shouldCallComputeDynamicSwapFee",
              "type": "bool"
            },
            {
              "internalType": "bool",
              "name": "shouldCallBeforeSwap",
              "type": "bool"
            },
            {
              "internalType": "bool",
              "name": "shouldCallAfterSwap",
              "type": "bool"
            },
            {
              "internalType": "bool",
              "name": "shouldCallBeforeAddLiquidity",
              "type": "bool"
            },
            {
              "internalType": "bool",
              "name": "shouldCallAfterAddLiquidity",
              "type": "bool"
            },
            {
              "internalType": "bool",
              "name": "shouldCallBeforeRemoveLiquidity",
              "type": "bool"
            },
            {
              "internalType": "bool",
              "name": "shouldCallAfterRemoveLiquidity",
              "type": "bool"
            },
            {
              "internalType": "address",
              "name": "hooksContract",
              "type": "address"
            }
          ],
          "indexed": false,
          "internalType": "struct HooksConfig",
          "name": "hooksConfig",
          "type": "tuple"
        },
        {
          "components": [
            {
              "internalType": "bool",
              "name": "disableUnbalancedLiquidity",
              "type": "bool"
            },
            {
              "internalType": "bool",
              "name": "enableAddLiquidityCustom",
              "type": "bool"
            },
            {
              "internalType": "bool",
              "name": "enableRemoveLiquidityCustom",
              "type": "bool"
            },
            {
              "internalType": "bool",
              "name": "enableDonation",
              "type": "bool"
            }
          ],
          "indexed": false,
          "internalType": "struct LiquidityManagement",
          "name": "liquidityManagement",
          "type": "tuple"
        }
      ],
      "name": "PoolRegistered",
      "type": "event"
    },
    {
      "anonymous": false,
      "inputs": [
        {
          "indexed": true,
          "internalType": "contract IProtocolFeeController",
          "name": "newProtocolFeeController",
          "type": "address"
        }
      ],
      "name": "ProtocolFeeControllerChanged",
      "type": "event"
    },
    {
      "anonymous": false,
      "inputs": [
        {
          "indexed": true,
          "internalType": "address",
          "name": "pool",
          "type": "address"
        },
        {
          "indexed": true,
          "internalType": "contract IERC20",
          "name": "tokenIn",
          "type": "address"
        },
        {
          "indexed": true,
          "internalType": "contract IERC20",
          "name": "tokenOut",
          "type": "address"
        },
        {
          "indexed": false,
          "internalType": "uint256",
          "name": "amountIn",
          "type": "uint256"
        },
        {
          "indexed": false,
          "internalType": "uint256",
          "name": "amountOut",
          "type": "uint256"
        },
        {
          "indexed": false,
          "internalType": "uint256",
          "name": "swapFeePercentage",
          "type": "uint256"
        },
        {
          "indexed": false,
          "internalType": "uint256",
          "name": "swapFeeAmount",
          "type": "uint256"
        }
      ],
      "name": "Swap",
      "type": "event"
    },
    {
      "anonymous": false,
      "inputs": [
        {
          "indexed": true,
          "internalType": "address",
          "name": "pool",
          "type": "address"
        },
        {
          "indexed": false,
          "internalType": "uint256",
          "name": "swapFeePercentage",
          "type": "uint256"
        }
      ],
      "name": "SwapFeePercentageChanged",
      "type": "event"
    },
    {
      "anonymous": false,
      "inputs": [
        {
          "indexed": true,
          "internalType": "address",
          "name": "pool",
          "type": "address"
        },
        {
          "indexed": true,
          "internalType": "address",
          "name": "from",
          "type": "address"
        },
        {
          "indexed": true,
          "internalType": "address",
          "name": "to",
          "type": "address"
        },
        {
          "indexed": false,
          "internalType": "uint256",
          "name": "value",
          "type": "uint256"
        }
      ],
      "name": "Transfer",
      "type": "event"
    },
    {
      "anonymous": false,
      "inputs": [
        {
          "indexed": true,
          "internalType": "contract IERC4626",
          "name": "wrappedToken",
          "type": "address"
        },
        {
          "indexed": false,
          "internalType": "uint256",
          "name": "burnedShares",
          "type": "uint256"
        },
        {
          "indexed": false,
          "internalType": "uint256",
          "name": "withdrawnUnderlying",
          "type": "uint256"
        },
        {
          "indexed": false,
          "internalType": "bytes32",
          "name": "bufferBalances",
          "type": "bytes32"
        }
      ],
      "name": "Unwrap",
      "type": "event"
    },
    {
      "anonymous": false,
      "inputs": [
        {
          "indexed": true,
          "internalType": "address",
          "name": "pool",
          "type": "address"
        },
        {
          "indexed": true,
          "internalType": "bytes32",
          "name": "eventKey",
          "type": "bytes32"
        },
        {
          "indexed": false,
          "internalType": "bytes",
          "name": "eventData",
          "type": "bytes"
        }
      ],
      "name": "VaultAuxiliary",
      "type": "event"
    },
    {
      "anonymous": false,
      "inputs": [
        {
          "indexed": false,
          "internalType": "bool",
          "name": "paused",
          "type": "bool"
        }
      ],
      "name": "VaultBuffersPausedStateChanged",
      "type": "event"
    },
    {
      "anonymous": false,
      "inputs": [
        {
          "indexed": false,
          "internalType": "bool",
          "name": "paused",
          "type": "bool"
        }
      ],
      "name": "VaultPausedStateChanged",
      "type": "event"
    },
    {
      "anonymous": false,
      "inputs": [],
      "name": "VaultQueriesDisabled",
      "type": "event"
    },
    {
      "anonymous": false,
      "inputs": [],
      "name": "VaultQueriesEnabled",
      "type": "event"
    },
    {
      "anonymous": false,
      "inputs": [
        {
          "indexed": true,
          "internalType": "contract IERC4626",
          "name": "wrappedToken",
          "type": "address"
        },
        {
          "indexed": false,
          "internalType": "uint256",
          "name": "depositedUnderlying",
          "type": "uint256"
        },
        {
          "indexed": false,
          "internalType": "uint256",
          "name": "mintedShares",
          "type": "uint256"
        },
        {
          "indexed": false,
          "internalType": "bytes32",
          "name": "bufferBalances",
          "type": "bytes32"
        }
      ],
      "name": "Wrap",
      "type": "event"
    },
    {
      "stateMutability": "payable",
      "type": "fallback"
    },
    {
      "inputs": [
        {
          "internalType": "address",
          "name": "token",
          "type": "address"
        },
        {
          "internalType": "address",
          "name": "owner",
          "type": "address"
        },
        {
          "internalType": "address",
          "name": "spender",
          "type": "address"
        }
      ],
      "name": "allowance",
      "outputs": [
        {
          "internalType": "uint256",
          "name": "",
          "type": "uint256"
        }
      ],
      "stateMutability": "view",
      "type": "function"
    },
    {
      "inputs": [
        {
          "internalType": "address",
          "name": "owner",
          "type": "address"
        },
        {
          "internalType": "address",
          "name": "spender",
          "type": "address"
        },
        {
          "internalType": "uint256",
          "name": "amount",
          "type": "uint256"
        }
      ],
      "name": "approve",
      "outputs": [
        {
          "internalType": "bool",
          "name": "",
          "type": "bool"
        }
      ],
      "stateMutability": "nonpayable",
      "type": "function"
    },
    {
      "inputs": [
        {
          "internalType": "address",
          "name": "token",
          "type": "address"
        },
        {
          "internalType": "address",
          "name": "account",
          "type": "address"
        }
      ],
      "name": "balanceOf",
      "outputs": [
        {
          "internalType": "uint256",
          "name": "",
          "type": "uint256"
        }
      ],
      "stateMutability": "view",
      "type": "function"
    },
    {
      "inputs": [
        {
          "internalType": "address",
          "name": "pool",
          "type": "address"
        },
        {
          "components": [
            {
              "internalType": "enum SwapKind",
              "name": "kind",
              "type": "uint8"
            },
            {
              "internalType": "uint256",
              "name": "amountGivenScaled18",
              "type": "uint256"
            },
            {
              "internalType": "uint256[]",
              "name": "balancesScaled18",
              "type": "uint256[]"
            },
            {
              "internalType": "uint256",
              "name": "indexIn",
              "type": "uint256"
            },
            {
              "internalType": "uint256",
              "name": "indexOut",
              "type": "uint256"
            },
            {
              "internalType": "address",
              "name": "router",
              "type": "address"
            },
            {
              "internalType": "bytes",
              "name": "userData",
              "type": "bytes"
            }
          ],
          "internalType": "struct PoolSwapParams",
          "name": "swapParams",
          "type": "tuple"
        }
      ],
      "name": "computeDynamicSwapFeePercentage",
      "outputs": [
        {
          "internalType": "uint256",
          "name": "dynamicSwapFeePercentage",
          "type": "uint256"
        }
      ],
      "stateMutability": "view",
      "type": "function"
    },
    {
      "inputs": [
        {
          "internalType": "bytes32",
          "name": "eventKey",
          "type": "bytes32"
        },
        {
          "internalType": "bytes",
          "name": "eventData",
          "type": "bytes"
        }
      ],
      "name": "emitAuxiliaryEvent",
      "outputs": [],
      "stateMutability": "nonpayable",
      "type": "function"
    },
    {
      "inputs": [
        {
          "internalType": "address",
          "name": "pool",
          "type": "address"
        }
      ],
      "name": "getAddLiquidityCalledFlag",
      "outputs": [
        {
          "internalType": "bool",
          "name": "",
          "type": "bool"
        }
      ],
      "stateMutability": "view",
      "type": "function"
    },
    {
      "inputs": [
        {
          "internalType": "address",
          "name": "pool",
          "type": "address"
        },
        {
          "internalType": "contract IERC20",
          "name": "token",
          "type": "address"
        }
      ],
      "name": "getAggregateSwapFeeAmount",
      "outputs": [
        {
          "internalType": "uint256",
          "name": "",
          "type": "uint256"
        }
      ],
      "stateMutability": "view",
      "type": "function"
    },
    {
      "inputs": [
        {
          "internalType": "address",
          "name": "pool",
          "type": "address"
        },
        {
          "internalType": "contract IERC20",
          "name": "token",
          "type": "address"
        }
      ],
      "name": "getAggregateYieldFeeAmount",
      "outputs": [
        {
          "internalType": "uint256",
          "name": "",
          "type": "uint256"
        }
      ],
      "stateMutability": "view",
      "type": "function"
    },
    {
      "inputs": [],
      "name": "getAuthorizer",
      "outputs": [
        {
          "internalType": "contract IAuthorizer",
          "name": "",
          "type": "address"
        }
      ],
      "stateMutability": "view",
      "type": "function"
    },
    {
      "inputs": [
        {
          "internalType": "address",
          "name": "pool",
          "type": "address"
        }
      ],
      "name": "getBptRate",
      "outputs": [
        {
          "internalType": "uint256",
          "name": "rate",
          "type": "uint256"
        }
      ],
      "stateMutability": "view",
      "type": "function"
    },
    {
      "inputs": [
        {
          "internalType": "address",
          "name": "pool",
          "type": "address"
        }
      ],
      "name": "getCurrentLiveBalances",
      "outputs": [
        {
          "internalType": "uint256[]",
          "name": "balancesLiveScaled18",
          "type": "uint256[]"
        }
      ],
      "stateMutability": "view",
      "type": "function"
    },
    {
      "inputs": [
        {
          "internalType": "contract IERC4626",
          "name": "wrappedToken",
          "type": "address"
        }
      ],
      "name": "getERC4626BufferAsset",
      "outputs": [
        {
          "internalType": "address",
          "name": "asset",
          "type": "address"
        }
      ],
      "stateMutability": "view",
      "type": "function"
    },
    {
      "inputs": [
        {
          "internalType": "address",
          "name": "pool",
          "type": "address"
        }
      ],
      "name": "getHooksConfig",
      "outputs": [
        {
          "components": [
            {
              "internalType": "bool",
              "name": "enableHookAdjustedAmounts",
              "type": "bool"
            },
            {
              "internalType": "bool",
              "name": "shouldCallBeforeInitialize",
              "type": "bool"
            },
            {
              "internalType": "bool",
              "name": "shouldCallAfterInitialize",
              "type": "bool"
            },
            {
              "internalType": "bool",
              "name": "shouldCallComputeDynamicSwapFee",
              "type": "bool"
            },
            {
              "internalType": "bool",
              "name": "shouldCallBeforeSwap",
              "type": "bool"
            },
            {
              "internalType": "bool",
              "name": "shouldCallAfterSwap",
              "type": "bool"
            },
            {
              "internalType": "bool",
              "name": "shouldCallBeforeAddLiquidity",
              "type": "bool"
            },
            {
              "internalType": "bool",
              "name": "shouldCallAfterAddLiquidity",
              "type": "bool"
            },
            {
              "internalType": "bool",
              "name": "shouldCallBeforeRemoveLiquidity",
              "type": "bool"
            },
            {
              "internalType": "bool",
              "name": "shouldCallAfterRemoveLiquidity",
              "type": "bool"
            },
            {
              "internalType": "address",
              "name": "hooksContract",
              "type": "address"
            }
          ],
          "internalType": "struct HooksConfig",
          "name": "",
          "type": "tuple"
        }
      ],
      "stateMutability": "view",
      "type": "function"
    },
    {
      "inputs": [],
      "name": "getNonzeroDeltaCount",
      "outputs": [
        {
          "internalType": "uint256",
          "name": "",
          "type": "uint256"
        }
      ],
      "stateMutability": "view",
      "type": "function"
    },
    {
      "inputs": [
        {
          "internalType": "address",
          "name": "pool",
          "type": "address"
        }
      ],
      "name": "getPoolConfig",
      "outputs": [
        {
          "components": [
            {
              "components": [
                {
                  "internalType": "bool",
                  "name": "disableUnbalancedLiquidity",
                  "type": "bool"
                },
                {
                  "internalType": "bool",
                  "name": "enableAddLiquidityCustom",
                  "type": "bool"
                },
                {
                  "internalType": "bool",
                  "name": "enableRemoveLiquidityCustom",
                  "type": "bool"
                },
                {
                  "internalType": "bool",
                  "name": "enableDonation",
                  "type": "bool"
                }
              ],
              "internalType": "struct LiquidityManagement",
              "name": "liquidityManagement",
              "type": "tuple"
            },
            {
              "internalType": "uint256",
              "name": "staticSwapFeePercentage",
              "type": "uint256"
            },
            {
              "internalType": "uint256",
              "name": "aggregateSwapFeePercentage",
              "type": "uint256"
            },
            {
              "internalType": "uint256",
              "name": "aggregateYieldFeePercentage",
              "type": "uint256"
            },
            {
              "internalType": "uint40",
              "name": "tokenDecimalDiffs",
              "type": "uint40"
            },
            {
              "internalType": "uint32",
              "name": "pauseWindowEndTime",
              "type": "uint32"
            },
            {
              "internalType": "bool",
              "name": "isPoolRegistered",
              "type": "bool"
            },
            {
              "internalType": "bool",
              "name": "isPoolInitialized",
              "type": "bool"
            },
            {
              "internalType": "bool",
              "name": "isPoolPaused",
              "type": "bool"
            },
            {
              "internalType": "bool",
              "name": "isPoolInRecoveryMode",
              "type": "bool"
            }
          ],
          "internalType": "struct PoolConfig",
          "name": "",
          "type": "tuple"
        }
      ],
      "stateMutability": "view",
      "type": "function"
    },
    {
      "inputs": [
        {
          "internalType": "address",
          "name": "pool",
          "type": "address"
        }
      ],
      "name": "getPoolData",
      "outputs": [
        {
          "components": [
            {
              "internalType": "PoolConfigBits",
              "name": "poolConfigBits",
              "type": "bytes32"
            },
            {
              "internalType": "contract IERC20[]",
              "name": "tokens",
              "type": "address[]"
            },
            {
              "components": [
                {
                  "internalType": "enum TokenType",
                  "name": "tokenType",
                  "type": "uint8"
                },
                {
                  "internalType": "contract IRateProvider",
                  "name": "rateProvider",
                  "type": "address"
                },
                {
                  "internalType": "bool",
                  "name": "paysYieldFees",
                  "type": "bool"
                }
              ],
              "internalType": "struct TokenInfo[]",
              "name": "tokenInfo",
              "type": "tuple[]"
            },
            {
              "internalType": "uint256[]",
              "name": "balancesRaw",
              "type": "uint256[]"
            },
            {
              "internalType": "uint256[]",
              "name": "balancesLiveScaled18",
              "type": "uint256[]"
            },
            {
              "internalType": "uint256[]",
              "name": "tokenRates",
              "type": "uint256[]"
            },
            {
              "internalType": "uint256[]",
              "name": "decimalScalingFactors",
              "type": "uint256[]"
            }
          ],
          "internalType": "struct PoolData",
          "name": "",
          "type": "tuple"
        }
      ],
      "stateMutability": "view",
      "type": "function"
    },
    {
      "inputs": [
        {
          "internalType": "address",
          "name": "pool",
          "type": "address"
        }
      ],
      "name": "getPoolPausedState",
      "outputs": [
        {
          "internalType": "bool",
          "name": "",
          "type": "bool"
        },
        {
          "internalType": "uint32",
          "name": "",
          "type": "uint32"
        },
        {
          "internalType": "uint32",
          "name": "",
          "type": "uint32"
        },
        {
          "internalType": "address",
          "name": "",
          "type": "address"
        }
      ],
      "stateMutability": "view",
      "type": "function"
    },
    {
      "inputs": [
        {
          "internalType": "address",
          "name": "pool",
          "type": "address"
        }
      ],
      "name": "getPoolRoleAccounts",
      "outputs": [
        {
          "components": [
            {
              "internalType": "address",
              "name": "pauseManager",
              "type": "address"
            },
            {
              "internalType": "address",
              "name": "swapFeeManager",
              "type": "address"
            },
            {
              "internalType": "address",
              "name": "poolCreator",
              "type": "address"
            }
          ],
          "internalType": "struct PoolRoleAccounts",
          "name": "",
          "type": "tuple"
        }
      ],
      "stateMutability": "view",
      "type": "function"
    },
    {
      "inputs": [
        {
          "internalType": "address",
          "name": "pool",
          "type": "address"
        }
      ],
      "name": "getPoolTokenInfo",
      "outputs": [
        {
          "internalType": "contract IERC20[]",
          "name": "tokens",
          "type": "address[]"
        },
        {
          "components": [
            {
              "internalType": "enum TokenType",
              "name": "tokenType",
              "type": "uint8"
            },
            {
              "internalType": "contract IRateProvider",
              "name": "rateProvider",
              "type": "address"
            },
            {
              "internalType": "bool",
              "name": "paysYieldFees",
              "type": "bool"
            }
          ],
          "internalType": "struct TokenInfo[]",
          "name": "tokenInfo",
          "type": "tuple[]"
        },
        {
          "internalType": "uint256[]",
          "name": "balancesRaw",
          "type": "uint256[]"
        },
        {
          "internalType": "uint256[]",
          "name": "lastBalancesLiveScaled18",
          "type": "uint256[]"
        }
      ],
      "stateMutability": "view",
      "type": "function"
    },
    {
      "inputs": [
        {
          "internalType": "address",
          "name": "pool",
          "type": "address"
        }
      ],
      "name": "getPoolTokenRates",
      "outputs": [
        {
          "internalType": "uint256[]",
          "name": "decimalScalingFactors",
          "type": "uint256[]"
        },
        {
          "internalType": "uint256[]",
          "name": "tokenRates",
          "type": "uint256[]"
        }
      ],
      "stateMutability": "view",
      "type": "function"
    },
    {
      "inputs": [
        {
          "internalType": "address",
          "name": "pool",
          "type": "address"
        }
      ],
      "name": "getPoolTokens",
      "outputs": [
        {
          "internalType": "contract IERC20[]",
          "name": "tokens",
          "type": "address[]"
        }
      ],
      "stateMutability": "view",
      "type": "function"
    },
    {
      "inputs": [],
      "name": "getProtocolFeeController",
      "outputs": [
        {
          "internalType": "contract IProtocolFeeController",
          "name": "",
          "type": "address"
        }
      ],
      "stateMutability": "view",
      "type": "function"
    },
    {
      "inputs": [
        {
          "internalType": "contract IERC20",
          "name": "token",
          "type": "address"
        }
      ],
      "name": "getReservesOf",
      "outputs": [
        {
          "internalType": "uint256",
          "name": "",
          "type": "uint256"
        }
      ],
      "stateMutability": "view",
      "type": "function"
    },
    {
      "inputs": [
        {
          "internalType": "address",
          "name": "pool",
          "type": "address"
        }
      ],
      "name": "getStaticSwapFeePercentage",
      "outputs": [
        {
          "internalType": "uint256",
          "name": "",
          "type": "uint256"
        }
      ],
      "stateMutability": "view",
      "type": "function"
    },
    {
      "inputs": [
        {
          "internalType": "contract IERC20",
          "name": "token",
          "type": "address"
        }
      ],
      "name": "getTokenDelta",
      "outputs": [
        {
          "internalType": "int256",
          "name": "",
          "type": "int256"
        }
      ],
      "stateMutability": "view",
      "type": "function"
    },
    {
      "inputs": [],
      "name": "getVaultAdmin",
      "outputs": [
        {
          "internalType": "address",
          "name": "",
          "type": "address"
        }
      ],
      "stateMutability": "view",
      "type": "function"
    },
    {
      "inputs": [
        {
          "internalType": "address",
          "name": "pool",
          "type": "address"
        },
        {
          "internalType": "address",
          "name": "to",
          "type": "address"
        },
        {
          "internalType": "contract IERC20[]",
          "name": "tokens",
          "type": "address[]"
        },
        {
          "internalType": "uint256[]",
          "name": "exactAmountsIn",
          "type": "uint256[]"
        },
        {
          "internalType": "uint256",
          "name": "minBptAmountOut",
          "type": "uint256"
        },
        {
          "internalType": "bytes",
          "name": "userData",
          "type": "bytes"
        }
      ],
      "name": "initialize",
      "outputs": [
        {
          "internalType": "uint256",
          "name": "bptAmountOut",
          "type": "uint256"
        }
      ],
      "stateMutability": "nonpayable",
      "type": "function"
    },
    {
      "inputs": [
        {
          "internalType": "contract IERC4626",
          "name": "wrappedToken",
          "type": "address"
        }
      ],
      "name": "isERC4626BufferInitialized",
      "outputs": [
        {
          "internalType": "bool",
          "name": "",
          "type": "bool"
        }
      ],
      "stateMutability": "view",
      "type": "function"
    },
    {
      "inputs": [
        {
          "internalType": "address",
          "name": "pool",
          "type": "address"
        }
      ],
      "name": "isPoolInRecoveryMode",
      "outputs": [
        {
          "internalType": "bool",
          "name": "",
          "type": "bool"
        }
      ],
      "stateMutability": "view",
      "type": "function"
    },
    {
      "inputs": [
        {
          "internalType": "address",
          "name": "pool",
          "type": "address"
        }
      ],
      "name": "isPoolInitialized",
      "outputs": [
        {
          "internalType": "bool",
          "name": "",
          "type": "bool"
        }
      ],
      "stateMutability": "view",
      "type": "function"
    },
    {
      "inputs": [
        {
          "internalType": "address",
          "name": "pool",
          "type": "address"
        }
      ],
      "name": "isPoolPaused",
      "outputs": [
        {
          "internalType": "bool",
          "name": "",
          "type": "bool"
        }
      ],
      "stateMutability": "view",
      "type": "function"
    },
    {
      "inputs": [
        {
          "internalType": "address",
          "name": "pool",
          "type": "address"
        }
      ],
      "name": "isPoolRegistered",
      "outputs": [
        {
          "internalType": "bool",
          "name": "",
          "type": "bool"
        }
      ],
      "stateMutability": "view",
      "type": "function"
    },
    {
      "inputs": [],
      "name": "isQueryDisabled",
      "outputs": [
        {
          "internalType": "bool",
          "name": "",
          "type": "bool"
        }
      ],
      "stateMutability": "view",
      "type": "function"
    },
    {
      "inputs": [],
      "name": "isQueryDisabledPermanently",
      "outputs": [
        {
          "internalType": "bool",
          "name": "",
          "type": "bool"
        }
      ],
      "stateMutability": "view",
      "type": "function"
    },
    {
      "inputs": [],
      "name": "isUnlocked",
      "outputs": [
        {
          "internalType": "bool",
          "name": "",
          "type": "bool"
        }
      ],
      "stateMutability": "view",
      "type": "function"
    },
    {
      "inputs": [
        {
          "internalType": "bytes",
          "name": "data",
          "type": "bytes"
        }
      ],
      "name": "quote",
      "outputs": [
        {
          "internalType": "bytes",
          "name": "result",
          "type": "bytes"
        }
      ],
      "stateMutability": "nonpayable",
      "type": "function"
    },
    {
      "inputs": [
        {
          "internalType": "bytes",
          "name": "data",
          "type": "bytes"
        }
      ],
      "name": "quoteAndRevert",
      "outputs": [],
      "stateMutability": "nonpayable",
      "type": "function"
    },
    {
      "inputs": [],
      "name": "reentrancyGuardEntered",
      "outputs": [
        {
          "internalType": "bool",
          "name": "",
          "type": "bool"
        }
      ],
      "stateMutability": "view",
      "type": "function"
    },
    {
      "inputs": [
        {
          "internalType": "address",
          "name": "pool",
          "type": "address"
        },
        {
          "components": [
            {
              "internalType": "contract IERC20",
              "name": "token",
              "type": "address"
            },
            {
              "internalType": "enum TokenType",
              "name": "tokenType",
              "type": "uint8"
            },
            {
              "internalType": "contract IRateProvider",
              "name": "rateProvider",
              "type": "address"
            },
            {
              "internalType": "bool",
              "name": "paysYieldFees",
              "type": "bool"
            }
          ],
          "internalType": "struct TokenConfig[]",
          "name": "tokenConfig",
          "type": "tuple[]"
        },
        {
          "internalType": "uint256",
          "name": "swapFeePercentage",
          "type": "uint256"
        },
        {
          "internalType": "uint32",
          "name": "pauseWindowEndTime",
          "type": "uint32"
        },
        {
          "internalType": "bool",
          "name": "protocolFeeExempt",
          "type": "bool"
        },
        {
          "components": [
            {
              "internalType": "address",
              "name": "pauseManager",
              "type": "address"
            },
            {
              "internalType": "address",
              "name": "swapFeeManager",
              "type": "address"
            },
            {
              "internalType": "address",
              "name": "poolCreator",
              "type": "address"
            }
          ],
          "internalType": "struct PoolRoleAccounts",
          "name": "roleAccounts",
          "type": "tuple"
        },
        {
          "internalType": "address",
          "name": "poolHooksContract",
          "type": "address"
        },
        {
          "components": [
            {
              "internalType": "bool",
              "name": "disableUnbalancedLiquidity",
              "type": "bool"
            },
            {
              "internalType": "bool",
              "name": "enableAddLiquidityCustom",
              "type": "bool"
            },
            {
              "internalType": "bool",
              "name": "enableRemoveLiquidityCustom",
              "type": "bool"
            },
            {
              "internalType": "bool",
              "name": "enableDonation",
              "type": "bool"
            }
          ],
          "internalType": "struct LiquidityManagement",
          "name": "liquidityManagement",
          "type": "tuple"
        }
      ],
      "name": "registerPool",
      "outputs": [],
      "stateMutability": "nonpayable",
      "type": "function"
    },
    {
      "inputs": [
        {
          "internalType": "address",
          "name": "pool",
          "type": "address"
        },
        {
          "internalType": "address",
          "name": "from",
          "type": "address"
        },
        {
          "internalType": "uint256",
          "name": "exactBptAmountIn",
          "type": "uint256"
        },
        {
          "internalType": "uint256[]",
          "name": "minAmountsOut",
          "type": "uint256[]"
        }
      ],
      "name": "removeLiquidityRecovery",
      "outputs": [
        {
          "internalType": "uint256[]",
          "name": "amountsOutRaw",
          "type": "uint256[]"
        }
      ],
      "stateMutability": "nonpayable",
      "type": "function"
    },
    {
      "inputs": [
        {
          "internalType": "address",
          "name": "token",
          "type": "address"
        }
      ],
      "name": "totalSupply",
      "outputs": [
        {
          "internalType": "uint256",
          "name": "",
          "type": "uint256"
        }
      ],
      "stateMutability": "view",
      "type": "function"
    },
    {
      "inputs": [],
      "name": "vault",
      "outputs": [
        {
          "internalType": "contract IVault",
          "name": "",
          "type": "address"
        }
      ],
      "stateMutability": "view",
      "type": "function"
    },
    {
      "stateMutability": "payable",
      "type": "receive"
    }
  ],
  "bytecode": "0x6102008060405234610388576040816154a280380380916100208285610395565b833981010312610388576020610035826103ce565b910151906001600160a01b0382168083036103885761007760405161005b604082610395565b600a8152691a5cd55b9b1bd8dad95960b21b60208201526103fe565b60c0526100ae60405161008b604082610395565b60118152701b9bdb96995c9bd1195b1d1850dbdd5b9d607a1b60208201526103fe565b60e0526100df6040516100c2604082610395565b600b81526a746f6b656e44656c74617360a81b60208201526103fe565b610100526101186040516100f4604082610395565b6012815271185919131a5c5d5a591a5d1e50d85b1b195960721b60208201526103fe565b6101205261014860405161012d604082610395565b60098152681cd95cdcda5bdb925960ba1b60208201526103fe565b6101405260405163fbfa77cf60e01b8152602081600481855afa9081156102fd57600091610356575b506001600160a01b0383811691160361034557604051634546891d60e11b8152602081600481855afa9081156102fd57600091610326575b5061016052604051631060fdbd60e11b8152602081600481855afa9182156102fd57600492602092600091610309575b506101a05260405163cd51c12f60e01b815292839182905afa9081156102fd576000916102ce575b50610180526101c0526101e052604051614fa790816104fb823960805181505060a05181505060c051818181610fbc01528181612e240152613039015260e051818181611a7f015281816145ea015261465b01526101005181818161112d01526145a10152610120518181816112bb01526115b2015261014051818181611295015261158f0152610160518150506101805181613a2301526101a0518181816105d10152612c2101526101c051818181611ff7015261291f01526101e05181818161065901526128df0152f35b6102f0915060203d6020116102f6575b6102e88183610395565b8101906103e2565b38610201565b503d6102de565b6040513d6000823e3d90fd5b6103209150833d85116102f6576102e88183610395565b386101d9565b61033f915060203d6020116102f6576102e88183610395565b386101a9565b634166145b60e11b60005260046000fd5b90506020813d60201161038d575b8161037160209383610395565b8101031261038857610382906103ce565b38610171565b600080fd5b3d9150610364565b601f909101601f19168101906001600160401b038211908210176103b857604052565b634e487b7160e01b600052604160045260246000fd5b51906001600160a01b038216820361038857565b90816020910312610388575163ffffffff811681036103885790565b61047761048560405192610413604085610395565b600c84526b5661756c7453746f7261676560a01b6020850152604051928391600161046960208501977f62616c616e6365722d6c6162732e76332e73746f726167652e00000000000000895260398601906104cf565b601760f91b815201906104cf565b03601f198101835282610395565b51902060001981019081116104b9576040519060208201908152602082526104ae604083610395565b9051902060ff191690565b634e487b7160e01b600052601160045260246000fd5b9081519160005b8381106104e7575050016000815290565b80602080928401015181850152016104d656fe60806040526004361015610018575b366128ce576128bd565b60003560e01c8062fdfa13146102b757806313d21cdf146102b257806313ef8a5d146102ad57806315e32046146102a85780631ba0ae45146102a35780634afbaf5a1461029e5780634d472bdd146102995780634f037ee714610294578063532cec7c1461028f578063535cfd8a1461028a57806367e0e076146102855780636844846b146102805780636c9bc7321461027b578063757d64b3146102765780637e361bde146102715780638380edb71461026c57806385e0b9991461026757806385f2dbd414610262578063927da1051461025d57806396787092146102585780639e825ff514610253578063a07d60401461024e578063aaabadc514610249578063ace9b89b14610244578063b45090f91461023f578063b4aef0ab1461023a578063ba8a2be014610235578063be7d628a14610230578063c673bdaf1461022b578063c808824714610226578063ca4f280314610221578063ce8630d41461021c578063d2c725e014610217578063db81718714610212578063e1f21c671461020d578063e4dc2aa414610208578063e9ddeb2614610203578063edfa3568146101fe578063eeec802f146101f9578063f29486a1146101f4578063f7888aec146101ef5763fbfa77cf0361000e57611fe1565b611f86565b611ede565b611cfc565b611c50565b611b6d565b611af1565b611aa8565b611a62565b611a34565b6119b9565b611886565b6117de565b611794565b611746565b61164f565b611624565b6115d6565b611563565b61152e565b611151565b611101565b6110bc565b61106c565b61103b565b610fe7565b610f9f565b610e97565b610db8565b610d1a565b610ccb565b610bb7565b610af1565b610a88565b6109b0565b6108c3565b610688565b610643565b61058b565b610560565b61046b565b610321565b6001600160a01b031690565b6001600160a01b038116036102d957565b600080fd5b61010435906102ec826102c8565b565b35906102ec826102c8565b60409060031901126102d957600435610311816102c8565b9060243561031e816102c8565b90565b346102d9576020610361610334366102f9565b9061033d61291d565b61034681612960565b6001600160a01b0316600090815260068452604090206120dc565b5460801c604051908152f35b906020808351928381520192019060005b81811061038b5750505090565b82516001600160a01b031684526020938401939092019160010161037e565b600211156103b457565b634e487b7160e01b600052602160045260246000fd5b90604060609280516103db816103aa565b83526020818101516001600160a01b0316908401520151151560408201520190565b906020808351928381520192019060005b81811061041b5750505090565b909192602061042d60019286516103ca565b940192910161040e565b906020808351928381520192019060005b8181106104555750505090565b8251845260209384019390920191600101610448565b346102d95760203660031901126102d9576105516104ad60043561048e816102c8565b6104966120f3565b5061049f61291d565b6104a881612997565b6129d1565b604051918291602083528051602084015260c061053d6105286105126104fc6104e6602087015160e060408b01526101008a019061036d565b6040870151898203601f190160608b01526103fd565b6060860151888203601f190160808a0152610437565b6080850151878203601f190160a0890152610437565b60a0840151868203601f190184880152610437565b910151838203601f190160e0850152610437565b0390f35b60009103126102d957565b346102d95760003660031901126102d95761057961291d565b602060ff600954166040519015158152f35b346102d95760203660031901126102d95760806004356105aa816102c8565b6105b261291d565b6105bb81612960565b63ffffffff6105c982612bda565b9190926105f67f000000000000000000000000000000000000000000000000000000000000000084612140565b9060018060a01b031660005260016020528160018060a01b03604060002054169360405195151586521660208501521660408301526060820152f35b6001600160a01b0316600452602490565b346102d95760003660031901126102d9576040517f00000000000000000000000000000000000000000000000000000000000000006001600160a01b03168152602090f35b346102d95760203660031901126102d9576004356106a5816102c8565b6106ad61291d565b60018060a01b0316600052600e602052602060018060a01b0360406000205416604051908152f35b634e487b7160e01b600052604160045260246000fd5b606081019081106001600160401b0382111761070657604052565b6106d5565b608081019081106001600160401b0382111761070657604052565b61014081019081106001600160401b0382111761070657604052565b60e081019081106001600160401b0382111761070657604052565b601f909101601f19168101906001600160401b0382119082101761070657604052565b604051906102ec60e08361075d565b604051906102ec60808361075d565b604051906102ec6101408361075d565b604051906102ec6101608361075d565b604051906102ec60608361075d565b600211156102d957565b35906102ec826107cd565b6001600160401b0381116107065760051b60200190565b9080601f830112156102d9578135610810816107e2565b9261081e604051948561075d565b81845260208085019260051b8201019283116102d957602001905b8282106108465750505090565b8135815260209182019101610839565b6001600160401b03811161070657601f01601f191660200190565b92919261087d82610856565b9161088b604051938461075d565b8294818452818301116102d9578281602093846000960137010152565b9080601f830112156102d95781602061031e93359101610871565b346102d95760403660031901126102d9576004356108e0816102c8565b6024356001600160401b0381116102d95760e060031982360301126102d957610907610780565b610913826004016107d7565b81526024820135602082015260448201356001600160401b0381116102d95761094290600436918501016107f9565b6040820152606482013560608201526084820135608082015261096760a483016102ee565b60a082015260c4820135926001600160401b0384116102d9576109966109a093600461055196369201016108a8565b60c083015261215f565b6040519081529081906020820190565b346102d95760203660031901126102d9576004356109cd816102c8565b6109d561291d565b6109de81612997565b610a12602060806109ee846129d1565b015160405180938192631309bd3d60e31b8352604060048401526044830190610437565b6001602483015203816001600160a01b0386165afa8015610a8357610551926109a092600092610a4e575b50610a4790612026565b5490612de6565b610a47919250610a759060203d602011610a7c575b610a6d818361075d565b81019061224c565b9190610a3d565b503d610a63565b612281565b346102d95760203660031901126102d957600435610aa5816102c8565b610aad61291d565b610ab681612960565b6001600160a01b031660009081526020818152604090912054600190811c165b6040519015158152f35b90602061031e928181520190610437565b346102d95760203660031901126102d9576105516080610b27600435610b16816102c8565b610b1e61291d565b6104a881612960565b0151604051918291602083526020830190610437565b9290610b55909594929560808552608085019061036d565b83810360208501526020808751928381520196019060005b818110610b9b5750505084610b8d918461031e9697036040860152610437565b916060818403910152610437565b9091966020610bad6001928a516103ca565b9801929101610b6d565b346102d95760203660031901126102d957600435610bd4816102c8565b610bdc61291d565b610be581612960565b6001600160a01b0381166000908152600560205260409020610c0e610c0983612040565b61228d565b90815192610c1b84612300565b93610c2581612350565b91610c2f82612350565b9360005b838110610c4b576040518061055188888c8c85610b3d565b80610cba610c5b60019385612382565b54610c89610c848b610c7e610c7987610c738c61205a565b936123a7565b6123c0565b906120dc565b6123d9565b610c93848d6123a7565b52610c9e838c6123a7565b506001600160801b038116610cb3848a6123a7565b5260801c90565b610cc482896123a7565b5201610c33565b346102d95760203660031901126102d957600435610ce8816102c8565b610cf061291d565b60018060a01b0316600052600e602052602060018060a01b03604060002054161515604051908152f35b346102d95760203660031901126102d9576020610d52600435610d3c816102c8565b610d4461291d565b610d4d81612960565b612bda565b506040519015158152f35b9181601f840112156102d9578235916001600160401b0383116102d957602083818601950101116102d957565b60206003198201126102d957600435906001600160401b0382116102d957610db491600401610d5d565b9091565b346102d957600080610dc936610d8a565b90610dd2612e11565b610dda61291d565b8160405192839283378101838152039082335af1610df6612419565b908015610e2a5790610e0c81610e269333612e78565b50604051630b56c9f760e31b815291829160048301611c3f565b0390fd5b506004815110610e615760208101516001600160e01b0319166314a9360960e31b01612e69576328f9554160e01b60005260046000fd5b63a728568960e01b60005260046000fd5b9091610e8961031e93604084526040840190610437565b916020818403910152610437565b346102d95760203660031901126102d957600435610eb4816102c8565b610ebc61291d565b610ec581612960565b6001600160a01b0381166000908152602081815260408083205460038352818420915182548082529285528385209094919390928592918301915b818110610f7d575050610f159250038361075d565b610f2182518092612ed9565b91610f2b82612350565b9360005b838110610f455760405180610551888883610e72565b600190610f6c610f67610c84610f5a8661205a565b610c7e610c79868a6123a7565b612f32565b610f7682896123a7565b5201610f2f565b84546001600160a01b0316835260019485019487945060209093019201610f00565b346102d95760003660031901126102d957610fb861291d565b60207f000000000000000000000000000000000000000000000000000000000000000051546040519015158152f35b346102d9576020610ff7366102f9565b9061100061291d565b61100981612960565b6001600160a01b0316600090815260068352604090206001600160801b0391611031916120dc565b5416604051908152f35b346102d95760003660031901126102d95761105461291d565b600a546040516001600160a01b039091168152602090f35b346102d95760603660031901126102d95760206110b460043561108e816102c8565b60243561109a816102c8565b604435916110a7836102c8565b6110af61291d565b612fd2565b604051908152f35b346102d95760203660031901126102d9576004356110d9816102c8565b6110e161291d565b60018060a01b031660005260086020526020604060002054604051908152f35b346102d95760203660031901126102d95760206110b4600435611123816102c8565b61112b61291d565b7f000000000000000000000000000000000000000000000000000000000000000061301e565b346102d95760803660031901126102d95760043561116e816102c8565b6024359061117b826102c8565b604435916064356001600160401b0381116102d95761119e9036906004016107f9565b926111a761291d565b6111af613037565b6111b7613072565b6111c083612997565b60018060a01b038316928360005260006020526111e160406000205461446a565b15611519576111ef81612074565b946111f8612449565b90611205610c0984612040565b808352519561121a6040840197808952612350565b956080840196875260005b885181101561125d578061124b61123e6001938d612382565b546001600160801b031690565b611256828b516123a7565b5201611225565b5087969495966112798887516112728a612026565b54906130b4565b976112848251612350565b93606087019485526112df896112b97f0000000000000000000000000000000000000000000000000000000000000000515490565b7f0000000000000000000000000000000000000000000000000000000000000000613104565b151560a0880181815294906114fd575b60005b845181101561140b57808c6113078851151590565b6113c0575b90611316916123a7565b51611321828a6123a7565b511161138157808a61137a828f611360828f9261135b61134a610c7960019b61137497516123a7565b61135484846123a7565b5190613144565b6123a7565b5193519361136e83866123a7565b5161249d565b926123a7565b52016112f2565b8b886113aa836113a38161139d8f6113bc98610c7991516123a7565b956123a7565b51926123a7565b516317bc2f2360e11b600052916124aa565b6000fd5b6113d9916113cd916123a7565b5160208b015190613121565b6113e48289516123a7565b528b611403826113746113f8828c516123a7565b5161136e83866123a7565b52808c61130c565b508894508a9186918b61141d81612074565b9560005b885181101561145f578061144e8b6114478361143f6001968e612382565b5492516123a7565b5190613167565b611458828b612382565b5501611421565b61055187600088887ffbe5b0d79fb94f1e81c0a92bf86ae9d3a19e9d1bf6202c0d3e75120f65d5d8a5848a6114d66114ba8c6114b58d6114a181338886613175565b6114a96131de565b6114ed575b8583613233565b612026565b5495516040516001600160a01b039093169692938493846124c1565b0390a46114e161309f565b60405191829182610ae0565b6114f8818785613200565b6114ae565b61150f6115098b61208e565b54612cd8565b60208901526112ef565b8363ef029adf60e01b60005260045260246000fd5b346102d95760003660031901126102d95761154761291d565b60095460405160089190911c6001600160a01b03168152602090f35b346102d95760203660031901126102d9576020610ad6600435611585816102c8565b61158d61291d565b7f000000000000000000000000000000000000000000000000000000000000000051547f0000000000000000000000000000000000000000000000000000000000000000613104565b346102d95760203660031901126102d9576004356115f3816102c8565b6115fb61291d565b61160481612960565b60018060a01b0316600052600060205260206110b4604060002054612cd8565b346102d95760003660031901126102d95761163d61291d565b60206001600754166040519015158152f35b346102d95760c03660031901126102d95760043561166c816102c8565b60243590611679826102c8565b604435906001600160401b0382116102d957366023830112156102d9578160040135916116a5836107e2565b926116b3604051948561075d565b8084526024602085019160051b830101913683116102d957602401905b82821061172c57505060643590506001600160401b0381116102d9576116fa9036906004016107f9565b60a4359260843591906001600160401b0385116102d957610551956117266109a09636906004016108a8565b946124ec565b60208091833561173b816102c8565b8152019101906116d0565b346102d95760203660031901126102d957600435611763816102c8565b61176b61291d565b61177481612960565b60018060a01b031660005260006020526020610ad660406000205461446a565b346102d95760203660031901126102d9576004356117b1816102c8565b6117b961291d565b60018060a01b0316600052600060205260206001604060002054166040519015158152f35b346102d95760403660031901126102d9576024356001600160401b0381116102d95761180e903690600401610d5d565b61181661291d565b61181f33612960565b80604051926020845281602085015260408401376000604082840101527f4bc4412e210115456903c65b5277d299a505e79f2eb852b92b1ca52d85856428600435926040813394601f80199101168101030190a3005b90602061031e92818152019061036d565b346102d95760203660031901126102d9576004356118a3816102c8565b6118ab61291d565b6118b481612960565b60018060a01b03166000526003602052604060002060405190816020825491828152019160005260206000209060005b81811061190757610551856118fb8187038261075d565b60405191829182611875565b82546001600160a01b03168452602090930192600192830192016118e4565b90610140806102ec9361193b84825115159052565b60208181015115159085015260408181015115159085015260608181015115159085015260808181015115159085015260a08181015115159085015260c08181015115159085015260e081810151151590850152610100818101511515908501526101208181015115159085015201516001600160a01b0316910152565b346102d95760203660031901126102d957611a206004356119d9816102c8565b6119e1612632565b506119ea61291d565b6119f381612960565b6001600160a01b039081166000908152602081815260408083205460029092529091205490911690613849565b604051809161055182610160810192611926565b346102d95760003660031901126102d9576020600080516020614f5283398151915251546040519015158152f35b346102d95760003660031901126102d957611a7b61291d565b60207f00000000000000000000000000000000000000000000000000000000000000005154604051908152f35b346102d95760603660031901126102d957611ae6600435611ac8816102c8565b602435611ad4816102c8565b60443591611ae061291d565b33613916565b602060405160018152f35b346102d95760203660031901126102d957600435611b0e816102c8565b611b1661291d565b60018060a01b031660005260116020526020604060002054604051908152f35b80516001600160a01b03908116835260208083015182169084015260409182015116910152565b6060810192916102ec9190611b36565b346102d95760203660031901126102d957600435611b8a816102c8565b611b926122e1565b50611b9b61291d565b611ba481612960565b60018060a01b03166000526001602052610551604060002060405190611bc9826106eb565b80546001600160a01b039081168352600182015481166020840152600290910154166040808301919091525191829182611b5d565b919082519283825260005b848110611c2a575050826000602080949584010152601f8019910116010190565b80602080928401015182828601015201611c09565b90602061031e928181520190611bfe565b346102d957610551611c9a600080611c81611c6a36610d8a565b611c72612e11565b611c7a61291d565b3691610871565b60208151910182335af1611c93612419565b9033612e78565b604051918291602083526020830190611bfe565b801515036102d957565b608435906102ec82611cae565b6064359063ffffffff821682036102d957565b60609060a31901126102d95760a490565b6080906101231901126102d95761012490565b346102d9576101a03660031901126102d957600435611d1a816102c8565b602435906001600160401b0382116102d957366023830112156102d957816004013591611d46836107e2565b90611d54604051928361075d565b8382526024602083019460071b820101903682116102d957602401935b818510611db557611db38484604435611d88611cc5565b611d90611cb8565b90611d9a36611cd8565b92611da36102de565b94611dad36611ce9565b96612695565b005b6080853603126102d9576020608091604051611dd08161070b565b8735611ddb816102c8565b815282880135611dea816107cd565b838201526040880135611dfc816102c8565b60408201526060880135611e0f81611cae565b6060820152815201940193611d71565b6060809180511515845260208101511515602085015260408101511515604085015201511515910152565b6102ec909291926101806101206101a0830195611e68848251611e1f565b60208101516080850152604081015160a0850152606081015160c0850152611e9e608082015160e086019064ffffffffff169052565b60a081015163ffffffff1661010085015260c081015115158483015260e08101511515610140850152610100810151151561016085015201511515910152565b346102d95760203660031901126102d957610551611f7a600435611f01816102c8565b604051611f0d81610726565b604051611f198161070b565b60008152600060208201526000604082015260006060820152815260006020820152600060408201526000606082015260006080820152600060a0820152600060c0820152600060e0820152600061010082015260006101208201526127b7565b60405191829182611e4a565b346102d95760403660031901126102d9576020611fd8600435611fa8816102c8565b60243590611fb5826102c8565b611fbd61291d565b6001600160a01b03166000908152600f8452604090206120dc565b54604051908152f35b346102d95760003660031901126102d9576040517f00000000000000000000000000000000000000000000000000000000000000006001600160a01b03168152602090f35b6001600160a01b0316600090815260116020526040902090565b6001600160a01b0316600090815260036020526040902090565b6001600160a01b0316600090815260046020526040902090565b6001600160a01b0316600090815260056020526040902090565b6001600160a01b0316600090815260208190526040902090565b6001600160a01b0316600090815260026020526040902090565b6001600160a01b03166000908152600f6020526040902090565b9060018060a01b0316600052602052604060002090565b6040519061210082610742565b606060c0836000815282602082015282604082015282808201528260808201528260a08201520152565b634e487b7160e01b600052601160045260246000fd5b9063ffffffff8091169116019063ffffffff821161215a57565b61212a565b6040906121ca9261216e61291d565b61217782612997565b60018060a01b038216918260005260006020526121978460002054612cd8565b92600052600260205260018060a01b038460002054169184519586948593849363283a3d6b60e21b855260048501612d32565b03915afa908115610a835760009060009261221a575b501561220957670de0b5cad2bef00081116121f85790565b6301d1b96560e61b60005260046000fd5b6314fe5db560e21b60005260046000fd5b905061223e915060403d604011612245575b612236818361075d565b810190612d13565b90386121e0565b503d61222c565b908160209103126102d9575190565b91906020612273600192604086526040860190610437565b9361227d836103aa565b0152565b6040513d6000823e3d90fd5b906040519182815491828252602082019060005260206000209260005b8181106122bf5750506102ec9250038361075d565b84546001600160a01b03168352600194850194879450602090930192016122aa565b604051906122ee826106eb565b60006040838281528260208201520152565b9061230a826107e2565b612317604051918261075d565b8281528092612328601f19916107e2565b019060005b82811061233957505050565b6020906123446122e1565b8282850101520161232d565b9061235a826107e2565b612367604051918261075d565b8281528092612378601f19916107e2565b0190602036910137565b90600052602052604060002090565b634e487b7160e01b600052603260045260246000fd5b80518210156123bb5760209160051b010190565b612391565b516001600160a01b031690565b6123d6826103aa565b52565b906040516123e6816106eb565b604060ff8294548181166123f9816103aa565b8452600881901c6001600160a01b0316602085015260a81c161515910152565b3d15612444573d9061242a82610856565b91612438604051938461075d565b82523d6000602084013e565b606090565b6040519060c082016001600160401b0381118382101761070657604052600060a08360608152826020820152826040820152606080820152606060808201520152565b620f423f1981019190821161215a57565b9190820391821161215a57565b6001600160a01b0316600452602452604452606490565b916124de9061031e94928452606060208501526060840190610437565b916040818403910152610437565b93959491959290926124fc61291d565b612504613037565b61250d85612960565b612515613072565b61251e8561334f565b612527856129d1565b916125368351600190811c1690565b61261e576125959697612550602085015151835190613389565b60c0840195865161256860a0870191825190866133a1565b97896125748851613433565b6125d1575b899492508791509261258c96959361358c565b94859151613792565b6125a6575b5050505061031e61309f565b6125c26125b56125c8956120a8565b546001600160a01b031690565b926137ab565b3880808361259a565b91612611916125f5899b8b6125ef6125b561258c9c9b999a986120a8565b91613461565b6126076126018d612074565b8a613509565b51905190846133a1565b9781939294955089612579565b63218e374760e01b6000526113bc86610632565b6040519061016082016001600160401b03811183821017610706576040526000610140838281528260208201528260408201528260608201528260808201528260a08201528260c08201528260e082015282610100820152826101208201520152565b94969263ffffffff919694926126a961291d565b6126b1613072565b6126b9613a1c565b604051976126c689610742565b88526020880152166040860152151560608501526060853603126102d957612742612749926127539660408051916126fd836106eb565b8035612708816102c8565b83526020810135612718816102c8565b60208401520135612728816102c8565b604082015260808701526001600160a01b031660a0860152565b369061275b565b60c0830152613d69565b6102ec61309f565b91908260809103126102d9576040516127738161070b565b6060808294803561278381611cae565b8452602081013561279381611cae565b602085015260408101356127a681611cae565b604085015201359161227d83611cae565b506127c061291d565b6127c981612960565b6127d29061208e565b5460018116600182811c166127e68361445c565b906127f08461446a565b926127fa85612cd8565b61280386614494565b61280c876144d7565b612815886144ec565b9161281f89614516565b936128298a614524565b15996128348161453f565b9061283e81614556565b9061284890614563565b9161285161078f565b9c15158d52151560208d0152151560408c0152151560608b015261287361079e565b998a5260208a01526040890152606088015264ffffffffff16608087015263ffffffff1660a0860152151560c0850152151560e08401521515610100830152151561012082015290565b637911c44b60e11b60005260046000fd5b346128bd57366000803760008036817f00000000000000000000000000000000000000000000000000000000000000006001600160a01b03165af43d6000803e15612918573d6000f35b3d6000fd5b7f00000000000000000000000000000000000000000000000000000000000000006001600160a01b0316300361294f57565b634fe92d9b60e11b60005260046000fd5b6001600160a01b0316600081815260208190526040902054600116156129835750565b6327946f5760e21b60005260045260246000fd5b6001600160a01b0316600081815260208190526040902054600190811c16156129bd5750565b634bdace1360e01b60005260045260246000fd5b906129da6120f3565b6001600160a01b03909216600090815260056020908152604080832083835281842054600484528285206003855292909420805494875292860192612a1e9061228d565b8352612a2984612300565b9260408701938452612a3a85612350565b9260608801938452612a4b86612350565b6080890152612a5b868951612ed9565b60c0890152612a6986612350565b9060a08901918252612a7f8951600190811c1690565b9283612bc6575b83612bb3575b8960005b898110612aa35750505050505050505050565b8860019289838a612ae282612ace81612ac8610c848e610c7e8f85610c7991516123a7565b94612382565b54965183612adc83836123a7565b526123a7565b50612aec81612f32565b612af7838c516123a7565b52612b0d876001600160801b0387168487614702565b8a15612ba957604081015115159081612b8c575b50612b34575b505050505b018a90612a90565b82612b58612b5083612b49612b5e97516144d7565b95516123a7565b519560801c90565b90614dfb565b8d8382612b6f575b8b919250612b27565b612b7d8693612b839561249d565b91614702565b38808d83612b66565b87915051612b99816103aa565b612ba2816103aa565b1438612b21565b5050505050612b2c565b9250612bbf895161446a565b1592612a8c565b9250612bd289516144d7565b151592612a86565b6001600160a01b03166000908152602081905260409020549063ffffffff612c018361445c565b92612c0a614500565b1c169180612c16579190565b5063ffffffff612c467f000000000000000000000000000000000000000000000000000000000000000084612140565b164211159190565b60ff60019116019060ff821161215a57565b61031e612c76612c76612c76612c766001612c4e565b612c4e565b61031e612c76612c76612c76612c76612c76612c76612c60565b61031e612c76612c76612c76612c76612c76612c76612c7b565b9060058202918083046005149015171561215a57565b8181029291811591840414171561215a57565b62ffffff9060ff612ce7612c95565b161c1664174876e80081029080820464174876e800149015171561215a5790565b51906102ec82611cae565b91908260409103126102d95760208251612d2c81611cae565b92015190565b61227d612db460409396959496606084528051612d4e816103aa565b60608501526020810151608085015260c0612d788683015160e060a0880152610140870190610437565b606083015186830152608083015160e087015260a08301516001600160a01b0316610100870152910151848203605f1901610120860152611bfe565b6001600160a01b039096166020830152565b8115612dd0570490565b634e487b7160e01b600052601260045260246000fd5b90670de0b6b3a7640000820291808304670de0b6b3a7640000149015171561215a5761031e91612dc6565b32612e5857600160075416612e475760017f00000000000000000000000000000000000000000000000000000000000000005155565b633d0cc44360e11b60005260046000fd5b6333fc255960e11b60005260046000fd5b805115610e6157805190602001fd5b90612e9e5750805115612e8d57805190602001fd5b63d6bda27560e01b60005260046000fd5b81511580612ed0575b612eaf575090565b639996b31560e01b60009081526001600160a01b0391909116600452602490fd5b50803b15612ea7565b9064ffffffffff612ee982612350565b92612ef26144e4565b1c1660005b828110612f045750505090565b601f82612f1083612caf565b1c1690604d821161215a57600191600a0a612f2b82876123a7565b5201612ef7565b8051612f3d816103aa565b612f46816103aa565b80612f59575050670de0b6b3a764000090565b80612f656001926103aa565b03612fc1576020612f82612f7d8260049401516102bc565b6102bc565b6040516333cd77e760e11b815292839182905afa908115610a8357600091612fa8575090565b61031e915060203d602011610a7c57610a6d818361075d565b636fa2831960e11b60005260046000fd5b9091906001600160a01b0380841690831603612ff15750505060001990565b6001600160a01b0316600090815260106020526040902061301a92613015916120dc565b6120dc565b5490565b9060018060a01b03166000526020526040600020515490565b7f000000000000000000000000000000000000000000000000000000000000000051541561306157565b63604dd39b60e11b60005260046000fd5b600080516020614f5283398151915251805461308e5760019055565b633ee5aeb560e01b60005260046000fd5b6000600080516020614f528339815191525155565b92916130c08451612350565b9360005b81518110156130fe57806130ed856130e8866130e2600196886123a7565b51612cc5565b612dc6565b6130f782896123a7565b52016130c4565b50505050565b906000526020526040600020906000526020526040600020515490565b9061312b91612cc5565b6001670de0b6b3a7640000600019830104019015150290565b9061314e90614573565b90600160ff1b821461215a576102ec9160000390614598565b9061031e9160801c9061469a565b9190939293613185828285612fd2565b60018101613196575b505050509050565b8086116131b457946131aa94950392613916565b803880808061318e565b637dc7a0d960e11b60009081526001600160a01b0384166004526024919091526044869052606490fd5b3215806131e85790565b506001600754161590565b9190820180921161215a57565b9032612e58576132249160018060a01b0316600052600f60205260406000206120dc565b805491820180921161215a5755565b90916001600160a01b03831691821561333b5761325384613015836120c2565b548083116133245782900361326b85613015846120c2565b5561327f8261327983612026565b5461249d565b613288816146e1565b61329182612026565b556001600160a01b031690813b156102d9576040516323de665160e01b81526001600160a01b039490941660048501526000602485018190526044850182905293600080516020614f128339815191529161330591868160648183895af161330a575b506040519081529081906020820190565b0390a4565b806133188861331e9361075d565b80610555565b386132f4565b63391434e360e21b6000526113bc908390866124aa565b634b637e8f60e11b6000526113bc84610632565b613357613a1c565b61336081612bda565b506133685750565b63d971f59760e01b60009081526001600160a01b0391909116600452602490fd5b0361339057565b63aaad13f760e01b60005260046000fd5b91908251918151815181851491821592613428575b5050613390576133c583612350565b9360005b8481106133d857505050505090565b80670de0b6b3a76400006134166133f1600194866123a7565b516134116133ff858a6123a7565b5161340a868a6123a7565b5192612cc5565b612cc5565b0461342182896123a7565b52016133c9565b1415905038806133b6565b60019060ff613446612c76612c76612c60565b161c1690565b908160209103126102d9575161031e81611cae565b906134a59261349360006020946040519687958694859363038293c560e31b8552604060048601526044850190610437565b83810360031901602485015290611bfe565b03926001600160a01b03165af1908115610a83576000916134da575b50156134c957565b636061292560e01b60005260046000fd5b6134fc915060203d602011613502575b6134f4818361075d565b81019061344c565b386134c1565b503d6134ea565b6020810151519160005b8381106135205750505050565b8061353a61353460019360408701516123a7565b51612f32565b6135488260a08701516123a7565b52806000528260205261356982808060801b03604060002054168387614702565b01613513565b6001600160a01b0390811660045290811660245216604452606490565b92919596949661359b84612074565b9560005b6020890151805182101561364757610c79826135ba926123a7565b6135ca612f7d610c7984896123a7565b6001600160a01b03821690810361361e5750906135f46001926135ed838b6123a7565b51906147b0565b61360d8b613606836113a3818d6123a7565b519061469a565b613617828b612382565b550161359f565b6113bc9088613633612f7d610c79878c6123a7565b6001621d9e5f60e01b03196000529061356f565b505087519198909790965094939192506002191660021780855261366a8261208e565b55604051631309bd3d60e31b81526001600160a01b0382169560209082908190613697906004830161225b565b0381895afa8015610a83576136bd91600091613773575b506136b8816146e1565b61248c565b966136c7826147c2565b6136d2888484614890565b80881061375a575060019392859261373061371c60206137127fa26a52d8d53702bba7f137907b8e1f99ff87f6d450144270ca25e72481cca87196612026565b5497015151612350565b604051938493898060a01b031697846124c1565b0390a47fcad8c9d32507393b6508ca4a888b81979919b477510585bde8488f153072d6f3600080a2565b638d261d5d60e01b600052600488905260245260446000fd5b61378c915060203d602011610a7c57610a6d818361075d565b386136ae565b60019060ff613446612c76612c76612c76612c76612c60565b926137de600060209493956137f5604051978896879586946338be241d60e01b8652606060048701526064860190610437565b916024850152600319848303016044850152611bfe565b03926001600160a01b03165af1908115610a835760009161382a575b501561381957565b630791ede360e11b60005260046000fd5b613843915060203d602011613502576134f4818361075d565b38613811565b90613852612632565b5061385c82614964565b9161386681613433565b9061387081613792565b9161387a8261497a565b6138838361498d565b9161388d846149a3565b93613897816149bc565b956138a1826149d8565b906138ab836149f4565b926138b590614a01565b936138be6107ae565b9a15158b52151560208b0152151560408a01521515606089015215156080880152151560a0870152151560c0860152151560e0850152151561010084015215156101208301526001600160a01b031661014082015290565b926001600160a01b0382169290918315613a08576001600160a01b0382169485156139f4578361396084613015856130158660018060a01b03166000526010602052604060002090565b556001600160a01b031692833b156102d957604051630ad0fe5760e31b81526001600160a01b039283166004820152929091166024830152604482018190527fa0175360a15bca328baf7ea85c7b784d58b222a50d0ce760b10dba336d226a6191613305919060008160648183895af16139e557506040519081529081906020820190565b80613318600061331e9361075d565b634a1406b160e11b6000526113bc83610632565b63e602df0560e01b6000526113bc90610632565b63ffffffff7f00000000000000000000000000000000000000000000000000000000000000001642111580613a63575b613a5257565b6336a7e2cd60e21b60005260046000fd5b506001600754811c16613a4c565b90805190613a7e826103aa565b613a87826103aa565b825460208201516040909201516001600160b01b031990911660ff939093169290921760089190911b610100600160a81b03161790151560a81b60ff60a81b16179055565b908160209103126102d9575160ff811681036102d95790565b805490600160401b82101561070657600182018082558210156123bb576000908152602090200180546001600160a01b0319166001600160a01b03909216919091179055565b80546001600160a01b0319166001600160a01b03909216919091179055565b81516102ec92600291613b66906001600160a01b031684613b2b565b6020810151613b81906001600160a01b031660018501613b2b565b604001516001600160a01b03169101613b2b565b91908260409103126102d9576020825192015190565b906020808351928381520192019060005b818110613bc95750505090565b9091926020608060019260608751858060a01b03815116835284810151613bef816103aa565b85840152858060a01b0360408201511660408401520151151560608201520194019101919091613bbc565b6001600160a01b0391821681529116602082015260e0604082018190529093926102ec929091606091613c4f91870190613bab565b940190611e1f565b90816101409103126102d957613d0d610120613c7161079e565b92613c7b81612d08565b8452613c8960208201612d08565b6020850152613c9a60408201612d08565b6040850152613cab60608201612d08565b6060850152613cbc60808201612d08565b6080850152613ccd60a08201612d08565b60a0850152613cde60c08201612d08565b60c0850152613cef60e08201612d08565b60e0850152613d016101008201612d08565b61010085015201612d08565b61012082015290565b9196959394613d586102ec9663ffffffff61022096613d42613d62966102a089526102a0890190613bab565b9b60208801521660408601526060850190611b36565b60c0830190611926565b0190611e1f565b90613d7d613d768361208e565b5460011690565b614448578051519060028210614437576008821161442657613d9e82612350565b916000805b8282106141f8575050506080810180516001600160a01b0385166000908152600160205260409020613e439391613dd991613b4a565b6000906040613dec612f7d600a546102bc565b613df8828651016123c0565b90613e066060850151151590565b83516377ff76e760e01b81526001600160a01b03808c16600483015290931660248401521515604483015290958691908290869082906064820190565b03925af18015610a8357869483916141c3575b5060019560c08301968751613e6b9051151590565b613e7491614a11565b8751602001511515613e8591614a35565b8751604001511515613e9691614a4e565b8751606001511515613ea791614a5c565b90613eb190614a6d565b613eba91614b0c565b9260408301938451613ecf9063ffffffff1690565b613ed891614b5e565b90613ee291614baf565b90613eec91614bd9565b60a08201918251613efc906102bc565b613f05906102bc565b80613fa5575b5095613f8682613f80612f7d613f778a9b613fa09897613f39600080516020614f328339815191529d61208e565b55613f598d613f54613f4e612f7d8c516102bc565b916120a8565b613b2b565b613f69602082019d8e5190614cde565b519b51985163ffffffff1690565b985195516102bc565b90613849565b905191604051958695339a60018060a01b03169987613d16565b0390a3565b613fe191939597949650613fba6020916102bc565b84519086519160008c604051968795869485936305c4f8c160e11b85523360048601613c1a565b03925af1908115610a83576000916141a4575b501561419657600490610140614010612f7d612f7d88516102bc565b60405163d77153a760e01b815293849182905afa918215610a8357600092614165575b50815115158061414b575b61412a5792613f86613f39613f80612f7d613f77613fa0978d61411989829f9d9a600080516020614f328339815191529f9d61410b6140fd6140f06140e36140d66140c96140bc6140af6140a26101209961409c6141139c51151590565b90614bfb565b60208c0151151590614c12565b60408b0151151590614c26565b60608a0151151590614c40565b6080890151151590614c5d565b60a0880151151590614c6b565b60c0870151151590614c7c565b60e0860151151590614c90565b610100850151151590614ca7565b920151151590565b90614cc1565b98995050959b9a5050505050613f0b565b6113bc8861413887516102bc565b633ea4f60560e21b60005233919061356f565b5061415f61415a855151151590565b151590565b1561403e565b6141889192506101403d811161418f575b614180818361075d565b810190613c57565b9038614033565b503d614176565b6113bc8761413886516102bc565b6141bd915060203d602011613502576134f4818361075d565b38613ff4565b90506141e891925060403d6040116141f1575b6141e0818361075d565b810190613b95565b91909138613e56565b503d6141d6565b6142038285516123a7565b5161420e81516102bc565b6001600160a01b0381169290919083158015614414575b614403576001600160a01b03168084106143f25783146143de576040810190886142c3614255612f7d85516102bc565b15936142be8661301560208701956142b9606061427d895197614277896103aa565b516102bc565b9901986142b061428d8b51151590565b916142a06142996107be565b998a6123cd565b6001600160a01b03166020890152565b15156040870152565b61205a565b613a71565b80516142ce816103aa565b6142d7816103aa565b6143a35750811591614398575b50612fc15760206004925b60405163313ce56760e01b815293849182905afa918215610a8357600092614368575b50601260ff831611156143305763686d360760e01b60005260046000fd5b61434e60ff6001936012031661434685896123a7565b9060ff169052565b6143608161435b89612040565b613ae5565b910190613da3565b61438a91925060203d8111614391575b614382818361075d565b810190613acc565b9038614312565b503d614378565b5115159050386142e4565b60019150516143b1816103aa565b6143ba816103aa565b036143cd57612fc15760206004926142ef565b63a1e9dd9d60e01b60005260046000fd5b6327a5b1a760e11b6000526113bc82610632565b636e8f194760e01b60005260046000fd5b63c1ab6dc160e01b60005260046000fd5b506001600160a01b0389168414614225565b630e0f7beb60e31b60005260046000fd5b635ed4ba8f60e01b60005260046000fd5b6301b6ee3960e71b6000526113bc82610632565b60019060ff61344683612c4e565b60019060ff613446612c7684612c4e565b60ff614485612c95565b166018810180911161215a5790565b62ffffff906144a161447b565b1c1664174876e80081029080820464174876e800149015171561215a5790565b6144c961447b565b6018810180911161215a5790565b62ffffff906144a16144c1565b6144c96144c1565b64ffffffffff906144fb6144e4565b1c1690565b6145086144e4565b6028810180911161215a5790565b63ffffffff906144fb614500565b60019060ff614538612c76612c7685612c4e565b161c161590565b60019060ff613446612c76612c76612c7686612c4e565b60019060ff613446612c60565b60019060ff613446612c76612c60565b6001600160ff1b0381116145845790565b63123baf0360e11b60005260045260246000fd5b908015614696577f0000000000000000000000000000000000000000000000000000000000000000916145cb818461301e565b8281019283126000821290801582169115161761215a578261463757507f000000000000000000000000000000000000000000000000000000000000000092835154600019810190811161215a576102ec9451559060018060a01b031660005260205260406000205155565b15614659575b6102ec929060018060a01b031660005260205260406000205155565b7f0000000000000000000000000000000000000000000000000000000000000000928351546001810180911161215a576102ec945155925061463d565b5050565b906001600160801b03821180156146d1575b6146c05760801b90810180911161215a5790565b6389560ca160e01b60005260046000fd5b506001600160801b0381116146ac565b620f424081106146ee5750565b6334e3483f60e21b60005260045260246000fd5b92826147128360608701516123a7565b5261471c816103aa565b6147a8576002915b6147328260c08601516123a7565b516147418360a08701516123a7565b5193806001146147895760021461476857634e487b7160e01b600052605160045260246000fd5b6123d69361477b61478092608094612cc5565b613121565b935b01516123a7565b506123d69361479d6147a292608094612cc5565b614e6a565b93614782565b600191614724565b6147bc6102ec92614573565b90614598565b6147cb81612026565b805490620f4240820180921161215a57556147f76147e8826120c2565b60008052602052604060002090565b620f4240815401905560018060a01b031660008082600080516020614f12833981519152604051806148308190620f4240602083019252565b0390a4803b156102d957600060405180926323de665160e01b82528183816148706004820190620f42406040606084019360008152600060208201520152565b03925af18015610a83576148815750565b8061331860006102ec9361075d565b6001600160a01b03821692908315614950576148b5826148af83612026565b546131f3565b6148c284613015846120c2565b8381540190556148d1816146e1565b6148da82612026565b5560018060a01b031692600084600080516020614f128339815191526040518061490987829190602083019252565b0390a4823b156102d9576040516323de665160e01b81526000600482018190526001600160a01b039093166024820152604481019190915291829081838160648101614870565b63ec442f0560e01b6000526113bc83610632565b60019060ff613446612c76612c76612c76612c60565b60019060ff613446612c76612c76612c7b565b60019060ff613446612c76612c76612c76612c7b565b60019060ff613446612c76612c76612c76612c76612c7b565b60019060ff613446612c76612c76612c76612c76612c76612c7b565b60019060ff613446612c76612c76612c76612c76612c76612c60565b60019060ff613446612c7b565b60019060ff613446612c76612c7b565b61031e9160ff614a27612c76612c766001612c4e565b16916001831b1916911b1790565b61031e9160ff614a27612c76612c76612c766001612c4e565b61031e9160ff614a27612c60565b61031e9160ff614a27612c76612c60565b60009190825b8151841015614b0057614a8684836123a7565b5190614a9185612caf565b916000610100841015614af1578361010003610100811161215a578060ff108160ff180218600511614af15760078260051c16614ae2575090601f60ff6001949316831b921b191617930192614a73565b63e4337c0560e01b8152600490fd5b632d0483c560e21b8152600490fd5b64ffffffffff16925050565b614b146144e4565b916000610100841015614af1578361010003610100811161215a578060ff108160ff180218602811614af157808260281c16614ae2575064ffffffffff809116831b921b19161790565b614b66614500565b916000610100841015614af1578361010003610100811161215a578060ff108160ff180218602011614af157808260201c16614ae2575063ffffffff809116831b921b19161790565b90670de0b5cad2bef00081116121f85761031e9164174876e800614bd161447b565b920490614e81565b90670de0b5cad2bef00081116121f85761031e9164174876e800614bd16144c1565b61031e9160ff614a27612c76612c76612c76612c60565b61031e9160ff614a27612c76612c76612c60565b61031e9160ff614a27612c76612c76612c76612c76612c60565b61031e9160ff614a27612c76612c76612c76612c76612c76612c60565b61031e9160ff614a27612c7b565b61031e9160ff614a27612c76612c7b565b61031e9160ff614a27612c76612c76612c7b565b61031e9160ff614a27612c76612c76612c76612c7b565b61031e9160ff614a27612c76612c76612c76612c76612c7b565b61031e9160ff614a27612c76612c76612c76612c76612c76612c7b565b60405163ce20ece760e01b81526001600160a01b038216929190602081600481875afa908115610a8357600091614ddc575b508210614dcb5760405163654cf15d60e01b8152602081600481875afa908115610a8357600091614dac575b508211614d9b578181614d85614d7f7f89d41522342fabac1471ca6073a5623e5caf367b03ca6e9a001478d0cf8be4a195614d79614d969661208e565b54614ee4565b9161208e565b556040519081529081906020820190565b0390a2565b637f47834b60e01b60005260046000fd5b614dc5915060203d602011610a7c57610a6d818361075d565b38614d3c565b6317f640d160e31b60005260046000fd5b614df5915060203d602011610a7c57610a6d818361075d565b38614d10565b909392600094614e0f8460808501516123a7565b51818111614e1f575b5050505050565b614e5f959650614e599392614e5292614e389203613121565b9360a0614e498260c08601516123a7565b519301516123a7565b5190612cc5565b90612de6565b903880808080614e18565b670de0b6b3a764000091614e7d91612cc5565b0490565b90610100831015614ed3578261010003610100811161215a578060ff108160ff180218601811614ed3578060181c614ec25762ffffff90831b921b19161790565b63e4337c0560e01b60005260046000fd5b632d0483c560e21b60005260046000fd5b90670de0b5cad2bef00081116121f85761031e9164174876e80060ff614f08612c95565b16920490614e8156fed1398bee19313d6bf672ccb116e51f4a1a947e91c757907f51fbb5b5e56c698fbc1561eeab9f40962e2fb827a7ff9c7cdb47a9d7c84caeefa4ed90e043842dad9b779b17422d0df92223018b32b4d1fa46e071723d6817e2486d003becc55f00a26469706673582212207c59415a4e79fa44631704dad88b79c472987bbf7bd39601945093f8a738570f64736f6c634300081a0033",
  "linkReferences": {},
  "deployedLinkReferences": {}
}