{
  "_format": "hh-sol-artifact-1",
  "contractName": "VaultExtension",
  "sourceName": "contracts/_VaultExtension.sol",
  "abi": [
    {
      "inputs": [
        {
          "internalType": "contract IVault",
          "name": "mainVault",
          "type": "address"
        },
        {
          "internalType": "contract IVaultAdmin",
          "name": "vaultAdmin",
          "type": "address"
        }
      ],
      "stateMutability": "nonpayable",
      "type": "constructor"
    },
    {
      "inputs": [
        {
          "internalType": "address",
          "name": "target",
          "type": "address"
        }
      ],
      "name": "AddressEmptyCode",
      "type": "error"
    },
    {
      "inputs": [],
      "name": "AfterAddLiquidityHookFailed",
      "type": "error"
    },
    {
      "inputs": [],
      "name": "AfterInitializeHookFailed",
      "type": "error"
    },
    {
      "inputs": [],
      "name": "AfterRemoveLiquidityHookFailed",
      "type": "error"
    },
    {
      "inputs": [],
      "name": "AfterSwapHookFailed",
      "type": "error"
    },
    {
      "inputs": [],
      "name": "AmountGivenZero",
      "type": "error"
    },
    {
      "inputs": [
        {
          "internalType": "contract IERC20",
          "name": "tokenIn",
          "type": "address"
        },
        {
          "internalType": "uint256",
          "name": "amountIn",
          "type": "uint256"
        },
        {
          "internalType": "uint256",
          "name": "maxAmountIn",
          "type": "uint256"
        }
      ],
      "name": "AmountInAboveMax",
      "type": "error"
    },
    {
      "inputs": [
        {
          "internalType": "contract IERC20",
          "name": "tokenOut",
          "type": "address"
        },
        {
          "internalType": "uint256",
          "name": "amountOut",
          "type": "uint256"
        },
        {
          "internalType": "uint256",
          "name": "minAmountOut",
          "type": "uint256"
        }
      ],
      "name": "AmountOutBelowMin",
      "type": "error"
    },
    {
      "inputs": [],
      "name": "BalanceNotSettled",
      "type": "error"
    },
    {
      "inputs": [],
      "name": "BalanceOverflow",
      "type": "error"
    },
    {
      "inputs": [],
      "name": "BeforeAddLiquidityHookFailed",
      "type": "error"
    },
    {
      "inputs": [],
      "name": "BeforeInitializeHookFailed",
      "type": "error"
    },
    {
      "inputs": [],
      "name": "BeforeRemoveLiquidityHookFailed",
      "type": "error"
    },
    {
      "inputs": [],
      "name": "BeforeSwapHookFailed",
      "type": "error"
    },
    {
      "inputs": [
        {
          "internalType": "uint256",
          "name": "amountIn",
          "type": "uint256"
        },
        {
          "internalType": "uint256",
          "name": "maxAmountIn",
          "type": "uint256"
        }
      ],
      "name": "BptAmountInAboveMax",
      "type": "error"
    },
    {
      "inputs": [
        {
          "internalType": "uint256",
          "name": "amountOut",
          "type": "uint256"
        },
        {
          "internalType": "uint256",
          "name": "minAmountOut",
          "type": "uint256"
        }
      ],
      "name": "BptAmountOutBelowMin",
      "type": "error"
    },
    {
      "inputs": [
        {
          "internalType": "contract IERC4626",
          "name": "wrappedToken",
          "type": "address"
        }
      ],
      "name": "BufferAlreadyInitialized",
      "type": "error"
    },
    {
      "inputs": [
        {
          "internalType": "contract IERC4626",
          "name": "wrappedToken",
          "type": "address"
        }
      ],
      "name": "BufferNotInitialized",
      "type": "error"
    },
    {
      "inputs": [],
      "name": "BufferSharesInvalidOwner",
      "type": "error"
    },
    {
      "inputs": [],
      "name": "BufferSharesInvalidReceiver",
      "type": "error"
    },
    {
      "inputs": [
        {
          "internalType": "uint256",
          "name": "totalSupply",
          "type": "uint256"
        }
      ],
      "name": "BufferTotalSupplyTooLow",
      "type": "error"
    },
    {
      "inputs": [],
      "name": "CannotReceiveEth",
      "type": "error"
    },
    {
      "inputs": [],
      "name": "CannotSwapSameToken",
      "type": "error"
    },
    {
      "inputs": [],
      "name": "CodecOverflow",
      "type": "error"
    },
    {
      "inputs": [],
      "name": "DoesNotSupportAddLiquidityCustom",
      "type": "error"
    },
    {
      "inputs": [],
      "name": "DoesNotSupportDonation",
      "type": "error"
    },
    {
      "inputs": [],
      "name": "DoesNotSupportRemoveLiquidityCustom",
      "type": "error"
    },
    {
      "inputs": [],
      "name": "DoesNotSupportUnbalancedLiquidity",
      "type": "error"
    },
    {
      "inputs": [],
      "name": "DynamicSwapFeeHookFailed",
      "type": "error"
    },
    {
      "inputs": [
        {
          "internalType": "address",
          "name": "spender",
          "type": "address"
        },
        {
          "internalType": "uint256",
          "name": "allowance",
          "type": "uint256"
        },
        {
          "internalType": "uint256",
          "name": "needed",
          "type": "uint256"
        }
      ],
      "name": "ERC20InsufficientAllowance",
      "type": "error"
    },
    {
      "inputs": [
        {
          "internalType": "address",
          "name": "sender",
          "type": "address"
        },
        {
          "internalType": "uint256",
          "name": "balance",
          "type": "uint256"
        },
        {
          "internalType": "uint256",
          "name": "needed",
          "type": "uint256"
        }
      ],
      "name": "ERC20InsufficientBalance",
      "type": "error"
    },
    {
      "inputs": [
        {
          "internalType": "address",
          "name": "approver",
          "type": "address"
        }
      ],
      "name": "ERC20InvalidApprover",
      "type": "error"
    },
    {
      "inputs": [
        {
          "internalType": "address",
          "name": "receiver",
          "type": "address"
        }
      ],
      "name": "ERC20InvalidReceiver",
      "type": "error"
    },
    {
      "inputs": [
        {
          "internalType": "address",
          "name": "sender",
          "type": "address"
        }
      ],
      "name": "ERC20InvalidSender",
      "type": "error"
    },
    {
      "inputs": [
        {
          "internalType": "address",
          "name": "spender",
          "type": "address"
        }
      ],
      "name": "ERC20InvalidSpender",
      "type": "error"
    },
    {
      "inputs": [],
      "name": "ErrorSelectorNotFound",
      "type": "error"
    },
    {
      "inputs": [],
      "name": "FailedCall",
      "type": "error"
    },
    {
      "inputs": [],
      "name": "FeePrecisionTooHigh",
      "type": "error"
    },
    {
      "inputs": [
        {
          "internalType": "contract IERC20",
          "name": "tokenIn",
          "type": "address"
        },
        {
          "internalType": "uint256",
          "name": "amountIn",
          "type": "uint256"
        },
        {
          "internalType": "uint256",
          "name": "maxAmountIn",
          "type": "uint256"
        }
      ],
      "name": "HookAdjustedAmountInAboveMax",
      "type": "error"
    },
    {
      "inputs": [
        {
          "internalType": "contract IERC20",
          "name": "tokenOut",
          "type": "address"
        },
        {
          "internalType": "uint256",
          "name": "amountOut",
          "type": "uint256"
        },
        {
          "internalType": "uint256",
          "name": "minAmountOut",
          "type": "uint256"
        }
      ],
      "name": "HookAdjustedAmountOutBelowMin",
      "type": "error"
    },
    {
      "inputs": [
        {
          "internalType": "uint256",
          "name": "amount",
          "type": "uint256"
        },
        {
          "internalType": "uint256",
          "name": "limit",
          "type": "uint256"
        }
      ],
      "name": "HookAdjustedSwapLimit",
      "type": "error"
    },
    {
      "inputs": [
        {
          "internalType": "address",
          "name": "poolHooksContract",
          "type": "address"
        },
        {
          "internalType": "address",
          "name": "pool",
          "type": "address"
        },
        {
          "internalType": "address",
          "name": "poolFactory",
          "type": "address"
        }
      ],
      "name": "HookRegistrationFailed",
      "type": "error"
    },
    {
      "inputs": [],
      "name": "InputLengthMismatch",
      "type": "error"
    },
    {
      "inputs": [
        {
          "internalType": "uint256",
          "name": "balance",
          "type": "uint256"
        },
        {
          "internalType": "uint256",
          "name": "needed",
          "type": "uint256"
        }
      ],
      "name": "InsufficientBalance",
      "type": "error"
    },
    {
      "inputs": [],
      "name": "InvalidAddLiquidityKind",
      "type": "error"
    },
    {
      "inputs": [],
      "name": "InvalidRemoveLiquidityKind",
      "type": "error"
    },
    {
      "inputs": [],
      "name": "InvalidToken",
      "type": "error"
    },
    {
      "inputs": [],
      "name": "InvalidTokenConfiguration",
      "type": "error"
    },
    {
      "inputs": [],
      "name": "InvalidTokenDecimals",
      "type": "error"
    },
    {
      "inputs": [],
      "name": "InvalidTokenType",
      "type": "error"
    },
    {
      "inputs": [
        {
          "internalType": "contract IERC4626",
          "name": "wrappedToken",
          "type": "address"
        }
      ],
      "name": "InvalidUnderlyingToken",
      "type": "error"
    },
    {
      "inputs": [
        {
          "internalType": "uint256",
          "name": "issuedShares",
          "type": "uint256"
        },
        {
          "internalType": "uint256",
          "name": "minIssuedShares",
          "type": "uint256"
        }
      ],
      "name": "IssuedSharesBelowMin",
      "type": "error"
    },
    {
      "inputs": [],
      "name": "MaxTokens",
      "type": "error"
    },
    {
      "inputs": [],
      "name": "MinTokens",
      "type": "error"
    },
    {
      "inputs": [],
      "name": "NotEnoughBufferShares",
      "type": "error"
    },
    {
      "inputs": [
        {
          "internalType": "contract IERC4626",
          "name": "wrappedToken",
          "type": "address"
        },
        {
          "internalType": "uint256",
          "name": "expectedUnderlyingAmount",
          "type": "uint256"
        },
        {
          "internalType": "uint256",
          "name": "actualUnderlyingAmount",
          "type": "uint256"
        }
      ],
      "name": "NotEnoughUnderlying",
      "type": "error"
    },
    {
      "inputs": [
        {
          "internalType": "contract IERC4626",
          "name": "wrappedToken",
          "type": "address"
        },
        {
          "internalType": "uint256",
          "name": "expectedWrappedAmount",
          "type": "uint256"
        },
        {
          "internalType": "uint256",
          "name": "actualWrappedAmount",
          "type": "uint256"
        }
      ],
      "name": "NotEnoughWrapped",
      "type": "error"
    },
    {
      "inputs": [],
      "name": "NotStaticCall",
      "type": "error"
    },
    {
      "inputs": [],
      "name": "NotVaultDelegateCall",
      "type": "error"
    },
    {
      "inputs": [],
      "name": "OutOfBounds",
      "type": "error"
    },
    {
      "inputs": [],
      "name": "PauseBufferPeriodDurationTooLarge",
      "type": "error"
    },
    {
      "inputs": [],
      "name": "PercentageAboveMax",
      "type": "error"
    },
    {
      "inputs": [
        {
          "internalType": "address",
          "name": "pool",
          "type": "address"
        }
      ],
      "name": "PoolAlreadyInitialized",
      "type": "error"
    },
    {
      "inputs": [
        {
          "internalType": "address",
          "name": "pool",
          "type": "address"
        }
      ],
      "name": "PoolAlreadyRegistered",
      "type": "error"
    },
    {
      "inputs": [
        {
          "internalType": "address",
          "name": "pool",
          "type": "address"
        }
      ],
      "name": "PoolInRecoveryMode",
      "type": "error"
    },
    {
      "inputs": [
        {
          "internalType": "address",
          "name": "pool",
          "type": "address"
        }
      ],
      "name": "PoolNotInRecoveryMode",
      "type": "error"
    },
    {
      "inputs": [
        {
          "internalType": "address",
          "name": "pool",
          "type": "address"
        }
      ],
      "name": "PoolNotInitialized",
      "type": "error"
    },
    {
      "inputs": [
        {
          "internalType": "address",
          "name": "pool",
          "type": "address"
        }
      ],
      "name": "PoolNotPaused",
      "type": "error"
    },
    {
      "inputs": [
        {
          "internalType": "address",
          "name": "pool",
          "type": "address"
        }
      ],
      "name": "PoolNotRegistered",
      "type": "error"
    },
    {
      "inputs": [
        {
          "internalType": "address",
          "name": "pool",
          "type": "address"
        }
      ],
      "name": "PoolPauseWindowExpired",
      "type": "error"
    },
    {
      "inputs": [
        {
          "internalType": "address",
          "name": "pool",
          "type": "address"
        }
      ],
      "name": "PoolPaused",
      "type": "error"
    },
    {
      "inputs": [
        {
          "internalType": "uint256",
          "name": "totalSupply",
          "type": "uint256"
        }
      ],
      "name": "PoolTotalSupplyTooLow",
      "type": "error"
    },
    {
      "inputs": [],
      "name": "ProtocolFeesExceedTotalCollected",
      "type": "error"
    },
    {
      "inputs": [],
      "name": "QueriesDisabled",
      "type": "error"
    },
    {
      "inputs": [],
      "name": "QueriesDisabledPermanently",
      "type": "error"
    },
    {
      "inputs": [],
      "name": "QuoteResultSpoofed",
      "type": "error"
    },
    {
      "inputs": [],
      "name": "ReentrancyGuardReentrantCall",
      "type": "error"
    },
    {
      "inputs": [
        {
          "internalType": "bytes",
          "name": "result",
          "type": "bytes"
        }
      ],
      "name": "Result",
      "type": "error"
    },
    {
      "inputs": [],
      "name": "RouterNotTrusted",
      "type": "error"
    },
    {
      "inputs": [
        {
          "internalType": "uint256",
          "name": "value",
          "type": "uint256"
        }
      ],
      "name": "SafeCastOverflowedUintToInt",
      "type": "error"
    },
    {
      "inputs": [
        {
          "internalType": "address",
          "name": "sender",
          "type": "address"
        }
      ],
      "name": "SenderIsNotVault",
      "type": "error"
    },
    {
      "inputs": [],
      "name": "SwapFeePercentageTooHigh",
      "type": "error"
    },
    {
      "inputs": [],
      "name": "SwapFeePercentageTooLow",
      "type": "error"
    },
    {
      "inputs": [
        {
          "internalType": "uint256",
          "name": "amount",
          "type": "uint256"
        },
        {
          "internalType": "uint256",
          "name": "limit",
          "type": "uint256"
        }
      ],
      "name": "SwapLimit",
      "type": "error"
    },
    {
      "inputs": [
        {
          "internalType": "contract IERC20",
          "name": "token",
          "type": "address"
        }
      ],
      "name": "TokenAlreadyRegistered",
      "type": "error"
    },
    {
      "inputs": [
        {
          "internalType": "contract IERC20",
          "name": "token",
          "type": "address"
        }
      ],
      "name": "TokenNotRegistered",
      "type": "error"
    },
    {
      "inputs": [
        {
          "internalType": "address",
          "name": "pool",
          "type": "address"
        },
        {
          "internalType": "address",
          "name": "expectedToken",
          "type": "address"
        },
        {
          "internalType": "address",
          "name": "actualToken",
          "type": "address"
        }
      ],
      "name": "TokensMismatch",
      "type": "error"
    },
    {
      "inputs": [],
      "name": "TokensNotSorted",
      "type": "error"
    },
    {
      "inputs": [],
      "name": "TradeAmountTooSmall",
      "type": "error"
    },
    {
      "inputs": [],
      "name": "VaultBuffersArePaused",
      "type": "error"
    },
    {
      "inputs": [],
      "name": "VaultIsNotUnlocked",
      "type": "error"
    },
    {
      "inputs": [],
      "name": "VaultNotPaused",
      "type": "error"
    },
    {
      "inputs": [],
      "name": "VaultPauseWindowDurationTooLarge",
      "type": "error"
    },
    {
      "inputs": [],
      "name": "VaultPauseWindowExpired",
      "type": "error"
    },
    {
      "inputs": [],
      "name": "VaultPaused",
      "type": "error"
    },
    {
      "inputs": [
        {
          "internalType": "contract IERC4626",
          "name": "wrappedToken",
          "type": "address"
        }
      ],
      "name": "WrapAmountTooSmall",
      "type": "error"
    },
    {
      "inputs": [],
      "name": "WrongProtocolFeeControllerDeployment",
      "type": "error"
    },
    {
      "inputs": [
        {
          "internalType": "contract IERC4626",
          "name": "wrappedToken",
          "type": "address"
        },
        {
          "internalType": "address",
          "name": "underlyingToken",
          "type": "address"
        }
      ],
      "name": "WrongUnderlyingToken",
      "type": "error"
    },
    {
      "inputs": [],
      "name": "WrongVaultAdminDeployment",
      "type": "error"
    },
    {
      "inputs": [],
      "name": "WrongVaultExtensionDeployment",
      "type": "error"
    },
    {
      "anonymous": false,
      "inputs": [
        {
          "indexed": true,
          "internalType": "address",
          "name": "pool",
          "type": "address"
        },
        {
          "indexed": false,
          "internalType": "uint256",
          "name": "aggregateSwapFeePercentage",
          "type": "uint256"
        }
      ],
      "name": "AggregateSwapFeePercentageChanged",
      "type": "event"
    },
    {
      "anonymous": false,
      "inputs": [
        {
          "indexed": true,
          "internalType": "address",
          "name": "pool",
          "type": "address"
        },
        {
          "indexed": false,
          "internalType": "uint256",
          "name": "aggregateYieldFeePercentage",
          "type": "uint256"
        }
      ],
      "name": "AggregateYieldFeePercentageChanged",
      "type": "event"
    },
    {
      "anonymous": false,
      "inputs": [
        {
          "indexed": true,
          "internalType": "address",
          "name": "pool",
          "type": "address"
        },
        {
          "indexed": true,
          "internalType": "address",
          "name": "owner",
          "type": "address"
        },
        {
          "indexed": true,
          "internalType": "address",
          "name": "spender",
          "type": "address"
        },
        {
          "indexed": false,
          "internalType": "uint256",
          "name": "value",
          "type": "uint256"
        }
      ],
      "name": "Approval",
      "type": "event"
    },
    {
      "anonymous": false,
      "inputs": [
        {
          "indexed": true,
          "internalType": "contract IAuthorizer",
          "name": "newAuthorizer",
          "type": "address"
        }
      ],
      "name": "AuthorizerChanged",
      "type": "event"
    },
    {
      "anonymous": false,
      "inputs": [
        {
          "indexed": true,
          "internalType": "contract IERC4626",
          "name": "wrappedToken",
          "type": "address"
        },
        {
          "indexed": true,
          "internalType": "address",
          "name": "from",
          "type": "address"
        },
        {
          "indexed": false,
          "internalType": "uint256",
          "name": "burnedShares",
          "type": "uint256"
        }
      ],
      "name": "BufferSharesBurned",
      "type": "event"
    },
    {
      "anonymous": false,
      "inputs": [
        {
          "indexed": true,
          "internalType": "contract IERC4626",
          "name": "wrappedToken",
          "type": "address"
        },
        {
          "indexed": true,
          "internalType": "address",
          "name": "to",
          "type": "address"
        },
        {
          "indexed": false,
          "internalType": "uint256",
          "name": "issuedShares",
          "type": "uint256"
        }
      ],
      "name": "BufferSharesMinted",
      "type": "event"
    },
    {
      "anonymous": false,
      "inputs": [
        {
          "indexed": true,
          "internalType": "address",
          "name": "pool",
          "type": "address"
        },
        {
          "indexed": true,
          "internalType": "address",
          "name": "liquidityProvider",
          "type": "address"
        },
        {
          "indexed": true,
          "internalType": "enum AddLiquidityKind",
          "name": "kind",
          "type": "uint8"
        },
        {
          "indexed": false,
          "internalType": "uint256",
          "name": "totalSupply",
          "type": "uint256"
        },
        {
          "indexed": false,
          "internalType": "uint256[]",
          "name": "amountsAddedRaw",
          "type": "uint256[]"
        },
        {
          "indexed": false,
          "internalType": "uint256[]",
          "name": "swapFeeAmountsRaw",
          "type": "uint256[]"
        }
      ],
      "name": "LiquidityAdded",
      "type": "event"
    },
    {
      "anonymous": false,
      "inputs": [
        {
          "indexed": true,
          "internalType": "contract IERC4626",
          "name": "wrappedToken",
          "type": "address"
        },
        {
          "indexed": false,
          "internalType": "uint256",
          "name": "amountUnderlying",
          "type": "uint256"
        },
        {
          "indexed": false,
          "internalType": "uint256",
          "name": "amountWrapped",
          "type": "uint256"
        },
        {
          "indexed": false,
          "internalType": "bytes32",
          "name": "bufferBalances",
          "type": "bytes32"
        }
      ],
      "name": "LiquidityAddedToBuffer",
      "type": "event"
    },
    {
      "anonymous": false,
      "inputs": [
        {
          "indexed": true,
          "internalType": "address",
          "name": "pool",
          "type": "address"
        },
        {
          "indexed": true,
          "internalType": "address",
          "name": "liquidityProvider",
          "type": "address"
        },
        {
          "indexed": true,
          "internalType": "enum RemoveLiquidityKind",
          "name": "kind",
          "type": "uint8"
        },
        {
          "indexed": false,
          "internalType": "uint256",
          "name": "totalSupply",
          "type": "uint256"
        },
        {
          "indexed": false,
          "internalType": "uint256[]",
          "name": "amountsRemovedRaw",
          "type": "uint256[]"
        },
        {
          "indexed": false,
          "internalType": "uint256[]",
          "name": "swapFeeAmountsRaw",
          "type": "uint256[]"
        }
      ],
      "name": "LiquidityRemoved",
      "type": "event"
    },
    {
      "anonymous": false,
      "inputs": [
        {
          "indexed": true,
          "internalType": "contract IERC4626",
          "name": "wrappedToken",
          "type": "address"
        },
        {
          "indexed": false,
          "internalType": "uint256",
          "name": "amountUnderlying",
          "type": "uint256"
        },
        {
          "indexed": false,
          "internalType": "uint256",
          "name": "amountWrapped",
          "type": "uint256"
        },
        {
          "indexed": false,
          "internalType": "bytes32",
          "name": "bufferBalances",
          "type": "bytes32"
        }
      ],
      "name": "LiquidityRemovedFromBuffer",
      "type": "event"
    },
    {
      "anonymous": false,
      "inputs": [
        {
          "indexed": true,
          "internalType": "address",
          "name": "pool",
          "type": "address"
        }
      ],
      "name": "PoolInitialized",
      "type": "event"
    },
    {
      "anonymous": false,
      "inputs": [
        {
          "indexed": true,
          "internalType": "address",
          "name": "pool",
          "type": "address"
        },
        {
          "indexed": false,
          "internalType": "bool",
          "name": "paused",
          "type": "bool"
        }
      ],
      "name": "PoolPausedStateChanged",
      "type": "event"
    },
    {
      "anonymous": false,
      "inputs": [
        {
          "indexed": true,
          "internalType": "address",
          "name": "pool",
          "type": "address"
        },
        {
          "indexed": false,
          "internalType": "bool",
          "name": "recoveryMode",
          "type": "bool"
        }
      ],
      "name": "PoolRecoveryModeStateChanged",
      "type": "event"
    },
    {
      "anonymous": false,
      "inputs": [
        {
          "indexed": true,
          "internalType": "address",
          "name": "pool",
          "type": "address"
        },
        {
          "indexed": true,
          "internalType": "address",
          "name": "factory",
          "type": "address"
        },
        {
          "components": [
            {
              "internalType": "contract IERC20",
              "name": "token",
              "type": "address"
            },
            {
              "internalType": "uint256",
              "name": "chainId",
              "type": "uint256"
            },
            {
              "internalType": "enum TokenType",
              "name": "tokenType",
              "type": "uint8"
            },
            {
              "internalType": "contract IRateProvider",
              "name": "rateProvider",
              "type": "address"
            },
            {
              "internalType": "bool",
              "name": "paysYieldFees",
              "type": "bool"
            }
          ],
          "indexed": false,
          "internalType": "struct TokenConfig[]",
          "name": "tokenConfig",
          "type": "tuple[]"
        },
        {
          "indexed": false,
          "internalType": "uint256",
          "name": "swapFeePercentage",
          "type": "uint256"
        },
        {
          "indexed": false,
          "internalType": "uint32",
          "name": "pauseWindowEndTime",
          "type": "uint32"
        },
        {
          "components": [
            {
              "internalType": "address",
              "name": "pauseManager",
              "type": "address"
            },
            {
              "internalType": "address",
              "name": "swapFeeManager",
              "type": "address"
            },
            {
              "internalType": "address",
              "name": "poolCreator",
              "type": "address"
            }
          ],
          "indexed": false,
          "internalType": "struct PoolRoleAccounts",
          "name": "roleAccounts",
          "type": "tuple"
        },
        {
          "components": [
            {
              "internalType": "bool",
              "name": "enableHookAdjustedAmounts",
              "type": "bool"
            },
            {
              "internalType": "bool",
              "name": "shouldCallBeforeInitialize",
              "type": "bool"
            },
            {
              "internalType": "bool",
              "name": "shouldCallAfterInitialize",
              "type": "bool"
            },
            {
              "internalType": "bool",
              "name": "shouldCallComputeDynamicSwapFee",
              "type": "bool"
            },
            {
              "internalType": "bool",
              "name": "shouldCallBeforeSwap",
              "type": "bool"
            },
            {
              "internalType": "bool",
              "name": "shouldCallAfterSwap",
              "type": "bool"
            },
            {
              "internalType": "bool",
              "name": "shouldCallBeforeAddLiquidity",
              "type": "bool"
            },
            {
              "internalType": "bool",
              "name": "shouldCallAfterAddLiquidity",
              "type": "bool"
            },
            {
              "internalType": "bool",
              "name": "shouldCallBeforeRemoveLiquidity",
              "type": "bool"
            },
            {
              "internalType": "bool",
              "name": "shouldCallAfterRemoveLiquidity",
              "type": "bool"
            },
            {
              "internalType": "address",
              "name": "hooksContract",
              "type": "address"
            }
          ],
          "indexed": false,
          "internalType": "struct HooksConfig",
          "name": "hooksConfig",
          "type": "tuple"
        },
        {
          "components": [
            {
              "internalType": "bool",
              "name": "disableUnbalancedLiquidity",
              "type": "bool"
            },
            {
              "internalType": "bool",
              "name": "enableAddLiquidityCustom",
              "type": "bool"
            },
            {
              "internalType": "bool",
              "name": "enableRemoveLiquidityCustom",
              "type": "bool"
            },
            {
              "internalType": "bool",
              "name": "enableDonation",
              "type": "bool"
            }
          ],
          "indexed": false,
          "internalType": "struct LiquidityManagement",
          "name": "liquidityManagement",
          "type": "tuple"
        }
      ],
      "name": "PoolRegistered",
      "type": "event"
    },
    {
      "anonymous": false,
      "inputs": [
        {
          "indexed": true,
          "internalType": "contract IProtocolFeeController",
          "name": "newProtocolFeeController",
          "type": "address"
        }
      ],
      "name": "ProtocolFeeControllerChanged",
      "type": "event"
    },
    {
      "anonymous": false,
      "inputs": [
        {
          "indexed": true,
          "internalType": "address",
          "name": "pool",
          "type": "address"
        },
        {
          "indexed": true,
          "internalType": "contract IERC20",
          "name": "tokenIn",
          "type": "address"
        },
        {
          "indexed": true,
          "internalType": "contract IERC20",
          "name": "tokenOut",
          "type": "address"
        },
        {
          "indexed": false,
          "internalType": "uint256",
          "name": "amountIn",
          "type": "uint256"
        },
        {
          "indexed": false,
          "internalType": "uint256",
          "name": "amountOut",
          "type": "uint256"
        },
        {
          "indexed": false,
          "internalType": "uint256",
          "name": "swapFeePercentage",
          "type": "uint256"
        },
        {
          "indexed": false,
          "internalType": "uint256",
          "name": "swapFeeAmount",
          "type": "uint256"
        }
      ],
      "name": "Swap",
      "type": "event"
    },
    {
      "anonymous": false,
      "inputs": [
        {
          "indexed": true,
          "internalType": "address",
          "name": "pool",
          "type": "address"
        },
        {
          "indexed": false,
          "internalType": "uint256",
          "name": "swapFeePercentage",
          "type": "uint256"
        }
      ],
      "name": "SwapFeePercentageChanged",
      "type": "event"
    },
    {
      "anonymous": false,
      "inputs": [
        {
          "indexed": true,
          "internalType": "address",
          "name": "pool",
          "type": "address"
        },
        {
          "indexed": true,
          "internalType": "address",
          "name": "from",
          "type": "address"
        },
        {
          "indexed": true,
          "internalType": "address",
          "name": "to",
          "type": "address"
        },
        {
          "indexed": false,
          "internalType": "uint256",
          "name": "value",
          "type": "uint256"
        }
      ],
      "name": "Transfer",
      "type": "event"
    },
    {
      "anonymous": false,
      "inputs": [
        {
          "indexed": true,
          "internalType": "contract IERC4626",
          "name": "wrappedToken",
          "type": "address"
        },
        {
          "indexed": false,
          "internalType": "uint256",
          "name": "burnedShares",
          "type": "uint256"
        },
        {
          "indexed": false,
          "internalType": "uint256",
          "name": "withdrawnUnderlying",
          "type": "uint256"
        },
        {
          "indexed": false,
          "internalType": "bytes32",
          "name": "bufferBalances",
          "type": "bytes32"
        }
      ],
      "name": "Unwrap",
      "type": "event"
    },
    {
      "anonymous": false,
      "inputs": [
        {
          "indexed": true,
          "internalType": "address",
          "name": "pool",
          "type": "address"
        },
        {
          "indexed": true,
          "internalType": "bytes32",
          "name": "eventKey",
          "type": "bytes32"
        },
        {
          "indexed": false,
          "internalType": "bytes",
          "name": "eventData",
          "type": "bytes"
        }
      ],
      "name": "VaultAuxiliary",
      "type": "event"
    },
    {
      "anonymous": false,
      "inputs": [
        {
          "indexed": false,
          "internalType": "bool",
          "name": "paused",
          "type": "bool"
        }
      ],
      "name": "VaultBuffersPausedStateChanged",
      "type": "event"
    },
    {
      "anonymous": false,
      "inputs": [
        {
          "indexed": false,
          "internalType": "bool",
          "name": "paused",
          "type": "bool"
        }
      ],
      "name": "VaultPausedStateChanged",
      "type": "event"
    },
    {
      "anonymous": false,
      "inputs": [],
      "name": "VaultQueriesDisabled",
      "type": "event"
    },
    {
      "anonymous": false,
      "inputs": [],
      "name": "VaultQueriesEnabled",
      "type": "event"
    },
    {
      "anonymous": false,
      "inputs": [
        {
          "indexed": true,
          "internalType": "contract IERC4626",
          "name": "wrappedToken",
          "type": "address"
        },
        {
          "indexed": false,
          "internalType": "uint256",
          "name": "depositedUnderlying",
          "type": "uint256"
        },
        {
          "indexed": false,
          "internalType": "uint256",
          "name": "mintedShares",
          "type": "uint256"
        },
        {
          "indexed": false,
          "internalType": "bytes32",
          "name": "bufferBalances",
          "type": "bytes32"
        }
      ],
      "name": "Wrap",
      "type": "event"
    },
    {
      "stateMutability": "payable",
      "type": "fallback"
    },
    {
      "inputs": [
        {
          "internalType": "address",
          "name": "token",
          "type": "address"
        },
        {
          "internalType": "address",
          "name": "owner",
          "type": "address"
        },
        {
          "internalType": "address",
          "name": "spender",
          "type": "address"
        }
      ],
      "name": "allowance",
      "outputs": [
        {
          "internalType": "uint256",
          "name": "",
          "type": "uint256"
        }
      ],
      "stateMutability": "view",
      "type": "function"
    },
    {
      "inputs": [
        {
          "internalType": "address",
          "name": "owner",
          "type": "address"
        },
        {
          "internalType": "address",
          "name": "spender",
          "type": "address"
        },
        {
          "internalType": "uint256",
          "name": "amount",
          "type": "uint256"
        }
      ],
      "name": "approve",
      "outputs": [
        {
          "internalType": "bool",
          "name": "",
          "type": "bool"
        }
      ],
      "stateMutability": "nonpayable",
      "type": "function"
    },
    {
      "inputs": [
        {
          "internalType": "address",
          "name": "token",
          "type": "address"
        },
        {
          "internalType": "address",
          "name": "account",
          "type": "address"
        }
      ],
      "name": "balanceOf",
      "outputs": [
        {
          "internalType": "uint256",
          "name": "",
          "type": "uint256"
        }
      ],
      "stateMutability": "view",
      "type": "function"
    },
    {
      "inputs": [
        {
          "internalType": "bytes32",
          "name": "eventKey",
          "type": "bytes32"
        },
        {
          "internalType": "bytes",
          "name": "eventData",
          "type": "bytes"
        }
      ],
      "name": "emitAuxiliaryEvent",
      "outputs": [],
      "stateMutability": "nonpayable",
      "type": "function"
    },
    {
      "inputs": [
        {
          "internalType": "address",
          "name": "pool",
          "type": "address"
        }
      ],
      "name": "getAddLiquidityCalledFlag",
      "outputs": [
        {
          "internalType": "bool",
          "name": "",
          "type": "bool"
        }
      ],
      "stateMutability": "view",
      "type": "function"
    },
    {
      "inputs": [
        {
          "internalType": "address",
          "name": "pool",
          "type": "address"
        },
        {
          "internalType": "contract IERC20",
          "name": "token",
          "type": "address"
        }
      ],
      "name": "getAggregateSwapFeeAmount",
      "outputs": [
        {
          "internalType": "uint256",
          "name": "",
          "type": "uint256"
        }
      ],
      "stateMutability": "view",
      "type": "function"
    },
    {
      "inputs": [
        {
          "internalType": "address",
          "name": "pool",
          "type": "address"
        },
        {
          "internalType": "contract IERC20",
          "name": "token",
          "type": "address"
        }
      ],
      "name": "getAggregateYieldFeeAmount",
      "outputs": [
        {
          "internalType": "uint256",
          "name": "",
          "type": "uint256"
        }
      ],
      "stateMutability": "view",
      "type": "function"
    },
    {
      "inputs": [],
      "name": "getAuthorizer",
      "outputs": [
        {
          "internalType": "contract IAuthorizer",
          "name": "",
          "type": "address"
        }
      ],
      "stateMutability": "view",
      "type": "function"
    },
    {
      "inputs": [
        {
          "internalType": "address",
          "name": "pool",
          "type": "address"
        }
      ],
      "name": "getBptRate",
      "outputs": [
        {
          "internalType": "uint256",
          "name": "rate",
          "type": "uint256"
        }
      ],
      "stateMutability": "view",
      "type": "function"
    },
    {
      "inputs": [
        {
          "internalType": "address",
          "name": "pool",
          "type": "address"
        }
      ],
      "name": "getCurrentLiveBalances",
      "outputs": [
        {
          "internalType": "uint256[]",
          "name": "balancesLiveScaled18",
          "type": "uint256[]"
        }
      ],
      "stateMutability": "view",
      "type": "function"
    },
    {
      "inputs": [
        {
          "internalType": "contract IERC4626",
          "name": "wrappedToken",
          "type": "address"
        }
      ],
      "name": "getERC4626BufferAsset",
      "outputs": [
        {
          "internalType": "address",
          "name": "asset",
          "type": "address"
        }
      ],
      "stateMutability": "view",
      "type": "function"
    },
    {
      "inputs": [],
      "name": "getNonzeroDeltaCount",
      "outputs": [
        {
          "internalType": "uint256",
          "name": "",
          "type": "uint256"
        }
      ],
      "stateMutability": "view",
      "type": "function"
    },
    {
      "inputs": [
        {
          "internalType": "address",
          "name": "pool",
          "type": "address"
        }
      ],
      "name": "getPoolConfig",
      "outputs": [
        {
          "components": [
            {
              "components": [
                {
                  "internalType": "bool",
                  "name": "disableUnbalancedLiquidity",
                  "type": "bool"
                },
                {
                  "internalType": "bool",
                  "name": "enableAddLiquidityCustom",
                  "type": "bool"
                },
                {
                  "internalType": "bool",
                  "name": "enableRemoveLiquidityCustom",
                  "type": "bool"
                },
                {
                  "internalType": "bool",
                  "name": "enableDonation",
                  "type": "bool"
                }
              ],
              "internalType": "struct LiquidityManagement",
              "name": "liquidityManagement",
              "type": "tuple"
            },
            {
              "internalType": "uint256",
              "name": "staticSwapFeePercentage",
              "type": "uint256"
            },
            {
              "internalType": "uint256",
              "name": "aggregateSwapFeePercentage",
              "type": "uint256"
            },
            {
              "internalType": "uint256",
              "name": "aggregateYieldFeePercentage",
              "type": "uint256"
            },
            {
              "internalType": "uint40",
              "name": "tokenDecimalDiffs",
              "type": "uint40"
            },
            {
              "internalType": "uint32",
              "name": "pauseWindowEndTime",
              "type": "uint32"
            },
            {
              "internalType": "bool",
              "name": "isPoolRegistered",
              "type": "bool"
            },
            {
              "internalType": "bool",
              "name": "isPoolInitialized",
              "type": "bool"
            },
            {
              "internalType": "bool",
              "name": "isPoolPaused",
              "type": "bool"
            },
            {
              "internalType": "bool",
              "name": "isPoolInRecoveryMode",
              "type": "bool"
            }
          ],
          "internalType": "struct PoolConfig",
          "name": "",
          "type": "tuple"
        }
      ],
      "stateMutability": "view",
      "type": "function"
    },
    {
      "inputs": [
        {
          "internalType": "address",
          "name": "pool",
          "type": "address"
        }
      ],
      "name": "getPoolData",
      "outputs": [
        {
          "components": [
            {
              "internalType": "PoolConfigBits",
              "name": "poolConfigBits",
              "type": "bytes32"
            },
            {
              "internalType": "contract IERC20[]",
              "name": "tokens",
              "type": "address[]"
            },
            {
              "components": [
                {
                  "internalType": "enum TokenType",
                  "name": "tokenType",
                  "type": "uint8"
                },
                {
                  "internalType": "contract IRateProvider",
                  "name": "rateProvider",
                  "type": "address"
                },
                {
                  "internalType": "bool",
                  "name": "paysYieldFees",
                  "type": "bool"
                }
              ],
              "internalType": "struct TokenInfo[]",
              "name": "tokenInfo",
              "type": "tuple[]"
            },
            {
              "internalType": "uint256[]",
              "name": "balancesRaw",
              "type": "uint256[]"
            },
            {
              "internalType": "uint256[]",
              "name": "balancesLiveScaled18",
              "type": "uint256[]"
            },
            {
              "internalType": "uint256[]",
              "name": "tokenRates",
              "type": "uint256[]"
            },
            {
              "internalType": "uint256[]",
              "name": "decimalScalingFactors",
              "type": "uint256[]"
            }
          ],
          "internalType": "struct PoolData",
          "name": "",
          "type": "tuple"
        }
      ],
      "stateMutability": "view",
      "type": "function"
    },
    {
      "inputs": [
        {
          "internalType": "address",
          "name": "pool",
          "type": "address"
        }
      ],
      "name": "getPoolPausedState",
      "outputs": [
        {
          "internalType": "bool",
          "name": "",
          "type": "bool"
        },
        {
          "internalType": "uint32",
          "name": "",
          "type": "uint32"
        },
        {
          "internalType": "uint32",
          "name": "",
          "type": "uint32"
        },
        {
          "internalType": "address",
          "name": "",
          "type": "address"
        }
      ],
      "stateMutability": "view",
      "type": "function"
    },
    {
      "inputs": [
        {
          "internalType": "address",
          "name": "pool",
          "type": "address"
        }
      ],
      "name": "getPoolRoleAccounts",
      "outputs": [
        {
          "components": [
            {
              "internalType": "address",
              "name": "pauseManager",
              "type": "address"
            },
            {
              "internalType": "address",
              "name": "swapFeeManager",
              "type": "address"
            },
            {
              "internalType": "address",
              "name": "poolCreator",
              "type": "address"
            }
          ],
          "internalType": "struct PoolRoleAccounts",
          "name": "",
          "type": "tuple"
        }
      ],
      "stateMutability": "view",
      "type": "function"
    },
    {
      "inputs": [
        {
          "internalType": "address",
          "name": "pool",
          "type": "address"
        },
        {
          "internalType": "uint256",
          "name": "chainId",
          "type": "uint256"
        }
      ],
      "name": "getPoolTokenByChainId",
      "outputs": [
        {
          "internalType": "contract IERC20",
          "name": "token",
          "type": "address"
        }
      ],
      "stateMutability": "view",
      "type": "function"
    },
    {
      "inputs": [
        {
          "internalType": "address",
          "name": "pool",
          "type": "address"
        }
      ],
      "name": "getPoolTokenInfo",
      "outputs": [
        {
          "internalType": "contract IERC20[]",
          "name": "tokens",
          "type": "address[]"
        },
        {
          "components": [
            {
              "internalType": "enum TokenType",
              "name": "tokenType",
              "type": "uint8"
            },
            {
              "internalType": "contract IRateProvider",
              "name": "rateProvider",
              "type": "address"
            },
            {
              "internalType": "bool",
              "name": "paysYieldFees",
              "type": "bool"
            }
          ],
          "internalType": "struct TokenInfo[]",
          "name": "tokenInfo",
          "type": "tuple[]"
        },
        {
          "internalType": "uint256[]",
          "name": "balancesRaw",
          "type": "uint256[]"
        },
        {
          "internalType": "uint256[]",
          "name": "lastBalancesLiveScaled18",
          "type": "uint256[]"
        }
      ],
      "stateMutability": "view",
      "type": "function"
    },
    {
      "inputs": [
        {
          "internalType": "address",
          "name": "pool",
          "type": "address"
        }
      ],
      "name": "getPoolTokenRates",
      "outputs": [
        {
          "internalType": "uint256[]",
          "name": "decimalScalingFactors",
          "type": "uint256[]"
        },
        {
          "internalType": "uint256[]",
          "name": "tokenRates",
          "type": "uint256[]"
        }
      ],
      "stateMutability": "view",
      "type": "function"
    },
    {
      "inputs": [
        {
          "internalType": "address",
          "name": "pool",
          "type": "address"
        }
      ],
      "name": "getPoolTokens",
      "outputs": [
        {
          "internalType": "contract IERC20[]",
          "name": "tokens",
          "type": "address[]"
        }
      ],
      "stateMutability": "view",
      "type": "function"
    },
    {
      "inputs": [],
      "name": "getProtocolFeeController",
      "outputs": [
        {
          "internalType": "contract IProtocolFeeController",
          "name": "",
          "type": "address"
        }
      ],
      "stateMutability": "view",
      "type": "function"
    },
    {
      "inputs": [
        {
          "internalType": "contract IERC20",
          "name": "token",
          "type": "address"
        }
      ],
      "name": "getReservesOf",
      "outputs": [
        {
          "internalType": "uint256",
          "name": "",
          "type": "uint256"
        }
      ],
      "stateMutability": "view",
      "type": "function"
    },
    {
      "inputs": [
        {
          "internalType": "address",
          "name": "pool",
          "type": "address"
        }
      ],
      "name": "getStaticSwapFeePercentage",
      "outputs": [
        {
          "internalType": "uint256",
          "name": "",
          "type": "uint256"
        }
      ],
      "stateMutability": "view",
      "type": "function"
    },
    {
      "inputs": [
        {
          "internalType": "contract IERC20",
          "name": "token",
          "type": "address"
        }
      ],
      "name": "getTokenDelta",
      "outputs": [
        {
          "internalType": "int256",
          "name": "",
          "type": "int256"
        }
      ],
      "stateMutability": "view",
      "type": "function"
    },
    {
      "inputs": [],
      "name": "getVaultAdmin",
      "outputs": [
        {
          "internalType": "address",
          "name": "",
          "type": "address"
        }
      ],
      "stateMutability": "view",
      "type": "function"
    },
    {
      "inputs": [
        {
          "internalType": "address",
          "name": "pool",
          "type": "address"
        },
        {
          "internalType": "address",
          "name": "to",
          "type": "address"
        },
        {
          "internalType": "contract IERC20[]",
          "name": "tokens",
          "type": "address[]"
        },
        {
          "internalType": "uint256[]",
          "name": "exactAmountsIn",
          "type": "uint256[]"
        },
        {
          "internalType": "uint256",
          "name": "minBptAmountOut",
          "type": "uint256"
        },
        {
          "internalType": "bytes",
          "name": "userData",
          "type": "bytes"
        }
      ],
      "name": "initialize",
      "outputs": [
        {
          "internalType": "uint256",
          "name": "bptAmountOut",
          "type": "uint256"
        }
      ],
      "stateMutability": "nonpayable",
      "type": "function"
    },
    {
      "inputs": [
        {
          "internalType": "contract IERC4626",
          "name": "wrappedToken",
          "type": "address"
        }
      ],
      "name": "isERC4626BufferInitialized",
      "outputs": [
        {
          "internalType": "bool",
          "name": "",
          "type": "bool"
        }
      ],
      "stateMutability": "view",
      "type": "function"
    },
    {
      "inputs": [
        {
          "internalType": "address",
          "name": "pool",
          "type": "address"
        }
      ],
      "name": "isPoolInRecoveryMode",
      "outputs": [
        {
          "internalType": "bool",
          "name": "",
          "type": "bool"
        }
      ],
      "stateMutability": "view",
      "type": "function"
    },
    {
      "inputs": [
        {
          "internalType": "address",
          "name": "pool",
          "type": "address"
        }
      ],
      "name": "isPoolInitialized",
      "outputs": [
        {
          "internalType": "bool",
          "name": "",
          "type": "bool"
        }
      ],
      "stateMutability": "view",
      "type": "function"
    },
    {
      "inputs": [
        {
          "internalType": "address",
          "name": "pool",
          "type": "address"
        }
      ],
      "name": "isPoolPaused",
      "outputs": [
        {
          "internalType": "bool",
          "name": "",
          "type": "bool"
        }
      ],
      "stateMutability": "view",
      "type": "function"
    },
    {
      "inputs": [
        {
          "internalType": "address",
          "name": "pool",
          "type": "address"
        }
      ],
      "name": "isPoolRegistered",
      "outputs": [
        {
          "internalType": "bool",
          "name": "",
          "type": "bool"
        }
      ],
      "stateMutability": "view",
      "type": "function"
    },
    {
      "inputs": [],
      "name": "isQueryDisabled",
      "outputs": [
        {
          "internalType": "bool",
          "name": "",
          "type": "bool"
        }
      ],
      "stateMutability": "view",
      "type": "function"
    },
    {
      "inputs": [],
      "name": "isQueryDisabledPermanently",
      "outputs": [
        {
          "internalType": "bool",
          "name": "",
          "type": "bool"
        }
      ],
      "stateMutability": "view",
      "type": "function"
    },
    {
      "inputs": [],
      "name": "isUnlocked",
      "outputs": [
        {
          "internalType": "bool",
          "name": "",
          "type": "bool"
        }
      ],
      "stateMutability": "view",
      "type": "function"
    },
    {
      "inputs": [
        {
          "internalType": "bytes",
          "name": "data",
          "type": "bytes"
        }
      ],
      "name": "quote",
      "outputs": [
        {
          "internalType": "bytes",
          "name": "result",
          "type": "bytes"
        }
      ],
      "stateMutability": "nonpayable",
      "type": "function"
    },
    {
      "inputs": [
        {
          "internalType": "bytes",
          "name": "data",
          "type": "bytes"
        }
      ],
      "name": "quoteAndRevert",
      "outputs": [],
      "stateMutability": "nonpayable",
      "type": "function"
    },
    {
      "inputs": [],
      "name": "reentrancyGuardEntered",
      "outputs": [
        {
          "internalType": "bool",
          "name": "",
          "type": "bool"
        }
      ],
      "stateMutability": "view",
      "type": "function"
    },
    {
      "inputs": [
        {
          "internalType": "address",
          "name": "pool",
          "type": "address"
        },
        {
          "components": [
            {
              "internalType": "contract IERC20",
              "name": "token",
              "type": "address"
            },
            {
              "internalType": "uint256",
              "name": "chainId",
              "type": "uint256"
            },
            {
              "internalType": "enum TokenType",
              "name": "tokenType",
              "type": "uint8"
            },
            {
              "internalType": "contract IRateProvider",
              "name": "rateProvider",
              "type": "address"
            },
            {
              "internalType": "bool",
              "name": "paysYieldFees",
              "type": "bool"
            }
          ],
          "internalType": "struct TokenConfig[]",
          "name": "tokenConfig",
          "type": "tuple[]"
        },
        {
          "internalType": "uint256",
          "name": "swapFeePercentage",
          "type": "uint256"
        },
        {
          "internalType": "uint32",
          "name": "pauseWindowEndTime",
          "type": "uint32"
        },
        {
          "internalType": "bool",
          "name": "protocolFeeExempt",
          "type": "bool"
        },
        {
          "components": [
            {
              "internalType": "address",
              "name": "pauseManager",
              "type": "address"
            },
            {
              "internalType": "address",
              "name": "swapFeeManager",
              "type": "address"
            },
            {
              "internalType": "address",
              "name": "poolCreator",
              "type": "address"
            }
          ],
          "internalType": "struct PoolRoleAccounts",
          "name": "roleAccounts",
          "type": "tuple"
        },
        {
          "internalType": "address",
          "name": "poolHooksContract",
          "type": "address"
        },
        {
          "components": [
            {
              "internalType": "bool",
              "name": "disableUnbalancedLiquidity",
              "type": "bool"
            },
            {
              "internalType": "bool",
              "name": "enableAddLiquidityCustom",
              "type": "bool"
            },
            {
              "internalType": "bool",
              "name": "enableRemoveLiquidityCustom",
              "type": "bool"
            },
            {
              "internalType": "bool",
              "name": "enableDonation",
              "type": "bool"
            }
          ],
          "internalType": "struct LiquidityManagement",
          "name": "liquidityManagement",
          "type": "tuple"
        }
      ],
      "name": "registerPool",
      "outputs": [],
      "stateMutability": "nonpayable",
      "type": "function"
    },
    {
      "inputs": [
        {
          "internalType": "address",
          "name": "pool",
          "type": "address"
        },
        {
          "internalType": "address",
          "name": "from",
          "type": "address"
        },
        {
          "internalType": "uint256",
          "name": "exactBptAmountIn",
          "type": "uint256"
        },
        {
          "internalType": "uint256[]",
          "name": "minAmountsOut",
          "type": "uint256[]"
        }
      ],
      "name": "removeLiquidityRecovery",
      "outputs": [
        {
          "internalType": "uint256[]",
          "name": "amountsOutRaw",
          "type": "uint256[]"
        }
      ],
      "stateMutability": "nonpayable",
      "type": "function"
    },
    {
      "inputs": [
        {
          "internalType": "address",
          "name": "token",
          "type": "address"
        }
      ],
      "name": "totalSupply",
      "outputs": [
        {
          "internalType": "uint256",
          "name": "",
          "type": "uint256"
        }
      ],
      "stateMutability": "view",
      "type": "function"
    },
    {
      "inputs": [],
      "name": "vault",
      "outputs": [
        {
          "internalType": "contract IVault",
          "name": "",
          "type": "address"
        }
      ],
      "stateMutability": "view",
      "type": "function"
    },
    {
      "stateMutability": "payable",
      "type": "receive"
    }
  ],
  "bytecode": "0x610200806040523461038857604081614c5580380380916100208285610395565b833981010312610388576020610035826103ce565b910151906001600160a01b0382168083036103885761007760405161005b604082610395565b600a8152691a5cd55b9b1bd8dad95960b21b60208201526103fe565b60c0526100ae60405161008b604082610395565b60118152701b9bdb96995c9bd1195b1d1850dbdd5b9d607a1b60208201526103fe565b60e0526100df6040516100c2604082610395565b600b81526a746f6b656e44656c74617360a81b60208201526103fe565b610100526101186040516100f4604082610395565b6012815271185919131a5c5d5a591a5d1e50d85b1b195960721b60208201526103fe565b6101205261014860405161012d604082610395565b60098152681cd95cdcda5bdb925960ba1b60208201526103fe565b6101405260405163fbfa77cf60e01b8152602081600481855afa9081156102fd57600091610356575b506001600160a01b0383811691160361034557604051634546891d60e11b8152602081600481855afa9081156102fd57600091610326575b5061016052604051631060fdbd60e11b8152602081600481855afa9182156102fd57600492602092600091610309575b506101a05260405163cd51c12f60e01b815292839182905afa9081156102fd576000916102ce575b50610180526101c0526101e05260405161475a90816104fb823960805181505060a05181505060c051818181610f7401528181612950015261337f015260e051818181611a4d0152818161413f01526141ac0152610100518181816110e401526140f60152610120518181816112c801526115be0152610140518181816112a6015261159c0152610160518150506101805181612a5801526101a0518181816105b6015261289c01526101c051818181611e53015261259a01526101e05181818161063e015261255a0152f35b6102f0915060203d6020116102f6575b6102e88183610395565b8101906103e2565b38610201565b503d6102de565b6040513d6000823e3d90fd5b6103209150833d85116102f6576102e88183610395565b386101d9565b61033f915060203d6020116102f6576102e88183610395565b386101a9565b634166145b60e11b60005260046000fd5b90506020813d60201161038d575b8161037160209383610395565b8101031261038857610382906103ce565b38610171565b600080fd5b3d9150610364565b601f909101601f19168101906001600160401b038211908210176103b857604052565b634e487b7160e01b600052604160045260246000fd5b51906001600160a01b038216820361038857565b90816020910312610388575163ffffffff811681036103885790565b61047761048560405192610413604085610395565b600c84526b5661756c7453746f7261676560a01b6020850152604051928391600161046960208501977f62616c616e6365722d6c6162732e76332e73746f726167652e00000000000000895260398601906104cf565b601760f91b815201906104cf565b03601f198101835282610395565b51902060001981019081116104b9576040519060208201908152602082526104ae604083610395565b9051902060ff191690565b634e487b7160e01b600052601160045260246000fd5b9081519160005b8381106104e7575050016000815290565b80602080928401015181850152016104d656fe60806040526004361015610018575b3661254957612538565b60003560e01c8062fdfa13146102a757806313d21cdf146102a257806313ef8a5d1461029d57806315e32046146102985780631ba0ae45146102935780634afbaf5a1461028e5780634f037ee714610289578063532cec7c14610284578063535cfd8a1461027f57806367e0e0761461027a5780636844846b146102755780636c9bc73214610270578063757d64b31461026b578063759d702e146102665780637e361bde146102615780638380edb71461025c57806385e0b9991461025757806385f2dbd414610252578063927da1051461024d57806396787092146102485780639e825ff514610243578063a07d60401461023e578063aaabadc514610239578063ace9b89b14610234578063b45090f91461022f578063b4aef0ab1461022a578063ba8a2be014610225578063be7d628a14610220578063c673bdaf1461021b578063c808824714610216578063ca4f280314610211578063d0f0442f1461020c578063d2c725e014610207578063db81718714610202578063e1f21c67146101fd578063e4dc2aa4146101f8578063e9ddeb26146101f3578063edfa3568146101ee578063f29486a1146101e9578063f7888aec146101e45763fbfa77cf0361000e57611e3d565b611de2565b611d3a565b611c1d565b611b3a565b611abe565b611a75565b611a30565b611a03565b61199f565b6118ff565b611857565b61180d565b6117bf565b6116c8565b611630565b6115e2565b611570565b61153b565b611165565b6110b8565b611073565b611023565b610ff2565b610f9e565b610f57565b610e4f565b610cfa565b610ad2565b610a34565b6109e5565b6108d1565b61080b565b6107a2565b6106ba565b61066d565b610628565b610570565b610545565b610450565b610306565b6001600160a01b031690565b6001600160a01b038116036102c957565b600080fd5b61010435906102dc826102b8565b565b60409060031901126102c9576004356102f6816102b8565b90602435610303816102b8565b90565b346102c9576020610346610319366102de565b90610322612598565b61032b816125db565b6001600160a01b031660009081526006845260409020611f1e565b5460801c604051908152f35b906020808351928381520192019060005b8181106103705750505090565b82516001600160a01b0316845260209384019390920191600101610363565b6002111561039957565b634e487b7160e01b600052602160045260246000fd5b90604060609280516103c08161038f565b83526020818101516001600160a01b0316908401520151151560408201520190565b906020808351928381520192019060005b8181106104005750505090565b909192602061041260019286516103af565b94019291016103f3565b906020808351928381520192019060005b81811061043a5750505090565b825184526020938401939092019160010161042d565b346102c95760203660031901126102c957610536610492600435610473816102b8565b61047b611f35565b50610484612598565b61048d81612612565b61264c565b604051918291602083528051602084015260c061052261050d6104f76104e16104cb602087015160e060408b01526101008a0190610352565b6040870151898203601f190160608b01526103e2565b6060860151888203601f190160808a015261041c565b6080850151878203601f190160a089015261041c565b60a0840151868203601f19018488015261041c565b910151838203601f190160e085015261041c565b0390f35b60009103126102c957565b346102c95760003660031901126102c95761055e612598565b602060ff600954166040519015158152f35b346102c95760203660031901126102c957608060043561058f816102b8565b610597612598565b6105a0816125db565b63ffffffff6105ae82612855565b9190926105db7f000000000000000000000000000000000000000000000000000000000000000084611f82565b9060018060a01b031660005260016020528160018060a01b03604060002054169360405195151586521660208501521660408301526060820152f35b6001600160a01b0316600452602490565b346102c95760003660031901126102c9576040517f00000000000000000000000000000000000000000000000000000000000000006001600160a01b03168152602090f35b346102c95760203660031901126102c95760043561068a816102b8565b610692612598565b60018060a01b0316600052600e602052602060018060a01b0360406000205416604051908152f35b346102c95760203660031901126102c9576004356106d7816102b8565b6106df612598565b6106e881612612565b61071c602060806106f88461264c565b015160405180938192631309bd3d60e31b835260406004840152604483019061041c565b6001602483015203816001600160a01b0386165afa801561079d576105369261075892600092610768575b5061075190611e82565b5490612912565b6040519081529081906020820190565b61075191925061078f9060203d602011610796575b6107878183610c2f565b810190611fa1565b9190610747565b503d61077d565b611fd6565b346102c95760203660031901126102c9576004356107bf816102b8565b6107c7612598565b6107d0816125db565b6001600160a01b031660009081526020818152604090912054600190811c165b6040519015158152f35b90602061030392818152019061041c565b346102c95760203660031901126102c9576105366080610841600435610830816102b8565b610838612598565b61048d816125db565b015160405191829160208352602083019061041c565b929061086f9095949295608085526080850190610352565b83810360208501526020808751928381520196019060005b8181106108b557505050846108a79184610303969703604086015261041c565b91606081840391015261041c565b90919660206108c76001928a516103af565b9801929101610887565b346102c95760203660031901126102c9576004356108ee816102b8565b6108f6612598565b6108ff816125db565b6001600160a01b038116600090815260056020526040902061092861092383611e9c565b611fe2565b9081519261093584612055565b9361093f816120a5565b91610949826120a5565b9360005b838110610965576040518061053688888c8c85610857565b806109d4610975600193856120d7565b546109a361099e8b6109986109938761098d8c611eb6565b936120fc565b612115565b90611f1e565b61212e565b6109ad848d6120fc565b526109b8838c6120fc565b506001600160801b0381166109cd848a6120fc565b5260801c90565b6109de82896120fc565b520161094d565b346102c95760203660031901126102c957600435610a02816102b8565b610a0a612598565b60018060a01b0316600052600e602052602060018060a01b03604060002054161515604051908152f35b346102c95760203660031901126102c9576020610a6c600435610a56816102b8565b610a5e612598565b610a67816125db565b612855565b506040519015158152f35b9181601f840112156102c9578235916001600160401b0383116102c957602083818601950101116102c957565b60206003198201126102c957600435906001600160401b0382116102c957610ace91600401610a77565b9091565b346102c957600080610ae336610aa4565b90610aec61293d565b610af4612598565b8160405192839283378101838152039082335af1610b1061216e565b908015610b445790610b2681610b4093336129a3565b50604051630b56c9f760e31b815291829160048301611c0c565b0390fd5b506004815110610b7b5760208101516001600160e01b0319166314a9360960e31b01612994576328f9554160e01b60005260046000fd5b63a728568960e01b60005260046000fd5b634e487b7160e01b600052604160045260246000fd5b60a081019081106001600160401b03821117610bbd57604052565b610b8c565b606081019081106001600160401b03821117610bbd57604052565b61014081019081106001600160401b03821117610bbd57604052565b608081019081106001600160401b03821117610bbd57604052565b60e081019081106001600160401b03821117610bbd57604052565b601f909101601f19168101906001600160401b03821190821017610bbd57604052565b604051906102dc608083610c2f565b604051906102dc61014083610c2f565b604051906102dc606083610c2f565b604051906102dc61016083610c2f565b6001600160401b038111610bbd5760051b60200190565b6084359081151582036102c957565b359081151582036102c957565b6064359063ffffffff821682036102c957565b60609060a31901126102c95760a490565b6080906101231901126102c95761012490565b346102c9576101a03660031901126102c957600435610d18816102b8565b602435906001600160401b0382116102c957366023830112156102c957816004013591610d4483610c90565b90610d526040519283610c2f565b838252602460a0602084019502820101903682116102c957602401935b818510610db357610db18484604435610d86610cc3565b610d8e610ca7565b90610d9836610cd6565b92610da16102ce565b94610dab36610ce7565b9661219e565b005b60a0853603126102c95760405190610dca82610ba2565b8535610dd5816102b8565b82526020860135602083015260408601359060028210156102c95782602092604060a09501526060880135610e09816102b8565b6060820152610e1a60808901610cb6565b6080820152815201940193610d6f565b9091610e416103039360408452604084019061041c565b91602081840391015261041c565b346102c95760203660031901126102c957600435610e6c816102b8565b610e74612598565b610e7d816125db565b6001600160a01b0381166000908152602081815260408083205460028352818420915182548082529285528385209094919390928592918301915b818110610f35575050610ecd92500383610c2f565b610ed98251809261323b565b91610ee3826120a5565b9360005b838110610efd5760405180610536888883610e2a565b600190610f24610f1f61099e610f1286611eb6565b610998610993868a6120fc565b613294565b610f2e82896120fc565b5201610ee7565b84546001600160a01b0316835260019485019487945060209093019201610eb8565b346102c95760003660031901126102c957610f70612598565b60207f0000000000000000000000000000000000000000000000000000000000000000546040519015158152f35b346102c9576020610fae366102de565b90610fb7612598565b610fc0816125db565b6001600160a01b0316600090815260068352604090206001600160801b0391610fe891611f1e565b5416604051908152f35b346102c95760003660031901126102c95761100b612598565b600a546040516001600160a01b039091168152602090f35b346102c95760603660031901126102c957602061106b600435611045816102b8565b602435611051816102b8565b6044359161105e836102b8565b611066612598565b61331e565b604051908152f35b346102c95760203660031901126102c957600435611090816102b8565b611098612598565b60018060a01b031660005260086020526020604060002054604051908152f35b346102c95760203660031901126102c957602061106b6004356110da816102b8565b6110e2612598565b7f0000000000000000000000000000000000000000000000000000000000000000613365565b9080601f830112156102c957813561111f81610c90565b9261112d6040519485610c2f565b81845260208085019260051b8201019283116102c957602001905b8282106111555750505090565b8135815260209182019101611148565b346102c95760803660031901126102c957600435611182816102b8565b6024359061118f826102b8565b604435916064356001600160401b0381116102c9576111b2903690600401611108565b926111bb612598565b6111c361337d565b6111cb612a04565b6111d483612612565b60018060a01b038316928360005260006020526111f5604060002054613b77565b156115265761120381611ed0565b9461120c6122bc565b9061121961092384611e9c565b808352519561122e60408401978089526120a5565b956080840196875260005b8851811015611271578061125f6112526001938d6120d7565b546001600160801b031690565b61126a828b516120fc565b5201611239565b50879694959661128d8887516112868a611e82565b54906133b7565b9761129882516120a5565b93606087019485526112ec897f0000000000000000000000000000000000000000000000000000000000000000547f0000000000000000000000000000000000000000000000000000000000000000613407565b151560a08801818152949061150a575b60005b845181101561141857808c6113148851151590565b6113cd575b90611323916120fc565b5161132e828a6120fc565b511161138e57808a611387828f61136d828f9261136861135761099360019b61138197516120fc565b61136184846120fc565b51906134d7565b6120fc565b5193519361137b83866120fc565b51612310565b926120fc565b52016112ff565b8b886113b7836113b0816113aa8f6113c99861099391516120fc565b956120fc565b51926120fc565b516317bc2f2360e11b6000529161231d565b6000fd5b6113e6916113da916120fc565b5160208b0151906134b4565b6113f18289516120fc565b528b61141082611381611405828c516120fc565b5161137b83866120fc565b52808c611319565b508894508a9186918b61142a81611ed0565b9560005b885181101561146c578061145b8b6114548361144c6001968e6120d7565b5492516120fc565b51906134fa565b611465828b6120d7565b550161142e565b61053687600088887ffbe5b0d79fb94f1e81c0a92bf86ae9d3a19e9d1bf6202c0d3e75120f65d5d8a5848a6114e36114c78c6114c28d6114ae81338886613508565b6114b6613571565b6114fa575b85836135c6565b611e82565b5495516040516001600160a01b03909316969293849384612334565b0390a46114ee612a3d565b604051918291826107fa565b611505818785613593565b6114bb565b61151c6115168b611eea565b54613484565b60208901526112fc565b8363ef029adf60e01b60005260045260246000fd5b346102c95760003660031901126102c957611554612598565b60095460405160089190911c6001600160a01b03168152602090f35b346102c95760203660031901126102c95760206107f0600435611592816102b8565b61159a612598565b7f0000000000000000000000000000000000000000000000000000000000000000547f0000000000000000000000000000000000000000000000000000000000000000613407565b346102c95760203660031901126102c9576004356115ff816102b8565b611607612598565b611610816125db565b60018060a01b03166000526000602052602061106b604060002054613484565b346102c95760003660031901126102c957611649612598565b60206001600754166040519015158152f35b6001600160401b038111610bbd57601f01601f191660200190565b9291926116828261165b565b916116906040519384610c2f565b8294818452818301116102c9578281602093846000960137010152565b9080601f830112156102c95781602061030393359101611676565b346102c95760c03660031901126102c9576004356116e5816102b8565b602435906116f2826102b8565b604435906001600160401b0382116102c957366023830112156102c95781600401359161171e83610c90565b9261172c6040519485610c2f565b8084526024602085019160051b830101913683116102c957602401905b8282106117a557505060643590506001600160401b0381116102c957611773903690600401611108565b60a4359260843591906001600160401b0385116102c9576105369561179f6107589636906004016116ad565b9461235f565b6020809183356117b4816102b8565b815201910190611749565b346102c95760203660031901126102c9576004356117dc816102b8565b6117e4612598565b6117ed816125db565b60018060a01b0316600052600060205260206107f0604060002054613b77565b346102c95760203660031901126102c95760043561182a816102b8565b611832612598565b60018060a01b0316600052600060205260206001604060002054166040519015158152f35b346102c95760403660031901126102c9576024356001600160401b0381116102c957611887903690600401610a77565b61188f612598565b611898336125db565b80604051926020845281602085015260408401376000604082840101527f4bc4412e210115456903c65b5277d299a505e79f2eb852b92b1ca52d85856428600435926040813394601f80199101168101030190a3005b906020610303928181520190610352565b346102c95760203660031901126102c95760043561191c816102b8565b611924612598565b61192d816125db565b60018060a01b03166000526002602052604060002060405190816020825491828152019160005260206000209060005b818110611980576105368561197481870382610c2f565b604051918291826118ee565b82546001600160a01b031684526020909301926001928301920161195d565b346102c95760403660031901126102c9576004356119bc816102b8565b602435906119c8612598565b6119d1816125db565b6001600160a01b0390811660009081526004602090815260408083209483529381529083902054925192909116825290f35b346102c95760003660031901126102c9576020600080516020614705833981519152546040519015158152f35b346102c95760003660031901126102c957611a49612598565b60207f000000000000000000000000000000000000000000000000000000000000000054604051908152f35b346102c95760603660031901126102c957611ab3600435611a95816102b8565b602435611aa1816102b8565b60443591611aad612598565b33613a5d565b602060405160018152f35b346102c95760203660031901126102c957600435611adb816102b8565b611ae3612598565b60018060a01b031660005260116020526020604060002054604051908152f35b80516001600160a01b03908116835260208083015182169084015260409182015116910152565b6060810192916102dc9190611b03565b346102c95760203660031901126102c957600435611b57816102b8565b611b5f612036565b50611b68612598565b611b71816125db565b60018060a01b03166000526001602052610536604060002060405190611b9682610bc2565b80546001600160a01b039081168352600182015481166020840152600290910154166040808301919091525191829182611b2a565b919082519283825260005b848110611bf7575050826000602080949584010152601f8019910116010190565b80602080928401015182828601015201611bd6565b906020610303928181520190611bcb565b346102c957610536611c67600080611c4e611c3736610aa4565b611c3f61293d565b611c47612598565b3691611676565b60208151910182335af1611c6061216e565b90336129a3565b604051918291602083526020830190611bcb565b6060809180511515845260208101511515602085015260408101511515604085015201511515910152565b6102dc909291926101806101206101a0830195611cc4848251611c7b565b60208101516080850152604081015160a0850152606081015160c0850152611cfa608082015160e086019064ffffffffff169052565b60a081015163ffffffff1661010085015260c081015115158483015260e08101511515610140850152610100810151151561016085015201511515910152565b346102c95760203660031901126102c957610536611dd6600435611d5d816102b8565b604051611d6981610bdd565b604051611d7581610bf9565b60008152600060208201526000604082015260006060820152815260006020820152600060408201526000606082015260006080820152600060a0820152600060c0820152600060e082015260006101008201526000610120820152612432565b60405191829182611ca6565b346102c95760403660031901126102c9576020611e34600435611e04816102b8565b60243590611e11826102b8565b611e19612598565b6001600160a01b03166000908152600f845260409020611f1e565b54604051908152f35b346102c95760003660031901126102c9576040517f00000000000000000000000000000000000000000000000000000000000000006001600160a01b03168152602090f35b6001600160a01b0316600090815260116020526040902090565b6001600160a01b0316600090815260026020526040902090565b6001600160a01b0316600090815260036020526040902090565b6001600160a01b0316600090815260056020526040902090565b6001600160a01b0316600090815260208190526040902090565b6001600160a01b03166000908152600f6020526040902090565b9060018060a01b0316600052602052604060002090565b60405190611f4282610c14565b606060c0836000815282602082015282604082015282808201528260808201528260a08201520152565b634e487b7160e01b600052601160045260246000fd5b9063ffffffff8091169116019063ffffffff8211611f9c57565b611f6c565b908160209103126102c9575190565b91906020611fc860019260408652604086019061041c565b93611fd28361038f565b0152565b6040513d6000823e3d90fd5b906040519182815491828252602082019060005260206000209260005b8181106120145750506102dc92500383610c2f565b84546001600160a01b0316835260019485019487945060209093019201611fff565b6040519061204382610bc2565b60006040838281528260208201520152565b9061205f82610c90565b61206c6040519182610c2f565b828152809261207d601f1991610c90565b019060005b82811061208e57505050565b602090612099612036565b82828501015201612082565b906120af82610c90565b6120bc6040519182610c2f565b82815280926120cd601f1991610c90565b0190602036910137565b90600052602052604060002090565b634e487b7160e01b600052603260045260246000fd5b80518210156121105760209160051b010190565b6120e6565b516001600160a01b031690565b61212b8261038f565b52565b9060405161213b81610bc2565b604060ff82945481811661214e8161038f565b8452600881901c6001600160a01b0316602085015260a81c161515910152565b3d15612199573d9061217f8261165b565b9161218d6040519384610c2f565b82523d6000602084013e565b606090565b94969263ffffffff919694926121b2612598565b6121ba612a04565b6121c2612a51565b604051976121cf89610c14565b88526020880152166040860152151560608501526060853603126102c95761224b6122529261225c96604080519161220683610bc2565b8035612211816102b8565b83526020810135612221816102b8565b60208401520135612231816102b8565b604082015260808701526001600160a01b031660a0860152565b3690612264565b60c0830152612d3e565b6102dc612a3d565b91908260809103126102c95760405161227c81610bf9565b60606122b781839561228d81610cb6565b855261229b60208201610cb6565b60208601526122ac60408201610cb6565b604086015201610cb6565b910152565b6040519060c082016001600160401b03811183821017610bbd57604052600060a08360608152826020820152826040820152606080820152606060808201520152565b620f423f19810191908211611f9c57565b91908203918211611f9c57565b6001600160a01b0316600452602452604452606490565b91612351906103039492845260606020850152606084019061041c565b91604081840391015261041c565b929190945061236c612598565b61237461337d565b61237d836125db565b612385612a04565b61238d612a51565b61239683612855565b50612413576123a48361264c565b8051600190811c166123f4576020810151518351036123e3576123db956123d560c083015160a084015190866136e2565b94613806565b610303612a3d565b63aaad13f760e01b60005260046000fd5b63218e374760e01b60009081526001600160a01b038516600452602490fd5b63d971f59760e01b60009081526001600160a01b038416600452602490fd5b5061243b612598565b612444816125db565b61244d90611eea565b5460018116600182811c1661246183613b63565b9061246b84613b77565b9261247585613484565b61247e86613ba1565b61248787613be4565b61249088613bf9565b9161249a89613c23565b936124a48a613c31565b15996124af81613c4c565b906124b981613c63565b906124c390613c70565b916124cc610c52565b9c15158d52151560208d0152151560408c0152151560608b01526124ee610c61565b998a5260208a01526040890152606088015264ffffffffff16608087015263ffffffff1660a0860152151560c0850152151560e08401521515610100830152151561012082015290565b637911c44b60e11b60005260046000fd5b3461253857366000803760008036817f00000000000000000000000000000000000000000000000000000000000000006001600160a01b03165af43d6000803e15612593573d6000f35b3d6000fd5b7f00000000000000000000000000000000000000000000000000000000000000006001600160a01b031630036125ca57565b634fe92d9b60e11b60005260046000fd5b6001600160a01b0316600081815260208190526040902054600116156125fe5750565b6327946f5760e21b60005260045260246000fd5b6001600160a01b0316600081815260208190526040902054600190811c16156126385750565b634bdace1360e01b60005260045260246000fd5b90612655611f35565b6001600160a01b0390921660009081526005602090815260408083208383528184205460038452828520600285529290942080549487529286019261269990611fe2565b83526126a484612055565b92604087019384526126b5856120a5565b92606088019384526126c6866120a5565b60808901526126d686895161323b565b60c08901526126e4866120a5565b9060a089019182526126fa8951600190811c1690565b9283612841575b8361282e575b8960005b89811061271e5750505050505050505050565b8860019289838a61275d826127498161274361099e8e6109988f8561099391516120fc565b946120d7565b5496518361275783836120fc565b526120fc565b5061276781613294565b612772838c516120fc565b52612788876001600160801b0387168487614459565b8a1561282457604081015115159081612807575b506127af575b505050505b018a9061270b565b826127d36127cb836127c46127d99751613be4565b95516120fc565b519560801c90565b9061450c565b8d83826127ea575b8b9192506127a2565b6127f886936127fe95612310565b91614459565b38808d836127e1565b879150516128148161038f565b61281d8161038f565b143861279c565b50505050506127a7565b925061283a8951613b77565b1592612707565b925061284d8951613be4565b151592612701565b6001600160a01b03166000908152602081905260409020549063ffffffff61287c83613b63565b92612885613c0d565b1c169180612891579190565b5063ffffffff6128c17f000000000000000000000000000000000000000000000000000000000000000084611f82565b164211159190565b90600582029180830460051490151715611f9c57565b81810292918115918404141715611f9c57565b81156128fc570490565b634e487b7160e01b600052601260045260246000fd5b90670de0b6b3a7640000820291808304670de0b6b3a76400001490151715611f9c57610303916128f2565b32612983576001600754166129725760017f000000000000000000000000000000000000000000000000000000000000000055565b633d0cc44360e11b60005260046000fd5b6333fc255960e11b60005260046000fd5b805115610b7b57805190602001fd5b906129c957508051156129b857805190602001fd5b63d6bda27560e01b60005260046000fd5b815115806129fb575b6129da575090565b639996b31560e01b60009081526001600160a01b0391909116600452602490fd5b50803b156129d2565b60008051602061470583398151915254612a2c57600160008051602061470583398151915255565b633ee5aeb560e01b60005260046000fd5b600060008051602061470583398151915255565b63ffffffff7f00000000000000000000000000000000000000000000000000000000000000001642111580612a98575b612a8757565b6336a7e2cd60e21b60005260046000fd5b506001600754811c16612a81565b90805190612ab38261038f565b612abc8261038f565b825460208201516040909201516001600160b01b031990911660ff939093169290921760089190911b610100600160a81b03161790151560a81b60ff60a81b16179055565b80546001600160a01b0319166001600160a01b03909216919091179055565b908160209103126102c9575160ff811681036102c95790565b805490600160401b821015610bbd5760018201808255821015612110576000908152602090200180546001600160a01b0319166001600160a01b03909216919091179055565b81516102dc92600291612b9b906001600160a01b031684612b01565b6020810151612bb6906001600160a01b031660018501612b01565b604001516001600160a01b03169101612b01565b91908260409103126102c9576020825192015190565b90610140806102dc93612bf584825115159052565b60208181015115159085015260408181015115159085015260608181015115159085015260808181015115159085015260a08181015115159085015260c08181015115159085015260e081810151151590850152610100818101511515908501526101208181015115159085015201516001600160a01b0316910152565b92969491959390966102a084016102a08552885180915260206102c0860199019060005b818110612ce55750505091612cd4612cde92612cca61022096956102dc999a6020880152604087019063ffffffff169052565b6060850190611b03565b60c0830190612be0565b0190611c7b565b909199602060a060019260808e518580851b03815116835284810151858401526040810151612d138161038f565b60408401528580851b036060820151166060840152015115156080820152019b019101919091612c97565b90612d52612d4b83611eea565b5460011690565b6132275780515160028110613216576008811161320557612d72816120a5565b906000805b828210612f8c575050506080820180516001600160a01b0385166000908152600160205260409020612e1b949391612dae91612b7f565b6040612dc3612dbe600a546102ac565b6102ac565b612dcf82855101612115565b90612ddd6060870151151590565b83516377ff76e760e01b81526001600160a01b03808b1660048301529093166024840152151560448301529095869190829060009082906064820190565b03925af1801561079d57600094600091612f57575b5060019160c08501928351612e459051151590565b612e4e91613c80565b8351602001511515612e5f91613ca4565b8351604001511515612e7091613cbd565b8351606001511515612e8191613ccb565b90612e8b90613cdc565b612e9491613d7b565b9460408501958651612ea99063ffffffff1690565b612eb291613dcd565b90612ebc91613e1e565b90612ec691613e59565b9081612ed187611eea565b5560208401918251612ee39088613e7b565b84519251955163ffffffff1693519460a00151612eff906102ac565b612f08906102ac565b612f1191613ffb565b9051906040519485943398600160a01b600190031697612f319587612c73565b037f2817574ebf0d1c56fb0f58e510ffb8bc8914b82c96f9e3efaa5bf8f8e125fc3b91a3565b9050612f7c91945060403d604011612f85575b612f748183610c2f565b810190612bca565b93909338612e30565b503d612f6a565b612f978286516120fc565b51612fa281516102ac565b6001600160a01b03811692909190831580156131f3575b6131e2576001600160a01b03168084106131d15783146131bd57613027816130918461308c60608d9601936020613083612ff6612dbe88516102ac565b159861306960408501986130526130188b51926130128461038f565b516102ac565b613049608089019d8e51151590565b9161303a613033610c71565b9586612122565b6001600160a01b031684890152565b15156040830152565b6130648861305f85611eb6565b611f1e565b612aa6565b6001600160a01b0316600090815260046020526040902090565b910151906120d7565b612b01565b805161309c8161038f565b6130a58161038f565b6131825750811591613177575b506131665760206004925b60405163313ce56760e01b815293849182905afa91821561079d57600092613136575b50601260ff831611156130fe5763686d360760e01b60005260046000fd5b61311c60ff6001936012031661311485886120fc565b9060ff169052565b61312e8161312989611e9c565b612b39565b910190612d77565b61315891925060203d811161315f575b6131508183610c2f565b810190612b20565b90386130e0565b503d613146565b636fa2831960e11b60005260046000fd5b5115159050386130b2565b60019150516131908161038f565b6131998161038f565b036131ac576131665760206004926130bd565b63a1e9dd9d60e01b60005260046000fd5b6327a5b1a760e11b6000526113c982610617565b636e8f194760e01b60005260046000fd5b63c1ab6dc160e01b60005260046000fd5b506001600160a01b0389168414612fb9565b630e0f7beb60e31b60005260046000fd5b635ed4ba8f60e01b60005260046000fd5b6301b6ee3960e71b6000526113c982610617565b9064ffffffffff61324b826120a5565b92613254613bf1565b1c1660005b8281106132665750505090565b601f82613272836128c9565b1c1690604d8211611f9c57600191600a0a61328d82876120fc565b5201613259565b805161329f8161038f565b6132a88161038f565b806132bb575050670de0b6b3a764000090565b806132c760019261038f565b036131665760206132df612dbe8260049401516102ac565b6040516333cd77e760e11b815292839182905afa90811561079d57600091613305575090565b610303915060203d602011610796576107878183610c2f565b9091906001600160a01b038084169083160361333d5750505060001990565b6001600160a01b031660009081526010602052604090206133619261305f91611f1e565b5490565b9060018060a01b031660005260205260406000205490565b7f000000000000000000000000000000000000000000000000000000000000000054156133a657565b63604dd39b60e11b60005260046000fd5b92916133c384516120a5565b9360005b815181101561340157806133f0856133eb866133e5600196886120fc565b516128df565b6128f2565b6133fa82896120fc565b52016133c7565b50505050565b9060005260205260406000209060005260205260406000205490565b60ff60019116019060ff8211611f9c57565b61030361344b61344b61344b61344b6001613423565b613423565b61030361344b61344b61344b61344b61344b61344b613435565b61030361344b61344b61344b61344b61344b61344b613450565b62ffffff9060ff61349361346a565b161c1664174876e80081029080820464174876e8001490151715611f9c5790565b906134be916128df565b6001670de0b6b3a7640000600019830104019015150290565b906134e1906140c8565b90600160ff1b8214611f9c576102dc91600003906140ed565b906103039160801c906141e5565b919093929361351882828561331e565b60018101613529575b505050509050565b808611613547579461353d94950392613a5d565b8038808080613521565b637dc7a0d960e11b60009081526001600160a01b0384166004526024919091526044869052606490fd5b32158061357b5790565b506001600754161590565b91908201809211611f9c57565b9032612983576135b79160018060a01b0316600052600f6020526040600020611f1e565b8054918201809211611f9c5755565b90916001600160a01b0383169182156136ce576135e68461305f83611f04565b548083116136b7578290036135fe8561305f84611f04565b556136128261360c83611e82565b54612310565b61361b8161422c565b61362482611e82565b556001600160a01b031690813b156102c9576040516323de665160e01b81526001600160a01b0394909416600485015260006024850181905260448501829052936000805160206146e58339815191529161369891868160648183895af161369d575b506040519081529081906020820190565b0390a4565b806136ab886136b193610c2f565b8061053a565b38613687565b63391434e360e21b6000526113c99083908661231d565b634b637e8f60e11b6000526113c984610617565b91908251918151815181851491821592613769575b50506123e357613706836120a5565b9360005b84811061371957505050505090565b80670de0b6b3a7640000613757613732600194866120fc565b51613752613740858a6120fc565b5161374b868a6120fc565b51926128df565b6128df565b0461376282896120fc565b520161370a565b1415905038806136f7565b60405190613783604083610c2f565b600f82526e031383a20b6b7bab73a27baba101e9608d1b6020830152565b604051906137b0604083610c2f565b601582527403a37ba30b629bab838363c902122a327a922901e9605d1b6020830152565b604051906137e3604083610c2f565b601482527303a37ba30b629bab838363c9020a32a22a9101e960651b6020830152565b92919596949661381584611ed0565b9560005b602089015180518210156138d75761099382613834926120fc565b613844612dbe61099384896120fc565b6001600160a01b03821690810361389857509061386e600192613867838b6120fc565b519061424d565b6138878b613880836113b0818d6120fc565b51906141e5565b613891828b6120d7565b5501613819565b6113c990886138ad612dbe610993878c6120fc565b6001621d9e5f60e01b03196000526001600160a01b03918216600452811660245216604452606490565b50508751919890979096509493919250600219166002178085526138fa82611eea565b55604051631309bd3d60e31b81526001600160a01b03821695602090829081906139279060048301611fb0565b0381895afa801561079d5761394d91600091613a3e575b506139488161422c565b6122ff565b966139578261425f565b61396888613963613774565b61432d565b61397d61397483611e82565b546139636137a1565b613988888484614385565b61399d61399483611e82565b546139636137d4565b808810613a2557506001939285926139fb6139e760206139dd7fa26a52d8d53702bba7f137907b8e1f99ff87f6d450144270ca25e72481cca87196611e82565b54970151516120a5565b604051938493898060a01b03169784612334565b0390a47fcad8c9d32507393b6508ca4a888b81979919b477510585bde8488f153072d6f3600080a2565b638d261d5d60e01b600052600488905260245260446000fd5b613a57915060203d602011610796576107878183610c2f565b3861393e565b926001600160a01b0382169290918315613b4f576001600160a01b038216948515613b3b5783613aa78461305f8561305f8660018060a01b03166000526010602052604060002090565b556001600160a01b031692833b156102c957604051630ad0fe5760e31b81526001600160a01b039283166004820152929091166024830152604482018190527fa0175360a15bca328baf7ea85c7b784d58b222a50d0ce760b10dba336d226a6191613698919060008160648183895af1613b2c57506040519081529081906020820190565b806136ab60006136b193610c2f565b634a1406b160e11b6000526113c983610617565b63e602df0560e01b6000526113c990610617565b60019060ff613b7183613423565b161c1690565b60019060ff613b7161344b84613423565b60ff613b9261346a565b1660188101809111611f9c5790565b62ffffff90613bae613b88565b1c1664174876e80081029080820464174876e8001490151715611f9c5790565b613bd6613b88565b60188101809111611f9c5790565b62ffffff90613bae613bce565b613bd6613bce565b64ffffffffff90613c08613bf1565b1c1690565b613c15613bf1565b60288101809111611f9c5790565b63ffffffff90613c08613c0d565b60019060ff613c4561344b61344b85613423565b161c161590565b60019060ff613b7161344b61344b61344b86613423565b60019060ff613b71613435565b60019060ff613b7161344b613435565b6103039160ff613c9661344b61344b6001613423565b16916001831b1916911b1790565b6103039160ff613c9661344b61344b61344b6001613423565b6103039160ff613c96613435565b6103039160ff613c9661344b613435565b60009190825b8151841015613d6f57613cf584836120fc565b5190613d00856128c9565b916000610100841015613d605783610100036101008111611f9c578060ff108160ff180218600511613d605760078260051c16613d51575090601f60ff6001949316831b921b191617930192613ce2565b63e4337c0560e01b8152600490fd5b632d0483c560e21b8152600490fd5b64ffffffffff16925050565b613d83613bf1565b916000610100841015613d605783610100036101008111611f9c578060ff108160ff180218602811613d6057808260281c16613d51575064ffffffffff809116831b921b19161790565b613dd5613c0d565b916000610100841015613d605783610100036101008111611f9c578060ff108160ff180218602011613d6057808260201c16613d51575063ffffffff809116831b921b19161790565b90670de0b5cad2bef0008111613e48576103039164174876e800613e40613b88565b92049061457b565b6301d1b96560e61b60005260046000fd5b90670de0b5cad2bef0008111613e48576103039164174876e800613e40613bce565b60405163ce20ece760e01b81526001600160a01b038216929190602081600481875afa90811561079d57600091613f79575b508210613f685760405163654cf15d60e01b8152602081600481875afa90811561079d57600091613f49575b508211613f38578181613f22613f1c7f89d41522342fabac1471ca6073a5623e5caf367b03ca6e9a001478d0cf8be4a195613f16613f3396611eea565b546145de565b91611eea565b556040519081529081906020820190565b0390a2565b637f47834b60e01b60005260046000fd5b613f62915060203d602011610796576107878183610c2f565b38613ed9565b6317f640d160e31b60005260046000fd5b613f92915060203d602011610796576107878183610c2f565b38613ead565b6040519061016082016001600160401b03811183821017610bbd576040526000610140838281528260208201528260408201528260608201528260808201528260a08201528260c08201528260e082015282610100820152826101208201520152565b90614004613f98565b5061400e8261460b565b9161401881614621565b9061402281614634565b9161402c8261464d565b61403583614660565b9161403f84614676565b936140498161468f565b95614053826146ab565b9061405d836146c7565b92614067906146d4565b93614070610c80565b9a15158b52151560208b0152151560408a01521515606089015215156080880152151560a0870152151560c0860152151560e0850152151561010084015215156101208301526001600160a01b031661014082015290565b6001600160ff1b0381116140d95790565b63123baf0360e11b60005260045260246000fd5b9080156141e1577f0000000000000000000000000000000000000000000000000000000000000000916141208184613365565b82810192831260008212908015821691151617611f9c578261418957507f00000000000000000000000000000000000000000000000000000000000000009283546000198101908111611f9c576102dc94559060018060a01b0316600052602052604060002055565b156141aa575b6102dc929060018060a01b0316600052602052604060002055565b7f000000000000000000000000000000000000000000000000000000000000000092835460018101809111611f9c5790935561418f565b5050565b906001600160801b038211801561421c575b61420b5760801b908101809111611f9c5790565b6389560ca160e01b60005260046000fd5b506001600160801b0381116141f7565b620f424081106142395750565b6334e3483f60e21b60005260045260246000fd5b6142596102dc926140c8565b906140ed565b61426881611e82565b805490620f42408201809211611f9c575561429461428582611f04565b60008052602052604060002090565b620f4240815401905560018060a01b0316600080826000805160206146e5833981519152604051806142cd8190620f4240602083019252565b0390a4803b156102c957600060405180926323de665160e01b825281838161430d6004820190620f42406040606084019360008152600060208201520152565b03925af1801561079d5761431e5750565b806136ab60006102dc93610c2f565b600091908291614372604051809261435e6020830195632d839cb360e21b8752604060248501526064840190611bcb565b90604483015203601f198101835282610c2f565b51906a636f6e736f6c652e6c6f675afa50565b6001600160a01b03821692908315614445576143aa826143a483611e82565b54613586565b6143b78461305f84611f04565b8381540190556143c68161422c565b6143cf82611e82565b5560018060a01b0316926000846000805160206146e5833981519152604051806143fe87829190602083019252565b0390a4823b156102c9576040516323de665160e01b81526000600482018190526001600160a01b03909316602482015260448101919091529182908183816064810161430d565b63ec442f0560e01b6000526113c983610617565b92826144698360608701516120fc565b526144738161038f565b614504576002915b6144898260c08601516120fc565b516144988360a08701516120fc565b5193806001146144e0576002146144bf57634e487b7160e01b600052605160045260246000fd5b61212b936144d26144d7926080946128df565b6134b4565b935b01516120fc565b506144fd61212b94613752670de0b6b3a7640000936080956128df565b04936144d9565b60019161447b565b9093926000946145208460808501516120fc565b51818111614530575b5050505050565b61457095965061456a93926145639261454992036134b4565b9360a061455a8260c08601516120fc565b519301516120fc565b51906128df565b90612912565b903880808080614529565b906101008310156145cd5782610100036101008111611f9c578060ff108160ff1802186018116145cd578060181c6145bc5762ffffff90831b921b19161790565b63e4337c0560e01b60005260046000fd5b632d0483c560e21b60005260046000fd5b90670de0b5cad2bef0008111613e48576103039164174876e80060ff61460261346a565b1692049061457b565b60019060ff613b7161344b61344b61344b613435565b60019060ff613b7161344b61344b613435565b60019060ff613b7161344b61344b61344b61344b613435565b60019060ff613b7161344b61344b613450565b60019060ff613b7161344b61344b61344b613450565b60019060ff613b7161344b61344b61344b61344b613450565b60019060ff613b7161344b61344b61344b61344b61344b613450565b60019060ff613b7161344b61344b61344b61344b61344b613435565b60019060ff613b71613450565b60019060ff613b7161344b61345056fed1398bee19313d6bf672ccb116e51f4a1a947e91c757907f51fbb5b5e56c698f9b779b17422d0df92223018b32b4d1fa46e071723d6817e2486d003becc55f00a264697066735822122051d442271ee8e0c2a6ff5c647b95c38f795488be476e670e2f43d8d0f72e7a1164736f6c634300081a0033",
  "linkReferences": {},
  "deployedLinkReferences": {}
}