{
  "_format": "hh-sol-artifact-1",
  "contractName": "VaultExtension",
  "sourceName": "contracts/_VaultExtension.sol",
  "abi": [
    {
      "inputs": [
        {
          "internalType": "contract IVault",
          "name": "mainVault",
          "type": "address"
        },
        {
          "internalType": "contract IVaultAdmin",
          "name": "vaultAdmin",
          "type": "address"
        }
      ],
      "stateMutability": "nonpayable",
      "type": "constructor"
    },
    {
      "inputs": [
        {
          "internalType": "address",
          "name": "target",
          "type": "address"
        }
      ],
      "name": "AddressEmptyCode",
      "type": "error"
    },
    {
      "inputs": [],
      "name": "AfterAddLiquidityHookFailed",
      "type": "error"
    },
    {
      "inputs": [],
      "name": "AfterInitializeHookFailed",
      "type": "error"
    },
    {
      "inputs": [],
      "name": "AfterRemoveLiquidityHookFailed",
      "type": "error"
    },
    {
      "inputs": [],
      "name": "AfterSwapHookFailed",
      "type": "error"
    },
    {
      "inputs": [],
      "name": "AmountGivenZero",
      "type": "error"
    },
    {
      "inputs": [
        {
          "internalType": "contract IERC20",
          "name": "tokenIn",
          "type": "address"
        },
        {
          "internalType": "uint256",
          "name": "amountIn",
          "type": "uint256"
        },
        {
          "internalType": "uint256",
          "name": "maxAmountIn",
          "type": "uint256"
        }
      ],
      "name": "AmountInAboveMax",
      "type": "error"
    },
    {
      "inputs": [
        {
          "internalType": "contract IERC20",
          "name": "tokenOut",
          "type": "address"
        },
        {
          "internalType": "uint256",
          "name": "amountOut",
          "type": "uint256"
        },
        {
          "internalType": "uint256",
          "name": "minAmountOut",
          "type": "uint256"
        }
      ],
      "name": "AmountOutBelowMin",
      "type": "error"
    },
    {
      "inputs": [],
      "name": "BalanceNotSettled",
      "type": "error"
    },
    {
      "inputs": [],
      "name": "BalanceOverflow",
      "type": "error"
    },
    {
      "inputs": [],
      "name": "BeforeAddLiquidityHookFailed",
      "type": "error"
    },
    {
      "inputs": [],
      "name": "BeforeInitializeHookFailed",
      "type": "error"
    },
    {
      "inputs": [],
      "name": "BeforeRemoveLiquidityHookFailed",
      "type": "error"
    },
    {
      "inputs": [],
      "name": "BeforeSwapHookFailed",
      "type": "error"
    },
    {
      "inputs": [
        {
          "internalType": "uint256",
          "name": "amountIn",
          "type": "uint256"
        },
        {
          "internalType": "uint256",
          "name": "maxAmountIn",
          "type": "uint256"
        }
      ],
      "name": "BptAmountInAboveMax",
      "type": "error"
    },
    {
      "inputs": [
        {
          "internalType": "uint256",
          "name": "amountOut",
          "type": "uint256"
        },
        {
          "internalType": "uint256",
          "name": "minAmountOut",
          "type": "uint256"
        }
      ],
      "name": "BptAmountOutBelowMin",
      "type": "error"
    },
    {
      "inputs": [
        {
          "internalType": "contract IERC4626",
          "name": "wrappedToken",
          "type": "address"
        }
      ],
      "name": "BufferAlreadyInitialized",
      "type": "error"
    },
    {
      "inputs": [
        {
          "internalType": "contract IERC4626",
          "name": "wrappedToken",
          "type": "address"
        }
      ],
      "name": "BufferNotInitialized",
      "type": "error"
    },
    {
      "inputs": [],
      "name": "BufferSharesInvalidOwner",
      "type": "error"
    },
    {
      "inputs": [],
      "name": "BufferSharesInvalidReceiver",
      "type": "error"
    },
    {
      "inputs": [
        {
          "internalType": "uint256",
          "name": "totalSupply",
          "type": "uint256"
        }
      ],
      "name": "BufferTotalSupplyTooLow",
      "type": "error"
    },
    {
      "inputs": [],
      "name": "CannotReceiveEth",
      "type": "error"
    },
    {
      "inputs": [],
      "name": "CannotSwapSameToken",
      "type": "error"
    },
    {
      "inputs": [],
      "name": "CodecOverflow",
      "type": "error"
    },
    {
      "inputs": [],
      "name": "DoesNotSupportAddLiquidityCustom",
      "type": "error"
    },
    {
      "inputs": [],
      "name": "DoesNotSupportDonation",
      "type": "error"
    },
    {
      "inputs": [],
      "name": "DoesNotSupportRemoveLiquidityCustom",
      "type": "error"
    },
    {
      "inputs": [],
      "name": "DoesNotSupportUnbalancedLiquidity",
      "type": "error"
    },
    {
      "inputs": [],
      "name": "DynamicSwapFeeHookFailed",
      "type": "error"
    },
    {
      "inputs": [
        {
          "internalType": "address",
          "name": "spender",
          "type": "address"
        },
        {
          "internalType": "uint256",
          "name": "allowance",
          "type": "uint256"
        },
        {
          "internalType": "uint256",
          "name": "needed",
          "type": "uint256"
        }
      ],
      "name": "ERC20InsufficientAllowance",
      "type": "error"
    },
    {
      "inputs": [
        {
          "internalType": "address",
          "name": "sender",
          "type": "address"
        },
        {
          "internalType": "uint256",
          "name": "balance",
          "type": "uint256"
        },
        {
          "internalType": "uint256",
          "name": "needed",
          "type": "uint256"
        }
      ],
      "name": "ERC20InsufficientBalance",
      "type": "error"
    },
    {
      "inputs": [
        {
          "internalType": "address",
          "name": "approver",
          "type": "address"
        }
      ],
      "name": "ERC20InvalidApprover",
      "type": "error"
    },
    {
      "inputs": [
        {
          "internalType": "address",
          "name": "receiver",
          "type": "address"
        }
      ],
      "name": "ERC20InvalidReceiver",
      "type": "error"
    },
    {
      "inputs": [
        {
          "internalType": "address",
          "name": "sender",
          "type": "address"
        }
      ],
      "name": "ERC20InvalidSender",
      "type": "error"
    },
    {
      "inputs": [
        {
          "internalType": "address",
          "name": "spender",
          "type": "address"
        }
      ],
      "name": "ERC20InvalidSpender",
      "type": "error"
    },
    {
      "inputs": [],
      "name": "ErrorSelectorNotFound",
      "type": "error"
    },
    {
      "inputs": [],
      "name": "FailedCall",
      "type": "error"
    },
    {
      "inputs": [],
      "name": "FeePrecisionTooHigh",
      "type": "error"
    },
    {
      "inputs": [
        {
          "internalType": "contract IERC20",
          "name": "tokenIn",
          "type": "address"
        },
        {
          "internalType": "uint256",
          "name": "amountIn",
          "type": "uint256"
        },
        {
          "internalType": "uint256",
          "name": "maxAmountIn",
          "type": "uint256"
        }
      ],
      "name": "HookAdjustedAmountInAboveMax",
      "type": "error"
    },
    {
      "inputs": [
        {
          "internalType": "contract IERC20",
          "name": "tokenOut",
          "type": "address"
        },
        {
          "internalType": "uint256",
          "name": "amountOut",
          "type": "uint256"
        },
        {
          "internalType": "uint256",
          "name": "minAmountOut",
          "type": "uint256"
        }
      ],
      "name": "HookAdjustedAmountOutBelowMin",
      "type": "error"
    },
    {
      "inputs": [
        {
          "internalType": "uint256",
          "name": "amount",
          "type": "uint256"
        },
        {
          "internalType": "uint256",
          "name": "limit",
          "type": "uint256"
        }
      ],
      "name": "HookAdjustedSwapLimit",
      "type": "error"
    },
    {
      "inputs": [
        {
          "internalType": "address",
          "name": "poolHooksContract",
          "type": "address"
        },
        {
          "internalType": "address",
          "name": "pool",
          "type": "address"
        },
        {
          "internalType": "address",
          "name": "poolFactory",
          "type": "address"
        }
      ],
      "name": "HookRegistrationFailed",
      "type": "error"
    },
    {
      "inputs": [],
      "name": "InputLengthMismatch",
      "type": "error"
    },
    {
      "inputs": [
        {
          "internalType": "uint256",
          "name": "balance",
          "type": "uint256"
        },
        {
          "internalType": "uint256",
          "name": "needed",
          "type": "uint256"
        }
      ],
      "name": "InsufficientBalance",
      "type": "error"
    },
    {
      "inputs": [],
      "name": "InvalidAddLiquidityKind",
      "type": "error"
    },
    {
      "inputs": [],
      "name": "InvalidRemoveLiquidityKind",
      "type": "error"
    },
    {
      "inputs": [],
      "name": "InvalidToken",
      "type": "error"
    },
    {
      "inputs": [],
      "name": "InvalidTokenConfiguration",
      "type": "error"
    },
    {
      "inputs": [],
      "name": "InvalidTokenDecimals",
      "type": "error"
    },
    {
      "inputs": [],
      "name": "InvalidTokenType",
      "type": "error"
    },
    {
      "inputs": [
        {
          "internalType": "contract IERC4626",
          "name": "wrappedToken",
          "type": "address"
        }
      ],
      "name": "InvalidUnderlyingToken",
      "type": "error"
    },
    {
      "inputs": [
        {
          "internalType": "uint256",
          "name": "issuedShares",
          "type": "uint256"
        },
        {
          "internalType": "uint256",
          "name": "minIssuedShares",
          "type": "uint256"
        }
      ],
      "name": "IssuedSharesBelowMin",
      "type": "error"
    },
    {
      "inputs": [],
      "name": "MaxTokens",
      "type": "error"
    },
    {
      "inputs": [],
      "name": "MinTokens",
      "type": "error"
    },
    {
      "inputs": [],
      "name": "NotEnoughBufferShares",
      "type": "error"
    },
    {
      "inputs": [
        {
          "internalType": "contract IERC4626",
          "name": "wrappedToken",
          "type": "address"
        },
        {
          "internalType": "uint256",
          "name": "expectedUnderlyingAmount",
          "type": "uint256"
        },
        {
          "internalType": "uint256",
          "name": "actualUnderlyingAmount",
          "type": "uint256"
        }
      ],
      "name": "NotEnoughUnderlying",
      "type": "error"
    },
    {
      "inputs": [
        {
          "internalType": "contract IERC4626",
          "name": "wrappedToken",
          "type": "address"
        },
        {
          "internalType": "uint256",
          "name": "expectedWrappedAmount",
          "type": "uint256"
        },
        {
          "internalType": "uint256",
          "name": "actualWrappedAmount",
          "type": "uint256"
        }
      ],
      "name": "NotEnoughWrapped",
      "type": "error"
    },
    {
      "inputs": [],
      "name": "NotStaticCall",
      "type": "error"
    },
    {
      "inputs": [],
      "name": "NotVaultDelegateCall",
      "type": "error"
    },
    {
      "inputs": [],
      "name": "OutOfBounds",
      "type": "error"
    },
    {
      "inputs": [],
      "name": "PauseBufferPeriodDurationTooLarge",
      "type": "error"
    },
    {
      "inputs": [],
      "name": "PercentageAboveMax",
      "type": "error"
    },
    {
      "inputs": [
        {
          "internalType": "address",
          "name": "pool",
          "type": "address"
        }
      ],
      "name": "PoolAlreadyInitialized",
      "type": "error"
    },
    {
      "inputs": [
        {
          "internalType": "address",
          "name": "pool",
          "type": "address"
        }
      ],
      "name": "PoolAlreadyRegistered",
      "type": "error"
    },
    {
      "inputs": [
        {
          "internalType": "address",
          "name": "pool",
          "type": "address"
        }
      ],
      "name": "PoolInRecoveryMode",
      "type": "error"
    },
    {
      "inputs": [
        {
          "internalType": "address",
          "name": "pool",
          "type": "address"
        }
      ],
      "name": "PoolNotInRecoveryMode",
      "type": "error"
    },
    {
      "inputs": [
        {
          "internalType": "address",
          "name": "pool",
          "type": "address"
        }
      ],
      "name": "PoolNotInitialized",
      "type": "error"
    },
    {
      "inputs": [
        {
          "internalType": "address",
          "name": "pool",
          "type": "address"
        }
      ],
      "name": "PoolNotPaused",
      "type": "error"
    },
    {
      "inputs": [
        {
          "internalType": "address",
          "name": "pool",
          "type": "address"
        }
      ],
      "name": "PoolNotRegistered",
      "type": "error"
    },
    {
      "inputs": [
        {
          "internalType": "address",
          "name": "pool",
          "type": "address"
        }
      ],
      "name": "PoolPauseWindowExpired",
      "type": "error"
    },
    {
      "inputs": [
        {
          "internalType": "address",
          "name": "pool",
          "type": "address"
        }
      ],
      "name": "PoolPaused",
      "type": "error"
    },
    {
      "inputs": [
        {
          "internalType": "uint256",
          "name": "totalSupply",
          "type": "uint256"
        }
      ],
      "name": "PoolTotalSupplyTooLow",
      "type": "error"
    },
    {
      "inputs": [],
      "name": "ProtocolFeesExceedTotalCollected",
      "type": "error"
    },
    {
      "inputs": [],
      "name": "QueriesDisabled",
      "type": "error"
    },
    {
      "inputs": [],
      "name": "QueriesDisabledPermanently",
      "type": "error"
    },
    {
      "inputs": [],
      "name": "QuoteResultSpoofed",
      "type": "error"
    },
    {
      "inputs": [],
      "name": "ReentrancyGuardReentrantCall",
      "type": "error"
    },
    {
      "inputs": [
        {
          "internalType": "bytes",
          "name": "result",
          "type": "bytes"
        }
      ],
      "name": "Result",
      "type": "error"
    },
    {
      "inputs": [],
      "name": "RouterNotTrusted",
      "type": "error"
    },
    {
      "inputs": [
        {
          "internalType": "uint256",
          "name": "value",
          "type": "uint256"
        }
      ],
      "name": "SafeCastOverflowedUintToInt",
      "type": "error"
    },
    {
      "inputs": [
        {
          "internalType": "address",
          "name": "sender",
          "type": "address"
        }
      ],
      "name": "SenderIsNotVault",
      "type": "error"
    },
    {
      "inputs": [],
      "name": "SwapFeePercentageTooHigh",
      "type": "error"
    },
    {
      "inputs": [],
      "name": "SwapFeePercentageTooLow",
      "type": "error"
    },
    {
      "inputs": [
        {
          "internalType": "uint256",
          "name": "amount",
          "type": "uint256"
        },
        {
          "internalType": "uint256",
          "name": "limit",
          "type": "uint256"
        }
      ],
      "name": "SwapLimit",
      "type": "error"
    },
    {
      "inputs": [
        {
          "internalType": "contract IERC20",
          "name": "token",
          "type": "address"
        }
      ],
      "name": "TokenAlreadyRegistered",
      "type": "error"
    },
    {
      "inputs": [
        {
          "internalType": "contract IERC20",
          "name": "token",
          "type": "address"
        }
      ],
      "name": "TokenNotRegistered",
      "type": "error"
    },
    {
      "inputs": [
        {
          "internalType": "address",
          "name": "pool",
          "type": "address"
        },
        {
          "internalType": "address",
          "name": "expectedToken",
          "type": "address"
        },
        {
          "internalType": "address",
          "name": "actualToken",
          "type": "address"
        }
      ],
      "name": "TokensMismatch",
      "type": "error"
    },
    {
      "inputs": [],
      "name": "TokensNotSorted",
      "type": "error"
    },
    {
      "inputs": [],
      "name": "TradeAmountTooSmall",
      "type": "error"
    },
    {
      "inputs": [],
      "name": "VaultBuffersArePaused",
      "type": "error"
    },
    {
      "inputs": [],
      "name": "VaultIsNotUnlocked",
      "type": "error"
    },
    {
      "inputs": [],
      "name": "VaultNotPaused",
      "type": "error"
    },
    {
      "inputs": [],
      "name": "VaultPauseWindowDurationTooLarge",
      "type": "error"
    },
    {
      "inputs": [],
      "name": "VaultPauseWindowExpired",
      "type": "error"
    },
    {
      "inputs": [],
      "name": "VaultPaused",
      "type": "error"
    },
    {
      "inputs": [
        {
          "internalType": "contract IERC4626",
          "name": "wrappedToken",
          "type": "address"
        }
      ],
      "name": "WrapAmountTooSmall",
      "type": "error"
    },
    {
      "inputs": [],
      "name": "WrongProtocolFeeControllerDeployment",
      "type": "error"
    },
    {
      "inputs": [
        {
          "internalType": "contract IERC4626",
          "name": "wrappedToken",
          "type": "address"
        },
        {
          "internalType": "address",
          "name": "underlyingToken",
          "type": "address"
        }
      ],
      "name": "WrongUnderlyingToken",
      "type": "error"
    },
    {
      "inputs": [],
      "name": "WrongVaultAdminDeployment",
      "type": "error"
    },
    {
      "inputs": [],
      "name": "WrongVaultExtensionDeployment",
      "type": "error"
    },
    {
      "anonymous": false,
      "inputs": [
        {
          "indexed": true,
          "internalType": "address",
          "name": "pool",
          "type": "address"
        },
        {
          "indexed": false,
          "internalType": "uint256",
          "name": "aggregateSwapFeePercentage",
          "type": "uint256"
        }
      ],
      "name": "AggregateSwapFeePercentageChanged",
      "type": "event"
    },
    {
      "anonymous": false,
      "inputs": [
        {
          "indexed": true,
          "internalType": "address",
          "name": "pool",
          "type": "address"
        },
        {
          "indexed": false,
          "internalType": "uint256",
          "name": "aggregateYieldFeePercentage",
          "type": "uint256"
        }
      ],
      "name": "AggregateYieldFeePercentageChanged",
      "type": "event"
    },
    {
      "anonymous": false,
      "inputs": [
        {
          "indexed": true,
          "internalType": "address",
          "name": "pool",
          "type": "address"
        },
        {
          "indexed": true,
          "internalType": "address",
          "name": "owner",
          "type": "address"
        },
        {
          "indexed": true,
          "internalType": "address",
          "name": "spender",
          "type": "address"
        },
        {
          "indexed": false,
          "internalType": "uint256",
          "name": "value",
          "type": "uint256"
        }
      ],
      "name": "Approval",
      "type": "event"
    },
    {
      "anonymous": false,
      "inputs": [
        {
          "indexed": true,
          "internalType": "contract IAuthorizer",
          "name": "newAuthorizer",
          "type": "address"
        }
      ],
      "name": "AuthorizerChanged",
      "type": "event"
    },
    {
      "anonymous": false,
      "inputs": [
        {
          "indexed": true,
          "internalType": "contract IERC4626",
          "name": "wrappedToken",
          "type": "address"
        },
        {
          "indexed": true,
          "internalType": "address",
          "name": "from",
          "type": "address"
        },
        {
          "indexed": false,
          "internalType": "uint256",
          "name": "burnedShares",
          "type": "uint256"
        }
      ],
      "name": "BufferSharesBurned",
      "type": "event"
    },
    {
      "anonymous": false,
      "inputs": [
        {
          "indexed": true,
          "internalType": "contract IERC4626",
          "name": "wrappedToken",
          "type": "address"
        },
        {
          "indexed": true,
          "internalType": "address",
          "name": "to",
          "type": "address"
        },
        {
          "indexed": false,
          "internalType": "uint256",
          "name": "issuedShares",
          "type": "uint256"
        }
      ],
      "name": "BufferSharesMinted",
      "type": "event"
    },
    {
      "anonymous": false,
      "inputs": [
        {
          "indexed": true,
          "internalType": "address",
          "name": "pool",
          "type": "address"
        },
        {
          "indexed": true,
          "internalType": "address",
          "name": "liquidityProvider",
          "type": "address"
        },
        {
          "indexed": true,
          "internalType": "enum AddLiquidityKind",
          "name": "kind",
          "type": "uint8"
        },
        {
          "indexed": false,
          "internalType": "uint256",
          "name": "totalSupply",
          "type": "uint256"
        },
        {
          "indexed": false,
          "internalType": "uint256[]",
          "name": "amountsAddedRaw",
          "type": "uint256[]"
        },
        {
          "indexed": false,
          "internalType": "uint256[]",
          "name": "swapFeeAmountsRaw",
          "type": "uint256[]"
        }
      ],
      "name": "LiquidityAdded",
      "type": "event"
    },
    {
      "anonymous": false,
      "inputs": [
        {
          "indexed": true,
          "internalType": "contract IERC4626",
          "name": "wrappedToken",
          "type": "address"
        },
        {
          "indexed": false,
          "internalType": "uint256",
          "name": "amountUnderlying",
          "type": "uint256"
        },
        {
          "indexed": false,
          "internalType": "uint256",
          "name": "amountWrapped",
          "type": "uint256"
        },
        {
          "indexed": false,
          "internalType": "bytes32",
          "name": "bufferBalances",
          "type": "bytes32"
        }
      ],
      "name": "LiquidityAddedToBuffer",
      "type": "event"
    },
    {
      "anonymous": false,
      "inputs": [
        {
          "indexed": true,
          "internalType": "address",
          "name": "pool",
          "type": "address"
        },
        {
          "indexed": true,
          "internalType": "address",
          "name": "liquidityProvider",
          "type": "address"
        },
        {
          "indexed": true,
          "internalType": "enum RemoveLiquidityKind",
          "name": "kind",
          "type": "uint8"
        },
        {
          "indexed": false,
          "internalType": "uint256",
          "name": "totalSupply",
          "type": "uint256"
        },
        {
          "indexed": false,
          "internalType": "uint256[]",
          "name": "amountsRemovedRaw",
          "type": "uint256[]"
        },
        {
          "indexed": false,
          "internalType": "uint256[]",
          "name": "swapFeeAmountsRaw",
          "type": "uint256[]"
        }
      ],
      "name": "LiquidityRemoved",
      "type": "event"
    },
    {
      "anonymous": false,
      "inputs": [
        {
          "indexed": true,
          "internalType": "contract IERC4626",
          "name": "wrappedToken",
          "type": "address"
        },
        {
          "indexed": false,
          "internalType": "uint256",
          "name": "amountUnderlying",
          "type": "uint256"
        },
        {
          "indexed": false,
          "internalType": "uint256",
          "name": "amountWrapped",
          "type": "uint256"
        },
        {
          "indexed": false,
          "internalType": "bytes32",
          "name": "bufferBalances",
          "type": "bytes32"
        }
      ],
      "name": "LiquidityRemovedFromBuffer",
      "type": "event"
    },
    {
      "anonymous": false,
      "inputs": [
        {
          "indexed": true,
          "internalType": "address",
          "name": "pool",
          "type": "address"
        }
      ],
      "name": "PoolInitialized",
      "type": "event"
    },
    {
      "anonymous": false,
      "inputs": [
        {
          "indexed": true,
          "internalType": "address",
          "name": "pool",
          "type": "address"
        },
        {
          "indexed": false,
          "internalType": "bool",
          "name": "paused",
          "type": "bool"
        }
      ],
      "name": "PoolPausedStateChanged",
      "type": "event"
    },
    {
      "anonymous": false,
      "inputs": [
        {
          "indexed": true,
          "internalType": "address",
          "name": "pool",
          "type": "address"
        },
        {
          "indexed": false,
          "internalType": "bool",
          "name": "recoveryMode",
          "type": "bool"
        }
      ],
      "name": "PoolRecoveryModeStateChanged",
      "type": "event"
    },
    {
      "anonymous": false,
      "inputs": [
        {
          "indexed": true,
          "internalType": "address",
          "name": "pool",
          "type": "address"
        },
        {
          "indexed": true,
          "internalType": "address",
          "name": "factory",
          "type": "address"
        },
        {
          "components": [
            {
              "internalType": "contract IERC20",
              "name": "token",
              "type": "address"
            },
            {
              "internalType": "enum TokenType",
              "name": "tokenType",
              "type": "uint8"
            },
            {
              "internalType": "contract IRateProvider",
              "name": "rateProvider",
              "type": "address"
            },
            {
              "internalType": "bool",
              "name": "paysYieldFees",
              "type": "bool"
            }
          ],
          "indexed": false,
          "internalType": "struct TokenConfig[]",
          "name": "tokenConfig",
          "type": "tuple[]"
        },
        {
          "indexed": false,
          "internalType": "uint256",
          "name": "swapFeePercentage",
          "type": "uint256"
        },
        {
          "indexed": false,
          "internalType": "uint32",
          "name": "pauseWindowEndTime",
          "type": "uint32"
        },
        {
          "components": [
            {
              "internalType": "address",
              "name": "pauseManager",
              "type": "address"
            },
            {
              "internalType": "address",
              "name": "swapFeeManager",
              "type": "address"
            },
            {
              "internalType": "address",
              "name": "poolCreator",
              "type": "address"
            }
          ],
          "indexed": false,
          "internalType": "struct PoolRoleAccounts",
          "name": "roleAccounts",
          "type": "tuple"
        },
        {
          "components": [
            {
              "internalType": "bool",
              "name": "enableHookAdjustedAmounts",
              "type": "bool"
            },
            {
              "internalType": "bool",
              "name": "shouldCallBeforeInitialize",
              "type": "bool"
            },
            {
              "internalType": "bool",
              "name": "shouldCallAfterInitialize",
              "type": "bool"
            },
            {
              "internalType": "bool",
              "name": "shouldCallComputeDynamicSwapFee",
              "type": "bool"
            },
            {
              "internalType": "bool",
              "name": "shouldCallBeforeSwap",
              "type": "bool"
            },
            {
              "internalType": "bool",
              "name": "shouldCallAfterSwap",
              "type": "bool"
            },
            {
              "internalType": "bool",
              "name": "shouldCallBeforeAddLiquidity",
              "type": "bool"
            },
            {
              "internalType": "bool",
              "name": "shouldCallAfterAddLiquidity",
              "type": "bool"
            },
            {
              "internalType": "bool",
              "name": "shouldCallBeforeRemoveLiquidity",
              "type": "bool"
            },
            {
              "internalType": "bool",
              "name": "shouldCallAfterRemoveLiquidity",
              "type": "bool"
            },
            {
              "internalType": "address",
              "name": "hooksContract",
              "type": "address"
            }
          ],
          "indexed": false,
          "internalType": "struct HooksConfig",
          "name": "hooksConfig",
          "type": "tuple"
        },
        {
          "components": [
            {
              "internalType": "bool",
              "name": "disableUnbalancedLiquidity",
              "type": "bool"
            },
            {
              "internalType": "bool",
              "name": "enableAddLiquidityCustom",
              "type": "bool"
            },
            {
              "internalType": "bool",
              "name": "enableRemoveLiquidityCustom",
              "type": "bool"
            },
            {
              "internalType": "bool",
              "name": "enableDonation",
              "type": "bool"
            }
          ],
          "indexed": false,
          "internalType": "struct LiquidityManagement",
          "name": "liquidityManagement",
          "type": "tuple"
        }
      ],
      "name": "PoolRegistered",
      "type": "event"
    },
    {
      "anonymous": false,
      "inputs": [
        {
          "indexed": true,
          "internalType": "contract IProtocolFeeController",
          "name": "newProtocolFeeController",
          "type": "address"
        }
      ],
      "name": "ProtocolFeeControllerChanged",
      "type": "event"
    },
    {
      "anonymous": false,
      "inputs": [
        {
          "indexed": true,
          "internalType": "address",
          "name": "pool",
          "type": "address"
        },
        {
          "indexed": true,
          "internalType": "contract IERC20",
          "name": "tokenIn",
          "type": "address"
        },
        {
          "indexed": true,
          "internalType": "contract IERC20",
          "name": "tokenOut",
          "type": "address"
        },
        {
          "indexed": false,
          "internalType": "uint256",
          "name": "amountIn",
          "type": "uint256"
        },
        {
          "indexed": false,
          "internalType": "uint256",
          "name": "amountOut",
          "type": "uint256"
        },
        {
          "indexed": false,
          "internalType": "uint256",
          "name": "swapFeePercentage",
          "type": "uint256"
        },
        {
          "indexed": false,
          "internalType": "uint256",
          "name": "swapFeeAmount",
          "type": "uint256"
        }
      ],
      "name": "Swap",
      "type": "event"
    },
    {
      "anonymous": false,
      "inputs": [
        {
          "indexed": true,
          "internalType": "address",
          "name": "pool",
          "type": "address"
        },
        {
          "indexed": false,
          "internalType": "uint256",
          "name": "swapFeePercentage",
          "type": "uint256"
        }
      ],
      "name": "SwapFeePercentageChanged",
      "type": "event"
    },
    {
      "anonymous": false,
      "inputs": [
        {
          "indexed": true,
          "internalType": "address",
          "name": "pool",
          "type": "address"
        },
        {
          "indexed": true,
          "internalType": "address",
          "name": "from",
          "type": "address"
        },
        {
          "indexed": true,
          "internalType": "address",
          "name": "to",
          "type": "address"
        },
        {
          "indexed": false,
          "internalType": "uint256",
          "name": "value",
          "type": "uint256"
        }
      ],
      "name": "Transfer",
      "type": "event"
    },
    {
      "anonymous": false,
      "inputs": [
        {
          "indexed": true,
          "internalType": "contract IERC4626",
          "name": "wrappedToken",
          "type": "address"
        },
        {
          "indexed": false,
          "internalType": "uint256",
          "name": "burnedShares",
          "type": "uint256"
        },
        {
          "indexed": false,
          "internalType": "uint256",
          "name": "withdrawnUnderlying",
          "type": "uint256"
        },
        {
          "indexed": false,
          "internalType": "bytes32",
          "name": "bufferBalances",
          "type": "bytes32"
        }
      ],
      "name": "Unwrap",
      "type": "event"
    },
    {
      "anonymous": false,
      "inputs": [
        {
          "indexed": true,
          "internalType": "address",
          "name": "pool",
          "type": "address"
        },
        {
          "indexed": true,
          "internalType": "bytes32",
          "name": "eventKey",
          "type": "bytes32"
        },
        {
          "indexed": false,
          "internalType": "bytes",
          "name": "eventData",
          "type": "bytes"
        }
      ],
      "name": "VaultAuxiliary",
      "type": "event"
    },
    {
      "anonymous": false,
      "inputs": [
        {
          "indexed": false,
          "internalType": "bool",
          "name": "paused",
          "type": "bool"
        }
      ],
      "name": "VaultBuffersPausedStateChanged",
      "type": "event"
    },
    {
      "anonymous": false,
      "inputs": [
        {
          "indexed": false,
          "internalType": "bool",
          "name": "paused",
          "type": "bool"
        }
      ],
      "name": "VaultPausedStateChanged",
      "type": "event"
    },
    {
      "anonymous": false,
      "inputs": [],
      "name": "VaultQueriesDisabled",
      "type": "event"
    },
    {
      "anonymous": false,
      "inputs": [],
      "name": "VaultQueriesEnabled",
      "type": "event"
    },
    {
      "anonymous": false,
      "inputs": [
        {
          "indexed": true,
          "internalType": "contract IERC4626",
          "name": "wrappedToken",
          "type": "address"
        },
        {
          "indexed": false,
          "internalType": "uint256",
          "name": "depositedUnderlying",
          "type": "uint256"
        },
        {
          "indexed": false,
          "internalType": "uint256",
          "name": "mintedShares",
          "type": "uint256"
        },
        {
          "indexed": false,
          "internalType": "bytes32",
          "name": "bufferBalances",
          "type": "bytes32"
        }
      ],
      "name": "Wrap",
      "type": "event"
    },
    {
      "stateMutability": "payable",
      "type": "fallback"
    },
    {
      "inputs": [
        {
          "internalType": "address",
          "name": "token",
          "type": "address"
        },
        {
          "internalType": "address",
          "name": "owner",
          "type": "address"
        },
        {
          "internalType": "address",
          "name": "spender",
          "type": "address"
        }
      ],
      "name": "allowance",
      "outputs": [
        {
          "internalType": "uint256",
          "name": "",
          "type": "uint256"
        }
      ],
      "stateMutability": "view",
      "type": "function"
    },
    {
      "inputs": [
        {
          "internalType": "address",
          "name": "owner",
          "type": "address"
        },
        {
          "internalType": "address",
          "name": "spender",
          "type": "address"
        },
        {
          "internalType": "uint256",
          "name": "amount",
          "type": "uint256"
        }
      ],
      "name": "approve",
      "outputs": [
        {
          "internalType": "bool",
          "name": "",
          "type": "bool"
        }
      ],
      "stateMutability": "nonpayable",
      "type": "function"
    },
    {
      "inputs": [
        {
          "internalType": "address",
          "name": "token",
          "type": "address"
        },
        {
          "internalType": "address",
          "name": "account",
          "type": "address"
        }
      ],
      "name": "balanceOf",
      "outputs": [
        {
          "internalType": "uint256",
          "name": "",
          "type": "uint256"
        }
      ],
      "stateMutability": "view",
      "type": "function"
    },
    {
      "inputs": [
        {
          "internalType": "bytes32",
          "name": "eventKey",
          "type": "bytes32"
        },
        {
          "internalType": "bytes",
          "name": "eventData",
          "type": "bytes"
        }
      ],
      "name": "emitAuxiliaryEvent",
      "outputs": [],
      "stateMutability": "nonpayable",
      "type": "function"
    },
    {
      "inputs": [
        {
          "internalType": "address",
          "name": "pool",
          "type": "address"
        }
      ],
      "name": "getAddLiquidityCalledFlag",
      "outputs": [
        {
          "internalType": "bool",
          "name": "",
          "type": "bool"
        }
      ],
      "stateMutability": "view",
      "type": "function"
    },
    {
      "inputs": [
        {
          "internalType": "address",
          "name": "pool",
          "type": "address"
        },
        {
          "internalType": "contract IERC20",
          "name": "token",
          "type": "address"
        }
      ],
      "name": "getAggregateSwapFeeAmount",
      "outputs": [
        {
          "internalType": "uint256",
          "name": "",
          "type": "uint256"
        }
      ],
      "stateMutability": "view",
      "type": "function"
    },
    {
      "inputs": [
        {
          "internalType": "address",
          "name": "pool",
          "type": "address"
        },
        {
          "internalType": "contract IERC20",
          "name": "token",
          "type": "address"
        }
      ],
      "name": "getAggregateYieldFeeAmount",
      "outputs": [
        {
          "internalType": "uint256",
          "name": "",
          "type": "uint256"
        }
      ],
      "stateMutability": "view",
      "type": "function"
    },
    {
      "inputs": [],
      "name": "getAuthorizer",
      "outputs": [
        {
          "internalType": "contract IAuthorizer",
          "name": "",
          "type": "address"
        }
      ],
      "stateMutability": "view",
      "type": "function"
    },
    {
      "inputs": [
        {
          "internalType": "address",
          "name": "pool",
          "type": "address"
        }
      ],
      "name": "getBptRate",
      "outputs": [
        {
          "internalType": "uint256",
          "name": "rate",
          "type": "uint256"
        }
      ],
      "stateMutability": "view",
      "type": "function"
    },
    {
      "inputs": [
        {
          "internalType": "address",
          "name": "pool",
          "type": "address"
        }
      ],
      "name": "getCurrentLiveBalances",
      "outputs": [
        {
          "internalType": "uint256[]",
          "name": "balancesLiveScaled18",
          "type": "uint256[]"
        }
      ],
      "stateMutability": "view",
      "type": "function"
    },
    {
      "inputs": [
        {
          "internalType": "contract IERC4626",
          "name": "wrappedToken",
          "type": "address"
        }
      ],
      "name": "getERC4626BufferAsset",
      "outputs": [
        {
          "internalType": "address",
          "name": "asset",
          "type": "address"
        }
      ],
      "stateMutability": "view",
      "type": "function"
    },
    {
      "inputs": [],
      "name": "getNonzeroDeltaCount",
      "outputs": [
        {
          "internalType": "uint256",
          "name": "",
          "type": "uint256"
        }
      ],
      "stateMutability": "view",
      "type": "function"
    },
    {
      "inputs": [
        {
          "internalType": "address",
          "name": "pool",
          "type": "address"
        }
      ],
      "name": "getPoolConfig",
      "outputs": [
        {
          "components": [
            {
              "components": [
                {
                  "internalType": "bool",
                  "name": "disableUnbalancedLiquidity",
                  "type": "bool"
                },
                {
                  "internalType": "bool",
                  "name": "enableAddLiquidityCustom",
                  "type": "bool"
                },
                {
                  "internalType": "bool",
                  "name": "enableRemoveLiquidityCustom",
                  "type": "bool"
                },
                {
                  "internalType": "bool",
                  "name": "enableDonation",
                  "type": "bool"
                }
              ],
              "internalType": "struct LiquidityManagement",
              "name": "liquidityManagement",
              "type": "tuple"
            },
            {
              "internalType": "uint256",
              "name": "staticSwapFeePercentage",
              "type": "uint256"
            },
            {
              "internalType": "uint256",
              "name": "aggregateSwapFeePercentage",
              "type": "uint256"
            },
            {
              "internalType": "uint256",
              "name": "aggregateYieldFeePercentage",
              "type": "uint256"
            },
            {
              "internalType": "uint40",
              "name": "tokenDecimalDiffs",
              "type": "uint40"
            },
            {
              "internalType": "uint32",
              "name": "pauseWindowEndTime",
              "type": "uint32"
            },
            {
              "internalType": "bool",
              "name": "isPoolRegistered",
              "type": "bool"
            },
            {
              "internalType": "bool",
              "name": "isPoolInitialized",
              "type": "bool"
            },
            {
              "internalType": "bool",
              "name": "isPoolPaused",
              "type": "bool"
            },
            {
              "internalType": "bool",
              "name": "isPoolInRecoveryMode",
              "type": "bool"
            }
          ],
          "internalType": "struct PoolConfig",
          "name": "",
          "type": "tuple"
        }
      ],
      "stateMutability": "view",
      "type": "function"
    },
    {
      "inputs": [
        {
          "internalType": "address",
          "name": "pool",
          "type": "address"
        }
      ],
      "name": "getPoolData",
      "outputs": [
        {
          "components": [
            {
              "internalType": "PoolConfigBits",
              "name": "poolConfigBits",
              "type": "bytes32"
            },
            {
              "internalType": "contract IERC20[]",
              "name": "tokens",
              "type": "address[]"
            },
            {
              "components": [
                {
                  "internalType": "enum TokenType",
                  "name": "tokenType",
                  "type": "uint8"
                },
                {
                  "internalType": "contract IRateProvider",
                  "name": "rateProvider",
                  "type": "address"
                },
                {
                  "internalType": "bool",
                  "name": "paysYieldFees",
                  "type": "bool"
                }
              ],
              "internalType": "struct TokenInfo[]",
              "name": "tokenInfo",
              "type": "tuple[]"
            },
            {
              "internalType": "uint256[]",
              "name": "balancesRaw",
              "type": "uint256[]"
            },
            {
              "internalType": "uint256[]",
              "name": "balancesLiveScaled18",
              "type": "uint256[]"
            },
            {
              "internalType": "uint256[]",
              "name": "tokenRates",
              "type": "uint256[]"
            },
            {
              "internalType": "uint256[]",
              "name": "decimalScalingFactors",
              "type": "uint256[]"
            }
          ],
          "internalType": "struct PoolData",
          "name": "",
          "type": "tuple"
        }
      ],
      "stateMutability": "view",
      "type": "function"
    },
    {
      "inputs": [
        {
          "internalType": "address",
          "name": "pool",
          "type": "address"
        }
      ],
      "name": "getPoolPausedState",
      "outputs": [
        {
          "internalType": "bool",
          "name": "",
          "type": "bool"
        },
        {
          "internalType": "uint32",
          "name": "",
          "type": "uint32"
        },
        {
          "internalType": "uint32",
          "name": "",
          "type": "uint32"
        },
        {
          "internalType": "address",
          "name": "",
          "type": "address"
        }
      ],
      "stateMutability": "view",
      "type": "function"
    },
    {
      "inputs": [
        {
          "internalType": "address",
          "name": "pool",
          "type": "address"
        }
      ],
      "name": "getPoolRoleAccounts",
      "outputs": [
        {
          "components": [
            {
              "internalType": "address",
              "name": "pauseManager",
              "type": "address"
            },
            {
              "internalType": "address",
              "name": "swapFeeManager",
              "type": "address"
            },
            {
              "internalType": "address",
              "name": "poolCreator",
              "type": "address"
            }
          ],
          "internalType": "struct PoolRoleAccounts",
          "name": "",
          "type": "tuple"
        }
      ],
      "stateMutability": "view",
      "type": "function"
    },
    {
      "inputs": [
        {
          "internalType": "address",
          "name": "pool",
          "type": "address"
        }
      ],
      "name": "getPoolTokenInfo",
      "outputs": [
        {
          "internalType": "contract IERC20[]",
          "name": "tokens",
          "type": "address[]"
        },
        {
          "components": [
            {
              "internalType": "enum TokenType",
              "name": "tokenType",
              "type": "uint8"
            },
            {
              "internalType": "contract IRateProvider",
              "name": "rateProvider",
              "type": "address"
            },
            {
              "internalType": "bool",
              "name": "paysYieldFees",
              "type": "bool"
            }
          ],
          "internalType": "struct TokenInfo[]",
          "name": "tokenInfo",
          "type": "tuple[]"
        },
        {
          "internalType": "uint256[]",
          "name": "balancesRaw",
          "type": "uint256[]"
        },
        {
          "internalType": "uint256[]",
          "name": "lastBalancesLiveScaled18",
          "type": "uint256[]"
        }
      ],
      "stateMutability": "view",
      "type": "function"
    },
    {
      "inputs": [
        {
          "internalType": "address",
          "name": "pool",
          "type": "address"
        }
      ],
      "name": "getPoolTokenRates",
      "outputs": [
        {
          "internalType": "uint256[]",
          "name": "decimalScalingFactors",
          "type": "uint256[]"
        },
        {
          "internalType": "uint256[]",
          "name": "tokenRates",
          "type": "uint256[]"
        }
      ],
      "stateMutability": "view",
      "type": "function"
    },
    {
      "inputs": [
        {
          "internalType": "address",
          "name": "pool",
          "type": "address"
        }
      ],
      "name": "getPoolTokens",
      "outputs": [
        {
          "internalType": "contract IERC20[]",
          "name": "tokens",
          "type": "address[]"
        }
      ],
      "stateMutability": "view",
      "type": "function"
    },
    {
      "inputs": [],
      "name": "getProtocolFeeController",
      "outputs": [
        {
          "internalType": "contract IProtocolFeeController",
          "name": "",
          "type": "address"
        }
      ],
      "stateMutability": "view",
      "type": "function"
    },
    {
      "inputs": [
        {
          "internalType": "contract IERC20",
          "name": "token",
          "type": "address"
        }
      ],
      "name": "getReservesOf",
      "outputs": [
        {
          "internalType": "uint256",
          "name": "",
          "type": "uint256"
        }
      ],
      "stateMutability": "view",
      "type": "function"
    },
    {
      "inputs": [
        {
          "internalType": "address",
          "name": "pool",
          "type": "address"
        }
      ],
      "name": "getStaticSwapFeePercentage",
      "outputs": [
        {
          "internalType": "uint256",
          "name": "",
          "type": "uint256"
        }
      ],
      "stateMutability": "view",
      "type": "function"
    },
    {
      "inputs": [
        {
          "internalType": "contract IERC20",
          "name": "token",
          "type": "address"
        }
      ],
      "name": "getTokenDelta",
      "outputs": [
        {
          "internalType": "int256",
          "name": "",
          "type": "int256"
        }
      ],
      "stateMutability": "view",
      "type": "function"
    },
    {
      "inputs": [],
      "name": "getVaultAdmin",
      "outputs": [
        {
          "internalType": "address",
          "name": "",
          "type": "address"
        }
      ],
      "stateMutability": "view",
      "type": "function"
    },
    {
      "inputs": [
        {
          "internalType": "address",
          "name": "pool",
          "type": "address"
        },
        {
          "internalType": "address",
          "name": "to",
          "type": "address"
        },
        {
          "internalType": "contract IERC20[]",
          "name": "tokens",
          "type": "address[]"
        },
        {
          "internalType": "uint256[]",
          "name": "exactAmountsIn",
          "type": "uint256[]"
        },
        {
          "internalType": "uint256",
          "name": "minBptAmountOut",
          "type": "uint256"
        },
        {
          "internalType": "bytes",
          "name": "userData",
          "type": "bytes"
        }
      ],
      "name": "initialize",
      "outputs": [
        {
          "internalType": "uint256",
          "name": "bptAmountOut",
          "type": "uint256"
        }
      ],
      "stateMutability": "nonpayable",
      "type": "function"
    },
    {
      "inputs": [
        {
          "internalType": "contract IERC4626",
          "name": "wrappedToken",
          "type": "address"
        }
      ],
      "name": "isERC4626BufferInitialized",
      "outputs": [
        {
          "internalType": "bool",
          "name": "",
          "type": "bool"
        }
      ],
      "stateMutability": "view",
      "type": "function"
    },
    {
      "inputs": [
        {
          "internalType": "address",
          "name": "pool",
          "type": "address"
        }
      ],
      "name": "isPoolInRecoveryMode",
      "outputs": [
        {
          "internalType": "bool",
          "name": "",
          "type": "bool"
        }
      ],
      "stateMutability": "view",
      "type": "function"
    },
    {
      "inputs": [
        {
          "internalType": "address",
          "name": "pool",
          "type": "address"
        }
      ],
      "name": "isPoolInitialized",
      "outputs": [
        {
          "internalType": "bool",
          "name": "",
          "type": "bool"
        }
      ],
      "stateMutability": "view",
      "type": "function"
    },
    {
      "inputs": [
        {
          "internalType": "address",
          "name": "pool",
          "type": "address"
        }
      ],
      "name": "isPoolPaused",
      "outputs": [
        {
          "internalType": "bool",
          "name": "",
          "type": "bool"
        }
      ],
      "stateMutability": "view",
      "type": "function"
    },
    {
      "inputs": [
        {
          "internalType": "address",
          "name": "pool",
          "type": "address"
        }
      ],
      "name": "isPoolRegistered",
      "outputs": [
        {
          "internalType": "bool",
          "name": "",
          "type": "bool"
        }
      ],
      "stateMutability": "view",
      "type": "function"
    },
    {
      "inputs": [],
      "name": "isQueryDisabled",
      "outputs": [
        {
          "internalType": "bool",
          "name": "",
          "type": "bool"
        }
      ],
      "stateMutability": "view",
      "type": "function"
    },
    {
      "inputs": [],
      "name": "isQueryDisabledPermanently",
      "outputs": [
        {
          "internalType": "bool",
          "name": "",
          "type": "bool"
        }
      ],
      "stateMutability": "view",
      "type": "function"
    },
    {
      "inputs": [],
      "name": "isUnlocked",
      "outputs": [
        {
          "internalType": "bool",
          "name": "",
          "type": "bool"
        }
      ],
      "stateMutability": "view",
      "type": "function"
    },
    {
      "inputs": [
        {
          "internalType": "bytes",
          "name": "data",
          "type": "bytes"
        }
      ],
      "name": "quote",
      "outputs": [
        {
          "internalType": "bytes",
          "name": "result",
          "type": "bytes"
        }
      ],
      "stateMutability": "nonpayable",
      "type": "function"
    },
    {
      "inputs": [
        {
          "internalType": "bytes",
          "name": "data",
          "type": "bytes"
        }
      ],
      "name": "quoteAndRevert",
      "outputs": [],
      "stateMutability": "nonpayable",
      "type": "function"
    },
    {
      "inputs": [],
      "name": "reentrancyGuardEntered",
      "outputs": [
        {
          "internalType": "bool",
          "name": "",
          "type": "bool"
        }
      ],
      "stateMutability": "view",
      "type": "function"
    },
    {
      "inputs": [
        {
          "internalType": "address",
          "name": "pool",
          "type": "address"
        },
        {
          "components": [
            {
              "internalType": "contract IERC20",
              "name": "token",
              "type": "address"
            },
            {
              "internalType": "enum TokenType",
              "name": "tokenType",
              "type": "uint8"
            },
            {
              "internalType": "contract IRateProvider",
              "name": "rateProvider",
              "type": "address"
            },
            {
              "internalType": "bool",
              "name": "paysYieldFees",
              "type": "bool"
            }
          ],
          "internalType": "struct TokenConfig[]",
          "name": "tokenConfig",
          "type": "tuple[]"
        },
        {
          "internalType": "uint256",
          "name": "swapFeePercentage",
          "type": "uint256"
        },
        {
          "internalType": "uint32",
          "name": "pauseWindowEndTime",
          "type": "uint32"
        },
        {
          "internalType": "bool",
          "name": "protocolFeeExempt",
          "type": "bool"
        },
        {
          "components": [
            {
              "internalType": "address",
              "name": "pauseManager",
              "type": "address"
            },
            {
              "internalType": "address",
              "name": "swapFeeManager",
              "type": "address"
            },
            {
              "internalType": "address",
              "name": "poolCreator",
              "type": "address"
            }
          ],
          "internalType": "struct PoolRoleAccounts",
          "name": "roleAccounts",
          "type": "tuple"
        },
        {
          "internalType": "address",
          "name": "poolHooksContract",
          "type": "address"
        },
        {
          "components": [
            {
              "internalType": "bool",
              "name": "disableUnbalancedLiquidity",
              "type": "bool"
            },
            {
              "internalType": "bool",
              "name": "enableAddLiquidityCustom",
              "type": "bool"
            },
            {
              "internalType": "bool",
              "name": "enableRemoveLiquidityCustom",
              "type": "bool"
            },
            {
              "internalType": "bool",
              "name": "enableDonation",
              "type": "bool"
            }
          ],
          "internalType": "struct LiquidityManagement",
          "name": "liquidityManagement",
          "type": "tuple"
        }
      ],
      "name": "registerPool",
      "outputs": [],
      "stateMutability": "nonpayable",
      "type": "function"
    },
    {
      "inputs": [
        {
          "internalType": "address",
          "name": "pool",
          "type": "address"
        },
        {
          "internalType": "address",
          "name": "from",
          "type": "address"
        },
        {
          "internalType": "uint256",
          "name": "exactBptAmountIn",
          "type": "uint256"
        },
        {
          "internalType": "uint256[]",
          "name": "minAmountsOut",
          "type": "uint256[]"
        }
      ],
      "name": "removeLiquidityRecovery",
      "outputs": [
        {
          "internalType": "uint256[]",
          "name": "amountsOutRaw",
          "type": "uint256[]"
        }
      ],
      "stateMutability": "nonpayable",
      "type": "function"
    },
    {
      "inputs": [
        {
          "internalType": "address",
          "name": "token",
          "type": "address"
        }
      ],
      "name": "totalSupply",
      "outputs": [
        {
          "internalType": "uint256",
          "name": "",
          "type": "uint256"
        }
      ],
      "stateMutability": "view",
      "type": "function"
    },
    {
      "inputs": [],
      "name": "vault",
      "outputs": [
        {
          "internalType": "contract IVault",
          "name": "",
          "type": "address"
        }
      ],
      "stateMutability": "view",
      "type": "function"
    },
    {
      "stateMutability": "payable",
      "type": "receive"
    }
  ],
  "bytecode": "0x610200806040523461038157604081614d1d8038038091610020828561038d565b833981010312610381576020610035826103c4565b910151906001600160a01b0382168083036103815761007760405161005b60408261038d565b600a8152691a5cd55b9b1bd8dad95960b21b60208201526103f4565b60c0526100ae60405161008b60408261038d565b60118152701b9bdb96995c9bd1195b1d1850dbdd5b9d607a1b60208201526103f4565b60e0526100df6040516100c260408261038d565b600b81526a746f6b656e44656c74617360a81b60208201526103f4565b610100526101186040516100f460408261038d565b6012815271185919131a5c5d5a591a5d1e50d85b1b195960721b60208201526103f4565b6101205261014860405161012d60408261038d565b60098152681cd95cdcda5bdb925960ba1b60208201526103f4565b6101405260405163fbfa77cf60e01b8152602081600481855afa9081156102f9575f9161034f575b506001600160a01b0383811691160361034057604051634546891d60e11b8152602081600481855afa9081156102f9575f91610321575b5061016052604051631060fdbd60e11b8152602081600481855afa9182156102f9576004926020925f91610304575b506101a05260405163cd51c12f60e01b815292839182905afa9081156102f9575f916102ca575b50610180526101c0526101e05260405161484e90816104cf823960805181505060a05181505060c051818181610ca8015281816127fd0152612a01015260e0518181816117f401528181613d980152613de0015261010051818181610e140152613d500152610120518181816110f201526113dd0152610140518181816110d001526113bb015261016051815050610180518161315001526101a05181818161059c015261274b01526101c051818181611d2b015261245401526101e05181818161062101526124170152f35b6102ec915060203d6020116102f2575b6102e4818361038d565b8101906103d8565b5f6101fd565b503d6102da565b6040513d5f823e3d90fd5b61031b9150833d85116102f2576102e4818361038d565b5f6101d6565b61033a915060203d6020116102f2576102e4818361038d565b5f6101a7565b634166145b60e11b5f5260045ffd5b90506020813d602011610385575b8161036a6020938361038d565b810103126103815761037b906103c4565b5f610170565b5f80fd5b3d915061035d565b601f909101601f19168101906001600160401b038211908210176103b057604052565b634e487b7160e01b5f52604160045260245ffd5b51906001600160a01b038216820361038157565b90816020910312610381575163ffffffff811681036103815790565b6040519061040360408361038d565b600c82526104876001602084016b5661756c7453746f7261676560a01b815260396020604051958693828501987f62616c616e6365722d6c6162732e76332e73746f726167652e000000000000008a525180918587015e840190601760f91b84830152805192839101603a83015e01015f838201520301601f19810183528261038d565b5190205f1981019081116104ba576040519060208201908152602082526104af60408361038d565b9051902060ff191690565b634e487b7160e01b5f52601160045260245ffdfe60806040526004361015610018575b36612408576123f9565b5f3560e01c8062fdfa131461029657806313d21cdf1461029157806313ef8a5d1461028c57806315e32046146102875780631ba0ae45146102825780634afbaf5a1461027d5780634f037ee714610278578063532cec7c14610273578063535cfd8a1461026e57806367e0e076146102695780636844846b146102645780636c9bc7321461025f578063757d64b31461025a5780637e361bde146102555780638380edb71461025057806385e0b9991461024b57806385f2dbd414610246578063927da10514610241578063967870921461023c5780639e825ff514610237578063a07d604014610232578063aaabadc51461022d578063ace9b89b14610228578063b45090f914610223578063b4aef0ab1461021e578063ba8a2be014610219578063be7d628a14610214578063c673bdaf1461020f578063c80882471461020a578063ca4f280314610205578063d2c725e014610200578063db817187146101fb578063e1f21c67146101f6578063e4dc2aa4146101f1578063e9ddeb26146101ec578063edfa3568146101e7578063eeec802f146101e2578063f29486a1146101dd578063f7888aec146101d85763fbfa77cf0361000e57611d16565b611cbc565b611c21565b611a3b565b611998565b6118df565b611865565b61181c565b6117d8565b6117ad565b611712565b61166b565b611624565b6115d9565b6114e2565b61144c565b611401565b61138f565b61135e565b610f93565b610de8565b610da5565b610d55565b610d25565b610cd2565b610c8c565b610b86565b610aac565b610a0e565b6109c1565b6108af565b6107ea565b610782565b61069b565b610650565b61060c565b610556565b61052c565b610438565b6102f4565b6001600160a01b031690565b6001600160a01b038116036102b857565b5f80fd5b61010435906102ca826102a7565b565b60409060031901126102b8576004356102e4816102a7565b906024356102f1816102a7565b90565b346102b8576020610333610307366102cc565b90610310612452565b61031981612493565b6001600160a01b03165f9081526005845260409020611df0565b5460801c604051908152f35b90602080835192838152019201905f5b81811061035c5750505090565b82516001600160a01b031684526020938401939092019160010161034f565b6002111561038557565b634e487b7160e01b5f52602160045260245ffd5b90604060609280516103aa8161037b565b83526020818101516001600160a01b0316908401520151151560408201520190565b90602080835192838152019201905f5b8181106103e95750505090565b90919260206103fb6001928651610399565b94019291016103dc565b90602080835192838152019201905f5b8181106104225750505090565b8251845260209384019390920191600101610415565b346102b85760203660031901126102b85761051e61047a60043561045b816102a7565b610463611e05565b5061046c612452565b610475816124c7565b6124fe565b604051918291602083528051602084015260c061050a6104f56104df6104c96104b3602087015160e060408b01526101008a019061033f565b6040870151898203601f190160608b01526103cc565b6060860151888203601f190160808a0152610405565b6080850151878203601f190160a0890152610405565b60a0840151868203601f190184880152610405565b910151838203601f190160e0850152610405565b0390f35b5f9103126102b857565b346102b8575f3660031901126102b857610544612452565b602060ff600854166040519015158152f35b346102b85760203660031901126102b8576080600435610575816102a7565b61057d612452565b61058681612493565b63ffffffff61059482612705565b9190926105c17f000000000000000000000000000000000000000000000000000000000000000084611e4f565b9060018060a01b03165f5260016020528160018060a01b0360405f2054169360405195151586521660208501521660408301526060820152f35b6001600160a01b0316600452602490565b346102b8575f3660031901126102b8576040517f00000000000000000000000000000000000000000000000000000000000000006001600160a01b03168152602090f35b346102b85760203660031901126102b85760043561066d816102a7565b610675612452565b60018060a01b03165f52600d602052602060018060a01b0360405f205416604051908152f35b346102b85760203660031901126102b8576004356106b8816102a7565b6106c0612452565b6106c9816124c7565b6106fd602060806106d9846124fe565b015160405180938192631309bd3d60e31b8352604060048401526044830190610405565b6001602483015203816001600160a01b0386165afa801561077d5761051e92610738925f92610748575b5061073190611d5a565b54906127bf565b6040519081529081906020820190565b61073191925061076f9060203d602011610776575b6107678183610ebe565b810190611e6e565b9190610727565b503d61075d565b611ea3565b346102b85760203660031901126102b85760043561079f816102a7565b6107a7612452565b6107b081612493565b6001600160a01b03165f9081526020818152604090912054600190811c165b6040519015158152f35b9060206102f1928181520190610405565b346102b85760203660031901126102b85761051e608061082060043561080f816102a7565b610817612452565b61047581612493565b0151604051918291602083526020830190610405565b929061084e909594929560808552608085019061033f565b8381036020850152602080875192838152019601905f5b818110610893575050508461088591846102f19697036040860152610405565b916060818403910152610405565b90919660206108a56001928a51610399565b9801929101610865565b346102b85760203660031901126102b8576004356108cc816102a7565b6108d4612452565b6108dd81612493565b6001600160a01b0381165f90815260046020526040902061090561090083611d73565b611eae565b9081519261091284611f1d565b9361091c81611f6c565b9161092682611f6c565b935f5b838110610941576040518061051e88888c8c85610836565b806109b061095160019385611f9e565b5461097f61097a8b61097461096f876109698c611d8c565b93611fbf565b611fd8565b90611df0565b611ff1565b610989848d611fbf565b52610994838c611fbf565b506001600160801b0381166109a9848a611fbf565b5260801c90565b6109ba8289611fbf565b5201610929565b346102b85760203660031901126102b8576004356109de816102a7565b6109e6612452565b60018060a01b03165f52600d602052602060018060a01b0360405f2054161515604051908152f35b346102b85760203660031901126102b8576020610a46600435610a30816102a7565b610a38612452565b610a4181612493565b612705565b506040519015158152f35b9181601f840112156102b8578235916001600160401b0383116102b857602083818601950101116102b857565b60206003198201126102b857600435906001600160401b0382116102b857610aa891600401610a51565b9091565b346102b8575f80610abc36610a7e565b90610ac56127ea565b610acd612452565b8160405192839283378101838152039082335af1610ae9612031565b908015610b1d5790610aff81610b19933361284c565b50604051630b56c9f760e31b81529182916004830161196e565b0390fd5b506004815110610b525760208101516001600160e01b0319166314a9360960e31b0161283d576328f9554160e01b5f5260045ffd5b63a728568960e01b5f5260045ffd5b9091610b786102f193604084526040840190610405565b916020818403910152610405565b346102b85760203660031901126102b857600435610ba3816102a7565b610bab612452565b610bb481612493565b6001600160a01b0381165f908152602081815260408083205460028352818420915182548082529285528385209094919390928592918301915b818110610c6a575050610c0392500383610ebe565b610c0f825180926128aa565b91610c1982611f6c565b935f5b838110610c32576040518061051e888883610b61565b600190610c59610c5461097a610c4786611d8c565b61097461096f868a611fbf565b612902565b610c638289611fbf565b5201610c1c565b84546001600160a01b0316835260019485019487945060209093019201610bee565b346102b8575f3660031901126102b857610ca4612452565b60207f00000000000000000000000000000000000000000000000000000000000000005c6040519015158152f35b346102b8576020610ce2366102cc565b90610ceb612452565b610cf481612493565b6001600160a01b03165f90815260058352604090206001600160801b0391610d1b91611df0565b5416604051908152f35b346102b8575f3660031901126102b857610d3d612452565b6009546040516001600160a01b039091168152602090f35b346102b85760603660031901126102b8576020610d9d600435610d77816102a7565b602435610d83816102a7565b60443591610d90836102a7565b610d98612452565b61299f565b604051908152f35b346102b85760203660031901126102b857600435610dc2816102a7565b610dca612452565b60018060a01b03165f526007602052602060405f2054604051908152f35b346102b85760203660031901126102b8576020610d9d600435610e0a816102a7565b610e12612452565b7f00000000000000000000000000000000000000000000000000000000000000006129e9565b634e487b7160e01b5f52604160045260245ffd5b606081019081106001600160401b03821117610e6757604052565b610e38565b608081019081106001600160401b03821117610e6757604052565b61014081019081106001600160401b03821117610e6757604052565b60e081019081106001600160401b03821117610e6757604052565b601f909101601f19168101906001600160401b03821190821017610e6757604052565b604051906102ca608083610ebe565b604051906102ca61014083610ebe565b604051906102ca606083610ebe565b604051906102ca61016083610ebe565b6001600160401b038111610e675760051b60200190565b9080601f830112156102b8578135610f4d81610f1f565b92610f5b6040519485610ebe565b81845260208085019260051b8201019283116102b857602001905b828210610f835750505090565b8135815260209182019101610f76565b346102b85760803660031901126102b857600435610fb0816102a7565b60243590610fbd826102a7565b604435916064356001600160401b0381116102b857610fe0903690600401610f36565b92610fe9612452565b610ff16129ff565b610ff9612a37565b611002836124c7565b60018060a01b03831692835f525f60205261102060405f2054613c1b565b1561134b5761102e81611da5565b94611037612060565b9061104461090084611d73565b80835251956110596040840197808952611f6c565b95608084019687525f5b885181101561109b578061108961107c6001938d611f9e565b546001600160801b031690565b611094828b51611fbf565b5201611063565b5087969495966110b78887516110b08a611d5a565b5490612a7e565b976110c28251611f6c565b9360608701948552611116897f00000000000000000000000000000000000000000000000000000000000000005c7f0000000000000000000000000000000000000000000000000000000000000000612acd565b151560a08801818152949061132f575b5f5b845181101561123f57808c61113d8851151590565b6111f4575b9061114c91611fbf565b51611157828a611fbf565b51116111b757808a6111b0828f611196828f9261119161118061096f60019b6111aa9751611fbf565b61118a8484611fbf565b5190612b98565b611fbf565b519351936111a48386611fbf565b516120b3565b92611fbf565b5201611128565b8b886111e0836111d9816111d38f6111f19861096f9151611fbf565b95611fbf565b5192611fbf565b516317bc2f2360e11b5f52916120c0565b5ffd5b61120d9161120191611fbf565b5160208b015190612b76565b611218828951611fbf565b528b611237826111aa61122c828c51611fbf565b516111a48386611fbf565b52808c611142565b508894508a9186918b61125181611da5565b955f5b885181101561129257806112818b61127a836112726001968e611f9e565b549251611fbf565b5190612bba565b61128b828b611f9e565b5501611254565b61051e875f88887ffbe5b0d79fb94f1e81c0a92bf86ae9d3a19e9d1bf6202c0d3e75120f65d5d8a5848a6113086112ec8c6112e78d6112d381338886612bc8565b6112db612c30565b61131f575b8583612c83565b611d5a565b5495516040516001600160a01b039093169692938493846120d7565b0390a4611313612a6c565b604051918291826107d9565b61132a818785612c52565b6112e0565b61134161133b8b611dbe565b54612b46565b6020890152611126565b8363ef029adf60e01b5f5260045260245ffd5b346102b8575f3660031901126102b857611376612452565b60088054604051911c6001600160a01b03168152602090f35b346102b85760203660031901126102b85760206107cf6004356113b1816102a7565b6113b9612452565b7f00000000000000000000000000000000000000000000000000000000000000005c7f0000000000000000000000000000000000000000000000000000000000000000612acd565b346102b85760203660031901126102b85760043561141e816102a7565b611426612452565b61142f81612493565b60018060a01b03165f525f6020526020610d9d60405f2054612b46565b346102b8575f3660031901126102b857611464612452565b60206001600654166040519015158152f35b6001600160401b038111610e6757601f01601f191660200190565b92919261149d82611476565b916114ab6040519384610ebe565b8294818452818301116102b8578281602093845f960137010152565b9080601f830112156102b8578160206102f193359101611491565b346102b85760c03660031901126102b8576004356114ff816102a7565b6024359061150c826102a7565b604435906001600160401b0382116102b857366023830112156102b85781600401359161153883610f1f565b926115466040519485610ebe565b8084526024602085019160051b830101913683116102b857602401905b8282106115bf57505060643590506001600160401b0381116102b85761158d903690600401610f36565b60a4359260843591906001600160401b0385116102b85761051e956115b96107389636906004016114c7565b94612102565b6020809183356115ce816102a7565b815201910190611563565b346102b85760203660031901126102b8576004356115f6816102a7565b6115fe612452565b61160781612493565b60018060a01b03165f525f60205260206107cf60405f2054613c1b565b346102b85760203660031901126102b857600435611641816102a7565b611649612452565b60018060a01b03165f525f6020526020600160405f2054166040519015158152f35b346102b85760403660031901126102b8576024356001600160401b0381116102b85761169b903690600401610a51565b6116a3612452565b6116ac33612493565b80604051926020845281602085015260408401375f604082840101527f4bc4412e210115456903c65b5277d299a505e79f2eb852b92b1ca52d85856428600435926040813394601f80199101168101030190a3005b9060206102f192818152019061033f565b346102b85760203660031901126102b85760043561172f816102a7565b611737612452565b61174081612493565b60018060a01b03165f52600260205260405f206040519081602082549182815201915f5260205f20905f5b81811061178e5761051e8561178281870382610ebe565b60405191829182611701565b82546001600160a01b031684526020909301926001928301920161176b565b346102b8575f3660031901126102b85760205f805160206147f98339815191525c6040519015158152f35b346102b8575f3660031901126102b8576117f0612452565b60207f00000000000000000000000000000000000000000000000000000000000000005c604051908152f35b346102b85760603660031901126102b85761185a60043561183c816102a7565b602435611848816102a7565b60443591611854612452565b33613049565b602060405160018152f35b346102b85760203660031901126102b857600435611882816102a7565b61188a612452565b60018060a01b03165f526010602052602060405f2054604051908152f35b80516001600160a01b03908116835260208083015182169084015260409182015116910152565b6060810192916102ca91906118a8565b346102b85760203660031901126102b8576004356118fc816102a7565b611904611eff565b5061190d612452565b61191681612493565b60018060a01b03165f52600160205261051e60405f206040519061193982610e4c565b80546001600160a01b0390811683526001820154811660208401526002909101541660408083019190915251918291826118cf565b602060409281835280519182918282860152018484015e5f828201840152601f01601f1916010190565b346102b85761051e6119e15f806119c86119b136610a7e565b6119b96127ea565b6119c1612452565b3691611491565b60208151910182335af16119da612031565b903361284c565b6040519182918261196e565b801515036102b857565b608435906102ca826119ed565b6064359063ffffffff821682036102b857565b60609060a31901126102b85760a490565b6080906101231901126102b85761012490565b346102b8576101a03660031901126102b857600435611a59816102a7565b602435906001600160401b0382116102b857366023830112156102b857816004013591611a8583610f1f565b90611a936040519283610ebe565b8382526024602083019460071b820101903682116102b857602401935b818510611af457611af28484604435611ac7611a04565b611acf6119f7565b90611ad936611a17565b92611ae26102bc565b94611aec36611a28565b966121d1565b005b6080853603126102b85760405190611b0b82610e6c565b8535611b16816102a7565b825260208601359060028210156102b857826020928360809501526040880135611b3f816102a7565b60408201526060880135611b52816119ed565b6060820152815201940193611ab0565b6060809180511515845260208101511515602085015260408101511515604085015201511515910152565b6102ca909291926101806101206101a0830195611bab848251611b62565b60208101516080850152604081015160a0850152606081015160c0850152611be1608082015160e086019064ffffffffff169052565b60a081015163ffffffff1661010085015260c081015115158483015260e08101511515610140850152610100810151151561016085015201511515910152565b346102b85760203660031901126102b85761051e611cb0600435611c44816102a7565b604051611c5081610e87565b604051611c5c81610e6c565b5f81525f60208201525f60408201525f606082015281525f60208201525f60408201525f60608201525f60808201525f60a08201525f60c08201525f60e08201525f6101008201525f6101208201526122f3565b60405191829182611b8d565b346102b85760403660031901126102b8576020611d0d600435611cde816102a7565b60243590611ceb826102a7565b611cf3612452565b6001600160a01b03165f908152600e845260409020611df0565b54604051908152f35b346102b8575f3660031901126102b8576040517f00000000000000000000000000000000000000000000000000000000000000006001600160a01b03168152602090f35b6001600160a01b03165f90815260106020526040902090565b6001600160a01b03165f90815260026020526040902090565b6001600160a01b03165f90815260036020526040902090565b6001600160a01b03165f90815260046020526040902090565b6001600160a01b03165f90815260208190526040902090565b6001600160a01b03165f908152600e6020526040902090565b9060018060a01b03165f5260205260405f2090565b60405190611e1282610ea3565b606060c0835f815282602082015282604082015282808201528260808201528260a08201520152565b634e487b7160e01b5f52601160045260245ffd5b9063ffffffff8091169116019063ffffffff8211611e6957565b611e3b565b908160209103126102b8575190565b91906020611e95600192604086526040860190610405565b93611e9f8361037b565b0152565b6040513d5f823e3d90fd5b90604051918281549182825260208201905f5260205f20925f5b818110611edd5750506102ca92500383610ebe565b84546001600160a01b0316835260019485019487945060209093019201611ec8565b60405190611f0c82610e4c565b5f6040838281528260208201520152565b90611f2782610f1f565b611f346040519182610ebe565b8281528092611f45601f1991610f1f565b01905f5b828110611f5557505050565b602090611f60611eff565b82828501015201611f49565b90611f7682610f1f565b611f836040519182610ebe565b8281528092611f94601f1991610f1f565b0190602036910137565b905f5260205260405f2090565b634e487b7160e01b5f52603260045260245ffd5b8051821015611fd35760209160051b010190565b611fab565b516001600160a01b031690565b611fee8261037b565b52565b90604051611ffe81610e4c565b604060ff8294548181166120118161037b565b8452600881901c6001600160a01b0316602085015260a81c161515910152565b3d1561205b573d9061204282611476565b916120506040519384610ebe565b82523d5f602084013e565b606090565b6040519060c082016001600160401b03811183821017610e67576040525f60a08360608152826020820152826040820152606080820152606060808201520152565b620f423f19810191908211611e6957565b91908203918211611e6957565b6001600160a01b0316600452602452604452606490565b916120f4906102f194928452606060208501526060840190610405565b916040818403910152610405565b929190945061210f612452565b6121176129ff565b61212083612493565b612128612a37565b612130613149565b61213983612705565b506121b357612147836124fe565b8051600190811c16612195576020810151518351036121865761217e9561217860c083015160a08401519086612d9b565b94612e49565b6102f1612a6c565b63aaad13f760e01b5f5260045ffd5b63218e374760e01b5f9081526001600160a01b038516600452602490fd5b63d971f59760e01b5f9081526001600160a01b038416600452602490fd5b94969263ffffffff919694926121e5612452565b6121ed612a37565b6121f5613149565b6040519761220289610ea3565b88526020880152166040860152151560608501526060853603126102b85761227e6122859261228f96604080519161223983610e4c565b8035612244816102a7565b83526020810135612254816102a7565b60208401520135612264816102a7565b604082015260808701526001600160a01b031660a0860152565b3690612297565b60c083015261353b565b6102ca612a6c565b91908260809103126102b8576040516122af81610e6c565b606080829480356122bf816119ed565b845260208101356122cf816119ed565b602085015260408101356122e2816119ed565b6040850152013591611e9f836119ed565b506122fc612452565b61230581612493565b61230e90611dbe565b5460018116600182811c1661232283613c07565b9061232c84613c1b565b9261233685612b46565b61233f86613c45565b61234887613c88565b61235188613c9d565b9161235b89613cc7565b936123658a613cd5565b159961237081613cf0565b9061237a81613d07565b9061238490613d14565b9161238d610ee1565b9c15158d52151560208d0152151560408c0152151560608b01526123af610ef0565b998a5260208a01526040890152606088015264ffffffffff16608087015263ffffffff1660a0860152151560c0850152151560e08401521515610100830152151561012082015290565b637911c44b60e11b5f5260045ffd5b346123f957365f80375f8036817f00000000000000000000000000000000000000000000000000000000000000006001600160a01b03165af43d5f803e1561244e573d5ff35b3d5ffd5b7f00000000000000000000000000000000000000000000000000000000000000006001600160a01b0316300361248457565b634fe92d9b60e11b5f5260045ffd5b6001600160a01b03165f81815260208190526040902054600116156124b55750565b6327946f5760e21b5f5260045260245ffd5b6001600160a01b03165f81815260208190526040902054600190811c16156124ec5750565b634bdace1360e01b5f5260045260245ffd5b90612507611e05565b6001600160a01b039092165f9081526004602090815260408083208383528184205460038452828520600285529290942080549487529286019261254a90611eae565b835261255584611f1d565b926040870193845261256685611f6c565b926060880193845261257786611f6c565b60808901526125878689516128aa565b60c089015261259586611f6c565b9060a089019182526125ab8951600190811c1690565b92836126f1575b836126de575b895f5b8981106125ce5750505050505050505050565b8860019289838a61260d826125f9816125f361097a8e6109748f8561096f9151611fbf565b94611f9e565b549651836126078383611fbf565b52611fbf565b5061261781612902565b612622838c51611fbf565b52612638876001600160801b038716848761452b565b8a156126d4576040810151151590816126b7575b5061265f575b505050505b018a906125bb565b8261268361267b836126746126899751613c88565b9551611fbf565b519560801c90565b906145d7565b8d838261269a575b8b919250612652565b6126a886936126ae956120b3565b9161452b565b5f808d83612691565b879150516126c48161037b565b6126cd8161037b565b145f61264c565b5050505050612657565b92506126ea8951613c1b565b15926125b8565b92506126fd8951613c88565b1515926125b2565b6001600160a01b03165f908152602081905260409020549063ffffffff61272b83613c07565b92612734613cb1565b1c169180612740579190565b5063ffffffff6127707f000000000000000000000000000000000000000000000000000000000000000084611e4f565b164211159190565b90600582029180830460051490151715611e6957565b81810292918115918404141715611e6957565b81156127ab570490565b634e487b7160e01b5f52601260045260245ffd5b90670de0b6b3a7640000820291808304670de0b6b3a76400001490151715611e69576102f1916127a1565b3261282e5760016006541661281f5760017f00000000000000000000000000000000000000000000000000000000000000005d565b633d0cc44360e11b5f5260045ffd5b6333fc255960e11b5f5260045ffd5b805115610b5257805190602001fd5b90612870575080511561286157805190602001fd5b63d6bda27560e01b5f5260045ffd5b815115806128a1575b612881575090565b639996b31560e01b5f9081526001600160a01b0391909116600452602490fd5b50803b15612879565b9064ffffffffff6128ba82611f6c565b926128c3613c95565b1c165f5b8281106128d45750505090565b601f826128e083612778565b1c1690604d8211611e6957600191600a0a6128fb8287611fbf565b52016128c7565b805161290d8161037b565b6129168161037b565b80612929575050670de0b6b3a764000090565b8061293560019261037b565b0361299057602061295261294d82600494015161029b565b61029b565b6040516333cd77e760e11b815292839182905afa90811561077d575f91612977575090565b6102f1915060203d602011610776576107678183610ebe565b636fa2831960e11b5f5260045ffd5b9091906001600160a01b03808416908316036129bd575050505f1990565b6001600160a01b03165f908152600f602052604090206129e5926129e091611df0565b611df0565b5490565b9060018060a01b03165f5260205260405f205c90565b7f00000000000000000000000000000000000000000000000000000000000000005c15612a2857565b63604dd39b60e11b5f5260045ffd5b5f805160206147f98339815191525c612a5d5760015f805160206147f98339815191525d565b633ee5aeb560e01b5f5260045ffd5b5f5f805160206147f98339815191525d565b9291612a8a8451611f6c565b935f5b8151811015612ac75780612ab685612ab186612aab60019688611fbf565b5161278e565b6127a1565b612ac08289611fbf565b5201612a8d565b50505050565b905f5260205260405f20905f5260205260405f205c90565b60ff60019116019060ff8211611e6957565b6102f1612b0d612b0d612b0d612b0d6001612ae5565b612ae5565b6102f1612b0d612b0d612b0d612b0d612b0d612b0d612af7565b6102f1612b0d612b0d612b0d612b0d612b0d612b0d612b12565b62ffffff9060ff612b55612b2c565b161c1664174876e80081029080820464174876e8001490151715611e695790565b90612b809161278e565b6001670de0b6b3a76400005f19830104019015150290565b90612ba290613d24565b90600160ff1b8214611e69576102ca915f0390613d47565b906102f19160801c90613e1d565b9190939293612bd882828561299f565b60018101612be9575b505050509050565b808611612c075794612bfd94950392613049565b805f808080612be1565b637dc7a0d960e11b5f9081526001600160a01b0384166004526024919091526044869052606490fd5b321580612c3a5790565b506001600654161590565b91908201809211611e6957565b903261282e57612c749160018060a01b03165f52600e60205260405f20611df0565b8054918201809211611e695755565b90916001600160a01b038316918215612d8857612ca3846129e083611dd7565b54808311612d7257829003612cbb856129e084611dd7565b55612ccf82612cc983611d5a565b546120b3565b612cd881613e62565b612ce182611d5a565b556001600160a01b031690813b156102b8576040516323de665160e01b81526001600160a01b039490941660048501525f6024850181905260448501829052935f805160206147b983398151915291612d5391868160648183895af1612d58575b506040519081529081906020820190565b0390a4565b80612d6688612d6c93610ebe565b80610522565b5f612d42565b63391434e360e21b5f526111f1908390866120c0565b634b637e8f60e11b5f526111f1846105fb565b91908251918151815181851491821592612e21575b505061218657612dbf83611f6c565b935f5b848110612dd157505050505090565b80670de0b6b3a7640000612e0f612dea60019486611fbf565b51612e0a612df8858a611fbf565b51612e03868a611fbf565b519261278e565b61278e565b04612e1a8289611fbf565b5201612dc2565b141590505f80612db0565b6001600160a01b0390811660045290811660245216604452606490565b929195969496612e5884611da5565b955f5b60208901518051821015612f025761096f82612e7692611fbf565b612e8661294d61096f8489611fbf565b6001600160a01b038216908103612eda575090612eb0600192612ea9838b611fbf565b5190613e81565b612ec98b612ec2836111d9818d611fbf565b5190613e1d565b612ed3828b611f9e565b5501612e5b565b6111f19088612eef61294d61096f878c611fbf565b6001621d9e5f60e01b03195f5290612e2c565b5050875191989097909650949391925060021916600217808552612f2582611dbe565b55604051631309bd3d60e31b81526001600160a01b0382169560209082908190612f529060048301611e7d565b0381895afa801561077d57612f77915f9161302a575b50612f7281613e62565b6120a2565b96612f8182613e93565b612f8c888484613f59565b8088106130135750600193928592612fea612fd66020612fcc7fa26a52d8d53702bba7f137907b8e1f99ff87f6d450144270ca25e72481cca87196611d5a565b5497015151611f6c565b604051938493898060a01b031697846120d7565b0390a47fcad8c9d32507393b6508ca4a888b81979919b477510585bde8488f153072d6f35f80a2565b638d261d5d60e01b5f52600488905260245260445ffd5b613043915060203d602011610776576107678183610ebe565b5f612f68565b926001600160a01b0382169290918315613136576001600160a01b0382169485156131235783613091846129e0856129e08660018060a01b03165f52600f60205260405f2090565b556001600160a01b031692833b156102b857604051630ad0fe5760e31b81526001600160a01b039283166004820152929091166024830152604482018190527fa0175360a15bca328baf7ea85c7b784d58b222a50d0ce760b10dba336d226a6191612d5391905f8160648183895af161311557506040519081529081906020820190565b80612d665f612d6c93610ebe565b634a1406b160e11b5f526111f1836105fb565b63e602df0560e01b5f526111f1906105fb565b63ffffffff7f0000000000000000000000000000000000000000000000000000000000000000164211158061318e575b61317f57565b6336a7e2cd60e21b5f5260045ffd5b506001600654811c16613179565b908051906131a98261037b565b6131b28261037b565b825460208201516040909201516001600160b01b031990911660ff939093169290921760089190911b610100600160a81b03161790151560a81b60ff60a81b16179055565b908160209103126102b8575160ff811681036102b85790565b805490600160401b821015610e675760018201808255821015611fd3575f908152602090200180546001600160a01b0319166001600160a01b03909216919091179055565b80546001600160a01b0319166001600160a01b03909216919091179055565b81516102ca92600291613290906001600160a01b031684613255565b60208101516132ab906001600160a01b031660018501613255565b604001516001600160a01b03169101613255565b91908260409103126102b8576020825192015190565b51906102ca826119ed565b908160209103126102b857516102f1816119ed565b90602080835192838152019201905f5b8181106133125750505090565b9091926020608060019260608751858060a01b038151168352848101516133388161037b565b85840152858060a01b0360408201511660408401520151151560608201520194019101919091613305565b6001600160a01b0391821681529116602082015260e0604082018190529093926102ca929091606091613398918701906132f5565b940190611b62565b90816101409103126102b8576134566101206133ba610ef0565b926133c4816132d5565b84526133d2602082016132d5565b60208501526133e3604082016132d5565b60408501526133f4606082016132d5565b6060850152613405608082016132d5565b608085015261341660a082016132d5565b60a085015261342760c082016132d5565b60c085015261343860e082016132d5565b60e085015261344a61010082016132d5565b610100850152016132d5565b61012082015290565b919695936102ca956134a46101409263ffffffff6102209761348e613534976102a08a526102a08a01906132f5565b9c602089015216604087015260608601906118a8565b8051151560c08501526020810151151560e08501526040810151151561010085015260608101511515610120850152608081015115158483015260a0810151151561016085015260c0810151151561018085015260e081015115156101a085015261010081015115156101c085015261012081015115156101e085015201516001600160a01b0316610200830152565b0190611b62565b9061354f61354883611dbe565b5460011690565b613bf4578051519060028210613be55760088211613bd65761357082611f6c565b915f805b8282106139b2575050506080810180516001600160a01b0385165f9081526001602052604090206135a59190613274565b61360f60406135b861294d60095461029b565b6135c482855101611fd8565b906135d26060870151151590565b83516377ff76e760e01b81526001600160a01b03808b166004830152909316602484015215156044830152909283919082905f9082906064820190565b03925af192831561077d5785935f925f9161397d575b5060019560c0830196875161363a9051151590565b61364391614029565b87516020015115156136549161404d565b875160400151151561366591614066565b875160600151151561367691614074565b9061368090614085565b6136899161411e565b926040830193845161369e9063ffffffff1690565b6136a791614163565b906136b1916141a7565b906136bb916141e0565b60a082019182516136cb9061029b565b6136d49061029b565b80613754575b50956137358261372f61294d6137268a9b61374f98976137075f805160206147d98339815191529d611dbe565b55613718602082019d8e51906142e5565b519b51985163ffffffff1690565b9851955161029b565b9061445e565b905191604051958695339a60018060a01b0316998761345f565b0390a3565b61378f9193959794965061376960209161029b565b8451908651915f8c604051968795869485936305c4f8c160e11b85523360048601613363565b03925af190811561077d575f9161394e575b5015613940576004906101406137bd61294d61294d885161029b565b60405163d77153a760e01b815293849182905afa91821561077d575f9261390f575b5081511515806138f5575b6138d5579261373561370761372f61294d61372661374f978d6138c489829f9d9a5f805160206147d98339815191529f9d6138b66138a861389b61388e61388161387461386761385a61384d610120996138476138be9c51151590565b90614202565b60208c0151151590614219565b60408b015115159061422d565b60608a0151151590614247565b6080890151151590614264565b60a0880151151590614272565b60c0870151151590614283565b60e0860151151590614297565b6101008501511515906142ae565b920151151590565b906142c8565b98995050959b9a50505050506136da565b6111f1886138e3875161029b565b633ea4f60560e21b5f52339190612e2c565b50613909613904855151151590565b151590565b156137ea565b6139329192506101403d8111613939575b61392a8183610ebe565b8101906133a0565b905f6137df565b503d613920565b6111f1876138e3865161029b565b613970915060203d602011613976575b6139688183610ebe565b8101906132e0565b5f6137a1565b503d61395e565b90506139a291925060403d6040116139ab575b61399a8183610ebe565b8101906132bf565b9190915f613625565b503d613990565b6139bd828551611fbf565b516139c8815161029b565b6001600160a01b0381169290919083158015613bc4575b613bb5576001600160a01b0316808410613ba6578314613b9357604081019088613a7d613a0f61294d855161029b565b1593613a78866129e06020870195613a736060613a37895197613a318961037b565b5161029b565b990198613a6a613a478b51151590565b91613a5a613a53610f00565b998a611fe5565b6001600160a01b03166020890152565b15156040870152565b611d8c565b61319c565b8051613a888161037b565b613a918161037b565b613b5a5750811591613b4f575b506129905760206004925b60405163313ce56760e01b815293849182905afa91821561077d575f92613b1f575b50601260ff83161115613ae75763686d360760e01b5f5260045ffd5b613b0560ff60019360120316613afd8589611fbf565b9060ff169052565b613b1781613b1289611d73565b613210565b910190613574565b613b4191925060203d8111613b48575b613b398183610ebe565b8101906131f7565b905f613acb565b503d613b2f565b51151590505f613a9e565b6001915051613b688161037b565b613b718161037b565b03613b8457612990576020600492613aa9565b63a1e9dd9d60e01b5f5260045ffd5b6327a5b1a760e11b5f526111f1826105fb565b636e8f194760e01b5f5260045ffd5b63c1ab6dc160e01b5f5260045ffd5b506001600160a01b03891684146139df565b630e0f7beb60e31b5f5260045ffd5b635ed4ba8f60e01b5f5260045ffd5b6301b6ee3960e71b5f526111f1826105fb565b60019060ff613c1583612ae5565b161c1690565b60019060ff613c15612b0d84612ae5565b60ff613c36612b2c565b1660188101809111611e695790565b62ffffff90613c52613c2c565b1c1664174876e80081029080820464174876e8001490151715611e695790565b613c7a613c2c565b60188101809111611e695790565b62ffffff90613c52613c72565b613c7a613c72565b64ffffffffff90613cac613c95565b1c1690565b613cb9613c95565b60288101809111611e695790565b63ffffffff90613cac613cb1565b60019060ff613ce9612b0d612b0d85612ae5565b161c161590565b60019060ff613c15612b0d612b0d612b0d86612ae5565b60019060ff613c15612af7565b60019060ff613c15612b0d612af7565b6001600160ff1b038111613d355790565b63123baf0360e11b5f5260045260245ffd5b908015613e19577f000000000000000000000000000000000000000000000000000000000000000091613d7a81846129e9565b8281019283125f8212908015821691151617611e695782613dcf57507f000000000000000000000000000000000000000000000000000000000000000092835c5f198101908111611e69576102ca945d614645565b15613dde575b6102ca92614645565b7f000000000000000000000000000000000000000000000000000000000000000092835c60018101809111611e69576102ca945d9250613dd5565b5050565b906001600160801b0382118015613e52575b613e435760801b908101809111611e695790565b6389560ca160e01b5f5260045ffd5b506001600160801b038111613e2f565b620f42408110613e6f5750565b6334e3483f60e21b5f5260045260245ffd5b613e8d6102ca92613d24565b90613d47565b613e9c81611d5a565b805490620f42408201809211611e695755613ec6613eb982611dd7565b5f805260205260405f2090565b620f4240815401905560018060a01b03165f80825f805160206147b983398151915260405180613efd8190620f4240602083019252565b0390a4803b156102b8575f60405180926323de665160e01b8252818381613f3a6004820190620f4240604060608401935f81525f60208201520152565b03925af1801561077d57613f4b5750565b80612d665f6102ca93610ebe565b6001600160a01b0382169290831561401657613f7e82613f7883611d5a565b54612c45565b613f8b846129e084611dd7565b838154019055613f9a81613e62565b613fa382611d5a565b5560018060a01b0316925f845f805160206147b983398151915260405180613fd087829190602083019252565b0390a4823b156102b8576040516323de665160e01b81525f600482018190526001600160a01b039093166024820152604481019190915291829081838160648101613f3a565b63ec442f0560e01b5f526111f1836105fb565b6102f19160ff61403f612b0d612b0d6001612ae5565b16916001831b1916911b1790565b6102f19160ff61403f612b0d612b0d612b0d6001612ae5565b6102f19160ff61403f612af7565b6102f19160ff61403f612b0d612af7565b5f9190825b81518410156141125761409d8483611fbf565b51906140a885612778565b906101008210156141035781610100036101008111611e69578060ff108160ff1802186005116141035760078360051c166140f457601f60ff60019416831b921b19161793019261408a565b63e4337c0560e01b5f5260045ffd5b632d0483c560e21b5f5260045ffd5b64ffffffffff16925050565b614126613c95565b916101008310156141035782610100036101008111611e69578060ff108160ff1802186028116141035764ffffffffff809116831b921b19161790565b61416b613cb1565b916101008310156141035782610100036101008111611e69578060ff108160ff1802186020116141035763ffffffff809116831b921b19161790565b90670de0b5cad2bef00081116141d1576102f19164174876e8006141c9613c2c565b920490614671565b6301d1b96560e61b5f5260045ffd5b90670de0b5cad2bef00081116141d1576102f19164174876e8006141c9613c72565b6102f19160ff61403f612b0d612b0d612b0d612af7565b6102f19160ff61403f612b0d612b0d612af7565b6102f19160ff61403f612b0d612b0d612b0d612b0d612af7565b6102f19160ff61403f612b0d612b0d612b0d612b0d612b0d612af7565b6102f19160ff61403f612b12565b6102f19160ff61403f612b0d612b12565b6102f19160ff61403f612b0d612b0d612b12565b6102f19160ff61403f612b0d612b0d612b0d612b12565b6102f19160ff61403f612b0d612b0d612b0d612b0d612b12565b6102f19160ff61403f612b0d612b0d612b0d612b0d612b0d612b12565b60405163ce20ece760e01b81526001600160a01b038216929190602081600481875afa90811561077d575f916143dd575b5082106143ce5760405163654cf15d60e01b8152602081600481875afa90811561077d575f916143af575b5082116143a057818161438a6143847f89d41522342fabac1471ca6073a5623e5caf367b03ca6e9a001478d0cf8be4a19561437e61439b96611dbe565b546146b2565b91611dbe565b556040519081529081906020820190565b0390a2565b637f47834b60e01b5f5260045ffd5b6143c8915060203d602011610776576107678183610ebe565b5f614341565b6317f640d160e31b5f5260045ffd5b6143f6915060203d602011610776576107678183610ebe565b5f614316565b6040519061016082016001600160401b03811183821017610e67576040525f610140838281528260208201528260408201528260608201528260808201528260a08201528260c08201528260e082015282610100820152826101208201520152565b906144676143fc565b50614471826146df565b9161447b816146f5565b9061448581614708565b9161448f82614721565b61449883614734565b916144a28461474a565b936144ac81614763565b956144b68261477f565b906144c08361479b565b926144ca906147a8565b936144d3610f0f565b9a15158b52151560208b0152151560408a01521515606089015215156080880152151560a0870152151560c0860152151560e0850152151561010084015215156101208301526001600160a01b031661014082015290565b928261453b836060870151611fbf565b526145458161037b565b6145cf576002915b61455b8260c0860151611fbf565b5161456a8360a0870151611fbf565b5193806001146145b05760021461458f57634e487b7160e01b5f52605160045260245ffd5b611fee936145a26145a79260809461278e565b612b76565b935b0151611fbf565b50611fee936145c46145c99260809461278e565b61465a565b936145a9565b60019161454d565b9093925f946145ea846080850151611fbf565b518181116145fa575b5050505050565b61463a959650614634939261462d926146139203612b76565b9360a06146248260c0860151611fbf565b51930151611fbf565b519061278e565b906127bf565b905f808080806145f3565b9060018060a01b03165f5260205260405f205d565b670de0b6b3a76400009161466d9161278e565b0490565b906101008310156141035782610100036101008111611e69578060ff108160ff180218601811614103578060181c6140f45762ffffff90831b921b19161790565b90670de0b5cad2bef00081116141d1576102f19164174876e80060ff6146d6612b2c565b16920490614671565b60019060ff613c15612b0d612b0d612b0d612af7565b60019060ff613c15612b0d612b0d612af7565b60019060ff613c15612b0d612b0d612b0d612b0d612af7565b60019060ff613c15612b0d612b0d612b12565b60019060ff613c15612b0d612b0d612b0d612b12565b60019060ff613c15612b0d612b0d612b0d612b0d612b12565b60019060ff613c15612b0d612b0d612b0d612b0d612b0d612b12565b60019060ff613c15612b0d612b0d612b0d612b0d612b0d612af7565b60019060ff613c15612b12565b60019060ff613c15612b0d612b1256fed1398bee19313d6bf672ccb116e51f4a1a947e91c757907f51fbb5b5e56c698fbc1561eeab9f40962e2fb827a7ff9c7cdb47a9d7c84caeefa4ed90e043842dad9b779b17422d0df92223018b32b4d1fa46e071723d6817e2486d003becc55f00a26469706673582212201ce4cdef5a4648ae41c77ce9e83c2be9860eeb9922ac15adc0c660700fc7769264736f6c634300081a0033",
  "linkReferences": {},
  "deployedLinkReferences": {}
}