{
  "_format": "hh-sol-artifact-1",
  "contractName": "FactoryWidePauseWindow",
  "sourceName": "contracts/FactoryWidePauseWindow.sol",
  "abi": [
    {
      "inputs": [
        {
          "internalType": "uint32",
          "name": "pauseWindowDuration",
          "type": "uint32"
        }
      ],
      "stateMutability": "nonpayable",
      "type": "constructor"
    },
    {
      "inputs": [],
      "name": "PoolPauseWindowDurationOverflow",
      "type": "error"
    },
    {
      "inputs": [],
      "name": "getNewPoolPauseWindowEndTime",
      "outputs": [
        {
          "internalType": "uint32",
          "name": "",
          "type": "uint32"
        }
      ],
      "stateMutability": "view",
      "type": "function"
    },
    {
      "inputs": [],
      "name": "getOriginalPauseWindowEndTime",
      "outputs": [
        {
          "internalType": "uint32",
          "name": "",
          "type": "uint32"
        }
      ],
      "stateMutability": "view",
      "type": "function"
    },
    {
      "inputs": [],
      "name": "getPauseWindowDuration",
      "outputs": [
        {
          "internalType": "uint32",
          "name": "",
          "type": "uint32"
        }
      ],
      "stateMutability": "view",
      "type": "function"
    }
  ],
  "bytecode": "0x60c0346100b657601f61021e38819003918201601f19168301916001600160401b038311848410176100ba578084926020946040528339810103126100b6575163ffffffff81168082036100b65742018042116100a25763ffffffff81116100935763ffffffff916080521660a05260405161014f90816100cf82396080518160f5015260a0518181816059015260930152f35b6368755a1160e01b5f5260045ffd5b634e487b7160e01b5f52601160045260245ffd5b5f80fd5b634e487b7160e01b5f52604160045260245ffdfe6080806040526004361015610012575f80fd5b5f3560e01c90816378da80cb146100db57508063db035ebc146100815763e9d56e191461003d575f80fd5b3461007d575f36600319011261007d57602060405163ffffffff7f0000000000000000000000000000000000000000000000000000000000000000168152f35b5f80fd5b3461007d575f36600319011261007d577f000000000000000000000000000000000000000000000000000000000000000063ffffffff81164210156100d2576020905b63ffffffff60405191168152f35b5060205f6100c4565b3461007d575f36600319011261007d5760209063ffffffff7f0000000000000000000000000000000000000000000000000000000000000000168152f3fea264697066735822122086d5feddae82bb4f79bd1cb1f0c5fea9e76016a6db332ecde99094cbd179c27e64736f6c634300081a0033",
  "linkReferences": {},
  "deployedLinkReferences": {}
}