{
  "_format": "hh-sol-artifact-1",
  "contractName": "FactoryWidePauseWindow",
  "sourceName": "contracts/FactoryWidePauseWindow.sol",
  "abi": [
    {
      "inputs": [
        {
          "internalType": "uint32",
          "name": "pauseWindowDuration",
          "type": "uint32"
        }
      ],
      "stateMutability": "nonpayable",
      "type": "constructor"
    },
    {
      "inputs": [],
      "name": "PoolPauseWindowDurationOverflow",
      "type": "error"
    },
    {
      "inputs": [],
      "name": "getNewPoolPauseWindowEndTime",
      "outputs": [
        {
          "internalType": "uint32",
          "name": "",
          "type": "uint32"
        }
      ],
      "stateMutability": "view",
      "type": "function"
    },
    {
      "inputs": [],
      "name": "getOriginalPauseWindowEndTime",
      "outputs": [
        {
          "internalType": "uint32",
          "name": "",
          "type": "uint32"
        }
      ],
      "stateMutability": "view",
      "type": "function"
    },
    {
      "inputs": [],
      "name": "getPauseWindowDuration",
      "outputs": [
        {
          "internalType": "uint32",
          "name": "",
          "type": "uint32"
        }
      ],
      "stateMutability": "view",
      "type": "function"
    }
  ],
  "bytecode": "0x60c0346100ba57601f61022d38819003918201601f19168301916001600160401b038311848410176100bf578084926020946040528339810103126100ba575163ffffffff81168082036100ba5742018042116100a45763ffffffff81116100935763ffffffff916080521660a05260405161015790816100d682396080518160fd015260a051818181605d015260990152f35b6368755a1160e01b60005260046000fd5b634e487b7160e01b600052601160045260246000fd5b600080fd5b634e487b7160e01b600052604160045260246000fdfe608080604052600436101561001357600080fd5b60003560e01c90816378da80cb146100e257508063db035ebc146100865763e9d56e191461004057600080fd5b3461008157600036600319011261008157602060405163ffffffff7f0000000000000000000000000000000000000000000000000000000000000000168152f35b600080fd5b34610081576000366003190112610081577f000000000000000000000000000000000000000000000000000000000000000063ffffffff81164210156100d8576020905b63ffffffff60405191168152f35b50602060006100ca565b346100815760003660031901126100815760209063ffffffff7f0000000000000000000000000000000000000000000000000000000000000000168152f3fea2646970667358221220f87cf5eff05c56f965ae0c83868fdc42b2c48f2c9c23f933c1a85bd74a07ac5664736f6c634300081a0033",
  "linkReferences": {},
  "deployedLinkReferences": {}
}