{
  "_format": "hh-sol-artifact-1",
  "contractName": "VaultStateLib",
  "sourceName": "contracts/VaultStateLib.sol",
  "abi": [
    {
      "inputs": [],
      "name": "BUFFER_PAUSED_OFFSET",
      "outputs": [
        {
          "internalType": "uint256",
          "name": "",
          "type": "uint256"
        }
      ],
      "stateMutability": "view",
      "type": "function"
    },
    {
      "inputs": [],
      "name": "QUERY_DISABLED_OFFSET",
      "outputs": [
        {
          "internalType": "uint256",
          "name": "",
          "type": "uint256"
        }
      ],
      "stateMutability": "view",
      "type": "function"
    },
    {
      "inputs": [],
      "name": "VAULT_PAUSED_OFFSET",
      "outputs": [
        {
          "internalType": "uint256",
          "name": "",
          "type": "uint256"
        }
      ],
      "stateMutability": "view",
      "type": "function"
    }
  ],
  "bytecode": "0x6080806040523460175760b69081601d823930815050f35b600080fdfe60806040526004361015601157600080fd5b6000803560e01c8063227e492d1460695780632577aa901460525763434e60ca14603a57600080fd5b80600319360112604f57602090604051908152f35b80fd5b5080600319360112604f5750602060405160018152f35b5080600319360112604f5750602060405160028152f3fea26469706673582212206f05de2076acb7b776cb4a24dc63b1939b4fdc0c59a3899b6d8af36509576b3264736f6c634300081a0033",
  "linkReferences": {},
  "deployedLinkReferences": {}
}