{
  "_format": "hh-sol-artifact-1",
  "contractName": "StableMath",
  "sourceName": "contracts/StableMath.sol",
  "abi": [
    {
      "inputs": [],
      "name": "StableComputeBalanceDidNotConverge",
      "type": "error"
    },
    {
      "inputs": [],
      "name": "StableInvariantDidNotConverge",
      "type": "error"
    },
    {
      "inputs": [],
      "name": "MAX_STABLE_TOKENS",
      "outputs": [
        {
          "internalType": "uint256",
          "name": "",
          "type": "uint256"
        }
      ],
      "stateMutability": "view",
      "type": "function"
    }
  ],
  "bytecode": "0x6080806040523460175760759081601d823930815050f35b600080fdfe6080806040526004361015601257600080fd5b60003560e01c631551cee714602657600080fd5b6000366003190112603a5780600560209252f35b600080fdfea264697066735822122095352f0e9cc9f176bfafd527cfdb64640f3a92434d33716e113815401d8a91ca64736f6c634300081a0033",
  "linkReferences": {},
  "deployedLinkReferences": {}
}