{
  "_format": "hh-sol-artifact-1",
  "contractName": "StableMath",
  "sourceName": "contracts/StableMath.sol",
  "abi": [
    {
      "inputs": [],
      "name": "StableComputeBalanceDidNotConverge",
      "type": "error"
    },
    {
      "inputs": [],
      "name": "StableInvariantDidNotConverge",
      "type": "error"
    },
    {
      "inputs": [],
      "name": "MAX_STABLE_TOKENS",
      "outputs": [
        {
          "internalType": "uint256",
          "name": "",
          "type": "uint256"
        }
      ],
      "stateMutability": "view",
      "type": "function"
    }
  ],
  "bytecode": "0x6080806040523460175760709081601c823930815050f35b5f80fdfe60808060405260043610156011575f80fd5b5f3560e01c631551cee7146023575f80fd5b5f36600319011260365780600560209252f35b5f80fdfea264697066735822122083d19373dec26f5307c65e4dc7878c00055ab221d7ab50321c26da3c4202dfa464736f6c634300081a0033",
  "linkReferences": {},
  "deployedLinkReferences": {}
}