{
  "_format": "hh-sol-artifact-1",
  "contractName": "Vault",
  "sourceName": "contracts/_Vault.sol",
  "abi": [
    {
      "inputs": [
        {
          "internalType": "contract IVaultExtension",
          "name": "vaultExtension",
          "type": "address"
        },
        {
          "internalType": "contract IAuthorizer",
          "name": "authorizer",
          "type": "address"
        },
        {
          "internalType": "contract IProtocolFeeController",
          "name": "protocolFeeController",
          "type": "address"
        }
      ],
      "stateMutability": "nonpayable",
      "type": "constructor"
    },
    {
      "inputs": [
        {
          "internalType": "address",
          "name": "target",
          "type": "address"
        }
      ],
      "name": "AddressEmptyCode",
      "type": "error"
    },
    {
      "inputs": [],
      "name": "AfterAddLiquidityHookFailed",
      "type": "error"
    },
    {
      "inputs": [],
      "name": "AfterInitializeHookFailed",
      "type": "error"
    },
    {
      "inputs": [],
      "name": "AfterRemoveLiquidityHookFailed",
      "type": "error"
    },
    {
      "inputs": [],
      "name": "AfterSwapHookFailed",
      "type": "error"
    },
    {
      "inputs": [],
      "name": "AllZeroInputs",
      "type": "error"
    },
    {
      "inputs": [],
      "name": "AmountGivenZero",
      "type": "error"
    },
    {
      "inputs": [
        {
          "internalType": "contract IERC20",
          "name": "tokenIn",
          "type": "address"
        },
        {
          "internalType": "uint256",
          "name": "amountIn",
          "type": "uint256"
        },
        {
          "internalType": "uint256",
          "name": "maxAmountIn",
          "type": "uint256"
        }
      ],
      "name": "AmountInAboveMax",
      "type": "error"
    },
    {
      "inputs": [
        {
          "internalType": "contract IERC20",
          "name": "tokenOut",
          "type": "address"
        },
        {
          "internalType": "uint256",
          "name": "amountOut",
          "type": "uint256"
        },
        {
          "internalType": "uint256",
          "name": "minAmountOut",
          "type": "uint256"
        }
      ],
      "name": "AmountOutBelowMin",
      "type": "error"
    },
    {
      "inputs": [],
      "name": "BalanceNotSettled",
      "type": "error"
    },
    {
      "inputs": [],
      "name": "BalanceOverflow",
      "type": "error"
    },
    {
      "inputs": [],
      "name": "BeforeAddLiquidityHookFailed",
      "type": "error"
    },
    {
      "inputs": [],
      "name": "BeforeInitializeHookFailed",
      "type": "error"
    },
    {
      "inputs": [],
      "name": "BeforeRemoveLiquidityHookFailed",
      "type": "error"
    },
    {
      "inputs": [],
      "name": "BeforeSwapHookFailed",
      "type": "error"
    },
    {
      "inputs": [
        {
          "internalType": "uint256",
          "name": "amountIn",
          "type": "uint256"
        },
        {
          "internalType": "uint256",
          "name": "maxAmountIn",
          "type": "uint256"
        }
      ],
      "name": "BptAmountInAboveMax",
      "type": "error"
    },
    {
      "inputs": [
        {
          "internalType": "uint256",
          "name": "amountOut",
          "type": "uint256"
        },
        {
          "internalType": "uint256",
          "name": "minAmountOut",
          "type": "uint256"
        }
      ],
      "name": "BptAmountOutBelowMin",
      "type": "error"
    },
    {
      "inputs": [
        {
          "internalType": "contract IERC4626",
          "name": "wrappedToken",
          "type": "address"
        }
      ],
      "name": "BufferAlreadyInitialized",
      "type": "error"
    },
    {
      "inputs": [
        {
          "internalType": "contract IERC4626",
          "name": "wrappedToken",
          "type": "address"
        }
      ],
      "name": "BufferNotInitialized",
      "type": "error"
    },
    {
      "inputs": [],
      "name": "BufferSharesInvalidOwner",
      "type": "error"
    },
    {
      "inputs": [],
      "name": "BufferSharesInvalidReceiver",
      "type": "error"
    },
    {
      "inputs": [
        {
          "internalType": "uint256",
          "name": "totalSupply",
          "type": "uint256"
        }
      ],
      "name": "BufferTotalSupplyTooLow",
      "type": "error"
    },
    {
      "inputs": [],
      "name": "CannotReceiveEth",
      "type": "error"
    },
    {
      "inputs": [],
      "name": "CannotSwapSameToken",
      "type": "error"
    },
    {
      "inputs": [],
      "name": "DoesNotSupportAddLiquidityCustom",
      "type": "error"
    },
    {
      "inputs": [],
      "name": "DoesNotSupportDonation",
      "type": "error"
    },
    {
      "inputs": [],
      "name": "DoesNotSupportRemoveLiquidityCustom",
      "type": "error"
    },
    {
      "inputs": [],
      "name": "DoesNotSupportUnbalancedLiquidity",
      "type": "error"
    },
    {
      "inputs": [],
      "name": "DynamicSwapFeeHookFailed",
      "type": "error"
    },
    {
      "inputs": [
        {
          "internalType": "address",
          "name": "spender",
          "type": "address"
        },
        {
          "internalType": "uint256",
          "name": "allowance",
          "type": "uint256"
        },
        {
          "internalType": "uint256",
          "name": "needed",
          "type": "uint256"
        }
      ],
      "name": "ERC20InsufficientAllowance",
      "type": "error"
    },
    {
      "inputs": [
        {
          "internalType": "address",
          "name": "sender",
          "type": "address"
        },
        {
          "internalType": "uint256",
          "name": "balance",
          "type": "uint256"
        },
        {
          "internalType": "uint256",
          "name": "needed",
          "type": "uint256"
        }
      ],
      "name": "ERC20InsufficientBalance",
      "type": "error"
    },
    {
      "inputs": [
        {
          "internalType": "address",
          "name": "approver",
          "type": "address"
        }
      ],
      "name": "ERC20InvalidApprover",
      "type": "error"
    },
    {
      "inputs": [
        {
          "internalType": "address",
          "name": "receiver",
          "type": "address"
        }
      ],
      "name": "ERC20InvalidReceiver",
      "type": "error"
    },
    {
      "inputs": [
        {
          "internalType": "address",
          "name": "sender",
          "type": "address"
        }
      ],
      "name": "ERC20InvalidSender",
      "type": "error"
    },
    {
      "inputs": [
        {
          "internalType": "address",
          "name": "spender",
          "type": "address"
        }
      ],
      "name": "ERC20InvalidSpender",
      "type": "error"
    },
    {
      "inputs": [],
      "name": "FailedCall",
      "type": "error"
    },
    {
      "inputs": [],
      "name": "FeePrecisionTooHigh",
      "type": "error"
    },
    {
      "inputs": [
        {
          "internalType": "contract IERC20",
          "name": "tokenIn",
          "type": "address"
        },
        {
          "internalType": "uint256",
          "name": "amountIn",
          "type": "uint256"
        },
        {
          "internalType": "uint256",
          "name": "maxAmountIn",
          "type": "uint256"
        }
      ],
      "name": "HookAdjustedAmountInAboveMax",
      "type": "error"
    },
    {
      "inputs": [
        {
          "internalType": "contract IERC20",
          "name": "tokenOut",
          "type": "address"
        },
        {
          "internalType": "uint256",
          "name": "amountOut",
          "type": "uint256"
        },
        {
          "internalType": "uint256",
          "name": "minAmountOut",
          "type": "uint256"
        }
      ],
      "name": "HookAdjustedAmountOutBelowMin",
      "type": "error"
    },
    {
      "inputs": [
        {
          "internalType": "uint256",
          "name": "amount",
          "type": "uint256"
        },
        {
          "internalType": "uint256",
          "name": "limit",
          "type": "uint256"
        }
      ],
      "name": "HookAdjustedSwapLimit",
      "type": "error"
    },
    {
      "inputs": [
        {
          "internalType": "address",
          "name": "poolHooksContract",
          "type": "address"
        },
        {
          "internalType": "address",
          "name": "pool",
          "type": "address"
        },
        {
          "internalType": "address",
          "name": "poolFactory",
          "type": "address"
        }
      ],
      "name": "HookRegistrationFailed",
      "type": "error"
    },
    {
      "inputs": [],
      "name": "InputLengthMismatch",
      "type": "error"
    },
    {
      "inputs": [
        {
          "internalType": "uint256",
          "name": "balance",
          "type": "uint256"
        },
        {
          "internalType": "uint256",
          "name": "needed",
          "type": "uint256"
        }
      ],
      "name": "InsufficientBalance",
      "type": "error"
    },
    {
      "inputs": [],
      "name": "InvalidAddLiquidityKind",
      "type": "error"
    },
    {
      "inputs": [],
      "name": "InvalidRemoveLiquidityKind",
      "type": "error"
    },
    {
      "inputs": [],
      "name": "InvalidToken",
      "type": "error"
    },
    {
      "inputs": [],
      "name": "InvalidTokenConfiguration",
      "type": "error"
    },
    {
      "inputs": [],
      "name": "InvalidTokenDecimals",
      "type": "error"
    },
    {
      "inputs": [],
      "name": "InvalidTokenType",
      "type": "error"
    },
    {
      "inputs": [
        {
          "internalType": "contract IERC4626",
          "name": "wrappedToken",
          "type": "address"
        }
      ],
      "name": "InvalidUnderlyingToken",
      "type": "error"
    },
    {
      "inputs": [
        {
          "internalType": "uint256",
          "name": "invariantRatio",
          "type": "uint256"
        },
        {
          "internalType": "uint256",
          "name": "maxInvariantRatio",
          "type": "uint256"
        }
      ],
      "name": "InvariantRatioAboveMax",
      "type": "error"
    },
    {
      "inputs": [
        {
          "internalType": "uint256",
          "name": "invariantRatio",
          "type": "uint256"
        },
        {
          "internalType": "uint256",
          "name": "minInvariantRatio",
          "type": "uint256"
        }
      ],
      "name": "InvariantRatioBelowMin",
      "type": "error"
    },
    {
      "inputs": [
        {
          "internalType": "uint256",
          "name": "issuedShares",
          "type": "uint256"
        },
        {
          "internalType": "uint256",
          "name": "minIssuedShares",
          "type": "uint256"
        }
      ],
      "name": "IssuedSharesBelowMin",
      "type": "error"
    },
    {
      "inputs": [],
      "name": "MaxTokens",
      "type": "error"
    },
    {
      "inputs": [],
      "name": "MinTokens",
      "type": "error"
    },
    {
      "inputs": [],
      "name": "MultipleNonZeroInputs",
      "type": "error"
    },
    {
      "inputs": [],
      "name": "NotEnoughBufferShares",
      "type": "error"
    },
    {
      "inputs": [
        {
          "internalType": "contract IERC4626",
          "name": "wrappedToken",
          "type": "address"
        },
        {
          "internalType": "uint256",
          "name": "expectedUnderlyingAmount",
          "type": "uint256"
        },
        {
          "internalType": "uint256",
          "name": "actualUnderlyingAmount",
          "type": "uint256"
        }
      ],
      "name": "NotEnoughUnderlying",
      "type": "error"
    },
    {
      "inputs": [
        {
          "internalType": "contract IERC4626",
          "name": "wrappedToken",
          "type": "address"
        },
        {
          "internalType": "uint256",
          "name": "expectedWrappedAmount",
          "type": "uint256"
        },
        {
          "internalType": "uint256",
          "name": "actualWrappedAmount",
          "type": "uint256"
        }
      ],
      "name": "NotEnoughWrapped",
      "type": "error"
    },
    {
      "inputs": [],
      "name": "NotStaticCall",
      "type": "error"
    },
    {
      "inputs": [],
      "name": "NotVaultDelegateCall",
      "type": "error"
    },
    {
      "inputs": [],
      "name": "PauseBufferPeriodDurationTooLarge",
      "type": "error"
    },
    {
      "inputs": [],
      "name": "PercentageAboveMax",
      "type": "error"
    },
    {
      "inputs": [
        {
          "internalType": "address",
          "name": "pool",
          "type": "address"
        }
      ],
      "name": "PoolAlreadyInitialized",
      "type": "error"
    },
    {
      "inputs": [
        {
          "internalType": "address",
          "name": "pool",
          "type": "address"
        }
      ],
      "name": "PoolAlreadyRegistered",
      "type": "error"
    },
    {
      "inputs": [
        {
          "internalType": "address",
          "name": "pool",
          "type": "address"
        }
      ],
      "name": "PoolInRecoveryMode",
      "type": "error"
    },
    {
      "inputs": [
        {
          "internalType": "address",
          "name": "pool",
          "type": "address"
        }
      ],
      "name": "PoolNotInRecoveryMode",
      "type": "error"
    },
    {
      "inputs": [
        {
          "internalType": "address",
          "name": "pool",
          "type": "address"
        }
      ],
      "name": "PoolNotInitialized",
      "type": "error"
    },
    {
      "inputs": [
        {
          "internalType": "address",
          "name": "pool",
          "type": "address"
        }
      ],
      "name": "PoolNotPaused",
      "type": "error"
    },
    {
      "inputs": [
        {
          "internalType": "address",
          "name": "pool",
          "type": "address"
        }
      ],
      "name": "PoolNotRegistered",
      "type": "error"
    },
    {
      "inputs": [
        {
          "internalType": "address",
          "name": "pool",
          "type": "address"
        }
      ],
      "name": "PoolPauseWindowExpired",
      "type": "error"
    },
    {
      "inputs": [
        {
          "internalType": "address",
          "name": "pool",
          "type": "address"
        }
      ],
      "name": "PoolPaused",
      "type": "error"
    },
    {
      "inputs": [
        {
          "internalType": "uint256",
          "name": "totalSupply",
          "type": "uint256"
        }
      ],
      "name": "PoolTotalSupplyTooLow",
      "type": "error"
    },
    {
      "inputs": [],
      "name": "ProtocolFeesExceedTotalCollected",
      "type": "error"
    },
    {
      "inputs": [],
      "name": "QueriesDisabled",
      "type": "error"
    },
    {
      "inputs": [],
      "name": "QueriesDisabledPermanently",
      "type": "error"
    },
    {
      "inputs": [],
      "name": "QuoteResultSpoofed",
      "type": "error"
    },
    {
      "inputs": [],
      "name": "ReentrancyGuardReentrantCall",
      "type": "error"
    },
    {
      "inputs": [],
      "name": "RouterNotTrusted",
      "type": "error"
    },
    {
      "inputs": [
        {
          "internalType": "int256",
          "name": "value",
          "type": "int256"
        }
      ],
      "name": "SafeCastOverflowedIntToUint",
      "type": "error"
    },
    {
      "inputs": [
        {
          "internalType": "uint256",
          "name": "value",
          "type": "uint256"
        }
      ],
      "name": "SafeCastOverflowedUintToInt",
      "type": "error"
    },
    {
      "inputs": [
        {
          "internalType": "address",
          "name": "token",
          "type": "address"
        }
      ],
      "name": "SafeERC20FailedOperation",
      "type": "error"
    },
    {
      "inputs": [
        {
          "internalType": "address",
          "name": "sender",
          "type": "address"
        }
      ],
      "name": "SenderIsNotVault",
      "type": "error"
    },
    {
      "inputs": [],
      "name": "SwapFeePercentageTooHigh",
      "type": "error"
    },
    {
      "inputs": [],
      "name": "SwapFeePercentageTooLow",
      "type": "error"
    },
    {
      "inputs": [
        {
          "internalType": "uint256",
          "name": "amount",
          "type": "uint256"
        },
        {
          "internalType": "uint256",
          "name": "limit",
          "type": "uint256"
        }
      ],
      "name": "SwapLimit",
      "type": "error"
    },
    {
      "inputs": [
        {
          "internalType": "contract IERC20",
          "name": "token",
          "type": "address"
        }
      ],
      "name": "TokenAlreadyRegistered",
      "type": "error"
    },
    {
      "inputs": [
        {
          "internalType": "contract IERC20",
          "name": "token",
          "type": "address"
        }
      ],
      "name": "TokenNotRegistered",
      "type": "error"
    },
    {
      "inputs": [
        {
          "internalType": "address",
          "name": "pool",
          "type": "address"
        },
        {
          "internalType": "address",
          "name": "expectedToken",
          "type": "address"
        },
        {
          "internalType": "address",
          "name": "actualToken",
          "type": "address"
        }
      ],
      "name": "TokensMismatch",
      "type": "error"
    },
    {
      "inputs": [],
      "name": "TradeAmountTooSmall",
      "type": "error"
    },
    {
      "inputs": [],
      "name": "VaultBuffersArePaused",
      "type": "error"
    },
    {
      "inputs": [],
      "name": "VaultIsNotUnlocked",
      "type": "error"
    },
    {
      "inputs": [],
      "name": "VaultNotPaused",
      "type": "error"
    },
    {
      "inputs": [],
      "name": "VaultPauseWindowDurationTooLarge",
      "type": "error"
    },
    {
      "inputs": [],
      "name": "VaultPauseWindowExpired",
      "type": "error"
    },
    {
      "inputs": [],
      "name": "VaultPaused",
      "type": "error"
    },
    {
      "inputs": [
        {
          "internalType": "contract IERC4626",
          "name": "wrappedToken",
          "type": "address"
        }
      ],
      "name": "WrapAmountTooSmall",
      "type": "error"
    },
    {
      "inputs": [],
      "name": "WrongProtocolFeeControllerDeployment",
      "type": "error"
    },
    {
      "inputs": [
        {
          "internalType": "contract IERC4626",
          "name": "wrappedToken",
          "type": "address"
        },
        {
          "internalType": "address",
          "name": "underlyingToken",
          "type": "address"
        }
      ],
      "name": "WrongUnderlyingToken",
      "type": "error"
    },
    {
      "inputs": [],
      "name": "WrongVaultAdminDeployment",
      "type": "error"
    },
    {
      "inputs": [],
      "name": "WrongVaultExtensionDeployment",
      "type": "error"
    },
    {
      "inputs": [],
      "name": "ZeroDivision",
      "type": "error"
    },
    {
      "anonymous": false,
      "inputs": [
        {
          "indexed": true,
          "internalType": "address",
          "name": "pool",
          "type": "address"
        },
        {
          "indexed": false,
          "internalType": "uint256",
          "name": "aggregateSwapFeePercentage",
          "type": "uint256"
        }
      ],
      "name": "AggregateSwapFeePercentageChanged",
      "type": "event"
    },
    {
      "anonymous": false,
      "inputs": [
        {
          "indexed": true,
          "internalType": "address",
          "name": "pool",
          "type": "address"
        },
        {
          "indexed": false,
          "internalType": "uint256",
          "name": "aggregateYieldFeePercentage",
          "type": "uint256"
        }
      ],
      "name": "AggregateYieldFeePercentageChanged",
      "type": "event"
    },
    {
      "anonymous": false,
      "inputs": [
        {
          "indexed": true,
          "internalType": "address",
          "name": "pool",
          "type": "address"
        },
        {
          "indexed": true,
          "internalType": "address",
          "name": "owner",
          "type": "address"
        },
        {
          "indexed": true,
          "internalType": "address",
          "name": "spender",
          "type": "address"
        },
        {
          "indexed": false,
          "internalType": "uint256",
          "name": "value",
          "type": "uint256"
        }
      ],
      "name": "Approval",
      "type": "event"
    },
    {
      "anonymous": false,
      "inputs": [
        {
          "indexed": true,
          "internalType": "contract IAuthorizer",
          "name": "newAuthorizer",
          "type": "address"
        }
      ],
      "name": "AuthorizerChanged",
      "type": "event"
    },
    {
      "anonymous": false,
      "inputs": [
        {
          "indexed": true,
          "internalType": "contract IERC4626",
          "name": "wrappedToken",
          "type": "address"
        },
        {
          "indexed": true,
          "internalType": "address",
          "name": "from",
          "type": "address"
        },
        {
          "indexed": false,
          "internalType": "uint256",
          "name": "burnedShares",
          "type": "uint256"
        }
      ],
      "name": "BufferSharesBurned",
      "type": "event"
    },
    {
      "anonymous": false,
      "inputs": [
        {
          "indexed": true,
          "internalType": "contract IERC4626",
          "name": "wrappedToken",
          "type": "address"
        },
        {
          "indexed": true,
          "internalType": "address",
          "name": "to",
          "type": "address"
        },
        {
          "indexed": false,
          "internalType": "uint256",
          "name": "issuedShares",
          "type": "uint256"
        }
      ],
      "name": "BufferSharesMinted",
      "type": "event"
    },
    {
      "anonymous": false,
      "inputs": [
        {
          "indexed": true,
          "internalType": "address",
          "name": "pool",
          "type": "address"
        },
        {
          "indexed": true,
          "internalType": "address",
          "name": "liquidityProvider",
          "type": "address"
        },
        {
          "indexed": true,
          "internalType": "enum AddLiquidityKind",
          "name": "kind",
          "type": "uint8"
        },
        {
          "indexed": false,
          "internalType": "uint256",
          "name": "totalSupply",
          "type": "uint256"
        },
        {
          "indexed": false,
          "internalType": "uint256[]",
          "name": "amountsAddedRaw",
          "type": "uint256[]"
        },
        {
          "indexed": false,
          "internalType": "uint256[]",
          "name": "swapFeeAmountsRaw",
          "type": "uint256[]"
        }
      ],
      "name": "LiquidityAdded",
      "type": "event"
    },
    {
      "anonymous": false,
      "inputs": [
        {
          "indexed": true,
          "internalType": "contract IERC4626",
          "name": "wrappedToken",
          "type": "address"
        },
        {
          "indexed": false,
          "internalType": "uint256",
          "name": "amountUnderlying",
          "type": "uint256"
        },
        {
          "indexed": false,
          "internalType": "uint256",
          "name": "amountWrapped",
          "type": "uint256"
        },
        {
          "indexed": false,
          "internalType": "bytes32",
          "name": "bufferBalances",
          "type": "bytes32"
        }
      ],
      "name": "LiquidityAddedToBuffer",
      "type": "event"
    },
    {
      "anonymous": false,
      "inputs": [
        {
          "indexed": true,
          "internalType": "address",
          "name": "pool",
          "type": "address"
        },
        {
          "indexed": true,
          "internalType": "address",
          "name": "liquidityProvider",
          "type": "address"
        },
        {
          "indexed": true,
          "internalType": "enum RemoveLiquidityKind",
          "name": "kind",
          "type": "uint8"
        },
        {
          "indexed": false,
          "internalType": "uint256",
          "name": "totalSupply",
          "type": "uint256"
        },
        {
          "indexed": false,
          "internalType": "uint256[]",
          "name": "amountsRemovedRaw",
          "type": "uint256[]"
        },
        {
          "indexed": false,
          "internalType": "uint256[]",
          "name": "swapFeeAmountsRaw",
          "type": "uint256[]"
        }
      ],
      "name": "LiquidityRemoved",
      "type": "event"
    },
    {
      "anonymous": false,
      "inputs": [
        {
          "indexed": true,
          "internalType": "contract IERC4626",
          "name": "wrappedToken",
          "type": "address"
        },
        {
          "indexed": false,
          "internalType": "uint256",
          "name": "amountUnderlying",
          "type": "uint256"
        },
        {
          "indexed": false,
          "internalType": "uint256",
          "name": "amountWrapped",
          "type": "uint256"
        },
        {
          "indexed": false,
          "internalType": "bytes32",
          "name": "bufferBalances",
          "type": "bytes32"
        }
      ],
      "name": "LiquidityRemovedFromBuffer",
      "type": "event"
    },
    {
      "anonymous": false,
      "inputs": [
        {
          "indexed": true,
          "internalType": "address",
          "name": "pool",
          "type": "address"
        }
      ],
      "name": "PoolInitialized",
      "type": "event"
    },
    {
      "anonymous": false,
      "inputs": [
        {
          "indexed": true,
          "internalType": "address",
          "name": "pool",
          "type": "address"
        },
        {
          "indexed": false,
          "internalType": "bool",
          "name": "paused",
          "type": "bool"
        }
      ],
      "name": "PoolPausedStateChanged",
      "type": "event"
    },
    {
      "anonymous": false,
      "inputs": [
        {
          "indexed": true,
          "internalType": "address",
          "name": "pool",
          "type": "address"
        },
        {
          "indexed": false,
          "internalType": "bool",
          "name": "recoveryMode",
          "type": "bool"
        }
      ],
      "name": "PoolRecoveryModeStateChanged",
      "type": "event"
    },
    {
      "anonymous": false,
      "inputs": [
        {
          "indexed": true,
          "internalType": "address",
          "name": "pool",
          "type": "address"
        },
        {
          "indexed": true,
          "internalType": "address",
          "name": "factory",
          "type": "address"
        },
        {
          "components": [
            {
              "internalType": "contract IERC20",
              "name": "token",
              "type": "address"
            },
            {
              "internalType": "enum TokenType",
              "name": "tokenType",
              "type": "uint8"
            },
            {
              "internalType": "contract IRateProvider",
              "name": "rateProvider",
              "type": "address"
            },
            {
              "internalType": "bool",
              "name": "paysYieldFees",
              "type": "bool"
            }
          ],
          "indexed": false,
          "internalType": "struct TokenConfig[]",
          "name": "tokenConfig",
          "type": "tuple[]"
        },
        {
          "indexed": false,
          "internalType": "uint256",
          "name": "swapFeePercentage",
          "type": "uint256"
        },
        {
          "indexed": false,
          "internalType": "uint32",
          "name": "pauseWindowEndTime",
          "type": "uint32"
        },
        {
          "components": [
            {
              "internalType": "address",
              "name": "pauseManager",
              "type": "address"
            },
            {
              "internalType": "address",
              "name": "swapFeeManager",
              "type": "address"
            },
            {
              "internalType": "address",
              "name": "poolCreator",
              "type": "address"
            }
          ],
          "indexed": false,
          "internalType": "struct PoolRoleAccounts",
          "name": "roleAccounts",
          "type": "tuple"
        },
        {
          "components": [
            {
              "internalType": "bool",
              "name": "enableHookAdjustedAmounts",
              "type": "bool"
            },
            {
              "internalType": "bool",
              "name": "shouldCallBeforeInitialize",
              "type": "bool"
            },
            {
              "internalType": "bool",
              "name": "shouldCallAfterInitialize",
              "type": "bool"
            },
            {
              "internalType": "bool",
              "name": "shouldCallComputeDynamicSwapFee",
              "type": "bool"
            },
            {
              "internalType": "bool",
              "name": "shouldCallBeforeSwap",
              "type": "bool"
            },
            {
              "internalType": "bool",
              "name": "shouldCallAfterSwap",
              "type": "bool"
            },
            {
              "internalType": "bool",
              "name": "shouldCallBeforeAddLiquidity",
              "type": "bool"
            },
            {
              "internalType": "bool",
              "name": "shouldCallAfterAddLiquidity",
              "type": "bool"
            },
            {
              "internalType": "bool",
              "name": "shouldCallBeforeRemoveLiquidity",
              "type": "bool"
            },
            {
              "internalType": "bool",
              "name": "shouldCallAfterRemoveLiquidity",
              "type": "bool"
            },
            {
              "internalType": "address",
              "name": "hooksContract",
              "type": "address"
            }
          ],
          "indexed": false,
          "internalType": "struct HooksConfig",
          "name": "hooksConfig",
          "type": "tuple"
        },
        {
          "components": [
            {
              "internalType": "bool",
              "name": "disableUnbalancedLiquidity",
              "type": "bool"
            },
            {
              "internalType": "bool",
              "name": "enableAddLiquidityCustom",
              "type": "bool"
            },
            {
              "internalType": "bool",
              "name": "enableRemoveLiquidityCustom",
              "type": "bool"
            },
            {
              "internalType": "bool",
              "name": "enableDonation",
              "type": "bool"
            }
          ],
          "indexed": false,
          "internalType": "struct LiquidityManagement",
          "name": "liquidityManagement",
          "type": "tuple"
        }
      ],
      "name": "PoolRegistered",
      "type": "event"
    },
    {
      "anonymous": false,
      "inputs": [
        {
          "indexed": true,
          "internalType": "contract IProtocolFeeController",
          "name": "newProtocolFeeController",
          "type": "address"
        }
      ],
      "name": "ProtocolFeeControllerChanged",
      "type": "event"
    },
    {
      "anonymous": false,
      "inputs": [
        {
          "indexed": true,
          "internalType": "address",
          "name": "pool",
          "type": "address"
        },
        {
          "indexed": true,
          "internalType": "contract IERC20",
          "name": "tokenIn",
          "type": "address"
        },
        {
          "indexed": true,
          "internalType": "contract IERC20",
          "name": "tokenOut",
          "type": "address"
        },
        {
          "indexed": false,
          "internalType": "uint256",
          "name": "amountIn",
          "type": "uint256"
        },
        {
          "indexed": false,
          "internalType": "uint256",
          "name": "amountOut",
          "type": "uint256"
        },
        {
          "indexed": false,
          "internalType": "uint256",
          "name": "swapFeePercentage",
          "type": "uint256"
        },
        {
          "indexed": false,
          "internalType": "uint256",
          "name": "swapFeeAmount",
          "type": "uint256"
        }
      ],
      "name": "Swap",
      "type": "event"
    },
    {
      "anonymous": false,
      "inputs": [
        {
          "indexed": true,
          "internalType": "address",
          "name": "pool",
          "type": "address"
        },
        {
          "indexed": false,
          "internalType": "uint256",
          "name": "swapFeePercentage",
          "type": "uint256"
        }
      ],
      "name": "SwapFeePercentageChanged",
      "type": "event"
    },
    {
      "anonymous": false,
      "inputs": [
        {
          "indexed": true,
          "internalType": "address",
          "name": "pool",
          "type": "address"
        },
        {
          "indexed": true,
          "internalType": "address",
          "name": "from",
          "type": "address"
        },
        {
          "indexed": true,
          "internalType": "address",
          "name": "to",
          "type": "address"
        },
        {
          "indexed": false,
          "internalType": "uint256",
          "name": "value",
          "type": "uint256"
        }
      ],
      "name": "Transfer",
      "type": "event"
    },
    {
      "anonymous": false,
      "inputs": [
        {
          "indexed": true,
          "internalType": "contract IERC4626",
          "name": "wrappedToken",
          "type": "address"
        },
        {
          "indexed": false,
          "internalType": "uint256",
          "name": "burnedShares",
          "type": "uint256"
        },
        {
          "indexed": false,
          "internalType": "uint256",
          "name": "withdrawnUnderlying",
          "type": "uint256"
        },
        {
          "indexed": false,
          "internalType": "bytes32",
          "name": "bufferBalances",
          "type": "bytes32"
        }
      ],
      "name": "Unwrap",
      "type": "event"
    },
    {
      "anonymous": false,
      "inputs": [
        {
          "indexed": true,
          "internalType": "address",
          "name": "pool",
          "type": "address"
        },
        {
          "indexed": true,
          "internalType": "bytes32",
          "name": "eventKey",
          "type": "bytes32"
        },
        {
          "indexed": false,
          "internalType": "bytes",
          "name": "eventData",
          "type": "bytes"
        }
      ],
      "name": "VaultAuxiliary",
      "type": "event"
    },
    {
      "anonymous": false,
      "inputs": [
        {
          "indexed": false,
          "internalType": "bool",
          "name": "paused",
          "type": "bool"
        }
      ],
      "name": "VaultBuffersPausedStateChanged",
      "type": "event"
    },
    {
      "anonymous": false,
      "inputs": [
        {
          "indexed": false,
          "internalType": "bool",
          "name": "paused",
          "type": "bool"
        }
      ],
      "name": "VaultPausedStateChanged",
      "type": "event"
    },
    {
      "anonymous": false,
      "inputs": [],
      "name": "VaultQueriesDisabled",
      "type": "event"
    },
    {
      "anonymous": false,
      "inputs": [],
      "name": "VaultQueriesEnabled",
      "type": "event"
    },
    {
      "anonymous": false,
      "inputs": [
        {
          "indexed": true,
          "internalType": "contract IERC4626",
          "name": "wrappedToken",
          "type": "address"
        },
        {
          "indexed": false,
          "internalType": "uint256",
          "name": "depositedUnderlying",
          "type": "uint256"
        },
        {
          "indexed": false,
          "internalType": "uint256",
          "name": "mintedShares",
          "type": "uint256"
        },
        {
          "indexed": false,
          "internalType": "bytes32",
          "name": "bufferBalances",
          "type": "bytes32"
        }
      ],
      "name": "Wrap",
      "type": "event"
    },
    {
      "stateMutability": "payable",
      "type": "fallback"
    },
    {
      "inputs": [
        {
          "components": [
            {
              "internalType": "address",
              "name": "pool",
              "type": "address"
            },
            {
              "internalType": "address",
              "name": "to",
              "type": "address"
            },
            {
              "internalType": "uint256[]",
              "name": "maxAmountsIn",
              "type": "uint256[]"
            },
            {
              "internalType": "uint256",
              "name": "minBptAmountOut",
              "type": "uint256"
            },
            {
              "internalType": "enum AddLiquidityKind",
              "name": "kind",
              "type": "uint8"
            },
            {
              "internalType": "bytes",
              "name": "userData",
              "type": "bytes"
            }
          ],
          "internalType": "struct AddLiquidityParams",
          "name": "params",
          "type": "tuple"
        }
      ],
      "name": "addLiquidity",
      "outputs": [
        {
          "internalType": "uint256[]",
          "name": "amountsIn",
          "type": "uint256[]"
        },
        {
          "internalType": "uint256",
          "name": "bptAmountOut",
          "type": "uint256"
        },
        {
          "internalType": "bytes",
          "name": "returnData",
          "type": "bytes"
        }
      ],
      "stateMutability": "nonpayable",
      "type": "function"
    },
    {
      "inputs": [
        {
          "components": [
            {
              "internalType": "enum SwapKind",
              "name": "kind",
              "type": "uint8"
            },
            {
              "internalType": "enum WrappingDirection",
              "name": "direction",
              "type": "uint8"
            },
            {
              "internalType": "contract IERC4626",
              "name": "wrappedToken",
              "type": "address"
            },
            {
              "internalType": "uint256",
              "name": "amountGivenRaw",
              "type": "uint256"
            },
            {
              "internalType": "uint256",
              "name": "limitRaw",
              "type": "uint256"
            }
          ],
          "internalType": "struct BufferWrapOrUnwrapParams",
          "name": "params",
          "type": "tuple"
        }
      ],
      "name": "erc4626BufferWrapOrUnwrap",
      "outputs": [
        {
          "internalType": "uint256",
          "name": "amountCalculatedRaw",
          "type": "uint256"
        },
        {
          "internalType": "uint256",
          "name": "amountInRaw",
          "type": "uint256"
        },
        {
          "internalType": "uint256",
          "name": "amountOutRaw",
          "type": "uint256"
        }
      ],
      "stateMutability": "nonpayable",
      "type": "function"
    },
    {
      "inputs": [
        {
          "internalType": "address",
          "name": "pool",
          "type": "address"
        },
        {
          "internalType": "contract IERC20",
          "name": "token",
          "type": "address"
        }
      ],
      "name": "getPoolTokenCountAndIndexOfToken",
      "outputs": [
        {
          "internalType": "uint256",
          "name": "",
          "type": "uint256"
        },
        {
          "internalType": "uint256",
          "name": "",
          "type": "uint256"
        }
      ],
      "stateMutability": "view",
      "type": "function"
    },
    {
      "inputs": [],
      "name": "getVaultExtension",
      "outputs": [
        {
          "internalType": "address",
          "name": "",
          "type": "address"
        }
      ],
      "stateMutability": "view",
      "type": "function"
    },
    {
      "inputs": [],
      "name": "reentrancyGuardEntered",
      "outputs": [
        {
          "internalType": "bool",
          "name": "",
          "type": "bool"
        }
      ],
      "stateMutability": "view",
      "type": "function"
    },
    {
      "inputs": [
        {
          "components": [
            {
              "internalType": "address",
              "name": "pool",
              "type": "address"
            },
            {
              "internalType": "address",
              "name": "from",
              "type": "address"
            },
            {
              "internalType": "uint256",
              "name": "maxBptAmountIn",
              "type": "uint256"
            },
            {
              "internalType": "uint256[]",
              "name": "minAmountsOut",
              "type": "uint256[]"
            },
            {
              "internalType": "enum RemoveLiquidityKind",
              "name": "kind",
              "type": "uint8"
            },
            {
              "internalType": "bytes",
              "name": "userData",
              "type": "bytes"
            }
          ],
          "internalType": "struct RemoveLiquidityParams",
          "name": "params",
          "type": "tuple"
        }
      ],
      "name": "removeLiquidity",
      "outputs": [
        {
          "internalType": "uint256",
          "name": "bptAmountIn",
          "type": "uint256"
        },
        {
          "internalType": "uint256[]",
          "name": "amountsOut",
          "type": "uint256[]"
        },
        {
          "internalType": "bytes",
          "name": "returnData",
          "type": "bytes"
        }
      ],
      "stateMutability": "nonpayable",
      "type": "function"
    },
    {
      "inputs": [
        {
          "internalType": "contract IERC20",
          "name": "token",
          "type": "address"
        },
        {
          "internalType": "address",
          "name": "to",
          "type": "address"
        },
        {
          "internalType": "uint256",
          "name": "amount",
          "type": "uint256"
        }
      ],
      "name": "sendTo",
      "outputs": [],
      "stateMutability": "nonpayable",
      "type": "function"
    },
    {
      "inputs": [
        {
          "internalType": "contract IERC20",
          "name": "token",
          "type": "address"
        },
        {
          "internalType": "uint256",
          "name": "amountHint",
          "type": "uint256"
        }
      ],
      "name": "settle",
      "outputs": [
        {
          "internalType": "uint256",
          "name": "credit",
          "type": "uint256"
        }
      ],
      "stateMutability": "nonpayable",
      "type": "function"
    },
    {
      "inputs": [
        {
          "components": [
            {
              "internalType": "enum SwapKind",
              "name": "kind",
              "type": "uint8"
            },
            {
              "internalType": "address",
              "name": "pool",
              "type": "address"
            },
            {
              "internalType": "contract IERC20",
              "name": "tokenIn",
              "type": "address"
            },
            {
              "internalType": "contract IERC20",
              "name": "tokenOut",
              "type": "address"
            },
            {
              "internalType": "uint256",
              "name": "amountGivenRaw",
              "type": "uint256"
            },
            {
              "internalType": "uint256",
              "name": "limitRaw",
              "type": "uint256"
            },
            {
              "internalType": "bytes",
              "name": "userData",
              "type": "bytes"
            }
          ],
          "internalType": "struct VaultSwapParams",
          "name": "vaultSwapParams",
          "type": "tuple"
        }
      ],
      "name": "swap",
      "outputs": [
        {
          "internalType": "uint256",
          "name": "amountCalculated",
          "type": "uint256"
        },
        {
          "internalType": "uint256",
          "name": "amountIn",
          "type": "uint256"
        },
        {
          "internalType": "uint256",
          "name": "amountOut",
          "type": "uint256"
        }
      ],
      "stateMutability": "nonpayable",
      "type": "function"
    },
    {
      "inputs": [
        {
          "internalType": "address",
          "name": "owner",
          "type": "address"
        },
        {
          "internalType": "address",
          "name": "to",
          "type": "address"
        },
        {
          "internalType": "uint256",
          "name": "amount",
          "type": "uint256"
        }
      ],
      "name": "transfer",
      "outputs": [
        {
          "internalType": "bool",
          "name": "",
          "type": "bool"
        }
      ],
      "stateMutability": "nonpayable",
      "type": "function"
    },
    {
      "inputs": [
        {
          "internalType": "address",
          "name": "spender",
          "type": "address"
        },
        {
          "internalType": "address",
          "name": "from",
          "type": "address"
        },
        {
          "internalType": "address",
          "name": "to",
          "type": "address"
        },
        {
          "internalType": "uint256",
          "name": "amount",
          "type": "uint256"
        }
      ],
      "name": "transferFrom",
      "outputs": [
        {
          "internalType": "bool",
          "name": "",
          "type": "bool"
        }
      ],
      "stateMutability": "nonpayable",
      "type": "function"
    },
    {
      "inputs": [
        {
          "internalType": "bytes",
          "name": "data",
          "type": "bytes"
        }
      ],
      "name": "unlock",
      "outputs": [
        {
          "internalType": "bytes",
          "name": "result",
          "type": "bytes"
        }
      ],
      "stateMutability": "nonpayable",
      "type": "function"
    },
    {
      "stateMutability": "payable",
      "type": "receive"
    }
  ],
  "bytecode": "0x6101e080604052346103bd576060816166e4803803809161002082856104e6565b8339810103126103bd5780516001600160a01b038116908181036103bd576020830151926001600160a01b03841684036103bd57604001516001600160a01b03811691908290036103bd5761009860405161007c6040826104e6565b600a8152691a5cd55b9b1bd8dad95960b21b602082015261055a565b60c0526100cf6040516100ac6040826104e6565b60118152701b9bdb96995c9bd1195b1d1850dbdd5b9d607a1b602082015261055a565b60e0526101006040516100e36040826104e6565b600b81526a746f6b656e44656c74617360a81b602082015261055a565b610100526101396040516101156040826104e6565b6012815271185919131a5c5d5a591a5d1e50d85b1b195960721b602082015261055a565b6101205261016960405161014e6040826104e6565b60098152681cd95cdcda5bdb925960ba1b602082015261055a565b6101405260405163fbfa77cf60e01b8152602081600481875afa9081156103ca576000916104c7575b50306001600160a01b03909116036104b65760405163fbfa77cf60e01b8152602081600481865afa9081156103ca57600091610487575b50306001600160a01b0390911603610476576101c052600a80546001600160a01b031916919091179055604051634546891d60e11b8152602081600481855afa9081156103ca57600091610457575b5061016052604051631060fdbd60e11b8152602081600481855afa9081156103ca57600091610438575b506101a05260405163cd51c12f60e01b8152602081600481855afa9081156103ca57600091610409575b5061018052604051630716585d60e51b8152602081600481855afa9081156103ca576000916103d6575b506080526040516329cab55160e11b815290602090829060049082905afa9081156103ca57600091610393575b5060a05260098054610100600160a81b03191660089290921b610100600160a81b031691909117905560405161608d9081610657823960805181615320015260a051816136ba015260c051818181611226015261154a015260e05181818161129f015281816146de015261472801526101005181614694015261012051818181611378015261242e0152610140518181816112ce0152818161134701526123fd015261016051815050610180518161189301526101a0518161193201526101c0518181816109a301526114c80152f35b90506020813d6020116103c2575b816103ae602093836104e6565b810103126103bd5751386102c3565b600080fd5b3d91506103a1565b6040513d6000823e3d90fd5b90506020813d602011610401575b816103f1602093836104e6565b810103126103bd57516004610296565b3d91506103e4565b61042b915060203d602011610431575b61042381836104e6565b81019061053e565b3861026c565b503d610419565b610451915060203d6020116104315761042381836104e6565b38610242565b610470915060203d6020116104315761042381836104e6565b38610218565b631bbe95c760e01b60005260046000fd5b6104a9915060203d6020116104af575b6104a181836104e6565b81019061051f565b386101c9565b503d610497565b6301ab9d9d60e41b60005260046000fd5b6104e0915060203d6020116104af576104a181836104e6565b38610192565b601f909101601f19168101906001600160401b0382119082101761050957604052565b634e487b7160e01b600052604160045260246000fd5b908160209103126103bd57516001600160a01b03811681036103bd5790565b908160209103126103bd575163ffffffff811681036103bd5790565b6105d36105e16040519261056f6040856104e6565b600c84526b5661756c7453746f7261676560a01b602085015260405192839160016105c560208501977f62616c616e6365722d6c6162732e76332e73746f726167652e000000000000008952603986019061062b565b601760f91b8152019061062b565b03601f1981018352826104e6565b51902060001981019081116106155760405190602082019081526020825261060a6040836104e6565b9051902060ff191690565b634e487b7160e01b600052601160045260246000fd5b9081519160005b838110610643575050016000815290565b806020809284010151818501520161063256fe60806040526004361015610018575b366114b7576114a6565b60003560e01c806315afd409146100d857806315dacbea146100d357806321457897146100ce5780632bfb780c146100c957806343583be5146100c457806348c89491146100bf5780634af29ec4146100ba578063ae639329146100b5578063b9a8effa146100b0578063beabacc8146100ab578063c9c1661b146100a65763d2c725e00361000e57610ae4565b610a08565b6109d2565b61098d565b610886565b6107a8565b610709565b61067e565b6105ad565b6104a4565b610211565b61010c565b6001600160a01b031690565b6001600160a01b038116036100fa57565b600080fd5b359061010a826100e9565b565b346100fa5760403660031901126100fa57600435610129816100e9565b602435610134611506565b61013c611548565b6001600160a01b03821660008181526008602090815260408083205490516370a0823160e01b815295939091908690818061017a306004830161097a565b03915afa801561020c576101cf956101a393916101dd575b508061019d85610b12565b55610c1f565b918083116101d3575b50816101b791611583565b6101bf611533565b6040519081529081906020820190565b0390f35b91506101b76101ac565b6101ff915060203d602011610205575b6101f781836102bb565b810190610bdf565b38610192565b503d6101ed565b610bee565b346100fa5760803660031901126100fa5761025f600435610231816100e9565b60243561023d816100e9565b6044359061024a826100e9565b610259606435809483336115bd565b3361173e565b602060405160018152f35b634e487b7160e01b600052604160045260246000fd5b60e081019081106001600160401b0382111761029b57604052565b61026a565b606081019081106001600160401b0382111761029b57604052565b601f909101601f19168101906001600160401b0382119082101761029b57604052565b6040519061010a60c0836102bb565b6040519061010a60e0836102bb565b6040519061010a610180836102bb565b6001600160401b03811161029b5760051b60200190565b9080601f830112156100fa57813561033a8161030c565b9261034860405194856102bb565b81845260208085019260051b8201019283116100fa57602001905b8282106103705750505090565b8135815260209182019101610363565b359060048210156100fa57565b6001600160401b03811161029b57601f01601f191660200190565b9291926103b48261038d565b916103c260405193846102bb565b8294818452818301116100fa578281602093846000960137010152565b9080601f830112156100fa578160206103fa933591016103a8565b90565b906020808351928381520192019060005b81811061041b5750505090565b825184526020938401939092019160010161040e565b60005b8381106104445750506000910152565b8181015183820152602001610434565b9060209161046d81518092818552858086019101610431565b601f01601f1916010190565b91610496906103fa949284526060602085015260608401906103fd565b916040818403910152610454565b346100fa5760203660031901126100fa576004356001600160401b0381116100fa5760c060031982360301126100fa576104dc6102de565b906104e9816004016100ff565b82526104f7602482016100ff565b60208301526044810135604083015260648101356001600160401b0381116100fa576105299060043691840101610323565b606083015261053a60848201610380565b608083015260a4810135916001600160401b0383116100fa576105696105739260046101cf95369201016103df565b60a0820152610c2c565b60409391935193849384610479565b600211156100fa57565b359061010a82610582565b6040919493926060820195825260208201520152565b346100fa5760203660031901126100fa576004356001600160401b0381116100fa5760e060031982360301126100fa576105e56102ed565b906105f28160040161058c565b8252610600602482016100ff565b6020830152610611604482016100ff565b6040830152610622606482016100ff565b60608301526084810135608083015260a481013560a083015260c4810135916001600160401b0383116100fa5761066561066f9260046101cf95369201016103df565b60c0820152610d6e565b60409391935193849384610597565b346100fa5760a03660031901126100fa5760405160a081016001600160401b0381118282101761029b576101cf9161066f916040526004356106bf81610582565b81526024356106cd81610582565b60208201526044356106de816100e9565b604082015260643560608201526084356080820152610f68565b9060206103fa928181520190610454565b346100fa5760203660031901126100fa576004356001600160401b0381116100fa57366023820112156100fa576004810135906001600160401b0382116100fa5736602483830101116100fa576101cf9160246107669201611218565b604051918291826106f8565b359060058210156100fa57565b6107956103fa94926060835260608301906103fd565b9260208201526040818403910152610454565b346100fa5760203660031901126100fa576004356001600160401b0381116100fa5760c060031982360301126100fa576107e06102de565b906107ed816004016100ff565b82526107fb602482016100ff565b602083015260448101356001600160401b0381116100fa576108239060043691840101610323565b60408301526064810135606083015261083e60848201610772565b608083015260a4810135916001600160401b0383116100fa5761086d6108779260046101cf95369201016103df565b60a0820152611315565b6040939193519384938461077f565b346100fa5760603660031901126100fa576004356108a3816100e9565b602435906108b0826100e9565b604435906108bc611506565b6108c4611548565b6108d66108d083614667565b8261468c565b6001600160a01b038116600090815260086020526040902080548381039490851161094c5761093694610931925561092360405194859263a9059cbb60e01b6020850152602484016145f2565b03601f1981018452836102bb565b615bb4565b6000805160206160388339815191525160009055005b610bfa565b60009103126100fa57565b6001600160a01b03169052565b6001600160a01b0316600452602490565b6001600160a01b03909116815260200190565b346100fa5760003660031901126100fa576040517f00000000000000000000000000000000000000000000000000000000000000006001600160a01b03168152602090f35b346100fa5760603660031901126100fa5761025f6004356109f2816100e9565b6024356109fe816100e9565b604435913361173e565b346100fa5760403660031901126100fa57600435610a25816100e9565b60243590610a32826100e9565b6001600160a01b031660008181526020819052604090205460011615610ad0576000526003602052604060002090604051809283916020825491828152019160005260206000209060005b818110610aae5784610a9b87610a95838803846102bb565b8261460d565b9051604080519182526020820192909252f35b82546001600160a01b0316845286945060209093019260019283019201610a7d565b6327946f5760e21b60005260045260246000fd5b346100fa5760003660031901126100fa57602060008051602061603883398151915251546040519015158152f35b6001600160a01b0316600090815260086020526040902090565b6001600160a01b0316600090815260026020526040902090565b6001600160a01b0316600090815260056020526040902090565b6001600160a01b03166000908152600f6020526040902090565b6001600160a01b0316600090815260066020526040902090565b6001600160a01b03166000908152600b6020526040902090565b6001600160a01b0316600090815260116020526040902090565b9060018060a01b0316600052602052604060002090565b908160209103126100fa575190565b6040513d6000823e3d90fd5b634e487b7160e01b600052601160045260246000fd5b60001981019190821161094c57565b9190820391821161094c57565b90610c35611548565b8151610c49906001600160a01b0316611852565b610c5b610c5683516100dd565b61188c565b610c75610c6883516100dd565b610c7061198b565b6119c2565b90610cc4602083015151610c90606086019182515190611e1f565b805160c0850190610caa82519160a0880192835191611e93565b92610cb58751611f56565b610d1f575b5050508484612361565b9490919586610cd38351612997565b610ce1575b50505050929190565b84975093610d1594610d0b610cfe610cf985516100dd565b610b2c565b546001600160a01b031690565b9484513390612a55565b9238808080610cd8565b610d40610d6694888a610d38610cfe610cf983516100dd565b923390612017565b610d5b610d55610d508a516100dd565b610b46565b886120db565b519151905191611e93565b388080610cba565b90610d77611548565b602082018051909190610d92906001600160a01b0316611852565b6000610da1610c5684516100dd565b608084015115610f3457610db860408501516100dd565b610dcd610dc860608701516100dd565b6100dd565b6001600160a01b0390911614610f255750610deb610c6883516100dd565b92610df68482612bb4565b90610e02858383612c60565b610e0c8651612cf8565b610eca575b610e2c90610e1f8751612ed7565b610e9c575b868484612fcd565b9791979490978397610e3e8451613388565b610e6e575b505050505051610e5281610f59565b610e5b81610f59565b610e66575081929190565b918093509190565b85985090610e86610cfe610cf9610e919894516100dd565b948451913392613451565b923880808080610e43565b610ea686516100dd565b610ec360608601918251610ebc610cfe83610b2c565b9185612f01565b9052610e24565b610eea90610ed886516100dd565b610ee4610cfe82610b2c565b91612dac565b610f00610efa610d5086516100dd565b866120db565b610f0b828683612e39565b6040830152610e2c610f1e868484612c60565b9050610e11565b63a54b181d60e01b8152600490fd5b6357a456b760e01b8152600490fd5b634e487b7160e01b600052602160045260246000fd5b60021115610f6357565b610f43565b610f70611548565b6007546001929060021c83166111f257604082810180516001600160a01b039081166000818152600e602052939093205491929116156111de5750610fb3611506565b60009360046020610fc7610dc885516100dd565b6040516338d52e0f60e01b815292839182905afa90811561020c5786916111af575b5060018060a01b03166110058161100085516100dd565b613674565b61100f83516100dd565b9161102060608701938451906136b7565b602086015161102e81610f59565b61103781610f59565b036111485761105e9185519161104c83610f59565b61105685516100dd565b915192613b03565b7feeb740c90bf2b18c9532eb7d473137767036d893dff3e009f32718f821b2a4c082969297939796886110a960018060a01b0361109b89516100dd565b169460405193849384610597565b0390a25b80516110b881610f59565b6110c181610f59565b611114576080915001518084106110f757506110ea6110e591849283915b516100dd565b6136b7565b6110f2611533565b929190565b63e2ea151b60e01b600052600484905260245260446000fd5b6000fd5b608001518086116111315750506110ea6110e591859283916110df565b63e2ea151b60e01b82526004869052602452604490fd5b61116a9185519161115883610f59565b61116285516100dd565b915192613750565b7f3771d13c67011e31e12031c54bb59b0bf544a80b81d280a3711e172aa8b7f47b82969297939796886111a760018060a01b0361109b89516100dd565b0390a26110ad565b6111d1915060203d6020116111d7575b6111c981836102bb565b810190611203565b38610fe9565b503d6111bf565b6385f4129960e01b60005260045260246000fd5b630f27df0960e01b60005260046000fd5b908160209103126100fa57516103fa816100e9565b91909161129560008061125b7f000000000000000000000000000000000000000000000000000000000000000094855197885415988961130b575b5036916103a8565b60208151910182335af13d15611303573d906112768261038d565b9161128460405193846102bb565b82523d6000602084013e5b33615f1d565b9261129d5750565b7f000000000000000000000000000000000000000000000000000000000000000051546112f257516000905561010a7f0000000000000000000000000000000000000000000000000000000000000000613dc0565b6320f1d86d60e01b60005260046000fd5b60609061128f565b6001905538611253565b9061131e611548565b8151611332906001600160a01b0316611852565b61133f610c5683516100dd565b6113b561136b7f0000000000000000000000000000000000000000000000000000000000000000515490565b61137584516100dd565b907f000000000000000000000000000000000000000000000000000000000000000090600052602052604060002090600052602052600160406000205155565b6113c76113c283516100dd565b611c04565b906114166020830151516113e2604086019182515190611e1f565b805160c08501906113fc82519160a0880192835191613dd3565b926114078751613e46565b61145d575b5050508484613ffb565b94909586846114258451614421565b611434575b5050505050929190565b6114539550611449610cfe610cf985516100dd565b94845133906144a8565b388080868161142a565b61147d61149e94888a611476610cfe610cf983516100dd565b9233613ecc565b61149361148d610d508a516100dd565b88612141565b519151905191613dd3565b38808061140c565b637911c44b60e11b60005260046000fd5b346114a657366000803760008036817f00000000000000000000000000000000000000000000000000000000000000006001600160a01b03165af43d6000803e15611501573d6000f35b3d6000fd5b6000805160206160388339815191525180546115225760019055565b633ee5aeb560e01b60005260046000fd5b60006000805160206160388339815191525155565b7f000000000000000000000000000000000000000000000000000000000000000051541561157257565b63604dd39b60e11b60005260046000fd5b9061158d90614667565b90600160ff1b821461094c5761010a916000039061468c565b6001600160a01b0316600452602452604452606490565b929190916115cc828486614755565b600181016115dc575b5050505050565b8082116116f9576001600160a01b03841693919003919083156116e5576001600160a01b0382169485156116d157836116348461162f8561162f8660018060a01b03166000526010602052604060002090565b610bc8565b556001600160a01b031692833b156100fa578060007fa0175360a15bca328baf7ea85c7b784d58b222a50d0ce760b10dba336d226a61946116a99461168d6040519485938493630ad0fe5760e31b85526004850161171c565b038183895af16116b6575b506040519081529081906020820190565b0390a438808080806115d5565b806116c560006116cb936102bb565b80610951565b38611698565b634a1406b160e11b60005261111083610969565b63e602df0560e01b60005261111090610969565b82637dc7a0d960e11b60005260018060a01b031660045260245260445260646000fd5b6001600160a01b03918216815291166020820152604081019190915260600190565b919290916001600160a01b03831690811561183e576001600160a01b03851690811561182a576117718561162f83610b60565b54808511611813578490036117898661162f84610b60565b556117978661162f83610b60565b8054850190556040518481526001600160a01b03919091169290839060008051602061601883398151915290602090a4803b156100fa576117f39360008094604051968795869485936323de665160e01b85526004850161171c565b03925af1801561020c576118045750565b806116c5600061010a936102bb565b63391434e360e21b600052611110908590876115a6565b63ec442f0560e01b60005261111086610969565b634b637e8f60e11b60005261111084610969565b6001600160a01b0316600081815260208190526040902054600190811c16156118785750565b634bdace1360e01b60005260045260246000fd5b63ffffffff7f0000000000000000000000000000000000000000000000000000000000000000164211158061197d575b61196c576001600160a01b03811660009081526020819052604090205460018160ff6118e6611f1a565b161c16906118f261600f565b906028820180921161094c5782611921575b505061190d5750565b63d971f59760e01b60005261111090610969565b61196292509063ffffffff611959927f0000000000000000000000000000000000000000000000000000000000000000921c16615ff5565b63ffffffff1690565b4211153880611904565b6336a7e2cd60e21b60005260046000fd5b506001600754811c166118bc565b6040519061199882610280565b606060c0836000815282602082015282604082015282808201528260808201528260a08201520152565b906119cb611506565b6001600160a01b038116600090815260056020908152604080832083835281842054600484528285206003855292909420805494875292860192611a0e9061479c565b8352611a19846147f0565b9260408701938452611a2a85611e37565b9260608801938452611a3b86611e37565b6080890152611a4b868951615c0f565b60c0890152611a5986611e37565b9060a08901918252611a6f8951600190811c1690565b9283611bf0575b83611bdd575b60005b8a898210611ab7575050505050505050505080611aa7611aa1611aae93610b46565b91610b7a565b9083614880565b9061010a611533565b908860019289838a611b0f82611afb81611af5611af08e611aea8f85611add9151611e69565b516001600160a01b031690565b90610bc8565b614840565b946120cc565b54965183611b098383611e69565b52611e69565b50611b19816149b2565b611b24838c51611e69565b52611b3987611b3287614a4d565b8487614aa6565b8a15611bd357604081015115159081611bb6575b50611b5e575b505050505b01611a7f565b82611b82611b7a83611b73611b889751615ca4565b9551611e69565b519560801c90565b90615ce2565b8d8382611b99575b8b919250611b53565b611ba78693611bad95610c1f565b91614aa6565b38808d83611b90565b87915051611bc381610f59565b611bcc81610f59565b1438611b4d565b5050505050611b58565b9250611be98951615cd1565b1592611a7c565b9250611bfc8951615ca4565b151592611a76565b90611c0d61198b565b600092611c18611506565b60018060a01b0381168085526005602052604085209481815280602052604081205491808252600460205260408220908252600360205260408220968754938652611c66602087019861479c565b8852611c71846147f0565b9760408701988952611c8285611e37565b9260608801938452611c9386611e37565b6080890152611ca3868951615c0f565b60c0890152611cb186611e37565b9060a08901918252611cc78951600190811c1690565b9283611e0b575b83611df8575b865b888110611d0157505050505050505050611cf991929350611aa7611aa182610b46565b6103fa611533565b808d87611d5d8b8f611d3d86611d2f81611d29611af08e611aea8f60019f611add9151611e69565b976120cc565b54965186611b098383611e69565b50611d47846149b2565b611d52878c51611e69565b5285611ba786614a4d565b8715611df157604081015115159081611dd4575b50611d7f575b505b01611cd6565b898d83611dad8c82611da7611d9f82611d988851615ca4565b9451611e69565b519760801c90565b85615ce2565b9384611dbd575b50505050611d77565b611dca94611ba791610c1f565b38898d8383611db4565b84915051611de181610f59565b611dea81610f59565b1438611d71565b5050611d79565b9250611e048951615cd1565b1592611cd4565b9250611e178951615ca4565b151592611cce565b03611e2657565b63aaad13f760e01b60005260046000fd5b90611e418261030c565b611e4e60405191826102bb565b8281528092611e5f601f199161030c565b0190602036910137565b8051821015611e7d5760209160051b010190565b634e487b7160e01b600052603260045260246000fd5b9190825191611ea682518251908561495c565b611eaf83611e37565b9360005b848110611ec257505050505090565b80611ef7611ed260019385611e69565b51611ef2611ee08489611e69565b51611eeb8589611e69565b519261499f565b614ff2565b611f018289611e69565b5201611eb3565b60ff60019116019060ff821161094c57565b6103fa6001611f08565b6103fa611f3a611f3a611f3a611f3a6001611f08565b611f08565b6103fa611f3a611f3a611f3a611f3a611f3a611f24565b60019060ff611f72611f3a611f3a611f3a611f3a611f3a611f3f565b161c1690565b60041115610f6357565b519081151582036100fa57565b908160209103126100fa576103fa90611f82565b906004821015610f635752565b6001600160a01b039182168152911660208201526103fa9590949093612009939192611ffb9290611fe5906040890190611fa3565b606087015260e0608087015260e08601906103fd565b9084820360a08601526103fd565b9160c0818403910152610454565b6000602094959261206861202b86516100dd565b9360808701519661203b88611f78565b60a0608060408301519b0151910151916040519a8b998a9889976302e97e7d60e61b895260048901611fb0565b03926001600160a01b03165af190811561020c5760009161209d575b501561208c57565b631557c43360e11b60005260046000fd5b6120bf915060203d6020116120c5575b6120b781836102bb565b810190611f8f565b38612084565b503d6120ad565b90600052602052604060002090565b6020810151519160005b8381106120f25750505050565b8061210c6121066001936040870151611e69565b516149b2565b61211a8260a0870151611e69565b52806000528260205261213b82808060801b03604060002054168387614aa6565b016120e5565b6020810151519160005b8381106121585750505050565b8061216c6121066001936040870151611e69565b61217a8260a0870151611e69565b52806000528260205261219b6000838060801b036040822054168387614aa6565b0161214b565b604051906121ae826102a0565b60006040838281528260208201520152565b9080601f830112156100fa5781516121d78161030c565b926121e560405194856102bb565b81845260208085019260051b8201019283116100fa57602001905b82821061220d5750505090565b8151815260209182019101612200565b81601f820112156100fa5780516122338161038d565b9261224160405194856102bb565b818452602082840101116100fa576103fa9160208085019101610431565b906080828203126100fa57815160208301519093906001600160401b0381116100fa578261228e9185016121c0565b60408401519093906001600160401b0381116100fa57836122b09183016121c0565b60608201519093906001600160401b0381116100fa576103fa920161221d565b93906103fa959361230d936122ff9260018060a01b03168752602087015260a0604087015260a08601906103fd565b9084820360608601526103fd565b916080818403910152610454565b906001820180921161094c57565b9190820180921161094c57565b91612353906103fa949284526060602085015260608401906103fd565b9160408184039101526103fd565b90929161236c611506565b600060606123786121a1565b91602085019661238c885151808652611e37565b946080820192835161239d81611f78565b6123a681611f78565b6127825750506040810151946123bc8551611e37565b936123f48760808a01516123ee6123d387516100dd565b6001600160a01b031660009081526011602052604090205490565b90614fa0565b9061246a6124217f0000000000000000000000000000000000000000000000000000000000000000515490565b61242b86516100dd565b907f0000000000000000000000000000000000000000000000000000000000000000906000526020526040600020906000526020526040600020515490565b612701575b60408401518089116126e85750612488889a979a615015565b60009660208b0198606086019660608c01995b8d518110156125cf57808f888f6124b2848b611e69565b51906124bd82615015565b6124c78584611e69565b516125b45792611add926125096125018794876124fa8760a06124f18260c06125119e0151611e69565b51930151611e69565b5191615026565b968792611e69565b525b51611e69565b61251c838c51611e69565b518210612593578e838f8f908f868f8561258795612581946125098361257060019f9e8e61258d9f8f909961255586946125789c611583565b61256a612562858a611e69565b5191516100dd565b9161505c565b8a5292611e69565b51925190612329565b90610c1f565b91614a59565b0161249b565b906125a2611110938c51611e69565b516317bc2f2360e11b600052916115a6565b5050826125c86125119394611add93611e69565b519361250b565b50965097509750979098506125f29199509391936125ed85516100dd565b61513b565b7ffbe5b0d79fb94f1e81c0a92bf86ae9d3a19e9d1bf6202c0d3e75120f65d5d8a58861261e85516100dd565b9361263987602088019661263288516100dd565b33916115bd565b612641615190565b6126c5575b6126648761265488516100dd565b61265e88516100dd565b906151e9565b6126b461268d6123d361268161267a8a516100dd565b98516100dd565b9351986110df8a611f78565b9461269788611f78565b6040516001600160a01b0393841697909316959293849384612336565b0390a46126bf611533565b93929190565b6126e3876126d388516100dd565b6126dd88516100dd565b906151a5565b612646565b6331d38e0b60e01b600052600489905260245260446000fd5b989497939099959196926127158551614c07565b9760005b845181101561277057808d612769826127638f8f9661275291612748600199612742848a611e69565b51614ff2565b611b098383611e69565b5161275d8386611e69565b51610c1f565b92611e69565b5201612719565b5092969a91949895999093975061246f565b600184979295975161279381611f78565b61279c81611f78565b0361281257506127ac8751614b77565b60408201519584906127c16060850151614ba5565b61280c61280260408a019280845260808d0151908d8d6127ee6127e76123d38d516100dd565b9251614c07565b926127fc610dc88d516100dd565b94614ea0565b9092519098611e69565b5261246f565b6002845161281f81611f78565b61282881611f78565b036128af57506128388751614b77565b6128a784606084019061285c61284e8351614ba5565b60408a019381855251611e69565b51612868835186611e69565b5261287a60808b015192518092611e69565b516128886123d387516100dd565b906128938c51614c07565b926128a1610dc889516100dd565b94614c6f565b94909661246f565b9550600383516128be81611f78565b6128c781611f78565b0361296e576128d68751614b4f565b856128e7610dc8610dc885516100dd565b60408481015160808b015160a08701519251632ada38a360e21b81529889949385938793859361291c939233600487016122d0565b03925af1801561020c578690879588809261293d575b50509694909661246f565b9250929550506129609296503d8091833e61295881836102bb565b81019061225f565b909691949192903880612932565b63137a9a3960e01b8652600486fd5b6103fa611f3a611f3a611f3a611f3a611f3a611f3a611f3f565b60019060ff611f7261297d565b9190916040818403126100fa576129ba81611f82565b60208201519093906001600160401b0381116100fa576103fa92016121c0565b969394612a4795612a13612a39956103fa9b9995612a2b9560018060a01b03168c5260018060a01b031660208c015260408b0190611fa3565b606089015261010060808901526101008801906103fd565b9086820360a08801526103fd565b9084820360c08601526103fd565b9160e0818403910152610454565b92939691909594958651612a68906100dd565b90608088015192612a7884611f78565b60808801518760a08b0151926040519c8d978897632754888d60e01b89526004890197612aa4986129da565b6001600160a01b039093169203815a6000948591f194851561020c57600090600096612b8c575b50158015612b80575b612b6f57612ae4612ae9916152e4565b151590565b15612b68575060005b8351811015612b6257612b058185611e69565b516060840190612b16838351611e69565b5111612b255750600101612af2565b612b5082612b4881612b42611add8a9760206111109a0151611e69565b95611e69565b519251611e69565b51633ef629c960e21b600052916115a6565b50505090565b9250505090565b6303a6723b60e31b60005260046000fd5b50845182511415612ad4565b9050612bac9195503d806000833e612ba481836102bb565b8101906129a4565b949038612acb565b604051929160808401906001600160401b0382118583101761029b57612c419160405260008552602085019460008652612c39604082019160008352836060820196600088528299612c3260208401612c1b815160018060a01b036040870151169061460d565b86525160608401516001600160a01b03169061460d565b9052612e39565b905251614c07565b9052565b612c4e82610f59565b52565b6001600160a01b039091169052565b919091606060c0604051612c7381610280565b600081526000602082015282604082015260008382015260006080820152600060a08201520152805192612ca684610f59565b6080604082015193015160c06020835193015193015193612ccf612cc86102ed565b9687612c45565b6020860152604085015260608401526080830152612cf03360a08401612c51565b60c082015290565b60019060ff611f72611f3a611f3f565b90612c4e82610f59565b919060e08101908351612d2481610f59565b81526020840151602082015260408401519160e0604083015282518091526020610100830193019060005b818110612d965750505060c08460606103fa95960151606084015260808101516080840152612d8660a082015160a085019061095c565b01519060c0818403910152610454565b8251855260209485019490920191600101612d4f565b60209192612dda916000604051809681958294635211fa7760e01b8452604060048501526044840190612d12565b6001600160a01b0391821660248401529190910393165af190811561020c57600091612e1a575b5015612e0957565b63e91e17e760e01b60005260046000fd5b612e33915060203d6020116120c5576120b781836102bb565b38612e01565b9190918051612e4781610f59565b612e5081610f59565b612e955790612e8c670de0b6b3a764000093611eeb6080612e919501519360a0612e8060c0850151835190611e69565b51930151905190611e69565b61499f565b0490565b6103fa92612ed1612ecb6080611ef29401519460a0612ebf602060c0870151930192835190611e69565b51940151905190611e69565b516152fa565b9261499f565b60019060ff611f72611f3f565b91908260409103126100fa576020612efb83611f82565b92015190565b9260408093929481519586948593849363283a3d6b60e21b8552612f316004860191606083526060830190612d12565b6001600160a01b0394851660208301529101919091529190910392165afa90811561020c57600090600092612f9b575b5015612f8a57670de0b5cad2bef0008111612f795790565b6301d1b96560e61b60005260046000fd5b6314fe5db560e21b60005260046000fd5b9050612fbf915060403d604011612fc6575b612fb781836102bb565b810190612ee4565b9038612f61565b503d612fad565b919390612fd8611506565b600094612fe36121a1565b938051612fef81610f59565b612ff881610f59565b1561334f575b6020860161300c815161531e565b87602061304381850199613026610dc8610dc88d516100dd565b90604051948580948193633964c0c360e11b835260048301613377565b03925af198891561020c579861332e575b508761305f8161531e565b825161306a81610f59565b61307381610f59565b6132b05750604084015190526130b360c08301516130ac612ecb61309d6020880193845190611e69565b519260a0870151905190611e69565b9089615026565b9260808201519584969760a084015180871061329757505b60408401938985516130dc906100dd565b906130e6916145e0565b606001948886516130f6906100dd565b9061310091611583565b8251825161310d906100dd565b8651613118906100dd565b865191613125938561505c565b9060208501946040019182528452845160608301918c8284519061314891611e69565b519061315391612329565b905161315e91610c1f565b6131689184614a59565b602085019182518b8184519061317d91611e69565b519061318891610c1f565b6131929183614a59565b835161319d906100dd565b6131a690610b46565b91805187516131b491611e69565b519160800191825188516131c791611e69565b516131d1916153d6565b87516131dd90856120cc565b555183516131ea91611e69565b51905183516131f891611e69565b51613202916153d6565b915161320d916120cc565b5551613218906100dd565b9251613223906100dd565b935161322e906100dd565b6060928301519151604080518b8152602081018b905290810193909352928201929092526001600160a01b0391821693821692909116907f0874b2d545cb271cdbda4e093020c452328b24af12382ed62c4d00f5c26709db90608090a49392919061010a611533565b63e2ea151b60e01b600052600487905260245260446000fd5b90506132e69197506132dd60608501516132d681670de0b6b3a764000081810391100290565b90836153a1565b90818752612329565b956133136132fa60c0840151855190611e69565b5161330b60a0850151865190611e69565b5190896153c2565b92608082015195849760a084015180871161329757506130cb565b61334891985060203d602011610205576101f781836102bb565b9638613054565b602086016133706133668251606087015190614ff2565b8088528251610c1f565b9052612ffe565b9060206103fa928181520190612d12565b60019060ff611f72611f3a611f3a611f3f565b6101a06101606103fa93602084526133b7602085018251612d08565b6133c96020820151604086019061095c565b6133db6040820151606086019061095c565b60608101516080850152608081015160a085015260a081015160c085015260c081015160e085015260e081015161010085015261010081015161012085015261342e61012082015161014086019061095c565b6134406101408201518386019061095c565b015191610180808201520190610454565b9395909692949194865161346481610f59565b61346d81610f59565b61366857604083015188905b88519461348586610f59565b60408a0151613493906100dd565b9a60608b01516134a2906100dd565b9560800191825181516134b491611e69565b51925190602001516134c591611e69565b519260208c01516134d5906100dd565b9660c08d0151986134e46102fc565b9e8f916134f19083612c45565b6134fe9060208301612c51565b6040019061350b91612c51565b60608d015260808c015260a08b015260c08a015260e08901528561010089015261012088019061353a91612c51565b613548906101408801612c51565b6101608601526040516318b6eb5560e01b8152948590819061356d906004830161339b565b6001600160a01b039093169203815a604094600091f193841561020c57600090600095613644575b501561363357612ae46135a7916152e4565b1561362d575080516135b881610f59565b6135c181610f59565b1580613620575b80156135f5575b6135d7575090565b60a0015163cc0e4a9960e01b60005261111091600452602452604490565b506001815161360381610f59565b61360c81610f59565b1480156135cf575060a081015182116135cf565b5060a081015182106135c8565b91505090565b630568a77b60e21b60005260046000fd5b905061366091945060403d604011612fc657612fb781836102bb565b939038613595565b60408301519780613479565b6001600160a01b039081166000818152600e6020526040902054928216929091168290036136a0575050565b6336b18d0960e01b60005260045260245260446000fd5b907f0000000000000000000000000000000000000000000000000000000000000000116136e15750565b6318fe738560e01b60009081526001600160a01b0391909116600452602490fd5b8181039291600013801582851316918412161761094c57565b9081526001600160a01b03909116602082015260400190565b9190916000838201938412911290801582169115161761094c57565b93909161375c85610f59565b8415948515613a6b57613792602061377387610c10565b6040518093819263ef8b30f760e01b8352600483019190602083019252565b03816001600160a01b0387165afa801561020c576137b891600091613a4c575b50610c10565b94955b6137c483610b94565b54916137ce615190565b613a44579187939187936137e28360801c90565b9185831061383a575050508361381b8261381661010a976138118861380a61382c9860801c90565b0393614a4d565b612329565b6153d6565b968761382685610b94565b556145e0565b6001600160a01b0316611583565b91955091935061384b600092610f59565b1561393b575061387461386f61386183856155d5565b61386a8a614667565b613734565b6154c4565b6001600160a01b0382169261388a8285896155ab565b60206040518095636e553f6560e01b8252816000816138ad30896004840161371b565b03925af1801561020c5761010a956139168a61390b8b6139108f979861390b8961381161382c9c889f8f8661381b9e6139069360009161391c575b50998a925b6001600160a01b03169061390182826154e3565b61564c565b614a4d565b610c1f565b94612329565b906153d6565b613935915060203d602011610205576101f781836102bb565b386138e8565b61395961386f61394b848661541d565b6139548a614667565b613702565b60405163b3d7f6b960e01b8152600481018290526001600160a01b0384169490602081602481895afa801561020c5761399b918591613a25575b50868a6155ab565b602060405180966394bf804d60e01b82528186816139bd30896004840161371b565b03925af195861561020c576139168a61390b856139108f9761390b8f9161381161010a9f9a889f8f9361382c9f948f959e61381b9f936139069491613a06575b509788916138ed565b613a1f915060203d602011610205576101f781836102bb565b386139fd565b613a3e915060203d602011610205576101f781836102bb565b38613993565b509093505050565b613a65915060203d602011610205576101f781836102bb565b386137b2565b613a986020613a798761231b565b6040518093819263b3d7f6b960e01b8352600483019190602083019252565b03816001600160a01b0387165afa801561020c57613abe91600091613ac4575b5061231b565b956137bb565b613add915060203d602011610205576101f781836102bb565b38613ab8565b9081526001600160a01b0391821660208201529116604082015260600190565b9390613b0e85610f59565b8415908115613d6857613b446020613b2587610c10565b6040518093819263266d6a8360e11b8352600483019190602083019252565b03816001600160a01b0389165afa801561020c57613b6991600091613a4c5750610c10565b94955b613b7585610b94565b5492613b7f615190565b613d60578692918891613b9186614a4d565b91858310613be05750505080613bc085613916613bdb9461381188613bb861010a9b614a4d565b039360801c90565b9687613bcb82610b94565b555b6001600160a01b03166145e0565b611583565b909250613bee919450610f59565b15613cb657613c0361386f613861878661541d565b604051635d043b2960e11b81529260208480613c2430808760048501613ae3565b038160006001600160a01b038c165af1801561020c5761010a956139168461390b8d613811613c7f8f8f8c859b839f613bdb9e61390b94613c869e61381193600091613c97575b509485915b6001600160a01b03169061569e565b9560801c90565b9687613c9182610b94565b55613bcd565b613cb0915060203d602011610205576101f781836102bb565b38613c6b565b613ccf61386f613cc687866155d5565b61395489614667565b604051632d182be560e21b81529060208280613cf030808660048501613ae3565b038160006001600160a01b038c165af191821561020c5761010a956139168561390b8d613811613c7f8f8f8a829e61381161390b93613bdb9f9e899f613c869f600091613d41575b509b8c92613c70565b613d5a915060203d602011610205576101f781836102bb565b38613d38565b509193505050565b613d956020613d768761231b565b60405180938192630a28a47760e01b8352600483019190602083019252565b03816001600160a01b0389165afa801561020c57613dba91600091613ac4575061231b565b95613b6c565b805154906001820180921161094c575155565b9190825191613de682518251908561495c565b613def83611e37565b9360005b848110613e0257505050505090565b80670de0b6b3a7640000613e34613e1b60019486611e69565b51612e8c613e29858a611e69565b51611eeb868a611e69565b04613e3f8289611e69565b5201613df3565b60019060ff611f72611f3a611f3a611f3a611f3f565b60051115610f6357565b906005821015610f635752565b6001600160a01b039182168152911660208201526103fa9590949093612009939092613eb99190613ea8906040890190613e66565b60e0606088015260e08701906103fd565b91608086015284820360a08601526103fd565b926000602094959295613f1f613ee286516100dd565b93608087015196613ef288613e5c565b60a060806060830151930151910151916040519a8b998a9889976345421ec760e01b895260048901613e73565b03926001600160a01b03165af190811561020c57600091613f54575b5015613f4357565b6305975b2960e11b60005260046000fd5b613f6d915060203d6020116120c5576120b781836102bb565b38613f3b565b906080828203126100fa5781516001600160401b0381116100fa5781613f9a9184016121c0565b92602083015192604081015160018060401b0381116100fa57836122b09183016121c0565b93613fe861230d936103fa97959360018060a01b0316875260a0602088015260a08701906103fd565b91604086015284820360608601526103fd565b9092614005611506565b60006060936140126121a1565b916020850196614026885151808652611e37565b926080820192835161403781613e5c565b61404081613e5c565b6142355750506060810151926140568551611e37565b936140738160808a015161406d6123d387516100dd565b90615a98565b905b606084015180821061421b575061408e819a979a615015565b60009660208b0198604086019660608c01995b8d5181101561418b57808f888f6140b8848b611e69565b51906140c382615015565b6140cd8584611e69565b516141775792611add926125096125018794876140f78760a06124f18260c06140fe9e0151611e69565b51916153c2565b614109838c51611e69565b518211614156578e838f8f908f868f8561258795614148946125098361257060019f9e8e6141509f8f909961255586946141429c6145e0565b51612329565b905190610c1f565b016140a1565b90614165611110938c51611e69565b516323b6a17960e21b600052916115a6565b5050826125c86140fe9394611add93611e69565b509650985098919a5098506141a99195509391936125ed85516100dd565b7fa26a52d8d53702bba7f137907b8e1f99ff87f6d450144270ca25e72481cca871846141d585516100dd565b936141ef8a60208801966141e988516100dd565b90615ae0565b6126b46142116123d361420561267a8a516100dd565b9351986110df8a613e5c565b9461269788613e5c565b638d261d5d60e01b60005261111091600452602452604490565b6003849592955161424581613e5c565b61424e81613e5c565b03614270575061425e8751615a6d565b6142688451611e37565b936000614075565b6001845161427d81613e5c565b61428681613e5c565b036142e057506142968751614b77565b6142d9846142a883604086015161580f565b6080890151906142bb6123d386516100dd565b6142c58b51614c07565b916142d3610dc888516100dd565b93615849565b9490614075565b600284516142ed81613e5c565b6142f681613e5c565b0361435657506143068751614b77565b606082015161431485614ba5565b9060408701828152614350612802889460808d0151908d8661433c6127e76123d38d516100dd565b9261434a610dc88d516100dd565b94615722565b52614075565b97506004835161436581613e5c565b61436e81613e5c565b036144125761437d87516156f0565b8761438e610dc8610dc885516100dd565b60608401519060808a0151918360a0870151986143c26040519a8b968795869463e4c4366360e01b86523360048701613fbf565b03925af1801561020c57889089958a80926143e1575b50509894614075565b9250929550506144049298503d8091833e6143fc81836102bb565b810190613f73565b9098919491929038806143d8565b636c02b39560e01b8852600488fd5b60019060ff611f72611f3a611f3a611f3a611f3a611f3f565b6001600160a01b039182168152911660208201526103fa9690959094612a47949093919261449592614487916144749060408b0190613e66565b61010060608a01526101008901906103fd565b9087820360808901526103fd565b9160a086015284820360c08601526103fd565b92939096919695949586516144bc906100dd565b906080880151926144cc84613e5c565b608088015160a08a015191886040519c8d9788976325da41f360e21b895260048901976144f89861443a565b6001600160a01b039093169203815a6000948591f194851561020c576000906000966145c0575b501580156145b4575b6145a357612ae4614538916152e4565b15612b68575060005b8351811015612b62576145548185611e69565b516040840190614565838351611e69565b51106145745750600101614541565b61459182612b4881612b42611add8a9760206111109a0151611e69565b5163677d1d7d60e11b600052916115a6565b63e124916560e01b60005260046000fd5b50845182511415614528565b90506145d89195503d806000833e612ba481836102bb565b94903861451f565b6145ec61010a92614667565b9061468c565b6001600160a01b039091168152602081019190915260400190565b9060005b8251811015614645576001600160a01b0361462c8285611e69565b51166001600160a01b0383161461362d57600101614611565b5063ddef98d760e01b60009081526001600160a01b0391909116600452602490fd5b6001600160ff1b0381116146785790565b63123baf0360e11b60005260045260246000fd5b8115614751577f00000000000000000000000000000000000000000000000000000000000000009060018060a01b031680600052816020526146d5604060002051549384613734565b928361471f57507f000000000000000000000000000000000000000000000000000000000000000080515460001981019190821161094c5751555b60005260205260406000205155565b6147105761474c7f0000000000000000000000000000000000000000000000000000000000000000613dc0565b614710565b5050565b9091906001600160a01b03808416908316036147745750505060001990565b6001600160a01b031660009081526010602052604090206147989261162f91610bc8565b5490565b906040519182815491828252602082019060005260206000209260005b8181106147ce57505061010a925003836102bb565b84546001600160a01b03168352600194850194879450602090930192016147b9565b906147fa8261030c565b61480760405191826102bb565b8281528092614818601f199161030c565b019060005b82811061482957505050565b6020906148346121a1565b8282850101520161481d565b9060405161484d816102a0565b604060ff82945481811661486081610f59565b8452600881901c6001600160a01b0316602085015260a81c161515910152565b606081018051519360005b85811061489a57505050505050565b806148ae611add6001936020880151611e69565b6148c16148bb83896120cc565b54614a4d565b6148cc838751611e69565b51811161490b575b50506148fa6148e4828651611e69565b516148f3836080890151611e69565b51906153d6565b61490482886120cc565b550161488b565b61494d6149549161494761491f8589610bc8565b549161494161492e8460801c90565b9161493a898d51611e69565b5190610c1f565b90612329565b90615d36565b9185610bc8565b5538806148d4565b81148015929190614970575b5050611e2657565b141590503880614968565b90670de0b6b3a7640000820291808304670de0b6b3a7640000149015171561094c57565b8181029291811591840414171561094c57565b80516149bd81610f59565b6149c681610f59565b806149d9575050670de0b6b3a764000090565b806149e5600192610f59565b03614a3c5760206149fd610dc88260049401516100dd565b6040516333cd77e760e11b815292839182905afa90811561020c57600091614a23575090565b6103fa915060203d602011610205576101f781836102bb565b636fa2831960e11b60005260046000fd5b6001600160801b031690565b919081614a6a826060860151611e69565b526080670de0b6b3a7640000614a9d612c4e94612e8c614a8e8660c08a0151611e69565b51611eeb8760a08b0151611e69565b04930151611e69565b9282614ab6836060870151611e69565b52614ac081610f59565b614b47576002915b614ad68260c0860151611e69565b51614ae58360a0870151611e69565b519380600114614b2857600214614b0c57634e487b7160e01b600052605160045260246000fd5b612c4e93611ef2614b1f9260809461499f565b935b0151611e69565b50612c4e93614b3c614b419260809461499f565b615dc0565b93614b21565b600191614ac8565b60019060ff614b5c611f24565b161c1615614b6657565b63033c2a5760e61b60005260046000fd5b60019060ff614b8b611f3a611f3a85611f08565b161c16614b9457565b63353d5de760e21b60005260046000fd5b805190819060005b828110614bd1575050811015614bc05790565b631f91af7760e21b60005260046000fd5b614bdb8183611e69565b51614be9575b600101614bad565b928203614bf65782614be1565b636b8c3be560e01b60005260046000fd5b62ffffff9060ff614c19611f3a61297d565b161c1664174876e80081029080820464174876e800149015171561094c5790565b91906020614c526000926040865260408601906103fd565b930152565b91906020614c526001926040865260408601906103fd565b9094939291815194614c8086611e37565b9160005b878110614e575750614c9a9061275d8985611e69565b614ca48884611e69565b52604051631309bd3d60e31b8152946001600160a01b038216929060208780614cd08860048301614c3a565b0381875afa96871561020c57600097614e36575b50604051631309bd3d60e31b81529060208280614d048660048301614c3a565b0381885afa95861561020c57614d74614d618c61493a614d5a602099614d538f61390b98614daf9f614d478893614d4e92614d7a9f600091614e17575b50615357565b8095615d49565b611e69565b5190614ff2565b9188611e69565b92670de0b6b3a764000081810391100290565b82615357565b92614d898461275d8b85611e69565b614d938a84611e69565b526040518080968194631309bd3d60e31b835260048301614c57565b03915afa90811561020c57614deb95614de593600093614dee575b50614dd7614dde91611e37565b9788611e69565b5283610c1f565b906153a1565b91565b614dde919350614e0f614dd79160203d602011610205576101f781836102bb565b939150614dca565b6020614e3092503d602011610205576101f781836102bb565b38614d41565b614e5091975060203d602011610205576101f781836102bb565b9538614ce4565b80614e6d614e6760019388611e69565b51610c10565b614e778287611e69565b5201614c84565b614e96604092959493956060835260608301906103fd565b9460208201520152565b90949183039183831161094c576020614ee491614ebd8686615357565b90614ec88282615d49565b604051808095819462b5059f60e51b83528c8960048501614e7e565b03916001600160a01b03165afa801561020c57614deb95611ef288614f3893614f4198614f4896600092614f4e575b50614f268261275d61390b94958b611e69565b98614f318d8a611e69565b51906153a1565b93849251611e37565b9586611e69565b52610c1f565b61390b925061275d93614f72614f269260203d602011610205576101f781836102bb565b93509350614f13565b634e487b7160e01b600052601260045260246000fd5b8115614f9b570490565b614f7b565b909291614fad8251611e37565b9160005b8151811015614feb57614fce83614fc88385611e69565b5161499f565b908615614f9b578660019204614fe48287611e69565b5201614fb1565b5050509150565b90614ffc9161499f565b6001670de0b6b3a7640000600019830104019015150290565b8061501d5750565b61010a9061531e565b916150309161499f565b90670de0b6b3a7640000810290808204670de0b6b3a7640000149015171561094c578115614f9b570490565b919492909460009560009581615073575050505050565b8497506124fa61508c8260c06150989697980151611e69565b519160a08a0151611e69565b946150a38151615cd1565b156150b0575b80806115d5565b62ffffff91929450516150c1615c72565b1c1664174876e80081029080820464174876e800149015171561094c576150e89085615dc0565b9284841161512a578061162f61511b6151076151219461162f87610b7a565b546151158861381183614a4d565b90615dd3565b93610b7a565b553880806150a9565b634c69ac5d60e01b60005260046000fd5b6001600160a01b03166000908152600560205260408120919291905b6060840151805182101561518957906151756148e482600194611e69565b816000528360205260406000205501615157565b5050509050565b32158061519a5790565b506001600754161590565b90326151d8576151c99160018060a01b0316600052600f6020526040600020610bc8565b805491820180921161094c5755565b6333fc255960e11b60005260046000fd5b90916001600160a01b03831691821561183e576152098461162f83610b60565b548083116152cd578290036152218561162f84610b60565b556152358261522f83610bae565b54610c1f565b61523e81615de1565b61524782610bae565b556001600160a01b031690813b156100fa576040516323de665160e01b81526001600160a01b039490941660048501526000602485018190526044850182905293600080516020616018833981519152916152ba91868160648183895af16152bf57506040519081529081906020820190565b0390a4565b806116c5886116cb936102bb565b63391434e360e21b600052611110908390866115a6565b60019060ff611f72611f3a611f3a611f3a611f24565b670de0b6b3a76400008082040281036153105790565b6001810180911161094c5790565b7f00000000000000000000000000000000000000000000000000000000000000001161534657565b6303da9a2360e31b60005260046000fd5b90801561539057670de0b6b3a7640000820291808304670de0b6b3a7640000149015171561094c57600190600019830104019015150290565b630a0c22c760e01b60005260046000fd5b8215615390576001916153b39161499f565b91600019830104019015150290565b906103fa926153d09161499f565b90615357565b906001600160801b038211801561540d575b6153fc5760801b90810180911161094c5790565b6389560ca160e01b60005260046000fd5b506001600160801b0381116153e8565b9061542a8260801c614667565b6000929091906001600160801b031680615451575b505060029161544d91613702565b0590565b604051630a28a47760e01b815260048101919091529250602090839060249082906001600160a01b03165afa90811561020c5761549c61544d926002946000916154a5575b50614667565b9281925061543f565b6154be915060203d602011610205576101f781836102bb565b38615496565b600081126154cf5790565b635467221960e11b60005260045260246000fd5b604051906020600081840163095ea7b360e01b81526155188561550a8489602484016145f2565b03601f1981018752866102bb565b84519082855af1600051903d8161557f575b501590505b61553857505050565b60405163095ea7b360e01b60208201526001600160a01b039390931660248401526000604480850191909152835261010a92610931906155796064826102bb565b82615bb4565b1515905061559f575061552f6001600160a01b0382163b15155b3861552a565b600161552f9114615599565b91909160206000604051936155188561550a8582019363095ea7b360e01b855289602484016145f2565b906155e86001600160801b038316614667565b9060009260801c8061560257505060029161544d91613702565b60405163b3d7f6b960e01b815260048101919091529250602090839060249082906001600160a01b03165afa90811561020c5761549c61544d926002946000916154a55750614667565b6001600160a01b03811660009081526008602052604090205490939281039190821161094c576001600160a01b03811660009081526008602052604090205492830192831061094c5761010a93615e02565b6001600160a01b03811660009081526008602052604090205490939281019190821061094c576001600160a01b03811660009081526008602052604090205492830392831161094c5761010a93615e02565b60019060ff615707611f3a611f3a611f3a86611f08565b161c161561571157565b63121db02f60e21b60005260046000fd5b90946020615734856157669695612329565b9161573f8584615357565b9061574a8282615f7e565b604051808098819462b5059f60e51b83528c8960048501614e7e565b03916001600160a01b03165afa93841561020c57614deb9561390b614d74614d6186614f41998c996157d2988b614f38996000946157d8575b50906157c66157bf6157b86157cd946125819798611e69565b5187610c1f565b9d8d611e69565b519061499f565b614f91565b52612329565b61258194506157bf6157b86157cd94936158036157c69460203d602011610205576101f781836102bb565b9750939450505061579f565b602081519161581f845184611e1f565b8180820194019260051b0101915b82811061583957505050565b805182526020918201910161582d565b91929093825161585881611e37565b9261586282611e37565b9660005b838110615a32575050604051631309bd3d60e31b8152946001600160a01b03841693906020878061589a8460048301614c3a565b0381885afa96871561020c57600097615a11575b50604051631309bd3d60e31b8152602081806158cd8a60048301614c57565b0381895afa90811561020c57886157cd6158fa936158f3936000916159f2575b5061497b565b8093615f7e565b60005b84811061597557505050505061592b916020916040518080958194631309bd3d60e31b835260048301614c57565b03915afa92831561020c5761595083614deb956157cd94600091615956575b50610c1f565b9061499f565b61596f915060203d602011610205576101f781836102bb565b3861594a565b8061598c61598560019385611e69565b5185615dc0565b8581615998848c611e69565b51116159a7575b5050016158fd565b6159bc916159b5848c611e69565b5103614ff2565b6159c6828d611e69565b526159e08b61493a836159d9818d611e69565b5192611e69565b6159ea828a611e69565b52388561599f565b615a0b915060203d602011610205576101f781836102bb565b386158ed565b615a2b91975060203d602011610205576101f781836102bb565b95386158ae565b80615a5c615a57615a456001948b611e69565b51615a508487611e69565b5190612329565b610c10565b615a668289611e69565b5201615866565b60019060ff615a7d611f3a611f24565b161c1615615a8757565b63efe0265d60e01b60005260046000fd5b9291615aa48451611e37565b9360005b8151811015615ada5780615ac98585615ac360019587611e69565b516153a1565b615ad38289611e69565b5201615aa8565b50505050565b6001600160a01b03821692908315615ba057615b0582615aff83610bae565b54612329565b615b128461162f84610b60565b838154019055615b2181615de1565b615b2a82610bae565b5560018060a01b03169260008460008051602061601883398151915260405180615b5987829190602083019252565b0390a4823b156100fa576040516323de665160e01b81526000600482018190526001600160a01b0390931660248201526044810191909152918290818381606481016117f3565b63ec442f0560e01b60005261111083610969565b906000602091828151910182855af115610bee576000513d615c0657506001600160a01b0381163b155b615be55750565b635274afe760e01b60009081526001600160a01b0391909116600452602490fd5b60011415615bde565b9064ffffffffff615c1f82611e37565b92615c2861600f565b1c1660005b828110615c3a5750505090565b600581028181046005148215171561094c5782601f911c1690604d821161094c57600191600a0a615c6b8287611e69565b5201615c2d565b60ff615c7f611f3a61297d565b166018810180911161094c5790565b615c96615c72565b6018810180911161094c5790565b62ffffff90615cb1615c8e565b1c1664174876e80081029080820464174876e800149015171561094c5790565b60019060ff611f72611f3a84611f08565b909392600094615cf6846080850151611e69565b51818111615d05575050505050565b615d2b95965091615d1a916124fa9303614ff2565b9260a06124f18260c0860151611e69565b9038808080806115d5565b6103fa91906001600160801b03166153d6565b604051635b3bfd2b60e11b81529190602090839060049082906001600160a01b03165afa91821561020c57600092615d9f575b50818110615d88575050565b63718e4adf60e11b60005260045260245260446000fd5b615db991925060203d602011610205576101f781836102bb565b9038615d7c565b670de0b6b3a764000091612e919161499f565b906103fa9160801c906153d6565b620f42408110615dee5750565b6334e3483f60e21b60005260045260246000fd5b6040516370a0823160e01b8152919260208380615e22306004830161097a565b03816001600160a01b0386165afa92831561020c57600093615efc575b50808310615edc5750615e5190610b12565b556040516370a0823160e01b8152916001600160a01b03821660208480615e7b306004830161097a565b0381845afa93841561020c57600094615ebb575b50818410615ea5575050615ea290610b12565b55565b631149424d60e01b6000526111109392506115a6565b615ed591945060203d602011610205576101f781836102bb565b9238615e8f565b631c6a537560e01b600052611110939091506001600160a01b03166115a6565b615f1691935060203d602011610205576101f781836102bb565b9138615e3f565b90615f435750805115615f3257805190602001fd5b63d6bda27560e01b60005260046000fd5b81511580615f75575b615f54575090565b639996b31560e01b60009081526001600160a01b0391909116600452602490fd5b50803b15615f4c565b60405163273c1adf60e01b81529190602090839060049082906001600160a01b03165afa91821561020c57600092615fd4575b50818111615fbd575050565b630fa2583760e21b60005260045260245260446000fd5b615fee91925060203d602011610205576101f781836102bb565b9038615fb1565b9063ffffffff8091169116019063ffffffff821161094c57565b615c96615c8e56fed1398bee19313d6bf672ccb116e51f4a1a947e91c757907f51fbb5b5e56c698f9b779b17422d0df92223018b32b4d1fa46e071723d6817e2486d003becc55f00a264697066735822122086008c462c80e345efac68c94a34186037ae4d7ebc4d37824cd8b9b375b8ddb964736f6c634300081a0033",
  "linkReferences": {},
  "deployedLinkReferences": {}
}