{
  "_format": "hh-sol-artifact-1",
  "contractName": "Vault",
  "sourceName": "contracts/_Vault.sol",
  "abi": [
    {
      "inputs": [
        {
          "internalType": "contract IVaultExtension",
          "name": "vaultExtension",
          "type": "address"
        },
        {
          "internalType": "contract IAuthorizer",
          "name": "authorizer",
          "type": "address"
        },
        {
          "internalType": "contract IProtocolFeeController",
          "name": "protocolFeeController",
          "type": "address"
        }
      ],
      "stateMutability": "nonpayable",
      "type": "constructor"
    },
    {
      "inputs": [
        {
          "internalType": "address",
          "name": "target",
          "type": "address"
        }
      ],
      "name": "AddressEmptyCode",
      "type": "error"
    },
    {
      "inputs": [],
      "name": "AfterAddLiquidityHookFailed",
      "type": "error"
    },
    {
      "inputs": [],
      "name": "AfterInitializeHookFailed",
      "type": "error"
    },
    {
      "inputs": [],
      "name": "AfterRemoveLiquidityHookFailed",
      "type": "error"
    },
    {
      "inputs": [],
      "name": "AfterSwapHookFailed",
      "type": "error"
    },
    {
      "inputs": [],
      "name": "AllZeroInputs",
      "type": "error"
    },
    {
      "inputs": [],
      "name": "AmountGivenZero",
      "type": "error"
    },
    {
      "inputs": [
        {
          "internalType": "contract IERC20",
          "name": "tokenIn",
          "type": "address"
        },
        {
          "internalType": "uint256",
          "name": "amountIn",
          "type": "uint256"
        },
        {
          "internalType": "uint256",
          "name": "maxAmountIn",
          "type": "uint256"
        }
      ],
      "name": "AmountInAboveMax",
      "type": "error"
    },
    {
      "inputs": [
        {
          "internalType": "contract IERC20",
          "name": "tokenOut",
          "type": "address"
        },
        {
          "internalType": "uint256",
          "name": "amountOut",
          "type": "uint256"
        },
        {
          "internalType": "uint256",
          "name": "minAmountOut",
          "type": "uint256"
        }
      ],
      "name": "AmountOutBelowMin",
      "type": "error"
    },
    {
      "inputs": [],
      "name": "BalanceNotSettled",
      "type": "error"
    },
    {
      "inputs": [],
      "name": "BalanceOverflow",
      "type": "error"
    },
    {
      "inputs": [],
      "name": "BeforeAddLiquidityHookFailed",
      "type": "error"
    },
    {
      "inputs": [],
      "name": "BeforeInitializeHookFailed",
      "type": "error"
    },
    {
      "inputs": [],
      "name": "BeforeRemoveLiquidityHookFailed",
      "type": "error"
    },
    {
      "inputs": [],
      "name": "BeforeSwapHookFailed",
      "type": "error"
    },
    {
      "inputs": [
        {
          "internalType": "uint256",
          "name": "amountIn",
          "type": "uint256"
        },
        {
          "internalType": "uint256",
          "name": "maxAmountIn",
          "type": "uint256"
        }
      ],
      "name": "BptAmountInAboveMax",
      "type": "error"
    },
    {
      "inputs": [
        {
          "internalType": "uint256",
          "name": "amountOut",
          "type": "uint256"
        },
        {
          "internalType": "uint256",
          "name": "minAmountOut",
          "type": "uint256"
        }
      ],
      "name": "BptAmountOutBelowMin",
      "type": "error"
    },
    {
      "inputs": [
        {
          "internalType": "contract IERC4626",
          "name": "wrappedToken",
          "type": "address"
        }
      ],
      "name": "BufferAlreadyInitialized",
      "type": "error"
    },
    {
      "inputs": [
        {
          "internalType": "contract IERC4626",
          "name": "wrappedToken",
          "type": "address"
        }
      ],
      "name": "BufferNotInitialized",
      "type": "error"
    },
    {
      "inputs": [],
      "name": "BufferSharesInvalidOwner",
      "type": "error"
    },
    {
      "inputs": [],
      "name": "BufferSharesInvalidReceiver",
      "type": "error"
    },
    {
      "inputs": [
        {
          "internalType": "uint256",
          "name": "totalSupply",
          "type": "uint256"
        }
      ],
      "name": "BufferTotalSupplyTooLow",
      "type": "error"
    },
    {
      "inputs": [],
      "name": "CannotReceiveEth",
      "type": "error"
    },
    {
      "inputs": [],
      "name": "CannotSwapSameToken",
      "type": "error"
    },
    {
      "inputs": [],
      "name": "DoesNotSupportAddLiquidityCustom",
      "type": "error"
    },
    {
      "inputs": [],
      "name": "DoesNotSupportDonation",
      "type": "error"
    },
    {
      "inputs": [],
      "name": "DoesNotSupportRemoveLiquidityCustom",
      "type": "error"
    },
    {
      "inputs": [],
      "name": "DoesNotSupportUnbalancedLiquidity",
      "type": "error"
    },
    {
      "inputs": [],
      "name": "DynamicSwapFeeHookFailed",
      "type": "error"
    },
    {
      "inputs": [
        {
          "internalType": "address",
          "name": "spender",
          "type": "address"
        },
        {
          "internalType": "uint256",
          "name": "allowance",
          "type": "uint256"
        },
        {
          "internalType": "uint256",
          "name": "needed",
          "type": "uint256"
        }
      ],
      "name": "ERC20InsufficientAllowance",
      "type": "error"
    },
    {
      "inputs": [
        {
          "internalType": "address",
          "name": "sender",
          "type": "address"
        },
        {
          "internalType": "uint256",
          "name": "balance",
          "type": "uint256"
        },
        {
          "internalType": "uint256",
          "name": "needed",
          "type": "uint256"
        }
      ],
      "name": "ERC20InsufficientBalance",
      "type": "error"
    },
    {
      "inputs": [
        {
          "internalType": "address",
          "name": "approver",
          "type": "address"
        }
      ],
      "name": "ERC20InvalidApprover",
      "type": "error"
    },
    {
      "inputs": [
        {
          "internalType": "address",
          "name": "receiver",
          "type": "address"
        }
      ],
      "name": "ERC20InvalidReceiver",
      "type": "error"
    },
    {
      "inputs": [
        {
          "internalType": "address",
          "name": "sender",
          "type": "address"
        }
      ],
      "name": "ERC20InvalidSender",
      "type": "error"
    },
    {
      "inputs": [
        {
          "internalType": "address",
          "name": "spender",
          "type": "address"
        }
      ],
      "name": "ERC20InvalidSpender",
      "type": "error"
    },
    {
      "inputs": [],
      "name": "FailedCall",
      "type": "error"
    },
    {
      "inputs": [],
      "name": "FeePrecisionTooHigh",
      "type": "error"
    },
    {
      "inputs": [
        {
          "internalType": "contract IERC20",
          "name": "tokenIn",
          "type": "address"
        },
        {
          "internalType": "uint256",
          "name": "amountIn",
          "type": "uint256"
        },
        {
          "internalType": "uint256",
          "name": "maxAmountIn",
          "type": "uint256"
        }
      ],
      "name": "HookAdjustedAmountInAboveMax",
      "type": "error"
    },
    {
      "inputs": [
        {
          "internalType": "contract IERC20",
          "name": "tokenOut",
          "type": "address"
        },
        {
          "internalType": "uint256",
          "name": "amountOut",
          "type": "uint256"
        },
        {
          "internalType": "uint256",
          "name": "minAmountOut",
          "type": "uint256"
        }
      ],
      "name": "HookAdjustedAmountOutBelowMin",
      "type": "error"
    },
    {
      "inputs": [
        {
          "internalType": "uint256",
          "name": "amount",
          "type": "uint256"
        },
        {
          "internalType": "uint256",
          "name": "limit",
          "type": "uint256"
        }
      ],
      "name": "HookAdjustedSwapLimit",
      "type": "error"
    },
    {
      "inputs": [
        {
          "internalType": "address",
          "name": "poolHooksContract",
          "type": "address"
        },
        {
          "internalType": "address",
          "name": "pool",
          "type": "address"
        },
        {
          "internalType": "address",
          "name": "poolFactory",
          "type": "address"
        }
      ],
      "name": "HookRegistrationFailed",
      "type": "error"
    },
    {
      "inputs": [],
      "name": "InputLengthMismatch",
      "type": "error"
    },
    {
      "inputs": [
        {
          "internalType": "uint256",
          "name": "balance",
          "type": "uint256"
        },
        {
          "internalType": "uint256",
          "name": "needed",
          "type": "uint256"
        }
      ],
      "name": "InsufficientBalance",
      "type": "error"
    },
    {
      "inputs": [],
      "name": "InvalidAddLiquidityKind",
      "type": "error"
    },
    {
      "inputs": [],
      "name": "InvalidRemoveLiquidityKind",
      "type": "error"
    },
    {
      "inputs": [],
      "name": "InvalidToken",
      "type": "error"
    },
    {
      "inputs": [],
      "name": "InvalidTokenConfiguration",
      "type": "error"
    },
    {
      "inputs": [],
      "name": "InvalidTokenDecimals",
      "type": "error"
    },
    {
      "inputs": [],
      "name": "InvalidTokenType",
      "type": "error"
    },
    {
      "inputs": [
        {
          "internalType": "contract IERC4626",
          "name": "wrappedToken",
          "type": "address"
        }
      ],
      "name": "InvalidUnderlyingToken",
      "type": "error"
    },
    {
      "inputs": [
        {
          "internalType": "uint256",
          "name": "invariantRatio",
          "type": "uint256"
        },
        {
          "internalType": "uint256",
          "name": "maxInvariantRatio",
          "type": "uint256"
        }
      ],
      "name": "InvariantRatioAboveMax",
      "type": "error"
    },
    {
      "inputs": [
        {
          "internalType": "uint256",
          "name": "invariantRatio",
          "type": "uint256"
        },
        {
          "internalType": "uint256",
          "name": "minInvariantRatio",
          "type": "uint256"
        }
      ],
      "name": "InvariantRatioBelowMin",
      "type": "error"
    },
    {
      "inputs": [
        {
          "internalType": "uint256",
          "name": "issuedShares",
          "type": "uint256"
        },
        {
          "internalType": "uint256",
          "name": "minIssuedShares",
          "type": "uint256"
        }
      ],
      "name": "IssuedSharesBelowMin",
      "type": "error"
    },
    {
      "inputs": [],
      "name": "MaxTokens",
      "type": "error"
    },
    {
      "inputs": [],
      "name": "MinTokens",
      "type": "error"
    },
    {
      "inputs": [],
      "name": "MultipleNonZeroInputs",
      "type": "error"
    },
    {
      "inputs": [],
      "name": "NotEnoughBufferShares",
      "type": "error"
    },
    {
      "inputs": [
        {
          "internalType": "contract IERC4626",
          "name": "wrappedToken",
          "type": "address"
        },
        {
          "internalType": "uint256",
          "name": "expectedUnderlyingAmount",
          "type": "uint256"
        },
        {
          "internalType": "uint256",
          "name": "actualUnderlyingAmount",
          "type": "uint256"
        }
      ],
      "name": "NotEnoughUnderlying",
      "type": "error"
    },
    {
      "inputs": [
        {
          "internalType": "contract IERC4626",
          "name": "wrappedToken",
          "type": "address"
        },
        {
          "internalType": "uint256",
          "name": "expectedWrappedAmount",
          "type": "uint256"
        },
        {
          "internalType": "uint256",
          "name": "actualWrappedAmount",
          "type": "uint256"
        }
      ],
      "name": "NotEnoughWrapped",
      "type": "error"
    },
    {
      "inputs": [],
      "name": "NotStaticCall",
      "type": "error"
    },
    {
      "inputs": [],
      "name": "NotVaultDelegateCall",
      "type": "error"
    },
    {
      "inputs": [],
      "name": "PauseBufferPeriodDurationTooLarge",
      "type": "error"
    },
    {
      "inputs": [],
      "name": "PercentageAboveMax",
      "type": "error"
    },
    {
      "inputs": [
        {
          "internalType": "address",
          "name": "pool",
          "type": "address"
        }
      ],
      "name": "PoolAlreadyInitialized",
      "type": "error"
    },
    {
      "inputs": [
        {
          "internalType": "address",
          "name": "pool",
          "type": "address"
        }
      ],
      "name": "PoolAlreadyRegistered",
      "type": "error"
    },
    {
      "inputs": [
        {
          "internalType": "address",
          "name": "pool",
          "type": "address"
        }
      ],
      "name": "PoolInRecoveryMode",
      "type": "error"
    },
    {
      "inputs": [
        {
          "internalType": "address",
          "name": "pool",
          "type": "address"
        }
      ],
      "name": "PoolNotInRecoveryMode",
      "type": "error"
    },
    {
      "inputs": [
        {
          "internalType": "address",
          "name": "pool",
          "type": "address"
        }
      ],
      "name": "PoolNotInitialized",
      "type": "error"
    },
    {
      "inputs": [
        {
          "internalType": "address",
          "name": "pool",
          "type": "address"
        }
      ],
      "name": "PoolNotPaused",
      "type": "error"
    },
    {
      "inputs": [
        {
          "internalType": "address",
          "name": "pool",
          "type": "address"
        }
      ],
      "name": "PoolNotRegistered",
      "type": "error"
    },
    {
      "inputs": [
        {
          "internalType": "address",
          "name": "pool",
          "type": "address"
        }
      ],
      "name": "PoolPauseWindowExpired",
      "type": "error"
    },
    {
      "inputs": [
        {
          "internalType": "address",
          "name": "pool",
          "type": "address"
        }
      ],
      "name": "PoolPaused",
      "type": "error"
    },
    {
      "inputs": [
        {
          "internalType": "uint256",
          "name": "totalSupply",
          "type": "uint256"
        }
      ],
      "name": "PoolTotalSupplyTooLow",
      "type": "error"
    },
    {
      "inputs": [],
      "name": "ProtocolFeesExceedTotalCollected",
      "type": "error"
    },
    {
      "inputs": [],
      "name": "QueriesDisabled",
      "type": "error"
    },
    {
      "inputs": [],
      "name": "QueriesDisabledPermanently",
      "type": "error"
    },
    {
      "inputs": [],
      "name": "QuoteResultSpoofed",
      "type": "error"
    },
    {
      "inputs": [],
      "name": "ReentrancyGuardReentrantCall",
      "type": "error"
    },
    {
      "inputs": [],
      "name": "RouterNotTrusted",
      "type": "error"
    },
    {
      "inputs": [
        {
          "internalType": "uint256",
          "name": "value",
          "type": "uint256"
        }
      ],
      "name": "SafeCastOverflowedUintToInt",
      "type": "error"
    },
    {
      "inputs": [
        {
          "internalType": "address",
          "name": "token",
          "type": "address"
        }
      ],
      "name": "SafeERC20FailedOperation",
      "type": "error"
    },
    {
      "inputs": [
        {
          "internalType": "address",
          "name": "sender",
          "type": "address"
        }
      ],
      "name": "SenderIsNotVault",
      "type": "error"
    },
    {
      "inputs": [],
      "name": "SwapFeePercentageTooHigh",
      "type": "error"
    },
    {
      "inputs": [],
      "name": "SwapFeePercentageTooLow",
      "type": "error"
    },
    {
      "inputs": [
        {
          "internalType": "uint256",
          "name": "amount",
          "type": "uint256"
        },
        {
          "internalType": "uint256",
          "name": "limit",
          "type": "uint256"
        }
      ],
      "name": "SwapLimit",
      "type": "error"
    },
    {
      "inputs": [
        {
          "internalType": "contract IERC20",
          "name": "token",
          "type": "address"
        }
      ],
      "name": "TokenAlreadyRegistered",
      "type": "error"
    },
    {
      "inputs": [
        {
          "internalType": "contract IERC20",
          "name": "token",
          "type": "address"
        }
      ],
      "name": "TokenNotRegistered",
      "type": "error"
    },
    {
      "inputs": [
        {
          "internalType": "address",
          "name": "pool",
          "type": "address"
        },
        {
          "internalType": "address",
          "name": "expectedToken",
          "type": "address"
        },
        {
          "internalType": "address",
          "name": "actualToken",
          "type": "address"
        }
      ],
      "name": "TokensMismatch",
      "type": "error"
    },
    {
      "inputs": [],
      "name": "TradeAmountTooSmall",
      "type": "error"
    },
    {
      "inputs": [],
      "name": "VaultBuffersArePaused",
      "type": "error"
    },
    {
      "inputs": [],
      "name": "VaultIsNotUnlocked",
      "type": "error"
    },
    {
      "inputs": [],
      "name": "VaultNotPaused",
      "type": "error"
    },
    {
      "inputs": [],
      "name": "VaultPauseWindowDurationTooLarge",
      "type": "error"
    },
    {
      "inputs": [],
      "name": "VaultPauseWindowExpired",
      "type": "error"
    },
    {
      "inputs": [],
      "name": "VaultPaused",
      "type": "error"
    },
    {
      "inputs": [
        {
          "internalType": "contract IERC4626",
          "name": "wrappedToken",
          "type": "address"
        }
      ],
      "name": "WrapAmountTooSmall",
      "type": "error"
    },
    {
      "inputs": [],
      "name": "WrongProtocolFeeControllerDeployment",
      "type": "error"
    },
    {
      "inputs": [
        {
          "internalType": "contract IERC4626",
          "name": "wrappedToken",
          "type": "address"
        },
        {
          "internalType": "address",
          "name": "underlyingToken",
          "type": "address"
        }
      ],
      "name": "WrongUnderlyingToken",
      "type": "error"
    },
    {
      "inputs": [],
      "name": "WrongVaultAdminDeployment",
      "type": "error"
    },
    {
      "inputs": [],
      "name": "WrongVaultExtensionDeployment",
      "type": "error"
    },
    {
      "inputs": [],
      "name": "ZeroDivision",
      "type": "error"
    },
    {
      "anonymous": false,
      "inputs": [
        {
          "indexed": true,
          "internalType": "address",
          "name": "pool",
          "type": "address"
        },
        {
          "indexed": false,
          "internalType": "uint256",
          "name": "aggregateSwapFeePercentage",
          "type": "uint256"
        }
      ],
      "name": "AggregateSwapFeePercentageChanged",
      "type": "event"
    },
    {
      "anonymous": false,
      "inputs": [
        {
          "indexed": true,
          "internalType": "address",
          "name": "pool",
          "type": "address"
        },
        {
          "indexed": false,
          "internalType": "uint256",
          "name": "aggregateYieldFeePercentage",
          "type": "uint256"
        }
      ],
      "name": "AggregateYieldFeePercentageChanged",
      "type": "event"
    },
    {
      "anonymous": false,
      "inputs": [
        {
          "indexed": true,
          "internalType": "address",
          "name": "pool",
          "type": "address"
        },
        {
          "indexed": true,
          "internalType": "address",
          "name": "owner",
          "type": "address"
        },
        {
          "indexed": true,
          "internalType": "address",
          "name": "spender",
          "type": "address"
        },
        {
          "indexed": false,
          "internalType": "uint256",
          "name": "value",
          "type": "uint256"
        }
      ],
      "name": "Approval",
      "type": "event"
    },
    {
      "anonymous": false,
      "inputs": [
        {
          "indexed": true,
          "internalType": "contract IAuthorizer",
          "name": "newAuthorizer",
          "type": "address"
        }
      ],
      "name": "AuthorizerChanged",
      "type": "event"
    },
    {
      "anonymous": false,
      "inputs": [
        {
          "indexed": true,
          "internalType": "contract IERC4626",
          "name": "wrappedToken",
          "type": "address"
        },
        {
          "indexed": true,
          "internalType": "address",
          "name": "from",
          "type": "address"
        },
        {
          "indexed": false,
          "internalType": "uint256",
          "name": "burnedShares",
          "type": "uint256"
        }
      ],
      "name": "BufferSharesBurned",
      "type": "event"
    },
    {
      "anonymous": false,
      "inputs": [
        {
          "indexed": true,
          "internalType": "contract IERC4626",
          "name": "wrappedToken",
          "type": "address"
        },
        {
          "indexed": true,
          "internalType": "address",
          "name": "to",
          "type": "address"
        },
        {
          "indexed": false,
          "internalType": "uint256",
          "name": "issuedShares",
          "type": "uint256"
        }
      ],
      "name": "BufferSharesMinted",
      "type": "event"
    },
    {
      "anonymous": false,
      "inputs": [
        {
          "indexed": true,
          "internalType": "address",
          "name": "pool",
          "type": "address"
        },
        {
          "indexed": true,
          "internalType": "address",
          "name": "liquidityProvider",
          "type": "address"
        },
        {
          "indexed": true,
          "internalType": "enum AddLiquidityKind",
          "name": "kind",
          "type": "uint8"
        },
        {
          "indexed": false,
          "internalType": "uint256",
          "name": "totalSupply",
          "type": "uint256"
        },
        {
          "indexed": false,
          "internalType": "uint256[]",
          "name": "amountsAddedRaw",
          "type": "uint256[]"
        },
        {
          "indexed": false,
          "internalType": "uint256[]",
          "name": "swapFeeAmountsRaw",
          "type": "uint256[]"
        }
      ],
      "name": "LiquidityAdded",
      "type": "event"
    },
    {
      "anonymous": false,
      "inputs": [
        {
          "indexed": true,
          "internalType": "contract IERC4626",
          "name": "wrappedToken",
          "type": "address"
        },
        {
          "indexed": false,
          "internalType": "uint256",
          "name": "amountUnderlying",
          "type": "uint256"
        },
        {
          "indexed": false,
          "internalType": "uint256",
          "name": "amountWrapped",
          "type": "uint256"
        },
        {
          "indexed": false,
          "internalType": "bytes32",
          "name": "bufferBalances",
          "type": "bytes32"
        }
      ],
      "name": "LiquidityAddedToBuffer",
      "type": "event"
    },
    {
      "anonymous": false,
      "inputs": [
        {
          "indexed": true,
          "internalType": "address",
          "name": "pool",
          "type": "address"
        },
        {
          "indexed": true,
          "internalType": "address",
          "name": "liquidityProvider",
          "type": "address"
        },
        {
          "indexed": true,
          "internalType": "enum RemoveLiquidityKind",
          "name": "kind",
          "type": "uint8"
        },
        {
          "indexed": false,
          "internalType": "uint256",
          "name": "totalSupply",
          "type": "uint256"
        },
        {
          "indexed": false,
          "internalType": "uint256[]",
          "name": "amountsRemovedRaw",
          "type": "uint256[]"
        },
        {
          "indexed": false,
          "internalType": "uint256[]",
          "name": "swapFeeAmountsRaw",
          "type": "uint256[]"
        }
      ],
      "name": "LiquidityRemoved",
      "type": "event"
    },
    {
      "anonymous": false,
      "inputs": [
        {
          "indexed": true,
          "internalType": "contract IERC4626",
          "name": "wrappedToken",
          "type": "address"
        },
        {
          "indexed": false,
          "internalType": "uint256",
          "name": "amountUnderlying",
          "type": "uint256"
        },
        {
          "indexed": false,
          "internalType": "uint256",
          "name": "amountWrapped",
          "type": "uint256"
        },
        {
          "indexed": false,
          "internalType": "bytes32",
          "name": "bufferBalances",
          "type": "bytes32"
        }
      ],
      "name": "LiquidityRemovedFromBuffer",
      "type": "event"
    },
    {
      "anonymous": false,
      "inputs": [
        {
          "indexed": true,
          "internalType": "address",
          "name": "pool",
          "type": "address"
        },
        {
          "indexed": true,
          "internalType": "address",
          "name": "token",
          "type": "address"
        },
        {
          "indexed": false,
          "internalType": "uint256",
          "name": "tokenIndex",
          "type": "uint256"
        }
      ],
      "name": "NewTokenAdded",
      "type": "event"
    },
    {
      "anonymous": false,
      "inputs": [
        {
          "indexed": true,
          "internalType": "address",
          "name": "pool",
          "type": "address"
        }
      ],
      "name": "PoolInitialized",
      "type": "event"
    },
    {
      "anonymous": false,
      "inputs": [
        {
          "indexed": true,
          "internalType": "address",
          "name": "pool",
          "type": "address"
        },
        {
          "indexed": false,
          "internalType": "bool",
          "name": "paused",
          "type": "bool"
        }
      ],
      "name": "PoolPausedStateChanged",
      "type": "event"
    },
    {
      "anonymous": false,
      "inputs": [
        {
          "indexed": true,
          "internalType": "address",
          "name": "pool",
          "type": "address"
        },
        {
          "indexed": false,
          "internalType": "bool",
          "name": "recoveryMode",
          "type": "bool"
        }
      ],
      "name": "PoolRecoveryModeStateChanged",
      "type": "event"
    },
    {
      "anonymous": false,
      "inputs": [
        {
          "indexed": true,
          "internalType": "address",
          "name": "pool",
          "type": "address"
        },
        {
          "indexed": true,
          "internalType": "address",
          "name": "factory",
          "type": "address"
        },
        {
          "components": [
            {
              "internalType": "contract IERC20",
              "name": "token",
              "type": "address"
            },
            {
              "internalType": "uint256",
              "name": "chainId",
              "type": "uint256"
            },
            {
              "internalType": "enum TokenType",
              "name": "tokenType",
              "type": "uint8"
            },
            {
              "internalType": "contract IRateProvider",
              "name": "rateProvider",
              "type": "address"
            },
            {
              "internalType": "bool",
              "name": "paysYieldFees",
              "type": "bool"
            }
          ],
          "indexed": false,
          "internalType": "struct TokenConfig[]",
          "name": "tokenConfig",
          "type": "tuple[]"
        },
        {
          "indexed": false,
          "internalType": "uint256",
          "name": "swapFeePercentage",
          "type": "uint256"
        },
        {
          "indexed": false,
          "internalType": "uint32",
          "name": "pauseWindowEndTime",
          "type": "uint32"
        },
        {
          "components": [
            {
              "internalType": "address",
              "name": "pauseManager",
              "type": "address"
            },
            {
              "internalType": "address",
              "name": "swapFeeManager",
              "type": "address"
            },
            {
              "internalType": "address",
              "name": "poolCreator",
              "type": "address"
            }
          ],
          "indexed": false,
          "internalType": "struct PoolRoleAccounts",
          "name": "roleAccounts",
          "type": "tuple"
        },
        {
          "components": [
            {
              "internalType": "bool",
              "name": "enableHookAdjustedAmounts",
              "type": "bool"
            },
            {
              "internalType": "bool",
              "name": "shouldCallBeforeInitialize",
              "type": "bool"
            },
            {
              "internalType": "bool",
              "name": "shouldCallAfterInitialize",
              "type": "bool"
            },
            {
              "internalType": "bool",
              "name": "shouldCallComputeDynamicSwapFee",
              "type": "bool"
            },
            {
              "internalType": "bool",
              "name": "shouldCallBeforeSwap",
              "type": "bool"
            },
            {
              "internalType": "bool",
              "name": "shouldCallAfterSwap",
              "type": "bool"
            },
            {
              "internalType": "bool",
              "name": "shouldCallBeforeAddLiquidity",
              "type": "bool"
            },
            {
              "internalType": "bool",
              "name": "shouldCallAfterAddLiquidity",
              "type": "bool"
            },
            {
              "internalType": "bool",
              "name": "shouldCallBeforeRemoveLiquidity",
              "type": "bool"
            },
            {
              "internalType": "bool",
              "name": "shouldCallAfterRemoveLiquidity",
              "type": "bool"
            },
            {
              "internalType": "address",
              "name": "hooksContract",
              "type": "address"
            }
          ],
          "indexed": false,
          "internalType": "struct HooksConfig",
          "name": "hooksConfig",
          "type": "tuple"
        },
        {
          "components": [
            {
              "internalType": "bool",
              "name": "disableUnbalancedLiquidity",
              "type": "bool"
            },
            {
              "internalType": "bool",
              "name": "enableAddLiquidityCustom",
              "type": "bool"
            },
            {
              "internalType": "bool",
              "name": "enableRemoveLiquidityCustom",
              "type": "bool"
            },
            {
              "internalType": "bool",
              "name": "enableDonation",
              "type": "bool"
            }
          ],
          "indexed": false,
          "internalType": "struct LiquidityManagement",
          "name": "liquidityManagement",
          "type": "tuple"
        }
      ],
      "name": "PoolRegistered",
      "type": "event"
    },
    {
      "anonymous": false,
      "inputs": [
        {
          "indexed": true,
          "internalType": "contract IProtocolFeeController",
          "name": "newProtocolFeeController",
          "type": "address"
        }
      ],
      "name": "ProtocolFeeControllerChanged",
      "type": "event"
    },
    {
      "anonymous": false,
      "inputs": [
        {
          "indexed": true,
          "internalType": "address",
          "name": "pool",
          "type": "address"
        },
        {
          "indexed": true,
          "internalType": "contract IERC20",
          "name": "tokenIn",
          "type": "address"
        },
        {
          "indexed": true,
          "internalType": "contract IERC20",
          "name": "tokenOut",
          "type": "address"
        },
        {
          "indexed": false,
          "internalType": "uint256",
          "name": "amountIn",
          "type": "uint256"
        },
        {
          "indexed": false,
          "internalType": "uint256",
          "name": "amountOut",
          "type": "uint256"
        },
        {
          "indexed": false,
          "internalType": "uint256",
          "name": "swapFeePercentage",
          "type": "uint256"
        },
        {
          "indexed": false,
          "internalType": "uint256",
          "name": "swapFeeAmount",
          "type": "uint256"
        }
      ],
      "name": "Swap",
      "type": "event"
    },
    {
      "anonymous": false,
      "inputs": [
        {
          "indexed": true,
          "internalType": "address",
          "name": "pool",
          "type": "address"
        },
        {
          "indexed": false,
          "internalType": "uint256",
          "name": "swapFeePercentage",
          "type": "uint256"
        }
      ],
      "name": "SwapFeePercentageChanged",
      "type": "event"
    },
    {
      "anonymous": false,
      "inputs": [
        {
          "indexed": true,
          "internalType": "address",
          "name": "pool",
          "type": "address"
        },
        {
          "indexed": true,
          "internalType": "address",
          "name": "from",
          "type": "address"
        },
        {
          "indexed": true,
          "internalType": "address",
          "name": "to",
          "type": "address"
        },
        {
          "indexed": false,
          "internalType": "uint256",
          "name": "value",
          "type": "uint256"
        }
      ],
      "name": "Transfer",
      "type": "event"
    },
    {
      "anonymous": false,
      "inputs": [
        {
          "indexed": true,
          "internalType": "contract IERC4626",
          "name": "wrappedToken",
          "type": "address"
        },
        {
          "indexed": false,
          "internalType": "uint256",
          "name": "burnedShares",
          "type": "uint256"
        },
        {
          "indexed": false,
          "internalType": "uint256",
          "name": "withdrawnUnderlying",
          "type": "uint256"
        },
        {
          "indexed": false,
          "internalType": "bytes32",
          "name": "bufferBalances",
          "type": "bytes32"
        }
      ],
      "name": "Unwrap",
      "type": "event"
    },
    {
      "anonymous": false,
      "inputs": [
        {
          "indexed": true,
          "internalType": "address",
          "name": "pool",
          "type": "address"
        },
        {
          "indexed": true,
          "internalType": "bytes32",
          "name": "eventKey",
          "type": "bytes32"
        },
        {
          "indexed": false,
          "internalType": "bytes",
          "name": "eventData",
          "type": "bytes"
        }
      ],
      "name": "VaultAuxiliary",
      "type": "event"
    },
    {
      "anonymous": false,
      "inputs": [
        {
          "indexed": false,
          "internalType": "bool",
          "name": "paused",
          "type": "bool"
        }
      ],
      "name": "VaultBuffersPausedStateChanged",
      "type": "event"
    },
    {
      "anonymous": false,
      "inputs": [
        {
          "indexed": false,
          "internalType": "bool",
          "name": "paused",
          "type": "bool"
        }
      ],
      "name": "VaultPausedStateChanged",
      "type": "event"
    },
    {
      "anonymous": false,
      "inputs": [],
      "name": "VaultQueriesDisabled",
      "type": "event"
    },
    {
      "anonymous": false,
      "inputs": [],
      "name": "VaultQueriesEnabled",
      "type": "event"
    },
    {
      "anonymous": false,
      "inputs": [
        {
          "indexed": true,
          "internalType": "contract IERC4626",
          "name": "wrappedToken",
          "type": "address"
        },
        {
          "indexed": false,
          "internalType": "uint256",
          "name": "depositedUnderlying",
          "type": "uint256"
        },
        {
          "indexed": false,
          "internalType": "uint256",
          "name": "mintedShares",
          "type": "uint256"
        },
        {
          "indexed": false,
          "internalType": "bytes32",
          "name": "bufferBalances",
          "type": "bytes32"
        }
      ],
      "name": "Wrap",
      "type": "event"
    },
    {
      "stateMutability": "payable",
      "type": "fallback"
    },
    {
      "inputs": [
        {
          "components": [
            {
              "internalType": "address",
              "name": "pool",
              "type": "address"
            },
            {
              "internalType": "address",
              "name": "to",
              "type": "address"
            },
            {
              "internalType": "uint256[]",
              "name": "maxAmountsIn",
              "type": "uint256[]"
            },
            {
              "internalType": "uint256",
              "name": "minBptAmountOut",
              "type": "uint256"
            },
            {
              "internalType": "enum AddLiquidityKind",
              "name": "kind",
              "type": "uint8"
            },
            {
              "internalType": "bytes",
              "name": "userData",
              "type": "bytes"
            }
          ],
          "internalType": "struct AddLiquidityParams",
          "name": "params",
          "type": "tuple"
        }
      ],
      "name": "addLiquidity",
      "outputs": [
        {
          "internalType": "uint256[]",
          "name": "amountsIn",
          "type": "uint256[]"
        },
        {
          "internalType": "uint256",
          "name": "bptAmountOut",
          "type": "uint256"
        },
        {
          "internalType": "bytes",
          "name": "returnData",
          "type": "bytes"
        }
      ],
      "stateMutability": "nonpayable",
      "type": "function"
    },
    {
      "inputs": [
        {
          "components": [
            {
              "internalType": "address",
              "name": "pool",
              "type": "address"
            },
            {
              "internalType": "address",
              "name": "sender",
              "type": "address"
            },
            {
              "components": [
                {
                  "internalType": "contract IERC20",
                  "name": "token",
                  "type": "address"
                },
                {
                  "internalType": "uint256",
                  "name": "chainId",
                  "type": "uint256"
                },
                {
                  "internalType": "enum TokenType",
                  "name": "tokenType",
                  "type": "uint8"
                },
                {
                  "internalType": "contract IRateProvider",
                  "name": "rateProvider",
                  "type": "address"
                },
                {
                  "internalType": "bool",
                  "name": "paysYieldFees",
                  "type": "bool"
                }
              ],
              "internalType": "struct TokenConfig",
              "name": "tokenConfig",
              "type": "tuple"
            },
            {
              "internalType": "uint256",
              "name": "exactAmountIn",
              "type": "uint256"
            }
          ],
          "internalType": "struct AddTokenToPoolParams",
          "name": "params",
          "type": "tuple"
        }
      ],
      "name": "addTokenToPool",
      "outputs": [
        {
          "internalType": "uint256",
          "name": "bptAmountOut",
          "type": "uint256"
        },
        {
          "internalType": "uint256",
          "name": "tokenIndex",
          "type": "uint256"
        }
      ],
      "stateMutability": "nonpayable",
      "type": "function"
    },
    {
      "inputs": [
        {
          "internalType": "address",
          "name": "pool",
          "type": "address"
        },
        {
          "internalType": "contract IERC20",
          "name": "token",
          "type": "address"
        }
      ],
      "name": "getPoolTokenCountAndIndexOfToken",
      "outputs": [
        {
          "internalType": "uint256",
          "name": "",
          "type": "uint256"
        },
        {
          "internalType": "uint256",
          "name": "",
          "type": "uint256"
        }
      ],
      "stateMutability": "view",
      "type": "function"
    },
    {
      "inputs": [],
      "name": "getVaultExtension",
      "outputs": [
        {
          "internalType": "address",
          "name": "",
          "type": "address"
        }
      ],
      "stateMutability": "view",
      "type": "function"
    },
    {
      "inputs": [],
      "name": "reentrancyGuardEntered",
      "outputs": [
        {
          "internalType": "bool",
          "name": "",
          "type": "bool"
        }
      ],
      "stateMutability": "view",
      "type": "function"
    },
    {
      "inputs": [
        {
          "components": [
            {
              "internalType": "address",
              "name": "pool",
              "type": "address"
            },
            {
              "internalType": "address",
              "name": "from",
              "type": "address"
            },
            {
              "internalType": "uint256",
              "name": "maxBptAmountIn",
              "type": "uint256"
            },
            {
              "internalType": "uint256[]",
              "name": "minAmountsOut",
              "type": "uint256[]"
            },
            {
              "internalType": "enum RemoveLiquidityKind",
              "name": "kind",
              "type": "uint8"
            },
            {
              "internalType": "bytes",
              "name": "userData",
              "type": "bytes"
            }
          ],
          "internalType": "struct RemoveLiquidityParams",
          "name": "params",
          "type": "tuple"
        }
      ],
      "name": "removeLiquidity",
      "outputs": [
        {
          "internalType": "uint256",
          "name": "bptAmountIn",
          "type": "uint256"
        },
        {
          "internalType": "uint256[]",
          "name": "amountsOut",
          "type": "uint256[]"
        },
        {
          "internalType": "bytes",
          "name": "returnData",
          "type": "bytes"
        }
      ],
      "stateMutability": "nonpayable",
      "type": "function"
    },
    {
      "inputs": [
        {
          "internalType": "contract IERC20",
          "name": "token",
          "type": "address"
        },
        {
          "internalType": "address",
          "name": "to",
          "type": "address"
        },
        {
          "internalType": "uint256",
          "name": "amount",
          "type": "uint256"
        }
      ],
      "name": "sendTo",
      "outputs": [],
      "stateMutability": "nonpayable",
      "type": "function"
    },
    {
      "inputs": [
        {
          "internalType": "contract IERC20",
          "name": "token",
          "type": "address"
        },
        {
          "internalType": "uint256",
          "name": "amountHint",
          "type": "uint256"
        }
      ],
      "name": "settle",
      "outputs": [
        {
          "internalType": "uint256",
          "name": "credit",
          "type": "uint256"
        }
      ],
      "stateMutability": "nonpayable",
      "type": "function"
    },
    {
      "inputs": [
        {
          "components": [
            {
              "internalType": "enum SwapKind",
              "name": "kind",
              "type": "uint8"
            },
            {
              "internalType": "address",
              "name": "pool",
              "type": "address"
            },
            {
              "internalType": "contract IERC20",
              "name": "tokenIn",
              "type": "address"
            },
            {
              "internalType": "contract IERC20",
              "name": "tokenOut",
              "type": "address"
            },
            {
              "internalType": "uint256",
              "name": "amountGivenRaw",
              "type": "uint256"
            },
            {
              "internalType": "uint256",
              "name": "limitRaw",
              "type": "uint256"
            },
            {
              "internalType": "bytes",
              "name": "userData",
              "type": "bytes"
            }
          ],
          "internalType": "struct VaultSwapParams",
          "name": "vaultSwapParams",
          "type": "tuple"
        }
      ],
      "name": "swap",
      "outputs": [
        {
          "internalType": "uint256",
          "name": "amountCalculated",
          "type": "uint256"
        },
        {
          "internalType": "uint256",
          "name": "amountIn",
          "type": "uint256"
        },
        {
          "internalType": "uint256",
          "name": "amountOut",
          "type": "uint256"
        }
      ],
      "stateMutability": "nonpayable",
      "type": "function"
    },
    {
      "inputs": [
        {
          "internalType": "address",
          "name": "owner",
          "type": "address"
        },
        {
          "internalType": "address",
          "name": "to",
          "type": "address"
        },
        {
          "internalType": "uint256",
          "name": "amount",
          "type": "uint256"
        }
      ],
      "name": "transfer",
      "outputs": [
        {
          "internalType": "bool",
          "name": "",
          "type": "bool"
        }
      ],
      "stateMutability": "nonpayable",
      "type": "function"
    },
    {
      "inputs": [
        {
          "internalType": "address",
          "name": "spender",
          "type": "address"
        },
        {
          "internalType": "address",
          "name": "from",
          "type": "address"
        },
        {
          "internalType": "address",
          "name": "to",
          "type": "address"
        },
        {
          "internalType": "uint256",
          "name": "amount",
          "type": "uint256"
        }
      ],
      "name": "transferFrom",
      "outputs": [
        {
          "internalType": "bool",
          "name": "",
          "type": "bool"
        }
      ],
      "stateMutability": "nonpayable",
      "type": "function"
    },
    {
      "inputs": [
        {
          "internalType": "bytes",
          "name": "data",
          "type": "bytes"
        }
      ],
      "name": "unlock",
      "outputs": [
        {
          "internalType": "bytes",
          "name": "result",
          "type": "bytes"
        }
      ],
      "stateMutability": "nonpayable",
      "type": "function"
    },
    {
      "stateMutability": "payable",
      "type": "receive"
    }
  ],
  "bytecode": "0x6101e080604052346103ba576060816156d9803803809161002082856104e3565b8339810103126103ba5780516001600160a01b038116908181036103ba576020830151926001600160a01b03841684036103ba57604001516001600160a01b03811691908290036103ba5761009860405161007c6040826104e3565b600a8152691a5cd55b9b1bd8dad95960b21b6020820152610557565b60c0526100cf6040516100ac6040826104e3565b60118152701b9bdb96995c9bd1195b1d1850dbdd5b9d607a1b6020820152610557565b60e0526101006040516100e36040826104e3565b600b81526a746f6b656e44656c74617360a81b6020820152610557565b610100526101396040516101156040826104e3565b6012815271185919131a5c5d5a591a5d1e50d85b1b195960721b6020820152610557565b6101205261016960405161014e6040826104e3565b60098152681cd95cdcda5bdb925960ba1b6020820152610557565b6101405260405163fbfa77cf60e01b8152602081600481875afa9081156103c7576000916104c4575b50306001600160a01b03909116036104b35760405163fbfa77cf60e01b8152602081600481865afa9081156103c757600091610484575b50306001600160a01b0390911603610473576101c052600a80546001600160a01b031916919091179055604051634546891d60e11b8152602081600481855afa9081156103c757600091610454575b5061016052604051631060fdbd60e11b8152602081600481855afa9081156103c757600091610435575b506101a05260405163cd51c12f60e01b8152602081600481855afa9081156103c757600091610406575b5061018052604051630716585d60e51b8152602081600481855afa9081156103c7576000916103d3575b506080526040516329cab55160e11b815290602090829060049082905afa9081156103c757600091610390575b5060a05260098054610100600160a81b03191660089290921b610100600160a81b03169190911790556040516150859081610654823960805181614701015260a05181505060c051818181610e920152611c56015260e051818181610f0701528181613a600152613ab901526101005181613a0b0152610120518181816113e9015261244b015261014051818181610f34015281816113bc015261241e0152610160518150506101805181611f9d01526101a0518161203c01526101c0518181816109780152611bc90152f35b90506020813d6020116103bf575b816103ab602093836104e3565b810103126103ba5751386102c3565b600080fd5b3d915061039e565b6040513d6000823e3d90fd5b90506020813d6020116103fe575b816103ee602093836104e3565b810103126103ba57516004610296565b3d91506103e1565b610428915060203d60201161042e575b61042081836104e3565b81019061053b565b3861026c565b503d610416565b61044e915060203d60201161042e5761042081836104e3565b38610242565b61046d915060203d60201161042e5761042081836104e3565b38610218565b631bbe95c760e01b60005260046000fd5b6104a6915060203d6020116104ac575b61049e81836104e3565b81019061051c565b386101c9565b503d610494565b6301ab9d9d60e41b60005260046000fd5b6104dd915060203d6020116104ac5761049e81836104e3565b38610192565b601f909101601f19168101906001600160401b0382119082101761050657604052565b634e487b7160e01b600052604160045260246000fd5b908160209103126103ba57516001600160a01b03811681036103ba5790565b908160209103126103ba575163ffffffff811681036103ba5790565b6105d06105de6040519261056c6040856104e3565b600c84526b5661756c7453746f7261676560a01b602085015260405192839160016105c260208501977f62616c616e6365722d6c6162732e76332e73746f726167652e0000000000000089526039860190610628565b601760f91b81520190610628565b03601f1981018352826104e3565b5190206000198101908111610612576040519060208201908152602082526106076040836104e3565b9051902060ff191690565b634e487b7160e01b600052601160045260246000fd5b9081519160005b838110610640575050016000815290565b806020809284010151818501520161062f56fe60806040526004361015610018575b36611bb857611ba7565b60003560e01c806315afd409146100d857806315dacbea146100d357806321457897146100ce5780632bfb780c146100c957806348c89491146100c45780634af29ec4146100bf578063ae639329146100ba578063b9a8effa146100b5578063beabacc8146100b0578063c9c1661b146100ab578063d2959488146100a65763d2c725e00361000e57610b8a565b610ab9565b6109dd565b6109a7565b610962565b610843565b610765565b6106c6565b6105d6565b6104e3565b61021b565b61010c565b6001600160a01b031690565b6001600160a01b038116036100fa57565b600080fd5b359061010a826100e9565b565b346100fa5760403660031901126100fa57600435610129816100e9565b602435610134611c07565b61013c611c54565b6001600160a01b03821660008181526008602090815260408083205490516370a0823160e01b81523060048201529593909190869060249082905afa8015610216576101d9956101ad93916101e7575b506001600160a01b0384166000908152600860205260409020819055610c6a565b918083116101dd575b50816101c191611c8e565b6101c9611c40565b6040519081529081906020820190565b0390f35b91506101c16101b6565b610209915060203d60201161020f575b61020181836102fb565b810190610c36565b3861018c565b503d6101f7565b610935565b346100fa5760803660031901126100fa5761026960043561023b816100e9565b602435610247816100e9565b60443590610254826100e9565b61026360643580948333611cc8565b33611e48565b602060405160018152f35b634e487b7160e01b600052604160045260246000fd5b608081019081106001600160401b038211176102a557604052565b610274565b60a081019081106001600160401b038211176102a557604052565b60e081019081106001600160401b038211176102a557604052565b606081019081106001600160401b038211176102a557604052565b601f909101601f19168101906001600160401b038211908210176102a557604052565b6040519061010a60c0836102fb565b6040519061010a60e0836102fb565b6040519061010a6060836102fb565b6001600160401b0381116102a55760051b60200190565b9080601f830112156100fa5781356103798161034b565b9261038760405194856102fb565b81845260208085019260051b8201019283116100fa57602001905b8282106103af5750505090565b81358152602091820191016103a2565b359060048210156100fa57565b6001600160401b0381116102a557601f01601f191660200190565b9291926103f3826103cc565b9161040160405193846102fb565b8294818452818301116100fa578281602093846000960137010152565b9080601f830112156100fa57816020610439933591016103e7565b90565b906020808351928381520192019060005b81811061045a5750505090565b825184526020938401939092019160010161044d565b60005b8381106104835750506000910152565b8181015183820152602001610473565b906020916104ac81518092818552858086019101610470565b601f01601f1916010190565b916104d5906104399492845260606020850152606084019061043c565b916040818403910152610493565b346100fa5760203660031901126100fa576004356001600160401b0381116100fa5760c060031982360301126100fa5761051b61031e565b90610528816004016100ff565b8252610536602482016100ff565b60208301526044810135604083015260648101356001600160401b0381116100fa576105689060043691840101610362565b6060830152610579608482016103bf565b608083015260a4810135916001600160401b0383116100fa576105a86105b29260046101d9953692010161041e565b60a0820152610c77565b604093919351938493846104b8565b600211156100fa57565b359061010a826105c1565b346100fa5760203660031901126100fa576004356001600160401b0381116100fa5760e060031982360301126100fa5761060e61032d565b9061061b816004016105cb565b8252610629602482016100ff565b602083015261063a604482016100ff565b604083015261064b606482016100ff565b60608301526084810135608083015260a481013560a083015260c4810135916001600160401b0383116100fa5761068e6106989260046101d9953692010161041e565b60c0820152610d6c565b604080519384526020840192909252908201529081906060820190565b906020610439928181520190610493565b346100fa5760203660031901126100fa576004356001600160401b0381116100fa57366023820112156100fa576004810135906001600160401b0382116100fa5736602483830101116100fa576101d99160246107239201610e84565b604051918291826106b5565b359060058210156100fa57565b610752610439949260608352606083019061043c565b9260208201526040818403910152610493565b346100fa5760203660031901126100fa576004356001600160401b0381116100fa5760c060031982360301126100fa5761079d61031e565b906107aa816004016100ff565b82526107b8602482016100ff565b602083015260448101356001600160401b0381116100fa576107e09060043691840101610362565b6040830152606481013560608301526107fb6084820161072f565b608083015260a4810135916001600160401b0383116100fa5761082a6108349260046101d9953692010161041e565b60a082015261138d565b6040939193519384938461073c565b346100fa5760603660031901126100fa57600435610860816100e9565b60243561086c816100e9565b60443590610878611c07565b610880611c54565b61089261088c836139dd565b84613a02565b60018060a01b0383169283600052600860205260406000209182549284840393841161094157602094600094859255604051908682019363a9059cbb60e01b855260018060a01b031660248301526044820152604481526108f46064826102fb565b51925af115610935576000513d61092c5750803b155b61091857610916611c40565b005b635274afe760e01b60005260045260246000fd5b6001141561090a565b6040513d6000823e3d90fd5b610c45565b60009103126100fa57565b6001600160a01b0316600452602490565b346100fa5760003660031901126100fa576040517f00000000000000000000000000000000000000000000000000000000000000006001600160a01b03168152602090f35b346100fa5760603660031901126100fa576102696004356109c7816100e9565b6024356109d3816100e9565b6044359133611e48565b346100fa5760403660031901126100fa576004356109fa816100e9565b60243590610a07826100e9565b6001600160a01b031660008181526020819052604090205460011615610aa5576000526002602052604060002090604051809283916020825491828152019160005260206000209060005b818110610a835784610a7087610a6a838803846102fb565b82613862565b9051604080519182526020820192909252f35b82546001600160a01b0316845286945060209093019260019283019201610a52565b6327946f5760e21b60005260045260246000fd5b346100fa576101003660031901126100fa576000604051610ad98161028a565b600435610ae5816100e9565b8152602435610af3816100e9565b602082015260a0366043190112610b8657604051610b10816102aa565b604435610b1c816100e9565b81526064356020820152608435610b32816105c1565b604082015260a435610b43816100e9565b606082015260c4358015158103610b825760808201526040820152610b70915060e4356060820152611882565b60408051928352602083019190915290f35b8380fd5b5080fd5b346100fa5760003660031901126100fa576020600080516020615030833981519152546040519015158152f35b6001600160a01b0316600090815260056020526040902090565b6001600160a01b03166000908152600f6020526040902090565b6001600160a01b0316600090815260066020526040902090565b6001600160a01b0316600090815260116020526040902090565b9060018060a01b0316600052602052604060002090565b908160209103126100fa575190565b634e487b7160e01b600052601160045260246000fd5b60001981019190821161094157565b9190820391821161094157565b90610c80611c54565b8151610c94906001600160a01b0316611f5c565b8151610ca8906001600160a01b0316611f96565b8151610cc4906001600160a01b0316610cbf612095565b6120cc565b91602083015151610cdc6060830191825151906121cc565b519060c084015160a085015190835191610cfa825182519085613eb6565b610d0383611754565b9460005b848110610d26575050505050610d1d92936123a0565b92905092909190565b80610d5b610d3660019385611023565b51610d56610d448489611023565b51610d4f8589611023565b5192613027565b61430e565b610d65828a611023565b5201610d07565b90610d75611c54565b602082018051610d8d906001600160a01b0316611f5c565b6000610da1610d9c83516100dd565b611f96565b608084015115610e5057610db860408501516100dd565b610dcd610dc860608701516100dd565b6100dd565b6001600160a01b0390911614610e415750610df6610dee610e1392516100dd565b610cbf612095565b610e00818561299f565b90610e0c818387612aa7565b9185612b38565b909150929192909351610e2581610e75565b610e2e81610e75565b610e39575081929190565b918093509190565b63a54b181d60e01b8152600490fd5b6357a456b760e01b8152600490fd5b634e487b7160e01b600052602160045260246000fd5b60021115610e7f57565b610e5f565b919091610efd600080610ec37f0000000000000000000000000000000000000000000000000000000000000000948554159788610f71575b36916103e7565b60208151910182335af13d15610f69573d90610ede826103cc565b91610eec60405193846102fb565b82523d6000602084013e5b33614f15565b92610f055750565b7f000000000000000000000000000000000000000000000000000000000000000054610f58576000905561010a7f0000000000000000000000000000000000000000000000000000000000000000612f8f565b6320f1d86d60e01b60005260046000fd5b606090610ef7565b60018755610ebc565b60405190610f896040836102fb565b601a825279039ba30ba34b1a9bbb0b82332b2a832b931b2b73a30b3b2901e960351b6020830152565b60405190610fc16060836102fb565b60378252766e636573416e645969656c6446656573202d2d2d2d2d2d60481b6040837f2d2d2d2d2d2d205f6c6f6164506f6f6c446174615570646174696e6742616c6160208201520152565b634e487b7160e01b600052603260045260246000fd5b80518210156110375760209160051b010190565b61100d565b6040519061104b6040836102fb565b60128252712d20706f6f6c446174612e746f6b656e735b60701b6020830152565b6040519061107b6040836102fb565b600482526302e901e960e51b6020830152565b6040519061109d6040836102fb565b60178252762d20706f6f6c446174612e62616c616e6365735261775b60481b6020830152565b604051906110d26040836102fb565b602082527f2d20706f6f6c446174612e62616c616e6365734c6976655363616c656431385b6020830152565b6040519061110d6040836102fb565b60168252752d20706f6f6c446174612e746f6b656e52617465735b60501b6020830152565b604051906111416060836102fb565b60218252605b60f81b6040837f2d20706f6f6c446174612e646563696d616c5363616c696e67466163746f727360208201520152565b604051906111866040836102fb565b60168252752d2d2d2d2d2d2d2d2d2d2d2d2d2d2d2d2d2d2d2d2d2d60501b6020830152565b604051906111ba6060836102fb565b602b82526a037b7b62230ba3094901e960ad1b6040837f7374617469635377617046656550657263656e74616765202866726f6d205f7060208201520152565b604051906112096040836102fb565b601b82527a2d2d2d2d2d2d205f6c6f6164506f6f6c44617461202d2d2d2d2d2d60281b6020830152565b604051906112426040836102fb565b60138252722d205f706f6f6c446174612e746f6b656e735b60681b6020830152565b604051906112736040836102fb565b60188252772d205f706f6f6c446174612e62616c616e6365735261775b60401b6020830152565b604051906112a96060836102fb565b60218252605b60f81b6040837f2d205f706f6f6c446174612e62616c616e6365734c6976655363616c6564313860208201520152565b604051906112ee6040836102fb565b60178252762d205f706f6f6c446174612e746f6b656e52617465735b60481b6020830152565b604051906113236060836102fb565b6022825261735b60f01b6040837f2d205f706f6f6c446174612e646563696d616c5363616c696e67466163746f7260208201520152565b604051906113696040836102fb565b60158252746d6178416d6f756e7473496e5363616c656431385b60581b6020830152565b90611396611c54565b81516113aa906001600160a01b0316611f5c565b6113b7610d9c83516100dd565b6114257f0000000000000000000000000000000000000000000000000000000000000000546113e684516100dd565b907f0000000000000000000000000000000000000000000000000000000000000000906000526020526040600020906000526020526001604060002055565b61143761143283516100dd565b61214d565b9160208301805151906114516040840192835151906121cc565b61146b61145e865161303a565b611466610f7a565b61306a565b8051519161147f61147a610fb2565b6130b2565b60c086019260a0870192608088016060890160005b84811061160257505050506114b16114ac86516100dd565b61319e565b6114c66114be825161303a565b6114666111ab565b6114d161147a6111fa565b6000906020810160608201608083019160c060a085019401945b86811061155a57505050505050509061150a9291519151905191613235565b9081519360005b85811061152c57506115249394506133df565b929390929150565b8061155461153c60019387611023565b5161154561135a565b8361154e61106c565b91613157565b01611511565b8061159561157e610dc86115716001958751611023565b516001600160a01b031690565b611586611233565b8361158f61106c565b916130ee565b6115ac6115a3828651611023565b51611545611264565b6115c36115ba828751611023565b5161154561129a565b6115da6115d1828851611023565b516115456112df565b6115f16115e8828951611023565b51611545611314565b6115fc61147a611177565b016114eb565b80611621611619610dc86115716001958951611023565b61158661103c565b61163861162f828551611023565b5161154561108e565b61164f611646828651611023565b516115456110c3565b61166661165d828a51611023565b516115456110fe565b61167d611674828b51611023565b51611545611132565b61168861147a611177565b01611494565b805490600160401b8210156102a55760018201808255821015611037576000908152602090200180546001600160a01b0319166001600160a01b03909216919091179055565b5161043981610e75565b6116e782610e75565b52565b908051906116f782610e75565b61170082610e75565b825460208201516040909201516001600160b01b031990911660ff939093169290921760089190911b610100600160a81b03161790151560a81b60ff60a81b16179055565b90600052602052604060002090565b9061175e8261034b565b61176b60405191826102fb565b828152809261177c601f199161034b565b0190602036910137565b604051906117956040836102fb565b60178252766578616374416d6f756e7473496e5363616c656431385b60481b6020830152565b919060206117d360019260408652604086019061043c565b930152565b919060206117d360009260408652604086019061043c565b604051906117ff6040836102fb565b600f82526e031383a20b6b7bab73a27baba101e9608d1b6020830152565b6040519061182c6040836102fb565b601582527403a37ba30b629bab838363c902122a327a922901e9605d1b6020830152565b6040519061185f6040836102fb565b601482527303a37ba30b629bab838363c9020a32a22a9101e960651b6020830152565b9060408201906119576118968351516100dd565b926118c7846118c26118a888516100dd565b6001600160a01b0316600090815260026020526040902090565b61168e565b6119226118d760408351016116d4565b91516119196118f660806118ee60608501516100dd565b930151151590565b9161190961190261033c565b95866116de565b6001600160a01b03166020850152565b15156040830152565b6119528461194d61193388516100dd565b6001600160a01b0316600090815260036020526040902090565b610c1f565b6116ea565b61196d6119676118a885516100dd565b54610c5b565b91606084019361197e8551806138c2565b6119998561199461198f85516100dd565b610bb7565b611745565b556119ac6119a782516100dd565b6131ed565b60208101956119d58751516119c081611754565b92516119cc8985611023565b528251906121cc565b611a0b6119fa611571886119f360c087015160a08801519087613235565b9a51611023565b611a048884611023565b5190613850565b611a4186611a3b611a2982611a2361198f89516100dd565b95611023565b51611a34838c611023565b51906138c2565b92611745565b55855160005b818110611b88575050906020611abd926000611a8b88611a85611a6a87516100dd565b6001600160a01b031660009081526011602052604090205490565b9a611023565b526080611a9e610dc8610dc886516100dd565b910151906040518080968194631309bd3d60e31b8352600483016117bb565b03915afa91821561021657611ae287611b2a94611af793600091611b69575b50610c6a565b96611aef886114666117f0565b61146661181d565b611b0c86611b0583516100dd565b3390613909565b611b24611b1c611a6a83516100dd565b611466611850565b516100dd565b6040518481526001600160a01b039283169291909116907f86a1d978a8a380550982f0d5d29e42ffa6021672c0aeb46467b0c87bf3142ada90602090a3565b611b82915060203d60201161020f5761020181836102fb565b38611adc565b80611ba1611b986001938b611023565b51611545611786565b01611a47565b637911c44b60e11b60005260046000fd5b34611ba757366000803760008036817f00000000000000000000000000000000000000000000000000000000000000006001600160a01b03165af43d6000803e15611c02573d6000f35b3d6000fd5b60008051602061503083398151915254611c2f57600160008051602061503083398151915255565b633ee5aeb560e01b60005260046000fd5b600060008051602061503083398151915255565b7f00000000000000000000000000000000000000000000000000000000000000005415611c7d57565b63604dd39b60e11b60005260046000fd5b90611c98906139dd565b90600160ff1b82146109415761010a9160000390613a02565b6001600160a01b0316600452602452604452606490565b92919091611cd7828486613ae6565b60018101611ce7575b5050505050565b808211611e03576001600160a01b0384169391900391908315611def576001600160a01b038216948515611dd75783611d3a8461194d8561194d8660018060a01b03166000526010602052604060002090565b556001600160a01b031692833b156100fa578060007fa0175360a15bca328baf7ea85c7b784d58b222a50d0ce760b10dba336d226a6194611daf94611d936040519485938493630ad0fe5760e31b855260048501611e26565b038183895af1611dbc575b506040519081529081906020820190565b0390a43880808080611ce0565b80611dcb6000611dd1936102fb565b80610946565b38611d9e565b634a1406b160e11b600052611deb83610951565b6000fd5b63e602df0560e01b600052611deb90610951565b82637dc7a0d960e11b60005260018060a01b031660045260245260445260646000fd5b6001600160a01b03918216815291166020820152604081019190915260600190565b919290916001600160a01b038316908115611f48576001600160a01b038516908115611f3457611e7b8561194d83610bd1565b54808511611f1d57849003611e938661194d84610bd1565b55611ea18661194d83610bd1565b8054850190556040518481526001600160a01b03919091169290839060008051602061501083398151915290602090a4803b156100fa57611efd9360008094604051968795869485936323de665160e01b855260048501611e26565b03925af1801561021657611f0e5750565b80611dcb600061010a936102fb565b63391434e360e21b600052611deb90859087611cb1565b63ec442f0560e01b600052611deb86610951565b634b637e8f60e11b600052611deb84610951565b6001600160a01b0316600081815260208190526040902054600190811c1615611f825750565b634bdace1360e01b60005260045260246000fd5b63ffffffff7f00000000000000000000000000000000000000000000000000000000000000001642111580612087575b612076576001600160a01b03811660009081526020819052604090205460018160ff611ff0612fb2565b161c1690611ffc615007565b9060288201809211610941578261202b575b50506120175750565b63d971f59760e01b600052611deb90610951565b61206c92509063ffffffff612063927f0000000000000000000000000000000000000000000000000000000000000000921c16614fed565b63ffffffff1690565b421115388061200e565b6336a7e2cd60e21b60005260046000fd5b506001600754811c16611fc6565b604051906120a2826102c5565b606060c0836000815282602082015282604082015282808201528260808201528260a08201520152565b90612138906120d9611c07565b6001600160a01b0381166000818152600560209081526040808320838352818420546003845282852060029094529190932061211b9360019391929089613c11565b6000526005602052612131604060002091610beb565b9083613dda565b90600060008051602061503083398151915255565b6121b7612158612095565b9161213160406000612168611c07565b60018060a01b03841680825260056020526121a98284812083825281602052858220548483526003602052868320908584526002602052878420928c613c11565b815260056020522091610beb565b60006000805160206150308339815191525590565b036121d357565b63aaad13f760e01b60005260046000fd5b604051906121f1826102e0565b60006040838281528260208201520152565b60041115610e7f57565b9080601f830112156100fa5781516122248161034b565b9261223260405194856102fb565b81845260208085019260051b8201019283116100fa57602001905b82821061225a5750505090565b815181526020918201910161224d565b81601f820112156100fa578051612280816103cc565b9261228e60405194856102fb565b818452602082840101116100fa576104399160208085019101610470565b906080828203126100fa57815160208301519093906001600160401b0381116100fa57826122db91850161220d565b60408401519093906001600160401b0381116100fa57836122fd91830161220d565b60608201519093906001600160401b0381116100fa57610439920161226a565b9390610439959361235a9361234c9260018060a01b03168752602087015260a0604087015260a086019061043c565b90848203606086015261043c565b916080818403910152610493565b9190820180921161094157565b91612392906104399492845260606020850152606084019061043c565b91604081840391015261043c565b9092916123ab611c07565b600060606123b76121e4565b9160208501966123cb885151808652611754565b94608082019283516123dc81612203565b6123e581612203565b6127a45750506040810151946123fb8551611754565b936124188760808a0151612412611a6a87516100dd565b906142be565b906124867f00000000000000000000000000000000000000000000000000000000000000005461244886516100dd565b907f00000000000000000000000000000000000000000000000000000000000000009060005260205260406000209060005260205260406000205490565b61271d575b604084015180891161270457506124a4889a979a614331565b60009660208b0198606086019660608c01995b8d518110156125eb57808f888f6124ce848b611023565b51906124d982614331565b6124e38584611023565b516125d057926115719261252561251d8794876125168760a061250d8260c061252d9e0151611023565b51930151611023565b5191614342565b968792611023565b525b51611023565b612538838c51611023565b5182106125af578e838f8f908f868f856125a39561259d946125258361258c60019f9e8e6125a99f8f909961257186946125949c611c8e565b61258661257e858a611023565b5191516100dd565b91614376565b8a5292611023565b51925190612368565b90610c6a565b9161445b565b016124b7565b906125be611deb938c51611023565b516317bc2f2360e11b60005291611cb1565b5050826125e461252d939461157193611023565b5193612527565b509650975097509790985061260e91995093919361260985516100dd565b614556565b7ffbe5b0d79fb94f1e81c0a92bf86ae9d3a19e9d1bf6202c0d3e75120f65d5d8a58861263a85516100dd565b9361265587602088019661264e88516100dd565b3391611cc8565b61265d6145ab565b6126e1575b6126808761267088516100dd565b61267a88516100dd565b90614604565b6126d06126a9611a6a61269d6126968a516100dd565b98516100dd565b935198611b248a612203565b946126b388612203565b6040516001600160a01b0393841697909316959293849384612375565b0390a46126db611c40565b93929190565b6126ff876126ef88516100dd565b6126f988516100dd565b906145c0565b612662565b6331d38e0b60e01b600052600489905260245260446000fd5b98949793909995919692612731855161303a565b9760005b845181101561279257808d61278b826127858f8f966127749161276460019961275e848a611023565b5161430e565b61276e8383611023565b52611023565b5161277f8386611023565b51610c6a565b92611023565b5201612735565b5092969a91949895999093975061248b565b60018497929597516127b581612203565b6127be81612203565b0361283457506127ce8751613efd565b60408201519584906127e36060850151613f2b565b61282e61282460408a019280845260808d0151908d8d612810612809611a6a8d516100dd565b925161303a565b9261281e610dc88d516100dd565b946141c3565b9092519098611023565b5261248b565b6002845161284181612203565b61284a81612203565b036128d1575061285a8751613efd565b6128c984606084019061287e6128708351613f2b565b60408a019381855251611023565b5161288a835186611023565b5261289c60808b015192518092611023565b516128aa611a6a87516100dd565b906128b58c5161303a565b926128c3610dc889516100dd565b94613f8d565b94909661248b565b9550600383516128e081612203565b6128e981612203565b03612990576128f88751613ed5565b85612909610dc8610dc885516100dd565b60408481015160808b015160a08701519251632ada38a360e21b81529889949385938793859361293e9392336004870161231d565b03925af18015610216578690879588809261295f575b50509694909661248b565b9250929550506129829296503d8091833e61297a81836102fb565b8101906122ac565b909691949192903880612954565b63137a9a3960e01b8652600486fd5b9190612a5e604051916129b18361028a565b600083526020830194600086526040840190600082526060850194600086528097612a08602086016129f1815160018060a01b0360408801511690613862565b84525160608501516001600160a01b031690613862565b81528251612a1581610e75565b612a1e81610e75565b612a6257506080612a5592015190612a4e612a3f60c0870151835190611023565b519160a0870151905190611023565b51916147f6565b905b525161303a565b9052565b9050610d566080612aa193015191612a9b612a95612a8660c0890151845190611023565b519260a0890151905190611023565b516147b7565b92613027565b90612a57565b919091606060c0604051612aba816102c5565b600081526000602082015282604082015260008382015260006080820152600060a08201520152805192612aed84610e75565b6080604082015193015160c06020835193015193015193612b16612b0f61032d565b96876116de565b60208601526040850152606084015260808301523360a083015260c082015290565b919390612b43611c07565b600094612b4e6121e4565b938051612b5a81610e75565b612b6381610e75565b15612eba575b60208601612b7781516146ff565b876020612bae81850199612b91610dc8610dc88d516100dd565b90604051948580948193633964c0c360e11b835260048301612ee2565b03925af19889156102165798612e99575b5087612bca816146ff565b8251612bd581610e75565b612bde81610e75565b612e1b575060408401519052612c1e60c0830151612c17612a95612c086020880193845190611023565b519260a0870151905190611023565b9089614342565b9260808201519584969760a0840151808710612e0257505b6040840193898551612c47906100dd565b90612c5191613850565b60600194888651612c61906100dd565b90612c6b91611c8e565b82518251612c78906100dd565b8651612c83906100dd565b865191612c909385614376565b9060208501946040019182528452845160608301918c82845190612cb391611023565b5190612cbe91612368565b9051612cc991610c6a565b612cd3918461445b565b602085019182518b81845190612ce891611023565b5190612cf391610c6a565b612cfd918361445b565b8351612d08906100dd565b612d1190610bb7565b9180518751612d1f91611023565b51916080019182518851612d3291611023565b51612d3c916138c2565b8751612d489085611745565b55518351612d5591611023565b5190518351612d6391611023565b51612d6d916138c2565b9151612d7891611745565b5551612d83906100dd565b9251612d8e906100dd565b9351612d99906100dd565b6060928301519151604080518b8152602081018b905290810193909352928201929092526001600160a01b0391821693821692909116907f0874b2d545cb271cdbda4e093020c452328b24af12382ed62c4d00f5c26709db90608090a49392919061010a611c40565b63e2ea151b60e01b600052600487905260245260446000fd5b9050612e51919750612e486060850151612e4181670de0b6b3a764000081810391100290565b9083614782565b90818752612368565b95612e7e612e6560c0840151855190611023565b51612e7660a0850151865190611023565b5190896147a3565b92608082015195849760a0840151808711612e025750612c36565b612eb391985060203d60201161020f5761020181836102fb565b9638612bbf565b60208601612edb612ed1825160608701519061430e565b8088528251610c6a565b9052612b69565b919091602081526101008101908351612efa81610e75565b60208201526020840151604082015260408401519160e0606083015282518091526020610120830193019060005b818110612f795750505060c0846060610439959601516080840152608081015160a0840152612f6560a08201518385019060018060a01b03169052565b01519060e0601f1982850301910152610493565b8251855260209485019490920191600101612f28565b805490600182018092116109415755565b60ff60019116019060ff821161094157565b6104396001612fa0565b610439612fd2612fd2612fd2612fd26001612fa0565b612fa0565b610439612fd2612fd2612fd2612fd2612fd2612fd2612fd2612fd2612fd2612fd2612fd2612fd2612fbc565b90670de0b6b3a7640000820291808304670de0b6b3a7640000149015171561094157565b8181029291811591840414171561094157565b62ffffff9060ff613049612fd7565b161c1664174876e80081029080820464174876e80014901517156109415790565b6130ad6130999161010a93604051938492632d839cb360e21b6020850152604060248501526064840190610493565b90604483015203601f1981018352826102fb565b6147db565b6130e06130ad61010a9260405192839163104c13eb60e21b6020840152602060248401526044830190610493565b03601f1981018352826102fb565b61010a936131386130ad9361312195604051968795631f118ca960e21b60208801526080602488015260a4870190610493565b916044860152602319858303016064860152610493565b6001600160a01b0391909116608483015203601f1981018352826102fb565b61010a9361318a6130ad936131219560405196879563c67ea9d160e01b60208801526080602488015260a4870190610493565b90608483015203601f1981018352826102fb565b9061010a60006131ac612095565b9360018060a01b0316808252600560205260408220908083528260205260408320548184526003602052604084209184526002602052604084209287613c11565b9061010a60016131fb612095565b60a082901b829003909416600090815260056020908152604080832083835281842054600384528285206002909452919093209287613c11565b9190825191613248825182519085613eb6565b61325183611754565b9360005b84811061326457505050505090565b80670de0b6b3a764000061329b61327d60019486611023565b5161329661328b858a611023565b51610d4f868a611023565b613027565b046132a68289611023565b5201613255565b60051115610e7f57565b906080828203126100fa5781516001600160401b0381116100fa57816132de91840161220d565b92602083015192604081015160018060401b0381116100fa57836122fd91830161220d565b9361332c61235a9361043997959360018060a01b0316875260a0602088015260a087019061043c565b916040860152848203606086015261043c565b6040519061334e6040836102fb565b60118252702a2073776170466565416d6f756e74735b60781b6020830152565b6040519061337d6040836102fb565b601b82527a5d206265666f726520636f6d7075746520616e642063686172676560281b6020830152565b604051906133b66040836102fb565b601a8252795d20616674657220636f6d7075746520616e642063686172676560301b6020830152565b90926133e9611c07565b60006060936133f66121e4565b91602085019661340a885151808652611754565b926080820192835161341b816132ad565b613424816132ad565b61366457505060608101519261343a8551611754565b936134578160808a0151613451611a6a87516100dd565b90614c42565b905b606084015180821061364a5750613472819a979a614331565b60009660208b0198604086019660608c01995b8d518110156135ba57808f888f61349c848b611023565b51906134a782614331565b6134b18584611023565b516135a657926115719261252561251d8794876134db8760a061250d8260c06134e29e0151611023565b51916147a3565b6134ed838c51611023565b518211613585578e838f8f908f868f856125a39561252761355f836135779760019f9e8261357f9f8f6135719a6135276135539584613850565b6135466135348588611023565b5161353d61333f565b8661154e61336e565b61258661257e8588611023565b8b5261276e8383611023565b5161356861333f565b8461154e6133a7565b51612368565b905190610c6a565b01613485565b90613594611deb938c51611023565b516323b6a17960e21b60005291611cb1565b5050826125e46134e2939461157193611023565b509650985098919a5098506135d891955093919361260985516100dd565b7fa26a52d8d53702bba7f137907b8e1f99ff87f6d450144270ca25e72481cca8718461360485516100dd565b9361361e8a602088019661361888516100dd565b90613909565b6126d0613640611a6a6136346126968a516100dd565b935198611b248a6132ad565b946126b3886132ad565b638d261d5d60e01b60005260049190915260245260446000fd5b60038495929551613674816132ad565b61367d816132ad565b0361369f575061368d8751614c17565b6136978451611754565b936000613459565b600184516136ac816132ad565b6136b5816132ad565b0361370f57506136c58751613efd565b613708846136d783604086015161492b565b6080890151906136ea611a6a86516100dd565b6136f48b5161303a565b91613702610dc888516100dd565b936149e8565b9490613459565b6002845161371c816132ad565b613725816132ad565b0361378557506137358751613efd565b606082015161374385613f2b565b906040870182815261377f612824889460808d0151908d8661376b612809611a6a8d516100dd565b92613779610dc88d516100dd565b94614843565b52613459565b975060048351613794816132ad565b61379d816132ad565b03613841576137ac8751614811565b876137bd610dc8610dc885516100dd565b60608401519060808a0151918360a0870151986137f16040519a8b968795869463e4c4366360e01b86523360048701613303565b03925af1801561021657889089958a8092613810575b50509894613459565b9250929550506138339298503d8091833e61382b81836102fb565b8101906132b7565b909891949192903880613807565b636c02b39560e01b8852600488fd5b61385c61010a926139dd565b90613a02565b9060005b82518110156138a0576001600160a01b036138818285611023565b51166001600160a01b0383161461389a57600101613866565b91505090565b5063ddef98d760e01b60009081526001600160a01b0391909116600452602490fd5b906001600160801b03821180156138f9575b6138e85760801b9081018091116109415790565b6389560ca160e01b60005260046000fd5b506001600160801b0381116138d4565b6001600160a01b038216929083156139c95761392e8261392883610c05565b54612368565b61393b8461194d84610bd1565b83815401905561394a81614c84565b61395382610c05565b5560018060a01b0316926000846000805160206150108339815191526040518061398287829190602083019252565b0390a4823b156100fa576040516323de665160e01b81526000600482018190526001600160a01b039093166024820152604481019190915291829081838160648101611efd565b63ec442f0560e01b600052611deb83610951565b6001600160ff1b0381116139ee5790565b63123baf0360e11b60005260045260246000fd5b908015613ae2577f00000000000000000000000000000000000000000000000000000000000000009160018060a01b03811660005282602052604060002054828101928312600082129080158216911516176109415782613aab57507f000000000000000000000000000000000000000000000000000000000000000092835460001981019081116109415761010a94555b9060018060a01b0316600052602052604060002055565b9261010a93613a9457613add7f0000000000000000000000000000000000000000000000000000000000000000612f8f565b613a94565b5050565b9091906001600160a01b0380841690831603613b055750505060001990565b6001600160a01b03166000908152601060205260409020613b299261194d91610c1f565b5490565b906040519182815491828252602082019060005260206000209260005b818110613b5f57505061010a925003836102fb565b84546001600160a01b0316835260019485019487945060209093019201613b4a565b90613b8b8261034b565b613b9860405191826102fb565b8281528092613ba9601f199161034b565b019060005b828110613bba57505050565b602090613bc56121e4565b82828501015201613bae565b90604051613bde816102e0565b604060ff829454818116613bf181610e75565b8452600881901c6001600160a01b0316602085015260a81c161515910152565b919492908454958352613c276020840195613b2d565b8552613c3286613b81565b9460408401958652613c4387611754565b9260608501938452613c5488611754565b6080860152613c64888651614ca5565b60c0860152613c7288611754565b9060a08601918252613c888651600190811c1690565b9283613dc6575b83613db3575b60005b8a8110613cac575050505050505050505050565b808a613ccf613cca613cc46115716001968851611023565b87610c1f565b613bd1565b613ceb83613cdd818c611745565b5493518361276e8383611023565b50613cf581614d7b565b613d00848951611023565b52613d168c6001600160801b038416858e6144a8565b8715613dac57604081015115159081613d8f575b50613d38575b505b01613c98565b8a613d658a848d613d5f613d5783613d508451614d37565b9551611023565b519660801c90565b90614e16565b9182613d73575b5050613d30565b613d8792613d8091610c6a565b838c6144a8565b388a81613d6c565b84915051613d9c81610e75565b613da581610e75565b1438613d2a565b5050613d32565b9250613dbf8651614d64565b1592613c95565b9250613dd28651614d37565b151592613c8f565b606081018051519360005b858110613df457505050505050565b80613e086115716001936020880151611023565b613e22613e158389611745565b546001600160801b031690565b613e2d838751611023565b518111613e65575b5050613e54613e45828651611023565b51611a34836080890151611023565b613e5e8288611745565b5501613de5565b613ea7613eae91613ea1613e798589610c1f565b5491613e9b613e888460801c90565b91613e94898d51611023565b5190610c6a565b90612368565b90614e6a565b9185610c1f565b553880613e35565b81148015929190613eca575b50506121d357565b141590503880613ec2565b60019060ff613ee2612fbc565b161c1615613eec57565b63033c2a5760e61b60005260046000fd5b60019060ff613f11612fd2612fd285612fa0565b161c16613f1a57565b63353d5de760e21b60005260046000fd5b805190819060005b828110613f57575050811015613f465790565b631f91af7760e21b60005260046000fd5b613f618183611023565b51613f6f575b600101613f33565b928203613f7c5782613f67565b636b8c3be560e01b60005260046000fd5b9094939291815194613f9e86611754565b9160005b87811061417a5750613fb89061277f8985611023565b613fc28884611023565b52604051631309bd3d60e31b8152946001600160a01b038216929060208780613fee88600483016117d8565b0381875afa96871561021657600097614159575b50604051631309bd3d60e31b8152906020828061402286600483016117d8565b0381885afa9586156102165761409261407f8c613e946140786020996140718f614098986140d29f614065889361406c9261409d9f60009161413a575b50614738565b8095614e7d565b611023565b519061430e565b9188611023565b92670de0b6b3a764000081810391100290565b82614738565b610c6a565b926140ac8461277f8b85611023565b6140b68a84611023565b526040518080968194631309bd3d60e31b8352600483016117bb565b03915afa9081156102165761410e9561410893600093614111575b506140fa61410191611754565b9788611023565b5283610c6a565b90614782565b91565b6141019193506141326140fa9160203d60201161020f5761020181836102fb565b9391506140ed565b602061415392503d60201161020f5761020181836102fb565b3861405f565b61417391975060203d60201161020f5761020181836102fb565b9538614002565b8061419061418a60019388611023565b51610c5b565b61419a8287611023565b5201613fa2565b6141b96040929594939560608352606083019061043c565b9460208201520152565b909491830391838311610941576020614207916141e08686614738565b906141eb8282614e7d565b604051808095819462b5059f60e51b83528c89600485016141a1565b03916001600160a01b03165afa80156102165761410e95610d568861425b936142649861426b96600092614271575b506142498261277f61409894958b611023565b986142548d8a611023565b5190614782565b93849251611754565b9586611023565b52610c6a565b614098925061277f936142956142499260203d60201161020f5761020181836102fb565b93509350614236565b81156142a8570490565b634e487b7160e01b600052601260045260246000fd5b92916142ca8451611754565b9360005b815181101561430857806142f7856142f2866142ec60019688611023565b51613027565b61429e565b6143018289611023565b52016142ce565b50505050565b9061431891613027565b6001670de0b6b3a7640000600019830104019015150290565b806143395750565b61010a906146ff565b9161434c91613027565b670de0b6b3a7640000820291808304670de0b6b3a76400001490151715610941576104399161429e565b91949290946000956000958161438d575050505050565b8497506125166143a68260c06143b29697980151611023565b519160a08a0151611023565b946143bd8151614d64565b156143ca575b8080611ce0565b62ffffff91929450516143db614d08565b1c1664174876e80081029080820464174876e8001490151715610941576144029085614ef4565b9284841161444a578061194d61443b6144216144419461194d87610beb565b54614435886001600160801b038316612368565b90614f07565b93610beb565b553880806143c3565b634c69ac5d60e01b60005260046000fd5b91906080670de0b6b3a764000061449f6116e7948061447e8660608a0151611023565b526132966144908660c08a0151611023565b51610d4f8760a08b0151611023565b04930151611023565b92826144b8836060870151611023565b526144c281610e75565b61454e576002915b6144d88260c0860151611023565b516144e78360a0870151611023565b51938060011461452a5760021461450e57634e487b7160e01b600052605160045260246000fd5b6116e793610d5661452192608094613027565b935b0151611023565b506145476116e794613296670de0b6b3a764000093608095613027565b0493614523565b6001916144ca565b6001600160a01b03166000908152600560205260408120919291905b606084015180518210156145a45790614590613e4582600194611023565b816000528360205260406000205501614572565b5050509050565b3215806145b55790565b506001600754161590565b90326145f3576145e49160018060a01b0316600052600f6020526040600020610c1f565b80549182018092116109415755565b6333fc255960e11b60005260046000fd5b90916001600160a01b038316918215611f48576146248461194d83610bd1565b548083116146e85782900361463c8561194d84610bd1565b556146508261464a83610c05565b54610c6a565b61465981614c84565b61466282610c05565b556001600160a01b031690813b156100fa576040516323de665160e01b81526001600160a01b039490941660048501526000602485018190526044850182905293600080516020615010833981519152916146d591868160648183895af16146da57506040519081529081906020820190565b0390a4565b80611dcb88611dd1936102fb565b63391434e360e21b600052611deb90839086611cb1565b7f00000000000000000000000000000000000000000000000000000000000000001161472757565b6303da9a2360e31b60005260046000fd5b90801561477157670de0b6b3a7640000820291808304670de0b6b3a7640000149015171561094157600190600019830104019015150290565b630a0c22c760e01b60005260046000fd5b82156147715760019161479491613027565b91600019830104019015150290565b90610439926147b191613027565b90614738565b670de0b6b3a76400008082040281036147cd5790565b600181018091116109415790565b600080916020815191016a636f6e736f6c652e6c6f675afa50565b9161329661480d92670de0b6b3a764000094613027565b0490565b60019060ff614828612fd2612fd2612fd286612fa0565b161c161561483257565b63121db02f60e21b60005260046000fd5b90946020614855856148879695612368565b916148608584614738565b9061486b8282614f76565b604051808098819462b5059f60e51b83528c89600485016141a1565b03916001600160a01b03165afa9384156102165761410e9561409861409261407f86614264998c996148ee988b61425b996000946148f4575b50906148e76148e06148d96142f29461259d9798611023565b5187610c6a565b9d8d611023565b5190613027565b52612368565b61259d94506148e06148d96142f2949361491f6148e79460203d60201161020f5761020181836102fb565b975093945050506148c0565b602081519161493b8451846121cc565b8180820194019260051b0101915b82811061495557505050565b8051825260209182019101614949565b604051906149746040836102fb565b600e82526d23206e657742616c616e6365735b60901b6020830152565b604051906149a06040836102fb565b60018252605d60f81b6020830152565b604051906149bf6040836102fb565b601a825279232070726f706f7274696f6e616c546f6b656e42616c616e636560301b6020830152565b9192909382516149f781611754565b92614a0182611754565b9660005b838110614bdc575050604051631309bd3d60e31b8152946001600160a01b038416939060208780614a3984600483016117d8565b0381885afa96871561021657600097614bbb575b50604051631309bd3d60e31b815260208180614a6c8a600483016117bb565b0381895afa90811561021657886142f2614a9993614a9293600091614b9c575b50613003565b8093614f76565b60005b848110614af4575050505050614aca916020916040518080958194631309bd3d60e31b8352600483016117bb565b03915afa92831561021657614aee8361410e956142f294600091611b695750610c6a565b90613027565b80614b0b614b0460019385611023565b5185614ef4565b8581614b17848c611023565b5111614b26575b505001614a9c565b614b6691614b49614b37858d611023565b51614b40614965565b8661154e614991565b614b55816114666149b0565b614b5f848c611023565b510361430e565b614b70828d611023565b52614b8a8b613e9483614b83818d611023565b5192611023565b614b94828a611023565b523885614b1e565b614bb5915060203d60201161020f5761020181836102fb565b38614a8c565b614bd591975060203d60201161020f5761020181836102fb565b9538614a4d565b80614c06614c01614bef6001948b611023565b51614bfa8487611023565b5190612368565b610c5b565b614c108289611023565b5201614a05565b60019060ff614c27612fd2612fbc565b161c1615614c3157565b63efe0265d60e01b60005260046000fd5b9291614c4e8451611754565b9360005b81518110156143085780614c738585614c6d60019587611023565b51614782565b614c7d8289611023565b5201614c52565b620f42408110614c915750565b6334e3483f60e21b60005260045260246000fd5b9064ffffffffff614cb582611754565b92614cbe615007565b1c1660005b828110614cd05750505090565b60058102818104600514821517156109415782601f911c1690604d821161094157600191600a0a614d018287611023565b5201614cc3565b60ff614d12612fd7565b16601881018091116109415790565b614d29614d08565b601881018091116109415790565b62ffffff90614d44614d21565b1c1664174876e80081029080820464174876e80014901517156109415790565b60019060ff614d75612fd284612fa0565b161c1690565b8051614d8681610e75565b614d8f81610e75565b80614da2575050670de0b6b3a764000090565b80614dae600192610e75565b03614e05576020614dc6610dc88260049401516100dd565b6040516333cd77e760e11b815292839182905afa90811561021657600091614dec575090565b610439915060203d60201161020f5761020181836102fb565b636fa2831960e11b60005260046000fd5b909392600094614e2a846080850151611023565b51818111614e39575050505050565b614e5f95965091614e4e91612516930361430e565b9260a061250d8260c0860151611023565b903880808080611ce0565b61043991906001600160801b03166138c2565b604051635b3bfd2b60e11b81529190602090839060049082906001600160a01b03165afa91821561021657600092614ed3575b50818110614ebc575050565b63718e4adf60e11b60005260045260245260446000fd5b614eed91925060203d60201161020f5761020181836102fb565b9038614eb0565b670de0b6b3a76400009161480d91613027565b906104399160801c906138c2565b90614f3b5750805115614f2a57805190602001fd5b63d6bda27560e01b60005260046000fd5b81511580614f6d575b614f4c575090565b639996b31560e01b60009081526001600160a01b0391909116600452602490fd5b50803b15614f44565b60405163273c1adf60e01b81529190602090839060049082906001600160a01b03165afa91821561021657600092614fcc575b50818111614fb5575050565b630fa2583760e21b60005260045260245260446000fd5b614fe691925060203d60201161020f5761020181836102fb565b9038614fa9565b9063ffffffff8091169116019063ffffffff821161094157565b614d29614d2156fed1398bee19313d6bf672ccb116e51f4a1a947e91c757907f51fbb5b5e56c698f9b779b17422d0df92223018b32b4d1fa46e071723d6817e2486d003becc55f00a2646970667358221220509abd402a0c5582053cbb942a82e6391292e560be5bdf8ff98ca064cf73870064736f6c634300081a0033",
  "linkReferences": {},
  "deployedLinkReferences": {}
}