{
  "_format": "hh-sol-artifact-1",
  "contractName": "Vault",
  "sourceName": "contracts/_Vault.sol",
  "abi": [
    {
      "inputs": [
        {
          "internalType": "contract IVaultExtension",
          "name": "vaultExtension",
          "type": "address"
        },
        {
          "internalType": "contract IAuthorizer",
          "name": "authorizer",
          "type": "address"
        },
        {
          "internalType": "contract IProtocolFeeController",
          "name": "protocolFeeController",
          "type": "address"
        }
      ],
      "stateMutability": "nonpayable",
      "type": "constructor"
    },
    {
      "inputs": [
        {
          "internalType": "address",
          "name": "target",
          "type": "address"
        }
      ],
      "name": "AddressEmptyCode",
      "type": "error"
    },
    {
      "inputs": [],
      "name": "AfterAddLiquidityHookFailed",
      "type": "error"
    },
    {
      "inputs": [],
      "name": "AfterInitializeHookFailed",
      "type": "error"
    },
    {
      "inputs": [],
      "name": "AfterRemoveLiquidityHookFailed",
      "type": "error"
    },
    {
      "inputs": [],
      "name": "AfterSwapHookFailed",
      "type": "error"
    },
    {
      "inputs": [],
      "name": "AllZeroInputs",
      "type": "error"
    },
    {
      "inputs": [],
      "name": "AmountGivenZero",
      "type": "error"
    },
    {
      "inputs": [
        {
          "internalType": "contract IERC20",
          "name": "tokenIn",
          "type": "address"
        },
        {
          "internalType": "uint256",
          "name": "amountIn",
          "type": "uint256"
        },
        {
          "internalType": "uint256",
          "name": "maxAmountIn",
          "type": "uint256"
        }
      ],
      "name": "AmountInAboveMax",
      "type": "error"
    },
    {
      "inputs": [
        {
          "internalType": "contract IERC20",
          "name": "tokenOut",
          "type": "address"
        },
        {
          "internalType": "uint256",
          "name": "amountOut",
          "type": "uint256"
        },
        {
          "internalType": "uint256",
          "name": "minAmountOut",
          "type": "uint256"
        }
      ],
      "name": "AmountOutBelowMin",
      "type": "error"
    },
    {
      "inputs": [],
      "name": "BalanceNotSettled",
      "type": "error"
    },
    {
      "inputs": [],
      "name": "BalanceOverflow",
      "type": "error"
    },
    {
      "inputs": [],
      "name": "BeforeAddLiquidityHookFailed",
      "type": "error"
    },
    {
      "inputs": [],
      "name": "BeforeInitializeHookFailed",
      "type": "error"
    },
    {
      "inputs": [],
      "name": "BeforeRemoveLiquidityHookFailed",
      "type": "error"
    },
    {
      "inputs": [],
      "name": "BeforeSwapHookFailed",
      "type": "error"
    },
    {
      "inputs": [
        {
          "internalType": "uint256",
          "name": "amountIn",
          "type": "uint256"
        },
        {
          "internalType": "uint256",
          "name": "maxAmountIn",
          "type": "uint256"
        }
      ],
      "name": "BptAmountInAboveMax",
      "type": "error"
    },
    {
      "inputs": [
        {
          "internalType": "uint256",
          "name": "amountOut",
          "type": "uint256"
        },
        {
          "internalType": "uint256",
          "name": "minAmountOut",
          "type": "uint256"
        }
      ],
      "name": "BptAmountOutBelowMin",
      "type": "error"
    },
    {
      "inputs": [
        {
          "internalType": "contract IERC4626",
          "name": "wrappedToken",
          "type": "address"
        }
      ],
      "name": "BufferAlreadyInitialized",
      "type": "error"
    },
    {
      "inputs": [
        {
          "internalType": "contract IERC4626",
          "name": "wrappedToken",
          "type": "address"
        }
      ],
      "name": "BufferNotInitialized",
      "type": "error"
    },
    {
      "inputs": [],
      "name": "BufferSharesInvalidOwner",
      "type": "error"
    },
    {
      "inputs": [],
      "name": "BufferSharesInvalidReceiver",
      "type": "error"
    },
    {
      "inputs": [
        {
          "internalType": "uint256",
          "name": "totalSupply",
          "type": "uint256"
        }
      ],
      "name": "BufferTotalSupplyTooLow",
      "type": "error"
    },
    {
      "inputs": [],
      "name": "CannotReceiveEth",
      "type": "error"
    },
    {
      "inputs": [],
      "name": "CannotSwapSameToken",
      "type": "error"
    },
    {
      "inputs": [],
      "name": "DoesNotSupportAddLiquidityCustom",
      "type": "error"
    },
    {
      "inputs": [],
      "name": "DoesNotSupportDonation",
      "type": "error"
    },
    {
      "inputs": [],
      "name": "DoesNotSupportRemoveLiquidityCustom",
      "type": "error"
    },
    {
      "inputs": [],
      "name": "DoesNotSupportUnbalancedLiquidity",
      "type": "error"
    },
    {
      "inputs": [],
      "name": "DynamicSwapFeeHookFailed",
      "type": "error"
    },
    {
      "inputs": [
        {
          "internalType": "address",
          "name": "spender",
          "type": "address"
        },
        {
          "internalType": "uint256",
          "name": "allowance",
          "type": "uint256"
        },
        {
          "internalType": "uint256",
          "name": "needed",
          "type": "uint256"
        }
      ],
      "name": "ERC20InsufficientAllowance",
      "type": "error"
    },
    {
      "inputs": [
        {
          "internalType": "address",
          "name": "sender",
          "type": "address"
        },
        {
          "internalType": "uint256",
          "name": "balance",
          "type": "uint256"
        },
        {
          "internalType": "uint256",
          "name": "needed",
          "type": "uint256"
        }
      ],
      "name": "ERC20InsufficientBalance",
      "type": "error"
    },
    {
      "inputs": [
        {
          "internalType": "address",
          "name": "approver",
          "type": "address"
        }
      ],
      "name": "ERC20InvalidApprover",
      "type": "error"
    },
    {
      "inputs": [
        {
          "internalType": "address",
          "name": "receiver",
          "type": "address"
        }
      ],
      "name": "ERC20InvalidReceiver",
      "type": "error"
    },
    {
      "inputs": [
        {
          "internalType": "address",
          "name": "sender",
          "type": "address"
        }
      ],
      "name": "ERC20InvalidSender",
      "type": "error"
    },
    {
      "inputs": [
        {
          "internalType": "address",
          "name": "spender",
          "type": "address"
        }
      ],
      "name": "ERC20InvalidSpender",
      "type": "error"
    },
    {
      "inputs": [],
      "name": "FailedCall",
      "type": "error"
    },
    {
      "inputs": [],
      "name": "FeePrecisionTooHigh",
      "type": "error"
    },
    {
      "inputs": [
        {
          "internalType": "contract IERC20",
          "name": "tokenIn",
          "type": "address"
        },
        {
          "internalType": "uint256",
          "name": "amountIn",
          "type": "uint256"
        },
        {
          "internalType": "uint256",
          "name": "maxAmountIn",
          "type": "uint256"
        }
      ],
      "name": "HookAdjustedAmountInAboveMax",
      "type": "error"
    },
    {
      "inputs": [
        {
          "internalType": "contract IERC20",
          "name": "tokenOut",
          "type": "address"
        },
        {
          "internalType": "uint256",
          "name": "amountOut",
          "type": "uint256"
        },
        {
          "internalType": "uint256",
          "name": "minAmountOut",
          "type": "uint256"
        }
      ],
      "name": "HookAdjustedAmountOutBelowMin",
      "type": "error"
    },
    {
      "inputs": [
        {
          "internalType": "uint256",
          "name": "amount",
          "type": "uint256"
        },
        {
          "internalType": "uint256",
          "name": "limit",
          "type": "uint256"
        }
      ],
      "name": "HookAdjustedSwapLimit",
      "type": "error"
    },
    {
      "inputs": [
        {
          "internalType": "address",
          "name": "poolHooksContract",
          "type": "address"
        },
        {
          "internalType": "address",
          "name": "pool",
          "type": "address"
        },
        {
          "internalType": "address",
          "name": "poolFactory",
          "type": "address"
        }
      ],
      "name": "HookRegistrationFailed",
      "type": "error"
    },
    {
      "inputs": [],
      "name": "InputLengthMismatch",
      "type": "error"
    },
    {
      "inputs": [
        {
          "internalType": "uint256",
          "name": "balance",
          "type": "uint256"
        },
        {
          "internalType": "uint256",
          "name": "needed",
          "type": "uint256"
        }
      ],
      "name": "InsufficientBalance",
      "type": "error"
    },
    {
      "inputs": [],
      "name": "InvalidAddLiquidityKind",
      "type": "error"
    },
    {
      "inputs": [],
      "name": "InvalidRemoveLiquidityKind",
      "type": "error"
    },
    {
      "inputs": [],
      "name": "InvalidToken",
      "type": "error"
    },
    {
      "inputs": [],
      "name": "InvalidTokenConfiguration",
      "type": "error"
    },
    {
      "inputs": [],
      "name": "InvalidTokenDecimals",
      "type": "error"
    },
    {
      "inputs": [],
      "name": "InvalidTokenType",
      "type": "error"
    },
    {
      "inputs": [
        {
          "internalType": "contract IERC4626",
          "name": "wrappedToken",
          "type": "address"
        }
      ],
      "name": "InvalidUnderlyingToken",
      "type": "error"
    },
    {
      "inputs": [
        {
          "internalType": "uint256",
          "name": "invariantRatio",
          "type": "uint256"
        },
        {
          "internalType": "uint256",
          "name": "maxInvariantRatio",
          "type": "uint256"
        }
      ],
      "name": "InvariantRatioAboveMax",
      "type": "error"
    },
    {
      "inputs": [
        {
          "internalType": "uint256",
          "name": "invariantRatio",
          "type": "uint256"
        },
        {
          "internalType": "uint256",
          "name": "minInvariantRatio",
          "type": "uint256"
        }
      ],
      "name": "InvariantRatioBelowMin",
      "type": "error"
    },
    {
      "inputs": [
        {
          "internalType": "uint256",
          "name": "issuedShares",
          "type": "uint256"
        },
        {
          "internalType": "uint256",
          "name": "minIssuedShares",
          "type": "uint256"
        }
      ],
      "name": "IssuedSharesBelowMin",
      "type": "error"
    },
    {
      "inputs": [],
      "name": "MaxTokens",
      "type": "error"
    },
    {
      "inputs": [],
      "name": "MinTokens",
      "type": "error"
    },
    {
      "inputs": [],
      "name": "MultipleNonZeroInputs",
      "type": "error"
    },
    {
      "inputs": [],
      "name": "NotEnoughBufferShares",
      "type": "error"
    },
    {
      "inputs": [
        {
          "internalType": "contract IERC4626",
          "name": "wrappedToken",
          "type": "address"
        },
        {
          "internalType": "uint256",
          "name": "expectedUnderlyingAmount",
          "type": "uint256"
        },
        {
          "internalType": "uint256",
          "name": "actualUnderlyingAmount",
          "type": "uint256"
        }
      ],
      "name": "NotEnoughUnderlying",
      "type": "error"
    },
    {
      "inputs": [
        {
          "internalType": "contract IERC4626",
          "name": "wrappedToken",
          "type": "address"
        },
        {
          "internalType": "uint256",
          "name": "expectedWrappedAmount",
          "type": "uint256"
        },
        {
          "internalType": "uint256",
          "name": "actualWrappedAmount",
          "type": "uint256"
        }
      ],
      "name": "NotEnoughWrapped",
      "type": "error"
    },
    {
      "inputs": [],
      "name": "NotStaticCall",
      "type": "error"
    },
    {
      "inputs": [],
      "name": "NotVaultDelegateCall",
      "type": "error"
    },
    {
      "inputs": [],
      "name": "PauseBufferPeriodDurationTooLarge",
      "type": "error"
    },
    {
      "inputs": [],
      "name": "PercentageAboveMax",
      "type": "error"
    },
    {
      "inputs": [
        {
          "internalType": "address",
          "name": "pool",
          "type": "address"
        }
      ],
      "name": "PoolAlreadyInitialized",
      "type": "error"
    },
    {
      "inputs": [
        {
          "internalType": "address",
          "name": "pool",
          "type": "address"
        }
      ],
      "name": "PoolAlreadyRegistered",
      "type": "error"
    },
    {
      "inputs": [
        {
          "internalType": "address",
          "name": "pool",
          "type": "address"
        }
      ],
      "name": "PoolInRecoveryMode",
      "type": "error"
    },
    {
      "inputs": [
        {
          "internalType": "address",
          "name": "pool",
          "type": "address"
        }
      ],
      "name": "PoolNotInRecoveryMode",
      "type": "error"
    },
    {
      "inputs": [
        {
          "internalType": "address",
          "name": "pool",
          "type": "address"
        }
      ],
      "name": "PoolNotInitialized",
      "type": "error"
    },
    {
      "inputs": [
        {
          "internalType": "address",
          "name": "pool",
          "type": "address"
        }
      ],
      "name": "PoolNotPaused",
      "type": "error"
    },
    {
      "inputs": [
        {
          "internalType": "address",
          "name": "pool",
          "type": "address"
        }
      ],
      "name": "PoolNotRegistered",
      "type": "error"
    },
    {
      "inputs": [
        {
          "internalType": "address",
          "name": "pool",
          "type": "address"
        }
      ],
      "name": "PoolPauseWindowExpired",
      "type": "error"
    },
    {
      "inputs": [
        {
          "internalType": "address",
          "name": "pool",
          "type": "address"
        }
      ],
      "name": "PoolPaused",
      "type": "error"
    },
    {
      "inputs": [
        {
          "internalType": "uint256",
          "name": "totalSupply",
          "type": "uint256"
        }
      ],
      "name": "PoolTotalSupplyTooLow",
      "type": "error"
    },
    {
      "inputs": [],
      "name": "ProtocolFeesExceedTotalCollected",
      "type": "error"
    },
    {
      "inputs": [],
      "name": "QueriesDisabled",
      "type": "error"
    },
    {
      "inputs": [],
      "name": "QueriesDisabledPermanently",
      "type": "error"
    },
    {
      "inputs": [],
      "name": "QuoteResultSpoofed",
      "type": "error"
    },
    {
      "inputs": [],
      "name": "ReentrancyGuardReentrantCall",
      "type": "error"
    },
    {
      "inputs": [],
      "name": "RouterNotTrusted",
      "type": "error"
    },
    {
      "inputs": [
        {
          "internalType": "uint256",
          "name": "value",
          "type": "uint256"
        }
      ],
      "name": "SafeCastOverflowedUintToInt",
      "type": "error"
    },
    {
      "inputs": [
        {
          "internalType": "address",
          "name": "token",
          "type": "address"
        }
      ],
      "name": "SafeERC20FailedOperation",
      "type": "error"
    },
    {
      "inputs": [
        {
          "internalType": "address",
          "name": "sender",
          "type": "address"
        }
      ],
      "name": "SenderIsNotVault",
      "type": "error"
    },
    {
      "inputs": [],
      "name": "SwapFeePercentageTooHigh",
      "type": "error"
    },
    {
      "inputs": [],
      "name": "SwapFeePercentageTooLow",
      "type": "error"
    },
    {
      "inputs": [
        {
          "internalType": "uint256",
          "name": "amount",
          "type": "uint256"
        },
        {
          "internalType": "uint256",
          "name": "limit",
          "type": "uint256"
        }
      ],
      "name": "SwapLimit",
      "type": "error"
    },
    {
      "inputs": [
        {
          "internalType": "contract IERC20",
          "name": "token",
          "type": "address"
        }
      ],
      "name": "TokenAlreadyRegistered",
      "type": "error"
    },
    {
      "inputs": [
        {
          "internalType": "contract IERC20",
          "name": "token",
          "type": "address"
        }
      ],
      "name": "TokenNotRegistered",
      "type": "error"
    },
    {
      "inputs": [
        {
          "internalType": "address",
          "name": "pool",
          "type": "address"
        },
        {
          "internalType": "address",
          "name": "expectedToken",
          "type": "address"
        },
        {
          "internalType": "address",
          "name": "actualToken",
          "type": "address"
        }
      ],
      "name": "TokensMismatch",
      "type": "error"
    },
    {
      "inputs": [],
      "name": "TradeAmountTooSmall",
      "type": "error"
    },
    {
      "inputs": [],
      "name": "VaultBuffersArePaused",
      "type": "error"
    },
    {
      "inputs": [],
      "name": "VaultIsNotUnlocked",
      "type": "error"
    },
    {
      "inputs": [],
      "name": "VaultNotPaused",
      "type": "error"
    },
    {
      "inputs": [],
      "name": "VaultPauseWindowDurationTooLarge",
      "type": "error"
    },
    {
      "inputs": [],
      "name": "VaultPauseWindowExpired",
      "type": "error"
    },
    {
      "inputs": [],
      "name": "VaultPaused",
      "type": "error"
    },
    {
      "inputs": [
        {
          "internalType": "contract IERC4626",
          "name": "wrappedToken",
          "type": "address"
        }
      ],
      "name": "WrapAmountTooSmall",
      "type": "error"
    },
    {
      "inputs": [],
      "name": "WrongProtocolFeeControllerDeployment",
      "type": "error"
    },
    {
      "inputs": [
        {
          "internalType": "contract IERC4626",
          "name": "wrappedToken",
          "type": "address"
        },
        {
          "internalType": "address",
          "name": "underlyingToken",
          "type": "address"
        }
      ],
      "name": "WrongUnderlyingToken",
      "type": "error"
    },
    {
      "inputs": [],
      "name": "WrongVaultAdminDeployment",
      "type": "error"
    },
    {
      "inputs": [],
      "name": "WrongVaultExtensionDeployment",
      "type": "error"
    },
    {
      "inputs": [],
      "name": "ZeroDivision",
      "type": "error"
    },
    {
      "anonymous": false,
      "inputs": [
        {
          "indexed": true,
          "internalType": "address",
          "name": "pool",
          "type": "address"
        },
        {
          "indexed": false,
          "internalType": "uint256",
          "name": "aggregateSwapFeePercentage",
          "type": "uint256"
        }
      ],
      "name": "AggregateSwapFeePercentageChanged",
      "type": "event"
    },
    {
      "anonymous": false,
      "inputs": [
        {
          "indexed": true,
          "internalType": "address",
          "name": "pool",
          "type": "address"
        },
        {
          "indexed": false,
          "internalType": "uint256",
          "name": "aggregateYieldFeePercentage",
          "type": "uint256"
        }
      ],
      "name": "AggregateYieldFeePercentageChanged",
      "type": "event"
    },
    {
      "anonymous": false,
      "inputs": [
        {
          "indexed": true,
          "internalType": "address",
          "name": "pool",
          "type": "address"
        },
        {
          "indexed": true,
          "internalType": "address",
          "name": "owner",
          "type": "address"
        },
        {
          "indexed": true,
          "internalType": "address",
          "name": "spender",
          "type": "address"
        },
        {
          "indexed": false,
          "internalType": "uint256",
          "name": "value",
          "type": "uint256"
        }
      ],
      "name": "Approval",
      "type": "event"
    },
    {
      "anonymous": false,
      "inputs": [
        {
          "indexed": true,
          "internalType": "contract IAuthorizer",
          "name": "newAuthorizer",
          "type": "address"
        }
      ],
      "name": "AuthorizerChanged",
      "type": "event"
    },
    {
      "anonymous": false,
      "inputs": [
        {
          "indexed": true,
          "internalType": "contract IERC4626",
          "name": "wrappedToken",
          "type": "address"
        },
        {
          "indexed": true,
          "internalType": "address",
          "name": "from",
          "type": "address"
        },
        {
          "indexed": false,
          "internalType": "uint256",
          "name": "burnedShares",
          "type": "uint256"
        }
      ],
      "name": "BufferSharesBurned",
      "type": "event"
    },
    {
      "anonymous": false,
      "inputs": [
        {
          "indexed": true,
          "internalType": "contract IERC4626",
          "name": "wrappedToken",
          "type": "address"
        },
        {
          "indexed": true,
          "internalType": "address",
          "name": "to",
          "type": "address"
        },
        {
          "indexed": false,
          "internalType": "uint256",
          "name": "issuedShares",
          "type": "uint256"
        }
      ],
      "name": "BufferSharesMinted",
      "type": "event"
    },
    {
      "anonymous": false,
      "inputs": [
        {
          "indexed": true,
          "internalType": "address",
          "name": "pool",
          "type": "address"
        },
        {
          "indexed": true,
          "internalType": "address",
          "name": "liquidityProvider",
          "type": "address"
        },
        {
          "indexed": true,
          "internalType": "enum AddLiquidityKind",
          "name": "kind",
          "type": "uint8"
        },
        {
          "indexed": false,
          "internalType": "uint256",
          "name": "totalSupply",
          "type": "uint256"
        },
        {
          "indexed": false,
          "internalType": "uint256[]",
          "name": "amountsAddedRaw",
          "type": "uint256[]"
        },
        {
          "indexed": false,
          "internalType": "uint256[]",
          "name": "swapFeeAmountsRaw",
          "type": "uint256[]"
        }
      ],
      "name": "LiquidityAdded",
      "type": "event"
    },
    {
      "anonymous": false,
      "inputs": [
        {
          "indexed": true,
          "internalType": "contract IERC4626",
          "name": "wrappedToken",
          "type": "address"
        },
        {
          "indexed": false,
          "internalType": "uint256",
          "name": "amountUnderlying",
          "type": "uint256"
        },
        {
          "indexed": false,
          "internalType": "uint256",
          "name": "amountWrapped",
          "type": "uint256"
        },
        {
          "indexed": false,
          "internalType": "bytes32",
          "name": "bufferBalances",
          "type": "bytes32"
        }
      ],
      "name": "LiquidityAddedToBuffer",
      "type": "event"
    },
    {
      "anonymous": false,
      "inputs": [
        {
          "indexed": true,
          "internalType": "address",
          "name": "pool",
          "type": "address"
        },
        {
          "indexed": true,
          "internalType": "address",
          "name": "liquidityProvider",
          "type": "address"
        },
        {
          "indexed": true,
          "internalType": "enum RemoveLiquidityKind",
          "name": "kind",
          "type": "uint8"
        },
        {
          "indexed": false,
          "internalType": "uint256",
          "name": "totalSupply",
          "type": "uint256"
        },
        {
          "indexed": false,
          "internalType": "uint256[]",
          "name": "amountsRemovedRaw",
          "type": "uint256[]"
        },
        {
          "indexed": false,
          "internalType": "uint256[]",
          "name": "swapFeeAmountsRaw",
          "type": "uint256[]"
        }
      ],
      "name": "LiquidityRemoved",
      "type": "event"
    },
    {
      "anonymous": false,
      "inputs": [
        {
          "indexed": true,
          "internalType": "contract IERC4626",
          "name": "wrappedToken",
          "type": "address"
        },
        {
          "indexed": false,
          "internalType": "uint256",
          "name": "amountUnderlying",
          "type": "uint256"
        },
        {
          "indexed": false,
          "internalType": "uint256",
          "name": "amountWrapped",
          "type": "uint256"
        },
        {
          "indexed": false,
          "internalType": "bytes32",
          "name": "bufferBalances",
          "type": "bytes32"
        }
      ],
      "name": "LiquidityRemovedFromBuffer",
      "type": "event"
    },
    {
      "anonymous": false,
      "inputs": [
        {
          "indexed": true,
          "internalType": "address",
          "name": "pool",
          "type": "address"
        }
      ],
      "name": "PoolInitialized",
      "type": "event"
    },
    {
      "anonymous": false,
      "inputs": [
        {
          "indexed": true,
          "internalType": "address",
          "name": "pool",
          "type": "address"
        },
        {
          "indexed": false,
          "internalType": "bool",
          "name": "paused",
          "type": "bool"
        }
      ],
      "name": "PoolPausedStateChanged",
      "type": "event"
    },
    {
      "anonymous": false,
      "inputs": [
        {
          "indexed": true,
          "internalType": "address",
          "name": "pool",
          "type": "address"
        },
        {
          "indexed": false,
          "internalType": "bool",
          "name": "recoveryMode",
          "type": "bool"
        }
      ],
      "name": "PoolRecoveryModeStateChanged",
      "type": "event"
    },
    {
      "anonymous": false,
      "inputs": [
        {
          "indexed": true,
          "internalType": "address",
          "name": "pool",
          "type": "address"
        },
        {
          "indexed": true,
          "internalType": "address",
          "name": "factory",
          "type": "address"
        },
        {
          "components": [
            {
              "internalType": "contract IERC20",
              "name": "token",
              "type": "address"
            },
            {
              "internalType": "enum TokenType",
              "name": "tokenType",
              "type": "uint8"
            },
            {
              "internalType": "contract IRateProvider",
              "name": "rateProvider",
              "type": "address"
            },
            {
              "internalType": "bool",
              "name": "paysYieldFees",
              "type": "bool"
            }
          ],
          "indexed": false,
          "internalType": "struct TokenConfig[]",
          "name": "tokenConfig",
          "type": "tuple[]"
        },
        {
          "indexed": false,
          "internalType": "uint256",
          "name": "swapFeePercentage",
          "type": "uint256"
        },
        {
          "indexed": false,
          "internalType": "uint32",
          "name": "pauseWindowEndTime",
          "type": "uint32"
        },
        {
          "components": [
            {
              "internalType": "address",
              "name": "pauseManager",
              "type": "address"
            },
            {
              "internalType": "address",
              "name": "swapFeeManager",
              "type": "address"
            },
            {
              "internalType": "address",
              "name": "poolCreator",
              "type": "address"
            }
          ],
          "indexed": false,
          "internalType": "struct PoolRoleAccounts",
          "name": "roleAccounts",
          "type": "tuple"
        },
        {
          "components": [
            {
              "internalType": "bool",
              "name": "enableHookAdjustedAmounts",
              "type": "bool"
            },
            {
              "internalType": "bool",
              "name": "shouldCallBeforeInitialize",
              "type": "bool"
            },
            {
              "internalType": "bool",
              "name": "shouldCallAfterInitialize",
              "type": "bool"
            },
            {
              "internalType": "bool",
              "name": "shouldCallComputeDynamicSwapFee",
              "type": "bool"
            },
            {
              "internalType": "bool",
              "name": "shouldCallBeforeSwap",
              "type": "bool"
            },
            {
              "internalType": "bool",
              "name": "shouldCallAfterSwap",
              "type": "bool"
            },
            {
              "internalType": "bool",
              "name": "shouldCallBeforeAddLiquidity",
              "type": "bool"
            },
            {
              "internalType": "bool",
              "name": "shouldCallAfterAddLiquidity",
              "type": "bool"
            },
            {
              "internalType": "bool",
              "name": "shouldCallBeforeRemoveLiquidity",
              "type": "bool"
            },
            {
              "internalType": "bool",
              "name": "shouldCallAfterRemoveLiquidity",
              "type": "bool"
            },
            {
              "internalType": "address",
              "name": "hooksContract",
              "type": "address"
            }
          ],
          "indexed": false,
          "internalType": "struct HooksConfig",
          "name": "hooksConfig",
          "type": "tuple"
        },
        {
          "components": [
            {
              "internalType": "bool",
              "name": "disableUnbalancedLiquidity",
              "type": "bool"
            },
            {
              "internalType": "bool",
              "name": "enableAddLiquidityCustom",
              "type": "bool"
            },
            {
              "internalType": "bool",
              "name": "enableRemoveLiquidityCustom",
              "type": "bool"
            },
            {
              "internalType": "bool",
              "name": "enableDonation",
              "type": "bool"
            }
          ],
          "indexed": false,
          "internalType": "struct LiquidityManagement",
          "name": "liquidityManagement",
          "type": "tuple"
        }
      ],
      "name": "PoolRegistered",
      "type": "event"
    },
    {
      "anonymous": false,
      "inputs": [
        {
          "indexed": true,
          "internalType": "contract IProtocolFeeController",
          "name": "newProtocolFeeController",
          "type": "address"
        }
      ],
      "name": "ProtocolFeeControllerChanged",
      "type": "event"
    },
    {
      "anonymous": false,
      "inputs": [
        {
          "indexed": true,
          "internalType": "address",
          "name": "pool",
          "type": "address"
        },
        {
          "indexed": true,
          "internalType": "contract IERC20",
          "name": "tokenIn",
          "type": "address"
        },
        {
          "indexed": true,
          "internalType": "contract IERC20",
          "name": "tokenOut",
          "type": "address"
        },
        {
          "indexed": false,
          "internalType": "uint256",
          "name": "amountIn",
          "type": "uint256"
        },
        {
          "indexed": false,
          "internalType": "uint256",
          "name": "amountOut",
          "type": "uint256"
        },
        {
          "indexed": false,
          "internalType": "uint256",
          "name": "swapFeePercentage",
          "type": "uint256"
        },
        {
          "indexed": false,
          "internalType": "uint256",
          "name": "swapFeeAmount",
          "type": "uint256"
        }
      ],
      "name": "Swap",
      "type": "event"
    },
    {
      "anonymous": false,
      "inputs": [
        {
          "indexed": true,
          "internalType": "address",
          "name": "pool",
          "type": "address"
        },
        {
          "indexed": false,
          "internalType": "uint256",
          "name": "swapFeePercentage",
          "type": "uint256"
        }
      ],
      "name": "SwapFeePercentageChanged",
      "type": "event"
    },
    {
      "anonymous": false,
      "inputs": [
        {
          "indexed": true,
          "internalType": "address",
          "name": "pool",
          "type": "address"
        },
        {
          "indexed": true,
          "internalType": "address",
          "name": "from",
          "type": "address"
        },
        {
          "indexed": true,
          "internalType": "address",
          "name": "to",
          "type": "address"
        },
        {
          "indexed": false,
          "internalType": "uint256",
          "name": "value",
          "type": "uint256"
        }
      ],
      "name": "Transfer",
      "type": "event"
    },
    {
      "anonymous": false,
      "inputs": [
        {
          "indexed": true,
          "internalType": "contract IERC4626",
          "name": "wrappedToken",
          "type": "address"
        },
        {
          "indexed": false,
          "internalType": "uint256",
          "name": "burnedShares",
          "type": "uint256"
        },
        {
          "indexed": false,
          "internalType": "uint256",
          "name": "withdrawnUnderlying",
          "type": "uint256"
        },
        {
          "indexed": false,
          "internalType": "bytes32",
          "name": "bufferBalances",
          "type": "bytes32"
        }
      ],
      "name": "Unwrap",
      "type": "event"
    },
    {
      "anonymous": false,
      "inputs": [
        {
          "indexed": true,
          "internalType": "address",
          "name": "pool",
          "type": "address"
        },
        {
          "indexed": true,
          "internalType": "bytes32",
          "name": "eventKey",
          "type": "bytes32"
        },
        {
          "indexed": false,
          "internalType": "bytes",
          "name": "eventData",
          "type": "bytes"
        }
      ],
      "name": "VaultAuxiliary",
      "type": "event"
    },
    {
      "anonymous": false,
      "inputs": [
        {
          "indexed": false,
          "internalType": "bool",
          "name": "paused",
          "type": "bool"
        }
      ],
      "name": "VaultBuffersPausedStateChanged",
      "type": "event"
    },
    {
      "anonymous": false,
      "inputs": [
        {
          "indexed": false,
          "internalType": "bool",
          "name": "paused",
          "type": "bool"
        }
      ],
      "name": "VaultPausedStateChanged",
      "type": "event"
    },
    {
      "anonymous": false,
      "inputs": [],
      "name": "VaultQueriesDisabled",
      "type": "event"
    },
    {
      "anonymous": false,
      "inputs": [],
      "name": "VaultQueriesEnabled",
      "type": "event"
    },
    {
      "anonymous": false,
      "inputs": [
        {
          "indexed": true,
          "internalType": "contract IERC4626",
          "name": "wrappedToken",
          "type": "address"
        },
        {
          "indexed": false,
          "internalType": "uint256",
          "name": "depositedUnderlying",
          "type": "uint256"
        },
        {
          "indexed": false,
          "internalType": "uint256",
          "name": "mintedShares",
          "type": "uint256"
        },
        {
          "indexed": false,
          "internalType": "bytes32",
          "name": "bufferBalances",
          "type": "bytes32"
        }
      ],
      "name": "Wrap",
      "type": "event"
    },
    {
      "stateMutability": "payable",
      "type": "fallback"
    },
    {
      "inputs": [
        {
          "components": [
            {
              "internalType": "address",
              "name": "pool",
              "type": "address"
            },
            {
              "internalType": "address",
              "name": "to",
              "type": "address"
            },
            {
              "internalType": "uint256[]",
              "name": "maxAmountsIn",
              "type": "uint256[]"
            },
            {
              "internalType": "uint256",
              "name": "minBptAmountOut",
              "type": "uint256"
            },
            {
              "internalType": "enum AddLiquidityKind",
              "name": "kind",
              "type": "uint8"
            },
            {
              "internalType": "bytes",
              "name": "userData",
              "type": "bytes"
            }
          ],
          "internalType": "struct AddLiquidityParams",
          "name": "params",
          "type": "tuple"
        }
      ],
      "name": "addLiquidity",
      "outputs": [
        {
          "internalType": "uint256[]",
          "name": "amountsIn",
          "type": "uint256[]"
        },
        {
          "internalType": "uint256",
          "name": "bptAmountOut",
          "type": "uint256"
        },
        {
          "internalType": "bytes",
          "name": "returnData",
          "type": "bytes"
        }
      ],
      "stateMutability": "nonpayable",
      "type": "function"
    },
    {
      "inputs": [
        {
          "internalType": "address",
          "name": "pool",
          "type": "address"
        },
        {
          "internalType": "contract IERC20",
          "name": "token",
          "type": "address"
        },
        {
          "components": [
            {
              "internalType": "enum TokenType",
              "name": "tokenType",
              "type": "uint8"
            },
            {
              "internalType": "contract IRateProvider",
              "name": "rateProvider",
              "type": "address"
            },
            {
              "internalType": "bool",
              "name": "paysYieldFees",
              "type": "bool"
            }
          ],
          "internalType": "struct TokenInfo",
          "name": "tokenInfo",
          "type": "tuple"
        }
      ],
      "name": "addNewToken",
      "outputs": [
        {
          "internalType": "uint256",
          "name": "tokenIndex",
          "type": "uint256"
        }
      ],
      "stateMutability": "nonpayable",
      "type": "function"
    },
    {
      "inputs": [
        {
          "internalType": "address",
          "name": "pool",
          "type": "address"
        },
        {
          "internalType": "contract IERC20",
          "name": "token",
          "type": "address"
        }
      ],
      "name": "getPoolTokenCountAndIndexOfToken",
      "outputs": [
        {
          "internalType": "uint256",
          "name": "",
          "type": "uint256"
        },
        {
          "internalType": "uint256",
          "name": "",
          "type": "uint256"
        }
      ],
      "stateMutability": "view",
      "type": "function"
    },
    {
      "inputs": [],
      "name": "getVaultExtension",
      "outputs": [
        {
          "internalType": "address",
          "name": "",
          "type": "address"
        }
      ],
      "stateMutability": "view",
      "type": "function"
    },
    {
      "inputs": [],
      "name": "reentrancyGuardEntered",
      "outputs": [
        {
          "internalType": "bool",
          "name": "",
          "type": "bool"
        }
      ],
      "stateMutability": "view",
      "type": "function"
    },
    {
      "inputs": [
        {
          "components": [
            {
              "internalType": "address",
              "name": "pool",
              "type": "address"
            },
            {
              "internalType": "address",
              "name": "from",
              "type": "address"
            },
            {
              "internalType": "uint256",
              "name": "maxBptAmountIn",
              "type": "uint256"
            },
            {
              "internalType": "uint256[]",
              "name": "minAmountsOut",
              "type": "uint256[]"
            },
            {
              "internalType": "enum RemoveLiquidityKind",
              "name": "kind",
              "type": "uint8"
            },
            {
              "internalType": "bytes",
              "name": "userData",
              "type": "bytes"
            }
          ],
          "internalType": "struct RemoveLiquidityParams",
          "name": "params",
          "type": "tuple"
        }
      ],
      "name": "removeLiquidity",
      "outputs": [
        {
          "internalType": "uint256",
          "name": "bptAmountIn",
          "type": "uint256"
        },
        {
          "internalType": "uint256[]",
          "name": "amountsOut",
          "type": "uint256[]"
        },
        {
          "internalType": "bytes",
          "name": "returnData",
          "type": "bytes"
        }
      ],
      "stateMutability": "nonpayable",
      "type": "function"
    },
    {
      "inputs": [
        {
          "internalType": "contract IERC20",
          "name": "token",
          "type": "address"
        },
        {
          "internalType": "address",
          "name": "to",
          "type": "address"
        },
        {
          "internalType": "uint256",
          "name": "amount",
          "type": "uint256"
        }
      ],
      "name": "sendTo",
      "outputs": [],
      "stateMutability": "nonpayable",
      "type": "function"
    },
    {
      "inputs": [
        {
          "internalType": "contract IERC20",
          "name": "token",
          "type": "address"
        },
        {
          "internalType": "uint256",
          "name": "amountHint",
          "type": "uint256"
        }
      ],
      "name": "settle",
      "outputs": [
        {
          "internalType": "uint256",
          "name": "credit",
          "type": "uint256"
        }
      ],
      "stateMutability": "nonpayable",
      "type": "function"
    },
    {
      "inputs": [
        {
          "components": [
            {
              "internalType": "enum SwapKind",
              "name": "kind",
              "type": "uint8"
            },
            {
              "internalType": "address",
              "name": "pool",
              "type": "address"
            },
            {
              "internalType": "contract IERC20",
              "name": "tokenIn",
              "type": "address"
            },
            {
              "internalType": "contract IERC20",
              "name": "tokenOut",
              "type": "address"
            },
            {
              "internalType": "uint256",
              "name": "amountGivenRaw",
              "type": "uint256"
            },
            {
              "internalType": "uint256",
              "name": "limitRaw",
              "type": "uint256"
            },
            {
              "internalType": "bytes",
              "name": "userData",
              "type": "bytes"
            }
          ],
          "internalType": "struct VaultSwapParams",
          "name": "vaultSwapParams",
          "type": "tuple"
        }
      ],
      "name": "swap",
      "outputs": [
        {
          "internalType": "uint256",
          "name": "amountCalculated",
          "type": "uint256"
        },
        {
          "internalType": "uint256",
          "name": "amountIn",
          "type": "uint256"
        },
        {
          "internalType": "uint256",
          "name": "amountOut",
          "type": "uint256"
        }
      ],
      "stateMutability": "nonpayable",
      "type": "function"
    },
    {
      "inputs": [
        {
          "internalType": "address",
          "name": "owner",
          "type": "address"
        },
        {
          "internalType": "address",
          "name": "to",
          "type": "address"
        },
        {
          "internalType": "uint256",
          "name": "amount",
          "type": "uint256"
        }
      ],
      "name": "transfer",
      "outputs": [
        {
          "internalType": "bool",
          "name": "",
          "type": "bool"
        }
      ],
      "stateMutability": "nonpayable",
      "type": "function"
    },
    {
      "inputs": [
        {
          "internalType": "address",
          "name": "spender",
          "type": "address"
        },
        {
          "internalType": "address",
          "name": "from",
          "type": "address"
        },
        {
          "internalType": "address",
          "name": "to",
          "type": "address"
        },
        {
          "internalType": "uint256",
          "name": "amount",
          "type": "uint256"
        }
      ],
      "name": "transferFrom",
      "outputs": [
        {
          "internalType": "bool",
          "name": "",
          "type": "bool"
        }
      ],
      "stateMutability": "nonpayable",
      "type": "function"
    },
    {
      "inputs": [
        {
          "internalType": "bytes",
          "name": "data",
          "type": "bytes"
        }
      ],
      "name": "unlock",
      "outputs": [
        {
          "internalType": "bytes",
          "name": "result",
          "type": "bytes"
        }
      ],
      "stateMutability": "nonpayable",
      "type": "function"
    },
    {
      "stateMutability": "payable",
      "type": "receive"
    }
  ],
  "bytecode": "0x6101e080604052346103b057606081614984803803809161002082856104d3565b8339810103126103b05780516001600160a01b038116908181036103b0576020830151926001600160a01b03841684036103b057604001516001600160a01b03811691908290036103b05761009860405161007c6040826104d3565b600a8152691a5cd55b9b1bd8dad95960b21b6020820152610545565b60c0526100cf6040516100ac6040826104d3565b60118152701b9bdb96995c9bd1195b1d1850dbdd5b9d607a1b6020820152610545565b60e0526101006040516100e36040826104d3565b600b81526a746f6b656e44656c74617360a81b6020820152610545565b610100526101396040516101156040826104d3565b6012815271185919131a5c5d5a591a5d1e50d85b1b195960721b6020820152610545565b6101205261016960405161014e6040826104d3565b60098152681cd95cdcda5bdb925960ba1b6020820152610545565b6101405260405163fbfa77cf60e01b8152602081600481875afa9081156103bc575f916104b4575b50306001600160a01b03909116036104a55760405163fbfa77cf60e01b8152602081600481865afa9081156103bc575f91610476575b50306001600160a01b0390911603610467576101c052600980546001600160a01b031916919091179055604051634546891d60e11b8152602081600481855afa9081156103bc575f91610448575b5061016052604051631060fdbd60e11b8152602081600481855afa9081156103bc575f91610429575b506101a05260405163cd51c12f60e01b8152602081600481855afa9081156103bc575f916103fa575b5061018052604051630716585d60e51b8152602081600481855afa9081156103bc575f916103c7575b506080526040516329cab55160e11b815290602090829060049082905afa9081156103bc575f91610386575b5060a05260088054610100600160a81b03191691811b610100600160a81b031691909117905560405161436490816106208239608051816139e4015260a05181505060c051818181610d900152611177015260e051818181610e0401528181612e7f0152612ec401526101005181612e2d015261012051818181610ed90152611ce4015261014051818181610e3001528181610eaa0152611cb701526101605181505061018051816114ae01526101a0518161154b01526101c05181818161099901526110f30152f35b90506020813d6020116103b4575b816103a1602093836104d3565b810103126103b057515f6102bc565b5f80fd5b3d9150610394565b6040513d5f823e3d90fd5b90506020813d6020116103f2575b816103e2602093836104d3565b810103126103b057516004610290565b3d91506103d5565b61041c915060203d602011610422575b61041481836104d3565b810190610529565b5f610267565b503d61040a565b610442915060203d6020116104225761041481836104d3565b5f61023e565b610461915060203d6020116104225761041481836104d3565b5f610215565b631bbe95c760e01b5f5260045ffd5b610498915060203d60201161049e575b61049081836104d3565b81019061050a565b5f6101c7565b503d610486565b6301ab9d9d60e41b5f5260045ffd5b6104cd915060203d60201161049e5761049081836104d3565b5f610191565b601f909101601f19168101906001600160401b038211908210176104f657604052565b634e487b7160e01b5f52604160045260245ffd5b908160209103126103b057516001600160a01b03811681036103b05790565b908160209103126103b0575163ffffffff811681036103b05790565b604051906105546040836104d3565b600c82526105d86001602084016b5661756c7453746f7261676560a01b815260396020604051958693828501987f62616c616e6365722d6c6162732e76332e73746f726167652e000000000000008a525180918587015e840190601760f91b84830152805192839101603a83015e01015f838201520301601f1981018352826104d3565b5190205f19810190811161060b576040519060208201908152602082526106006040836104d3565b9051902060ff191690565b634e487b7160e01b5f52601160045260245ffdfe60806040526004361015610018575b366110e4576110d5565b5f3560e01c806315afd409146100d757806315dacbea146100d257806321457897146100cd5780632bfb780c146100c857806348c89491146100c35780634af29ec4146100be57806398569888146100b9578063ae639329146100b4578063b9a8effa146100af578063beabacc8146100aa578063c9c1661b146100a55763d2c725e00361000e57610a9a565b6109fe565b6109c8565b610984565b61086d565b6107ee565b610710565b610671565b610581565b61048e565b610218565b61010a565b6001600160a01b031690565b6001600160a01b038116036100f957565b5f80fd5b3590610108826100e8565b565b346100f95760403660031901126100f957600435610127816100e8565b60243561013261112e565b61013a611175565b6001600160a01b0382165f818152600760209081526040918290205491516370a0823160e01b8152306004820152919492829060249082905afa938415610213576101d6946101aa925f916101e4575b506001600160a01b0384165f908152600760205260409020819055610b6f565b918083116101da575b50816101be916111ad565b6101c6611163565b6040519081529081906020820190565b0390f35b91506101be6101b3565b610206915060203d60201161020c575b6101fe81836102db565b810190610b3e565b5f61018a565b503d6101f4565b610959565b346100f95760803660031901126100f957610266600435610238816100e8565b602435610244816100e8565b60443590610251826100e8565b610260606435809483336111e6565b33611362565b602060405160018152f35b634e487b7160e01b5f52604160045260245ffd5b606081019081106001600160401b038211176102a057604052565b610271565b60e081019081106001600160401b038211176102a057604052565b608081019081106001600160401b038211176102a057604052565b601f909101601f19168101906001600160401b038211908210176102a057604052565b6040519061010860c0836102db565b6040519061010860e0836102db565b6001600160401b0381116102a05760051b60200190565b9080601f830112156100f957813561034a8161031c565b9261035860405194856102db565b81845260208085019260051b8201019283116100f957602001905b8282106103805750505090565b8135815260209182019101610373565b359060048210156100f957565b6001600160401b0381116102a057601f01601f191660200190565b9291926103c48261039d565b916103d260405193846102db565b8294818452818301116100f9578281602093845f960137010152565b9080601f830112156100f957816020610409933591016103b8565b90565b90602080835192838152019201905f5b8181106104295750505090565b825184526020938401939092019160010161041c565b805180835260209291819084018484015e5f828201840152601f01601f1916010190565b91610480906104099492845260606020850152606084019061040c565b91604081840391015261043f565b346100f95760203660031901126100f9576004356001600160401b0381116100f95760c060031982360301126100f9576104c66102fe565b906104d3816004016100fd565b82526104e1602482016100fd565b60208301526044810135604083015260648101356001600160401b0381116100f9576105139060043691840101610333565b606083015261052460848201610390565b608083015260a4810135916001600160401b0383116100f95761055361055d9260046101d695369201016103ee565b60a0820152610b7c565b60409391935193849384610463565b600211156100f957565b35906101088261056c565b346100f95760203660031901126100f9576004356001600160401b0381116100f95760e060031982360301126100f9576105b961030d565b906105c681600401610576565b82526105d4602482016100fd565b60208301526105e5604482016100fd565b60408301526105f6606482016100fd565b60608301526084810135608083015260a481013560a083015260c4810135916001600160401b0383116100f9576106396106439260046101d695369201016103ee565b60c0820152610c70565b604080519384526020840192909252908201529081906060820190565b90602061040992818152019061043f565b346100f95760203660031901126100f9576004356001600160401b0381116100f957366023820112156100f9576004810135906001600160401b0382116100f95736602483830101116100f9576101d69160246106ce9201610d83565b60405191829182610660565b359060058210156100f957565b6106fd610409949260608352606083019061040c565b926020820152604081840391015261043f565b346100f95760203660031901126100f9576004356001600160401b0381116100f95760c060031982360301126100f9576107486102fe565b90610755816004016100fd565b8252610763602482016100fd565b602083015260448101356001600160401b0381116100f95761078b9060043691840101610333565b6040830152606481013560608301526107a6608482016106da565b608083015260a4810135916001600160401b0383116100f9576107d56107df9260046101d695369201016103ee565b60a0820152610e74565b604093919351938493846106e7565b346100f95760a03660031901126100f95760043561080b816100e8565b602435610817816100e8565b60603660431901126100f95760405161082f81610285565b60443561083b8161056c565b8152606435610849816100e8565b60208201526084359182151583036100f9576101d6936101c6936040840152610fd4565b346100f95760603660031901126100f95760043561088a816100e8565b602435610896816100e8565b604435906108a261112e565b6108aa611175565b6108bc6108b683612e01565b84612e24565b60018060a01b03831692835f52600760205260405f2091825492848403938411610964576020945f94859255604051908682019363a9059cbb60e01b855260018060a01b0316602483015260448201526044815261091b6064826102db565b51925af115610959575f513d6109505750803b155b61093e5761093c611163565b005b635274afe760e01b5f5260045260245ffd5b60011415610930565b6040513d5f823e3d90fd5b610b4d565b5f9103126100f957565b6001600160a01b0316600452602490565b346100f9575f3660031901126100f9576040517f00000000000000000000000000000000000000000000000000000000000000006001600160a01b03168152602090f35b346100f95760603660031901126100f9576102666004356109e8816100e8565b6024356109f4816100e8565b6044359133611362565b346100f95760403660031901126100f957600435610a1b816100e8565b60243590610a28826100e8565b60018060a01b031690815f525f602052600160405f20541615610a8757610a7490610a67925f526002602052610a6e60405f2060405194858092611095565b03846102db565b82612da3565b9051604080519182526020820192909252f35b506327946f5760e21b5f5260045260245ffd5b346100f9575f3660031901126100f95760205f8051602061430f8339815191525c6040519015158152f35b6001600160a01b03165f90815260046020526040902090565b6001600160a01b03165f908152600e6020526040902090565b6001600160a01b03165f90815260056020526040902090565b6001600160a01b03165f90815260106020526040902090565b9060018060a01b03165f5260205260405f2090565b908160209103126100f9575190565b634e487b7160e01b5f52601160045260245ffd5b5f1981019190821161096457565b9190820391821161096457565b90610b85611175565b8151610b99906001600160a01b0316611470565b8151610bad906001600160a01b03166114a7565b8151610bc9906001600160a01b0316610bc46115a2565b6115d8565b91602083015151610be1606083019182515190611a06565b519060c084015160a085015190835191610bff8251825190856130c2565b610c0883611a1c565b945f5b848110610c2a575050505050610c219293611c21565b92905092909190565b80610c5f610c3a60019385611a4e565b51610c5a610c488489611a4e565b51610c538589611a4e565b5192613105565b613607565b610c69828a611a4e565b5201610c0b565b90610c79611175565b602082018051610c91906001600160a01b0316611470565b610ca3610c9e82516100dc565b6114a7565b608083015115610d5157610cba60408401516100dc565b610ccf610cca60608601516100dc565b6100dc565b6001600160a01b0390911614610d4257610cf7610cef610d1492516100dc565b610bc46115a2565b610d01818561222a565b90610d0d81838761233a565b91856123c6565b909150929192909351610d2681610d74565b610d2f81610d74565b610d3a575081929190565b918093509190565b63a54b181d60e01b5f5260045ffd5b6357a456b760e01b5f5260045ffd5b634e487b7160e01b5f52602160045260245ffd5b60021115610d7e57565b610d60565b919091610dfa5f80610dc17f000000000000000000000000000000000000000000000000000000000000000094855c159788610e6b575b36916103b8565b60208151910182335af13d15610e63573d90610ddc8261039d565b91610dea60405193846102db565b82523d5f602084013e5b336141fa565b92610e025750565b7f00000000000000000000000000000000000000000000000000000000000000005c610e54575f905d6101087f0000000000000000000000000000000000000000000000000000000000000000612819565b6320f1d86d60e01b5f5260045ffd5b606090610df4565b6001875d610dba565b610f5090610e80611175565b8051610e94906001600160a01b0316611470565b8051610ea8906001600160a01b03166114a7565b7f00000000000000000000000000000000000000000000000000000000000000005c60018060a01b03825116905f527f000000000000000000000000000000000000000000000000000000000000000060205260405f20905f52602052600160405f205d610f1e610f1982516100dc565b61181a565b90610f4a602083015151610f39604084019182515190611a06565b5160c084015160a08501519161282a565b91612933565b929390929150565b634e487b7160e01b5f52603260045260245ffd5b90805190610f7982610d74565b610f8282610d74565b825460208201516040909201516001600160b01b031990911660ff939093169290921760089190911b610100600160a81b03161790151560a81b60ff60a81b16179055565b905f5260205260405f2090565b6001600160a01b0381165f908152600260205260409020805493949390929190600160401b8110156102a05760018101808555811015611090575f938452602080852090910180546001600160a01b0319166001600160a01b03808616919091179091558216845260039052604083206110889561108d9361105f9261105a9190610b29565b610f6c565b6001600160a01b0381165f9081526002602052604090206110809054610b61565b948591610ac5565b610fc7565b55565b610f58565b90602082549182815201915f5260205f20905f5b8181106110b65750505090565b82546001600160a01b03168452602090930192600192830192016110a9565b637911c44b60e11b5f5260045ffd5b346110d557365f80375f8036817f00000000000000000000000000000000000000000000000000000000000000006001600160a01b03165af43d5f803e1561112a573d5ff35b3d5ffd5b5f8051602061430f8339815191525c6111545760015f8051602061430f8339815191525d565b633ee5aeb560e01b5f5260045ffd5b5f5f8051602061430f8339815191525d565b7f00000000000000000000000000000000000000000000000000000000000000005c1561119e57565b63604dd39b60e11b5f5260045ffd5b906111b790612e01565b90600160ff1b821461096457610108915f0390612e24565b6001600160a01b0316600452602452604452606490565b929190916111f5828486612ef1565b60018101611205575b5050505050565b80821161131f576001600160a01b038416939190039190831561130c576001600160a01b0382169485156112f6578361125b84611256856112568660018060a01b03165f52600f60205260405f2090565b610b29565b556001600160a01b031692833b156100f957805f7fa0175360a15bca328baf7ea85c7b784d58b222a50d0ce760b10dba336d226a61946112cf946112b36040519485938493630ad0fe5760e31b855260048501611340565b038183895af16112dc575b506040519081529081906020820190565b0390a45f808080806111fe565b806112ea5f6112f0936102db565b80610969565b5f6112be565b634a1406b160e11b5f5261130983610973565b5ffd5b63e602df0560e01b5f5261130990610973565b82637dc7a0d960e11b5f5260018060a01b031660045260245260445260645ffd5b6001600160a01b03918216815291166020820152604081019190915260600190565b919290916001600160a01b03831690811561145d576001600160a01b03851690811561144a576113958561125683610ade565b54808511611434578490036113ad8661125684610ade565b556113bb8661125683610ade565b8054850190556040518481526001600160a01b0391909116929083905f805160206142ef83398151915290602090a4803b156100f957611415935f8094604051968795869485936323de665160e01b855260048501611340565b03925af18015610213576114265750565b806112ea5f610108936102db565b63391434e360e21b5f52611309908590876111cf565b63ec442f0560e01b5f5261130986610973565b634b637e8f60e11b5f5261130984610973565b6001600160a01b03165f81815260208190526040902054600190811c16156114955750565b634bdace1360e01b5f5260045260245ffd5b63ffffffff7f00000000000000000000000000000000000000000000000000000000000000001642111580611594575b611585576001600160a01b0381165f9081526020819052604090205460018160ff6115006131de565b161c169061150c6142e6565b9060288201809211610964578261153a575b50506115275750565b63d971f59760e01b5f5261130990610973565b61157b92509063ffffffff611572927f0000000000000000000000000000000000000000000000000000000000000000921c166142cc565b63ffffffff1690565b4211155f8061151e565b6336a7e2cd60e21b5f5260045ffd5b506001600654811c166114d7565b604051906115af826102a5565b606060c0835f815282602082015282604082015282808201528260808201528260a08201520152565b906115e161112e565b6001600160a01b0381165f9081526004602090815260408083208383528184205460038452828520600285529290942080549487529286019261162390612f36565b835261162e84612f51565b926040870193845261163f85611a1c565b926060880193845261165086611a1c565b6080890152611660868951613f73565b60c089015261166e86611a1c565b9060a089019182526116848951600190811c1690565b9283611806575b836117f3575b5f5b8a8982106116cb5750505050505050505050806116bb6116b56116c293610ac5565b91610af7565b9083612fe0565b90610108611163565b908860019289838a6117238261170f816117096117048e6116fe8f856116f19151611a4e565b516001600160a01b031690565b90610b29565b612fa0565b94610fc7565b5496518361171d8383611a4e565b52611a4e565b5061172d81614048565b611738838c51611a4e565b5261174f876001600160801b0387165b848761379c565b8a156117e9576040810151151590816117cc575b50611774575b505050505b01611693565b826117986117908361178961179e9751614004565b9551611a4e565b519560801c90565b906140e0565b8d83826117af575b8b919250611769565b6117bd86936117c395610b6f565b9161379c565b5f808d836117a6565b879150516117d981610d74565b6117e281610d74565b145f611763565b505050505061176e565b92506117ff8951614031565b1592611691565b92506118128951614004565b15159261168b565b6118226115a2565b9061182b61112e565b6001600160a01b0381165f9081526004602090815260408083208383528184205460038452828520600285529290942080549487529286019261186d90612f36565b835261187884612f51565b926040870193845261188985611a1c565b926060880193845261189a86611a1c565b60808901526118aa868951613f73565b60c08901526118b886611a1c565b9060a089019182526118ce8951600190811c1690565b92836119f2575b836119df575b5f5b8a8982106119075750505050505050505050806116bb6116b56118ff93610ac5565b610409611163565b908860019289838a61192d8261170f816117096117048e6116fe8f856116f19151611a4e565b5061193781614048565b611942838c51611a4e565b526119565f6001600160801b038716611748565b8a156119d5576040810151151590816119b8575b5061197b575b505050505b016118dd565b82611798611790836117896119909751614004565b8d83826119a1575b8b919250611970565b6117bd5f936119af95610b6f565b5f808d83611998565b879150516119c581610d74565b6119ce81610d74565b145f61196a565b5050505050611975565b92506119eb8951614031565b15926118db565b92506119fe8951614004565b1515926118d5565b03611a0d57565b63aaad13f760e01b5f5260045ffd5b90611a268261031c565b611a3360405191826102db565b8281528092611a44601f199161031c565b0190602036910137565b80518210156110905760209160051b010190565b60405190611a6f82610285565b5f6040838281528260208201520152565b60041115610d7e57565b9080601f830112156100f9578151611aa18161031c565b92611aaf60405194856102db565b81845260208085019260051b8201019283116100f957602001905b828210611ad75750505090565b8151815260209182019101611aca565b81601f820112156100f957805190611afe8261039d565b92611b0c60405194856102db565b828452602083830101116100f957815f9260208093018386015e8301015290565b906080828203126100f957815160208301519093906001600160401b0381116100f95782611b5c918501611a8a565b60408401519093906001600160401b0381116100f95783611b7e918301611a8a565b60608201519093906001600160401b0381116100f9576104099201611ae7565b93906104099593611bdb93611bcd9260018060a01b03168752602087015260a0604087015260a086019061040c565b90848203606086015261040c565b91608081840391015261043f565b9190820180921161096457565b91611c13906104099492845260606020850152606084019061040c565b91604081840391015261040c565b90929192611c2d61112e565b6060611c37611a62565b906020840195611c4b875151808552611a1c565b9360808101918251611c5c81611a80565b611c6581611a80565b6120345750604081015194611c7a8551611a1c565b93611cb18760808a0151611cab611c9187516100dc565b6001600160a01b03165f9081526010602052604090205490565b906135b8565b90611d1b7f00000000000000000000000000000000000000000000000000000000000000005c611ce186516100dc565b907f0000000000000000000000000000000000000000000000000000000000000000905f5260205260405f20905f5260205260405f205c90565b611fb4575b6040840151808911611f9d5750611d39889a979a613629565b5f9660208b0198606086019660608c01995b8d51811015611e7e57808f888f611d62848b611a4e565b5190611d6d82613629565b611d778584611a4e565b51611e6357926116f192611db9611db1879487611daa8760a0611da18260c0611dc19e0151611a4e565b51930151611a4e565b519161363a565b968792611a4e565b525b51611a4e565b611dcc838c51611a4e565b518210611e43578e838f8f908f868f85611e3795611e3194611db983611e2060019f9e8e611e3d9f8f9099611e058694611e289c6111ad565b611e1a611e12858a611a4e565b5191516100dc565b9161366e565b8a5292611a4e565b51925190611be9565b90610b6f565b9161374f565b01611d4b565b90611e52611309938c51611a4e565b516317bc2f2360e11b5f52916111cf565b505082611e77611dc193946116f193611a4e565b5193611dbb565b5096509750975097909850611ea1919950939193611e9c85516100dc565b613843565b7ffbe5b0d79fb94f1e81c0a92bf86ae9d3a19e9d1bf6202c0d3e75120f65d5d8a588611ecd85516100dc565b93611ee8876020880196611ee188516100dc565b33916111e6565b611ef0613895565b611f7a575b611f1387611f0388516100dc565b611f0d88516100dc565b906138ea565b611f69611f42611c91611f30611f298a516100dc565b98516100dc565b935198611f3c8a611a80565b516100dc565b94611f4c88611a80565b6040516001600160a01b0393841697909316959293849384611bf6565b0390a4611f74611163565b93929190565b611f9887611f8888516100dc565b611f9288516100dc565b906138aa565b611ef5565b6331d38e0b60e01b5f52600489905260245260445ffd5b98949793909995919692611fc8855161322a565b975f5b845181101561202257808d61201b826120158f8f9661200491611ffa600199611ff4848a611a4e565b51613607565b61171d8383611a4e565b5161200f8386611a4e565b51610b6f565b92611a4e565b5201611fcb565b5092969a919498959990939750611d20565b92946001835161204381611a80565b61204c81611a80565b036120c15761205b875161313e565b6040820151958490612070606085015161316f565b6120bb6120b160408a019280845260808d0151908d8d61209d612096611c918d516100dc565b925161322a565b926120ab610cca8d516100dc565b946134c0565b9092519098611a4e565b52611d20565b600283516120ce81611a80565b6120d781611a80565b0361215d576120e6875161313e565b61215584606084019061210a6120fc835161316f565b60408a019381855251611a4e565b51612116835186611a4e565b5261212860808b015192518092611a4e565b51612136611c9187516100dc565b906121418c5161322a565b9261214f610cca89516100dc565b9461328e565b949096611d20565b9294506003825161216d81611a80565b61217681611a80565b0361221b576121858651613118565b5f612196610cca610cca84516100dc565b60408381015160808a015160a08601519251632ada38a360e21b8152998a94938593879385936121cb93923360048701611b9e565b03925af1928315610213575f80945f975f916121ec575b5096949096611d20565b929550505061220e9195503d805f833e61220681836102db565b810190611b2d565b909691949192905f6121e2565b63137a9a3960e01b5f5260045ffd5b91906122e56040519161223c836102c0565b5f835260208301945f865260408401905f825260608501945f8652809761228f60208601612278815160018060a01b0360408801511690612da3565b84525160608501516001600160a01b031690612da3565b8152825161229c81610d74565b6122a581610d74565b6122e9575060806122dc920151906122d56122c660c0870151835190611a4e565b519160a0870151905190611a4e565b5191613ab8565b905b525161322a565b9052565b9050610c5a60806123289301519161232261231c61230d60c0890151845190611a4e565b519260a0890151905190611a4e565b51613a94565b92613105565b906122de565b61233782610d74565b52565b919091606060c060405161234d816102a5565b5f81525f60208201528260408201525f838201525f60808201525f60a0820152015280519261237b84610d74565b6080604082015193015160c060208351930151930151936123a461239d61030d565b968761232e565b60208601526040850152606084015260808301523360a083015260c082015290565b91905f94916123d361112e565b6123db611a62565b9380516123e781610d74565b6123f081610d74565b15612745575b6020860161240481516139e2565b602061243a8184019861241d610cca610cca8c516100dc565b906040519b8c80948193633964c0c360e11b83526004830161276d565b03925af1978815610213575f98612724575b5087612457816139e2565b825161246281610d74565b61246b81610d74565b6126a65750604084015190526124ab60c08301516124a461231c6124956020880193845190611a4e565b519260a0870151905190611a4e565b908961363a565b9260808201519584969760a084015180871061268f57505b60408401938985516124d4906100dc565b906124de91612d91565b606001948886516124ee906100dc565b906124f8916111ad565b82518251612505906100dc565b8651612510906100dc565b86519161251d938561366e565b9060208501946040019182528452845160608301918c8284519061254091611a4e565b519061254b91611be9565b905161255691610b6f565b612560918461374f565b602085019182518b8184519061257591611a4e565b519061258091610b6f565b61258a918361374f565b8351612595906100dc565b61259e90610ac5565b91805187516125ac91611a4e565b519160800191825188516125bf91611a4e565b516125c991612d4c565b87516125d59085610fc7565b555183516125e291611a4e565b51905183516125f091611a4e565b516125fa91612d4c565b915161260591610fc7565b5551612610906100dc565b925161261b906100dc565b9351612626906100dc565b6060928301519151604080518b8152602081018b905290810193909352928201929092526001600160a01b0391821693821692909116907f0874b2d545cb271cdbda4e093020c452328b24af12382ed62c4d00f5c26709db90608090a493929190610108611163565b63e2ea151b60e01b5f52600487905260245260445ffd5b90506126dc9197506126d360608501516126cc81670de0b6b3a764000081810391100290565b9083613a60565b90818752611be9565b956127096126f060c0840151855190611a4e565b5161270160a0850151865190611a4e565b519089613a80565b92608082015195849760a084015180871161268f57506124c3565b61273e91985060203d60201161020c576101fe81836102db565b965f61244c565b6020860161276661275c8251606087015190613607565b8088528251610b6f565b90526123f6565b91909160208152610100810190835161278581610d74565b60208201526020840151604082015260408401519160e060608301528251809152602061012083019301905f5b8181106128035750505060c0846060610409959601516080840152608081015160a08401526127ef60a08201518385019060018060a01b03169052565b01519060e0601f198285030191015261043f565b82518552602094850194909201916001016127b2565b805c9060018201809211610964575d565b919082519161283d8251825190856130c2565b61284683611a1c565b935f5b84811061285857505050505090565b80670de0b6b3a764000061288f61287160019486611a4e565b5161288a61287f858a611a4e565b51610c53868a611a4e565b613105565b0461289a8289611a4e565b5201612849565b60051115610d7e57565b906080828203126100f95781516001600160401b0381116100f957816128d2918401611a8a565b92602083015192604081015160018060401b0381116100f95783611b7e918301611a8a565b93612920611bdb9361040997959360018060a01b0316875260a0602088015260a087019061040c565b916040860152848203606086015261040c565b90919261293e61112e565b606092612949611a62565b90602084019561295d875151808552611a1c565b916080810191825161296e816128a1565b612977816128a1565b612b67575060608101519261298c8551611a1c565b936129a98160808a01516129a3611c9187516100dc565b90613e4d565b905b6060840151808210612b4f57506129c4819a979a613629565b5f9660208b0198604086019660608c01995b8d51811015612abf57808f888f6129ed848b611a4e565b51906129f882613629565b612a028584611a4e565b51612aab57926116f192611db9611db1879487612a2c8760a0611da18260c0612a339e0151611a4e565b5191613a80565b612a3e838c51611a4e565b518211612a8b578e838f8f908f868f85611e3795612a7d94611db983611e2060019f9e8e612a859f8f9099611e058694612a779c612d91565b51611be9565b905190610b6f565b016129d6565b90612a9a611309938c51611a4e565b516323b6a17960e21b5f52916111cf565b505082611e77612a3393946116f193611a4e565b509650985098919a509850612add919550939193611e9c85516100dc565b7fa26a52d8d53702bba7f137907b8e1f99ff87f6d450144270ca25e72481cca87184612b0985516100dc565b93612b238a6020880196612b1d88516100dc565b90613e8e565b611f69612b45611c91612b39611f298a516100dc565b935198611f3c8a6128a1565b94611f4c886128a1565b638d261d5d60e01b5f5260049190915260245260445ffd5b9260038351612b75816128a1565b612b7e816128a1565b03612b9e57612b8d8751613e24565b612b978451611a1c565b935f6129ab565b60018351612bab816128a1565b612bb4816128a1565b03612c0d57612bc3875161313e565b612c0684612bd5836040860151613bea565b608089015190612be8611c9186516100dc565b612bf28b5161322a565b91612c00610cca88516100dc565b93613c05565b94906129ab565b60028351612c1a816128a1565b612c23816128a1565b03612c8257612c32875161313e565b6060820151612c408561316f565b9060408701828152612c7c6120b1889460808d0151908d86612c68612096611c918d516100dc565b92612c76610cca8d516100dc565b94613b03565b526129ab565b92965060048251612c92816128a1565b612c9b816128a1565b03612d3d57612caa8651613ad3565b5f612cbb610cca610cca84516100dc565b6060830151906080890151918360a08601519b612cef6040519d8e968795869463e4c4366360e01b865233600487016128f7565b03925af1928315610213575f80945f995f91612d0e575b5098946129ab565b9295505050612d309197503d805f833e612d2881836102db565b8101906128ab565b909891949192905f612d06565b636c02b39560e01b5f5260045ffd5b906001600160801b0382118015612d81575b612d725760801b9081018091116109645790565b6389560ca160e01b5f5260045ffd5b506001600160801b038111612d5e565b612d9d61010892612e01565b90612e24565b905f5b8251811015612de0576001600160a01b03612dc18285611a4e565b51166001600160a01b03831614612dda57600101612da6565b91505090565b5063ddef98d760e01b5f9081526001600160a01b0391909116600452602490fd5b6001600160ff1b038111612e125790565b63123baf0360e11b5f5260045260245ffd5b908015612eed577f00000000000000000000000000000000000000000000000000000000000000009160018060a01b0381165f528260205260405f205c8281019283125f82129080158216911516176109645782612eb657507f000000000000000000000000000000000000000000000000000000000000000092835c5f19810190811161096457610108945d613f5e565b9261010893613f5e57612ee87f0000000000000000000000000000000000000000000000000000000000000000612819565b613f5e565b5050565b9091906001600160a01b0380841690831603612f0f575050505f1990565b6001600160a01b03165f908152600f60205260409020612f329261125691610b29565b5490565b90610108612f4a9260405193848092611095565b03836102db565b90612f5b8261031c565b612f6860405191826102db565b8281528092612f79601f199161031c565b01905f5b828110612f8957505050565b602090612f94611a62565b82828501015201612f7d565b90604051612fad81610285565b604060ff829454818116612fc081610d74565b8452600881901c6001600160a01b0316602085015260a81c161515910152565b60608101805151935f5b858110612ff957505050505050565b8061300d6116f16001936020880151611a4e565b61302761301a8389610fc7565b546001600160801b031690565b613032838751611a4e565b518111613071575b505061306061304a828651611a4e565b51613059836080890151611a4e565b5190612d4c565b61306a8288610fc7565b5501612fea565b6130b36130ba916130ad6130858589610b29565b54916130a76130948460801c90565b916130a0898d51611a4e565b5190610b6f565b90611be9565b90614133565b9185610b29565b555f8061303a565b811480159291906130d6575b5050611a0d57565b141590505f806130ce565b90670de0b6b3a7640000820291808304670de0b6b3a7640000149015171561096457565b8181029291811591840414171561096457565b60019060ff6131256131e8565b161c161561312f57565b63033c2a5760e61b5f5260045ffd5b60019060ff613157613152613152856131cc565b6131cc565b161c1661316057565b63353d5de760e21b5f5260045ffd5b80519081905f5b8281106131985750508110156131895790565b631f91af7760e21b5f5260045ffd5b6131a28183611a4e565b516131b0575b600101613176565b9282036131bd57826131a8565b636b8c3be560e01b5f5260045ffd5b60ff60019116019060ff821161096457565b61040960016131cc565b61040961315261315261315261315260016131cc565b6104096131526131526131526131526131526131526131526131526131526131526131526131526131e8565b62ffffff9060ff6132396131fe565b161c1664174876e80081029080820464174876e80014901517156109645790565b919060206132715f9260408652604086019061040c565b930152565b9190602061327160019260408652604086019061040c565b909493929181519461329f86611a1c565b915f5b87811061347757506132b89061200f8985611a4e565b6132c28884611a4e565b52604051631309bd3d60e31b8152946001600160a01b0382169290602087806132ee886004830161325a565b0381875afa968715610213575f97613456575b50604051631309bd3d60e31b81529060208280613321866004830161325a565b0381885afa9586156102135761339061337d8c6130a061337660209961336f8f613396986133d09f613363889361336a9261339b9f5f91613437575b50613a19565b8095614146565b611a4e565b5190613607565b9188611a4e565b92670de0b6b3a764000081810391100290565b82613a19565b610b6f565b926133aa8461200f8b85611a4e565b6133b48a84611a4e565b526040518080968194631309bd3d60e31b835260048301613276565b03915afa9081156102135761340b95613405935f9361340e575b506133f76133fe91611a1c565b9788611a4e565b5283610b6f565b90613a60565b91565b6133fe91935061342f6133f79160203d60201161020c576101fe81836102db565b9391506133ea565b602061345092503d60201161020c576101fe81836102db565b5f61335d565b61347091975060203d60201161020c576101fe81836102db565b955f613301565b8061348d61348760019388611a4e565b51610b61565b6134978287611a4e565b52016132a2565b6134b66040929594939560608352606083019061040c565b9460208201520152565b909491830391838311610964576020613504916134dd8686613a19565b906134e88282614146565b604051808095819462b5059f60e51b83528c896004850161349e565b03916001600160a01b03165afa80156102135761340b95610c5a886135579361356098613567965f9261356d575b506135458261200f61339694958b611a4e565b986135508d8a611a4e565b5190613a60565b93849251611a1c565b9586611a4e565b52610b6f565b613396925061200f936135916135459260203d60201161020c576101fe81836102db565b93509350613532565b81156135a4570490565b634e487b7160e01b5f52601260045260245ffd5b92916135c48451611a1c565b935f5b815181101561360157806135f0856135eb866135e560019688611a4e565b51613105565b61359a565b6135fa8289611a4e565b52016135c7565b50505050565b9061361191613105565b6001670de0b6b3a76400005f19830104019015150290565b806136315750565b610108906139e2565b9161364491613105565b670de0b6b3a7640000820291808304670de0b6b3a76400001490151715610964576104099161359a565b91949290945f955f9581613683575050505050565b849750611daa61369c8260c06136a89697980151611a4e565b519160a08a0151611a4e565b946136b38151614031565b156136c0575b80806111fe565b62ffffff91929450516136d1613fd5565b1c1664174876e80081029080820464174876e8001490151715610964576136f890856141ba565b9284841161374057806112566137316137176137379461125687610af7565b5461372b886001600160801b038316611be9565b906141cd565b93610af7565b555f80806136b9565b634c69ac5d60e01b5f5260045ffd5b919081613760826060860151611a4e565b526080670de0b6b3a76400006137936123379461288a6137848660c08a0151611a4e565b51610c538760a08b0151611a4e565b04930151611a4e565b92826137ac836060870151611a4e565b526137b681610d74565b61383b576002915b6137cc8260c0860151611a4e565b516137db8360a0870151611a4e565b51938060011461381c5760021461380057634e487b7160e01b5f52605160045260245ffd5b61233793610c5a61381392608094613105565b935b0151611a4e565b506123379361383061383592608094613105565b6141ba565b93613815565b6001916137be565b6001600160a01b03165f908152600460205260408120919291905b6060840151805182101561388e579061387c61304a82600194611a4e565b815f528360205260405f20550161385e565b5050509050565b32158061389f5790565b506001600654161590565b90326138db576138cc9160018060a01b03165f52600e60205260405f20610b29565b80549182018092116109645755565b6333fc255960e11b5f5260045ffd5b90916001600160a01b03831691821561145d5761390a8461125683610ade565b548083116139cc578290036139228561125684610ade565b556139368261393083610b10565b54610b6f565b61393f816141db565b61394882610b10565b556001600160a01b031690813b156100f9576040516323de665160e01b81526001600160a01b039490941660048501525f6024850181905260448501829052935f805160206142ef833981519152916139b991868160648183895af16139be57506040519081529081906020820190565b0390a4565b806112ea886112f0936102db565b63391434e360e21b5f52611309908390866111cf565b7f000000000000000000000000000000000000000000000000000000000000000011613a0a57565b6303da9a2360e31b5f5260045ffd5b908015613a5157670de0b6b3a7640000820291808304670de0b6b3a76400001490151715610964576001905f19830104019015150290565b630a0c22c760e01b5f5260045ffd5b8215613a5157600191613a7291613105565b915f19830104019015150290565b9061040992613a8e91613105565b90613a19565b670de0b6b3a7640000808204028103613aaa5790565b600181018091116109645790565b9161288a613acf92670de0b6b3a764000094613105565b0490565b60019060ff613aea613152613152613152866131cc565b161c1615613af457565b63121db02f60e21b5f5260045ffd5b90946020613b1585613b479695611be9565b91613b208584613a19565b90613b2b8282614258565b604051808098819462b5059f60e51b83528c896004850161349e565b03916001600160a01b03165afa9384156102135761340b9561339661339061337d86613560998c99613bad988b613557995f94613bb3575b5090613ba6613b9f613b986135eb94611e319798611a4e565b5187610b6f565b9d8d611a4e565b5190613105565b52611be9565b611e319450613b9f613b986135eb9493613bde613ba69460203d60201161020c576101fe81836102db565b97509394505050613b7f565b906020808351613bfb845182611a06565b60051b930191015e565b919290938251613c1481611a1c565b92613c1e82611a1c565b965f5b838110613de9575050604051631309bd3d60e31b8152946001600160a01b038416939060208780613c55846004830161325a565b0381885afa968715610213575f97613dc8575b50604051631309bd3d60e31b815260208180613c878a60048301613276565b0381895afa90811561021357886135eb613cb393613cac935f91613da9575b506130e1565b8093614258565b5f5b848110613d2c575050505050613ce3916020916040518080958194631309bd3d60e31b835260048301613276565b03915afa92831561021357613d078361340b956135eb945f91613d0d575b50610b6f565b90613105565b613d26915060203d60201161020c576101fe81836102db565b5f613d01565b80613d43613d3c60019385611a4e565b51856141ba565b8581613d4f848c611a4e565b5111613d5e575b505001613cb5565b613d7391613d6c848c611a4e565b5103613607565b613d7d828d611a4e565b52613d978b6130a083613d90818d611a4e565b5192611a4e565b613da1828a611a4e565b525f85613d56565b613dc2915060203d60201161020c576101fe81836102db565b5f613ca6565b613de291975060203d60201161020c576101fe81836102db565b955f613c68565b80613e13613e0e613dfc6001948b611a4e565b51613e078487611a4e565b5190611be9565b610b61565b613e1d8289611a4e565b5201613c21565b60019060ff613e346131526131e8565b161c1615613e3e57565b63efe0265d60e01b5f5260045ffd5b9291613e598451611a1c565b935f5b81518110156136015780613e7d8585613e7760019587611a4e565b51613a60565b613e878289611a4e565b5201613e5c565b6001600160a01b03821692908315613f4b57613eb382613ead83610b10565b54611be9565b613ec08461125684610ade565b838154019055613ecf816141db565b613ed882610b10565b5560018060a01b0316925f845f805160206142ef83398151915260405180613f0587829190602083019252565b0390a4823b156100f9576040516323de665160e01b81525f600482018190526001600160a01b039093166024820152604481019190915291829081838160648101611415565b63ec442f0560e01b5f5261130983610973565b9060018060a01b03165f5260205260405f205d565b9064ffffffffff613f8382611a1c565b92613f8c6142e6565b1c165f5b828110613f9d5750505090565b60058102818104600514821517156109645782601f911c1690604d821161096457600191600a0a613fce8287611a4e565b5201613f90565b60ff613fdf6131fe565b16601881018091116109645790565b613ff6613fd5565b601881018091116109645790565b62ffffff90614011613fee565b1c1664174876e80081029080820464174876e80014901517156109645790565b60019060ff614042613152846131cc565b161c1690565b805161405381610d74565b61405c81610d74565b8061406f575050670de0b6b3a764000090565b8061407b600192610d74565b036140d1576020614093610cca8260049401516100dc565b6040516333cd77e760e11b815292839182905afa908115610213575f916140b8575090565b610409915060203d60201161020c576101fe81836102db565b636fa2831960e11b5f5260045ffd5b9093925f946140f3846080850151611a4e565b51818111614102575050505050565b6141289596509161411791611daa9303613607565b9260a0611da18260c0860151611a4e565b905f808080806111fe565b61040991906001600160801b0316612d4c565b604051635b3bfd2b60e11b81529190602090839060049082906001600160a01b03165afa918215610213575f92614199575b50818110614184575050565b63718e4adf60e11b5f5260045260245260445ffd5b6141b391925060203d60201161020c576101fe81836102db565b905f614178565b670de0b6b3a764000091613acf91613105565b906104099160801c90612d4c565b620f424081106141e85750565b6334e3483f60e21b5f5260045260245ffd5b9061421e575080511561420f57805190602001fd5b63d6bda27560e01b5f5260045ffd5b8151158061424f575b61422f575090565b639996b31560e01b5f9081526001600160a01b0391909116600452602490fd5b50803b15614227565b60405163273c1adf60e01b81529190602090839060049082906001600160a01b03165afa918215610213575f926142ab575b50818111614296575050565b630fa2583760e21b5f5260045260245260445ffd5b6142c591925060203d60201161020c576101fe81836102db565b905f61428a565b9063ffffffff8091169116019063ffffffff821161096457565b613ff6613fee56fed1398bee19313d6bf672ccb116e51f4a1a947e91c757907f51fbb5b5e56c698f9b779b17422d0df92223018b32b4d1fa46e071723d6817e2486d003becc55f00a26469706673582212202110682556d604125deec7c7e3f6c1140b7fdefb2d088f19892833cf205d6cd864736f6c634300081a0033",
  "linkReferences": {},
  "deployedLinkReferences": {}
}