{
  "_format": "hh-sol-artifact-1",
  "contractName": "Vault",
  "sourceName": "contracts/_Vault.sol",
  "abi": [
    {
      "inputs": [
        {
          "internalType": "contract IVaultExtension",
          "name": "vaultExtension",
          "type": "address"
        },
        {
          "internalType": "contract IAuthorizer",
          "name": "authorizer",
          "type": "address"
        },
        {
          "internalType": "contract IProtocolFeeController",
          "name": "protocolFeeController",
          "type": "address"
        }
      ],
      "stateMutability": "nonpayable",
      "type": "constructor"
    },
    {
      "inputs": [
        {
          "internalType": "address",
          "name": "target",
          "type": "address"
        }
      ],
      "name": "AddressEmptyCode",
      "type": "error"
    },
    {
      "inputs": [],
      "name": "AfterAddLiquidityHookFailed",
      "type": "error"
    },
    {
      "inputs": [],
      "name": "AfterInitializeHookFailed",
      "type": "error"
    },
    {
      "inputs": [],
      "name": "AfterRemoveLiquidityHookFailed",
      "type": "error"
    },
    {
      "inputs": [],
      "name": "AfterSwapHookFailed",
      "type": "error"
    },
    {
      "inputs": [],
      "name": "AllZeroInputs",
      "type": "error"
    },
    {
      "inputs": [],
      "name": "AmountGivenZero",
      "type": "error"
    },
    {
      "inputs": [
        {
          "internalType": "contract IERC20",
          "name": "tokenIn",
          "type": "address"
        },
        {
          "internalType": "uint256",
          "name": "amountIn",
          "type": "uint256"
        },
        {
          "internalType": "uint256",
          "name": "maxAmountIn",
          "type": "uint256"
        }
      ],
      "name": "AmountInAboveMax",
      "type": "error"
    },
    {
      "inputs": [
        {
          "internalType": "contract IERC20",
          "name": "tokenOut",
          "type": "address"
        },
        {
          "internalType": "uint256",
          "name": "amountOut",
          "type": "uint256"
        },
        {
          "internalType": "uint256",
          "name": "minAmountOut",
          "type": "uint256"
        }
      ],
      "name": "AmountOutBelowMin",
      "type": "error"
    },
    {
      "inputs": [],
      "name": "BalanceNotSettled",
      "type": "error"
    },
    {
      "inputs": [],
      "name": "BalanceOverflow",
      "type": "error"
    },
    {
      "inputs": [],
      "name": "BeforeAddLiquidityHookFailed",
      "type": "error"
    },
    {
      "inputs": [],
      "name": "BeforeInitializeHookFailed",
      "type": "error"
    },
    {
      "inputs": [],
      "name": "BeforeRemoveLiquidityHookFailed",
      "type": "error"
    },
    {
      "inputs": [],
      "name": "BeforeSwapHookFailed",
      "type": "error"
    },
    {
      "inputs": [
        {
          "internalType": "uint256",
          "name": "amountIn",
          "type": "uint256"
        },
        {
          "internalType": "uint256",
          "name": "maxAmountIn",
          "type": "uint256"
        }
      ],
      "name": "BptAmountInAboveMax",
      "type": "error"
    },
    {
      "inputs": [
        {
          "internalType": "uint256",
          "name": "amountOut",
          "type": "uint256"
        },
        {
          "internalType": "uint256",
          "name": "minAmountOut",
          "type": "uint256"
        }
      ],
      "name": "BptAmountOutBelowMin",
      "type": "error"
    },
    {
      "inputs": [
        {
          "internalType": "contract IERC4626",
          "name": "wrappedToken",
          "type": "address"
        }
      ],
      "name": "BufferAlreadyInitialized",
      "type": "error"
    },
    {
      "inputs": [
        {
          "internalType": "contract IERC4626",
          "name": "wrappedToken",
          "type": "address"
        }
      ],
      "name": "BufferNotInitialized",
      "type": "error"
    },
    {
      "inputs": [],
      "name": "BufferSharesInvalidOwner",
      "type": "error"
    },
    {
      "inputs": [],
      "name": "BufferSharesInvalidReceiver",
      "type": "error"
    },
    {
      "inputs": [
        {
          "internalType": "uint256",
          "name": "totalSupply",
          "type": "uint256"
        }
      ],
      "name": "BufferTotalSupplyTooLow",
      "type": "error"
    },
    {
      "inputs": [],
      "name": "CannotReceiveEth",
      "type": "error"
    },
    {
      "inputs": [],
      "name": "CannotSwapSameToken",
      "type": "error"
    },
    {
      "inputs": [],
      "name": "DoesNotSupportAddLiquidityCustom",
      "type": "error"
    },
    {
      "inputs": [],
      "name": "DoesNotSupportDonation",
      "type": "error"
    },
    {
      "inputs": [],
      "name": "DoesNotSupportRemoveLiquidityCustom",
      "type": "error"
    },
    {
      "inputs": [],
      "name": "DoesNotSupportUnbalancedLiquidity",
      "type": "error"
    },
    {
      "inputs": [],
      "name": "DynamicSwapFeeHookFailed",
      "type": "error"
    },
    {
      "inputs": [
        {
          "internalType": "address",
          "name": "spender",
          "type": "address"
        },
        {
          "internalType": "uint256",
          "name": "allowance",
          "type": "uint256"
        },
        {
          "internalType": "uint256",
          "name": "needed",
          "type": "uint256"
        }
      ],
      "name": "ERC20InsufficientAllowance",
      "type": "error"
    },
    {
      "inputs": [
        {
          "internalType": "address",
          "name": "sender",
          "type": "address"
        },
        {
          "internalType": "uint256",
          "name": "balance",
          "type": "uint256"
        },
        {
          "internalType": "uint256",
          "name": "needed",
          "type": "uint256"
        }
      ],
      "name": "ERC20InsufficientBalance",
      "type": "error"
    },
    {
      "inputs": [
        {
          "internalType": "address",
          "name": "approver",
          "type": "address"
        }
      ],
      "name": "ERC20InvalidApprover",
      "type": "error"
    },
    {
      "inputs": [
        {
          "internalType": "address",
          "name": "receiver",
          "type": "address"
        }
      ],
      "name": "ERC20InvalidReceiver",
      "type": "error"
    },
    {
      "inputs": [
        {
          "internalType": "address",
          "name": "sender",
          "type": "address"
        }
      ],
      "name": "ERC20InvalidSender",
      "type": "error"
    },
    {
      "inputs": [
        {
          "internalType": "address",
          "name": "spender",
          "type": "address"
        }
      ],
      "name": "ERC20InvalidSpender",
      "type": "error"
    },
    {
      "inputs": [],
      "name": "FailedCall",
      "type": "error"
    },
    {
      "inputs": [],
      "name": "FeePrecisionTooHigh",
      "type": "error"
    },
    {
      "inputs": [
        {
          "internalType": "contract IERC20",
          "name": "tokenIn",
          "type": "address"
        },
        {
          "internalType": "uint256",
          "name": "amountIn",
          "type": "uint256"
        },
        {
          "internalType": "uint256",
          "name": "maxAmountIn",
          "type": "uint256"
        }
      ],
      "name": "HookAdjustedAmountInAboveMax",
      "type": "error"
    },
    {
      "inputs": [
        {
          "internalType": "contract IERC20",
          "name": "tokenOut",
          "type": "address"
        },
        {
          "internalType": "uint256",
          "name": "amountOut",
          "type": "uint256"
        },
        {
          "internalType": "uint256",
          "name": "minAmountOut",
          "type": "uint256"
        }
      ],
      "name": "HookAdjustedAmountOutBelowMin",
      "type": "error"
    },
    {
      "inputs": [
        {
          "internalType": "uint256",
          "name": "amount",
          "type": "uint256"
        },
        {
          "internalType": "uint256",
          "name": "limit",
          "type": "uint256"
        }
      ],
      "name": "HookAdjustedSwapLimit",
      "type": "error"
    },
    {
      "inputs": [
        {
          "internalType": "address",
          "name": "poolHooksContract",
          "type": "address"
        },
        {
          "internalType": "address",
          "name": "pool",
          "type": "address"
        },
        {
          "internalType": "address",
          "name": "poolFactory",
          "type": "address"
        }
      ],
      "name": "HookRegistrationFailed",
      "type": "error"
    },
    {
      "inputs": [],
      "name": "InputLengthMismatch",
      "type": "error"
    },
    {
      "inputs": [
        {
          "internalType": "uint256",
          "name": "balance",
          "type": "uint256"
        },
        {
          "internalType": "uint256",
          "name": "needed",
          "type": "uint256"
        }
      ],
      "name": "InsufficientBalance",
      "type": "error"
    },
    {
      "inputs": [],
      "name": "InvalidAddLiquidityKind",
      "type": "error"
    },
    {
      "inputs": [],
      "name": "InvalidRemoveLiquidityKind",
      "type": "error"
    },
    {
      "inputs": [],
      "name": "InvalidToken",
      "type": "error"
    },
    {
      "inputs": [],
      "name": "InvalidTokenConfiguration",
      "type": "error"
    },
    {
      "inputs": [],
      "name": "InvalidTokenDecimals",
      "type": "error"
    },
    {
      "inputs": [],
      "name": "InvalidTokenType",
      "type": "error"
    },
    {
      "inputs": [
        {
          "internalType": "contract IERC4626",
          "name": "wrappedToken",
          "type": "address"
        }
      ],
      "name": "InvalidUnderlyingToken",
      "type": "error"
    },
    {
      "inputs": [
        {
          "internalType": "uint256",
          "name": "invariantRatio",
          "type": "uint256"
        },
        {
          "internalType": "uint256",
          "name": "maxInvariantRatio",
          "type": "uint256"
        }
      ],
      "name": "InvariantRatioAboveMax",
      "type": "error"
    },
    {
      "inputs": [
        {
          "internalType": "uint256",
          "name": "invariantRatio",
          "type": "uint256"
        },
        {
          "internalType": "uint256",
          "name": "minInvariantRatio",
          "type": "uint256"
        }
      ],
      "name": "InvariantRatioBelowMin",
      "type": "error"
    },
    {
      "inputs": [
        {
          "internalType": "uint256",
          "name": "issuedShares",
          "type": "uint256"
        },
        {
          "internalType": "uint256",
          "name": "minIssuedShares",
          "type": "uint256"
        }
      ],
      "name": "IssuedSharesBelowMin",
      "type": "error"
    },
    {
      "inputs": [],
      "name": "MaxTokens",
      "type": "error"
    },
    {
      "inputs": [],
      "name": "MinTokens",
      "type": "error"
    },
    {
      "inputs": [],
      "name": "MultipleNonZeroInputs",
      "type": "error"
    },
    {
      "inputs": [],
      "name": "NotEnoughBufferShares",
      "type": "error"
    },
    {
      "inputs": [
        {
          "internalType": "contract IERC4626",
          "name": "wrappedToken",
          "type": "address"
        },
        {
          "internalType": "uint256",
          "name": "expectedUnderlyingAmount",
          "type": "uint256"
        },
        {
          "internalType": "uint256",
          "name": "actualUnderlyingAmount",
          "type": "uint256"
        }
      ],
      "name": "NotEnoughUnderlying",
      "type": "error"
    },
    {
      "inputs": [
        {
          "internalType": "contract IERC4626",
          "name": "wrappedToken",
          "type": "address"
        },
        {
          "internalType": "uint256",
          "name": "expectedWrappedAmount",
          "type": "uint256"
        },
        {
          "internalType": "uint256",
          "name": "actualWrappedAmount",
          "type": "uint256"
        }
      ],
      "name": "NotEnoughWrapped",
      "type": "error"
    },
    {
      "inputs": [],
      "name": "NotStaticCall",
      "type": "error"
    },
    {
      "inputs": [],
      "name": "NotVaultDelegateCall",
      "type": "error"
    },
    {
      "inputs": [],
      "name": "PauseBufferPeriodDurationTooLarge",
      "type": "error"
    },
    {
      "inputs": [],
      "name": "PercentageAboveMax",
      "type": "error"
    },
    {
      "inputs": [
        {
          "internalType": "address",
          "name": "pool",
          "type": "address"
        }
      ],
      "name": "PoolAlreadyInitialized",
      "type": "error"
    },
    {
      "inputs": [
        {
          "internalType": "address",
          "name": "pool",
          "type": "address"
        }
      ],
      "name": "PoolAlreadyRegistered",
      "type": "error"
    },
    {
      "inputs": [
        {
          "internalType": "address",
          "name": "pool",
          "type": "address"
        }
      ],
      "name": "PoolInRecoveryMode",
      "type": "error"
    },
    {
      "inputs": [
        {
          "internalType": "address",
          "name": "pool",
          "type": "address"
        }
      ],
      "name": "PoolNotInRecoveryMode",
      "type": "error"
    },
    {
      "inputs": [
        {
          "internalType": "address",
          "name": "pool",
          "type": "address"
        }
      ],
      "name": "PoolNotInitialized",
      "type": "error"
    },
    {
      "inputs": [
        {
          "internalType": "address",
          "name": "pool",
          "type": "address"
        }
      ],
      "name": "PoolNotPaused",
      "type": "error"
    },
    {
      "inputs": [
        {
          "internalType": "address",
          "name": "pool",
          "type": "address"
        }
      ],
      "name": "PoolNotRegistered",
      "type": "error"
    },
    {
      "inputs": [
        {
          "internalType": "address",
          "name": "pool",
          "type": "address"
        }
      ],
      "name": "PoolPauseWindowExpired",
      "type": "error"
    },
    {
      "inputs": [
        {
          "internalType": "address",
          "name": "pool",
          "type": "address"
        }
      ],
      "name": "PoolPaused",
      "type": "error"
    },
    {
      "inputs": [
        {
          "internalType": "uint256",
          "name": "totalSupply",
          "type": "uint256"
        }
      ],
      "name": "PoolTotalSupplyTooLow",
      "type": "error"
    },
    {
      "inputs": [],
      "name": "ProtocolFeesExceedTotalCollected",
      "type": "error"
    },
    {
      "inputs": [],
      "name": "QueriesDisabled",
      "type": "error"
    },
    {
      "inputs": [],
      "name": "QueriesDisabledPermanently",
      "type": "error"
    },
    {
      "inputs": [],
      "name": "QuoteResultSpoofed",
      "type": "error"
    },
    {
      "inputs": [],
      "name": "ReentrancyGuardReentrantCall",
      "type": "error"
    },
    {
      "inputs": [],
      "name": "RouterNotTrusted",
      "type": "error"
    },
    {
      "inputs": [
        {
          "internalType": "int256",
          "name": "value",
          "type": "int256"
        }
      ],
      "name": "SafeCastOverflowedIntToUint",
      "type": "error"
    },
    {
      "inputs": [
        {
          "internalType": "uint256",
          "name": "value",
          "type": "uint256"
        }
      ],
      "name": "SafeCastOverflowedUintToInt",
      "type": "error"
    },
    {
      "inputs": [
        {
          "internalType": "address",
          "name": "token",
          "type": "address"
        }
      ],
      "name": "SafeERC20FailedOperation",
      "type": "error"
    },
    {
      "inputs": [
        {
          "internalType": "address",
          "name": "sender",
          "type": "address"
        }
      ],
      "name": "SenderIsNotVault",
      "type": "error"
    },
    {
      "inputs": [],
      "name": "SwapFeePercentageTooHigh",
      "type": "error"
    },
    {
      "inputs": [],
      "name": "SwapFeePercentageTooLow",
      "type": "error"
    },
    {
      "inputs": [
        {
          "internalType": "uint256",
          "name": "amount",
          "type": "uint256"
        },
        {
          "internalType": "uint256",
          "name": "limit",
          "type": "uint256"
        }
      ],
      "name": "SwapLimit",
      "type": "error"
    },
    {
      "inputs": [
        {
          "internalType": "contract IERC20",
          "name": "token",
          "type": "address"
        }
      ],
      "name": "TokenAlreadyRegistered",
      "type": "error"
    },
    {
      "inputs": [
        {
          "internalType": "contract IERC20",
          "name": "token",
          "type": "address"
        }
      ],
      "name": "TokenNotRegistered",
      "type": "error"
    },
    {
      "inputs": [
        {
          "internalType": "address",
          "name": "pool",
          "type": "address"
        },
        {
          "internalType": "address",
          "name": "expectedToken",
          "type": "address"
        },
        {
          "internalType": "address",
          "name": "actualToken",
          "type": "address"
        }
      ],
      "name": "TokensMismatch",
      "type": "error"
    },
    {
      "inputs": [],
      "name": "TradeAmountTooSmall",
      "type": "error"
    },
    {
      "inputs": [],
      "name": "VaultBuffersArePaused",
      "type": "error"
    },
    {
      "inputs": [],
      "name": "VaultIsNotUnlocked",
      "type": "error"
    },
    {
      "inputs": [],
      "name": "VaultNotPaused",
      "type": "error"
    },
    {
      "inputs": [],
      "name": "VaultPauseWindowDurationTooLarge",
      "type": "error"
    },
    {
      "inputs": [],
      "name": "VaultPauseWindowExpired",
      "type": "error"
    },
    {
      "inputs": [],
      "name": "VaultPaused",
      "type": "error"
    },
    {
      "inputs": [
        {
          "internalType": "contract IERC4626",
          "name": "wrappedToken",
          "type": "address"
        }
      ],
      "name": "WrapAmountTooSmall",
      "type": "error"
    },
    {
      "inputs": [],
      "name": "WrongProtocolFeeControllerDeployment",
      "type": "error"
    },
    {
      "inputs": [
        {
          "internalType": "contract IERC4626",
          "name": "wrappedToken",
          "type": "address"
        },
        {
          "internalType": "address",
          "name": "underlyingToken",
          "type": "address"
        }
      ],
      "name": "WrongUnderlyingToken",
      "type": "error"
    },
    {
      "inputs": [],
      "name": "WrongVaultAdminDeployment",
      "type": "error"
    },
    {
      "inputs": [],
      "name": "WrongVaultExtensionDeployment",
      "type": "error"
    },
    {
      "inputs": [],
      "name": "ZeroDivision",
      "type": "error"
    },
    {
      "anonymous": false,
      "inputs": [
        {
          "indexed": true,
          "internalType": "address",
          "name": "pool",
          "type": "address"
        },
        {
          "indexed": false,
          "internalType": "uint256",
          "name": "aggregateSwapFeePercentage",
          "type": "uint256"
        }
      ],
      "name": "AggregateSwapFeePercentageChanged",
      "type": "event"
    },
    {
      "anonymous": false,
      "inputs": [
        {
          "indexed": true,
          "internalType": "address",
          "name": "pool",
          "type": "address"
        },
        {
          "indexed": false,
          "internalType": "uint256",
          "name": "aggregateYieldFeePercentage",
          "type": "uint256"
        }
      ],
      "name": "AggregateYieldFeePercentageChanged",
      "type": "event"
    },
    {
      "anonymous": false,
      "inputs": [
        {
          "indexed": true,
          "internalType": "address",
          "name": "pool",
          "type": "address"
        },
        {
          "indexed": true,
          "internalType": "address",
          "name": "owner",
          "type": "address"
        },
        {
          "indexed": true,
          "internalType": "address",
          "name": "spender",
          "type": "address"
        },
        {
          "indexed": false,
          "internalType": "uint256",
          "name": "value",
          "type": "uint256"
        }
      ],
      "name": "Approval",
      "type": "event"
    },
    {
      "anonymous": false,
      "inputs": [
        {
          "indexed": true,
          "internalType": "contract IAuthorizer",
          "name": "newAuthorizer",
          "type": "address"
        }
      ],
      "name": "AuthorizerChanged",
      "type": "event"
    },
    {
      "anonymous": false,
      "inputs": [
        {
          "indexed": true,
          "internalType": "contract IERC4626",
          "name": "wrappedToken",
          "type": "address"
        },
        {
          "indexed": true,
          "internalType": "address",
          "name": "from",
          "type": "address"
        },
        {
          "indexed": false,
          "internalType": "uint256",
          "name": "burnedShares",
          "type": "uint256"
        }
      ],
      "name": "BufferSharesBurned",
      "type": "event"
    },
    {
      "anonymous": false,
      "inputs": [
        {
          "indexed": true,
          "internalType": "contract IERC4626",
          "name": "wrappedToken",
          "type": "address"
        },
        {
          "indexed": true,
          "internalType": "address",
          "name": "to",
          "type": "address"
        },
        {
          "indexed": false,
          "internalType": "uint256",
          "name": "issuedShares",
          "type": "uint256"
        }
      ],
      "name": "BufferSharesMinted",
      "type": "event"
    },
    {
      "anonymous": false,
      "inputs": [
        {
          "indexed": true,
          "internalType": "address",
          "name": "pool",
          "type": "address"
        },
        {
          "indexed": true,
          "internalType": "address",
          "name": "liquidityProvider",
          "type": "address"
        },
        {
          "indexed": true,
          "internalType": "enum AddLiquidityKind",
          "name": "kind",
          "type": "uint8"
        },
        {
          "indexed": false,
          "internalType": "uint256",
          "name": "totalSupply",
          "type": "uint256"
        },
        {
          "indexed": false,
          "internalType": "uint256[]",
          "name": "amountsAddedRaw",
          "type": "uint256[]"
        },
        {
          "indexed": false,
          "internalType": "uint256[]",
          "name": "swapFeeAmountsRaw",
          "type": "uint256[]"
        }
      ],
      "name": "LiquidityAdded",
      "type": "event"
    },
    {
      "anonymous": false,
      "inputs": [
        {
          "indexed": true,
          "internalType": "contract IERC4626",
          "name": "wrappedToken",
          "type": "address"
        },
        {
          "indexed": false,
          "internalType": "uint256",
          "name": "amountUnderlying",
          "type": "uint256"
        },
        {
          "indexed": false,
          "internalType": "uint256",
          "name": "amountWrapped",
          "type": "uint256"
        },
        {
          "indexed": false,
          "internalType": "bytes32",
          "name": "bufferBalances",
          "type": "bytes32"
        }
      ],
      "name": "LiquidityAddedToBuffer",
      "type": "event"
    },
    {
      "anonymous": false,
      "inputs": [
        {
          "indexed": true,
          "internalType": "address",
          "name": "pool",
          "type": "address"
        },
        {
          "indexed": true,
          "internalType": "address",
          "name": "liquidityProvider",
          "type": "address"
        },
        {
          "indexed": true,
          "internalType": "enum RemoveLiquidityKind",
          "name": "kind",
          "type": "uint8"
        },
        {
          "indexed": false,
          "internalType": "uint256",
          "name": "totalSupply",
          "type": "uint256"
        },
        {
          "indexed": false,
          "internalType": "uint256[]",
          "name": "amountsRemovedRaw",
          "type": "uint256[]"
        },
        {
          "indexed": false,
          "internalType": "uint256[]",
          "name": "swapFeeAmountsRaw",
          "type": "uint256[]"
        }
      ],
      "name": "LiquidityRemoved",
      "type": "event"
    },
    {
      "anonymous": false,
      "inputs": [
        {
          "indexed": true,
          "internalType": "contract IERC4626",
          "name": "wrappedToken",
          "type": "address"
        },
        {
          "indexed": false,
          "internalType": "uint256",
          "name": "amountUnderlying",
          "type": "uint256"
        },
        {
          "indexed": false,
          "internalType": "uint256",
          "name": "amountWrapped",
          "type": "uint256"
        },
        {
          "indexed": false,
          "internalType": "bytes32",
          "name": "bufferBalances",
          "type": "bytes32"
        }
      ],
      "name": "LiquidityRemovedFromBuffer",
      "type": "event"
    },
    {
      "anonymous": false,
      "inputs": [
        {
          "indexed": true,
          "internalType": "address",
          "name": "pool",
          "type": "address"
        }
      ],
      "name": "PoolInitialized",
      "type": "event"
    },
    {
      "anonymous": false,
      "inputs": [
        {
          "indexed": true,
          "internalType": "address",
          "name": "pool",
          "type": "address"
        },
        {
          "indexed": false,
          "internalType": "bool",
          "name": "paused",
          "type": "bool"
        }
      ],
      "name": "PoolPausedStateChanged",
      "type": "event"
    },
    {
      "anonymous": false,
      "inputs": [
        {
          "indexed": true,
          "internalType": "address",
          "name": "pool",
          "type": "address"
        },
        {
          "indexed": false,
          "internalType": "bool",
          "name": "recoveryMode",
          "type": "bool"
        }
      ],
      "name": "PoolRecoveryModeStateChanged",
      "type": "event"
    },
    {
      "anonymous": false,
      "inputs": [
        {
          "indexed": true,
          "internalType": "address",
          "name": "pool",
          "type": "address"
        },
        {
          "indexed": true,
          "internalType": "address",
          "name": "factory",
          "type": "address"
        },
        {
          "components": [
            {
              "internalType": "contract IERC20",
              "name": "token",
              "type": "address"
            },
            {
              "internalType": "enum TokenType",
              "name": "tokenType",
              "type": "uint8"
            },
            {
              "internalType": "contract IRateProvider",
              "name": "rateProvider",
              "type": "address"
            },
            {
              "internalType": "bool",
              "name": "paysYieldFees",
              "type": "bool"
            }
          ],
          "indexed": false,
          "internalType": "struct TokenConfig[]",
          "name": "tokenConfig",
          "type": "tuple[]"
        },
        {
          "indexed": false,
          "internalType": "uint256",
          "name": "swapFeePercentage",
          "type": "uint256"
        },
        {
          "indexed": false,
          "internalType": "uint32",
          "name": "pauseWindowEndTime",
          "type": "uint32"
        },
        {
          "components": [
            {
              "internalType": "address",
              "name": "pauseManager",
              "type": "address"
            },
            {
              "internalType": "address",
              "name": "swapFeeManager",
              "type": "address"
            },
            {
              "internalType": "address",
              "name": "poolCreator",
              "type": "address"
            }
          ],
          "indexed": false,
          "internalType": "struct PoolRoleAccounts",
          "name": "roleAccounts",
          "type": "tuple"
        },
        {
          "components": [
            {
              "internalType": "bool",
              "name": "enableHookAdjustedAmounts",
              "type": "bool"
            },
            {
              "internalType": "bool",
              "name": "shouldCallBeforeInitialize",
              "type": "bool"
            },
            {
              "internalType": "bool",
              "name": "shouldCallAfterInitialize",
              "type": "bool"
            },
            {
              "internalType": "bool",
              "name": "shouldCallComputeDynamicSwapFee",
              "type": "bool"
            },
            {
              "internalType": "bool",
              "name": "shouldCallBeforeSwap",
              "type": "bool"
            },
            {
              "internalType": "bool",
              "name": "shouldCallAfterSwap",
              "type": "bool"
            },
            {
              "internalType": "bool",
              "name": "shouldCallBeforeAddLiquidity",
              "type": "bool"
            },
            {
              "internalType": "bool",
              "name": "shouldCallAfterAddLiquidity",
              "type": "bool"
            },
            {
              "internalType": "bool",
              "name": "shouldCallBeforeRemoveLiquidity",
              "type": "bool"
            },
            {
              "internalType": "bool",
              "name": "shouldCallAfterRemoveLiquidity",
              "type": "bool"
            },
            {
              "internalType": "address",
              "name": "hooksContract",
              "type": "address"
            }
          ],
          "indexed": false,
          "internalType": "struct HooksConfig",
          "name": "hooksConfig",
          "type": "tuple"
        },
        {
          "components": [
            {
              "internalType": "bool",
              "name": "disableUnbalancedLiquidity",
              "type": "bool"
            },
            {
              "internalType": "bool",
              "name": "enableAddLiquidityCustom",
              "type": "bool"
            },
            {
              "internalType": "bool",
              "name": "enableRemoveLiquidityCustom",
              "type": "bool"
            },
            {
              "internalType": "bool",
              "name": "enableDonation",
              "type": "bool"
            }
          ],
          "indexed": false,
          "internalType": "struct LiquidityManagement",
          "name": "liquidityManagement",
          "type": "tuple"
        }
      ],
      "name": "PoolRegistered",
      "type": "event"
    },
    {
      "anonymous": false,
      "inputs": [
        {
          "indexed": true,
          "internalType": "contract IProtocolFeeController",
          "name": "newProtocolFeeController",
          "type": "address"
        }
      ],
      "name": "ProtocolFeeControllerChanged",
      "type": "event"
    },
    {
      "anonymous": false,
      "inputs": [
        {
          "indexed": true,
          "internalType": "address",
          "name": "pool",
          "type": "address"
        },
        {
          "indexed": true,
          "internalType": "contract IERC20",
          "name": "tokenIn",
          "type": "address"
        },
        {
          "indexed": true,
          "internalType": "contract IERC20",
          "name": "tokenOut",
          "type": "address"
        },
        {
          "indexed": false,
          "internalType": "uint256",
          "name": "amountIn",
          "type": "uint256"
        },
        {
          "indexed": false,
          "internalType": "uint256",
          "name": "amountOut",
          "type": "uint256"
        },
        {
          "indexed": false,
          "internalType": "uint256",
          "name": "swapFeePercentage",
          "type": "uint256"
        },
        {
          "indexed": false,
          "internalType": "uint256",
          "name": "swapFeeAmount",
          "type": "uint256"
        }
      ],
      "name": "Swap",
      "type": "event"
    },
    {
      "anonymous": false,
      "inputs": [
        {
          "indexed": true,
          "internalType": "address",
          "name": "pool",
          "type": "address"
        },
        {
          "indexed": false,
          "internalType": "uint256",
          "name": "swapFeePercentage",
          "type": "uint256"
        }
      ],
      "name": "SwapFeePercentageChanged",
      "type": "event"
    },
    {
      "anonymous": false,
      "inputs": [
        {
          "indexed": true,
          "internalType": "address",
          "name": "pool",
          "type": "address"
        },
        {
          "indexed": true,
          "internalType": "address",
          "name": "from",
          "type": "address"
        },
        {
          "indexed": true,
          "internalType": "address",
          "name": "to",
          "type": "address"
        },
        {
          "indexed": false,
          "internalType": "uint256",
          "name": "value",
          "type": "uint256"
        }
      ],
      "name": "Transfer",
      "type": "event"
    },
    {
      "anonymous": false,
      "inputs": [
        {
          "indexed": true,
          "internalType": "contract IERC4626",
          "name": "wrappedToken",
          "type": "address"
        },
        {
          "indexed": false,
          "internalType": "uint256",
          "name": "burnedShares",
          "type": "uint256"
        },
        {
          "indexed": false,
          "internalType": "uint256",
          "name": "withdrawnUnderlying",
          "type": "uint256"
        },
        {
          "indexed": false,
          "internalType": "bytes32",
          "name": "bufferBalances",
          "type": "bytes32"
        }
      ],
      "name": "Unwrap",
      "type": "event"
    },
    {
      "anonymous": false,
      "inputs": [
        {
          "indexed": true,
          "internalType": "address",
          "name": "pool",
          "type": "address"
        },
        {
          "indexed": true,
          "internalType": "bytes32",
          "name": "eventKey",
          "type": "bytes32"
        },
        {
          "indexed": false,
          "internalType": "bytes",
          "name": "eventData",
          "type": "bytes"
        }
      ],
      "name": "VaultAuxiliary",
      "type": "event"
    },
    {
      "anonymous": false,
      "inputs": [
        {
          "indexed": false,
          "internalType": "bool",
          "name": "paused",
          "type": "bool"
        }
      ],
      "name": "VaultBuffersPausedStateChanged",
      "type": "event"
    },
    {
      "anonymous": false,
      "inputs": [
        {
          "indexed": false,
          "internalType": "bool",
          "name": "paused",
          "type": "bool"
        }
      ],
      "name": "VaultPausedStateChanged",
      "type": "event"
    },
    {
      "anonymous": false,
      "inputs": [],
      "name": "VaultQueriesDisabled",
      "type": "event"
    },
    {
      "anonymous": false,
      "inputs": [],
      "name": "VaultQueriesEnabled",
      "type": "event"
    },
    {
      "anonymous": false,
      "inputs": [
        {
          "indexed": true,
          "internalType": "contract IERC4626",
          "name": "wrappedToken",
          "type": "address"
        },
        {
          "indexed": false,
          "internalType": "uint256",
          "name": "depositedUnderlying",
          "type": "uint256"
        },
        {
          "indexed": false,
          "internalType": "uint256",
          "name": "mintedShares",
          "type": "uint256"
        },
        {
          "indexed": false,
          "internalType": "bytes32",
          "name": "bufferBalances",
          "type": "bytes32"
        }
      ],
      "name": "Wrap",
      "type": "event"
    },
    {
      "stateMutability": "payable",
      "type": "fallback"
    },
    {
      "inputs": [
        {
          "components": [
            {
              "internalType": "address",
              "name": "pool",
              "type": "address"
            },
            {
              "internalType": "address",
              "name": "to",
              "type": "address"
            },
            {
              "internalType": "uint256[]",
              "name": "maxAmountsIn",
              "type": "uint256[]"
            },
            {
              "internalType": "uint256",
              "name": "minBptAmountOut",
              "type": "uint256"
            },
            {
              "internalType": "enum AddLiquidityKind",
              "name": "kind",
              "type": "uint8"
            },
            {
              "internalType": "bytes",
              "name": "userData",
              "type": "bytes"
            }
          ],
          "internalType": "struct AddLiquidityParams",
          "name": "params",
          "type": "tuple"
        }
      ],
      "name": "addLiquidity",
      "outputs": [
        {
          "internalType": "uint256[]",
          "name": "amountsIn",
          "type": "uint256[]"
        },
        {
          "internalType": "uint256",
          "name": "bptAmountOut",
          "type": "uint256"
        },
        {
          "internalType": "bytes",
          "name": "returnData",
          "type": "bytes"
        }
      ],
      "stateMutability": "nonpayable",
      "type": "function"
    },
    {
      "inputs": [
        {
          "internalType": "address",
          "name": "pool",
          "type": "address"
        },
        {
          "internalType": "contract IERC20",
          "name": "token",
          "type": "address"
        },
        {
          "components": [
            {
              "internalType": "enum TokenType",
              "name": "tokenType",
              "type": "uint8"
            },
            {
              "internalType": "contract IRateProvider",
              "name": "rateProvider",
              "type": "address"
            },
            {
              "internalType": "bool",
              "name": "paysYieldFees",
              "type": "bool"
            }
          ],
          "internalType": "struct TokenInfo",
          "name": "tokenInfo",
          "type": "tuple"
        }
      ],
      "name": "addNewToken",
      "outputs": [
        {
          "internalType": "uint256",
          "name": "tokenIndex",
          "type": "uint256"
        }
      ],
      "stateMutability": "nonpayable",
      "type": "function"
    },
    {
      "inputs": [
        {
          "components": [
            {
              "internalType": "enum SwapKind",
              "name": "kind",
              "type": "uint8"
            },
            {
              "internalType": "enum WrappingDirection",
              "name": "direction",
              "type": "uint8"
            },
            {
              "internalType": "contract IERC4626",
              "name": "wrappedToken",
              "type": "address"
            },
            {
              "internalType": "uint256",
              "name": "amountGivenRaw",
              "type": "uint256"
            },
            {
              "internalType": "uint256",
              "name": "limitRaw",
              "type": "uint256"
            }
          ],
          "internalType": "struct BufferWrapOrUnwrapParams",
          "name": "params",
          "type": "tuple"
        }
      ],
      "name": "erc4626BufferWrapOrUnwrap",
      "outputs": [
        {
          "internalType": "uint256",
          "name": "amountCalculatedRaw",
          "type": "uint256"
        },
        {
          "internalType": "uint256",
          "name": "amountInRaw",
          "type": "uint256"
        },
        {
          "internalType": "uint256",
          "name": "amountOutRaw",
          "type": "uint256"
        }
      ],
      "stateMutability": "nonpayable",
      "type": "function"
    },
    {
      "inputs": [
        {
          "internalType": "address",
          "name": "pool",
          "type": "address"
        },
        {
          "internalType": "contract IERC20",
          "name": "token",
          "type": "address"
        }
      ],
      "name": "getPoolTokenCountAndIndexOfToken",
      "outputs": [
        {
          "internalType": "uint256",
          "name": "",
          "type": "uint256"
        },
        {
          "internalType": "uint256",
          "name": "",
          "type": "uint256"
        }
      ],
      "stateMutability": "view",
      "type": "function"
    },
    {
      "inputs": [],
      "name": "getVaultExtension",
      "outputs": [
        {
          "internalType": "address",
          "name": "",
          "type": "address"
        }
      ],
      "stateMutability": "view",
      "type": "function"
    },
    {
      "inputs": [],
      "name": "reentrancyGuardEntered",
      "outputs": [
        {
          "internalType": "bool",
          "name": "",
          "type": "bool"
        }
      ],
      "stateMutability": "view",
      "type": "function"
    },
    {
      "inputs": [
        {
          "components": [
            {
              "internalType": "address",
              "name": "pool",
              "type": "address"
            },
            {
              "internalType": "address",
              "name": "from",
              "type": "address"
            },
            {
              "internalType": "uint256",
              "name": "maxBptAmountIn",
              "type": "uint256"
            },
            {
              "internalType": "uint256[]",
              "name": "minAmountsOut",
              "type": "uint256[]"
            },
            {
              "internalType": "enum RemoveLiquidityKind",
              "name": "kind",
              "type": "uint8"
            },
            {
              "internalType": "bytes",
              "name": "userData",
              "type": "bytes"
            }
          ],
          "internalType": "struct RemoveLiquidityParams",
          "name": "params",
          "type": "tuple"
        }
      ],
      "name": "removeLiquidity",
      "outputs": [
        {
          "internalType": "uint256",
          "name": "bptAmountIn",
          "type": "uint256"
        },
        {
          "internalType": "uint256[]",
          "name": "amountsOut",
          "type": "uint256[]"
        },
        {
          "internalType": "bytes",
          "name": "returnData",
          "type": "bytes"
        }
      ],
      "stateMutability": "nonpayable",
      "type": "function"
    },
    {
      "inputs": [
        {
          "internalType": "contract IERC20",
          "name": "token",
          "type": "address"
        },
        {
          "internalType": "address",
          "name": "to",
          "type": "address"
        },
        {
          "internalType": "uint256",
          "name": "amount",
          "type": "uint256"
        }
      ],
      "name": "sendTo",
      "outputs": [],
      "stateMutability": "nonpayable",
      "type": "function"
    },
    {
      "inputs": [
        {
          "internalType": "contract IERC20",
          "name": "token",
          "type": "address"
        },
        {
          "internalType": "uint256",
          "name": "amountHint",
          "type": "uint256"
        }
      ],
      "name": "settle",
      "outputs": [
        {
          "internalType": "uint256",
          "name": "credit",
          "type": "uint256"
        }
      ],
      "stateMutability": "nonpayable",
      "type": "function"
    },
    {
      "inputs": [
        {
          "components": [
            {
              "internalType": "enum SwapKind",
              "name": "kind",
              "type": "uint8"
            },
            {
              "internalType": "address",
              "name": "pool",
              "type": "address"
            },
            {
              "internalType": "contract IERC20",
              "name": "tokenIn",
              "type": "address"
            },
            {
              "internalType": "contract IERC20",
              "name": "tokenOut",
              "type": "address"
            },
            {
              "internalType": "uint256",
              "name": "amountGivenRaw",
              "type": "uint256"
            },
            {
              "internalType": "uint256",
              "name": "limitRaw",
              "type": "uint256"
            },
            {
              "internalType": "bytes",
              "name": "userData",
              "type": "bytes"
            }
          ],
          "internalType": "struct VaultSwapParams",
          "name": "vaultSwapParams",
          "type": "tuple"
        }
      ],
      "name": "swap",
      "outputs": [
        {
          "internalType": "uint256",
          "name": "amountCalculated",
          "type": "uint256"
        },
        {
          "internalType": "uint256",
          "name": "amountIn",
          "type": "uint256"
        },
        {
          "internalType": "uint256",
          "name": "amountOut",
          "type": "uint256"
        }
      ],
      "stateMutability": "nonpayable",
      "type": "function"
    },
    {
      "inputs": [
        {
          "internalType": "address",
          "name": "owner",
          "type": "address"
        },
        {
          "internalType": "address",
          "name": "to",
          "type": "address"
        },
        {
          "internalType": "uint256",
          "name": "amount",
          "type": "uint256"
        }
      ],
      "name": "transfer",
      "outputs": [
        {
          "internalType": "bool",
          "name": "",
          "type": "bool"
        }
      ],
      "stateMutability": "nonpayable",
      "type": "function"
    },
    {
      "inputs": [
        {
          "internalType": "address",
          "name": "spender",
          "type": "address"
        },
        {
          "internalType": "address",
          "name": "from",
          "type": "address"
        },
        {
          "internalType": "address",
          "name": "to",
          "type": "address"
        },
        {
          "internalType": "uint256",
          "name": "amount",
          "type": "uint256"
        }
      ],
      "name": "transferFrom",
      "outputs": [
        {
          "internalType": "bool",
          "name": "",
          "type": "bool"
        }
      ],
      "stateMutability": "nonpayable",
      "type": "function"
    },
    {
      "inputs": [
        {
          "internalType": "bytes",
          "name": "data",
          "type": "bytes"
        }
      ],
      "name": "unlock",
      "outputs": [
        {
          "internalType": "bytes",
          "name": "result",
          "type": "bytes"
        }
      ],
      "stateMutability": "nonpayable",
      "type": "function"
    },
    {
      "stateMutability": "payable",
      "type": "receive"
    }
  ],
  "bytecode": "0x6101e080604052346103b657606081616684803803809161002082856104d9565b8339810103126103b65780516001600160a01b038116908181036103b6576020830151926001600160a01b03841684036103b657604001516001600160a01b03811691908290036103b65761009860405161007c6040826104d9565b600a8152691a5cd55b9b1bd8dad95960b21b602082015261054b565b60c0526100cf6040516100ac6040826104d9565b60118152701b9bdb96995c9bd1195b1d1850dbdd5b9d607a1b602082015261054b565b60e0526101006040516100e36040826104d9565b600b81526a746f6b656e44656c74617360a81b602082015261054b565b610100526101396040516101156040826104d9565b6012815271185919131a5c5d5a591a5d1e50d85b1b195960721b602082015261054b565b6101205261016960405161014e6040826104d9565b60098152681cd95cdcda5bdb925960ba1b602082015261054b565b6101405260405163fbfa77cf60e01b8152602081600481875afa9081156103c2575f916104ba575b50306001600160a01b03909116036104ab5760405163fbfa77cf60e01b8152602081600481865afa9081156103c2575f9161047c575b50306001600160a01b039091160361046d576101c052600a80546001600160a01b031916919091179055604051634546891d60e11b8152602081600481855afa9081156103c2575f9161044e575b5061016052604051631060fdbd60e11b8152602081600481855afa9081156103c2575f9161042f575b506101a05260405163cd51c12f60e01b8152602081600481855afa9081156103c2575f91610400575b5061018052604051630716585d60e51b8152602081600481855afa9081156103c2575f916103cd575b506080526040516329cab55160e11b815290602090829060049082905afa9081156103c2575f9161038c575b5060a05260098054610100600160a81b03191660089290921b610100600160a81b031691909117905560405161605e9081610626823960805181615392015260a0518161373e015260c0518181816112630152611697015260e0518181816112d70152818161478501526147c70152610100518161473c0152610120518181816113a301526124e50152610140518181816113030152818161137601526124b801526101605181505061018051816119cb01526101a05181611a6801526101c051818181610a0b01526116130152f35b90506020813d6020116103ba575b816103a7602093836104d9565b810103126103b657515f6102bc565b5f80fd5b3d915061039a565b6040513d5f823e3d90fd5b90506020813d6020116103f8575b816103e8602093836104d9565b810103126103b657516004610290565b3d91506103db565b610422915060203d602011610428575b61041a81836104d9565b81019061052f565b5f610267565b503d610410565b610448915060203d6020116104285761041a81836104d9565b5f61023e565b610467915060203d6020116104285761041a81836104d9565b5f610215565b631bbe95c760e01b5f5260045ffd5b61049e915060203d6020116104a4575b61049681836104d9565b810190610510565b5f6101c7565b503d61048c565b6301ab9d9d60e41b5f5260045ffd5b6104d3915060203d6020116104a45761049681836104d9565b5f610191565b601f909101601f19168101906001600160401b038211908210176104fc57604052565b634e487b7160e01b5f52604160045260245ffd5b908160209103126103b657516001600160a01b03811681036103b65790565b908160209103126103b6575163ffffffff811681036103b65790565b6040519061055a6040836104d9565b600c82526105de6001602084016b5661756c7453746f7261676560a01b815260396020604051958693828501987f62616c616e6365722d6c6162732e76332e73746f726167652e000000000000008a525180918587015e840190601760f91b84830152805192839101603a83015e01015f838201520301601f1981018352826104d9565b5190205f198101908111610611576040519060208201908152602082526106066040836104d9565b9051902060ff191690565b634e487b7160e01b5f52601160045260245ffdfe60806040526004361015610018575b36611604576115f5565b5f3560e01c806315afd409146100e757806315dacbea146100e257806321457897146100dd5780632bfb780c146100d857806343583be5146100d357806348c89491146100ce5780634af29ec4146100c957806398569888146100c4578063ae639329146100bf578063b9a8effa146100ba578063beabacc8146100b5578063c9c1661b146100b05763d2c725e00361000e57610b44565b610a70565b610a3a565b6109f6565b6108f5565b610876565b61078e565b6106ef565b610664565b610593565b61048a565b61021f565b61011a565b6001600160a01b031690565b6001600160a01b0381160361010957565b5f80fd5b3590610118826100f8565b565b3461010957604036600319011261010957600435610137816100f8565b60243561014261164e565b61014a611695565b6001600160a01b0382165f818152600860209081526040918290205491516370a0823160e01b81529194928290818061018630600483016109e3565b03915afa93841561021a576101dd946101b1925f916101eb575b50806101ab85610b6f565b55610c6f565b918083116101e1575b50816101c5916116cd565b6101cd611683565b6040519081529081906020820190565b0390f35b91506101c56101ba565b61020d915060203d602011610213575b61020581836102c7565b810190610c33565b5f6101a0565b503d6101fb565b610c42565b346101095760803660031901126101095761026d60043561023f816100f8565b60243561024b816100f8565b60443590610258826100f8565b61026760643580948333611706565b3361187f565b602060405160018152f35b634e487b7160e01b5f52604160045260245ffd5b606081019081106001600160401b038211176102a757604052565b610278565b60e081019081106001600160401b038211176102a757604052565b601f909101601f19168101906001600160401b038211908210176102a757604052565b6040519061011860c0836102c7565b6040519061011860e0836102c7565b60405190610118610180836102c7565b6001600160401b0381116102a75760051b60200190565b9080601f8301121561010957813561034681610318565b9261035460405194856102c7565b81845260208085019260051b82010192831161010957602001905b82821061037c5750505090565b813581526020918201910161036f565b3590600482101561010957565b6001600160401b0381116102a757601f01601f191660200190565b9291926103c082610399565b916103ce60405193846102c7565b829481845281830111610109578281602093845f960137010152565b9080601f8301121561010957816020610405933591016103b4565b90565b90602080835192838152019201905f5b8181106104255750505090565b8251845260209384019390920191600101610418565b805180835260209291819084018484015e5f828201840152601f01601f1916010190565b9161047c9061040594928452606060208501526060840190610408565b91604081840391015261043b565b34610109576020366003190112610109576004356001600160401b0381116101095760c06003198236030112610109576104c26102ea565b906104cf8160040161010d565b82526104dd6024820161010d565b60208301526044810135604083015260648101356001600160401b0381116101095761050f906004369184010161032f565b60608301526105206084820161038c565b608083015260a4810135916001600160401b0383116101095761054f6105599260046101dd95369201016103ea565b60a0820152610c7c565b6040939193519384938461045f565b6002111561010957565b359061011882610568565b6040919493926060820195825260208201520152565b34610109576020366003190112610109576004356001600160401b0381116101095760e06003198236030112610109576105cb6102f9565b906105d881600401610572565b82526105e66024820161010d565b60208301526105f76044820161010d565b60408301526106086064820161010d565b60608301526084810135608083015260a481013560a083015260c4810135916001600160401b0383116101095761064b6106559260046101dd95369201016103ea565b60c0820152610dbe565b6040939193519384938461057d565b346101095760a03660031901126101095760405160a081016001600160401b038111828210176102a7576101dd91610655916040526004356106a581610568565b81526024356106b381610568565b60208201526044356106c4816100f8565b604082015260643560608201526084356080820152610fb3565b90602061040592818152019061043b565b34610109576020366003190112610109576004356001600160401b0381116101095736602382011215610109576004810135906001600160401b038211610109573660248383010111610109576101dd91602461074c9201611256565b604051918291826106de565b3590600582101561010957565b61077b6104059492606083526060830190610408565b926020820152604081840391015261043b565b34610109576020366003190112610109576004356001600160401b0381116101095760c06003198236030112610109576107c66102ea565b906107d38160040161010d565b82526107e16024820161010d565b602083015260448101356001600160401b03811161010957610809906004369184010161032f565b60408301526064810135606083015261082460848201610758565b608083015260a4810135916001600160401b0383116101095761085361085d9260046101dd95369201016103ea565b60a0820152611347565b60409391935193849384610765565b8015150361010957565b346101095760a036600319011261010957600435610893816100f8565b60243561089f816100f8565b6060366043190112610109576101dd916101cd91604051916108c08361028c565b6044356108cc81610568565b83526064356108da816100f8565b60208401526084356108eb8161086c565b6040840152611534565b3461010957606036600319011261010957600435610912816100f8565b6024359061091f826100f8565b6044359061092b61164e565b610933611695565b61094561093f83614711565b82614734565b6001600160a01b0381165f9081526008602052604090208054838103949085116109b6576109a49461099f925561099160405194859263a9059cbb60e01b60208501526024840161469e565b03601f1981018452836102c7565b615b9c565b5f5f805160206160098339815191525d005b610c4d565b5f91031261010957565b6001600160a01b03169052565b6001600160a01b0316600452602490565b6001600160a01b03909116815260200190565b34610109575f366003190112610109576040517f00000000000000000000000000000000000000000000000000000000000000006001600160a01b03168152602090f35b346101095760603660031901126101095761026d600435610a5a816100f8565b602435610a66816100f8565b604435913361187f565b3461010957604036600319011261010957600435610a8d816100f8565b60243590610a9a826100f8565b6001600160a01b03165f8181526020819052604090205460011615610b32575f52600360205260405f209060405180928391602082549182815201915f5260205f20905f5b818110610b105784610afd87610af7838803846102c7565b826146b9565b9051604080519182526020820192909252f35b82546001600160a01b0316845286945060209093019260019283019201610adf565b6327946f5760e21b5f5260045260245ffd5b34610109575f3660031901126101095760205f805160206160098339815191525c6040519015158152f35b6001600160a01b03165f90815260086020526040902090565b6001600160a01b03165f90815260026020526040902090565b6001600160a01b03165f90815260056020526040902090565b6001600160a01b03165f908152600f6020526040902090565b6001600160a01b03165f90815260066020526040902090565b6001600160a01b03165f908152600b6020526040902090565b6001600160a01b03165f90815260116020526040902090565b9060018060a01b03165f5260205260405f2090565b90816020910312610109575190565b6040513d5f823e3d90fd5b634e487b7160e01b5f52601160045260245ffd5b5f198101919082116109b657565b919082039182116109b657565b90610c85611695565b8151610c99906001600160a01b031661198d565b610cab610ca683516100ec565b6119c4565b610cc5610cb883516100ec565b610cc0611abf565b611af5565b90610d14602083015151610ce0606086019182515190611f1b565b805160c0850190610cfa82519160a0880192835191611f77565b92610d058751612039565b610d6f575b5050508484612422565b9490919586610d238351612a3f565b610d31575b50505050929190565b84975093610d6594610d5b610d4e610d4985516100ec565b610b88565b546001600160a01b031690565b9484513390612aff565b925f808080610d28565b610d90610db694888a610d88610d4e610d4983516100ec565b9233906120ee565b610dab610da5610da08a516100ec565b610ba1565b8861219f565b519151905191611f77565b5f8080610d0a565b90610dc7611695565b602082018051909190610de2906001600160a01b031661198d565b610def610ca683516100ec565b608083015115610f8157610e0660408401516100ec565b610e1b610e1660608601516100ec565b6100ec565b6001600160a01b0390911614610f7257610e38610cb883516100ec565b92610e438482612c56565b90610e4f858383612cfe565b610e598651612d91565b610f17575b610e7990610e6c8751612f6b565b610ee9575b86848461305d565b9791979490978397610e8b8451613415565b610ebb575b505050505051610e9f81610fa4565b610ea881610fa4565b610eb3575081929190565b918093509190565b85985090610ed3610d4e610d49610ede9894516100ec565b9484519133926134de565b925f80808080610e90565b610ef386516100ec565b610f1060608601918251610f09610d4e83610b88565b9185612f97565b9052610e71565b610f3790610f2586516100ec565b610f31610d4e82610b88565b91612e44565b610f4d610f47610da086516100ec565b8661219f565b610f58828683612ecd565b6040830152610e79610f6b868484612cfe565b9050610e5e565b63a54b181d60e01b5f5260045ffd5b6357a456b760e01b5f5260045ffd5b634e487b7160e01b5f52602160045260245ffd5b60021115610fae57565b610f90565b610fbb611695565b6007546001929060021c831661123257604082810180516001600160a01b039081165f818152600e602052939093205492959192161561121f576004945061100161164e565b6020611010610e1684516100ec565b6040516338d52e0f60e01b815296879182905afa801561021a576080955f916111f0575b5060018060a01b03166110508161104b85516100ec565b6136fb565b61105a83516100ec565b9161106b606087019384519061373b565b602086015161107981610fa4565b61108281610fa4565b03611189576110a99185519161109783610fa4565b6110a185516100ec565b915192613b7b565b7feeb740c90bf2b18c9532eb7d473137767036d893dff3e009f32718f821b2a4c082969297939796886110f460018060a01b036110e689516100ec565b16946040519384938461057d565b0390a25b805161110381610fa4565b61110c81610fa4565b61115857015180841061113e575061113161112c91849283915b516100ec565b61373b565b611139611683565b929190565b63e2ea151b60e01b5f52600484905260245260445ffd5b5ffd5b0151808511611172575061113161112c9185928391611126565b63e2ea151b60e01b5f52600485905260245260445ffd5b6111ab9185519161119983610fa4565b6111a385516100ec565b9151926137d1565b7f3771d13c67011e31e12031c54bb59b0bf544a80b81d280a3711e172aa8b7f47b82969297939796886111e860018060a01b036110e689516100ec565b0390a26110f8565b611212915060203d602011611218575b61120a81836102c7565b810190611241565b5f611034565b503d611200565b846385f4129960e01b5f5260045260245ffd5b630f27df0960e01b5f5260045ffd5b908160209103126101095751610405816100f8565b9190916112cd5f806112947f000000000000000000000000000000000000000000000000000000000000000094855c15978861133e575b36916103b4565b60208151910182335af13d15611336573d906112af82610399565b916112bd60405193846102c7565b82523d5f602084013e5b33615ef4565b926112d55750565b7f00000000000000000000000000000000000000000000000000000000000000005c611327575f905d6101187f0000000000000000000000000000000000000000000000000000000000000000613e29565b6320f1d86d60e01b5f5260045ffd5b6060906112c7565b6001875d61128d565b90611350611695565b8151611364906001600160a01b031661198d565b611371610ca683516100ec565b6113c77f00000000000000000000000000000000000000000000000000000000000000005c6113a084516100ec565b907f0000000000000000000000000000000000000000000000000000000000000000613e3a565b6113d96113d483516100ec565b611d35565b906114286020830151516113f4604086019182515190611f1b565b805160c085019061140e82519160a0880192835191613e53565b926114198751613ec5565b61146f575b5050508484614076565b94909586846114378451614490565b611446575b5050505050929190565b611465955061145b610d4e610d4985516100ec565b9484513390614517565b5f8080868161143c565b61148f6114b094888a611488610d4e610d4983516100ec565b9233613f4b565b6114a561149f610da08a516100ec565b88612202565b519151905191613e53565b5f808061141e565b634e487b7160e01b5f52603260045260245ffd5b908051906114d982610fa4565b6114e282610fa4565b825460208201516040909201516001600160b01b031990911660ff939093169290921760089190911b610100600160a81b03161790151560a81b60ff60a81b16179055565b905f5260205260405f2090565b6001600160a01b0381165f908152600360205260409020805493949390929190600160401b8110156102a757600181018085558110156115f0575f938452602080852090910180546001600160a01b0319166001600160a01b03808616919091179091558216845260049052604083206115e8956115ed936115bf926115ba9190610c1e565b6114cc565b6001600160a01b0381165f9081526003602052604090206115e09054610c61565b948591610ba1565b611527565b55565b6114b8565b637911c44b60e11b5f5260045ffd5b346115f557365f80375f8036817f00000000000000000000000000000000000000000000000000000000000000006001600160a01b03165af43d5f803e1561164a573d5ff35b3d5ffd5b5f805160206160098339815191525c6116745760015f805160206160098339815191525d565b633ee5aeb560e01b5f5260045ffd5b5f5f805160206160098339815191525d565b7f00000000000000000000000000000000000000000000000000000000000000005c156116be57565b63604dd39b60e11b5f5260045ffd5b906116d790614711565b90600160ff1b82146109b657610118915f0390614734565b6001600160a01b0316600452602452604452606490565b929190916117158284866147f4565b60018101611725575b5050505050565b80821161183c576001600160a01b0384169391900391908315611829576001600160a01b038216948515611816578361177b84611776856117768660018060a01b03165f52601060205260405f2090565b610c1e565b556001600160a01b031692833b1561010957805f7fa0175360a15bca328baf7ea85c7b784d58b222a50d0ce760b10dba336d226a61946117ef946117d36040519485938493630ad0fe5760e31b85526004850161185d565b038183895af16117fc575b506040519081529081906020820190565b0390a45f8080808061171e565b8061180a5f611810936102c7565b806109bb565b5f6117de565b634a1406b160e11b5f52611155836109d2565b63e602df0560e01b5f52611155906109d2565b82637dc7a0d960e11b5f5260018060a01b031660045260245260445260645ffd5b6001600160a01b03918216815291166020820152604081019190915260600190565b919290916001600160a01b03831690811561197a576001600160a01b038516908115611967576118b28561177683610bba565b54808511611951578490036118ca8661177684610bba565b556118d88661177683610bba565b8054850190556040518481526001600160a01b0391909116929083905f80516020615fe983398151915290602090a4803b1561010957611932935f8094604051968795869485936323de665160e01b85526004850161185d565b03925af1801561021a576119435750565b8061180a5f610118936102c7565b63391434e360e21b5f52611155908590876116ef565b63ec442f0560e01b5f52611155866109d2565b634b637e8f60e11b5f52611155846109d2565b6001600160a01b03165f81815260208190526040902054600190811c16156119b25750565b634bdace1360e01b5f5260045260245ffd5b63ffffffff7f00000000000000000000000000000000000000000000000000000000000000001642111580611ab1575b611aa2576001600160a01b0381165f9081526020819052604090205460018160ff611a1d611ffd565b161c1690611a29615fe0565b90602882018092116109b65782611a57575b5050611a445750565b63d971f59760e01b5f52611155906109d2565b611a9892509063ffffffff611a8f927f0000000000000000000000000000000000000000000000000000000000000000921c16615fc6565b63ffffffff1690565b4211155f80611a3b565b6336a7e2cd60e21b5f5260045ffd5b506001600754811c166119f4565b60405190611acc826102ac565b606060c0835f815282602082015282604082015282808201528260808201528260a08201520152565b90611afe61164e565b6001600160a01b0381165f90815260056020908152604080832083835281842054600484528285206003855292909420805494875292860192611b4090614839565b8352611b4b8461488a565b9260408701938452611b5c85611f31565b9260608801938452611b6d86611f31565b6080890152611b7d868951615bf4565b60c0890152611b8b86611f31565b9060a08901918252611ba18951600190811c1690565b9283611d21575b83611d0e575b5f5b8a898210611be8575050505050505050505080611bd8611bd2611bdf93610ba1565b91610bd3565b9083614919565b90610118611683565b908860019289838a611c4082611c2c81611c26611c218e611c1b8f85611c0e9151611f63565b516001600160a01b031690565b90610c1e565b6148d9565b94611527565b54965183611c3a8383611f63565b52611f63565b50611c4a81614a4a565b611c55838c51611f63565b52611c6a87611c6387614ae2565b8487614b3b565b8a15611d0457604081015115159081611ce7575b50611c8f575b505050505b01611bb0565b82611cb3611cab83611ca4611cb99751615c88565b9551611f63565b519560801c90565b90615cc6565b8d8382611cca575b8b919250611c84565b611cd88693611cde95610c6f565b91614b3b565b5f808d83611cc1565b87915051611cf481610fa4565b611cfd81610fa4565b145f611c7e565b5050505050611c89565b9250611d1a8951615cb5565b1592611bae565b9250611d2d8951615c88565b151592611ba8565b611d3d611abf565b90611d4661164e565b6001600160a01b0381165f90815260056020908152604080832083835281842054600484528285206003855292909420805494875292860192611d8890614839565b8352611d938461488a565b9260408701938452611da485611f31565b9260608801938452611db586611f31565b6080890152611dc5868951615bf4565b60c0890152611dd386611f31565b9060a08901918252611de98951600190811c1690565b9283611f07575b83611ef4575b5f5b8a898210611e22575050505050505050505080611bd8611bd2611e1a93610ba1565b610405611683565b908860019289838a611e4882611c2c81611c26611c218e611c1b8f85611c0e9151611f63565b50611e5281614a4a565b611e5d838c51611f63565b52611e6b5f611c6387614ae2565b8a15611eea57604081015115159081611ecd575b50611e90575b505050505b01611df8565b82611cb3611cab83611ca4611ea59751615c88565b8d8382611eb6575b8b919250611e85565b611cd85f93611ec495610c6f565b5f808d83611ead565b87915051611eda81610fa4565b611ee381610fa4565b145f611e7f565b5050505050611e8a565b9250611f008951615cb5565b1592611df6565b9250611f138951615c88565b151592611df0565b03611f2257565b63aaad13f760e01b5f5260045ffd5b90611f3b82610318565b611f4860405191826102c7565b8281528092611f59601f1991610318565b0190602036910137565b80518210156115f05760209160051b010190565b9190825191611f8a8251825190856149f4565b611f9383611f31565b935f5b848110611fa557505050505090565b80611fda611fb560019385611f63565b51611fd5611fc38489611f63565b51611fce8589611f63565b5192614a37565b615073565b611fe48289611f63565b5201611f96565b60ff60019116019060ff82116109b657565b6104056001611feb565b61040561201d61201d61201d61201d6001611feb565b611feb565b61040561201d61201d61201d61201d61201d612007565b60019060ff61205561201d61201d61201d61201d61201d612022565b161c1690565b60041115610fae57565b9081602091031261010957516104058161086c565b906004821015610fae5752565b6001600160a01b0391821681529116602082015261040595909490936120e09391926120d292906120bc90604089019061207a565b606087015260e0608087015260e0860190610408565b9084820360a0860152610408565b9160c081840391015261043b565b5f602094959261213e61210186516100ec565b936080870151966121118861205b565b60a0608060408301519b0151910151916040519a8b998a9889976302e97e7d60e61b895260048901612087565b03926001600160a01b03165af190811561021a575f91612170575b501561216157565b631557c43360e11b5f5260045ffd5b612192915060203d602011612198575b61218a81836102c7565b810190612065565b5f612159565b503d612180565b602081015151915f5b8381106121b55750505050565b806121cf6121c96001936040870151611f63565b51614a4a565b6121dd8260a0870151611f63565b52805f52826020526121fc82808060801b0360405f2054168387614b3b565b016121a8565b602081015151915f5b8381106122185750505050565b8061222c6121c96001936040870151611f63565b61223a8260a0870151611f63565b52805f52826020526122595f838060801b036040822054168387614b3b565b0161220b565b6040519061226c8261028c565b5f6040838281528260208201520152565b9080601f8301121561010957815161229481610318565b926122a260405194856102c7565b81845260208085019260051b82010192831161010957602001905b8282106122ca5750505090565b81518152602091820191016122bd565b81601f82011215610109578051906122f182610399565b926122ff60405194856102c7565b8284526020838301011161010957815f9260208093018386015e8301015290565b9060808282031261010957815160208301519093906001600160401b038111610109578261234f91850161227d565b60408401519093906001600160401b038111610109578361237191830161227d565b60608201519093906001600160401b0381116101095761040592016122da565b939061040595936123ce936123c09260018060a01b03168752602087015260a0604087015260a0860190610408565b908482036060860152610408565b91608081840391015261043b565b90600182018092116109b657565b919082018092116109b657565b916124149061040594928452606060208501526060840190610408565b916040818403910152610408565b9092919261242e61164e565b606061243861225f565b90602084019561244c875151808552611f31565b936080810191825161245d8161205b565b6124668161205b565b61282f575060408101519461247b8551611f31565b936124b28760808a01516124ac61249287516100ec565b6001600160a01b03165f9081526011602052604090205490565b90615022565b9061251c7f00000000000000000000000000000000000000000000000000000000000000005c6124e286516100ec565b907f0000000000000000000000000000000000000000000000000000000000000000905f5260205260405f20905f5260205260405f205c90565b6127af575b6040840151808911612798575061253a889a979a615095565b5f9660208b0198606086019660608c01995b8d5181101561267f57808f888f612563848b611f63565b519061256e82615095565b6125788584611f63565b516126645792611c0e926125ba6125b28794876125ab8760a06125a28260c06125c29e0151611f63565b51930151611f63565b51916150a6565b968792611f63565b525b51611f63565b6125cd838c51611f63565b518210612644578e838f8f908f868f8561263895612632946125ba8361262160019f9e8e61263e9f8f909961260686946126299c6116cd565b61261b612613858a611f63565b5191516100ec565b916150dc565b8a5292611f63565b519251906123ea565b90610c6f565b91614aee565b0161254c565b90612653611155938c51611f63565b516317bc2f2360e11b5f52916116ef565b5050826126786125c29394611c0e93611f63565b51936125bc565b50965097509750979098506126a291995093919361269d85516100ec565b6151b7565b7ffbe5b0d79fb94f1e81c0a92bf86ae9d3a19e9d1bf6202c0d3e75120f65d5d8a5886126ce85516100ec565b936126e98760208801966126e288516100ec565b3391611706565b6126f1615209565b612775575b6127148761270488516100ec565b61270e88516100ec565b9061525e565b61276461273d61249261273161272a8a516100ec565b98516100ec565b9351986111268a61205b565b946127478861205b565b6040516001600160a01b03938416979093169592938493846123f7565b0390a461276f611683565b93929190565b6127938761278388516100ec565b61278d88516100ec565b9061521e565b6126f6565b6331d38e0b60e01b5f52600489905260245260445ffd5b989497939099959196926127c38551614c91565b975f5b845181101561281d57808d612816826128108f8f966127ff916127f56001996127ef848a611f63565b51615073565b611c3a8383611f63565b5161280a8386611f63565b51610c6f565b92611f63565b52016127c6565b5092969a919498959990939750612521565b92946001835161283e8161205b565b6128478161205b565b036128bc576128568751614c08565b604082015195849061286b6060850151614c34565b6128b66128ac60408a019280845260808d0151908d8d6128986128916124928d516100ec565b9251614c91565b926128a6610e168d516100ec565b94614f25565b9092519098611f63565b52612521565b600283516128c98161205b565b6128d28161205b565b03612958576128e18751614c08565b6129508460608401906129056128f78351614c34565b60408a019381855251611f63565b51612911835186611f63565b5261292360808b015192518092611f63565b5161293161249287516100ec565b9061293c8c51614c91565b9261294a610e1689516100ec565b94614cf8565b949096612521565b929450600382516129688161205b565b6129718161205b565b03612a16576129808651614be2565b5f612991610e16610e1684516100ec565b60408381015160808a015160a08601519251632ada38a360e21b8152998a94938593879385936129c693923360048701612391565b03925af192831561021a575f80945f975f916129e7575b5096949096612521565b9295505050612a099195503d805f833e612a0181836102c7565b810190612320565b909691949192905f6129dd565b63137a9a3960e01b5f5260045ffd5b61040561201d61201d61201d61201d61201d61201d612022565b60019060ff612055612a25565b919091604081840312610109578051612a648161086c565b60208201519093906001600160401b03811161010957610405920161227d565b969394612af195612abd612ae3956104059b9995612ad59560018060a01b03168c5260018060a01b031660208c015260408b019061207a565b60608901526101006080890152610100880190610408565b9086820360a0880152610408565b9084820360c0860152610408565b9160e081840391015261043b565b92939691909594958651612b12906100ec565b90608088015192612b228461205b565b60808801518760a08b0151926040519c8d978897632754888d60e01b89526004890197612b4e98612a84565b6001600160a01b039093169203815a5f948591f194851561021a575f905f96612c2f575b50158015612c23575b612c1457612b8b612b9091615356565b151590565b15612c0d57505f5b8351811015612c0757612bab8185611f63565b516060840190612bbc838351611f63565b5111612bcb5750600101612b98565b612bf682612bee81612be8611c0e8a9760206111559a0151611f63565b95611f63565b519251611f63565b51633ef629c960e21b5f52916116ef565b50505090565b9250505090565b6303a6723b60e31b5f5260045ffd5b50845182511415612b7b565b9050612c4e9195503d805f833e612c4681836102c7565b810190612a4c565b94905f612b72565b604051929160808401906001600160401b038211858310176102a757612cdf916040525f855260208501945f8652612cd760408201915f83528360608201965f88528299612cd060208401612cb9815160018060a01b03604087015116906146b9565b86525160608401516001600160a01b0316906146b9565b9052612ecd565b905251614c91565b9052565b612cec82610fa4565b52565b6001600160a01b039091169052565b919091606060c0604051612d11816102ac565b5f81525f60208201528260408201525f838201525f60808201525f60a08201520152805192612d3f84610fa4565b6080604082015193015160c06020835193015193015193612d68612d616102f9565b9687612ce3565b6020860152604085015260608401526080830152612d893360a08401612cef565b60c082015290565b60019060ff61205561201d612022565b90612cec82610fa4565b919060e08101908351612dbd81610fa4565b81526020840151602082015260408401519160e060408301528251809152602061010083019301905f5b818110612e2e5750505060c084606061040595960151606084015260808101516080840152612e1e60a082015160a08501906109c5565b01519060c081840391015261043b565b8251855260209485019490920191600101612de7565b60209192612e71915f604051809681958294635211fa7760e01b8452604060048501526044840190612dab565b6001600160a01b0391821660248401529190910393165af190811561021a575f91612eae575b5015612e9f57565b63e91e17e760e01b5f5260045ffd5b612ec7915060203d6020116121985761218a81836102c7565b5f612e97565b9190918051612edb81610fa4565b612ee481610fa4565b612f295790612f20670de0b6b3a764000093611fce6080612f259501519360a0612f1460c0850151835190611f63565b51930151905190611f63565b614a37565b0490565b61040592612f65612f5f6080611fd59401519460a0612f53602060c0870151930192835190611f63565b51940151905190611f63565b5161536c565b92614a37565b60019060ff612055612022565b91908260409103126101095760208251612f918161086c565b92015190565b9260408093929481519586948593849363283a3d6b60e21b8552612fc76004860191606083526060830190612dab565b6001600160a01b0394851660208301529101919091529190910392165afa90811561021a575f905f9261302b575b501561301c57670de0b5cad2bef000811161300d5790565b6301d1b96560e61b5f5260045ffd5b6314fe5db560e21b5f5260045ffd5b905061304f915060403d604011613056575b61304781836102c7565b810190612f78565b905f612ff5565b503d61303d565b91905f949161306a61164e565b61307261225f565b93805161307e81610fa4565b61308781610fa4565b156133dc575b6020860161309b8151615390565b60206130d1818401986130b4610e16610e168c516100ec565b906040519b8c80948193633964c0c360e11b835260048301613404565b03925af197881561021a575f986133bb575b50876130ee81615390565b82516130f981610fa4565b61310281610fa4565b61333d57506040840151905261314260c083015161313b612f5f61312c6020880193845190611f63565b519260a0870151905190611f63565b90896150a6565b9260808201519584969760a084015180871061332657505b604084019389855161316b906100ec565b906131759161468c565b60600194888651613185906100ec565b9061318f916116cd565b8251825161319c906100ec565b86516131a7906100ec565b8651916131b493856150dc565b9060208501946040019182528452845160608301918c828451906131d791611f63565b51906131e2916123ea565b90516131ed91610c6f565b6131f79184614aee565b602085019182518b8184519061320c91611f63565b519061321791610c6f565b6132219183614aee565b835161322c906100ec565b61323590610ba1565b918051875161324391611f63565b5191608001918251885161325691611f63565b5161326091614647565b875161326c9085611527565b5551835161327991611f63565b519051835161328791611f63565b5161329191614647565b915161329c91611527565b55516132a7906100ec565b92516132b2906100ec565b93516132bd906100ec565b6060928301519151604080518b8152602081018b905290810193909352928201929092526001600160a01b0391821693821692909116907f0874b2d545cb271cdbda4e093020c452328b24af12382ed62c4d00f5c26709db90608090a493929190610118611683565b63e2ea151b60e01b5f52600487905260245260445ffd5b905061337391975061336a606085015161336381670de0b6b3a764000081810391100290565b908361540e565b908187526123ea565b956133a061338760c0840151855190611f63565b5161339860a0850151865190611f63565b51908961542e565b92608082015195849760a0840151808711613326575061315a565b6133d591985060203d6020116102135761020581836102c7565b965f6130e3565b602086016133fd6133f38251606087015190615073565b8088528251610c6f565b905261308d565b906020610405928181520190612dab565b60019060ff61205561201d61201d612022565b6101a06101606104059360208452613444602085018251612da1565b613456602082015160408601906109c5565b613468604082015160608601906109c5565b60608101516080850152608081015160a085015260a081015160c085015260c081015160e085015260e08101516101008501526101008101516101208501526134bb6101208201516101408601906109c5565b6134cd610140820151838601906109c5565b01519161018080820152019061043b565b939590969294919486516134f181610fa4565b6134fa81610fa4565b6136ef57604083015188905b88519461351286610fa4565b60408a0151613520906100ec565b9a60608b015161352f906100ec565b95608001918251815161354191611f63565b519251906020015161355291611f63565b519260208c0151613562906100ec565b9660c08d015198613571610308565b9e8f9161357e9083612ce3565b61358b9060208301612cef565b6040019061359891612cef565b60608d015260808c015260a08b015260c08a015260e0890152856101008901526101208801906135c791612cef565b6135d5906101408801612cef565b6101608601526040516318b6eb5560e01b815294859081906135fa9060048301613428565b6001600160a01b039093169203815a6040945f91f193841561021a575f905f956136cb575b50156136bc57612b8b61363191615356565b156136b65750805161364281610fa4565b61364b81610fa4565b15806136a9575b801561367e575b613661575090565b60a0015163cc0e4a9960e01b5f5261115591600452602452604490565b506001815161368c81610fa4565b61369581610fa4565b148015613659575060a08101518211613659565b5060a08101518210613652565b91505090565b630568a77b60e21b5f5260045ffd5b90506136e791945060403d6040116130565761304781836102c7565b93905f61361f565b60408301519780613506565b6001600160a01b039081165f818152600e602052604090205492821692909116829003613726575050565b6336b18d0960e01b5f5260045260245260445ffd5b907f0000000000000000000000000000000000000000000000000000000000000000116137655750565b6318fe738560e01b5f9081526001600160a01b0391909116600452602490fd5b81810392915f1380158285131691841216176109b657565b9081526001600160a01b03909116602082015260400190565b9190915f83820193841291129080158216911516176109b657565b9390916137dd85610fa4565b84158015613ae45761381260206137f387610c61565b6040518093819263ef8b30f760e01b8352600483019190602083019252565b03816001600160a01b0387165afa801561021a57613837915f91613ac5575b50610c61565b94955b61384383610bec565b549161384d615209565b613abd579187939187936138618360801c90565b918583106138b9575050508361389a8261389561011897613890886138896138ab9860801c90565b0393614ae2565b6123ea565b614647565b96876138a585610bec565b5561468c565b6001600160a01b03166116cd565b909294506138c8919550610fa4565b156139b5576138f06138eb6138dd83856155f1565b6138e68a614711565b6137b6565b6154e7565b6001600160a01b038216926139068285896155c8565b60206040518095636e553f6560e01b8252815f8161392830896004840161379d565b03925af1801561021a57610118956139908a6139858b61398a8f9798613985896138906138ab9c889f8f8661389a9e613980935f91613996575b50998a925b6001600160a01b03169061397b8282615503565b615666565b614ae2565b610c6f565b946123ea565b90614647565b6139af915060203d6020116102135761020581836102c7565b5f613962565b6139d36138eb6139c58385615442565b6139ce89614711565b613785565b60405163b3d7f6b960e01b81526004810182905290926001600160a01b03831691602081602481865afa801561021a57613a16915f91613a9e575b5083896155c8565b602060405180936394bf804d60e01b8252815f81613a38308b6004840161379d565b03925af193841561021a57610118956139908a6139858461398a8f976139858f916138908b91889f8f9c6138ab9f9d6139809261389a9f5f91613a7f575b50978891613967565b613a98915060203d6020116102135761020581836102c7565b5f613a76565b613ab7915060203d6020116102135761020581836102c7565b5f613a0e565b509093505050565b613ade915060203d6020116102135761020581836102c7565b5f613831565b613b116020613af2876123dc565b6040518093819263b3d7f6b960e01b8352600483019190602083019252565b03816001600160a01b0387165afa801561021a57613b36915f91613b3c575b506123dc565b9561383a565b613b55915060203d6020116102135761020581836102c7565b5f613b30565b9081526001600160a01b0391821660208201529116604082015260600190565b9390613b8685610fa4565b8415908115613dd257613bbc6020613b9d87610c61565b6040518093819263266d6a8360e11b8352600483019190602083019252565b03816001600160a01b0389165afa801561021a57613be0915f91613ac55750610c61565b94955b613bec85610bec565b5492613bf6615209565b613dca578692918891613c0886614ae2565b91858310613c575750505080613c3785613990613c529461389088613c2f6101189b614ae2565b039360801c90565b9687613c4282610bec565b555b6001600160a01b031661468c565b6116cd565b909250613c65919450610fa4565b15613d2b57613c7a6138eb6138dd8786615442565b604051635d043b2960e11b81529260208480613c9b30808760048501613b5b565b03815f6001600160a01b038c165af1801561021a5761011895613990846139858d613890613cf48f8f8c859b839f613c529e61398594613cfb9e613890935f91613d0c575b509485915b6001600160a01b0316906156b6565b9560801c90565b9687613d0682610bec565b55613c44565b613d25915060203d6020116102135761020581836102c7565b5f613ce0565b613d3b6138eb6139c587866155f1565b604051632d182be560e21b81529060208280613d5c30808660048501613b5b565b03815f6001600160a01b038c165af191821561021a5761011895613990856139858d613890613cf48f8f8a829e61389061398593613c529f9e899f613cfb9f5f91613dab575b509b8c92613ce5565b613dc4915060203d6020116102135761020581836102c7565b5f613da2565b509193505050565b613dff6020613de0876123dc565b60405180938192630a28a47760e01b8352600483019190602083019252565b03816001600160a01b0389165afa801561021a57613e23915f91613b3c57506123dc565b95613be3565b805c90600182018092116109b6575d565b905f5260205260405f20905f52602052600160405f205d565b9190825191613e668251825190856149f4565b613e6f83611f31565b935f5b848110613e8157505050505090565b80670de0b6b3a7640000613eb3613e9a60019486611f63565b51612f20613ea8858a611f63565b51611fce868a611f63565b04613ebe8289611f63565b5201613e72565b60019060ff61205561201d61201d61201d612022565b60051115610fae57565b906005821015610fae5752565b6001600160a01b0391821681529116602082015261040595909490936120e0939092613f389190613f27906040890190613ee5565b60e0606088015260e0870190610408565b91608086015284820360a0860152610408565b925f602094959295613f9d613f6086516100ec565b93608087015196613f7088613edb565b60a060806060830151930151910151916040519a8b998a9889976345421ec760e01b895260048901613ef2565b03926001600160a01b03165af190811561021a575f91613fcf575b5015613fc057565b6305975b2960e11b5f5260045ffd5b613fe8915060203d6020116121985761218a81836102c7565b5f613fb8565b906080828203126101095781516001600160401b038111610109578161401591840161227d565b92602083015192604081015160018060401b038111610109578361237191830161227d565b936140636123ce9361040597959360018060a01b0316875260a0602088015260a0870190610408565b9160408601528482036060860152610408565b90919261408161164e565b60609261408c61225f565b9060208401956140a0875151808552611f31565b91608081019182516140b181613edb565b6140ba81613edb565b6142ab57506060810151926140cf8551611f31565b936140ec8160808a01516140e661249287516100ec565b90615a85565b905b60608401518082106142925750614107819a979a615095565b5f9660208b0198604086019660608c01995b8d5181101561420257808f888f614130848b611f63565b519061413b82615095565b6141458584611f63565b516141ee5792611c0e926125ba6125b287948761416f8760a06125a28260c06141769e0151611f63565b519161542e565b614181838c51611f63565b5182116141ce578e838f8f908f868f85612638956141c0946125ba8361262160019f9e8e6141c89f8f909961260686946141ba9c61468c565b516123ea565b905190610c6f565b01614119565b906141dd611155938c51611f63565b516323b6a17960e21b5f52916116ef565b5050826126786141769394611c0e93611f63565b509650985098919a50985061422091955093919361269d85516100ec565b7fa26a52d8d53702bba7f137907b8e1f99ff87f6d450144270ca25e72481cca8718461424c85516100ec565b936142668a602088019661426088516100ec565b90615acc565b61276461428861249261427c61272a8a516100ec565b9351986111268a613edb565b9461274788613edb565b638d261d5d60e01b5f5261115591600452602452604490565b92600383516142b981613edb565b6142c281613edb565b036142e2576142d18751615a5c565b6142db8451611f31565b935f6140ee565b600183516142ef81613edb565b6142f881613edb565b03614351576143078751614c08565b61434a84614319836040860151615822565b60808901519061432c61249286516100ec565b6143368b51614c91565b91614344610e1688516100ec565b9361583d565b94906140ee565b6002835161435e81613edb565b61436781613edb565b036143c6576143768751614c08565b606082015161438485614c34565b90604087018281526143c06128ac889460808d0151908d866143ac6128916124928d516100ec565b926143ba610e168d516100ec565b94615736565b526140ee565b929650600482516143d681613edb565b6143df81613edb565b03614481576143ee8651615706565b5f6143ff610e16610e1684516100ec565b6060830151906080890151918360a08601519b6144336040519d8e968795869463e4c4366360e01b8652336004870161403a565b03925af192831561021a575f80945f995f91614452575b5098946140ee565b92955050506144749197503d805f833e61446c81836102c7565b810190613fee565b909891949192905f61444a565b636c02b39560e01b5f5260045ffd5b60019060ff61205561201d61201d61201d61201d612022565b6001600160a01b039182168152911660208201526104059690959094612af19490939192614504926144f6916144e39060408b0190613ee5565b61010060608a0152610100890190610408565b908782036080890152610408565b9160a086015284820360c0860152610408565b929390969196959495865161452b906100ec565b9060808801519261453b84613edb565b608088015160a08a015191886040519c8d9788976325da41f360e21b89526004890197614567986144a9565b6001600160a01b039093169203815a5f948591f194851561021a575f905f96614628575b5015801561461c575b61460d57612b8b6145a491615356565b15612c0d57505f5b8351811015612c07576145bf8185611f63565b5160408401906145d0838351611f63565b51106145df57506001016145ac565b6145fc82612bee81612be8611c0e8a9760206111559a0151611f63565b5163677d1d7d60e11b5f52916116ef565b63e124916560e01b5f5260045ffd5b50845182511415614594565b905061463f9195503d805f833e612c4681836102c7565b94905f61458b565b906001600160801b038211801561467c575b61466d5760801b9081018091116109b65790565b6389560ca160e01b5f5260045ffd5b506001600160801b038111614659565b61469861011892614711565b90614734565b6001600160a01b039091168152602081019190915260400190565b905f5b82518110156146f0576001600160a01b036146d78285611f63565b51166001600160a01b038316146136b6576001016146bc565b5063ddef98d760e01b5f9081526001600160a01b0391909116600452602490fd5b6001600160ff1b0381116147225790565b63123baf0360e11b5f5260045260245ffd5b81156147f0577f00000000000000000000000000000000000000000000000000000000000000009060018060a01b0316805f528160205261477a60405f205c93846137b6565b92836147be57505f197f0000000000000000000000000000000000000000000000000000000000000000805c9182019182116109b6575d5b5f5260205260405f205d565b6147b2576147eb7f0000000000000000000000000000000000000000000000000000000000000000613e29565b6147b2565b5050565b9091906001600160a01b0380841690831603614812575050505f1990565b6001600160a01b03165f9081526010602052604090206148359261177691610c1e565b5490565b90604051918281549182825260208201905f5260205f20925f5b818110614868575050610118925003836102c7565b84546001600160a01b0316835260019485019487945060209093019201614853565b9061489482610318565b6148a160405191826102c7565b82815280926148b2601f1991610318565b01905f5b8281106148c257505050565b6020906148cd61225f565b828285010152016148b6565b906040516148e68161028c565b604060ff8294548181166148f981610fa4565b8452600881901c6001600160a01b0316602085015260a81c161515910152565b60608101805151935f5b85811061493257505050505050565b80614946611c0e6001936020880151611f63565b6149596149538389611527565b54614ae2565b614964838751611f63565b5181116149a3575b505061499261497c828651611f63565b5161498b836080890151611f63565b5190614647565b61499c8288611527565b5501614923565b6149e56149ec916149df6149b78589610c1e565b54916149d96149c68460801c90565b916149d2898d51611f63565b5190610c6f565b906123ea565b90615d19565b9185610c1e565b555f8061496c565b81148015929190614a08575b5050611f2257565b141590505f80614a00565b90670de0b6b3a7640000820291808304670de0b6b3a764000014901517156109b657565b818102929181159184041417156109b657565b8051614a5581610fa4565b614a5e81610fa4565b80614a71575050670de0b6b3a764000090565b80614a7d600192610fa4565b03614ad3576020614a95610e168260049401516100ec565b6040516333cd77e760e11b815292839182905afa90811561021a575f91614aba575090565b610405915060203d6020116102135761020581836102c7565b636fa2831960e11b5f5260045ffd5b6001600160801b031690565b919081614aff826060860151611f63565b526080670de0b6b3a7640000614b32612cec94612f20614b238660c08a0151611f63565b51611fce8760a08b0151611f63565b04930151611f63565b9282614b4b836060870151611f63565b52614b5581610fa4565b614bda576002915b614b6b8260c0860151611f63565b51614b7a8360a0870151611f63565b519380600114614bbb57600214614b9f57634e487b7160e01b5f52605160045260245ffd5b612cec93611fd5614bb292608094614a37565b935b0151611f63565b50612cec93614bcf614bd492608094614a37565b615da0565b93614bb4565b600191614b5d565b60019060ff614bef612007565b161c1615614bf957565b63033c2a5760e61b5f5260045ffd5b60019060ff614c1c61201d61201d85611feb565b161c16614c2557565b63353d5de760e21b5f5260045ffd5b80519081905f5b828110614c5d575050811015614c4e5790565b631f91af7760e21b5f5260045ffd5b614c678183611f63565b51614c75575b600101614c3b565b928203614c825782614c6d565b636b8c3be560e01b5f5260045ffd5b62ffffff9060ff614ca361201d612a25565b161c1664174876e80081029080820464174876e80014901517156109b65790565b91906020614cdb5f92604086526040860190610408565b930152565b91906020614cdb600192604086526040860190610408565b9094939291815194614d0986611f31565b915f5b878110614edc5750614d229061280a8985611f63565b614d2c8884611f63565b52604051631309bd3d60e31b8152946001600160a01b038216929060208780614d588860048301614cc4565b0381875afa96871561021a575f97614ebb575b50604051631309bd3d60e31b81529060208280614d8b8660048301614cc4565b0381885afa95861561021a57614dfa614de78c6149d2614de0602099614dd98f61398598614e359f614dcd8893614dd492614e009f5f91614e9c575b506153c7565b8095615d2c565b611f63565b5190615073565b9188611f63565b92670de0b6b3a764000081810391100290565b826153c7565b92614e0f8461280a8b85611f63565b614e198a84611f63565b526040518080968194631309bd3d60e31b835260048301614ce0565b03915afa90811561021a57614e7095614e6a935f93614e73575b50614e5c614e6391611f31565b9788611f63565b5283610c6f565b9061540e565b91565b614e63919350614e94614e5c9160203d6020116102135761020581836102c7565b939150614e4f565b6020614eb592503d6020116102135761020581836102c7565b5f614dc7565b614ed591975060203d6020116102135761020581836102c7565b955f614d6b565b80614ef2614eec60019388611f63565b51610c61565b614efc8287611f63565b5201614d0c565b614f1b60409295949395606083526060830190610408565b9460208201520152565b9094918303918383116109b6576020614f6991614f4286866153c7565b90614f4d8282615d2c565b604051808095819462b5059f60e51b83528c8960048501614f03565b03916001600160a01b03165afa801561021a57614e7095611fd588614fbc93614fc598614fcc965f92614fd2575b50614faa8261280a61398594958b611f63565b98614fb58d8a611f63565b519061540e565b93849251611f31565b9586611f63565b52610c6f565b613985925061280a93614ff6614faa9260203d6020116102135761020581836102c7565b93509350614f97565b634e487b7160e01b5f52601260045260245ffd5b811561501d570490565b614fff565b90929161502f8251611f31565b915f5b815181101561506c5761504f836150498385611f63565b51614a37565b90861561501d5786600192046150658287611f63565b5201615032565b5050509150565b9061507d91614a37565b6001670de0b6b3a76400005f19830104019015150290565b8061509d5750565b61011890615390565b916150b091614a37565b90670de0b6b3a7640000810290808204670de0b6b3a764000014901517156109b657811561501d570490565b91949290945f955f95816150f1575050505050565b8497506125ab61510a8260c06151169697980151611f63565b519160a08a0151611f63565b946151218151615cb5565b1561512e575b808061171e565b62ffffff919294505161513f615c56565b1c1664174876e80081029080820464174876e80014901517156109b6576151669085615da0565b928484116151a8578061177661519961518561519f9461177687610bd3565b546151938861389083614ae2565b90615db3565b93610bd3565b555f8080615127565b634c69ac5d60e01b5f5260045ffd5b6001600160a01b03165f908152600560205260408120919291905b6060840151805182101561520257906151f061497c82600194611f63565b815f528360205260405f2055016151d2565b5050509050565b3215806152135790565b506001600754161590565b903261524f576152409160018060a01b03165f52600f60205260405f20610c1e565b80549182018092116109b65755565b6333fc255960e11b5f5260045ffd5b90916001600160a01b03831691821561197a5761527e8461177683610bba565b54808311615340578290036152968561177684610bba565b556152aa826152a483610c05565b54610c6f565b6152b381615dc1565b6152bc82610c05565b556001600160a01b031690813b15610109576040516323de665160e01b81526001600160a01b039490941660048501525f6024850181905260448501829052935f80516020615fe98339815191529161532d91868160648183895af161533257506040519081529081906020820190565b0390a4565b8061180a88611810936102c7565b63391434e360e21b5f52611155908390866116ef565b60019060ff61205561201d61201d61201d612007565b670de0b6b3a76400008082040281036153825790565b600181018091116109b65790565b7f0000000000000000000000000000000000000000000000000000000000000000116153b857565b6303da9a2360e31b5f5260045ffd5b9080156153ff57670de0b6b3a7640000820291808304670de0b6b3a764000014901517156109b6576001905f19830104019015150290565b630a0c22c760e01b5f5260045ffd5b82156153ff5760019161542091614a37565b915f19830104019015150290565b906104059261543c91614a37565b906153c7565b9061544f8260801c614711565b5f929091906001600160801b031680615475575b505060029161547191613785565b0590565b604051630a28a47760e01b815260048101919091529250602090839060249082906001600160a01b03165afa90811561021a576154bf615471926002945f916154c8575b50614711565b92819250615463565b6154e1915060203d6020116102135761020581836102c7565b5f6154b9565b5f81126154f15790565b635467221960e11b5f5260045260245ffd5b6040519060205f81840163095ea7b360e01b81526155378561552984896024840161469e565b03601f1981018752866102c7565b84519082855af15f51903d8161559c575b501590505b61555657505050565b60405163095ea7b360e01b60208201526001600160a01b039390931660248401525f60448085019190915283526101189261099f906155966064826102c7565b82615b9c565b151590506155bc575061554d6001600160a01b0382163b15155b5f615548565b600161554d91146155b6565b91909160205f60405193615537856155298582019363095ea7b360e01b8552896024840161469e565b906156046001600160801b038316614711565b905f9260801c8061561d57505060029161547191613785565b60405163b3d7f6b960e01b815260048101919091529250602090839060249082906001600160a01b03165afa90811561021a576154bf615471926002945f916154c85750614711565b6001600160a01b0381165f908152600860205260409020549093928103919082116109b6576001600160a01b0381165f908152600860205260409020549283019283106109b65761011893615de0565b6001600160a01b0381165f908152600860205260409020549093928101919082106109b6576001600160a01b0381165f908152600860205260409020549283039283116109b65761011893615de0565b60019060ff61571d61201d61201d61201d86611feb565b161c161561572757565b63121db02f60e21b5f5260045ffd5b909460206157488561577a96956123ea565b9161575385846153c7565b9061575e8282615f52565b604051808098819462b5059f60e51b83528c8960048501614f03565b03916001600160a01b03165afa93841561021a57614e7095613985614dfa614de786614fc5998c996157e5988b614fbc995f946157eb575b50906157d96157d26157cb6157e0946126329798611f63565b5187610c6f565b9d8d611f63565b5190614a37565b615013565b526123ea565b61263294506157d26157cb6157e094936158166157d99460203d6020116102135761020581836102c7565b975093945050506157b2565b906020808351615833845182611f1b565b60051b930191015e565b91929093825161584c81611f31565b9261585682611f31565b965f5b838110615a21575050604051631309bd3d60e31b8152946001600160a01b03841693906020878061588d8460048301614cc4565b0381885afa96871561021a575f97615a00575b50604051631309bd3d60e31b8152602081806158bf8a60048301614ce0565b0381895afa90811561021a57886157e06158eb936158e4935f916159e1575b50614a13565b8093615f52565b5f5b84811061596457505050505061591b916020916040518080958194631309bd3d60e31b835260048301614ce0565b03915afa92831561021a5761593f83614e70956157e0945f91615945575b50610c6f565b90614a37565b61595e915060203d6020116102135761020581836102c7565b5f615939565b8061597b61597460019385611f63565b5185615da0565b8581615987848c611f63565b5111615996575b5050016158ed565b6159ab916159a4848c611f63565b5103615073565b6159b5828d611f63565b526159cf8b6149d2836159c8818d611f63565b5192611f63565b6159d9828a611f63565b525f8561598e565b6159fa915060203d6020116102135761020581836102c7565b5f6158de565b615a1a91975060203d6020116102135761020581836102c7565b955f6158a0565b80615a4b615a46615a346001948b611f63565b51615a3f8487611f63565b51906123ea565b610c61565b615a558289611f63565b5201615859565b60019060ff615a6c61201d612007565b161c1615615a7657565b63efe0265d60e01b5f5260045ffd5b9291615a918451611f31565b935f5b8151811015615ac65780615ab58585615aaf60019587611f63565b5161540e565b615abf8289611f63565b5201615a94565b50505050565b6001600160a01b03821692908315615b8957615af182615aeb83610c05565b546123ea565b615afe8461177684610bba565b838154019055615b0d81615dc1565b615b1682610c05565b5560018060a01b0316925f845f80516020615fe983398151915260405180615b4387829190602083019252565b0390a4823b15610109576040516323de665160e01b81525f600482018190526001600160a01b039093166024820152604481019190915291829081838160648101611932565b63ec442f0560e01b5f52611155836109d2565b905f602091828151910182855af115610c42575f513d615beb57506001600160a01b0381163b155b615bcb5750565b635274afe760e01b5f9081526001600160a01b0391909116600452602490fd5b60011415615bc4565b9064ffffffffff615c0482611f31565b92615c0d615fe0565b1c165f5b828110615c1e5750505090565b60058102818104600514821517156109b65782601f911c1690604d82116109b657600191600a0a615c4f8287611f63565b5201615c11565b60ff615c6361201d612a25565b16601881018091116109b65790565b615c7a615c56565b601881018091116109b65790565b62ffffff90615c95615c72565b1c1664174876e80081029080820464174876e80014901517156109b65790565b60019060ff61205561201d84611feb565b9093925f94615cd9846080850151611f63565b51818111615ce8575050505050565b615d0e95965091615cfd916125ab9303615073565b9260a06125a28260c0860151611f63565b905f8080808061171e565b61040591906001600160801b0316614647565b604051635b3bfd2b60e11b81529190602090839060049082906001600160a01b03165afa91821561021a575f92615d7f575b50818110615d6a575050565b63718e4adf60e11b5f5260045260245260445ffd5b615d9991925060203d6020116102135761020581836102c7565b905f615d5e565b670de0b6b3a764000091612f2591614a37565b906104059160801c90614647565b620f42408110615dce5750565b6334e3483f60e21b5f5260045260245ffd5b6040516370a0823160e01b8152919260208380615e0030600483016109e3565b03816001600160a01b0386165afa92831561021a575f93615ed3575b50808310615eb45750615e2e90610b6f565b556040516370a0823160e01b8152916001600160a01b03821660208480615e5830600483016109e3565b0381845afa93841561021a575f94615e93575b50818410615e7e5750506115ed90610b6f565b631149424d60e01b5f526111559392506116ef565b615ead91945060203d6020116102135761020581836102c7565b925f615e6b565b631c6a537560e01b5f52611155939091506001600160a01b03166116ef565b615eed91935060203d6020116102135761020581836102c7565b915f615e1c565b90615f185750805115615f0957805190602001fd5b63d6bda27560e01b5f5260045ffd5b81511580615f49575b615f29575090565b639996b31560e01b5f9081526001600160a01b0391909116600452602490fd5b50803b15615f21565b60405163273c1adf60e01b81529190602090839060049082906001600160a01b03165afa91821561021a575f92615fa5575b50818111615f90575050565b630fa2583760e21b5f5260045260245260445ffd5b615fbf91925060203d6020116102135761020581836102c7565b905f615f84565b9063ffffffff8091169116019063ffffffff82116109b657565b615c7a615c7256fed1398bee19313d6bf672ccb116e51f4a1a947e91c757907f51fbb5b5e56c698f9b779b17422d0df92223018b32b4d1fa46e071723d6817e2486d003becc55f00a2646970667358221220fb0ffcd9662585a427568ec6cdbe5fd50bd394fe7da4e561e94eaf3bc0a5494364736f6c634300081a0033",
  "linkReferences": {},
  "deployedLinkReferences": {}
}