{
  "_format": "hh-sol-artifact-1",
  "contractName": "VaultAdmin",
  "sourceName": "contracts/_VaultAdmin.sol",
  "abi": [
    {
      "inputs": [
        {
          "internalType": "contract IVault",
          "name": "mainVault",
          "type": "address"
        },
        {
          "internalType": "uint32",
          "name": "pauseWindowDuration",
          "type": "uint32"
        },
        {
          "internalType": "uint32",
          "name": "bufferPeriodDuration",
          "type": "uint32"
        },
        {
          "internalType": "uint256",
          "name": "minTradeAmount",
          "type": "uint256"
        },
        {
          "internalType": "uint256",
          "name": "minWrapAmount",
          "type": "uint256"
        }
      ],
      "stateMutability": "nonpayable",
      "type": "constructor"
    },
    {
      "inputs": [],
      "name": "AfterAddLiquidityHookFailed",
      "type": "error"
    },
    {
      "inputs": [],
      "name": "AfterInitializeHookFailed",
      "type": "error"
    },
    {
      "inputs": [],
      "name": "AfterRemoveLiquidityHookFailed",
      "type": "error"
    },
    {
      "inputs": [],
      "name": "AfterSwapHookFailed",
      "type": "error"
    },
    {
      "inputs": [],
      "name": "AmountGivenZero",
      "type": "error"
    },
    {
      "inputs": [
        {
          "internalType": "contract IERC20",
          "name": "tokenIn",
          "type": "address"
        },
        {
          "internalType": "uint256",
          "name": "amountIn",
          "type": "uint256"
        },
        {
          "internalType": "uint256",
          "name": "maxAmountIn",
          "type": "uint256"
        }
      ],
      "name": "AmountInAboveMax",
      "type": "error"
    },
    {
      "inputs": [
        {
          "internalType": "contract IERC20",
          "name": "tokenOut",
          "type": "address"
        },
        {
          "internalType": "uint256",
          "name": "amountOut",
          "type": "uint256"
        },
        {
          "internalType": "uint256",
          "name": "minAmountOut",
          "type": "uint256"
        }
      ],
      "name": "AmountOutBelowMin",
      "type": "error"
    },
    {
      "inputs": [],
      "name": "BalanceNotSettled",
      "type": "error"
    },
    {
      "inputs": [],
      "name": "BalanceOverflow",
      "type": "error"
    },
    {
      "inputs": [],
      "name": "BeforeAddLiquidityHookFailed",
      "type": "error"
    },
    {
      "inputs": [],
      "name": "BeforeInitializeHookFailed",
      "type": "error"
    },
    {
      "inputs": [],
      "name": "BeforeRemoveLiquidityHookFailed",
      "type": "error"
    },
    {
      "inputs": [],
      "name": "BeforeSwapHookFailed",
      "type": "error"
    },
    {
      "inputs": [
        {
          "internalType": "uint256",
          "name": "amountIn",
          "type": "uint256"
        },
        {
          "internalType": "uint256",
          "name": "maxAmountIn",
          "type": "uint256"
        }
      ],
      "name": "BptAmountInAboveMax",
      "type": "error"
    },
    {
      "inputs": [
        {
          "internalType": "uint256",
          "name": "amountOut",
          "type": "uint256"
        },
        {
          "internalType": "uint256",
          "name": "minAmountOut",
          "type": "uint256"
        }
      ],
      "name": "BptAmountOutBelowMin",
      "type": "error"
    },
    {
      "inputs": [
        {
          "internalType": "contract IERC4626",
          "name": "wrappedToken",
          "type": "address"
        }
      ],
      "name": "BufferAlreadyInitialized",
      "type": "error"
    },
    {
      "inputs": [
        {
          "internalType": "contract IERC4626",
          "name": "wrappedToken",
          "type": "address"
        }
      ],
      "name": "BufferNotInitialized",
      "type": "error"
    },
    {
      "inputs": [],
      "name": "BufferSharesInvalidOwner",
      "type": "error"
    },
    {
      "inputs": [],
      "name": "BufferSharesInvalidReceiver",
      "type": "error"
    },
    {
      "inputs": [
        {
          "internalType": "uint256",
          "name": "totalSupply",
          "type": "uint256"
        }
      ],
      "name": "BufferTotalSupplyTooLow",
      "type": "error"
    },
    {
      "inputs": [],
      "name": "CannotReceiveEth",
      "type": "error"
    },
    {
      "inputs": [],
      "name": "CannotSwapSameToken",
      "type": "error"
    },
    {
      "inputs": [],
      "name": "CodecOverflow",
      "type": "error"
    },
    {
      "inputs": [],
      "name": "DoesNotSupportAddLiquidityCustom",
      "type": "error"
    },
    {
      "inputs": [],
      "name": "DoesNotSupportDonation",
      "type": "error"
    },
    {
      "inputs": [],
      "name": "DoesNotSupportRemoveLiquidityCustom",
      "type": "error"
    },
    {
      "inputs": [],
      "name": "DoesNotSupportUnbalancedLiquidity",
      "type": "error"
    },
    {
      "inputs": [],
      "name": "DynamicSwapFeeHookFailed",
      "type": "error"
    },
    {
      "inputs": [
        {
          "internalType": "address",
          "name": "spender",
          "type": "address"
        },
        {
          "internalType": "uint256",
          "name": "allowance",
          "type": "uint256"
        },
        {
          "internalType": "uint256",
          "name": "needed",
          "type": "uint256"
        }
      ],
      "name": "ERC20InsufficientAllowance",
      "type": "error"
    },
    {
      "inputs": [
        {
          "internalType": "address",
          "name": "sender",
          "type": "address"
        },
        {
          "internalType": "uint256",
          "name": "balance",
          "type": "uint256"
        },
        {
          "internalType": "uint256",
          "name": "needed",
          "type": "uint256"
        }
      ],
      "name": "ERC20InsufficientBalance",
      "type": "error"
    },
    {
      "inputs": [
        {
          "internalType": "address",
          "name": "approver",
          "type": "address"
        }
      ],
      "name": "ERC20InvalidApprover",
      "type": "error"
    },
    {
      "inputs": [
        {
          "internalType": "address",
          "name": "receiver",
          "type": "address"
        }
      ],
      "name": "ERC20InvalidReceiver",
      "type": "error"
    },
    {
      "inputs": [
        {
          "internalType": "address",
          "name": "sender",
          "type": "address"
        }
      ],
      "name": "ERC20InvalidSender",
      "type": "error"
    },
    {
      "inputs": [
        {
          "internalType": "address",
          "name": "spender",
          "type": "address"
        }
      ],
      "name": "ERC20InvalidSpender",
      "type": "error"
    },
    {
      "inputs": [],
      "name": "FeePrecisionTooHigh",
      "type": "error"
    },
    {
      "inputs": [
        {
          "internalType": "contract IERC20",
          "name": "tokenIn",
          "type": "address"
        },
        {
          "internalType": "uint256",
          "name": "amountIn",
          "type": "uint256"
        },
        {
          "internalType": "uint256",
          "name": "maxAmountIn",
          "type": "uint256"
        }
      ],
      "name": "HookAdjustedAmountInAboveMax",
      "type": "error"
    },
    {
      "inputs": [
        {
          "internalType": "contract IERC20",
          "name": "tokenOut",
          "type": "address"
        },
        {
          "internalType": "uint256",
          "name": "amountOut",
          "type": "uint256"
        },
        {
          "internalType": "uint256",
          "name": "minAmountOut",
          "type": "uint256"
        }
      ],
      "name": "HookAdjustedAmountOutBelowMin",
      "type": "error"
    },
    {
      "inputs": [
        {
          "internalType": "uint256",
          "name": "amount",
          "type": "uint256"
        },
        {
          "internalType": "uint256",
          "name": "limit",
          "type": "uint256"
        }
      ],
      "name": "HookAdjustedSwapLimit",
      "type": "error"
    },
    {
      "inputs": [
        {
          "internalType": "address",
          "name": "poolHooksContract",
          "type": "address"
        },
        {
          "internalType": "address",
          "name": "pool",
          "type": "address"
        },
        {
          "internalType": "address",
          "name": "poolFactory",
          "type": "address"
        }
      ],
      "name": "HookRegistrationFailed",
      "type": "error"
    },
    {
      "inputs": [],
      "name": "InvalidAddLiquidityKind",
      "type": "error"
    },
    {
      "inputs": [],
      "name": "InvalidRemoveLiquidityKind",
      "type": "error"
    },
    {
      "inputs": [],
      "name": "InvalidToken",
      "type": "error"
    },
    {
      "inputs": [],
      "name": "InvalidTokenConfiguration",
      "type": "error"
    },
    {
      "inputs": [],
      "name": "InvalidTokenDecimals",
      "type": "error"
    },
    {
      "inputs": [],
      "name": "InvalidTokenType",
      "type": "error"
    },
    {
      "inputs": [
        {
          "internalType": "contract IERC4626",
          "name": "wrappedToken",
          "type": "address"
        }
      ],
      "name": "InvalidUnderlyingToken",
      "type": "error"
    },
    {
      "inputs": [
        {
          "internalType": "uint256",
          "name": "issuedShares",
          "type": "uint256"
        },
        {
          "internalType": "uint256",
          "name": "minIssuedShares",
          "type": "uint256"
        }
      ],
      "name": "IssuedSharesBelowMin",
      "type": "error"
    },
    {
      "inputs": [],
      "name": "MaxTokens",
      "type": "error"
    },
    {
      "inputs": [],
      "name": "MinTokens",
      "type": "error"
    },
    {
      "inputs": [],
      "name": "NotEnoughBufferShares",
      "type": "error"
    },
    {
      "inputs": [
        {
          "internalType": "contract IERC4626",
          "name": "wrappedToken",
          "type": "address"
        },
        {
          "internalType": "uint256",
          "name": "expectedUnderlyingAmount",
          "type": "uint256"
        },
        {
          "internalType": "uint256",
          "name": "actualUnderlyingAmount",
          "type": "uint256"
        }
      ],
      "name": "NotEnoughUnderlying",
      "type": "error"
    },
    {
      "inputs": [
        {
          "internalType": "contract IERC4626",
          "name": "wrappedToken",
          "type": "address"
        },
        {
          "internalType": "uint256",
          "name": "expectedWrappedAmount",
          "type": "uint256"
        },
        {
          "internalType": "uint256",
          "name": "actualWrappedAmount",
          "type": "uint256"
        }
      ],
      "name": "NotEnoughWrapped",
      "type": "error"
    },
    {
      "inputs": [],
      "name": "NotStaticCall",
      "type": "error"
    },
    {
      "inputs": [],
      "name": "NotVaultDelegateCall",
      "type": "error"
    },
    {
      "inputs": [],
      "name": "OutOfBounds",
      "type": "error"
    },
    {
      "inputs": [],
      "name": "PauseBufferPeriodDurationTooLarge",
      "type": "error"
    },
    {
      "inputs": [],
      "name": "PercentageAboveMax",
      "type": "error"
    },
    {
      "inputs": [
        {
          "internalType": "address",
          "name": "pool",
          "type": "address"
        }
      ],
      "name": "PoolAlreadyInitialized",
      "type": "error"
    },
    {
      "inputs": [
        {
          "internalType": "address",
          "name": "pool",
          "type": "address"
        }
      ],
      "name": "PoolAlreadyRegistered",
      "type": "error"
    },
    {
      "inputs": [
        {
          "internalType": "address",
          "name": "pool",
          "type": "address"
        }
      ],
      "name": "PoolInRecoveryMode",
      "type": "error"
    },
    {
      "inputs": [
        {
          "internalType": "address",
          "name": "pool",
          "type": "address"
        }
      ],
      "name": "PoolNotInRecoveryMode",
      "type": "error"
    },
    {
      "inputs": [
        {
          "internalType": "address",
          "name": "pool",
          "type": "address"
        }
      ],
      "name": "PoolNotInitialized",
      "type": "error"
    },
    {
      "inputs": [
        {
          "internalType": "address",
          "name": "pool",
          "type": "address"
        }
      ],
      "name": "PoolNotPaused",
      "type": "error"
    },
    {
      "inputs": [
        {
          "internalType": "address",
          "name": "pool",
          "type": "address"
        }
      ],
      "name": "PoolNotRegistered",
      "type": "error"
    },
    {
      "inputs": [
        {
          "internalType": "address",
          "name": "pool",
          "type": "address"
        }
      ],
      "name": "PoolPauseWindowExpired",
      "type": "error"
    },
    {
      "inputs": [
        {
          "internalType": "address",
          "name": "pool",
          "type": "address"
        }
      ],
      "name": "PoolPaused",
      "type": "error"
    },
    {
      "inputs": [
        {
          "internalType": "uint256",
          "name": "totalSupply",
          "type": "uint256"
        }
      ],
      "name": "PoolTotalSupplyTooLow",
      "type": "error"
    },
    {
      "inputs": [],
      "name": "ProtocolFeesExceedTotalCollected",
      "type": "error"
    },
    {
      "inputs": [],
      "name": "QueriesDisabled",
      "type": "error"
    },
    {
      "inputs": [],
      "name": "QueriesDisabledPermanently",
      "type": "error"
    },
    {
      "inputs": [],
      "name": "QuoteResultSpoofed",
      "type": "error"
    },
    {
      "inputs": [],
      "name": "ReentrancyGuardReentrantCall",
      "type": "error"
    },
    {
      "inputs": [],
      "name": "RouterNotTrusted",
      "type": "error"
    },
    {
      "inputs": [
        {
          "internalType": "uint8",
          "name": "bits",
          "type": "uint8"
        },
        {
          "internalType": "uint256",
          "name": "value",
          "type": "uint256"
        }
      ],
      "name": "SafeCastOverflowedUintDowncast",
      "type": "error"
    },
    {
      "inputs": [
        {
          "internalType": "uint256",
          "name": "value",
          "type": "uint256"
        }
      ],
      "name": "SafeCastOverflowedUintToInt",
      "type": "error"
    },
    {
      "inputs": [
        {
          "internalType": "address",
          "name": "sender",
          "type": "address"
        }
      ],
      "name": "SenderIsNotVault",
      "type": "error"
    },
    {
      "inputs": [],
      "name": "SenderNotAllowed",
      "type": "error"
    },
    {
      "inputs": [],
      "name": "SwapFeePercentageTooHigh",
      "type": "error"
    },
    {
      "inputs": [],
      "name": "SwapFeePercentageTooLow",
      "type": "error"
    },
    {
      "inputs": [
        {
          "internalType": "uint256",
          "name": "amount",
          "type": "uint256"
        },
        {
          "internalType": "uint256",
          "name": "limit",
          "type": "uint256"
        }
      ],
      "name": "SwapLimit",
      "type": "error"
    },
    {
      "inputs": [
        {
          "internalType": "contract IERC20",
          "name": "token",
          "type": "address"
        }
      ],
      "name": "TokenAlreadyRegistered",
      "type": "error"
    },
    {
      "inputs": [
        {
          "internalType": "contract IERC20",
          "name": "token",
          "type": "address"
        }
      ],
      "name": "TokenNotRegistered",
      "type": "error"
    },
    {
      "inputs": [
        {
          "internalType": "address",
          "name": "pool",
          "type": "address"
        },
        {
          "internalType": "address",
          "name": "expectedToken",
          "type": "address"
        },
        {
          "internalType": "address",
          "name": "actualToken",
          "type": "address"
        }
      ],
      "name": "TokensMismatch",
      "type": "error"
    },
    {
      "inputs": [],
      "name": "TradeAmountTooSmall",
      "type": "error"
    },
    {
      "inputs": [],
      "name": "VaultBuffersArePaused",
      "type": "error"
    },
    {
      "inputs": [],
      "name": "VaultIsNotUnlocked",
      "type": "error"
    },
    {
      "inputs": [],
      "name": "VaultNotPaused",
      "type": "error"
    },
    {
      "inputs": [],
      "name": "VaultPauseWindowDurationTooLarge",
      "type": "error"
    },
    {
      "inputs": [],
      "name": "VaultPauseWindowExpired",
      "type": "error"
    },
    {
      "inputs": [],
      "name": "VaultPaused",
      "type": "error"
    },
    {
      "inputs": [
        {
          "internalType": "contract IERC4626",
          "name": "wrappedToken",
          "type": "address"
        }
      ],
      "name": "WrapAmountTooSmall",
      "type": "error"
    },
    {
      "inputs": [],
      "name": "WrongProtocolFeeControllerDeployment",
      "type": "error"
    },
    {
      "inputs": [
        {
          "internalType": "contract IERC4626",
          "name": "wrappedToken",
          "type": "address"
        },
        {
          "internalType": "address",
          "name": "underlyingToken",
          "type": "address"
        }
      ],
      "name": "WrongUnderlyingToken",
      "type": "error"
    },
    {
      "inputs": [],
      "name": "WrongVaultAdminDeployment",
      "type": "error"
    },
    {
      "inputs": [],
      "name": "WrongVaultExtensionDeployment",
      "type": "error"
    },
    {
      "inputs": [],
      "name": "ZeroDivision",
      "type": "error"
    },
    {
      "anonymous": false,
      "inputs": [
        {
          "indexed": true,
          "internalType": "address",
          "name": "pool",
          "type": "address"
        },
        {
          "indexed": false,
          "internalType": "uint256",
          "name": "aggregateSwapFeePercentage",
          "type": "uint256"
        }
      ],
      "name": "AggregateSwapFeePercentageChanged",
      "type": "event"
    },
    {
      "anonymous": false,
      "inputs": [
        {
          "indexed": true,
          "internalType": "address",
          "name": "pool",
          "type": "address"
        },
        {
          "indexed": false,
          "internalType": "uint256",
          "name": "aggregateYieldFeePercentage",
          "type": "uint256"
        }
      ],
      "name": "AggregateYieldFeePercentageChanged",
      "type": "event"
    },
    {
      "anonymous": false,
      "inputs": [
        {
          "indexed": true,
          "internalType": "address",
          "name": "pool",
          "type": "address"
        },
        {
          "indexed": true,
          "internalType": "address",
          "name": "owner",
          "type": "address"
        },
        {
          "indexed": true,
          "internalType": "address",
          "name": "spender",
          "type": "address"
        },
        {
          "indexed": false,
          "internalType": "uint256",
          "name": "value",
          "type": "uint256"
        }
      ],
      "name": "Approval",
      "type": "event"
    },
    {
      "anonymous": false,
      "inputs": [
        {
          "indexed": true,
          "internalType": "contract IAuthorizer",
          "name": "newAuthorizer",
          "type": "address"
        }
      ],
      "name": "AuthorizerChanged",
      "type": "event"
    },
    {
      "anonymous": false,
      "inputs": [
        {
          "indexed": true,
          "internalType": "contract IERC4626",
          "name": "wrappedToken",
          "type": "address"
        },
        {
          "indexed": true,
          "internalType": "address",
          "name": "from",
          "type": "address"
        },
        {
          "indexed": false,
          "internalType": "uint256",
          "name": "burnedShares",
          "type": "uint256"
        }
      ],
      "name": "BufferSharesBurned",
      "type": "event"
    },
    {
      "anonymous": false,
      "inputs": [
        {
          "indexed": true,
          "internalType": "contract IERC4626",
          "name": "wrappedToken",
          "type": "address"
        },
        {
          "indexed": true,
          "internalType": "address",
          "name": "to",
          "type": "address"
        },
        {
          "indexed": false,
          "internalType": "uint256",
          "name": "issuedShares",
          "type": "uint256"
        }
      ],
      "name": "BufferSharesMinted",
      "type": "event"
    },
    {
      "anonymous": false,
      "inputs": [
        {
          "indexed": true,
          "internalType": "address",
          "name": "pool",
          "type": "address"
        },
        {
          "indexed": true,
          "internalType": "address",
          "name": "liquidityProvider",
          "type": "address"
        },
        {
          "indexed": true,
          "internalType": "enum AddLiquidityKind",
          "name": "kind",
          "type": "uint8"
        },
        {
          "indexed": false,
          "internalType": "uint256",
          "name": "totalSupply",
          "type": "uint256"
        },
        {
          "indexed": false,
          "internalType": "uint256[]",
          "name": "amountsAddedRaw",
          "type": "uint256[]"
        },
        {
          "indexed": false,
          "internalType": "uint256[]",
          "name": "swapFeeAmountsRaw",
          "type": "uint256[]"
        }
      ],
      "name": "LiquidityAdded",
      "type": "event"
    },
    {
      "anonymous": false,
      "inputs": [
        {
          "indexed": true,
          "internalType": "contract IERC4626",
          "name": "wrappedToken",
          "type": "address"
        },
        {
          "indexed": false,
          "internalType": "uint256",
          "name": "amountUnderlying",
          "type": "uint256"
        },
        {
          "indexed": false,
          "internalType": "uint256",
          "name": "amountWrapped",
          "type": "uint256"
        },
        {
          "indexed": false,
          "internalType": "bytes32",
          "name": "bufferBalances",
          "type": "bytes32"
        }
      ],
      "name": "LiquidityAddedToBuffer",
      "type": "event"
    },
    {
      "anonymous": false,
      "inputs": [
        {
          "indexed": true,
          "internalType": "address",
          "name": "pool",
          "type": "address"
        },
        {
          "indexed": true,
          "internalType": "address",
          "name": "liquidityProvider",
          "type": "address"
        },
        {
          "indexed": true,
          "internalType": "enum RemoveLiquidityKind",
          "name": "kind",
          "type": "uint8"
        },
        {
          "indexed": false,
          "internalType": "uint256",
          "name": "totalSupply",
          "type": "uint256"
        },
        {
          "indexed": false,
          "internalType": "uint256[]",
          "name": "amountsRemovedRaw",
          "type": "uint256[]"
        },
        {
          "indexed": false,
          "internalType": "uint256[]",
          "name": "swapFeeAmountsRaw",
          "type": "uint256[]"
        }
      ],
      "name": "LiquidityRemoved",
      "type": "event"
    },
    {
      "anonymous": false,
      "inputs": [
        {
          "indexed": true,
          "internalType": "contract IERC4626",
          "name": "wrappedToken",
          "type": "address"
        },
        {
          "indexed": false,
          "internalType": "uint256",
          "name": "amountUnderlying",
          "type": "uint256"
        },
        {
          "indexed": false,
          "internalType": "uint256",
          "name": "amountWrapped",
          "type": "uint256"
        },
        {
          "indexed": false,
          "internalType": "bytes32",
          "name": "bufferBalances",
          "type": "bytes32"
        }
      ],
      "name": "LiquidityRemovedFromBuffer",
      "type": "event"
    },
    {
      "anonymous": false,
      "inputs": [
        {
          "indexed": true,
          "internalType": "address",
          "name": "pool",
          "type": "address"
        }
      ],
      "name": "PoolInitialized",
      "type": "event"
    },
    {
      "anonymous": false,
      "inputs": [
        {
          "indexed": true,
          "internalType": "address",
          "name": "pool",
          "type": "address"
        },
        {
          "indexed": false,
          "internalType": "bool",
          "name": "paused",
          "type": "bool"
        }
      ],
      "name": "PoolPausedStateChanged",
      "type": "event"
    },
    {
      "anonymous": false,
      "inputs": [
        {
          "indexed": true,
          "internalType": "address",
          "name": "pool",
          "type": "address"
        },
        {
          "indexed": false,
          "internalType": "bool",
          "name": "recoveryMode",
          "type": "bool"
        }
      ],
      "name": "PoolRecoveryModeStateChanged",
      "type": "event"
    },
    {
      "anonymous": false,
      "inputs": [
        {
          "indexed": true,
          "internalType": "address",
          "name": "pool",
          "type": "address"
        },
        {
          "indexed": true,
          "internalType": "address",
          "name": "factory",
          "type": "address"
        },
        {
          "components": [
            {
              "internalType": "contract IERC20",
              "name": "token",
              "type": "address"
            },
            {
              "internalType": "enum TokenType",
              "name": "tokenType",
              "type": "uint8"
            },
            {
              "internalType": "contract IRateProvider",
              "name": "rateProvider",
              "type": "address"
            },
            {
              "internalType": "bool",
              "name": "paysYieldFees",
              "type": "bool"
            }
          ],
          "indexed": false,
          "internalType": "struct TokenConfig[]",
          "name": "tokenConfig",
          "type": "tuple[]"
        },
        {
          "indexed": false,
          "internalType": "uint256",
          "name": "swapFeePercentage",
          "type": "uint256"
        },
        {
          "indexed": false,
          "internalType": "uint32",
          "name": "pauseWindowEndTime",
          "type": "uint32"
        },
        {
          "components": [
            {
              "internalType": "address",
              "name": "pauseManager",
              "type": "address"
            },
            {
              "internalType": "address",
              "name": "swapFeeManager",
              "type": "address"
            },
            {
              "internalType": "address",
              "name": "poolCreator",
              "type": "address"
            }
          ],
          "indexed": false,
          "internalType": "struct PoolRoleAccounts",
          "name": "roleAccounts",
          "type": "tuple"
        },
        {
          "components": [
            {
              "internalType": "bool",
              "name": "enableHookAdjustedAmounts",
              "type": "bool"
            },
            {
              "internalType": "bool",
              "name": "shouldCallBeforeInitialize",
              "type": "bool"
            },
            {
              "internalType": "bool",
              "name": "shouldCallAfterInitialize",
              "type": "bool"
            },
            {
              "internalType": "bool",
              "name": "shouldCallComputeDynamicSwapFee",
              "type": "bool"
            },
            {
              "internalType": "bool",
              "name": "shouldCallBeforeSwap",
              "type": "bool"
            },
            {
              "internalType": "bool",
              "name": "shouldCallAfterSwap",
              "type": "bool"
            },
            {
              "internalType": "bool",
              "name": "shouldCallBeforeAddLiquidity",
              "type": "bool"
            },
            {
              "internalType": "bool",
              "name": "shouldCallAfterAddLiquidity",
              "type": "bool"
            },
            {
              "internalType": "bool",
              "name": "shouldCallBeforeRemoveLiquidity",
              "type": "bool"
            },
            {
              "internalType": "bool",
              "name": "shouldCallAfterRemoveLiquidity",
              "type": "bool"
            },
            {
              "internalType": "address",
              "name": "hooksContract",
              "type": "address"
            }
          ],
          "indexed": false,
          "internalType": "struct HooksConfig",
          "name": "hooksConfig",
          "type": "tuple"
        },
        {
          "components": [
            {
              "internalType": "bool",
              "name": "disableUnbalancedLiquidity",
              "type": "bool"
            },
            {
              "internalType": "bool",
              "name": "enableAddLiquidityCustom",
              "type": "bool"
            },
            {
              "internalType": "bool",
              "name": "enableRemoveLiquidityCustom",
              "type": "bool"
            },
            {
              "internalType": "bool",
              "name": "enableDonation",
              "type": "bool"
            }
          ],
          "indexed": false,
          "internalType": "struct LiquidityManagement",
          "name": "liquidityManagement",
          "type": "tuple"
        }
      ],
      "name": "PoolRegistered",
      "type": "event"
    },
    {
      "anonymous": false,
      "inputs": [
        {
          "indexed": true,
          "internalType": "contract IProtocolFeeController",
          "name": "newProtocolFeeController",
          "type": "address"
        }
      ],
      "name": "ProtocolFeeControllerChanged",
      "type": "event"
    },
    {
      "anonymous": false,
      "inputs": [
        {
          "indexed": true,
          "internalType": "address",
          "name": "pool",
          "type": "address"
        },
        {
          "indexed": true,
          "internalType": "contract IERC20",
          "name": "tokenIn",
          "type": "address"
        },
        {
          "indexed": true,
          "internalType": "contract IERC20",
          "name": "tokenOut",
          "type": "address"
        },
        {
          "indexed": false,
          "internalType": "uint256",
          "name": "amountIn",
          "type": "uint256"
        },
        {
          "indexed": false,
          "internalType": "uint256",
          "name": "amountOut",
          "type": "uint256"
        },
        {
          "indexed": false,
          "internalType": "uint256",
          "name": "swapFeePercentage",
          "type": "uint256"
        },
        {
          "indexed": false,
          "internalType": "uint256",
          "name": "swapFeeAmount",
          "type": "uint256"
        }
      ],
      "name": "Swap",
      "type": "event"
    },
    {
      "anonymous": false,
      "inputs": [
        {
          "indexed": true,
          "internalType": "address",
          "name": "pool",
          "type": "address"
        },
        {
          "indexed": false,
          "internalType": "uint256",
          "name": "swapFeePercentage",
          "type": "uint256"
        }
      ],
      "name": "SwapFeePercentageChanged",
      "type": "event"
    },
    {
      "anonymous": false,
      "inputs": [
        {
          "indexed": true,
          "internalType": "address",
          "name": "pool",
          "type": "address"
        },
        {
          "indexed": true,
          "internalType": "address",
          "name": "from",
          "type": "address"
        },
        {
          "indexed": true,
          "internalType": "address",
          "name": "to",
          "type": "address"
        },
        {
          "indexed": false,
          "internalType": "uint256",
          "name": "value",
          "type": "uint256"
        }
      ],
      "name": "Transfer",
      "type": "event"
    },
    {
      "anonymous": false,
      "inputs": [
        {
          "indexed": true,
          "internalType": "contract IERC4626",
          "name": "wrappedToken",
          "type": "address"
        },
        {
          "indexed": false,
          "internalType": "uint256",
          "name": "burnedShares",
          "type": "uint256"
        },
        {
          "indexed": false,
          "internalType": "uint256",
          "name": "withdrawnUnderlying",
          "type": "uint256"
        },
        {
          "indexed": false,
          "internalType": "bytes32",
          "name": "bufferBalances",
          "type": "bytes32"
        }
      ],
      "name": "Unwrap",
      "type": "event"
    },
    {
      "anonymous": false,
      "inputs": [
        {
          "indexed": true,
          "internalType": "address",
          "name": "pool",
          "type": "address"
        },
        {
          "indexed": true,
          "internalType": "bytes32",
          "name": "eventKey",
          "type": "bytes32"
        },
        {
          "indexed": false,
          "internalType": "bytes",
          "name": "eventData",
          "type": "bytes"
        }
      ],
      "name": "VaultAuxiliary",
      "type": "event"
    },
    {
      "anonymous": false,
      "inputs": [
        {
          "indexed": false,
          "internalType": "bool",
          "name": "paused",
          "type": "bool"
        }
      ],
      "name": "VaultBuffersPausedStateChanged",
      "type": "event"
    },
    {
      "anonymous": false,
      "inputs": [
        {
          "indexed": false,
          "internalType": "bool",
          "name": "paused",
          "type": "bool"
        }
      ],
      "name": "VaultPausedStateChanged",
      "type": "event"
    },
    {
      "anonymous": false,
      "inputs": [],
      "name": "VaultQueriesDisabled",
      "type": "event"
    },
    {
      "anonymous": false,
      "inputs": [],
      "name": "VaultQueriesEnabled",
      "type": "event"
    },
    {
      "anonymous": false,
      "inputs": [
        {
          "indexed": true,
          "internalType": "contract IERC4626",
          "name": "wrappedToken",
          "type": "address"
        },
        {
          "indexed": false,
          "internalType": "uint256",
          "name": "depositedUnderlying",
          "type": "uint256"
        },
        {
          "indexed": false,
          "internalType": "uint256",
          "name": "mintedShares",
          "type": "uint256"
        },
        {
          "indexed": false,
          "internalType": "bytes32",
          "name": "bufferBalances",
          "type": "bytes32"
        }
      ],
      "name": "Wrap",
      "type": "event"
    },
    {
      "stateMutability": "payable",
      "type": "fallback"
    },
    {
      "inputs": [
        {
          "internalType": "contract IERC4626",
          "name": "wrappedToken",
          "type": "address"
        },
        {
          "internalType": "uint256",
          "name": "maxAmountUnderlyingInRaw",
          "type": "uint256"
        },
        {
          "internalType": "uint256",
          "name": "maxAmountWrappedInRaw",
          "type": "uint256"
        },
        {
          "internalType": "uint256",
          "name": "exactSharesToIssue",
          "type": "uint256"
        },
        {
          "internalType": "address",
          "name": "sharesOwner",
          "type": "address"
        }
      ],
      "name": "addLiquidityToBuffer",
      "outputs": [
        {
          "internalType": "uint256",
          "name": "amountUnderlyingRaw",
          "type": "uint256"
        },
        {
          "internalType": "uint256",
          "name": "amountWrappedRaw",
          "type": "uint256"
        }
      ],
      "stateMutability": "nonpayable",
      "type": "function"
    },
    {
      "inputs": [],
      "name": "areBuffersPaused",
      "outputs": [
        {
          "internalType": "bool",
          "name": "",
          "type": "bool"
        }
      ],
      "stateMutability": "view",
      "type": "function"
    },
    {
      "inputs": [
        {
          "internalType": "address",
          "name": "pool",
          "type": "address"
        }
      ],
      "name": "collectAggregateFees",
      "outputs": [
        {
          "internalType": "uint256[]",
          "name": "totalSwapFees",
          "type": "uint256[]"
        },
        {
          "internalType": "uint256[]",
          "name": "totalYieldFees",
          "type": "uint256[]"
        }
      ],
      "stateMutability": "nonpayable",
      "type": "function"
    },
    {
      "inputs": [],
      "name": "disableQuery",
      "outputs": [],
      "stateMutability": "nonpayable",
      "type": "function"
    },
    {
      "inputs": [],
      "name": "disableQueryPermanently",
      "outputs": [],
      "stateMutability": "nonpayable",
      "type": "function"
    },
    {
      "inputs": [
        {
          "internalType": "address",
          "name": "pool",
          "type": "address"
        }
      ],
      "name": "disableRecoveryMode",
      "outputs": [],
      "stateMutability": "nonpayable",
      "type": "function"
    },
    {
      "inputs": [],
      "name": "enableQuery",
      "outputs": [],
      "stateMutability": "nonpayable",
      "type": "function"
    },
    {
      "inputs": [
        {
          "internalType": "address",
          "name": "pool",
          "type": "address"
        }
      ],
      "name": "enableRecoveryMode",
      "outputs": [],
      "stateMutability": "nonpayable",
      "type": "function"
    },
    {
      "inputs": [
        {
          "internalType": "bytes4",
          "name": "selector",
          "type": "bytes4"
        }
      ],
      "name": "getActionId",
      "outputs": [
        {
          "internalType": "bytes32",
          "name": "",
          "type": "bytes32"
        }
      ],
      "stateMutability": "view",
      "type": "function"
    },
    {
      "inputs": [
        {
          "internalType": "contract IERC4626",
          "name": "wrappedToken",
          "type": "address"
        }
      ],
      "name": "getBufferAsset",
      "outputs": [
        {
          "internalType": "address",
          "name": "underlyingToken",
          "type": "address"
        }
      ],
      "stateMutability": "view",
      "type": "function"
    },
    {
      "inputs": [
        {
          "internalType": "contract IERC4626",
          "name": "token",
          "type": "address"
        }
      ],
      "name": "getBufferBalance",
      "outputs": [
        {
          "internalType": "uint256",
          "name": "",
          "type": "uint256"
        },
        {
          "internalType": "uint256",
          "name": "",
          "type": "uint256"
        }
      ],
      "stateMutability": "view",
      "type": "function"
    },
    {
      "inputs": [],
      "name": "getBufferMinimumTotalSupply",
      "outputs": [
        {
          "internalType": "uint256",
          "name": "",
          "type": "uint256"
        }
      ],
      "stateMutability": "pure",
      "type": "function"
    },
    {
      "inputs": [
        {
          "internalType": "contract IERC4626",
          "name": "token",
          "type": "address"
        },
        {
          "internalType": "address",
          "name": "user",
          "type": "address"
        }
      ],
      "name": "getBufferOwnerShares",
      "outputs": [
        {
          "internalType": "uint256",
          "name": "shares",
          "type": "uint256"
        }
      ],
      "stateMutability": "view",
      "type": "function"
    },
    {
      "inputs": [],
      "name": "getBufferPeriodDuration",
      "outputs": [
        {
          "internalType": "uint32",
          "name": "",
          "type": "uint32"
        }
      ],
      "stateMutability": "view",
      "type": "function"
    },
    {
      "inputs": [],
      "name": "getBufferPeriodEndTime",
      "outputs": [
        {
          "internalType": "uint32",
          "name": "",
          "type": "uint32"
        }
      ],
      "stateMutability": "view",
      "type": "function"
    },
    {
      "inputs": [
        {
          "internalType": "contract IERC4626",
          "name": "token",
          "type": "address"
        }
      ],
      "name": "getBufferTotalShares",
      "outputs": [
        {
          "internalType": "uint256",
          "name": "shares",
          "type": "uint256"
        }
      ],
      "stateMutability": "view",
      "type": "function"
    },
    {
      "inputs": [],
      "name": "getMaximumPoolTokens",
      "outputs": [
        {
          "internalType": "uint256",
          "name": "",
          "type": "uint256"
        }
      ],
      "stateMutability": "pure",
      "type": "function"
    },
    {
      "inputs": [],
      "name": "getMinimumPoolTokens",
      "outputs": [
        {
          "internalType": "uint256",
          "name": "",
          "type": "uint256"
        }
      ],
      "stateMutability": "pure",
      "type": "function"
    },
    {
      "inputs": [],
      "name": "getMinimumTradeAmount",
      "outputs": [
        {
          "internalType": "uint256",
          "name": "",
          "type": "uint256"
        }
      ],
      "stateMutability": "view",
      "type": "function"
    },
    {
      "inputs": [],
      "name": "getMinimumWrapAmount",
      "outputs": [
        {
          "internalType": "uint256",
          "name": "",
          "type": "uint256"
        }
      ],
      "stateMutability": "view",
      "type": "function"
    },
    {
      "inputs": [],
      "name": "getPauseWindowEndTime",
      "outputs": [
        {
          "internalType": "uint32",
          "name": "",
          "type": "uint32"
        }
      ],
      "stateMutability": "view",
      "type": "function"
    },
    {
      "inputs": [],
      "name": "getPoolMinimumTotalSupply",
      "outputs": [
        {
          "internalType": "uint256",
          "name": "",
          "type": "uint256"
        }
      ],
      "stateMutability": "pure",
      "type": "function"
    },
    {
      "inputs": [],
      "name": "getVaultPausedState",
      "outputs": [
        {
          "internalType": "bool",
          "name": "",
          "type": "bool"
        },
        {
          "internalType": "uint32",
          "name": "",
          "type": "uint32"
        },
        {
          "internalType": "uint32",
          "name": "",
          "type": "uint32"
        }
      ],
      "stateMutability": "view",
      "type": "function"
    },
    {
      "inputs": [
        {
          "internalType": "contract IERC4626",
          "name": "wrappedToken",
          "type": "address"
        },
        {
          "internalType": "uint256",
          "name": "amountUnderlyingRaw",
          "type": "uint256"
        },
        {
          "internalType": "uint256",
          "name": "amountWrappedRaw",
          "type": "uint256"
        },
        {
          "internalType": "uint256",
          "name": "minIssuedShares",
          "type": "uint256"
        },
        {
          "internalType": "address",
          "name": "sharesOwner",
          "type": "address"
        }
      ],
      "name": "initializeBuffer",
      "outputs": [
        {
          "internalType": "uint256",
          "name": "issuedShares",
          "type": "uint256"
        }
      ],
      "stateMutability": "nonpayable",
      "type": "function"
    },
    {
      "inputs": [],
      "name": "isVaultPaused",
      "outputs": [
        {
          "internalType": "bool",
          "name": "",
          "type": "bool"
        }
      ],
      "stateMutability": "view",
      "type": "function"
    },
    {
      "inputs": [
        {
          "internalType": "address",
          "name": "pool",
          "type": "address"
        }
      ],
      "name": "pausePool",
      "outputs": [],
      "stateMutability": "nonpayable",
      "type": "function"
    },
    {
      "inputs": [],
      "name": "pauseVault",
      "outputs": [],
      "stateMutability": "nonpayable",
      "type": "function"
    },
    {
      "inputs": [],
      "name": "pauseVaultBuffers",
      "outputs": [],
      "stateMutability": "nonpayable",
      "type": "function"
    },
    {
      "inputs": [],
      "name": "reentrancyGuardEntered",
      "outputs": [
        {
          "internalType": "bool",
          "name": "",
          "type": "bool"
        }
      ],
      "stateMutability": "view",
      "type": "function"
    },
    {
      "inputs": [
        {
          "internalType": "contract IERC4626",
          "name": "wrappedToken",
          "type": "address"
        },
        {
          "internalType": "uint256",
          "name": "sharesToRemove",
          "type": "uint256"
        },
        {
          "internalType": "uint256",
          "name": "minAmountUnderlyingOutRaw",
          "type": "uint256"
        },
        {
          "internalType": "uint256",
          "name": "minAmountWrappedOutRaw",
          "type": "uint256"
        }
      ],
      "name": "removeLiquidityFromBuffer",
      "outputs": [
        {
          "internalType": "uint256",
          "name": "removedUnderlyingBalanceRaw",
          "type": "uint256"
        },
        {
          "internalType": "uint256",
          "name": "removedWrappedBalanceRaw",
          "type": "uint256"
        }
      ],
      "stateMutability": "nonpayable",
      "type": "function"
    },
    {
      "inputs": [
        {
          "internalType": "contract IERC4626",
          "name": "wrappedToken",
          "type": "address"
        },
        {
          "internalType": "uint256",
          "name": "sharesToRemove",
          "type": "uint256"
        },
        {
          "internalType": "uint256",
          "name": "minAmountUnderlyingOutRaw",
          "type": "uint256"
        },
        {
          "internalType": "uint256",
          "name": "minAmountWrappedOutRaw",
          "type": "uint256"
        },
        {
          "internalType": "address",
          "name": "sharesOwner",
          "type": "address"
        }
      ],
      "name": "removeLiquidityFromBufferHook",
      "outputs": [
        {
          "internalType": "uint256",
          "name": "removedUnderlyingBalanceRaw",
          "type": "uint256"
        },
        {
          "internalType": "uint256",
          "name": "removedWrappedBalanceRaw",
          "type": "uint256"
        }
      ],
      "stateMutability": "nonpayable",
      "type": "function"
    },
    {
      "inputs": [
        {
          "internalType": "contract IAuthorizer",
          "name": "newAuthorizer",
          "type": "address"
        }
      ],
      "name": "setAuthorizer",
      "outputs": [],
      "stateMutability": "nonpayable",
      "type": "function"
    },
    {
      "inputs": [
        {
          "internalType": "contract IProtocolFeeController",
          "name": "newProtocolFeeController",
          "type": "address"
        }
      ],
      "name": "setProtocolFeeController",
      "outputs": [],
      "stateMutability": "nonpayable",
      "type": "function"
    },
    {
      "inputs": [
        {
          "internalType": "address",
          "name": "pool",
          "type": "address"
        },
        {
          "internalType": "uint256",
          "name": "swapFeePercentage",
          "type": "uint256"
        }
      ],
      "name": "setStaticSwapFeePercentage",
      "outputs": [],
      "stateMutability": "nonpayable",
      "type": "function"
    },
    {
      "inputs": [
        {
          "internalType": "address",
          "name": "pool",
          "type": "address"
        }
      ],
      "name": "unpausePool",
      "outputs": [],
      "stateMutability": "nonpayable",
      "type": "function"
    },
    {
      "inputs": [],
      "name": "unpauseVault",
      "outputs": [],
      "stateMutability": "nonpayable",
      "type": "function"
    },
    {
      "inputs": [],
      "name": "unpauseVaultBuffers",
      "outputs": [],
      "stateMutability": "nonpayable",
      "type": "function"
    },
    {
      "inputs": [
        {
          "internalType": "address",
          "name": "pool",
          "type": "address"
        },
        {
          "internalType": "uint256",
          "name": "newAggregateSwapFeePercentage",
          "type": "uint256"
        }
      ],
      "name": "updateAggregateSwapFeePercentage",
      "outputs": [],
      "stateMutability": "nonpayable",
      "type": "function"
    },
    {
      "inputs": [
        {
          "internalType": "address",
          "name": "pool",
          "type": "address"
        },
        {
          "internalType": "uint256",
          "name": "newAggregateYieldFeePercentage",
          "type": "uint256"
        }
      ],
      "name": "updateAggregateYieldFeePercentage",
      "outputs": [],
      "stateMutability": "nonpayable",
      "type": "function"
    },
    {
      "inputs": [],
      "name": "vault",
      "outputs": [
        {
          "internalType": "contract IVault",
          "name": "",
          "type": "address"
        }
      ],
      "stateMutability": "view",
      "type": "function"
    },
    {
      "stateMutability": "payable",
      "type": "receive"
    }
  ],
  "bytecode": "0x61020080604052346103945760a08161367680380380916100208285610398565b8339810103126103945780516001600160a01b03811691908281036103945763ffffffff610050602084016103cf565b61005c604085016103cf565b926080606086015195015195610095604051610079604082610398565b600a8152691a5cd55b9b1bd8dad95960b21b60208201526103e0565b60c0526100cc6040516100a9604082610398565b60118152701b9bdb96995c9bd1195b1d1850dbdd5b9d607a1b60208201526103e0565b60e0526100fd6040516100e0604082610398565b600b81526a746f6b656e44656c74617360a81b60208201526103e0565b61010052610136604051610112604082610398565b6012815271185919131a5c5d5a591a5d1e50d85b1b195960721b60208201526103e0565b6101205261016660405161014b604082610398565b60098152681cd95cdcda5bdb925960ba1b60208201526103e0565b610140526101c0526101e0521690630784ce0082116103855763ffffffff81169162ed4e00831161037657420180421161034b5763ffffffff811161035f5763ffffffff169081610160526101a0520163ffffffff811161034b576101805260805260a0526040516131cf90816104a7823960805181610622015260a05181612454015260c05181612b7f015260e051818181612eda0152612f1901526101005181612e8601526101205181505061014051815050610160518181816116b701528181611a510152611ac8015261018051818181610f3301528181611af40152612add01526101a0518181816103fa01528181610bdd01528181610e820152818161240001526125eb01526101c0518161296301526101e0518181816102370152818161028d015281816102e90152818161046a0152818161065e015281816108870152818161099401528181610a2001528181610a8c01528181610ae201528181610c8e01528181610f76015281816115e3015281816116680152818161174f015281816117bd01528181611a8b01528181611b6b01528181611bc501528181611e5501528181611f11015281816122a7015281816122fe015281816124970152818161253701528181612624015281816126ba0152818161271d01526127b20152f35b634e487b7160e01b5f52601160045260245ffd5b6306dfcc6560e41b5f52602060045260245260445ffd5b634f5277f760e11b5f5260045ffd5b63cc0e8fe560e01b5f5260045ffd5b5f80fd5b601f909101601f19168101906001600160401b038211908210176103bb57604052565b634e487b7160e01b5f52604160045260245ffd5b519063ffffffff8216820361039457565b604051906103ef604083610398565b600c82526104736001602084016b5661756c7453746f7261676560a01b815260396020604051958693828501987f62616c616e6365722d6c6162732e76332e73746f726167652e000000000000008a525180918587015e840190601760f91b84830152805192839101603a83015e01015f838201520301601f198101835282610398565b5190205f19810190811161034b5760405190602082019081526020825261049b604083610398565b9051902060ff19169056fe6080604052600436101561005f575b361561005057346100505760405162461bcd60e51b815260206004820152600f60248201526e139bdd081a5b5c1b195b595b9d1959608a1b6044820152606490fd5b637911c44b60e11b5f5260045ffd5b5f803560e01c80630387587d14612794578063058a628f146126f2578063098401f5146126a55780630b7562be1461260f57806320c1fb7a146125cf57806326a8a991146125b35780632d7713891461250c5780632e42f4d5146124f15780634021fe0f1461247757806353956aa21461243d57806355aca1ec146122e057806355cba7fe146122925780635dcacd6414611efb5780635e0b06f414611e32578063653eb3b014611bac578063821440f214611b55578063851c1bb314611b1b57806385c8c01514611a755780638a8d123a14611a345780638f4ab9ca146117a05780639385e39a146117175780639e0879c214611652578063a8175b2714611636578063b9212b49146115cd578063bffb78b214610f57578063cd51c12f14610f16578063d0965a6b14610ef8578063d15126ba14610c6c578063d2c725e014610c40578063dc3f574e14610ac3578063de1a36a614610a76578063e085c5a814610a0a578063e0d556051461097e578063e253670a14610864578063e2a92b1a14610645578063e2cb0ba01461060a578063ebc7955c1461044b578063f21c38cd146102ca578063f2784e07146102695763fbfa77cf14610222575061000e565b346102665780600319360112610266576040517f00000000000000000000000000000000000000000000000000000000000000006001600160a01b03168152602090f35b80fd5b50346102665760203660031901126102665760406020916102886127fc565b6102b17f0000000000000000000000000000000000000000000000000000000000000000612a18565b6001600160a01b03168152600d83522054604051908152f35b5034610266576020366003190112610266576102e46127fc565b61030d7f0000000000000000000000000000000000000000000000000000000000000000612a18565b61031681612b49565b6001600160a01b03818116808452600160205260408420549092849261033d921690612e18565b818352602083815260408085205484865291859052842054600192600292909180841c85169061036c90612e3c565b816103f0575b50156103dc57816103c85760ff83116103b4575f805160206130da8339815191529360ff8460209550878552848652161b19166040822055604051908152a280f35b634e487b7160e01b5f52601160045260245ffd5b63d971f59760e01b82526004859052602482fd5b633f735a2560e21b86526004859052602486fd5b905063ffffffff807f00000000000000000000000000000000000000000000000000000000000000001691160163ffffffff81116104375763ffffffff164211155f610372565b634e487b7160e01b87526011600452602487fd5b5034610266576080366003190112610266576044816104686127fc565b7f000000000000000000000000000000000000000000000000000000000000000061049281612a18565b6040516020810192631772b35960e21b845260018060a01b03166024820152602435858201528435606482015260643560848201523360a482015260a481526104dc60c4826128f4565b836040519586809581946348c8949160e01b8352602060048401525180918160248501528484015e8181018301849052601f01601f191681010301926001600160a01b03165af19081156105ff57829161055b575b506040818051810103126105575780604060208193015191015182519182526020820152f35b5080fd5b90503d8083833e61056c81836128f4565b8101906020818303126105e3578051906001600160401b0382116105fb570181601f820112156105e35780516001600160401b0381116105e757908391604051936105c16020601f19601f85011601866128f4565b818552602082840101116105e3578060208093018386015e830101525f610531565b8280fd5b634e487b7160e01b84526041600452602484fd5b8380fd5b6040513d84823e3d90fd5b503461026657806003193601126102665760206040517f00000000000000000000000000000000000000000000000000000000000000008152f35b50346102665761065436612812565b90610682959294957f0000000000000000000000000000000000000000000000000000000000000000612a18565b61068a612b7d565b610692612c9d565b61069b86612bb5565b6106a3612b14565b6040516338d52e0f60e01b81526001600160a01b0387169290602081600481875afa90811561085957859161082a575b50838552600e60205260408520546001600160a01b03918216911681900361081357838552600b602052604085205496848652600d60205260408620549160018060801b03891691610735610729858886612db1565b9a60801c948786612db1565b98808b116107f757508089116107db5750936107bd9361079d60409b946107978b6107918e6107b09861078c8e6107835f805160206130ba8339815191529f61077d86612e5b565b90612e7e565b61077d86612e5b565b61294c565b9261294c565b90612c0f565b93878952600b602052848c8a2055612cd9565b8751918291878984612917565b0390a25f8051602061315a8339815191525d82519182526020820152f35b6323b6a17960e21b885260048790526024899052604452606487fd5b6323b6a17960e21b8952600483905260248b9052604452606488fd5b6336b18d0960e01b85526004849052602452604484fd5b61084c915060203d602011610852575b61084481836128f4565b81019061292d565b5f6106d3565b503d61083a565b6040513d87823e3d90fd5b50346102665760403660031901126102665761087e6127fc565b602435906108ab7f0000000000000000000000000000000000000000000000000000000000000000612a18565b6108b481612b49565b670de0b6b3a7640000821161096f57600a546001600160a01b03163303610960576001600160a01b031680835260208390526040832054909190670de0b5cad2bef0008211610951577f606eb97d83164bd6b200d638cd49c14c65d94d4f2c674cfd85e24e0e202c3ca59161093c60209261092d612d9b565b9064174876e800840490612f50565b8486528583526040862055604051908152a280f35b6301d1b96560e61b8452600484fd5b6323dada5360e01b8352600483fd5b634c69ac5d60e01b8352600483fd5b50346102665780600319360112610266576109b87f0000000000000000000000000000000000000000000000000000000000000000612a18565b6109c0612a38565b60ff600954166109fb57600119600754166007557f91d7478835f2b5adc315f5aad920f4a7f0a02f7fddf3042d17b2c80168ea17f58180a180f35b6301a7e32f60e21b8152600490fd5b5034610266578060031936011261026657610a447f0000000000000000000000000000000000000000000000000000000000000000612a18565b610a4c612a38565b60078054600419166004179055604051600181525f8051602061311a83398151915290602090a180f35b5034610266578060031936011261026657610ab07f0000000000000000000000000000000000000000000000000000000000000000612a18565b610ab8612a38565b610ac0612d69565b80f35b503461026657602036600319011261026657610add6127fc565b610b067f0000000000000000000000000000000000000000000000000000000000000000612a18565b610b0f81612b49565b6001600160a01b031680825260208290526040822054610b2e90612ffd565b610c2e578082526020829052604082205460019060029080821c831690610b5490612e3c565b81610bd3575b501580610bc4575b610bb7575b8284528360205260408420549160ff82116103b4575f805160206130fa833981519152928160ff610b9b8560209650612c52565b161b90858752868452811916176040862055604051908152a280f35b610bbf612a38565b610b67565b50610bcd612ad6565b15610b62565b905063ffffffff807f00000000000000000000000000000000000000000000000000000000000000001691160163ffffffff8111610c1a5763ffffffff164211155f610b5a565b634e487b7160e01b85526011600452602485fd5b63346d760760e01b8252600452602490fd5b503461026657806003193601126102665760205f8051602061315a8339815191525c6040519015158152f35b503461026657604036600319011261026657610c866127fc565b602435610cb27f0000000000000000000000000000000000000000000000000000000000000000612a18565b610cbb82612b49565b6001600160a01b0382811680855260016020819052604086200154909391169081610ee257610cea9150612faf565b610cf2612ad6565b610ed357818352602083905260408320546001600282901c1690610d1590612e3c565b81610e78575b50610e645760405163ce20ece760e01b8152602081600481865afa908115610e18578491610e32575b508110610e235760405163654cf15d60e01b8152602081600481865afa908115610e18578491610de2575b508111610dd357818352826020526040832054670de0b5cad2bef0008211610951577f89d41522342fabac1471ca6073a5623e5caf367b03ca6e9a001478d0cf8be4a19161093c60209260ff610dc3612c64565b169064174876e800840490612f50565b637f47834b60e01b8352600483fd5b90506020813d602011610e10575b81610dfd602093836128f4565b81010312610e0c57515f610d6f565b5f80fd5b3d9150610df0565b6040513d86823e3d90fd5b6317f640d160e31b8352600483fd5b90506020813d602011610e5c575b81610e4d602093836128f4565b81010312610e0c57515f610d44565b3d9150610e40565b63d971f59760e01b83526004829052602483fd5b905063ffffffff807f00000000000000000000000000000000000000000000000000000000000000001691160163ffffffff8111610ebf5763ffffffff164211155f610d1b565b634e487b7160e01b84526011600452602484fd5b6336a7e2cd60e21b8352600483fd5b503314610cea576323dada5360e01b8352600483fd5b50346102665780600319360112610266576020604051620f42408152f35b5034610266578060031936011261026657602060405163ffffffff7f0000000000000000000000000000000000000000000000000000000000000000168152f35b503461026657602036600319011261026657610f716127fc565b610f9a7f0000000000000000000000000000000000000000000000000000000000000000612a18565b610fa381612b49565b610fab612a38565b6001600160a01b038116825260208290526040822054610fca90612ffd565b156115b257610fd7612b14565b60405160e081016001600160401b038111828210176105e7576040908152838252606060208084018290528383018290528184018290526080840182905260a0840182905260c08401919091526001600160a01b0384168086526005825282862081875286835283872054828852600484528488209288526003845284882080549187529451818152948852838820919594909390919082908101895b8681106115905750611088925003826128f4565b6020840152611096826129a7565b6110a360405191826128f4565b828152601f196110b2846129a7565b01875b81811061156757505060408401526110cc826129be565b60608401526110da826129be565b6080840152825164ffffffffff6110f0846129be565b916110f9612e34565b1c16875b84811061151b57505060c0840152611114826129be565b60a084015282519360018095811c169182611507575b826114f4575b908594939291885b84811061122f57505050506001600160a01b0385168652506005602052604085209085835b6111e3575b50505050825f8051602061315a8339815191525d6001600160a01b0382168352602083905260408320549060ff80821682019081116103b45760ff906111a790612c52565b161b191660018060a01b03821683528260205260408320555f805160206130fa83398151915260206040519284845260018060a01b031692a280f35b6060820151908151811015611229576112166112008287946129f0565b5161120f8360808701516129f0565b5190612c0f565b818952846020526040892055018361115d565b50611162565b60018060a0989394959697981b0361124b8260208a01516129f0565b511660018060a01b03165f528260205260405f2060ff6040519161126e836128c5565b5481811661127b81613012565b835260018060a01b038160081c16602084015260a81c1615156040820152818b528460205260408b2054906112c08360408b0151836112ba83836129f0565b526129f0565b5080516112cc81613012565b6112d581613012565b806114525750670de0b6b3a76400005b6112f38460a08c01516129f0565b526113086001600160801b038316848b61305d565b861561144b578360408201511515918261142d575b5050611333575b505b0190869594939291611138565b61133d8851613030565b9061134c8360608b01516129f0565b519060801c918c926113628560808d01516129f0565b51818111611395575b5050508161137a575b50611324565b61138e91611387916128b8565b828961305d565b5f80611374565b9091929495506113a6935003612887565b88670de0b6b3a76400005f1983010401901515026113e16113cb8460c08b01516129f0565b516113da8560a08c01516129f0565b5190612887565b90670de0b6b3a7640000810290808204670de0b6b3a7640000149015171561141957899392916114109161289a565b905f808061136b565b634e487b7160e01b8c52601160045260248cfd5b9091505161143a81613012565b61144381613012565b14835f61131d565b5050611326565b8c94919293945061146281613012565b036114e5576020808201516040516333cd77e760e11b81529493929190859060049082906001600160a01b03165afa80156114da578a948d916114a6575b506112e5565b9450506020843d82116114d2575b816114c1602093836128f4565b81010312610e0c578993515f6114a0565b3d91506114b4565b6040513d8e823e3d90fd5b636fa2831960e11b8b5260048bfd5b91506115008451612ffd565b1591611130565b91506115138451613030565b15159161112a565b60058102818104600514821517156115535782601f911c16604d81116115535790600191600a0a61154c82866129f0565b52016110fd565b634e487b7160e01b8a52601160045260248afd5b602090604051611576816128c5565b8a81528a838201528a6040820152828286010152016110b5565b83546001600160a01b0316825260019384019385935060209092019101611074565b63ef029adf60e01b82526001600160a01b0316600452602490fd5b50346102665780600319360112610266576116077f0000000000000000000000000000000000000000000000000000000000000000612a18565b61160f612a38565b600754600160021b19166007555f8051602061311a8339815191526020604051838152a180f35b5034610266578060031936011261026657602060405160028152f35b503461026657806003193601126102665761168c7f0000000000000000000000000000000000000000000000000000000000000000612a18565b611694612a38565b61169c612ad6565b156116b0576336a7e2cd60e21b8152600490fd5b63ffffffff7f0000000000000000000000000000000000000000000000000000000000000000164210156117085760078054600219166002179055604051600181525f8051602061313a83398151915290602090a180f35b630e4460b760e01b8152600490fd5b5034610266576040366003190112610266576117316127fc565b60243591906001600160a01b038316830361055757906040916117737f0000000000000000000000000000000000000000000000000000000000000000612a18565b60018060a01b03168152600c602052209060018060a01b03165f52602052602060405f2054604051908152f35b5034610266576020366003190112610266576117ba6127fc565b907f0000000000000000000000000000000000000000000000000000000000000000916117e683612a18565b6117ee612b7d565b600a546001600160a01b03163303611a255790808261180e602494612b49565b60405163ca4f280360e01b81526001600160a01b0391821660048201819052959094859290918391165afa918215611a1857819261196d575b50815161185c611856826129be565b916129be565b93825b845181101561193f576001906001600160a01b0361187d82886129f0565b5116838652600660205260408620838060a01b0382165f5260205260405f20548060801c6118ab848b6129f0565b52838060801b03166118bd83876129f0565b526118c882866129f0565b511580159061192c575b6118de575b500161185f565b61192690848752600660205260408720848060a01b0382165f526020528660405f205561192061190e84886129f0565b51611919858c6129f0565b519061294c565b90612beb565b5f6118d7565b5061193782896129f0565b5115156118d2565b61195b8361196988604051938493604085526040850190612854565b908382036020850152612854565b0390f35b9091503d8083833e61197f81836128f4565b8101906020818303126105e3578051906001600160401b0382116105fb57019080601f830112156105e3578151906119b6826129a7565b926119c460405194856128f4565b82845260208085019360051b820101918211611a1457602001915b8183106119f057505050905f611847565b82516001600160a01b0381168103611a10578152602092830192016119df565b8580fd5b8480fd5b50604051903d90823e3d90fd5b6323dada5360e01b8252600482fd5b5034610266578060031936011261026657602060405163ffffffff7f0000000000000000000000000000000000000000000000000000000000000000168152f35b5034610266578060031936011261026657611aaf7f0000000000000000000000000000000000000000000000000000000000000000612a18565b6060611ab9612ad6565b604051901515815263ffffffff7f000000000000000000000000000000000000000000000000000000000000000016602082015263ffffffff7f0000000000000000000000000000000000000000000000000000000000000000166040820152f35b503461026657602036600319011261026657600435906001600160e01b031982168203610266576020611b4d83612959565b604051908152f35b5034610266578060031936011261026657611b8f7f0000000000000000000000000000000000000000000000000000000000000000612a18565b611b97612a38565b600160ff196009541617600955610ac0612d69565b503461026657611bbb36612812565b611be995939192957f0000000000000000000000000000000000000000000000000000000000000000612a18565b611bf1612b7d565b611bf9612c9d565b611c01612b14565b6001600160a01b03858116808652600e602052604086205490949116611e1f576040516338d52e0f60e01b8152602081600481885afa908115611e14578691611df5575b506001600160a01b03168015611de157848652600e6020526040862080546001600160a01b03191682179055611c7e9061077d85612e5b565b611c90611c8a88612e5b565b85612e7e565b611c9a8784612c0f565b91848652600b60205282604087205560405163266d6a8360e11b8152886004820152602081602481895afa8015611dd65785908890611da0575b611cde925061294c565b96611ce888612cbb565b61270f19880197881161043757611d45918891878952600d60205261271060408a2055878952600c6020526040892089805260205261271060408a205588885f8051602061317a83398151915260206040516127108152a3612cd9565b808610611d895750945f805160206130ba83398151915291611d6f60209760405193849384612917565b0390a25f8051602061315a8339815191525d604051908152f35b636d06583f60e11b85526004869052602452604484fd5b50506020813d602011611dce575b81611dbb602093836128f4565b81010312610e0c5784611cde9151611cd4565b3d9150611dae565b6040513d89823e3d90fd5b63d407f9c560e01b86526004859052602486fd5b611e0e915060203d6020116108525761084481836128f4565b5f611c45565b6040513d88823e3d90fd5b625a43e960e61b85526004849052602485fd5b503461026657604036600319011261026657611e4c6127fc565b60243590611e797f0000000000000000000000000000000000000000000000000000000000000000612a18565b611e8281612b49565b670de0b6b3a7640000821161096f57600a546001600160a01b03163303610960576001600160a01b031680835260208390526040832054909190670de0b5cad2bef0008211610951577fe4d371097beea42453a37406e2aef4c04f3c548f84ac50e72578662c0dcd73549161093c60209261092d612c84565b5034610e0c57611f0a36612812565b94909291937f0000000000000000000000000000000000000000000000000000000000000000611f3981612a18565b6001600160a01b0316903382900361227f57611f53612b7d565b611f5c81612bb5565b32158080612272575b612225575b5060018060a01b031692835f52600c60205260405f2060018060a01b0388165f5260205260405f2054811161221657835f52600b60205260405f205495845f52600d60205260405f205460018060801b038816611fe2611fd383611fce8785612887565b61289a565b9960801c92611fce8685612887565b97875f52600e60205260018060a01b0360405f20541693808b106121fc57508089106121e25750906107978861202f8b612035956120208289612beb565b61202a848d612beb565b6128b8565b926128b8565b5f868152600b60205260409020819055976001600160a01b03169182156121d357857f4e09f7f7fc37ce2897800e2c2a9099565edb0a133d19d84a6871b3530af8846b60208593835f52600d82526120918160405f20546128b8565b61209a81612cbb565b845f52600d835260405f2055835f52600c825260405f20855f52825260405f206120c58282546128b8565b9055604051908152a386612179575b5084612121575b5050507f44d97b36e99b590b3d2875aad3b167b1d7fb1e063f3f1325a1eeac76caee51136121126040958651918291868884612917565b0390a282519182526020820152f35b813b156105e357829160648392604051948593849263ae63932960e01b845289600485015260248401528960448401525af180156105ff57612164575b806120db565b61216f8280926128f4565b610266578061215e565b823b15610e0c576040519063ae63932960e01b825260048201528160248201528660448201525f8160648183875af180156121c857156120d4576121c09193505f906128f4565b5f915f6120d4565b6040513d5f823e3d90fd5b63586d06df60e01b5f5260045ffd5b88886323b6a17960e21b5f5260045260245260445260645ffd5b8a856323b6a17960e21b5f5260045260245260445260645ffd5b634c62edeb60e11b5f5260045ffd5b15612263576001600160a01b038181165f908152600c60209081526040808320938b16835292905220805461225b90869061294c565b90555f611f6a565b6333fc255960e11b5f5260045ffd5b5060016007541615611f65565b63089676d560e01b5f523360045260245ffd5b34610e0c575f366003190112610e0c576122cb7f0000000000000000000000000000000000000000000000000000000000000000612a18565b602060075460016040519160021c1615158152f35b34610e0c576020366003190112610e0c576122f96127fc565b6123227f0000000000000000000000000000000000000000000000000000000000000000612a18565b61232b81612b49565b6001600160a01b038181165f818152600160205260409020549092612354929190911690612e18565b5f818152602081905260409020546002600182821c811661237484612e3c565b816123f6575b5015612393578363d971f59760e01b5f5260045260245ffd5b63ffffffff6123a184612e3c565b164210156123e35760ff82116103b4575f805160206130da833981519152928160ff8460209550161b90855f525f84528119161760405f2055604051908152a2005b8363eb5a121760e01b5f5260045260245ffd5b905063ffffffff807f00000000000000000000000000000000000000000000000000000000000000001691160163ffffffff81116103b45763ffffffff164211158561237a565b34610e0c575f366003190112610e0c5760206040517f00000000000000000000000000000000000000000000000000000000000000008152f35b34610e0c576020366003190112610e0c5760406124926127fc565b6124bb7f0000000000000000000000000000000000000000000000000000000000000000612a18565b6001600160a01b03165f908152600b6020908152908290205482516001600160801b038216815260809190911c91810191909152f35b34610e0c575f366003190112610e0c57602060405160088152f35b34610e0c576020366003190112610e0c576004356001600160a01b03811690819003610e0c5761255b7f0000000000000000000000000000000000000000000000000000000000000000612a18565b612563612a38565b61256b612b14565b600a80546001600160a01b031916821790557f280a60b1e63c1774d397d35cce80eb80e51408ead755fb446e6f744ce98e5df05f80a25f5f8051602061315a8339815191525d005b34610e0c575f366003190112610e0c5760206040516127108152f35b34610e0c575f366003190112610e0c57602060405163ffffffff7f0000000000000000000000000000000000000000000000000000000000000000168152f35b34610e0c575f366003190112610e0c576126487f0000000000000000000000000000000000000000000000000000000000000000612a18565b612650612a38565b5f612659612ad6565b1561269657806126875760205f8051602061313a8339815191529160075460021916600755604051908152a1005b6336a7e2cd60e21b8152600490fd5b637bffa6e560e11b5f5260045ffd5b34610e0c575f366003190112610e0c576126de7f0000000000000000000000000000000000000000000000000000000000000000612a18565b60206126e8612ad6565b6040519015158152f35b34610e0c576020366003190112610e0c576004356001600160a01b03811690818103610e0c576127417f0000000000000000000000000000000000000000000000000000000000000000612a18565b612749612a38565b60098054610100600160a81b03191660089290921b610100600160a81b03169190911790557f94b979b6831a51293e2641426f97747feed46f17779fed9cd18d1ecefcfe92ef5f80a2005b34610e0c576020366003190112610e0c576127ad6127fc565b6127d67f0000000000000000000000000000000000000000000000000000000000000000612a18565b60018060a01b03165f52600e602052602060018060a01b0360405f205416604051908152f35b600435906001600160a01b0382168203610e0c57565b60a0906003190112610e0c576004356001600160a01b0381168103610e0c57906024359060443590606435906084356001600160a01b0381168103610e0c5790565b90602080835192838152019201905f5b8181106128715750505090565b8251845260209384019390920191600101612864565b818102929181159184041417156103b457565b81156128a4570490565b634e487b7160e01b5f52601260045260245ffd5b919082039182116103b457565b606081019081106001600160401b038211176128e057604052565b634e487b7160e01b5f52604160045260245ffd5b601f909101601f19168101906001600160401b038211908210176128e057604052565b6040919493926060820195825260208201520152565b90816020910312610e0c57516001600160a01b0381168103610e0c5790565b919082018092116103b457565b60405160208101917f0000000000000000000000000000000000000000000000000000000000000000835263ffffffff60e01b166040820152602481526129a16044826128f4565b51902090565b6001600160401b0381116128e05760051b60200190565b906129c8826129a7565b6129d560405191826128f4565b82815280926129e6601f19916129a7565b0190602036910137565b8051821015612a045760209160051b010190565b634e487b7160e01b5f52603260045260245ffd5b6001600160a01b03163003612a2957565b634fe92d9b60e11b5f5260045ffd5b612a7e6020612a515f356001600160e01b031916612959565b60018060a01b0360095460081c1660405180809581946326f8aa2160e21b83523090339060048501612df8565b03915afa9081156121c8575f91612aa7575b5015612a9857565b6323dada5360e01b5f5260045ffd5b612ac9915060203d602011612acf575b612ac181836128f4565b810190612de0565b5f612a90565b503d612ab7565b63ffffffff7f00000000000000000000000000000000000000000000000000000000000000001642111580612b085790565b506001600754811c1690565b5f8051602061315a8339815191525c612b3a5760015f8051602061315a8339815191525d565b633ee5aeb560e01b5f5260045ffd5b6001600160a01b03165f8181526020819052604090205460011615612b6b5750565b6327946f5760e21b5f5260045260245ffd5b7f00000000000000000000000000000000000000000000000000000000000000005c15612ba657565b63604dd39b60e11b5f5260045ffd5b6001600160a01b039081165f818152600e602052604090205490911615612bd95750565b6385f4129960e01b5f5260045260245ffd5b90612bf590612e5b565b90600160ff1b82146103b457612c0d915f0390612e7e565b565b6001600160801b0381118015612c42575b612c3357612c309160801b61294c565b90565b6389560ca160e01b5f5260045ffd5b506001600160801b038211612c20565b60ff60019116019060ff82116103b457565b612c30612c7f80808080808080808080808080806002612c52565b612c52565b60ff612c8e612c64565b16601881018091116103b45790565b600160075460021c16612cac57565b630f27df0960e01b5f5260045ffd5b6127108110612cc75750565b631a5edfd560e11b5f5260045260245ffd5b6001600160a01b0390911691908215612d5a5760205f8051602061317a8339815191529160018060a01b031692835f52600d8252612d1b8160405f205461294c565b612d2481612cbb565b845f52600d835260405f2055835f52600c825260405f20855f52825260405f20612d4f82825461294c565b9055604051908152a3565b636df3588760e11b5f5260045ffd5b6001801960075416176007557fbd204090fd387f08e3076528bf09b4fc99d8100d749eace96c06002d3fedc6255f80a1565b612da3612c84565b601881018091116103b45790565b8215612dd157600191612dc391612887565b915f19830104019015150290565b630a0c22c760e01b5f5260045ffd5b90816020910312610e0c57518015158103610e0c5790565b9081526001600160a01b0391821660208201529116604082015260600190565b906001600160a01b03163314612e3157612c0d90612faf565b50565b612da3612d9b565b612e44612e34565b90602882018092116103b45763ffffffff911c1690565b6001600160ff1b038111612e6c5790565b63123baf0360e11b5f5260045260245ffd5b8115612f4c577f00000000000000000000000000000000000000000000000000000000000000009060018060a01b0316805f528160205260405f205c8381019384125f82129080158216911516176103b45783612f1357505f197f0000000000000000000000000000000000000000000000000000000000000000805c9182019182116103b4575d5b5f5260205260405f205d565b612f07577f0000000000000000000000000000000000000000000000000000000000000000805c90600182018092116103b4575d612f07565b5050565b90610100831015612fa057826101000361010081116103b4578060ff108160ff180218601811612fa0578060181c612f915762ffffff90831b921b19161790565b63e4337c0560e01b5f5260045ffd5b632d0483c560e21b5f5260045ffd5b612a7e90602090612fca5f356001600160e01b031916612959565b6009546040516326f8aa2160e21b815294859360089290921c6001600160a01b0316928492839291339060048501612df8565b60019060ff61300c6002612c52565b161c1690565b6002111561301c57565b634e487b7160e01b5f52602160045260245ffd5b62ffffff9061303d612d9b565b1c1664174876e80081029080820464174876e80014901517156103b45790565b91908161306e8260608601516129f0565b526080670de0b6b3a76400006130ad6130b6946130a86130928660c08a01516129f0565b516130a18760a08b01516129f0565b5192612887565b612887565b049301516129f0565b5256fe75c4dc5f23640eeba7d404d9165f515fc3d9e23a5c8b6e2d09b4b9da56ff00a957e20448028297190122571be7cb6c1b1ef85730c673f7c72f533c8662419aa7c2354cc2f78ea57777e55ddd43a7f22b112ce98868596880edaeb22b4f9c73a9300c7ca619eb846386aa0a6e5916ac2a41406448b0a2e99ba9ccafeb899015a5e0629fe656e45ad7fd63a24b899da368690024c07043b88e57aee5095b1d3d029b779b17422d0df92223018b32b4d1fa46e071723d6817e2486d003becc55f00d66f031d33381c6408f0b32c884461e5de3df8808399b6f3a3d86b1368f8ec34a2646970667358221220df8eb1ec8cd3e1dccf84480f82ff322362b532a3df14d6aae3a1bfb0862b26d864736f6c634300081a0033",
  "linkReferences": {},
  "deployedLinkReferences": {}
}