{
  "_format": "hh-sol-artifact-1",
  "contractName": "UniversalStablePool",
  "sourceName": "contracts/UniversalStablePool.sol",
  "abi": [
    {
      "inputs": [],
      "stateMutability": "nonpayable",
      "type": "constructor"
    },
    {
      "inputs": [
        {
          "internalType": "address",
          "name": "owner",
          "type": "address"
        }
      ],
      "name": "OwnableInvalidOwner",
      "type": "error"
    },
    {
      "inputs": [
        {
          "internalType": "address",
          "name": "account",
          "type": "address"
        }
      ],
      "name": "OwnableUnauthorizedAccount",
      "type": "error"
    },
    {
      "inputs": [],
      "name": "Unauthorized",
      "type": "error"
    },
    {
      "anonymous": false,
      "inputs": [
        {
          "indexed": true,
          "internalType": "address",
          "name": "sender",
          "type": "address"
        },
        {
          "indexed": true,
          "internalType": "address",
          "name": "zrc20",
          "type": "address"
        },
        {
          "indexed": false,
          "internalType": "uint256",
          "name": "amount",
          "type": "uint256"
        }
      ],
      "name": "LiquidityAdded",
      "type": "event"
    },
    {
      "anonymous": false,
      "inputs": [
        {
          "indexed": true,
          "internalType": "address",
          "name": "sender",
          "type": "address"
        },
        {
          "indexed": true,
          "internalType": "address",
          "name": "zrc20",
          "type": "address"
        },
        {
          "indexed": false,
          "internalType": "uint256",
          "name": "amount",
          "type": "uint256"
        },
        {
          "indexed": false,
          "internalType": "bool",
          "name": "withdrawFlag",
          "type": "bool"
        }
      ],
      "name": "LiquidityRemoved",
      "type": "event"
    },
    {
      "anonymous": false,
      "inputs": [
        {
          "indexed": true,
          "internalType": "address",
          "name": "previousOwner",
          "type": "address"
        },
        {
          "indexed": true,
          "internalType": "address",
          "name": "newOwner",
          "type": "address"
        }
      ],
      "name": "OwnershipTransferred",
      "type": "event"
    },
    {
      "inputs": [],
      "name": "GATEWAY",
      "outputs": [
        {
          "internalType": "contract IGatewayZEVM",
          "name": "",
          "type": "address"
        }
      ],
      "stateMutability": "view",
      "type": "function"
    },
    {
      "inputs": [
        {
          "components": [
            {
              "internalType": "address",
              "name": "zrc20",
              "type": "address"
            },
            {
              "internalType": "uint256",
              "name": "amount",
              "type": "uint256"
            }
          ],
          "internalType": "struct UniversalStablePool.AddLiquidityParams",
          "name": "params",
          "type": "tuple"
        }
      ],
      "name": "addLiquidity",
      "outputs": [],
      "stateMutability": "nonpayable",
      "type": "function"
    },
    {
      "inputs": [
        {
          "components": [
            {
              "internalType": "bytes",
              "name": "sender",
              "type": "bytes"
            },
            {
              "internalType": "address",
              "name": "senderEVM",
              "type": "address"
            },
            {
              "internalType": "uint256",
              "name": "chainID",
              "type": "uint256"
            }
          ],
          "internalType": "struct MessageContext",
          "name": "context",
          "type": "tuple"
        },
        {
          "internalType": "address",
          "name": "zrc20",
          "type": "address"
        },
        {
          "internalType": "uint256",
          "name": "amount",
          "type": "uint256"
        },
        {
          "internalType": "bytes",
          "name": "",
          "type": "bytes"
        }
      ],
      "name": "onCall",
      "outputs": [],
      "stateMutability": "nonpayable",
      "type": "function"
    },
    {
      "inputs": [],
      "name": "owner",
      "outputs": [
        {
          "internalType": "address",
          "name": "",
          "type": "address"
        }
      ],
      "stateMutability": "view",
      "type": "function"
    },
    {
      "inputs": [
        {
          "components": [
            {
              "internalType": "address",
              "name": "zrc20",
              "type": "address"
            },
            {
              "internalType": "uint256",
              "name": "amount",
              "type": "uint256"
            }
          ],
          "internalType": "struct UniversalStablePool.RemoveLiquidityParams",
          "name": "params",
          "type": "tuple"
        },
        {
          "internalType": "bool",
          "name": "withdrawFlag",
          "type": "bool"
        }
      ],
      "name": "removeLiquidity",
      "outputs": [],
      "stateMutability": "nonpayable",
      "type": "function"
    },
    {
      "inputs": [],
      "name": "renounceOwnership",
      "outputs": [],
      "stateMutability": "nonpayable",
      "type": "function"
    },
    {
      "inputs": [
        {
          "internalType": "address",
          "name": "newOwner",
          "type": "address"
        }
      ],
      "name": "transferOwnership",
      "outputs": [],
      "stateMutability": "nonpayable",
      "type": "function"
    }
  ],
  "bytecode": "0x608060405234801561001057600080fd5b5033600073ffffffffffffffffffffffffffffffffffffffff168173ffffffffffffffffffffffffffffffffffffffff16036100845760006040517f1e4fbdf700000000000000000000000000000000000000000000000000000000815260040161007b919061019e565b60405180910390fd5b6100938161009960201b60201c565b506101b9565b60008060009054906101000a900473ffffffffffffffffffffffffffffffffffffffff169050816000806101000a81548173ffffffffffffffffffffffffffffffffffffffff021916908373ffffffffffffffffffffffffffffffffffffffff1602179055508173ffffffffffffffffffffffffffffffffffffffff168173ffffffffffffffffffffffffffffffffffffffff167f8be0079c531659141344cd1fd0a4f28419497f9722a3daafe3b4186f6b6457e060405160405180910390a35050565b600073ffffffffffffffffffffffffffffffffffffffff82169050919050565b60006101888261015d565b9050919050565b6101988161017d565b82525050565b60006020820190506101b3600083018461018f565b92915050565b610bc0806101c86000396000f3fe608060405234801561001057600080fd5b506004361061007d5760003560e01c8063848c92961161005b578063848c9296146100c6578063868efab9146100e25780638da5cb5b146100fe578063f2fde38b1461011c5761007d565b8063338c5371146100825780635bcfd616146100a0578063715018a6146100bc575b600080fd5b61008a610138565b604051610097919061063c565b60405180910390f35b6100ba60048036038101906100b59190610768565b610150565b005b6100c4610264565b005b6100e060048036038101906100db91906108ed565b610278565b005b6100fc60048036038101906100f791906109a2565b610285565b005b6101066102f8565b60405161011391906109f1565b60405180910390f35b61013660048036038101906101319190610a0c565b610321565b005b736c533f7fe93fae114d0954697069df33c9b74fd781565b736c533f7fe93fae114d0954697069df33c9b74fd773ffffffffffffffffffffffffffffffffffffffff163373ffffffffffffffffffffffffffffffffffffffff16146101c9576040517f82b4290000000000000000000000000000000000000000000000000000000000815260040160405180910390fd5b60006102268680600001906101de9190610a48565b8080601f016020809104026020016040519081016040528093929190818152602001838380828437600081840152601f19601f820116905080830192505050505050506103a7565b905061025c8160405180604001604052808873ffffffffffffffffffffffffffffffffffffffff168152602001878152506103f9565b505050505050565b61026c61046a565b61027660006104f1565b565b61028233826103f9565b50565b816000015173ffffffffffffffffffffffffffffffffffffffff163373ffffffffffffffffffffffffffffffffffffffff167f9eeb44d7bbbf350445c57eece65dab1b3f86fbdd10c6125be2ce0884743db0d58460200151846040516102ec929190610ac9565b60405180910390a35050565b60008060009054906101000a900473ffffffffffffffffffffffffffffffffffffffff16905090565b61032961046a565b600073ffffffffffffffffffffffffffffffffffffffff168173ffffffffffffffffffffffffffffffffffffffff160361039b5760006040517f1e4fbdf700000000000000000000000000000000000000000000000000000000815260040161039291906109f1565b60405180910390fd5b6103a4816104f1565b50565b600060148251146103ed576040517f08c379a00000000000000000000000000000000000000000000000000000000081526004016103e490610b4f565b60405180910390fd5b60148201519050919050565b806000015173ffffffffffffffffffffffffffffffffffffffff168273ffffffffffffffffffffffffffffffffffffffff167f9d278c56ba6dc86a12eefe6b43112bd6e06648eb4ec0b950ee2d783d40e2acb4836020015160405161045e9190610b6f565b60405180910390a35050565b6104726105b5565b73ffffffffffffffffffffffffffffffffffffffff166104906102f8565b73ffffffffffffffffffffffffffffffffffffffff16146104ef576104b36105b5565b6040517f118cdaa70000000000000000000000000000000000000000000000000000000081526004016104e691906109f1565b60405180910390fd5b565b60008060009054906101000a900473ffffffffffffffffffffffffffffffffffffffff169050816000806101000a81548173ffffffffffffffffffffffffffffffffffffffff021916908373ffffffffffffffffffffffffffffffffffffffff1602179055508173ffffffffffffffffffffffffffffffffffffffff168173ffffffffffffffffffffffffffffffffffffffff167f8be0079c531659141344cd1fd0a4f28419497f9722a3daafe3b4186f6b6457e060405160405180910390a35050565b600033905090565b600073ffffffffffffffffffffffffffffffffffffffff82169050919050565b6000819050919050565b60006106026105fd6105f8846105bd565b6105dd565b6105bd565b9050919050565b6000610614826105e7565b9050919050565b600061062682610609565b9050919050565b6106368161061b565b82525050565b6000602082019050610651600083018461062d565b92915050565b6000604051905090565b600080fd5b600080fd5b600080fd5b6000606082840312156106865761068561066b565b5b81905092915050565b600061069a826105bd565b9050919050565b6106aa8161068f565b81146106b557600080fd5b50565b6000813590506106c7816106a1565b92915050565b6000819050919050565b6106e0816106cd565b81146106eb57600080fd5b50565b6000813590506106fd816106d7565b92915050565b600080fd5b600080fd5b600080fd5b60008083601f84011261072857610727610703565b5b8235905067ffffffffffffffff81111561074557610744610708565b5b6020830191508360018202830111156107615761076061070d565b5b9250929050565b60008060008060006080868803121561078457610783610661565b5b600086013567ffffffffffffffff8111156107a2576107a1610666565b5b6107ae88828901610670565b95505060206107bf888289016106b8565b94505060406107d0888289016106ee565b935050606086013567ffffffffffffffff8111156107f1576107f0610666565b5b6107fd88828901610712565b92509250509295509295909350565b600080fd5b6000601f19601f8301169050919050565b7f4e487b7100000000000000000000000000000000000000000000000000000000600052604160045260246000fd5b61085a82610811565b810181811067ffffffffffffffff8211171561087957610878610822565b5b80604052505050565b600061088c610657565b90506108988282610851565b919050565b6000604082840312156108b3576108b261080c565b5b6108bd6040610882565b905060006108cd848285016106b8565b60008301525060206108e1848285016106ee565b60208301525092915050565b60006040828403121561090357610902610661565b5b60006109118482850161089d565b91505092915050565b6000604082840312156109305761092f61080c565b5b61093a6040610882565b9050600061094a848285016106b8565b600083015250602061095e848285016106ee565b60208301525092915050565b60008115159050919050565b61097f8161096a565b811461098a57600080fd5b50565b60008135905061099c81610976565b92915050565b600080606083850312156109b9576109b8610661565b5b60006109c78582860161091a565b92505060406109d88582860161098d565b9150509250929050565b6109eb8161068f565b82525050565b6000602082019050610a0660008301846109e2565b92915050565b600060208284031215610a2257610a21610661565b5b6000610a30848285016106b8565b91505092915050565b600080fd5b600080fd5b600080fd5b60008083356001602003843603038112610a6557610a64610a39565b5b80840192508235915067ffffffffffffffff821115610a8757610a86610a3e565b5b602083019250600182023603831315610aa357610aa2610a43565b5b509250929050565b610ab4816106cd565b82525050565b610ac38161096a565b82525050565b6000604082019050610ade6000830185610aab565b610aeb6020830184610aba565b9392505050565b600082825260208201905092915050565b7f496e76616c69642061646472657373206279746573206c656e67746800000000600082015250565b6000610b39601c83610af2565b9150610b4482610b03565b602082019050919050565b60006020820190508181036000830152610b6881610b2c565b9050919050565b6000602082019050610b846000830184610aab565b9291505056fea264697066735822122033ca3f53ce14bfb2405948df80297571be2220378787d86165881777ff7931a264736f6c634300081a0033",
  "linkReferences": {},
  "deployedLinkReferences": {}
}