{
  "_format": "hh-sol-artifact-1",
  "contractName": "UniversalStablePool",
  "sourceName": "contracts/UniversalStablePool.sol",
  "abi": [
    {
      "inputs": [],
      "stateMutability": "nonpayable",
      "type": "constructor"
    },
    {
      "inputs": [
        {
          "internalType": "address",
          "name": "owner",
          "type": "address"
        }
      ],
      "name": "OwnableInvalidOwner",
      "type": "error"
    },
    {
      "inputs": [
        {
          "internalType": "address",
          "name": "account",
          "type": "address"
        }
      ],
      "name": "OwnableUnauthorizedAccount",
      "type": "error"
    },
    {
      "inputs": [],
      "name": "Unauthorized",
      "type": "error"
    },
    {
      "anonymous": false,
      "inputs": [
        {
          "indexed": true,
          "internalType": "address",
          "name": "sender",
          "type": "address"
        },
        {
          "indexed": true,
          "internalType": "address",
          "name": "zrc20",
          "type": "address"
        },
        {
          "indexed": false,
          "internalType": "uint256",
          "name": "amount",
          "type": "uint256"
        }
      ],
      "name": "LiquidityAdded",
      "type": "event"
    },
    {
      "anonymous": false,
      "inputs": [
        {
          "indexed": true,
          "internalType": "address",
          "name": "sender",
          "type": "address"
        },
        {
          "indexed": true,
          "internalType": "address",
          "name": "zrc20",
          "type": "address"
        },
        {
          "indexed": false,
          "internalType": "uint256",
          "name": "amount",
          "type": "uint256"
        },
        {
          "indexed": false,
          "internalType": "bool",
          "name": "withdrawFlag",
          "type": "bool"
        }
      ],
      "name": "LiquidityRemoved",
      "type": "event"
    },
    {
      "anonymous": false,
      "inputs": [
        {
          "indexed": true,
          "internalType": "address",
          "name": "previousOwner",
          "type": "address"
        },
        {
          "indexed": true,
          "internalType": "address",
          "name": "newOwner",
          "type": "address"
        }
      ],
      "name": "OwnershipTransferred",
      "type": "event"
    },
    {
      "inputs": [],
      "name": "GATEWAY",
      "outputs": [
        {
          "internalType": "contract IGatewayZEVM",
          "name": "",
          "type": "address"
        }
      ],
      "stateMutability": "view",
      "type": "function"
    },
    {
      "inputs": [
        {
          "components": [
            {
              "internalType": "address",
              "name": "zrc20",
              "type": "address"
            },
            {
              "internalType": "uint256",
              "name": "amount",
              "type": "uint256"
            }
          ],
          "internalType": "struct UniversalStablePool.AddLiquidityParams",
          "name": "params",
          "type": "tuple"
        }
      ],
      "name": "addLiquidity",
      "outputs": [],
      "stateMutability": "nonpayable",
      "type": "function"
    },
    {
      "inputs": [
        {
          "components": [
            {
              "internalType": "bytes",
              "name": "sender",
              "type": "bytes"
            },
            {
              "internalType": "address",
              "name": "senderEVM",
              "type": "address"
            },
            {
              "internalType": "uint256",
              "name": "chainID",
              "type": "uint256"
            }
          ],
          "internalType": "struct MessageContext",
          "name": "context",
          "type": "tuple"
        },
        {
          "internalType": "address",
          "name": "zrc20",
          "type": "address"
        },
        {
          "internalType": "uint256",
          "name": "amount",
          "type": "uint256"
        },
        {
          "internalType": "bytes",
          "name": "",
          "type": "bytes"
        }
      ],
      "name": "onCall",
      "outputs": [],
      "stateMutability": "nonpayable",
      "type": "function"
    },
    {
      "inputs": [],
      "name": "owner",
      "outputs": [
        {
          "internalType": "address",
          "name": "",
          "type": "address"
        }
      ],
      "stateMutability": "view",
      "type": "function"
    },
    {
      "inputs": [
        {
          "components": [
            {
              "internalType": "address",
              "name": "zrc20",
              "type": "address"
            },
            {
              "internalType": "uint256",
              "name": "amount",
              "type": "uint256"
            }
          ],
          "internalType": "struct UniversalStablePool.RemoveLiquidityParams",
          "name": "params",
          "type": "tuple"
        },
        {
          "internalType": "bool",
          "name": "withdrawFlag",
          "type": "bool"
        }
      ],
      "name": "removeLiquidity",
      "outputs": [],
      "stateMutability": "nonpayable",
      "type": "function"
    },
    {
      "inputs": [],
      "name": "renounceOwnership",
      "outputs": [],
      "stateMutability": "nonpayable",
      "type": "function"
    },
    {
      "inputs": [
        {
          "internalType": "address",
          "name": "newOwner",
          "type": "address"
        }
      ],
      "name": "transferOwnership",
      "outputs": [],
      "stateMutability": "nonpayable",
      "type": "function"
    }
  ],
  "bytecode": "0x608080604052346071573315605e575f8054336001600160a01b0319821681178355916001600160a01b03909116907f8be0079c531659141344cd1fd0a4f28419497f9722a3daafe3b4186f6b6457e09080a361052c90816100768239f35b631e4fbdf760e01b5f525f60045260245ffd5b5f80fdfe60806040526004361015610011575f80fd5b5f3560e01c8063338c5371146100845780635bcfd6161461007f578063715018a61461007a578063848c929614610075578063868efab9146100705780638da5cb5b1461006b5763f2fde38b14610066575f80fd5b6102df565b6102b8565b61024e565b61022b565b610156565b6100cc565b346100b2575f3660031901126100b257736c533f7fe93fae114d0954697069df33c9b74fd760805260206080f35b5f80fd5b602435906001600160a01b03821682036100b257565b346100b25760803660031901126100b2576004356001600160401b0381116100b257606060031982360301126100b2576101046100b6565b606435916044356001600160401b0384116100b257366023850112156100b2576004840135926001600160401b0384116100b25736602485870101116100b2576024610154950192600401610355565b005b346100b2575f3660031901126100b25761016e6104b0565b5f80546001600160a01b0319811682556001600160a01b03165f805160206104d78339815191528280a3005b634e487b7160e01b5f52604160045260245ffd5b60408051919082016001600160401b038111838210176101cd57604052565b61019a565b6040519190601f01601f191682016001600160401b038111838210176101cd57604052565b60409060031901126100b25761020b6101ae565b906004356001600160a01b03811681036100b25782526024356020830152565b346100b25760403660031901126100b257610154610248366101f7565b3361046c565b346100b25760603660031901126100b257610268366101f7565b6044358015158091036100b257602060018060a01b038351169201519060405191825260208201527f9eeb44d7bbbf350445c57eece65dab1b3f86fbdd10c6125be2ce0884743db0d560403392a3005b346100b2575f3660031901126100b2575f546040516001600160a01b039091168152602090f35b346100b25760203660031901126100b2576004356001600160a01b038116908190036100b25761030d6104b0565b8015610342575f80546001600160a01b03198116831782556001600160a01b0316905f805160206104d78339815191529080a3005b631e4fbdf760e01b5f525f60045260245ffd5b9193509150736c533f7fe93fae114d0954697069df33c9b74fd7330361040a57803590601e19813603018212156100b25701803592906001600160401b0384116100b257602081019084360382136100b2576103ba601f8601601f19166020016101d2565b9085825260208636920101116100b2575f602086610408976103e3958386013783010152610418565b906103fe6103ef6101ae565b6001600160a01b039094168452565b602083015261046c565b565b6282b42960e81b5f5260045ffd5b6014815103610428576014015190565b60405162461bcd60e51b815260206004820152601c60248201527b092dcecc2d8d2c840c2c8c8e4cae6e640c4f2e8cae640d8cadccee8d60231b6044820152606490fd5b81516020928301516040519081526001600160a01b039182169392909116917f9d278c56ba6dc86a12eefe6b43112bd6e06648eb4ec0b950ee2d783d40e2acb491a3565b5f546001600160a01b031633036104c357565b63118cdaa760e01b5f523360045260245ffdfe8be0079c531659141344cd1fd0a4f28419497f9722a3daafe3b4186f6b6457e0a264697066735822122013cce22b0e17e850d4bb684417009bd563a792552a773af2de2445a3eff1c5aa64736f6c634300081a0033",
  "linkReferences": {},
  "deployedLinkReferences": {}
}