{
  "_format": "hh-sol-artifact-1",
  "contractName": "CompositeLiquidityRouter",
  "sourceName": "contracts/CompositeLiquidityRouter.sol",
  "abi": [
    {
      "inputs": [
        {
          "internalType": "contract IVault",
          "name": "vault",
          "type": "address"
        },
        {
          "internalType": "contract IWETH",
          "name": "weth",
          "type": "address"
        },
        {
          "internalType": "string",
          "name": "routerVersion",
          "type": "string"
        }
      ],
      "stateMutability": "nonpayable",
      "type": "constructor"
    },
    {
      "inputs": [
        {
          "internalType": "address",
          "name": "target",
          "type": "address"
        }
      ],
      "name": "AddressEmptyCode",
      "type": "error"
    },
    {
      "inputs": [
        {
          "internalType": "contract IERC20",
          "name": "tokenIn",
          "type": "address"
        },
        {
          "internalType": "uint256",
          "name": "amountIn",
          "type": "uint256"
        },
        {
          "internalType": "uint256",
          "name": "maxAmountIn",
          "type": "uint256"
        }
      ],
      "name": "AmountInAboveMax",
      "type": "error"
    },
    {
      "inputs": [
        {
          "internalType": "contract IERC20",
          "name": "tokenOut",
          "type": "address"
        },
        {
          "internalType": "uint256",
          "name": "amountOut",
          "type": "uint256"
        },
        {
          "internalType": "uint256",
          "name": "minAmountOut",
          "type": "uint256"
        }
      ],
      "name": "AmountOutBelowMin",
      "type": "error"
    },
    {
      "inputs": [
        {
          "internalType": "contract IERC4626",
          "name": "wrappedToken",
          "type": "address"
        }
      ],
      "name": "BufferNotInitialized",
      "type": "error"
    },
    {
      "inputs": [],
      "name": "ErrorSelectorNotFound",
      "type": "error"
    },
    {
      "inputs": [],
      "name": "EthTransfer",
      "type": "error"
    },
    {
      "inputs": [],
      "name": "FailedCall",
      "type": "error"
    },
    {
      "inputs": [],
      "name": "InputLengthMismatch",
      "type": "error"
    },
    {
      "inputs": [
        {
          "internalType": "uint256",
          "name": "balance",
          "type": "uint256"
        },
        {
          "internalType": "uint256",
          "name": "needed",
          "type": "uint256"
        }
      ],
      "name": "InsufficientBalance",
      "type": "error"
    },
    {
      "inputs": [],
      "name": "InsufficientEth",
      "type": "error"
    },
    {
      "inputs": [],
      "name": "ReentrancyGuardReentrantCall",
      "type": "error"
    },
    {
      "inputs": [
        {
          "internalType": "uint8",
          "name": "bits",
          "type": "uint8"
        },
        {
          "internalType": "uint256",
          "name": "value",
          "type": "uint256"
        }
      ],
      "name": "SafeCastOverflowedUintDowncast",
      "type": "error"
    },
    {
      "inputs": [
        {
          "internalType": "address",
          "name": "token",
          "type": "address"
        }
      ],
      "name": "SafeERC20FailedOperation",
      "type": "error"
    },
    {
      "inputs": [
        {
          "internalType": "address",
          "name": "sender",
          "type": "address"
        }
      ],
      "name": "SenderIsNotVault",
      "type": "error"
    },
    {
      "inputs": [],
      "name": "SwapDeadline",
      "type": "error"
    },
    {
      "inputs": [
        {
          "internalType": "address[]",
          "name": "expectedTokensOut",
          "type": "address[]"
        },
        {
          "internalType": "address[]",
          "name": "tokensOut",
          "type": "address[]"
        }
      ],
      "name": "WrongTokensOut",
      "type": "error"
    },
    {
      "inputs": [
        {
          "components": [
            {
              "internalType": "address",
              "name": "sender",
              "type": "address"
            },
            {
              "internalType": "address",
              "name": "pool",
              "type": "address"
            },
            {
              "internalType": "uint256[]",
              "name": "maxAmountsIn",
              "type": "uint256[]"
            },
            {
              "internalType": "uint256",
              "name": "minBptAmountOut",
              "type": "uint256"
            },
            {
              "internalType": "enum AddLiquidityKind",
              "name": "kind",
              "type": "uint8"
            },
            {
              "internalType": "bool",
              "name": "wethIsEth",
              "type": "bool"
            },
            {
              "internalType": "bytes",
              "name": "userData",
              "type": "bytes"
            }
          ],
          "internalType": "struct IRouterCommon.AddLiquidityHookParams",
          "name": "params",
          "type": "tuple"
        },
        {
          "internalType": "bool[]",
          "name": "wrapUnderlying",
          "type": "bool[]"
        }
      ],
      "name": "addLiquidityERC4626PoolProportionalHook",
      "outputs": [
        {
          "internalType": "address[]",
          "name": "tokensIn",
          "type": "address[]"
        },
        {
          "internalType": "uint256[]",
          "name": "amountsIn",
          "type": "uint256[]"
        }
      ],
      "stateMutability": "nonpayable",
      "type": "function"
    },
    {
      "inputs": [
        {
          "components": [
            {
              "internalType": "address",
              "name": "sender",
              "type": "address"
            },
            {
              "internalType": "address",
              "name": "pool",
              "type": "address"
            },
            {
              "internalType": "uint256[]",
              "name": "maxAmountsIn",
              "type": "uint256[]"
            },
            {
              "internalType": "uint256",
              "name": "minBptAmountOut",
              "type": "uint256"
            },
            {
              "internalType": "enum AddLiquidityKind",
              "name": "kind",
              "type": "uint8"
            },
            {
              "internalType": "bool",
              "name": "wethIsEth",
              "type": "bool"
            },
            {
              "internalType": "bytes",
              "name": "userData",
              "type": "bytes"
            }
          ],
          "internalType": "struct IRouterCommon.AddLiquidityHookParams",
          "name": "params",
          "type": "tuple"
        },
        {
          "internalType": "bool[]",
          "name": "wrapUnderlying",
          "type": "bool[]"
        }
      ],
      "name": "addLiquidityERC4626PoolUnbalancedHook",
      "outputs": [
        {
          "internalType": "uint256",
          "name": "bptAmountOut",
          "type": "uint256"
        }
      ],
      "stateMutability": "nonpayable",
      "type": "function"
    },
    {
      "inputs": [
        {
          "internalType": "address",
          "name": "pool",
          "type": "address"
        },
        {
          "internalType": "bool[]",
          "name": "wrapUnderlying",
          "type": "bool[]"
        },
        {
          "internalType": "uint256[]",
          "name": "maxAmountsIn",
          "type": "uint256[]"
        },
        {
          "internalType": "uint256",
          "name": "exactBptAmountOut",
          "type": "uint256"
        },
        {
          "internalType": "bool",
          "name": "wethIsEth",
          "type": "bool"
        },
        {
          "internalType": "bytes",
          "name": "userData",
          "type": "bytes"
        }
      ],
      "name": "addLiquidityProportionalToERC4626Pool",
      "outputs": [
        {
          "internalType": "address[]",
          "name": "tokensIn",
          "type": "address[]"
        },
        {
          "internalType": "uint256[]",
          "name": "amountsIn",
          "type": "uint256[]"
        }
      ],
      "stateMutability": "payable",
      "type": "function"
    },
    {
      "inputs": [
        {
          "internalType": "address",
          "name": "pool",
          "type": "address"
        },
        {
          "internalType": "bool[]",
          "name": "wrapUnderlying",
          "type": "bool[]"
        },
        {
          "internalType": "uint256[]",
          "name": "exactAmountsIn",
          "type": "uint256[]"
        },
        {
          "internalType": "uint256",
          "name": "minBptAmountOut",
          "type": "uint256"
        },
        {
          "internalType": "bool",
          "name": "wethIsEth",
          "type": "bool"
        },
        {
          "internalType": "bytes",
          "name": "userData",
          "type": "bytes"
        }
      ],
      "name": "addLiquidityUnbalancedToERC4626Pool",
      "outputs": [
        {
          "internalType": "uint256",
          "name": "bptAmountOut",
          "type": "uint256"
        }
      ],
      "stateMutability": "payable",
      "type": "function"
    },
    {
      "inputs": [],
      "name": "getPermit2",
      "outputs": [
        {
          "internalType": "address",
          "name": "",
          "type": "address"
        }
      ],
      "stateMutability": "view",
      "type": "function"
    },
    {
      "inputs": [],
      "name": "getSender",
      "outputs": [
        {
          "internalType": "address",
          "name": "",
          "type": "address"
        }
      ],
      "stateMutability": "view",
      "type": "function"
    },
    {
      "inputs": [],
      "name": "getWeth",
      "outputs": [
        {
          "internalType": "contract IWETH",
          "name": "",
          "type": "address"
        }
      ],
      "stateMutability": "view",
      "type": "function"
    },
    {
      "inputs": [
        {
          "internalType": "bytes[]",
          "name": "data",
          "type": "bytes[]"
        }
      ],
      "name": "multicall",
      "outputs": [
        {
          "internalType": "bytes[]",
          "name": "results",
          "type": "bytes[]"
        }
      ],
      "stateMutability": "payable",
      "type": "function"
    },
    {
      "inputs": [
        {
          "components": [
            {
              "internalType": "address",
              "name": "token",
              "type": "address"
            },
            {
              "internalType": "address",
              "name": "owner",
              "type": "address"
            },
            {
              "internalType": "address",
              "name": "spender",
              "type": "address"
            },
            {
              "internalType": "uint256",
              "name": "amount",
              "type": "uint256"
            },
            {
              "internalType": "uint256",
              "name": "nonce",
              "type": "uint256"
            },
            {
              "internalType": "uint256",
              "name": "deadline",
              "type": "uint256"
            }
          ],
          "internalType": "struct IRouterCommon.PermitApproval[]",
          "name": "permitBatch",
          "type": "tuple[]"
        },
        {
          "internalType": "bytes[]",
          "name": "permitSignatures",
          "type": "bytes[]"
        },
        {
          "components": [
            {
              "components": [
                {
                  "internalType": "address",
                  "name": "token",
                  "type": "address"
                },
                {
                  "internalType": "uint160",
                  "name": "amount",
                  "type": "uint160"
                },
                {
                  "internalType": "uint48",
                  "name": "expiration",
                  "type": "uint48"
                },
                {
                  "internalType": "uint48",
                  "name": "nonce",
                  "type": "uint48"
                }
              ],
              "internalType": "struct IAllowanceTransfer.PermitDetails[]",
              "name": "details",
              "type": "tuple[]"
            },
            {
              "internalType": "address",
              "name": "spender",
              "type": "address"
            },
            {
              "internalType": "uint256",
              "name": "sigDeadline",
              "type": "uint256"
            }
          ],
          "internalType": "struct IAllowanceTransfer.PermitBatch",
          "name": "permit2Batch",
          "type": "tuple"
        },
        {
          "internalType": "bytes",
          "name": "permit2Signature",
          "type": "bytes"
        },
        {
          "internalType": "bytes[]",
          "name": "multicallData",
          "type": "bytes[]"
        }
      ],
      "name": "permitBatchAndCall",
      "outputs": [
        {
          "internalType": "bytes[]",
          "name": "results",
          "type": "bytes[]"
        }
      ],
      "stateMutability": "payable",
      "type": "function"
    },
    {
      "inputs": [
        {
          "internalType": "address",
          "name": "pool",
          "type": "address"
        },
        {
          "internalType": "bool[]",
          "name": "wrapUnderlying",
          "type": "bool[]"
        },
        {
          "internalType": "uint256",
          "name": "exactBptAmountOut",
          "type": "uint256"
        },
        {
          "internalType": "address",
          "name": "sender",
          "type": "address"
        },
        {
          "internalType": "bytes",
          "name": "userData",
          "type": "bytes"
        }
      ],
      "name": "queryAddLiquidityProportionalToERC4626Pool",
      "outputs": [
        {
          "internalType": "address[]",
          "name": "tokensIn",
          "type": "address[]"
        },
        {
          "internalType": "uint256[]",
          "name": "amountsIn",
          "type": "uint256[]"
        }
      ],
      "stateMutability": "nonpayable",
      "type": "function"
    },
    {
      "inputs": [
        {
          "internalType": "address",
          "name": "pool",
          "type": "address"
        },
        {
          "internalType": "bool[]",
          "name": "wrapUnderlying",
          "type": "bool[]"
        },
        {
          "internalType": "uint256[]",
          "name": "exactAmountsIn",
          "type": "uint256[]"
        },
        {
          "internalType": "address",
          "name": "sender",
          "type": "address"
        },
        {
          "internalType": "bytes",
          "name": "userData",
          "type": "bytes"
        }
      ],
      "name": "queryAddLiquidityUnbalancedToERC4626Pool",
      "outputs": [
        {
          "internalType": "uint256",
          "name": "bptAmountOut",
          "type": "uint256"
        }
      ],
      "stateMutability": "nonpayable",
      "type": "function"
    },
    {
      "inputs": [
        {
          "internalType": "address",
          "name": "pool",
          "type": "address"
        },
        {
          "internalType": "bool[]",
          "name": "unwrapWrapped",
          "type": "bool[]"
        },
        {
          "internalType": "uint256",
          "name": "exactBptAmountIn",
          "type": "uint256"
        },
        {
          "internalType": "address",
          "name": "sender",
          "type": "address"
        },
        {
          "internalType": "bytes",
          "name": "userData",
          "type": "bytes"
        }
      ],
      "name": "queryRemoveLiquidityProportionalFromERC4626Pool",
      "outputs": [
        {
          "internalType": "address[]",
          "name": "tokensOut",
          "type": "address[]"
        },
        {
          "internalType": "uint256[]",
          "name": "amountsOut",
          "type": "uint256[]"
        }
      ],
      "stateMutability": "nonpayable",
      "type": "function"
    },
    {
      "inputs": [
        {
          "components": [
            {
              "internalType": "address",
              "name": "sender",
              "type": "address"
            },
            {
              "internalType": "address",
              "name": "pool",
              "type": "address"
            },
            {
              "internalType": "uint256[]",
              "name": "minAmountsOut",
              "type": "uint256[]"
            },
            {
              "internalType": "uint256",
              "name": "maxBptAmountIn",
              "type": "uint256"
            },
            {
              "internalType": "enum RemoveLiquidityKind",
              "name": "kind",
              "type": "uint8"
            },
            {
              "internalType": "bool",
              "name": "wethIsEth",
              "type": "bool"
            },
            {
              "internalType": "bytes",
              "name": "userData",
              "type": "bytes"
            }
          ],
          "internalType": "struct IRouterCommon.RemoveLiquidityHookParams",
          "name": "params",
          "type": "tuple"
        },
        {
          "internalType": "bool[]",
          "name": "unwrapWrapped",
          "type": "bool[]"
        }
      ],
      "name": "removeLiquidityERC4626PoolProportionalHook",
      "outputs": [
        {
          "internalType": "address[]",
          "name": "tokensOut",
          "type": "address[]"
        },
        {
          "internalType": "uint256[]",
          "name": "amountsOut",
          "type": "uint256[]"
        }
      ],
      "stateMutability": "nonpayable",
      "type": "function"
    },
    {
      "inputs": [
        {
          "internalType": "address",
          "name": "pool",
          "type": "address"
        },
        {
          "internalType": "bool[]",
          "name": "unwrapWrapped",
          "type": "bool[]"
        },
        {
          "internalType": "uint256",
          "name": "exactBptAmountIn",
          "type": "uint256"
        },
        {
          "internalType": "uint256[]",
          "name": "minAmountsOut",
          "type": "uint256[]"
        },
        {
          "internalType": "bool",
          "name": "wethIsEth",
          "type": "bool"
        },
        {
          "internalType": "bytes",
          "name": "userData",
          "type": "bytes"
        }
      ],
      "name": "removeLiquidityProportionalFromERC4626Pool",
      "outputs": [
        {
          "internalType": "address[]",
          "name": "tokensOut",
          "type": "address[]"
        },
        {
          "internalType": "uint256[]",
          "name": "amountsOut",
          "type": "uint256[]"
        }
      ],
      "stateMutability": "payable",
      "type": "function"
    },
    {
      "inputs": [],
      "name": "version",
      "outputs": [
        {
          "internalType": "string",
          "name": "",
          "type": "string"
        }
      ],
      "stateMutability": "view",
      "type": "function"
    },
    {
      "stateMutability": "payable",
      "type": "receive"
    }
  ],
  "bytecode": "0x6101a08060405234610513576134cc803803809161001d8285610517565b8339810190606081830312610513578051906001600160a01b0382168203610513576020810151906001600160a01b0382168203610513576040810151906001600160401b038211610513570183601f82011215610513578051906001600160401b0382116104ff576040519461009e601f8401601f191660200187610517565b8286526020838301011161051357815f9260208093018388015e8501015260409161010b83516100ce8582610517565b600b81526a14d95b99195c91dd585c9960aa1b60208201528451906100f38683610517565b600682526539b2b73232b960d11b6020830152610572565b60805260a05282516001600160401b0381116104ff575f54600181811c911680156104f5575b60208210146104e157601f811161047f575b506020601f821160011461041e57819293945f92610413575b50508160011b915f199060031b1c1916175f555b6101c8825161017f8482610517565b600c81526b2937baba32b921b7b6b6b7b760a11b60208201528351906101a58583610517565b60118252701a5cd4995d1d5c9b915d1a131bd8dad959607a1b6020830152610572565b60c05260e05261020c81516101dd8382610517565b601381527f63757272656e7453776170546f6b656e73496e00000000000000000000000000602082015261053a565b6101005261024e815161021f8382610517565b601481527f63757272656e7453776170546f6b656e734f7574000000000000000000000000602082015261053a565b6101205261029081516102618382610517565b601981527f63757272656e7453776170546f6b656e496e416d6f756e747300000000000000602082015261053a565b610140526102d281516102a38382610517565b601a81527f63757272656e7453776170546f6b656e4f7574416d6f756e7473000000000000602082015261053a565b6101605261031481516102e58382610517565b601381527f736574746c6564546f6b656e416d6f756e747300000000000000000000000000602082015261053a565b6101805251612ea2908161062a823960805181818161025b01528181610644015281816108c8015281816126710152612a59015260a05181818161014c01528181610372015281816105e2015281816107a101528181610a1a01528181610f2d015281816116e4015281816117db015281816118c901528181611a68015281816127c4015281816128700152818161299501528181612b4f0152612c83015260c0518181816125ff0152612a9f015260e051818181601c01528181611be5015281816128bb01528181612a2401528181612af10152612d8501526101005181505061012051815050610140518150506101605181505061018051815050f35b015190505f8061015c565b601f198216905f8052805f20915f5b8181106104675750958360019596971061044f575b505050811b015f55610170565b01515f1960f88460031b161c191690555f8080610442565b9192602060018192868b01518155019401920161042d565b5f80527f290decd9548b62a8d60345a988386fc84ba6bc95484008f6362f93160ef3e563601f830160051c810191602084106104d7575b601f0160051c01905b8181106104cc5750610143565b5f81556001016104bf565b90915081906104b6565b634e487b7160e01b5f52602260045260245ffd5b90607f1690610131565b634e487b7160e01b5f52604160045260245ffd5b5f80fd5b601f909101601f19168101906001600160401b038211908210176104ff57604052565b61056f9060405161054c604082610517565b60118152702130ba31b42937baba32b921b7b6b6b7b760791b6020820152610572565b90565b906105e26001602092603960405194859281808501987f62616c616e6365722d6c6162732e76332e73746f726167652e000000000000008a528051918291018587015e840190601760f91b84830152805192839101603a83015e01015f838201520301601f198101835282610517565b5190205f1981019081116106155760405190602082019081526020825261060a604083610517565b9051902060ff191690565b634e487b7160e01b5f52601160045260245ffdfe608080604052600436101561005b575b50361561001a575f80fd5b7f00000000000000000000000000000000000000000000000000000000000000006001600160a01b0316330361004c57005b6302a06efb60e11b5f5260045ffd5b5f3560e01c908163107c279f14611bd35750806319aceff31461168e57806319c6989f146113145780631bbf2e23146112fa57806327bfb13a14610f0b5780634c97a878146109f557806354fd4d50146108f05780635e01eb5a146108ab578063698cc74b14610763578063ac9650d814610720578063c1da024c14610685578063c9b8ddb2146104c4578063d8a7f9fe146103d6578063e3c3e64f146102d35763f921696e1461010c575f61000f565b346102cf5761012761011d36611f27565b9391929490612a54565b60405163ca4f280360e01b81526001600160a01b0392831660048201819052919590927f000000000000000000000000000000000000000000000000000000000000000016915f84602481865afa9081156102a2575f9687966101996101f69461021a988a916102ad575b5051612164565b604051936101a685611df4565b3085526020850152604084015260608301528660808301528660a083015260c08201526101e8604051938492630992f50f60e31b602085015260248401612739565b03601f198101835282611e0f565b604051948580948193631dbf46ad60e31b8352602060048401526024830190611d11565b03925af180156102a25761023f915f91610280575b506020808251830101910161254f565b91610258575b61025460405192839283611c96565b0390f35b5f7f00000000000000000000000000000000000000000000000000000000000000005d610245565b61029c91503d805f833e6102948183611e0f565b81019061252a565b5f61022f565b6040513d5f823e3d90fd5b6102c991503d808c833e6102c18183611e0f565b8101906120a5565b5f610192565b5f80fd5b61034b61036d5f6102e336612003565b916102f2989495939833612a54565b986040519461030086611df4565b33865260018060a01b0316602086015260408501526060840152856080840152151560a083015260c08201526101e86040519384926319aceff360e01b602085015260248401612499565b604051809381926348c8949160e01b8352602060048401526024830190611d11565b0381837f00000000000000000000000000000000000000000000000000000000000000006001600160a01b03165af180156102a25761023f915f916103bc57506020808251830101910161254f565b6103d091503d805f833e6102948183611e0f565b8361022f565b60c03660031901126102cf576103ea611d94565b6024356001600160401b0381116102cf57610409903690600401611e9d565b906064356001600160401b0381116102cf57610429903690600401611fe8565b91608435908115158092036102cf5760a4356001600160401b0381116102cf5761036d935f9361046061034b933690600401611f0c565b9061046a33612a54565b976040519361047885611df4565b33855260018060a01b031660208501526040840152604435606084015285608084015260a083015260c08201526101e8604051938492630992f50f60e31b602085015260248401612739565b346102cf5760a03660031901126102cf576104dd611d94565b6024356001600160401b0381116102cf576104fc903690600401611e9d565b6044356001600160401b0381116102cf5761051b903690600401611fe8565b90606435906001600160a01b03821682036102cf576084356001600160401b0381116102cf576105dd945f9361056161055b6105bb943690600401611f0c565b91612a54565b956040519261056f84611df4565b30845260018060a01b031660208401526040830152846060830152600160808301528460a083015260c08201526101e86040519384926313dfd89d60e11b602085015260248401612499565b60405180948192631dbf46ad60e31b8352602060048401526024830190611d11565b0381837f00000000000000000000000000000000000000000000000000000000000000006001600160a01b03165af19182156102a2575f92610669575b50602082519281808201948592010103126102cf576020915190610641575b604051908152f35b5f7f00000000000000000000000000000000000000000000000000000000000000005d610639565b61067e9192503d805f833e6102948183611e0f565b908261061a565b6105dd6106fe5f61069536612003565b916106a4979495939733612a54565b97604051946106b286611df4565b33865260018060a01b031660208601526040850152606084015260016080840152151560a083015260c08201526101e86040519384926313dfd89d60e11b602085015260248401612499565b604051809481926348c8949160e01b8352602060048401526024830190611d11565b60203660031901126102cf576004356001600160401b0381116102cf57610757610751610254923690600401611c14565b906125f1565b60405191829182611d35565b346102cf5761077e61077436611f27565b9490939193612a54565b60405163ca4f280360e01b81526001600160a01b039283166004820181905291957f000000000000000000000000000000000000000000000000000000000000000090931694919291905f81602481895afa9081156102a2575f91610891575b50516107e981612164565b905f5b81811061087557885f806108518b8b6101f68c8c8c8c6040519361080f85611df4565b3085526020850152604084015260608301528660808301528660a083015260c08201526101e86040519384926319aceff360e01b602085015260248401612499565b03925af180156102a25761023f915f916103bc57506020808251830101910161254f565b6001906001600160801b0361088a8286612196565b52016107ec565b6108a591503d805f833e6102c18183611e0f565b876107de565b346102cf575f3660031901126102cf576040516001600160a01b037f00000000000000000000000000000000000000000000000000000000000000005c168152602090f35b346102cf575f3660031901126102cf576040515f80548060011c906001811680156109eb575b6020831081146109d7578285529081156109b35750600114610957575b6102548361094381850382611e0f565b604051918291602083526020830190611d11565b5f8080527f290decd9548b62a8d60345a988386fc84ba6bc95484008f6362f93160ef3e563939250905b80821061099957509091508101602001610943610933565b919260018160209254838588010152019101909291610981565b60ff191660208086019190915291151560051b840190910191506109439050610933565b634e487b7160e01b5f52602260045260245ffd5b91607f1691610916565b346102cf57610a0336611c44565b610a0b61279c565b610a136127c2565b60208301927f00000000000000000000000000000000000000000000000000000000000000006001600160a01b0316610a4b85612091565b60405163ca4f280360e01b81526001600160a01b039091166004820152935f85602481855afa9485156102a2575f95610eef575b508451936040840192610a9e82610a96868861212f565b905088612807565b610ab0610aaa87612164565b98612091565b91610aba86612091565b92610ac488612164565b9360808801359160048310156102cf57610bb55f93606097610ba3610b97610b3c8e610af360c08201826121be565b909160405199610b028b611dbe565b6001600160a01b039081168b529a909a1660208a0190815299909d01356040890190815260608901958652608089019687529c3691611ed6565b60a08701908152604051632145789760e01b81526020600482015296516001600160a01b0390811660248901529751909716604487015299516064860152905160c060848601529398899586959092919060e48701906122fd565b925160a48601906123bf565b518382036023190160c4850152611d11565b038183865af19283156102a2575f93610e89575b50969596321592610bd989612164565b975f5b8a8110610c04578b8a5f5f80516020612e4d8339815191525d61025460405192839283611c96565b6001600160a01b03610c168284612196565b5116604051630387587d60e01b81528160048201526020816024818a5afa9081156102a2575f91610e50575b506001600160a01b031690610c60610c5b84888c6123e0565b6123b2565b15610df0578115610dde576060610cd2918c610c9186610c8b8f610c84838d612196565b519461212f565b906123e0565b359060405192610ca084611dd9565b5f8452600160208501526040840152838301526080820152604051809381926343583be560e01b835260048301612415565b03815f8b5af180156102a257838f925f92610da9575b50610cf39192612196565b5280610cff838d612196565b528c8a8815610d77575b5050505b610d17818d612196565b51610d2682610c8b8b8d61212f565b3511610d3457600101610bdc565b8b89610d5d83610c8b8c8f83610c8491610d558260018060a01b0392612196565b511697612196565b35916317bc2f2360e11b5f5260045260245260445260645ffd5b610da192610d9b60a0610d9387610d8d86612091565b96612196565b5193016123b2565b92612855565b8c8c8a610d09565b610cf39250610dce9060603d8111610dd7575b610dc68183611e0f565b8101906123fa565b91505091610ce8565b503d610dbc565b6385f4129960e01b5f5260045260245ffd5b90508c610e0883610e018188612196565b5192612196565b52610e13828c612196565b5285610d0d57610e4b8c8a610e2781612091565b91610d9b60a0610d93876001600160a01b03610e43828c612196565b511694612196565b610d0d565b90506020813d8211610e81575b81610e6a60209383611e0f565b810103126102cf57610e7b906123cc565b8e610c42565b3d9150610e5d565b9092503d805f833e610e9b8183611e0f565b8101906060818303126102cf5760208101516001600160401b0381116102cf5782610ec7918301612210565b60408201519092906001600160401b0381116102cf57610ee7920161226d565b509189610bc9565b610f049195503d805f833e6102c18183611e0f565b9386610a7f565b346102cf57610f1936611c44565b9091610f2361279c565b610f2b6127c2565b7f00000000000000000000000000000000000000000000000000000000000000006001600160a01b0316926020820190610f6482612091565b60405163ca4f280360e01b81526001600160a01b039091166004820152935f85602481895afa9485156102a2575f956112da575b50610fe890610ff0865193610fbe836040890196610fb6888b61212f565b919050612807565b610fd1610fca88612091565b958861212f565b949091610fe060a08a016123b2565b943691611e49565b933691611f9c565b865192610ffc84612164565b975f5b858110611104578a8a8a61101b8b6110168c612a96565b612091565b9261102582612091565b93608083013560058110156102cf575f95869561108a6110919360608861105260c06110b29b01826121be565b959096604051996110628b611dbe565b6001600160a01b039081168b521660208a0152604089015201356060870152608086016121f0565b3691611ed6565b60a08201526040519485809481936312bca7b160e21b83526004830161233d565b03925af180156102a2576020915f916110df575b505f5f80516020612e4d8339815191525d604051908152f35b6110fb91503d805f833e6110f38183611e0f565b8101906122b3565b509050826110c6565b6001600160a01b036111168284612196565b511690602460208d60405192838092630387587d60e01b82528760048301525afa9081156102a2575f916112a1575b506001600160a01b0316918661115b8387612196565b511561125d57508215610dde578c90878a5f95611178868b612196565b51611198575b5050505050600191611190828d612196565b525b01610fff565b5f9650606094926111fd949287928c3261123f575b9150506111bb929150612196565b51604051916111c983611dd9565b8783528760208401526040830152848201528560808201526040519586809481936343583be560e01b835260048301612415565b03925af180156102a2576001925f9161121e575b5091508b8d878a8261117e565b611236915060603d8111610dd757610dc68183611e0f565b9150508d611211565b6112539461124c91612196565b5191612ad9565b848a8d5f8c6111ad565b6001935082918d61127284610e01818c612196565b528d32611283575b50505050611192565b6112989361129091612196565b51908b612ad9565b80868e8d61127a565b90506020813d82116112d2575b816112bb60209383611e0f565b810103126102cf576112cc906123cc565b8d611145565b3d91506112ae565b610fe89195506112f3903d805f833e6102c18183611e0f565b9490610f98565b346102cf575f3660031901126102cf5760206040515f8152f35b60a03660031901126102cf576004356001600160401b0381116102cf57366023820112156102cf5760048101356001600160401b0381116102cf5736602460c08302840101116102cf576024356001600160401b0381116102cf5761137d903690600401611c14565b906044356001600160401b0381116102cf578036039060606003198301126102cf576064356001600160401b0381116102cf57366023820112156102cf5760048101356001600160401b0381116102cf57369101602401116102cf576084356001600160401b0381116102cf576113f8903690600401611c14565b92909161140361279c565b85870361167f575f5b8781101561162d5761142261108a828989612713565b604051606081016001600160401b03811182821017611619576040525f815260208101905f825260408101925f8452602081015190606060408201519101515f1a9183528352835260c084028c019060c060231983360301126102cf576040519361148c85611dbe565b61149860248401611daa565b918286526114a860448501611daa565b9460208701958087526114bd60648701611daa565b604089015260848601359260ff60c460608b0198868a5260a481013560808d01520135968760a08c015260018060a01b03169551169051925194803b156102cf575f9560e4948793604051998a98899763d505accf60e01b895260018060a01b0316600489015230602489015260448801526064870152608486015260a485015260c48401525af19081611609575b506115fe57602061155b612826565b93519251604051636eb1769f60e11b81526001600160a01b0391821660048201523060248201529384916044918391165afa9182156102a2575f926115cb575b5051036115ad57506001905b0161140c565b8051156115bc57805190602001fd5b63a728568960e01b5f5260045ffd5b9091506020813d82116115f6575b816115e660209383611e0f565b810103126102cf5751908c61159b565b3d91506115d9565b5050506001906115a7565b5f61161391611e0f565b8d61154c565b634e487b7160e01b5f52604160045260245ffd5b50600481013591602219018212156102cf570160048101356001600160401b0381116102cf5760249060071b36039101136102cf5761025491610757915f5f80516020612e4d8339815191525d6125f1565b63aaad13f760e01b5f5260045ffd5b346102cf5761169c36611c44565b916116a561279c565b6116ad6127c2565b602081016116ba81612091565b60405163ca4f280360e01b81526001600160a01b03918216600482015292905f90849060249082907f0000000000000000000000000000000000000000000000000000000000000000165afa9283156102a2575f93611bb7575b50825193604082019261172b87610a96868661212f565b61173486612164565b955f5b818110611b9b57505061174990612091565b9461175383612091565b95608084013560058110156102cf576117d6975f9361108a6117b79361177c60c08a018a6121be565b9390946040519761178c89611dbe565b6001600160a01b039081168952166020880152604087015260608981013590870152608086016121f0565b60a0820152604051809781926312bca7b160e21b83526004830161233d565b0381837f00000000000000000000000000000000000000000000000000000000000000006001600160a01b03165af19485156102a2575f95611b70575b508161184561184d9261183d61183461182d60a097612091565b978561212f565b969094016123b2565b983691611e49565b923691611f9c565b9083519461185a86612164565b9661186487612164565b955f5b88811061189857898861187989612a96565b5f5f80516020612e4d8339815191525d61025460405192839283611c96565b6001600160a01b036118aa8284612196565b51604051630387587d60e01b81529116600482018190526020826024817f00000000000000000000000000000000000000000000000000000000000000006001600160a01b03165afa9182156102a2575f92611b35575b5061190c8388612196565b5115611aec576001600160a01b03821615610dde575f9061192d8488612196565b516119ff575b50326119bb575b611944838d612196565b526001600160a01b0316611958828a612196565b525b611964818b612196565b5161196f8288612196565b511061197d57600101611867565b89866119a183610e01818d6119998260018060a01b0392612196565b511695612196565b51916323b6a17960e21b5f5260045260245260445260645ffd5b6119c58389612196565b518181039081116119eb576119e69086906001600160a01b0385168c612855565b61193a565b634e487b7160e01b5f52601160045260245ffd5b611a63915060609032611ac8575b611a178589612196565b51611a22868c612196565b519060405192611a3184611dd9565b600184525f60208501526040840152838301526080820152604051809381926343583be560e01b835260048301612415565b03815f7f00000000000000000000000000000000000000000000000000000000000000006001600160a01b03165af19081156102a2575f91611aa7575b508c611933565b611abf915060603d8111610dd757610dc68183611e0f565b5090508c611aa0565b611ae787611ad6878d612196565b516001600160a01b0387168e612ad9565b611a0d565b905032611b1a575b611afe8286612196565b51611b09838d612196565b52611b14828a612196565b5261195a565b611b3084611b288488612196565b51838b612ad9565b611af4565b9091506020813d8211611b68575b81611b5060209383611e0f565b810103126102cf57611b61906123cc565b908c611901565b3d9150611b43565b61184d91955091611845611b8f60a0943d805f833e6110f38183611e0f565b50509692505091611813565b6001906001600160801b03611bb0828b612196565b5201611737565b611bcc9193503d805f833e6102c18183611e0f565b9185611714565b346102cf575f3660031901126102cf577f00000000000000000000000000000000000000000000000000000000000000006001600160a01b03168152602090f35b9181601f840112156102cf578235916001600160401b0383116102cf576020808501948460051b0101116102cf57565b9060406003198301126102cf576004356001600160401b0381116102cf5760e081840360031901126102cf5760040191602435906001600160401b0382116102cf57611c9291600401611c14565b9091565b604081016040825282518091526020606083019301905f5b818110611cf2575050506020818303910152602080835192838152019201905f5b818110611cdc5750505090565b8251845260209384019390920191600101611ccf565b82516001600160a01b0316855260209485019490920191600101611cae565b805180835260209291819084018484015e5f828201840152601f01601f1916010190565b602081016020825282518091526040820191602060408360051b8301019401925f915b838310611d6757505050505090565b9091929394602080611d85600193603f198682030187528951611d11565b97019301930191939290611d58565b600435906001600160a01b03821682036102cf57565b35906001600160a01b03821682036102cf57565b60c081019081106001600160401b0382111761161957604052565b60a081019081106001600160401b0382111761161957604052565b60e081019081106001600160401b0382111761161957604052565b601f909101601f19168101906001600160401b0382119082101761161957604052565b6001600160401b0381116116195760051b60200190565b9291611e5482611e32565b93611e626040519586611e0f565b602085848152019260051b81019182116102cf57915b818310611e8457505050565b823580151581036102cf57815260209283019201611e78565b9080601f830112156102cf57816020611eb893359101611e49565b90565b6001600160401b03811161161957601f01601f191660200190565b929192611ee282611ebb565b91611ef06040519384611e0f565b8294818452818301116102cf578281602093845f960137010152565b9080601f830112156102cf57816020611eb893359101611ed6565b60a06003198201126102cf576004356001600160a01b03811681036102cf57916024356001600160401b0381116102cf5782611f6591600401611e9d565b91604435916064356001600160a01b03811681036102cf5791608435906001600160401b0382116102cf57611eb891600401611f0c565b929190611fa881611e32565b93611fb66040519586611e0f565b602085838152019160051b81019283116102cf57905b828210611fd857505050565b8135815260209182019101611fcc565b9080601f830112156102cf57816020611eb893359101611f9c565b9060c06003198301126102cf576004356001600160a01b03811681036102cf57916024356001600160401b0381116102cf578161204291600401611e9d565b916044356001600160401b0381116102cf578261206191600401611fe8565b916064359160843580151581036102cf579160a435906001600160401b0382116102cf57611eb891600401611f0c565b356001600160a01b03811681036102cf5790565b6020818303126102cf578051906001600160401b0382116102cf57019080601f830112156102cf578151906120d982611e32565b926120e76040519485611e0f565b82845260208085019360051b8201019182116102cf57602001915b81831061210f5750505090565b82516001600160a01b03811681036102cf57815260209283019201612102565b903590601e19813603018212156102cf57018035906001600160401b0382116102cf57602001918160051b360383136102cf57565b9061216e82611e32565b61217b6040519182611e0f565b828152809261218c601f1991611e32565b0190602036910137565b80518210156121aa5760209160051b010190565b634e487b7160e01b5f52603260045260245ffd5b903590601e19813603018212156102cf57018035906001600160401b0382116102cf576020019181360383136102cf57565b60058210156121fc5752565b634e487b7160e01b5f52602160045260245ffd5b9080601f830112156102cf57815161222781611e32565b926122356040519485611e0f565b81845260208085019260051b8201019283116102cf57602001905b82821061225d5750505090565b8151815260209182019101612250565b81601f820112156102cf5780519061228482611ebb565b926122926040519485611e0f565b828452602083830101116102cf57815f9260208093018386015e8301015290565b916060838303126102cf5782516001600160401b0381116102cf57826122da918501612210565b92602081015192604082015160018060401b0381116102cf57611eb8920161226d565b90602080835192838152019201905f5b81811061231a5750505090565b825184526020938401939092019160010161230d565b9060058210156121fc5752565b90611eb8916020815260018060a01b03825116602082015260018060a01b03602083015116604082015260a0612382604084015160c0606085015260e08401906122fd565b926060810151608084015261239e608082015183850190612330565b01519060c0601f1982850301910152611d11565b3580151581036102cf5790565b9060048210156121fc5752565b51906001600160a01b03821682036102cf57565b91908110156121aa5760051b0190565b600211156121fc57565b908160609103126102cf578051916040602083015192015190565b91909160808060a0830194805161242b816123f0565b8452602081015161243b816123f0565b60208501526040818101516001600160a01b031690850152606080820151908501520151910152565b90602080835192838152019201905f5b8181106124815750505090565b82511515845260209384019390920191600101612474565b604080825282516001600160a01b0390811682840152602084015116606083015282015160e06080830152611eb893919261251c9160c0906124e0906101208701906122fd565b91606081015160a08701526124fc608082015183880190612330565b60a0810151151560e08701520151848203603f1901610100860152611d11565b916020818403910152612464565b906020828203126102cf5781516001600160401b0381116102cf57611eb8920161226d565b9190916040818403126102cf5780516001600160401b0381116102cf57810183601f820112156102cf5780519061258582611e32565b916125936040519384611e0f565b80835260208084019160051b830101918683116102cf57602001905b8282106125d95750505060208201519093906001600160401b0381116102cf57611eb89201612210565b602080916125e6846123cc565b8152019101906125af565b91906125fc33612a54565b907f000000000000000000000000000000000000000000000000000000000000000093845c612704576001855d61263282611e32565b916126406040519384611e0f565b808352601f1961264f82611e32565b015f5b8181106126f35750505f5b8181106126a957505050905f61269e92945d7f0000000000000000000000000000000000000000000000000000000000000000805c916126a0575b50612a96565b565b5f905d5f612698565b806126d75f806126bf61108a600196888a612713565b602081519101305af46126d0612826565b9030612dfd565b6126e18287612196565b526126ec8186612196565b500161265d565b806060602080938801015201612652565b633ee5aeb560e01b5f5260045ffd5b908210156121aa57611c929160051b8101906121be565b908160209103126102cf575190565b604080825282516001600160a01b0390811682840152602084015116606083015282015160e06080830152611eb893919261251c9160c090612780906101208701906122fd565b91606081015160a08701526124fc6080820151838801906123bf565b5f80516020612e4d8339815191525c6127045760015f80516020612e4d8339815191525d565b7f00000000000000000000000000000000000000000000000000000000000000006001600160a01b031633036127f457565b63089676d560e01b5f523360045260245ffd5b8114801592919061281b575b505061167f57565b141590505f80612813565b3d15612850573d9061283782611ebb565b916128456040519384611e0f565b82523d5f602084013e565b606090565b909392935f948315612a4c5780612a16575b1561298d5750837f00000000000000000000000000000000000000000000000000000000000000006001600160a01b0316803b156129695760405163ae63932960e01b815282816064818360018060a01b037f000000000000000000000000000000000000000000000000000000000000000016968760048401523060248401528a60448401525af190811561298257839161296d575b5050803b15612969578190602460405180948193632e1a7d4d60e01b83528860048401525af1801561295e57612945575b5091925061269e916001600160a01b0316612dad565b612950858092611e0f565b61295a578361292f565b8380fd5b6040513d87823e3d90fd5b5080fd5b8161297791611e0f565b61296957815f6128fe565b6040513d85823e3d90fd5b9293509091907f00000000000000000000000000000000000000000000000000000000000000006001600160a01b0316803b156102cf5760405163ae63932960e01b81526001600160a01b03938416600482015291909216602482015260448101929092525f908290606490829084905af180156102a257612a0c5750565b5f61269e91611e0f565b506001600160a01b038181167f000000000000000000000000000000000000000000000000000000000000000090911614612867565b505050509050565b5f91907f0000000000000000000000000000000000000000000000000000000000000000805c6001600160a01b031615612a8c575050565b909192505d600190565b478015612ad5577f00000000000000000000000000000000000000000000000000000000000000005c612ad55761269e916001600160a01b0316612dad565b5050565b9280612d77575b15612c6f57508091504710612c60577f00000000000000000000000000000000000000000000000000000000000000006001600160a01b031690813b156102cf57604051630d0e30db60e41b81525f9190828160048185885af180156102a257612c4b575b5060018060a01b037f000000000000000000000000000000000000000000000000000000000000000016926020836040518281019063a9059cbb60e01b825287602482015285604482015260448152612b9f606482611e0f565b519082855af115612c405782513d612c375750803b155b612c25579060446020928460405196879485936315afd40960e01b8552600485015260248401525af1908115612c195750612bee5750565b612c0f9060203d602011612c12575b612c078183611e0f565b81019061272a565b50565b503d612bfd565b604051903d90823e3d90fd5b635274afe760e01b8352600452602482fd5b60011415612bb6565b6040513d84823e3d90fd5b612c589192505f90611e0f565b5f905f612b45565b63500d4efb60e11b5f5260045ffd5b81612c7957505050565b6001600160a01b037f00000000000000000000000000000000000000000000000000000000000000008116939181169291908211612d5f576040516323b872dd60e01b81526001600160a01b0391821660048201526024810185905290821660448201526020816064815f875af180156102a257612d24575b5060446020925f60405195869485936315afd40960e01b8552600485015260248401525af180156102a257612bee5750565b6020813d602011612d57575b81612d3d60209383611e0f565b810103126102cf575180151581036102cf57506044612cf2565b3d9150612d30565b506306dfcc6560e41b5f5260a060045260245260445ffd5b506001600160a01b038181167f000000000000000000000000000000000000000000000000000000000000000090911614612ae0565b814710612de6575f918291829182916001600160a01b03165af1612dcf612826565b5015612dd757565b63d6bda27560e01b5f5260045ffd5b504763cf47918160e01b5f5260045260245260445ffd5b90612e125750805115612dd757805190602001fd5b81511580612e43575b612e23575090565b639996b31560e01b5f9081526001600160a01b0391909116600452602490fd5b50803b15612e1b56fe9b779b17422d0df92223018b32b4d1fa46e071723d6817e2486d003becc55f00a26469706673582212201997ea3332d03667ff5e0ca8cd0281ca022cb61cdba76bcd8ee80c0be961747f64736f6c634300081a0033",
  "linkReferences": {},
  "deployedLinkReferences": {}
}